:100000009853002071210000311D00005D21000087
:100010005D2100005D2100005D2100000000000066
:10002000000000000000000000000000ED210000C2
:100030005D2100000000000041230000312B000082
:10004000AD230000AD230000AD230000AD23000070
:10005000AD230000AD230000AD230000AD23000060
:10006000AD230000AD230000AD230000AD23000050
:10007000AD230000AD230000AD230000AD23000040
:10008000AD230000AD230000AD230000AD23000030
:10009000AD230000AD230000AD230000AD23000020
:1000A000AD230000AD230000AD230000AD23000010
:1000B000AD230000AD230000AD230000AD23000000
:1000C00010F8012B11F8013B012A28BF9A42F7D002
:1000D000D01A7047034613F8012B002AFBD1181AD7
:1000E00001387047492108B5094803F0A9FF01F01C
:1000F0006BF9024620B14421064803F0A1FFFEE758
:10010000054801F041FD4421044803F099FFFEE752
:10011000BE5E0000E25E0000845B0000105F000035
:1001200030B587B003F07AFF03F079FF49211E480C
:1001300003F086FF03F071FF03A800F0F3FE04460E
:100140001A4D44212A68131A5A425A41184803F09A
:1001500077FF03F038FF28B14421164803F070FF01
:10016000FFF7C0FF2B68A34202D045211248F5E7F4
:10017000039B49215A68114803F062FF0399104814
:100180004B7D0A7DC98A0091492103F059FF49211D
:100190000C4803F055FF03A800F02AF845210A484F
:1001A00003F04EFFFEE700BF4B5F00008C02002013
:1001B000645F0000895F0000A95F0000CC5F000061
:1001C000FB5F0000196000003E60000021B10129C2
:1001D00006D06FF015007047044B53F8300070479D
:1001E000024B03EBC0035868704700BF8C5B0000F4
:1001F00010B502680D4C536812891344236004F053
:1002000093FD01F00BFD01F0DFFF23681B6883F312
:100210000888002383F31488BFF36F8FBFF36F8FB9
:100220002368BDE810405B68184700BF80020020CB
:1002300008B5024803F0F6FE002008BD6960000022
:10024000014B1B68184700BF00000020014B1860DD
:10025000704700BF0000002030B5044685B00D4651
:1002600010220021684605F03EFA02238DF8023084
:10027000044B2A4621466846019303F06BFD05B006
:1002800030BD00BF41020000044608B5EFF3118302
:10029000202383F31288BFF36F8F04F045FD2046BF
:1002A00001F080FF024803F0BDFE04F0FBF8FCE71C
:1002B000A66000002DE9F043079D15B915600020E8
:1002C00012E00324B5FBF4F404EB4407BD4218BF6D
:1002D0000134B4F1804F09D2A40001348C4200D81B
:1002E00038B96FF00B001460BDE8F0834FF0FF34B5
:1002F000F7E704460021DFF8B4E0B94203F1030C4C
:1003000004F104062BD3A942274623D201F1010CA4
:10031000AC451F7828BF002324494FEAA70E38BFF9
:100320005B7811F80EE0AC4584F800E001EB131E99
:100330002EBF3D239B0003F03C034FEA071738BF55
:10034000CB5C07F030071EF80770A3703D23677081
:100350003746E3700023381A10603B70AFE71CF893
:10036000034C1CF8023C4FEAA4091EF80990240132
:100370001CF8018C04F0300406F8049C0EEB1319F1
:1003800019F804409B0006F8034C03F03C030EEB05
:100390009814E35C08F03F0806F8023C1EF80830A9
:1003A000344606F8013C03316346A6E7B19A0000E3
:1003B0002DE9F04300273C463E46DDF81CE0DFF81F
:1003C0001C81764526D3D4BB00201460BDE8F083A1
:1003D0000135754531D013F805C0BCF1200FF7D0B9
:1003E000AEEB0509B9F1010F16D0BCF10D0F13D119
:1003F00003EB050999F80190B9F10A0F1BD0B5423A
:1004000005D1BCF13D0F0AD10137022F0AD96FF097
:100410001500DBE73546DCE7BCF10A0FEEE71CF020
:10042000800FF4D118F80C607F2EF0D03F2E01D849
:10043000002FECD101346E1CC3E72E46C3E74FF00A
:10044000060C04F00705E4080CFB05F50CFB04F4AE
:100450000735E41B04EBD50470B18C420CD800279F
:10046000014603253C46DFF874E0DFF874801E4443
:10047000B34205D10C1AA7E76FF00B001460A5E793
:1004800013F8019BA9F10A0C5FFA8CFCBCF1160F62
:1004900004D828FA0CFC1CF0010FE9D11EF809C0A1
:1004A0000134BCF1400F08BF013D0CF03F0C042C9F
:1004B0004CEA8717DCD17DB13C0C012D0C7002D1C8
:1004C00001310024D4E7022D4FEA17244C7016BFE7
:1004D0008F7002310331F4E72C46C9E7319A0000EE
:1004E00009004000014B036000207047945B00004E
:1004F000F8B506460C4600230A4F3D6825B95BB99E
:100500003C6000202660F8BD31462868FFF7D8FD22
:1005100020B12B466D69F1E75C61F2E76FF077007F
:10052000F1E700BF8402002070B5104B0D461C6837
:10053000B4B10F4B196800238B4202DB6FF001004E
:1005400070BD224612F8106B864202D01446013369
:10055000F2E7E06804F0ADFF28B100202C60EFE77F
:100560006FF00C00ECE76FF01200E9E704000020E8
:10057000945B000080B505460E461746984603F08A
:10058000B7F9034601F024FF0446DFF8189042460D
:1005900049F8003039463046A84754F8090001F0C0
:1005A000B9FE00BF080000002DE9F347174642F2EC
:1005B0001602424DADF800202A888046ADF8022090
:1005C00000220C461E4601921BB9032002B0BDE872
:1005D000F087DFF8EC9099F8003053B9394804F00F
:1005E0003CF8384803F0C4FF374B1860012389F802
:1005F00000304FF00409B5F800A0CA4524D8C4F370
:100600000B0444EA0830BCB2B5F80080ADF8040031
:10061000201D80B24044B0F5803FADF80640D4DAEA
:10062000294B80B21B68834246DB042341460DEB15
:100630000302244803F0ECFF0246D8B145212348C9
:1006400003F0FEFC0420C1E7042349461D480DEBDE
:10065000030203F0A3FF58BBBDF80430B8EB133F0F
:1006600003D1C3F30B03A34224D0BDF806300433F7
:100670009944C2E708F104013B463246114803F0B1
:10068000C7FF014618B1024645211148D8E72B881B
:100690006A4604331C44A4B204230A482C80ADF8F3
:1006A000024003F0B5FF003818BF012080008DE73D
:1006B00005208BE7022089E7012087E7A8000020BA
:1006C000E61000204C59000088020020E060000085
:1006D0000D6100002DE9F04F9B4682460E46914683
:1006E000484F9DB044214848299D3C6803F0A8FC30
:1006F000289B0DF150080393279B4A460293269BA3
:100700003146009350465B46CDF8048000F08CF8EB
:1007100078BB5DB1C4462B46624603CA59601CA92A
:100720008A421860944603F10803F5D100234A4633
:10073000009331464FF6FF7306A800F09BF805467C
:1007400028B144210246314803F07AFC11E0DDF87B
:100750002CB044215B460A9A2D4803F071FC4946AF
:10076000504603F0FEFC58452AD24421294803F0A4
:1007700067FC3C6842E0934237D1102A20D14421E3
:10078000254803F05DFCBDF81030202BF1D1059A0F
:100790007368134403F120050CAA144618685968BD
:1007A000083303C4AB422246F7D1202240460CA9AD
:1007B00003F0D5FC0446194B01251B689842D8D19B
:1007C0000DF1120304AA05A906A800F09FF800285D
:1007D000CFDB11D1059906A803F0B3FCBDF81220B8
:1007E0000028CAD14FF6FF700D4931F8023B834211
:1007F000C1D144210B48A7E7012DBAD120461DB035
:10080000BDE8F08F0C00002048610000726100001C
:10081000A6610000D5610000386200008C02002053
:10082000A05E00000762000070B511489CB00C4645
:10083000DDE92256442103F003FC684600F0F0FC99
:1008400035B1002E04DD32462946684603F029FD05
:100850006289238961681344E26868461A4403F098
:1008600020FD6946219803F042FD00201CB070BDB8
:100870006C6200002DE9F3411E4604469DF820807D
:100880000D4617464346324644211F4803F0D8FB25
:1008900024B94FF0FF3002B0BDE8F081002DF8D050
:1008A000002FF6D046F6081CEB68298919446B68BE
:1008B0005A5858181FFA82FE0192E6456B891FD1DB
:1008C000B3EB124F4FEA124CE3D15CF800300193C6
:1008D00046F60713BDF804209A42DAD1C4E900575E
:1008E000268184F80A806B89BDF806200B44E360FA
:1008F0006B89002013440B44043163612161CAE712
:10090000002BE5D0C5E700BF836200002DE9F74367
:100910000D4616461F46044600283BD00368002BB0
:1009200038D04368002B35D04FF6FF784369442117
:1009300001930369009302894FF6FF732E4803F079
:100940007FFBD4F814E02269724503D34421228945
:100950002A4807E0A07A48B1E368934206D84421C8
:100960002289274803F06CFB012015E021684B89A0
:100970002BB1E368934202D104322261E3E770B104
:10098000E3689A4202D8981A03280AD844211D48DD
:1009900003F056FB4FF0FF3003B0BDE8F083734621
:1009A000EFE7496804388958B0EB114FC1F30F499C
:1009B0004FEA114C02D244211348E9E720898BB257
:1009C000404501D0984214D107B13B8023690F48BC
:1009D00004332B60A6F8009023698AB20433634481
:1009E00023613388442100932B6803F029FB002006
:1009F000D2E704326244C0E7B56200000C64000034
:100A00000B6300004363000089630000D2630000B1
:100A10002DE9F04306460C4685B0CDE9002391460A
:100A20001F4602460B462348442103F009FBB368E6
:100A3000A34239D91B1B4B4536D344211E4803F032
:100A4000FFFA0FB32146304602AA03F0CBFA051E87
:100A50002CDB013CDDF808804C442146304602AADC
:100A600003F0C0FA051E21DBDDE9024930464A46A3
:100A7000214603F043FB051E18DB03F0D0FA77B1E3
:100A8000444513D9013CE8E7611E304602AA4944B7
:100A900003F0A8FA051E09DBDDF80880DDE74C4409
:100AA000A04503D30134D8E74FF0FF35284605B001
:100AB000BDE8F0833A64000087640000F7B514468F
:100AC000CDE9002305460E461F4602460B46084860
:100AD000442103F0B5FA44B13B462246314628464C
:100AE00003B0BDE8F040FFF793BF204603B0F0BD70
:100AF000B16400002C2310B559434218146A0CB994
:100B000003F0EDFC41580D4B994206D1D168138991
:100B10005B1802D25189C91801D300200CE0A368E8
:100B20009942FAD2106920F4F97020F00100000512
:100B3000000DB0FA80F0400910BD00BF3DB8F3963B
:100B40001FB52C2303FB02010A6A0AB903F0C7FC94
:100B50000023CDE9023301934FF480730093034BDC
:100B6000FFF7B8FD05B05DF804FB00BFE7100020FB
:100B700030B505460C464B8885B003934B780293FD
:100B80000B784421019343880093437802780D4801
:100B900003F056FA2A7823789A4210D80CD36A7850
:100BA00063789A420BD807D36A8863889A4206D83A
:100BB00060EB000005B030BD4FF0FF30FAE70120D8
:100BC000F8E700BFD86400002C2370B503FB0104D4
:100BD0000D46266A00F06AF82A460346314620464A
:100BE00000F00AF8044618B14521024803F028FA3B
:100BF000204670BD0E650000F0B51D46062300249A
:100C0000012787B08DF80720244A254E51681068C7
:100C10008DF80D3004AB03C331788DF80E408DF89C
:100C20000F70A1BB3A4602200DF10D03FFF7BCFC8B
:100C3000044660BB3A46394602200DF10E03FFF729
:100C4000B3FC044618BB02213A4608460DF10F03D7
:100C5000FFF7AAFC0446D0B93A46032102200DF161
:100C60000703FFF7A1FC044688B9082204210220EB
:100C700004ABFFF799FC044648B92B7853B1042222
:100C8000052102202B1DFFF78FFC18B104462046DA
:100C900007B0F0BD01233370F9E700BF7C5B0000B3
:100CA000E711002000487047980200200048704774
:100CB000900200202DE9F84305464FF000083D4E14
:100CC0002B6E013373D195F8643095F86520013BA4
:100CD000DAB1013323D005F1140105F14000FFF72B
:100CE00047FF431E5C425C4128462C6600F02CF90D
:100CF0000346C0B12146284600F08EF94FF0FF337D
:100D00002C4484F864802B66DAE7013309D1492149
:100D1000294803F095F9294B1868BDE8F8830124A8
:100D2000E2E71446E0E74FF02C0909FB045922469C
:100D30004421234803F084F9D9F820700FB903F057
:100D4000CEFB2146284603F05AFA20B9D9F81010F4
:100D500011F0100908D01B4B18683368834226D065
:100D6000284600F045F9C9E721462846FFF7C2FEAC
:100D7000B8B915482246442103F062F90F4B1868B0
:100D800033688342E9D0114B114A4521002C18BF2A
:100D90001A46104803F054F92146384603F02AFA5F
:100DA000D9E7224649462846FFF7CAFEE8E7014B45
:100DB000B2E700BF8C0200204F6500000C0000204D
:100DC0007165000008000020A9650000456500006D
:100DD0003D650000DE6500002DE9F043DFF81C9161
:100DE00085B004460F46D9F8006003F02DFA02469C
:100DF00028B1D9F80060304605B0BDE8F08301465F
:100E0000204603F009FA054648B157213C4803F053
:100E100017F9204603F030FA002DEAD1EBE701463E
:100E20002046FFF767FE70BB2A464921354B3648FE
:100E300084F8645003F004F901212046FFF75AFEBC
:100E4000024600282FD0012384F86530636C4921C5
:100E50000293B4F842302D4A019394F841302C4863
:100E6000009394F8403003F0EBF84FF0FF33236623
:100E70002046FFF71FFF0646264B1B6883421AD009
:100E8000D9F80060C5E7012384F86430A3694921DB
:100E90000293E38A204A0193637D1D480093237DDA
:100EA00003F0CEF8C8E784F8650049211B4B1648CB
:100EB00003F0C6F8D9E7204694F86010FFF784FEE7
:100EC00005460028DCD1226E14490E4B002A18BFBB
:100ED0000B4602464921124803F0B2F82C22236E39
:100EE00002FB0348D8F8200003F07AF83871D8F8EC
:100EF00020305B68C7F80080BB608AE70C000020E8
:100F0000066600003D650000296600007C66000062
:100F1000586600008C020020506600004565000005
:100F20008666000010B50446064803F0A6F9054899
:100F30002146FFF751FF0446024803F05AF92046C4
:100F400010BD00BF98020020F7B52C25016E0646A3
:100F500005FB01052B699B063BD501AA6F6803F0D1
:100F600003F90446A8B91C4A019B9742B766F36689
:100F700008D9D91906D2194A914203D8286A58B912
:100F800003F0ADFA3B4600224921154803F058F81A
:100F90000324204603B0F0BD21463A4603F084F80E
:100FA000044678B10346002249210E4803F048F870
:100FB0003B46002249210C4803F042F80023C6E9D1
:100FC0001A33E6E702463B464921084803F038F861
:100FD000DFE70324F2E700BFFFFF232000F03F20FC
:100FE000AC660000DC660000166700004367000086
:100FF00010B50446836E00224921064803F020F80C
:101000000021E26EA06E04F06EFB0020C4E91A001D
:1010100010BD00BF7367000038B500220B460546BF
:101020000C460848492103F00BF82C2303FB045518
:10103000286A08B903F053FA2146BDE8384003F0A6
:10104000D9B800BFA46700002DE9F04F002603685F
:101050009DB002934368DFF8C0E1039383688A463A
:10106000DDE902150493C36805930369DDE904B75C
:101070000693436907938369DDE9062C0893C369E6
:1010800098460993089B00935AF806400CAB24BA83
:101090005EF8049B9C514FEAF223A14483EAB21309
:1010A000009C83EA72634B4424EA020402EA0C09BE
:1010B00084EA09042344434485EA0B044FEA713867
:1010C00088EAB1080C4005EA0B0984EA090488EAB9
:1010D000B1580436A044402E03EB070443445F4656
:1010E000DDF8008040F088804FF0100A4B4E0A96E1
:1010F00056460AF1010A0DF1700E0AF00F070EEBC9
:10110000870757F8407C06F00F094FEAB748019768
:1011100088EAF71806F10E0707F00F070EEB8707AE
:1011200057F8407C09364FEAF74E8EEA774ECDF8F5
:101130002CE006F00F060DF1700E0EEB86060EEB9E
:10114000890959F840EC56F8406CBAF1400F7644E2
:10115000DDF804E088EADE08DDF82CE046448EEA9B
:10116000972E764404EA02084FEAF42E2CEA04078C
:1011700087EA08078EEAB41EDDF828808EEA746ECE
:10118000774458F804EF49F8406C77443744009EA0
:101190004FEA733E3E4481EA0507CDF828808EEA87
:1011A000B30E07EA030701EA05088EEAB35E87EA91
:1011B00008077744374406EB0B0ECDF800C0AB466A
:1011C00022D1029E3E440660039E1E44049B46605C
:1011D0000B448360059B2B44C360069B73440361EF
:1011E000079B23444361089B13448361099B634429
:1011F000C3611DB0BDE8F08FAB46CDF800C00D4611
:101200009446194622463FE794460D462246194623
:1012100074463B466CE700BFD85B0000145C0000DE
:1012200010B50446C8B17022002103F0B4F80B4B8E
:101230000B4A0C49C4E900230B4B0C48C4E90213C8
:101240000B4BC4E9040301200A4BA36103F174535F
:10125000A3F52303A3F69243E36110BD85AE67BBFC
:1012600067E6096A72F36E3C3AF54FA57F520E515C
:101270008C68059BABD9831FF7B5254E3068836812
:101280005B6C03B19847306883685B6B002B31D18E
:10129000204C214D306883689B69002B2DD00122A2
:1012A0000DF107019847012827D1236843B92B681E
:1012B0002BB369681A688B422A6000D16A60236088
:1012C000164A9DF8070011887F2904D823684F1C0F
:1012D0000B44178018720A28DCD10020236811887B
:1012E000186059600E494D6875B9C1E90033108026
:1012F0002060CEE798470028CAD103B0F0BD452151
:10130000084802F09DFEF8E72B604B60EFE700BF56
:10131000600700200803002018030020E4100020CC
:1013200010030020CE67000010B5044B0446186877
:101330008368E1B25B689847204610BD60070020D3
:10134000F8B5054616460846EFF3118C202383F3C3
:101350001288BFF36F8F19490B684BB1184C626844
:101360009A4205D000221A6062689AB9C4E9003333
:10137000144A13682BB157681C68BB42146008BF3D
:1013800054608CF31188BFF36F8F0B602BB9184634
:101390003360F8BD13606360EAE75C6803F108013D
:1013A000A042D8BF00F1FF342246284604F074F969
:1013B0000023601C2B550123EAE700BF0C0300202B
:1013C000180300201003002037B5234D2B7813B1EC
:1013D000002003B030BD1C462049214AC1E900333A
:1013E000C2E900331F4A4868146020BBC1E90022EB
:1013F0000133082B02F18802F5D11B4C1B482060F9
:1014000004F057F828B32068836823B19B6C13B1AC
:10141000002217499847206883685B6B0BB1984797
:1014200060B1206883689B69002BFAD001220DF11E
:1014300007019847F4E702604A60D9E700220D4BA4
:1014400020681A8083689B6A03B1984701232B7038
:10145000BEE74FF0FF30BCE7E81100201803002082
:10146000100300202003002060070020F85800002F
:1014700079120000E410002041F204432DE9F04FFE
:10148000EFB0ADF80C3040F606130024DFF8D08042
:10149000ADF81030D8F80010324B334F1E680B787F
:1014A000F61B5A1C62F302030B7073BA4B808B88D5
:1014B00008225BBA8B804C70204603F018F8324645
:1014C000394603F014F8B5B205F10A03D8F8001054
:1014D0001FFA83FB5BBAADF818300B680C35CDF8FA
:1014E0001A304B683246394690FA90FA0DF11809D5
:1014F000ADB20DF1220005AE32AFCDF81E3004F0D2
:10150000CBF829F80BA04B4600953246ED21384622
:10151000FEF7D0FE154DBDF81480A04506DC442131
:10152000134802F08DFD6FB0BDE8F08F2B680221EB
:101530005B6894B904A8A8EB040698477C2EA8BF62
:101540007C262B68381931465B6898472B68012147
:101550005B68084834449847DFE703A8EBE700BF1F
:10156000B807002070070020E9110020BC07002008
:101570000C680000129800002DE9F0474FF0FF348E
:1015800000250B460121D4B00594069407940AAEB9
:101590000246C6E90055089530A80091CDE90155ED
:1015A0000421099503F0A0FE4022294620A804F05A
:1015B0009AF8814B03211C93052304221D937F4B32
:1015C0000DF1180ACDE91E3A7D4B7E4821937E4BE2
:1015D00005AFCDE923367D4B0DF11C0826937C4BDE
:1015E000CDE92B01CDE92838CDE92D37279109AB7D
:1015F0001CA930A808AC229202F0DDFE30B303250E
:101600002A464421734802F01BFD0A21724803F068
:1016100024FF72490222704803F012FF29466E48E7
:1016200003F0EBFE4DB9674903226B4803F008FF56
:101630006B4B6948196803F0EAFE0A21664803F01B
:1016400014FFFFF719FF54B0BDE8F0873B685A1C40
:10165000D5D0D6F80090B9F1000FD0D07668614AA5
:1016600033B9DAF80010B1F1FF3F18BF0B46136031
:1016700000211068FEF7AAFD2146C0B2FEF754FF14
:1016800005460028BBD13B68554F002B3DD1206853
:10169000D8F8003082683D609342B0D82B46294686
:1016A000FFF7B6F90028AAD1D8F800204E4B1A60EF
:1016B000206802F038FDB6FBF0F303FB00FA3A684D
:1016C000494902EB0A030968A6EB0A069819884201
:1016D00038BF00264421454802F0B2FC206802F0E1
:1016E00022FD0128D04606D9206802F01CFD0138F1
:1016F00019EA000F3DD153464A463968206802F086
:10170000E8FC00287FF47BAF2DE03A6893427FF439
:1017100077AF354A334412689342C9D96FE7C2455F
:10172000206828BFC24602F005FD402201460CA8F1
:1017300003F0D9FF524649460CA803F0ADFF5346CB
:10174000396820680CAA02F0C4FC08B1054657E7C6
:101750003B68D14453443B60A8EB0A08206802F080
:10176000E2FC4045DBD93EB93B68334443443B602F
:1017700046E74FF0400AF1E7206802F0DBFC082260
:1017800001460CA803F0AFFF324609EB08010CA894
:1017900003F082FFD4F800903968484608EB010452
:1017A00002F0C1FC214603460CAA484602F091FC17
:1017B00000287FF424AFD7E7146800001751000019
:1017C0001A6800001F68000021510000136F00001C
:1017D0001D510000436800007007002051680000A0
:1017E000680700206C0700206407002023680000C1
:1017F00010B504460A210A4803F02FFE02220949C7
:10180000074803F01DFE2146054803F0F6FD0A21B6
:10181000034803F02AFEBDE81040FFF72DBE00BFCD
:101820007007002051680000F0B50C68164F85B0B5
:1018300002380D46C4F580610090144B381903AA94
:101840000131FEF7B5FD0446D0B92B68039A134465
:10185000022B2B6011D93E88023B76BAB6B29E426B
:101860000BD13246B91C02F042FE30B9022E04D927
:101870002B689A1E2A60FC540124204605B0F0BD56
:101880004FF0FF34F9E700BF8E12002091160020C0
:10189000002307B502210093034AA423034803F061
:1018A000E6FD03B05DF804FBE9110020700700209D
:1018B0002DE9F04F07290446ADB040F24581037889
:1018C00013F0050F40F040814388A1F108055BBA91
:1018D0009BB2AB42C0F038819D4B186083885BBAE5
:1018E0008380FFF7D5FFA688012E40F0E880E379DA
:1018F00023B1012B00F0DB800820ECE02778FFF714
:10190000D1F9054602F0B9FC284602F09DFC07F02B
:101910000707044688B1024645218E4802F090FB35
:101920003446284602F065FC14B12046FFF760FFFC
:101930002DB0BDE8F04FFFF7ABBF002F40F0B580F2
:101940003146854803F089FD06228449824803F028
:1019500077FD0521804803F07CFD2746DFF80082F3
:10196000DFF80092DFF800A27B4205F1200203F0CD
:101970002C03D658002E6AD02023002130460CAA12
:10198000D8F800B002F090FB0C9B4B450CD1002323
:10199000CDE90233019340233246009328461CAB25
:1019A0000CA9FEF797FE8346DAF800305B454ED16E
:1019B0000023324600930CA94FF6FF7306A8FEF7EA
:1019C00059FF002856D04FF0FF361421624803F02B
:1019D00044FD66490422604803F032FD39465E4802
:1019E00003F015FD4EB9042261495B4803F028FD60
:1019F0002022594814A903F01AFD07225D495648D0
:101A000003F01EFDBDF846301CAE01939DF8453035
:101A10004021009330469DF84430574A02F070F957
:101A2000129B43B1421E3E2A05D8C0F14001534AE1
:101A3000304402F065F93046FEF74CFB3146024671
:101A4000454803F0FDFC1421434803F00EFD7B1CC8
:101A5000022B4FF0010787D105213F4803F001FD1C
:101A600039463D4803F001FDFFF706FD284602F028
:101A700003FC56E70DF1120304AA05A906A8FEF718
:101A800045FF00289FD1BDF81230102BF2D1BDF8D0
:101A90001030202B97D13046059914AA02F004FB90
:101AA000061E18BF012676428FE70824DEE7294686
:101AB00004F108002DB0BDE8F04FFFF75DBD002E2A
:101AC0007FF41AAFE379052B0AD0062B12D0012B35
:101AD0007FF412AF30462DB0BDE8F04FFFF788BE5F
:101AE0003046FFF785FE1920002103F0A1FD0120FB
:101AF000FEF7CAFB0221184803F0AFFC00B308222E
:101B00001F49154803F09CFCD0B14FF48061124886
:101B100003F07DFCA0B109221A490F4803F090FCA4
:101B200070B101210C4803F072FC48B102210A484F
:101B300003F09BFC20B12DB0BDE8F04FFFF79CBC3B
:101B4000FFF7A6FE0220C6E72DB0BDE8F08F00BF6C
:101B5000B807002054680000700700207868000073
:101B60000C0000203DB8F3968C0200207F68000036
:101B70008468000089680000916800009D6800008A
:101B8000A1680000AA68000001232DE9F3410024A8
:101B900005461E4F1E4E3B701E4B009418603B784E
:101BA00013B902B0BDE8F08140F2014802F037FA03
:101BB0002B6801AAA8EB0401301998470028019B63
:101BC0000FDC002BEBD004443378062B10D1737854
:101BD000092B12D1002300936946A01EFFF724FEB3
:101BE0000BE00444002BEFD14445D8D10024D6E7C4
:101BF000042B02D17378142BEED00128F6D1009972
:101C000005480239FFF754FEF0E700BF8D120020AF
:101C10008F160020BC07002090120020BFF36F8FAA
:101C200072B64FF0FF32114BC3F88020C3F8842006
:101C3000C3F88820C3F88C20C3F89020C3F8942000
:101C4000C3F89820C3F89C20C3F88021C3F88421EE
:101C5000C3F88821C3F88C21C3F89021C3F89421DC
:101C6000C3F89821C3F89C21704700BF00E100E051
:101C700008B50348034A0021121A02F0F2FB08BD1E
:101C8000E0000020981A0020074808B5074A0849D4
:101C9000121A02F0E8FBBDE808400648064A074968
:101CA000121A02F0E0BB00BF00000020DC000020A0
:101CB00040A70000000000200000002040A7000016
:101CC00037B505460C46C9B18B6814480093D1E975
:101CD0000023452102F0B4F9636945210093D4E95A
:101CE00003230F4802F0ACF94521E2690D4802F0E8
:101CF000A7F94521A2690C4802F0A2F9012D06D1ED
:101D0000EFF3058245210948103A02F099F921467E
:101D1000284603B0BDE8304001F000B8B4680000C8
:101D2000E86800001C690000306900006369000079
:101D300008B5034B1B689847BDE8084000F0DABAC5
:101D40001000002030BFFFF7FDBF00BF2DE9F041BC
:101D500005460B4EDFF82C80324606EB0807CC1BFD
:101D60002046094903F098FCA01942460021083C8E
:101D700003F0B9FC2C6707F10800BDE8F08100BF53
:101D800000000000040000007C5B000010B5204C47
:101D90004521204802F054F9A36A990136D51E481E
:101DA000452102F04DF91E20A36ADA0104D51B4833
:101DB000452102F045F91F20154CA36A1B0304D5E9
:101DC0001748452102F03CF92120A36A590304D5A4
:101DD0001448452102F034F922200D4CA36A9A03DD
:101DE00004D51148452102F02BF92320A36ADB0317
:101DF00004D50E48452102F023F92420044A936AB1
:101E00006FEA03436FEA1343936210BD1D20CBE7D3
:101E100000ED00E07B69000098690000B0690000F7
:101E2000CF690000F26900001C6A00003B6A0000F4
:101E300070B5244C06460D462348452102F000F9B2
:101E4000A36AD9043BD52148452102F0F9F81720AF
:101E5000A36A1A0504D51E48452102F0F1F818209E
:101E6000184CA36A9B0511D545211A4802F0E8F8E1
:101E7000A26BA36A190408D54521174802F0E0F8BF
:101E80001EB1A36A23F40043A36219200D4CA36A78
:101E90005A0504D51148452102F0D2F81A20A36A48
:101EA000DB0504D50E48452102F0CAF81B20054A7F
:101EB000936A43F47F43936200232B7070BD162016
:101EC000C6E700BF00ED00E06B6A0000866A000014
:101ED0009C6A0000B46A0000D26A0000EC6A00004C
:101EE0000C6B000070B5224C06460D46214845217A
:101EF00002F0A6F8A36AD90637D51F48452102F09B
:101F00009FF81120A36A1A0704D51C48452102F046
:101F100097F81220164CA36A9B0711D54521184843
:101F200002F08EF8626BA36A190608D545211548A0
:101F300002F086F81EB1A36A23F08003A362132087
:101F40000B4CA36ADA0704D50F48452102F078F854
:101F50001420A36A064ADB0658BFA36A936A43F0BB
:101F6000FF03936200232B7070BD1020CAE700BFEF
:101F700000ED00E0296B0000446B00009C6A00004B
:101F80007C6B0000996B0000B46B00002DE9F04100
:101F9000614B04465F6800258AB0C7F3080685F3E5
:101FA0001188BFF36F8F02F07F43B3F17F4F07D1EA
:101FB00002F00C03082B14D14521584802F040F8D8
:101FC00000252C464FF00008F31E8DF80780092BE2
:101FD00000F29180DFE803F00A8488808F8F8F8F72
:101FE0008F8C10074CBF0C460125EBE745214C4870
:101FF000494E02F025F88DF80780F36A9A0705D557
:102000004521484802F01CF800232DE0F36A002B1C
:1020100002DA45214448F5E7F36A5B00F4D545212F
:10202000424802F00DF87369A26943F4807373614A
:10203000BFF34F8FBFF36F8F32F8023C726922F407
:1020400080727261BFF34F8FBFF36F8F03F47F42D3
:10205000B2F55F4F28D1DBB2022B25D14521226892
:10206000334801F0EDFF23689DF80720CAB902AE9E
:1020700004F12007324620686168083403C2BC427C
:102080001646F7D1099A002D42D0C2F3080121B9B2
:102090006FEA52226FEA42220992184602A9FFF71C
:1020A0000FFE0AB0BDE8F0811B4B9A6AD2B22AB18A
:1020B00001200DF10701FFF715FF0FE09A6A12F4F6
:1020C0007F4F05D001200DF10701FFF7B1FE05E0BC
:1020D0009B6AB3F5803F97D3FFF758FE0346C3E7EB
:1020E00000200DF10701E6E700200DF10701ECE704
:1020F0004521104886E7104917F4F87F0F4A104829
:1021000018BF0A46A6F11003452101F099FF7BE7AD
:102110006FF30802C0E700BF00ED00E0066C0000AE
:10212000366C0000526C0000786C00008B6C000074
:10213000AF6C0000D06C0000ED6B0000D86B0000AD
:10214000F96C0000044B5A6942F010025A615A6956
:1021500022F008025A61704700ED00E0EFF30880BA
:10216000EFF3098101B57246FFF710FF01BD00BF13
:102170000A4880F30888202080F3118808484FF42B
:102180008051401880F30988EFF31480022108433E
:1021900080F31488BFF36F8F02F06FF9985300201B
:1021A000981A0020BFF34F8F0549064BCA6802F406
:1021B000E0621343CB60BFF34F8F00BFFDE700BF6A
:1021C00000ED00E00400FA05002318460649D1F8A6
:1021D0009020C2F30722934200DB7047C1F8983089
:1021E000C1F8A0000133F6E700ED00E01EF0040F97
:1021F0000CBFEFF30880EFF30980816911F8021C2E
:102200000229FFD001B5724602F02FF901BD00BFCF
:1022100040B2002807DB01234109034A00F01F00F8
:10222000834042F82130704700E100E040B20028CE
:1022300001F10101ACBF00F16040064B4FEA4111D2
:10224000C9B2ABBF00F5614000F00F0080F8001389
:102250001954704714ED00E0054B064A23F0404343
:1022600023F07F039360BFF34F8FBFF36F8F7047EF
:102270000000000000ED00E042F8203C009B0B490C
:1022800042F81C3C019B21F0010142F8183C029BE2
:1022900042F8081C42F8143C4FF0807342F8043CAA
:1022A0000023203A02654367704700BF75050000B0
:1022B00000B50B4B15469860026F0A4B0E461A602C
:1022C0002C4686F309880020034B984720460021BE
:1022D00000220023014C20479744000075050000B0
:1022E000B4100020C00700201022014B1A61704773
:1022F00000ED00E0054B5A699B689A421FBF044AF3
:10230000536843F080535360704700BFB4100020FF
:1023100000ED00E0084B9B6883420BD1EFF305838F
:1023200043B1064B5A6842F080525A605A6A22F40E
:1023300000425A6203F0E4B8B410002000ED00E05F
:1023400011498A684FF030001044EFF3098C80E89F
:10235000F01F202080F31288BFF36F8F0B4F4FF0D8
:1023600000664A698A603E60106F094C2060506FB9
:102370000023536780F3118802F1300090E8F01FCA
:102380008CF3098870470000B410002004ED00E0D1
:10239000C0070020002320210348C2180133202B4E
:1023A00082F80013F9D1704700E100E008B5EFF3BF
:1023B0000583064A103B02EBC30152F8330049681B
:1023C0008847BDE80840FFF795BF00BF6859000087
:1023D0000148006870470000C00700200121024B3F
:1023E000024A034800F09EB80000042000000020CC
:1023F000D85C000007B502460C48C0F898200B686E
:1024000023F01F03134343F01003C0F89C308B6884
:1024100043F00103C0F8A0308B68054800930B68B7
:10242000442101F00DFE03B05DF804FB00ED00E077
:10243000156D000038B50E4B0D46D3F890300446AC
:10244000C3F30723013B9842024607D945210948B7
:1024500001F0F6FD6FF01504204638BD4421064812
:1024600001F0EEFD29462046FFF7C4FFF4E700BF68
:1024700000ED00E02D6D0000586D00002DE9FF41DA
:102480000F46984605460026BE420EDA6B685BB3DF
:10249000B8F1000F12D0591E0B420AD03246452126
:1024A000134801F0CDFD6FF01502104604B0BDE8F1
:1024B000F0811F2BF2D92B681942EFD1D4B22246FA
:1024C00044210C4801F0BCFD2B6801A90193D5E91A
:1024D000010301F0F4FF034320460393FFF7AAFF33
:1024E00010F1160FDFD0421C01360C35CCE700BFCF
:1024F0007E6D0000A96D00000522044BC3F89420F6
:10250000BFF34F8FBFF36F8F704700BF00ED00E048
:10251000BFF35F8F0022024BC3F89420704700BFC7
:1025200000ED00E010B5034C01232278FFF7A6FF71
:10253000207010BD901A00202DE9F0435A4A5B4EDE
:10254000D2F890303568C3F307239D4285B000F27E
:10255000A880D2F890204421C2F30722544801F009
:102560006FFD0024FFF7D4FF0C27A54219D1514F6E
:1025700068463D70FDF7B6FF4FF0000881464E4CAF
:102580004E4D4F4EC14514D100203B784649D1F8FD
:102590009020C2F3072293427DDBFFF7ADFF0020BE
:1025A00045E07168204607FB0411FFF723FF013463
:1025B000DBE700984FEA081C00EB0811CB682340CA
:1025C000B3F5000F49D00BD8B3F5001F32D0B3F5E7
:1025D000800F37D0B3F5801F14D008F10108D1E780
:1025E000B3F1007F42D0B3F1805F48D0B3F1807F78
:1025F000F3D150F80C30886801F061FF4A6840F070
:10260000887009E050F80C30886801F058FF4A687B
:1026100040F0885040F43020039001A93878CDE98B
:102620000123FFF707FF002831DA6FF0150005B02E
:10263000BDE8F08350F80C30886801F040FF4A682C
:102640003043E9E750F80C30886801F038FF40F07B
:1026500000704A6840F40030DEE750F80C308868BB
:1026600001F02DFF4A6840F08270D5E750F80C3039
:10267000886801F024FF4A6840F48020CCE750F8D5
:102680000C30886801F01BFF4A682843C4E73B7898
:1026900001333B70A1E7C1F89830C1F8A0000133C5
:1026A00075E74FF0FF30C2E700ED00E0E45C0000AA
:1026B000D16D0000901A00200000F0FF0000021110
:1026C0000000081108B5024B1B689847002008BDA0
:1026D000C4070020034B044A1860937843F00203B8
:1026E00093707047C40700201400002008B5054807
:1026F00001F098FC002383F31188BFF36F8F04234C
:10270000184602DFFC6D000070B545680669286850
:1027100002F0CFFE38B94521124801F091FC6FF06C
:102720001204204670BD286883681B689847041E01
:1027300005DA224645210C4801F082FCF1E7D5E993
:1027400001231A44A24207D923464521074801F034
:1027500077FC6FF01504E4E7301D02F0C8FE00249A
:10276000DFE700BF056E0000256E00004C6E000024
:1027700013B504460B4801F000FF012802D010F108
:10278000860F0CD10123002106480DF1070201F04C
:1027900005FF20B99DF807301B1B5842584102B075
:1027A00010BD00BF30590000014801F056BF00BF06
:1027B0003059000008B5074802F07BFE38B10648E2
:1027C000FFF788FF0448FDF741FD002008BD6FF0CA
:1027D0001200FBE7DC580000DD2700000A2838B5AE
:1027E0000446074D04D1AB680D2128465B68984725
:1027F000AB6803485B68E1B29847204638BD00BF2C
:10280000DC58000038B50546002910461C462A69E8
:1028100014DB6B685B698B4210D95B1A9C420DD844
:10282000084D6B6A01336B6213682246194402F04B
:1028300033FF0020AB692344AB6138BD6FF0150056
:10284000FBE700BF1C08002040F2092213B50F4B24
:1028500004460421019300920D4B0E4801F004FC44
:1028600003220D4B0092019304210C4B0C4801F004
:10287000FBFB23691A7932B16268186851685269A2
:10288000497902F030FF002002B010BDB56E0000A3
:10289000039B00001C080020C56E0000F19A000098
:1028A000F807002000292DE9F8438046174646DB4B
:1028B000D0F80490D9F814308B4240D95B1A9A4270
:1028C0003DD8D9F81030B1FBF3F203FB1212002A05
:1028D00035D1B7FBF3F603FB167686BB194C1A4AC3
:1028E000636BD2690133636322B1934202D3002048
:1028F000BDE8F883D9F81030B1FBF3F505F10F030B
:1029000004EB8304D9F81030B7FBF3F3B342EED9EC
:102910007019FF2898BF236806F101069CBF013398
:102920002360D8F8043004341A695968D8F8103094
:1029300049791B6802FB003002F0D5FEE2E76FF038
:102940001500D5E71C080020F80700202DE9F74FF7
:102950000D1E91461F46D0F810A06BDBD0F8048006
:10296000D8F81430AB4265D95B1B9F4262D8D8F8C7
:1029700004301B68B5FBF3F203FB1252002A59D155
:10298000B7FBF3F403FB1474002C53D12B4EA34676
:10299000F36A0133F362D8F80430D8F800001A68FB
:1029A000597902F0A0FEBB4510D32548836933B1A5
:1029B000F26A934208D322D1036A2BB10123BC42AD
:1029C0001FD1F3692344F361002013E0D8F80430E9
:1029D0000BEB05011A68DAF80030D8F8000019444A
:1029E000019202F088FE019A38B16FF00400336A58
:1029F0000133336203B0BDE8F08F9344D3E7002383
:102A0000DDE713B1026AA242DED9D8F80420DAF871
:102A100000E004EB050C527919F804101EF80CB014
:102A2000FF2A0CBF01EA0B0141EA0B010EF80C1062
:102A30000134C4E76FF01500DCE700BF1C0800207C
:102A4000F807002070B50F4D00EB8104A04201D1C2
:102A5000002070BD4378017813F0010FC1F301131A
:102A60000CBF4FF400324FF48032061D01F00F010D
:102A700055F8230001F020FF10F1860FE9D0304611
:102A8000E4E700BF105E0000054B1B7833B180689F
:102A90004FF0FF324FF0FF3300F0BCBA704700BF79
:102AA000951A0020034B1B7813B1806800F060BBBF
:102AB000704700BF951A00204FF0E0230D4A996936
:102AC000126818699B69002908BF1146002B08BFCE
:102AD000134610F4803F084801D1994205D201689D
:102AE000114401604FF0E021096900681044C01AE8
:102AF000704700BFB0100020A0100020202200204E
:102B0000074B83F82320074B074A1A60074B013A0B
:102B100018604FF0E0235A61072298611A617047EC
:102B200000ED00E0B010002090D00300A0100020C5
:102B3000684620F007018D4631B5EFF3118520235B
:102B400083F31288BFF36F8FFFF7B6FF0D4B0E4A6A
:102B5000186811680D4C0844106000221A60236840
:102B60000B49C01AB0FBF1F001FB00332360094BA5
:102B700029461A6001F042F8FFF7BCFBBDE831407E
:102B800085467047A0100020AC100020A81000203F
:102B900090D00300A41000202DE9F04180462E4F74
:102BA00069B1B0F1FF3F0AD14FF0E022136923F081
:102BB000010313614FF07F433B60BDE8F081FFF7F5
:102BC0007BFF4FF0E0230022244C99692368B8F181
:102BD000FF3F00EB0306224B3D681A601FD0214BDC
:102BE0001868301A34D4204BDFF880E01B684FEAB5
:102BF000E87C13EB0803A3FB0E324CF1000C1B1A0C
:102C000043F60A500EFB0C2262F10002834272F17D
:102C100000001DDBB3F1807F72F1000201DB6FF079
:102C20007F434FF0E0203B60013B8269436100231A
:102C300083614FF000700E4B914258603BBF4819C2
:102C4000801A891A80192ABF891920602160B4E787
:102C500043F60953E5E700BFB0100020AC10002098
:102C6000A0100020A8100020A410002090D0030085
:102C700000ED00E010B5074B1C68074B1B68E41A19
:102C8000FFF71AFF054B2044B0FBF3F0044B18602C
:102C900010BD00BFAC100020A810002090D0030091
:102CA000A410002070B516461D465A1C0368044641
:102CB0001344C2689A4205D20821006A02F016FB4A
:102CC000002070BD65B93278204602F012FB002862
:102CD000F6D03544B5420CD1A3680133A360F0E7C8
:102CE000AB1E062B8EBF0023054AD35C1833DAB225
:102CF000EAE723685A1C226015F8012D1A70E9E7EB
:102D000039A7000010B504464521034801F098F9A1
:102D1000204602F0D9FB00BF97970000F7B50446A4
:102D20000D46EFF31187202383F31288BFF36F8FD3
:102D30001A4A0428966898BF194B127C94BF53F81E
:102D40002030184B009245210246174801F078F9CF
:102D50003DB1EB69C3F308031BB14521134801F0F2
:102D60006FF936B1304602F0C9FB034608B102786C
:102D700002B90F4B324645210E4801F061F9294650
:102D80002046FFF7BFFF87F31188BFF36F8F3046F0
:102D900003B0BDE8F040FFF7BDBA00BFB41000209B
:102DA000745E0000AB970000C1970000EE97000032
:102DB000B99700001498000038B50A4B53F820402A
:102DC000013053F82050A54200D838BD606830B1BA
:102DD000037EDB0701D402F054FB0834F3E72368D9
:102DE0009847FAE7885E0000012270B5284B86B04C
:102DF00003201A70FFF7E0FF0420FFF7DDFF254CEA
:102E0000254D2646AE4204F130040FD300F04CFDB0
:102E1000204CAC4226D300F05BFDFDF781F91F4A40
:102E2000938923F00103938106B070BD54F80C3CE4
:102E3000059354F8103C049354F8143C039354F84D
:102E4000183C029354F81C3C019354F8203C009326
:102E500054E90A2354E90C0100F0F4F954F8303C29
:102E60005E65CEE7D4E90A23B3F1FF3F08BFB2F1B4
:102E7000FF3F05D052EA0301206803D100F040FA79
:102E80003034C6E70649183000F0C8FDF8E700BF47
:102E9000951A0020685A0000685A0000600100205E
:102EA000015600000023012270B586B0CDE904234D
:102EB0000F220193CDE9023214230F4D0F4E03FB75
:102EC00000550F4906EBC016044601EB00214FF4F4
:102ED000807230460B4B009500F0B4F9337C2C74B3
:102EE00023F004033374084B013403EB0433EE6026
:102EF0006B6006B070BD00BFB4100020E000002081
:102F0000982A0020D9540000981A00207FB500208C
:102F1000FFF752FF264B83F30888264C0025636990
:102F200043F400736361E02384F82230E57725766B
:102F30006576A576636A43F4E0236362FFF702F9DE
:102F4000FFF7D2F94FF0FF33A362E362FFF7F4FA21
:102F5000FFF744FA184800F0C7F90120FFF72CFFEB
:102F60000220164CFFF728FF00F096FC144B4FF49C
:102F700020525C61134B1449059301232046CDE98F
:102F80000353CDE90155114B009500F05BF906465E
:102F9000237C204623F00403237402F00AFB284616
:102FA000FFF780FF31462046084AFFF781F900BF4E
:102FB000982A002000ED00E0E001002060010020E0
:102FC000B41000207B980000982B0020E92D000011
:102FD00037B58268054692F90E300C468B4213D005
:102FE000117C0B4811F01F0FCDE900434FF0440155
:102FF00014BF6E23792301F023F82146A86803B09B
:10300000BDE8304000F09CBB002003B030BD00BFE5
:10301000839800002DE9F743044690461E46EFF3DF
:103020001189202383F31288BFF36F8F484FC16843
:10303000BA6871B1836893421FD058EA06011ED165
:1030400089F31188BFF36F8F6FF00F0003B0BDE8F5
:10305000F08392F90E000131C4E902212061CDE92B
:10306000001023464421BA683A4800F0E9FF89F38A
:103070001188BFF36F8F0020E8E70069EBE792F952
:103080000E5093F90E3002469D42A8BF1D464421C2
:10309000314800F0D5FFA36893F90E30AB424EDD06
:1030A00029462046FFF794FF054622464946CDE9CA
:1030B00000862A4800F018FB0646034622464421B3
:1030C000274800F0BDFF002E0CBF6E23792300932C
:1030D00044212346BA68234800F0B2FF002ECAD02C
:1030E00023464421BA68204800F0AAFFEFF3118775
:1030F000202383F31288BFF36F8FA3680BB3236879
:1031000026699C420AD04BB193F90E309E42A8BF6B
:103110001E466FF07F039E42B8BF1E4644211348EF
:10312000224600F08DFF31462046FFF751FF40B1A7
:1031300039460A4802F079FA6FF00A0086E700255E
:10314000B3E7002DF4D187F31188BFF36F8FF3E756
:10315000B4100020B9980000E9980000961A0020E9
:103160000C99000031990000509900006C99000002
:1031700073B583680546002B53D02D4A926893425D
:1031800052D1C368024644212A4800F059FFEB6837
:10319000012B04D9013BEB60002002B070BDEFF3BE
:1031A0001186202383F31288BFF36F8F2846296985
:1031B000FFF70EFF2C68A54217D100241E4BAC6010
:1031C00000932A46234644211C4800F039FF14B3DB
:1031D00094F90E3020462B610023A36702F0F8F922
:1031E0003146174802F021FAD6E7002CE5D0D4E9A1
:1031F000003213605A600023227CC4E9003322F0BD
:103200000202A360227404F1180000F09FFCAC607D
:1032100094F90E30D4E7EC6086F31188BFF36F8F1A
:10322000BAE76FF01500B8E74FF0FF30B5E700BF21
:10323000B41000209199000018FCFFFFAE99000027
:10324000961A00202DE9FF47994600F15803C0E97E
:103250001633109B4FF000088381042303740F9BE7
:103260000F4604468373C0E90688C0F8088080F8DA
:103270000F8000210020073222F0070607EB060A24
:10328000C4E90A0123463A4644211548CDE9026AB9
:10329000CDE9006700F0D4FE51462046FEF756FD0A
:1032A0000E9BC51D25F00705A566C4E91876029397
:1032B0000D9BAAEB050501930C9B2A46009339460A
:1032C0004B462046FEF7D8FF064BC4F854809B6857
:1032D00003B1DB6E2846E36604B0BDE8F08700BFAB
:1032E000D8990000B41000200123037483810023C7
:1032F000C0E91833C366014B98607047B4100020D2
:1033000038B50446EFF31185202383F31288BFF309
:103310006F8F037C5B070FD5183000F017FC237C00
:10332000204623F00403237402F052F92946BDE835
:103330003840044802F079B985F31188BFF36F8FE4
:1033400038BD00BF961A00206FF00A01084A936842
:103350009967084958674B6843F080534B600023D6
:1033600083F31188BFF36F8F9368986F704700BF26
:10337000B410002000ED00E038B590F910200146AF
:10338000002A037C04DA03F07F03037402F0D9F807
:103390000D4D2A4652F8184FAB68944200D004B93C
:1033A000EC688B4207D01A7CD20604D1DA897F2AD6
:1033B00001D9A2692AB1A34202D0204600F0CEFA78
:1033C00023466B6138BD00BFB410002070B590F982
:1033D0001020037C002A2FDBD9062DD11A4C63F074
:1033E0007F032246037452F8183FE169934207D1E4
:1033F000C0E900210860E0610FE09942F8D01B6845
:10340000002BF5D093F90E6090F90E50AE42F4DD2A
:103410005968C0E9003108605860A569954200D03C
:1034200005B9E568A3681A7CD20606D1DA897F2A35
:1034300003D9AA690AB9636170BDAB4202D02846BC
:1034400000F08CFA6561F7E7B4100020034648B934
:10345000EFF3058232B9064A51699268914201D070
:10346000FFF772BF83F31188BFF36F8F704700BF00
:10347000B410002038B5184CA168E0690B6881428F
:1034800014BF1A46002249680B605960A368E169BD
:103490002AB9124AC3E900210B60E3610AE092F9FC
:1034A0000E5093F90E00854212DD5168C3E90021E8
:1034B0000B605360A569094B9D4200D005B9E568D2
:1034C000A3689D4202D0284600F048FA656138BDE5
:1034D0008A42DED01268DBE7B4100020CC10002056
:1034E000002A2DE9F8430CBF4FF010084FF00808F0
:1034F000027C044618EA020F0D4664D148EA020332
:10350000D2090CD10374B8F1080F7DD1A36813B1AF
:10351000204602F01EF8202704F118060FE003F001
:103520007F03037402F00DF8EDE785F31188BFF314
:103530006F8FEFF3118587F31288BFF36F8F3046DB
:1035400000F004FB0B30F0D0A66D04F15807B74231
:1035500013D04FF0000986B1304601F0FAFFC6F8EB
:10356000789006F1180000F0F1FA0B3002D03046E6
:10357000FFF72CFFA66DB742EDD1274B9B689C420D
:1035800042D1EFF30587003F18BF0127DFF888908D
:103590004B4653F8186F9E4200D00EB9D9F80C6014
:1035A000D9F80830B34202D0304600F0D7F9B8F16C
:1035B000100FC9F8146006D0204600F069FF17B15B
:1035C0001648FFF791FE144B9B68A3421ED1EFF300
:1035D0000583DBB9A289D20711D585F31188BFF322
:1035E0006F8F83F31188BFF36F8F0423184602DFB8
:1035F000EFF31185202383F31288BFF36F8F2846E2
:10360000BDE8F843FFF7A0BE0027BFE785F31188A8
:10361000BFF36F8FBDE8F883B4100020E0010020F5
:1036200070B50F4D06462B4653F8184F9C4200D0FC
:1036300004B9EC68AB681A7CD20604D1DA897F2A17
:1036400001D9A2692AB1A34202D0204600F086F92E
:1036500023466B613046BDE87040FFF7F7BE00BF00
:10366000B410002070B5EFF31186202383F3128885
:10367000BFF36F8F1A4CA168E0690B68814214BFD9
:103680001A46002249680B605960A368E1692AB9AB
:10369000144AC3E900210B60E3610AE092F90E507D
:1036A00093F90E00854216DD5168C3E900210B60D5
:1036B0005360A5690B4B9D4200D005B9E568A3682E
:1036C0009D4202D0284600F049F965613046BDE8C8
:1036D0007040FFF739BE8A42DAD01268D7E700BFE0
:1036E000B4100020CC100020F8B5124B0C46DDE9D8
:1036F000067611469868104A1060EFF31182202276
:1037000082F31288BFF36F8F9D68284601F02BFF6C
:10371000B6F1FF3F08BFB7F1FF3F06D03A46334648
:10372000064905F1180000F079F92046BDE8F84097
:10373000FFF70ABEB4100020D4100020015600008C
:10374000F8B50446EFF31187202383F31288BFF303
:103750006F8F037C49B203F01F02002A0CBF0126C1
:10376000002635D103F07F032A4D037401F0E9FEF2
:103770002A46037C817363F07F03037452F8183F79
:10378000E869934207D1C4E900200460EC610DE0D0
:103790009842F8D01B68002BF5D093F90EC08C45E9
:1037A000F6DD5968C4E900310C605C60AC69944294
:1037B00000D004B9EC68AB689C4202D0204600F00F
:1037C000CDF86C6187F31188BFF36F8F3046F8BD79
:1037D0009B071CD5856801F0B4FE81732B689D4260
:1037E00009D16B68C4E900531C606C60EAE76A6841
:1037F0009A42F6D01B68002BF3D093F90E208A4230
:10380000F5DD5A68C4E9003214605C60DAE7817360
:10381000D8E700BFB4100020F8B550EA0103054610
:103820000C4603D101F08BFE0020F8BDEFF31187A9
:10383000202383F31288BFF36F8F134E134BB068AE
:10384000186001F0C7FEB0682A46234610491830B8
:1038500000F0E4F8B36804461A7C5F6742F00402A3
:103860001A746FF00A029A670A4A536843F0805349
:103870005360002383F31188BFF36F8F01F008FFBB
:10388000201A20EAE070D0E7B4100020D410002005
:103890000156000000ED00E0024B03F11802C3E9FD
:1038A00006227047B4100020EFF31181202383F328
:1038B0001288BFF36F8F054B9A68D37B013BD3739C
:1038C00081F31188BFF36F8F704700BFB4100020E1
:1038D000EFF31180202383F31288BFF36F8F034B24
:1038E0009A68D37B0133D373FFF79ABEB4100020DC
:1038F000014B9868704700BFB4100020027C03465B
:1039000012F01F0210D10A4988420DD009490868F7
:1039100068B1D9897F2909D893F90E20064B1B6815
:103920009A42B8BF00207047002070471046704789
:10393000E000002098000020D81000200122044B55
:10394000C01A044BC0105843034B1A54704700BFB1
:1039500060020020ABAAAAAA961A0020F8B50C4B68
:103960000C4D1E7CFFF7CAFF1823044603FB0655C7
:10397000284600F0EBF8084F34B1BB5D2846E21A48
:103980000649D31700F04AF80023BB55F8BD00BF25
:10399000B410002060020020961A00203D3900007B
:1039A00070B5EFF31186202383F31288BFF36F8F76
:1039B0000F4D104BAC681868A04202D1FFF7CEFF44
:1039C00011E000221A602B7C0B4AD35C5BB12046CD
:1039D000FFF794FF38B1237CDB0604D1FFF74AFDE3
:1039E0006869A042EAD086F31188BFF36F8F70BD7B
:1039F000B4100020D4100020961A0020024B186842
:103A0000984208BF00207047A0000020024B1868B1
:103A100008B1FFF72FB970479C000020B3F1FF3FBA
:103A200008BFB2F1FF3F2DE9F84F0446994615460D
:103A30001F4600F081808160EFF31188202383F31B
:103A40001288BFF36F8FB9F1000FDFF8F4A025DB08
:103A5000FFF7DCFF3B4B06461B68003B18BF01230A
:103A6000451949EBE0795B1949F100024FF0010972
:103A7000DAE90057C4E904325D1942EB0707FFF7A2
:103A8000BDFF0346DFF8C0E0DEF804A0EBB9C4E9EF
:103A900000EACAF80040CEF8044028E06FF00103C5
:103AA000DAE900125B1A4FF0FF3161EB02025B1B97
:103AB00062EB0902012B72F10001BCBF012300225D
:103AC0004FF00009C0E90432D9E7D3E9041CD4E976
:103AD00004208A4270EB0C0B25DA891A5A686CEBC9
:103AE0000000C3E90410C4E9003214605C60FFF711
:103AF00085FF84420FD1134B1B6801330BD1B9F101
:103B0000000F02D1FFF782FF0646304601F0A9FD03
:103B10000021FFF741F888F31188BFF36F8F284623
:103B20003946BDE8F88F521A60EB0C005345C4E9E2
:103B30000420ACD01B68A9E700252F46EFE700BFA3
:103B4000780200209C000020A0000020F8B5044668
:103B5000EFF31186202383F31288BFF36F8F02687F
:103B600072B3FFF74BFF184B5B689C4208D0D2E959
:103B70000431D4E90475DB1941EB0501C2E90431D4
:103B8000D4E900320025A04213605A60C4E9005510
:103B90000ED000200D4A136823F001018C4204BFAF
:103BA00043F00103136086F31188BFF36F8FF8BDF4
:103BB000FFF72CFF01F055FD2946FEF7EDFFE8E782
:103BC0006FF01500E6E700BFA0000020DC10002029
:103BD000EFF31182202383F31288BFF36F8F064B1C
:103BE00040F001001B681B1A5842584182F31188AB
:103BF000BFF36F8F704700BFDC10002000232DE95A
:103C0000F047DFF8BC902F4CC9F8000023600E4647
:103C1000FFF7F4FE2C4FDFF8B480D9F80050D7E955
:103C200000CE4FEAE57A50B1D0E904319D427AEBFB
:103C300001021EDA5B1B61EB0A01C0E9043115EBDE
:103C40000C054EEB0A02C7E9005200254FF0FF3386
:103C500028462360C9F8005001F003FD2946FEF70D
:103C60009BFF86F31188BFF36F8FBDE8F047FFF726
:103C700097BE13EB0C0CA5EB03034FF0000541EBD3
:103C80000E018268C7E900C1C9F80030C8F8000019
:103C9000D0E900310B605960C0E9005586F3118806
:103CA000BFF36F8F9047EFF31186202383F31288C1
:103CB000BFF36F8FC8F80050FFF7A0FEADE700BF5D
:103CC000E01000209C00002078020020DC10002082
:103CD00010B5EFF31184202383F31288BFF36F8FA5
:103CE000FFF794FE0346054AD2E90001181841EB9C
:103CF000E37184F31188BFF36F8F10BD7802002049
:103D00000CB430B58BB004460D462022002102A829
:103D100001F0E9FC02238DF80A300D4B002D0393CE
:103D2000069412DB01D06B1E1C440FAA0E9902A848
:103D30000794019200F00EF815B10022069B1A704C
:103D40000BB0BDE8304002B070470024EDE700BF83
:103D5000495700002DE9F04F837815469A0707462A
:103D6000D0F8048085B040F19F80002608780028B4
:103D700000F09C80252808D001F1010A394601365F
:103D8000C047002880F286808AE091F801B001F1F6
:103D9000020ABBF1250FF1D0002401211F2C25D8E8
:103DA000ABF12002102A06D8844B01FA02F0184227
:103DB0000ED1032A5AD0ABF13002092A08D9BBF13F
:103DC0002A0F33D1630605F1040501D444F0200421
:103DD0001AF801BBBBF1000FE0D139462520C047DE
:103DE00000285DDB394658460236C9E77F2CE2D908
:103DF000BBF16C0F29D021D8BBF1680F2CD0BBF1DF
:103E00006A0F30D0BBF14C0F2DD0ABF16302122AF8
:103E100000F2A580DFE802F02C4EA3A3A3A34EA3DB
:103E2000A3A3A3A3AD9DA3A331A37700BBF12E0F42
:103E3000DED160063AD444F04004C9E7BBF1740F08
:103E4000C6D0BBF17A0FC3D0DFE7220648BF44F4E7
:103E5000007444F08004BBE7E30548BF44F40074F9
:103E600044F48074B4E744F42074B1E71024AFE75D
:103E7000394615F8040B013682E72C68504B002CAC
:103E800008BF1C46A1464B4619F8010B20B9341B4C
:103E90001E190435514669E73946C0470028F2DA51
:103EA000BB7843F00403BB704FF0FF36304605B0DB
:103EB000BDE8F08F20061DD5A10543BF073525F0CD
:103EC000070555F8080B55F8040B00280DF10409F7
:103ED0004946B8BF40424FF00A02B8BF44F480647C
:103EE00001F019FC6405A0EB090956D44C460DF10C
:103EF000040B5EE0E20555F8040BE6D5A3054CBFC4
:103F000040B200B2E1E70A2224F01004A4B2200675
:103F100033D5A10543BF073525F0070555F8080B34
:103F200055F8040B10B924F01004A4B20DF10409E3
:103F3000494601F0F0FBE306A0EB0909D6D5394666
:103F40003020C0470028ABDBBBF1000F1ED101368B
:103F5000CCE710224FF0780B44F01004D7E74BF079
:103F60002002782A7FF439AFCBF1780242F01002B8
:103F7000CDE708224FF0000BC9E7E30555F8040B25
:103F8000D0D5A1054CBFC0B280B2CBE73946584668
:103F90000236C0470028A9DA82E739462D200136CB
:103FA000F7E7013C39461BF80400C0470028FFF63C
:103FB00077AF002CF5D14E446CE700BF812801009B
:103FC0002A9A0000704710B50120FEF7D1FB0128A6
:103FD000044603D1FEF7E8FB204610BD0020FCE7B5
:103FE0000020704730B500290446154685B011DB26
:103FF00083688B420ED96368C068194401AA00F037
:1040000089FB28B96268019B9B1A2B60029B6B603D
:1040100005B030BD6FF02100FAE770477047704778
:10402000002070470FB407B504A951F8040B0191A3
:10403000FCF712F903B05DF804EB04B07047704769
:104040000FB407B504A951F8040B0191FCF704F96A
:1040500003B05DF804EB04B070470379C288002117
:104060005A43183001F03FBB10B50446C360BDF899
:104070000830C28003610171FFF7EFFF214603980A
:10408000FCF736FA002818BF6FF0770010BD002942
:1040900008DB8068884205D9401A904234BF00206E
:1040A000012070470020704770B516461A46054635
:1040B0000C46FFF7ECFF48B16968E8682144826864
:1040C00014683246A446BDE8704060476FF01500A2
:1040D00070BD70B516461A4605460C46FFF7D7FF69
:1040E00048B16968E8682144826854683246A44649
:1040F000BDE8704060476FF0150070BD10B50B460D
:104100000446FFF7C4FF40B16168E0681944836862
:104110009B682BB1BDE8104018476FF0150010BD2B
:104120006FF05700FBE708B5C0688368DB68984705
:10413000006808BD08B5C0688368DB6898474079A7
:1041400008BD48B103683BB143682BB1C0688842E1
:1041500094BF0020012070474FF0FF30704701F0FE
:10416000CABA084600F0E7BD01292DE9F341174618
:1041700001D900F0B4F92C2303FB0104D4F820800A
:10418000B8F1000FF5D0E368268940461E440423A9
:1041900031460DEB0302FFF787FF054620B10125ED
:1041A000284602B0BDE8F08146F60813BDF80420A9
:1041B00064899A421AD1BDF806309C4201D0032589
:1041C000EEE7042340460DEB0302A119FFF76CFF55
:1041D0000028E4D146F60713BDF804209A42EED138
:1041E000BDF80610214431443960D9E7002CF1D0E4
:1041F000E5E77047002382681946FCF75FBC08B505
:104200002C2303FB0101086A08B900F068F90422B5
:10421000BDE8084000F095BDF8B513460F461646B8
:1042200000210246054600F02CF8044650B93346FA
:104230000121284605F12C0200F023F810B1002FCF
:1042400018BF04462046F8BD002110B504460846B4
:10425000FBF7BCFF04F12001C0B2FCF765F940B9DF
:104260000121FBF7B3FF04F14C01C0B2FCF75CF98C
:1042700008B100F034F910BD70477022002101F040
:1042800032BA08B52C2303FB0100006A08B900F01C
:1042900026F920230021FFF707FF003818BF01206F
:1042A00008BDF8B50C4610B1F9B10AB90120F8BD46
:1042B00000278D1800F12806AC42F7D0836E5A1CF7
:1042C000826614F8011B03443F2A83F82810F3D9AF
:1042D0003146FCF7B9FED0E9083213F5007342F11C
:1042E0000002C0E908328766E6E70846DFE7F8B56E
:1042F0000C46054600284BD000294AD08B6ED1E9E8
:104300000821D800121841F10001C4E908218022D7
:10431000581C38282344A0664FF0000783F8282053
:1043200004F128060BD9C0F140023946304400F0B0
:1043300032F820463146FCF787FE3846A766C0F1C2
:1043400038020021304400F026F8236A626A1BBA62
:1043500012BA3146C4E918232046FCF775FE2B1D1E
:10436000211F243551F8042F0433100E03F8080CD4
:10437000100C03F8070C100A03F8060C03F8052CC0
:10438000AB42EFD120467022002100F004F801205A
:10439000F8BD0846FCE701F0A6B970B506460D4623
:1043A0000024AC4200DB70BD305DFCF7BDFF013086
:1043B000F9D00134F5E72DE9F04F85B005460E46FA
:1043C00090461F4600F0C4FE20B96FF04C0005B0C7
:1043D000BDE8F08F4FF01409002334464FF0010A76
:1043E00009FB08693B60284602A900F0A5FE60B100
:1043F000DDE902324FF0000B0093C3450CD10021E0
:10440000284600F0E5FE0028EDD1284600F0C9FE60
:104410000028DAD00020DAE7A14598BF3446616869
:104420008A4214D121680098019201F064F9019A3E
:1044300068B9237C7BB9D4E902312846984768B132
:1044400084F810A03B68143401333B60CBE714348C
:104450000BF1010BD1E76FF06F00B8E76FF02200AE
:10446000B5E701F040B901F017B901460068FDF762
:1044700027BC00210120FDF723BC08B5FDF7ECFEA9
:10448000FDF7F6FBFDF700FCFDF784FFFEF73EFDB0
:104490006FF08500704761B662B680F31188BFF394
:1044A0006F8F704772B6002383F31188BFF36F8F4D
:1044B000BFF34F8F30BF62B6BFF36F8F70472028B6
:1044C00009D9B0F1004F08D80138B0FA80F0C0F136
:1044D0001F0040007047082070473E20704708B515
:1044E000FEF704F908B5FEF7EDF8002008BD0A4410
:1044F0008A4200D1704711F8013B40BA80B258405F
:10450000C0F303134340180380B24340580100F442
:10451000FF505840ECE72DE9F04106460D4617469E
:104520001C46ABB1D0F80880D8F800309847002D71
:1045300011DB84420FD8031BAB420CD3D8F808E040
:1045400023463A4629463046F446BDE8F0416047E6
:104550001846BDE8F0816FF01500FAE74FF0FF3222
:104560004FF0FF330430FEF755BD0430FEF700BEB8
:104570004368D3E90203C01A704738B5456804465A
:104580000069FFF7EBFF2B8A2069002B0CBF6FF04F
:1045900085050125FFF7E9FF284638BD2DE9F843D9
:1045A0000D1E064690461C46D0F804902DDBEA18F6
:1045B000D9E902315B1A9A4227D80069FFF7CEFF8A
:1045C000D9E9007299F81130B4B1D7F808901544C0
:1045D0001D443846D9F800309847002D12DB84423C
:1045E00010D8031B9D420DD8234642462946384623
:1045F000D9F80490C84704463069FFF7B6FF204653
:10460000BDE8F8836FF01504F6E76FF01504F6E7E0
:104610002DE9F0410C4646680546006990461F4664
:10462000FFF79CFF002C15DBD6E90231E2195B1A7B
:104630009A420FD8D6E90003E118737C19443B462F
:104640004246FFF768FF04462869FFF78EFF2046C1
:10465000BDE8F0816FF01504F6E7F0B500240569B8
:1046600085B01022002147680646684601F03BF8F5
:104670002846FFF773FF2C702546BB68A34205D878
:104680003069FFF772FF284605B0F0BDD7E9000199
:1046900021441B1B102B28BF10236A46FFF73BFF4A
:1046A000051EEDDBBB681B1B102B94BFE4181034F8
:1046B000E3E7F7B51C460023164682682360A36033
:1046C0000D465369694601AA9847019B5A1E0192FB
:1046D0001BB96FF0150003B0F0BD0098A2684768E1
:1046E0002168676085B9B31AD0F800C0634528BF58
:1046F000634603FB07111A442160A26002689A42D4
:1047000006D808300090E0E76B1AB3FBF7F3EBE74D
:104710000020E0E713460022FFF7CBBF43689B6809
:104720000B60012313607047436800205B69C1E997
:1047300000307047436858687047436800205B68E2
:104740001B680B60704743685B68586842400A40CA
:1047500042405A6000207047436800205A685368FE
:104760000B4353607047436800205A68536823EA3C
:10477000010353607047436800205A6853684B40F8
:104780005360704730B5B3F1C06F44681CD0B2F5C8
:10479000800F19D00120B2F5001F656800FA01F101
:1047A00002D16962002030BDB2F1A07F0CBFA962C6
:1047B000E9626268B3F1806F0CBF11635163636893
:1047C000996363681962EDE76FF08500EBE730B538
:1047D0000369586800B30024884219D108688CB96D
:1047E0009C685860A14200D19860002008602AB1FE
:1047F0005A680A609A68596002B9996000200FE00F
:104800002846E9E720609868814208BF9C60ECE791
:1048100005680446002DF3D1002AE9D16FF0150098
:1048200030BD08B543689B689847002008BD08B5AF
:10483000062000220321FDF7F9FCBDE80840062010
:10484000FDF7E6BC08B5072000220321FDF7EEFCCA
:10485000BDE808400720FDF7DBBC08B510200022AA
:104860000321FDF7E3FCBDE808401020FDF7D0BCB4
:1048700008B5112000220321FDF7D8FCBDE808404F
:104880001120FDF7C5BC70B5436802695B68054639
:104890009E6B9E63516809B10C6801B970BD8A684E
:1048A000324002D028464B6898471CB12368214605
:1048B0001C46F2E72346FAE738B512F4403F0C46AF
:1048C000456816D012F0320F13D193030ED513039F
:1048D00007D5FFF741FF6B681C6100206B68DC6146
:1048E00038BD5303F7D5FFF73EFFF4E76B68596116
:1048F000F3E76FF08500F3E7012303FA01F1FFF717
:10490000DBBF30B503695C68012303FA01F123685A
:1049100019422BD022F4702323F001031BB9237A10
:1049200023B1930317D56FF0850015E0D503FAD4B2
:10493000900310D56068EFF31185202383F312886C
:10494000BFF36F8F130308D503681943016085F324
:104950001188BFF36F8F002030BD5303F7D5236854
:10496000026823EA010313400360F0E76FF01500CB
:10497000F2E7036900205B685A681B6812681340FD
:104980000B60704710B50369586809C80140EFF320
:104990001184202080F31288BFF36F8F1868424083
:1049A0000A4042401A6084F31188BFF36F8F0020E1
:1049B00010BD03695B685A681B681940EFF31180EA
:1049C000202383F31288BFF36F8F13680B431360A8
:1049D00080F31188BFF36F8F0020704703695B6815
:1049E0005A681B681940EFF31180202383F3128863
:1049F000BFF36F8F136823EA0103136080F31188FC
:104A0000BFF36F8F0020704703695B685A681B68AB
:104A10001940EFF31180202383F31288BFF36F8FC7
:104A200013684B40136080F31188BFF36F8F002031
:104A300070476FF0850070470369426800205A6034
:104A4000704730B5036813600579046804EBC5044A
:104A5000A34202D36FF0010030BD5C7908338C4271
:104A6000F1D10020F8E74368586870472DE9F0411C
:104A70001F460E4615460446D0F804804046FEF711
:104A800003F8D8F800103A463144284600F004FEF6
:104A90006068FEF707F80020BDE8F0812DE9F041DD
:104AA0001F460D4616460446D0F804804046FDF7E2
:104AB000EBFFD8F800003A463146284400F0ECFD00
:104AC0006068FDF7EFFF0020BDE8F08138B50446CF
:104AD00045682846FDF7D8FF00216A68286800F07D
:104AE00002FE6068FDF7DEFF002038BD43681B68EA
:104AF0005A68920743BF1B6800200B704FF0FF30CD
:104B0000704743681B685A68D207FCD41960704725
:104B1000034610465AB15B681A685068C00705D44E
:104B20000120D0601B680A781A6070470020704727
:104B3000034610465AB15B681A68506810F00200CC
:104B400005D00220D06001201B681B680B707047E5
:104B50004268EFF31180202383F31288BFF36F8F35
:104B600011688B6823F004038B6013680122DA60FC
:104B700080F31188BFF36F8F704743681B685A68D2
:104B8000D2075ABF9868C0F380000020704742687F
:104B9000EFF31180202383F31288BFF36F8F116826
:104BA0008B6823F008038B6013680222DA6080F3BD
:104BB0001188BFF36F8F7047FFF7DFBF43681B6833
:104BC000586810F002001CBF9868C0F3C00070471E
:104BD000704708B50246FFF7F1FF20B9BDE808406D
:104BE0001046FFF7CABF08BD0369C3E90112704749
:104BF000026953680BB191681847704710B5426855
:104C0000EFF31184202383F31288BFF36F8F1168B1
:104C10008B6843F008038B6013685B689B0701D5C2
:104C2000FFF7E6FF84F31188BFF36F8F10BD10B557
:104C30004268EFF31184202383F31288BFF36F8F50
:104C400011688B6843F004038B6013685B68DB07B3
:104C500001D4FFF7CDFF84F31188BFF36F8F10BD30
:104C600008B5002203210120FDF7E0FA0120FDF73D
:104C7000CFFA002203211046FDF7D8FABDE808401C
:104C80000020FDF7C5BA032108B508460022FDF74C
:104C9000CDFA0320FDF7BCFA022000220321FDF724
:104CA000C5FABDE808400220FDF7B2BA08B50022F7
:104CB00003210520FDF7BAFA0520FDF7A9FA042023
:104CC00000220321FDF7B2FABDE808400420FDF7F9
:104CD0009FBA37B5456804460021A86801AAFFF7C6
:104CE000B0FE002812DB019B002219791868FDF73D
:104CF000A9FE00280ADB23691A685AB903222B6827
:104D000020469A60EB689847002001E0831CF2D0AF
:104D100003B030BD61684B68002BEFD0B3FBF2F3FA
:104D200009680B61EAE770474FF0E022136923F04E
:104D30000103136170478068183820F007001038AD
:104D4000704738B515460C4661B15AB1FFF7F2F914
:104D50002146254411F8013B834203D1A942F9D1F0
:104D6000012038BD0020FCE730B5026A0346D2E9D5
:104D7000014084424FF0000002D30123D36030BDD4
:104D800018745068242501305060186A4268541E17
:104D90000268184605FB04225C1950F8045BA04227
:104DA00042F8045BF9D101209960E8E7F0B50646C6
:104DB00004468BB001AD0F4694460FCE0FC50FCE03
:104DC0000FC5216A33684A682B6022B90223CB6081
:104DD00000200BB0F0BDFB072068A56813D5242682
:104DE0000B68013A06FB02337E0703D41A7C0AB132
:104DF0000F23ECE7224603F1240153F8046B8B42A6
:104E000042F8046BF9D1B90741BF226A536803F134
:104E1000FF335360AC4505D2236A002BD8D004225F
:104E2000DA60D5E77A0748BF20603B0701D401204C
:104E3000CFE7143406AB93E8070084E80700F6E7F1
:104E400010B502601A44029B012983604FF00003F1
:104E5000C26003740375836101D8036210BD24220C
:104E60004A43243A841804628350026A8C1E946078
:104E7000026A02295360026AD360026A1374026AEA
:104E800053741EBF036A24301860E7E7182871F1D5
:104E900000030ED3B0F5807F71F100030BD3B0F5A2
:104EA000803F71F1000308D3002914BF09200520B9
:104EB000704701207047022070470320704737B5C4
:104EC0000024002508290A46CDE900450AD80146F4
:104ED000684600F0E1FBDDE9000103B0BDE83040C9
:104EE000FFF7D4BF002003B030BD00B1C1607047F0
:104EF00043680360836801338360006AFFF7F5BF8E
:104F000008B50268C3689A4205D3006A0821FFF712
:104F1000ECFF002008BD0120FCE738B504460D4633
:104F2000FFF7EEFF40B123681B78B5EB531F04D0A9
:104F30000A21206AFFF7D9FF002038BD10B50446CA
:104F4000FFF7DEFF38B123681A78FF2A05D00A215F
:104F5000206AFFF7CAFF002010BD01332360FBE782
:104F600010B5027D044632B1FFF7E8FF48B10023D7
:104F70004FF0FF3223752046BDE810400721FFF7B0
:104F800015BF10BD2DE9F84F04460E4691461D464B
:104F9000FFF7B6FF804628B1A36843B90321206A12
:104FA000FFF7A3FF4FF000084046BDE8F88F2268E6
:104FB000177807F01F0BBBF11F0F12D1FDB1206A4C
:104FC00018B1037C0BB11521EAE701232B700025F2
:104FD0002368013563602B442360A368013BA36011
:104FE000E2E7BBF1170F0CD9ABF11803D9B20329D3
:104FF00005D801259D40A94504D20521CFE7072109
:10500000CDE70025E36805F1010A5244934201D23D
:105010000821C4E74A460021304600F064FB15B978
:1050200086F800B0D3E72268711E531913F80109FE
:10503000934201F8010FF9D1236A002BC8D01B7CE1
:10504000002BC5D00737FFB2022FC1D949463046E1
:10505000FFF735FF8245BBD01521A0E738B50C46D8
:1050600011460546FFF759FF08B9002038BD042254
:1050700000232846A118FFF785FF0028F5D02B68EC
:105080002360F3E7002337B504468DF80330FFF7BC
:1050900044FFA8B1042220460DF103030DEB0201E9
:1050A000FFF770FF60B19DF8035065B90199204684
:1050B000FFF75AFE50B963682360A3680133A36009
:1050C000002003B030BD6FF00F01F0E72575F8E761
:1050D00038B504460D46FFF7C1FF48B12268E368C2
:1050E0009B1A6A689A4204D908212046FFF700FFFC
:1050F000002038BD70B50D46002104461646FFF766
:105100000CFF38B1324629462046BDE870400023E6
:10511000FFF738BF70BD0422FFF7ECBFFFF7FBBFFE
:1051200038B5022204460D46FFF7D2FF18B12368B6
:105130006A681344236038BD38B5032204460D461F
:10514000FFF7C6FF18B123686A681344236038BDAF
:1051500010B505210446FFF795FF50B1237D4BB9EB
:105160006FF00042A368934205D305212046FFF764
:10517000BFFE002010BD5B00A360FBE7037D23B9E9
:105180008068B0FA80F0400970470368C2689342B3
:1051900005D21878A0F1FF0358425841704700200B
:1051A0007047FFF7DDBE38B50D4606210446FFF710
:1051B000B4FE08B9002038BD002304222946204649
:1051C000FFF7E0FE0028F5D0A3680133A360F2E703
:1051D000F0B58FB00446FFF793FE00285DD023683A
:1051E00000221D780023CDE9022323466D0905AA7C
:1051F00004F12007164618685968083303C6BB42F5
:105200003246F7D118683060062D1CD02A1F0023C3
:10521000012A4FF008028DF804300DEB020198BF0F
:1052200001AB05A8FFF7AEFE0646002835D0042DD9
:105230003BD019D8023D012D21D9059B2360A368DD
:10524000013BA3602AE001A905A8FFF7ACFF20B34A
:10525000059B089A934204D30821206AFFF745FE74
:105260001BE01D786D09CFE7052DE6D1DDE902329F
:10527000B3F1004F72F1000113D32946EDE7E36863
:105280002168029A5B1A9A4203D8059B134405933E
:10529000D3E708212046FFF72BFE002630460FB04B
:1052A000F0BDDB185241CDE902329DF8045025B122
:1052B0006FF00F020023CDE90223029B8DF82850E6
:1052C000079305A8FFF75AFF014638B1002DB4D067
:1052D00005A8FFF733FE0028AFD1DEE705A8FFF7EA
:1052E00077FF0028EDD1D8E7FFF7AABD00B1C16074
:1052F000704710B50368C468A34205D3006A08214B
:10530000FFF7F4FF002010BD02F01F0242EA411136
:1053100019700368013303600120F4E770B5054696
:105320000E46104619461446FFF7C9FD224631467F
:10533000431E2846BDE87040FDF7B4BCF8B51746DB
:10534000C368026804469A420D4606D30821206AC3
:10535000FFF7CCFF00263046F8BD9B1A4A689A42F8
:10536000F4D80E4656F8043B53B104213046FFF7FB
:10537000A6FD6A6823681344E26803449A42E5D3B1
:105380003246042339462046FFF7C8FF0646002868
:10539000E0D020682968884202D06A6800F08AF963
:1053A00023686A6813442360D5E7082A73B5134657
:1053B0000C4606D9006A0521FFF798FF002002B0CD
:1053C00070BD8E1816F9012C002A0FDA0A466C46B9
:1053D0006946B24204D101212246FFF79FFFEEE762
:1053E00012F8015BED4301F8015BF2E70021F3E7FE
:1053F00013460A460021FFF791BF07B50422019129
:105400000DEB0201FFF7D1FF03B05DF804FB07B518
:10541000042201910DEB0201FFF7EAFF03B05DF8F2
:1054200004FB0222FFF78ABF0322FFF787BF07B5FD
:10543000CDE900126946FFF7F4FF03B05DF804FB05
:1054400007B5CDE900126946FFF7EEFF03B05DF83E
:1054500004FB1F220421FFF74CBF1F220521FFF789
:1054600048BF1F220721FFF744BFFFF7FABF1FB550
:105470000024CDE90144069C0094FFF7E1FC04B050
:1054800010BD10B5436904463BB90020E2684042B4
:10549000537843F00103537010BD98470028F4D0AF
:1054A0000028B8BF4042FF28A8BFFF20E36818705B
:1054B000ECE740B1C368587810F001001EBF1878BF
:1054C000B0FA80F040097047EFF31183202383F393
:1054D0001288BFF36F8FFEE710B52024EFF311831E
:1054E00084F31288BFF36F8FFEF7DCFFF6E7034605
:1054F0000020C3E90033C3E9020070470020704771
:1055000038B58589EFF31181202282F31288BFF329
:105510006F8F037C13F0080404D081F31188BFF36C
:105520006F8F38BD0122FDF7DBFFEB07F9D584F360
:105530001188BFF36F8F0423184602DFF1E7FEF7EF
:1055400091B8D0E9003213605A600023C0E90033FB
:10555000704708B5FFF7F5FF037C23F002030374DF
:105560000023836008BD38B504460D46FDF704FFEF
:10557000237C43F002032374D5B1A5602B689D42C0
:1055800009D16B68C4E900531C606C6010E06A6864
:105590009A42F6D01B68002BF3D093F90E1094F9C1
:1055A0000E209142F3DD5A68C4E9003214605C6059
:1055B00038BD10B5EFF31184202383F31288BFF3B5
:1055C0006F8FFDF703FF84F31188BFF36F8F10BD5A
:1055D000FDF7FCBEFDF7D0BE08B5037C014613F015
:1055E000280F0CD183680BB1FFF7B3FF0B7C084683
:1055F00023F004030B74BDE80840FDF7E7BE08BDC7
:1056000038B50446EFF31185202383F31288BFF3E6
:105610006F8FFEF7DDFA18B9A4F11800FFF7DCFF71
:1056200085F31188BFF36F8F38BD0846FDF70EBFB5
:1056300038B505460C46FEF7EFF8B4F1FF3F08BF5A
:10564000B5F1FF3F0AD00A23A0FB0303B0F1004FDE
:1056500073F1000301D36FF0004038BD4FF0FF300D
:10566000FBE708B50246FEF7C9F970B1D0E904318D
:105670009B1A61EBE272B3F1004F72F1000104DAA0
:10568000002AACBF1846002008BD6FF00040FBE7C1
:1056900008B5FEF71DFB08BD0A44914200F1FF3337
:1056A00000D1704710B511F8014B914203F8014F3A
:1056B000F9D110BD884210B501EB020402D9844231
:1056C000234607D8431EA14207D011F8012B03F847
:1056D000012FF8E70244824200D110BD13F8011DEA
:1056E00002F8011DF7E703460244934200D17047D8
:1056F00003F8011BF9E710B501390244904201D1CA
:10570000002005E0037811F8014FA34201D0181BD7
:1057100010BD0130F2E7F0B504460846C2F1370586
:10572000EDB202F01F02B4FBF2F6274602FB16416F
:10573000CBB2092984BF5B19DBB23033BA4234469D
:1057400000F8013BEFD9F0BDD1E9043293421EBF0E
:085750005A1C0A611870704731
:10575800000000005058000000000000345800000D
:10576800000000001858000000000000FC5700006E
:1057780000000000E057000000000000885800000A
:1057880000000000A4580000000000006C58000051
:1057980000000000F858000000000000DC5800007D
:1057A80000000000C0580000B527000000000000FD
:1057B800FD2A00000000000000000000145900004D
:1057C800000000004C5900000000000030590000A3
:0857D800310200000000000096
:1057E000D29600005C5D0000805A0000B2000020EC
:1057F000581000202348000000000000E096000040
:10580000805D0000805A0000B40000206410002079
:105810002348000000000000EE960000A45D000098
:10582000805A0000B60000207010002023480000BD
:1058300000000000FC960000C85D0000805A0000D7
:10584000B80000207C100020234800000000000069
:1058500049970000205E0000C85A0000C0000020E8
:105860000000000000000000000000000A97000097
:10587000EC5D0000A45A0000BA000020881000204F
:10588000394A0000000000001F970000F85D00008A
:10589000A45A0000BC00002090100020394A0000EB
:1058A0000000000034970000045E0000A45A0000CD
:1058B000BE00002098100020394A000000000000BF
:1058C0006D9700002C5E0000D85A0000C200002036
:1058D0002C000020D34C0000000000007B9700004B
:1058E000445E0000D85A0000C40000205000002090
:1058F000D34C000000000000899700005C5E0000AF
:10590000D85A0000C600002074000020D34C0000CC
:1059100000000000DA6E0000345D0000685A0000EC
:10592000B0000020240000204928000000000000F2
:10593000916E0000045D000000000000AC0000203B
:10594000C807002009270000000000009F6E00002B
:105950001C5D000000000000AE000020E0070020F9
:0859600009270000000000000F
:10596800F8580000F14B0000F8580000F14B000017
:10597800DC580000F14B0000DC580000F14B00003F
:10598800C0580000F14B0000C0580000F14B000067
:105998003458000087480000185800008748000065
:1059A8000000000073440000000000007344000081
:1059B8000000000073440000000000007344000071
:1059C8000000000073440000000000007344000061
:1059D8000000000073440000000000007344000051
:1059E800FC57000087480000E05700008748000087
:1059F8000000000073440000000000007344000031
:105A08000000000073440000000000007344000020
:105A18000000000073440000000000007344000010
:105A28000000000073440000000000007344000000
:105A380000000000734400000000000073440000F0
:105A480000000000734400000000000073440000E0
:105A580000000000734400000000000073440000D0
:105A6800052800004D290000A52800003547000042
:105A7800294700001D470000F94800003B47000087
:105A88004747000059470000674700007747000074
:105A980085470000CF4700000000000003490000D0
:105AA8007349000085490000B3490000DD49000042
:105AB800094A0000334A000000000000000000000E
:105AC800674A00006D4A00009D4A0000CD4A000068
