:020000040000FA
:10000000B83D0020F11A0000751C0000751C0000AE
:10001000751C0000751C0000751C0000751C00009C
:10002000751C0000751C0000751C0000751C00008C
:10003000751C0000751C0000751C0000751C00007C
:10004000751C0000751C0000751C0000751C00006C
:10005000751C0000751C0000751C0000751C00005C
:10006000751C0000751C0000751C0000751C00004C
:10007000751C0000751C0000751C0000751C00003C
:10008000751C0000751C0000751C0000751C00002C
:10009000751C0000751C0000751C0000751C00001C
:1000A000751C0000751C0000B83D0020F11A00000E
:1000B000913B0000DD1A000000000000000000007D
:1000C0000000000000000000000000000000000030
:1000D00000000000291B00000000000000000000DC
:1000E000DD1A000000000000551C0000551C000037
:1000F000551C0000551C0000551C0000551C00003C
:10010000551C0000551C0000551C0000551C00002B
:10011000551C0000551C0000551C0000551C00001B
:10012000551C0000551C0000551C0000551C00000B
:10013000551C0000551C0000551C0000551C0000FB
:10014000551C0000551C0000551C0000551C0000EB
:1001500002B4714649084900095C49008E4402BC5A
:100160007047C046002934D00123002210B48842D1
:100170002CD301242407A14204D2814202D20901D6
:100180001B01F8E7E400A14204D2814202D24900F7
:100190005B00F8E7884201D3401A1A434C08A0429A
:1001A00002D3001B5C0822438C08A04202D3001B30
:1001B0009C082243CC08A04202D3001BDC08224347
:1001C000002803D01B0901D00909E3E7100010BC87
:1001D000704701B5002000F00BF802BD0029F8D0EF
:1001E00003B5FFF7C1FF0EBC4243891A1847C0464A
:1001F0007047C0461C2101231B04984201D3000C08
:1002000010391B0A984201D3000A08391B09984289
:1002100001D30009043902A2105C40187047C0469F
:1002200004030202010101010000000000000000BF
:10023000414208401C2101231B04984201D3000CB9
:1002400010391B0A984201D3000A08391B09984249
:1002500001D30009043902A2105C401A7047C0465D
:100260001B1C1D1D1E1E1E1E1F1F1F1F1F1F1F1FAD
:1002700070B586B003F0B4F800F080F84921264844
:1002800003F0D4F803F0ABF803AE300000F0E0FD6B
:10029000224B1B68834204D04521214803F0C6F855
:1002A000FEE749211F48B26803F0C0F803991E48D1
:1002B0004B7D0A7D8C7DC97D090221430091492136
:1002C00003F0B4F84921194803F0B0F8307902A9D5
:1002D00000F032F8041E00D0FEE7029AB368144D15
:1002E0009B18039A117A527A12020A439B182B60C8
:1002F00001F050FB2B681B6883F3088884F3148893
:10030000BFF36F8FBFF36F8F2B685B6898474521F2
:10031000084803F08BF8FEE76A4B0000B0070020A6
:10032000834B0000A64B0000D54B0000F34B0000B0
:1003300028010020184C0000020010B5002807D04A
:1003400004480023452103F071F81620404210BDF7
:100350000860FCE73B4C0000002904D0012906D0CE
:10036000162040427047044BC000C058FAE7C00056
:10037000014B0430F9E7C04644490000C021094B55
:10038000094AC9005A5009495A5004315A5008497B
:100390005A5004315A5007495A5004315A500649AC
:1003A0005A507047000001403546526E0406000066
:1003B0000C060000140600001C06000010B5024BDD
:1003C0001B68984710BDC04604000020014B186010
:1003D0007047C046040000207FB505000E001022C3
:1003E0000021684604F08DF96C460223A370044B8B
:1003F000320029006846019302F09EFE7FBDC04690
:10040000BD03000000220B4B70B51A60A8230A4AF6
:100410000A4CDB00D05825680949401BFFF7A2FEB3
:10042000074B43435B192360EFF3108172B602F070
:100430001BFE70BD40810040008000402C01002068
:1004400010270000A223042210B5124CDB00E2505A
:10045000A1220323D200A15808200B43A35001215D
:10046000002201F08FFB082001F072FB0123002025
:10047000094A802113602360084B094A1860C02391
:1004800049005B00D15080228533FF335202E25095
:1004900010BDC046008000400C80004040810040FC
:1004A00000E100E0F7B5431C58D00023012856DCDA
:1004B0000122314F314C324E32493A600968A2591B
:1004C0000191521AD143304DC9170B406B43521959
:1004D00029009818FFF746FE45432C4B9D4200D952
:1004E0001D00019B80225B190193C22352029B00D5
:1004F000E2500123A82200213B60D200A359244DE1
:10050000A0582960C01AA350012803D104F093F821
:1005100000232B60C02380221E495B005200CA507A
:10052000803BFF3B3B60019AA359D11AA822D2001D
:1005300001291DD1981CA0503960A059984214D1AE
:10054000C12380229B005202E250002380222B60B4
:1005500010498133FF335200CA50F7BD0E480F4B8C
:10056000984200DD1800431EA2E73960A359E1E775
:10057000019BA350E4E7C046448000400080004057
:10058000440500002C01002010270000B0CAFF7FA6
:100590004081004000E100E0DB460300DC46030050
:1005A000EFF3108372B60121054A11600549064A2E
:1005B0008858002B02D162B6BFF36F8F7047C046D8
:1005C00044800040008000404405000070B5104B9E
:1005D0000D001C68002C17D00E4B1A6800239342A4
:1005E00002DB022040420EE02100267810318642D4
:1005F00002D00C000133F2E7E06804F041F8002873
:1006000004D000202C6070BD0D20EBE71320E9E73B
:10061000080000204C49000030B5436889B00293BF
:1006200083680492039300230A6801ACC0680692B1
:100630000D00220005490593079303F0ABFB0798D3
:10064000002801D1059B2B6009B030BDFD340000AE
:10065000F0B5A1B00592384A06001468289A0D003A
:100660000392279A029218AA0192269A0092059A5A
:1006700002F07FFF002804D02F4B1C68200021B01F
:10068000F0BD299B002B04D02022180018A904F0EB
:100690002FF80599300003F034F9002309AF290041
:1006A0000F9000933800254B059A00F04DF8051E79
:1006B000E2D10E9A0F9F30000599D71B03F004F882
:1006C000B842D9D3162602ABF61807AF33003A006A
:1006D00008A909A800F0A0F80028CDDB29D10899C5
:1006E00009A802F090FF3288002809D1144B134862
:1006F00002E0914204D0023319888142F9D1BBE76C
:10070000102ADFD13C88202CB6D123000899059807
:1007100010AA02F0A2FE0028AED1220010A918A84B
:1007200002F080FF0400074B01251B689842C9D0E6
:10073000A2E7012DA0D1A1E710000020FFFF0000DB
:100740003C4B0000B0070020F0B587B002930CAB23
:100750001B7806000C0000920393002805D10123AA
:100760005B420193019807B0F0BD0029F7D0009BD0
:10077000002BF4D04D7A0B7A2D021D4383690A7B3E
:10078000ED184B7B05AF1B0213438A7B00981204C4
:100790001A43CB7B1B061343ED183A0004232900B0
:1007A00002F05BFE01900028D9D1E17AA37A090218
:1007B00019433A88164B9A4227D17B889942CED169
:1007C00004233A000098491902F047FE0028C6D1D8
:1007D00005AA104B11889942C1D1009B3460736007
:1007E000029B3381039BB372E37AA17A1B020B4312
:1007F0005B19F360E37AA17A52881B020B439B18C2
:100800005B19043573613561ACE70029E0D0A6E7D8
:100810000869000007690000F0B585B004001D00FC
:1008200000910192002803D10120404205B0F0BDA3
:100830000368002BF8D04368002BF5D02169636969
:10084000994219D223689A7ADB7A1B02134304D0A7
:10085000E3688B4201D10431216103AF04233A00E4
:10086000606802F0FAFD0028DED1A37A002B05D0E3
:100870002269E3689A4201D30120D7E77988238966
:100880000C4E0A1DB34202D03F889F420ED1002D6C
:1008900002D003AB1B882B802369009D04332B609F
:1008A000019B198023699B182361BFE723699B186B
:1008B0002361C3E7FFFF000010B50A780649430033
:1008C000C0004458D020A24205D001339B005B58A1
:1008D0009A4200D0D13810BDA04900001FB5602356
:1008E0004B43C018046A1023A1686A4620001039DF
:1008F00002F0B3FD031E05D022784521034802F023
:1009000095FD0024200004B010BDC046614C0000DD
:1009100070B50400002900D10D49D0239B0061620D
:10092000C91861652000012102F0D2FE01250028CE
:1009300009D10221200002F0CBFE051E05D1206A5C
:1009400002F0CEFD6066280070BD0925FBE7C046B9
:1009500030010020302370B5594343181C6A002C25
:1009600001D103F037F909580C4A0020914213D104
:100970001989DA68CD43AA420ED852185989CD4355
:10098000AA4209D88918A268914205D21869044B75
:10099000184043425841C0B270BDC0463DB8F396BE
:1009A0000C0E00001FB53021514341180A6A002A7D
:1009B00001D103F00FF9002403940294019401344F
:1009C000FF34034B0094FFF743FE04B010BDC04654
:1009D000B00C0020F0B530274F438DB00393304B5F
:1009E000C7191D683B6A06000C0002920193002B98
:1009F00001D103F0EFF802F0FBFE002805D13A69BF
:100A0000102317001F401A420AD0002C03D03000D8
:100A1000019902F07EFF234B1D6828000DB0F0BD48
:100A2000002C2DD0029802F038FF002828D0039B1C
:100A3000023B012B24D820233900019804AA02F09C
:100A40000CFD0028E9D1184B049A9A4218D145218F
:100A5000164802F0EBFC134B1D68154B1B68AB42AC
:100A6000DBD0144A002C00D1134A4521134802F070
:100A7000DDFC002CCFD00121019802F0B2FECAE7C4
:100A800021003000FFF766FF002801D1044BE3E7A7
:100A9000220030000299FFF785FF0500DDE7C04620
:100AA000100000200C0000203DB8F3969F4C000081
:100AB000B0070020954C00008D4C0000EB4C00006E
:100AC000F7B50027040008000D000197009702F019
:100AD000E4FE0100B84244D0637822781B0213433D
:100AE000A278284E12041A43E3781B061343B3423C
:100AF00008D13900200001AA00F0B2FDB84201D0AF
:100B000003F068F8230030331A7801331B781B0296
:100B1000134322003232127812041A432300333373
:100B20001B781B061343B34206D16A4601212000FD
:100B300000F096FD0028E3D1009A019B9A4201D96A
:100B400013000192AB60019A2900200000F008FC1C
:100B50000D4B1A68002A03DD57210C4802F066FC91
:100B6000F7BD2000FFF7BAFE061EC9D029000831E4
:100B700002F069FD0028C3D1AB683000019302F098
:100B80006BFCE0E73DB8F396200C0020134D00000D
:100B9000F0B58026002485B0019102920393F600FF
:100BA0000B9B9C4201D300200FE00B9B1D1BB54209
:100BB00000D93500039B0C4FE1183A002B00019837
:100BC00002F04BFC002802D0012005B0F0BD0A9BCA
:100BD0003A00E11802982B0002F055FC0028F3D1EE
:100BE0006419FFF7CBFBDBE7B4070020F0B589B051
:100BF0000091040002F024FE011E04D045218B4820
:100C000002F014FCFEE72000FFF782FE250006003C
:100C1000603504AF00280ED100222000110002F040
:100C2000F4FD061E1DD082480022572102F0FEFB73
:100C300001232B7008E0682257217E4802F0F6FB62
:100C400001232B709E42E7D12B78FB71042B00D936
:100C500084E0012B00D98AE000D1A0E0FF232B70B3
:100C60009DE0200000F094FA0028E1D001230493D5
:100C7000714B390020000593BE60FE6002F08EFECD
:100C8000002801D06D48CFE7380002F006FE0123AE
:100C90005840C1B23A00200002F0B7FD061EC2D192
:100CA000380002F0FAFD00282DD139002000FFF7AE
:100CB00007FFFB792B70033B012B06D8300000F0B7
:100CC000EFF8061E01D0FF232B70FB79023B022BAD
:100CD0000CD8002000F0CEF8061E07D0FF232B70A2
:100CE0004521574802F0A2FB02F074FF2B78FF2B3E
:100CF000F6D0002EF8D132003100200002F085FD40
:100D0000002895D0F0E7FB790193012B18D1300032
:100D100002F092F8831E0600022B0FD803003A005F
:100D200020000199FFF756FE464B1B68984205D0FC
:100D3000454B05261B68984200D1019E2E7083E723
:100D4000012133003A002000FFF744FE3D4B1B68B1
:100D5000984201D005236CE7FB796AE7052B00D0A8
:100D60007CE7002000F09CF8002818D076E73900D6
:100D70002000FFF7A5FE2B78DA1E012A0CD80020F0
:100D800000F08EF8002804D1002000F073F800284D
:100D900005D0FF232B70A7E7023B012BF4D92B785A
:100DA000FF2B9DD00021294E0391012B11D00A0069
:100DB000200002F02AFD00280BD035681022002107
:100DC000380003F09EFC200002F054FD280009B01A
:100DD000F0BD002320001A001900FFF7FBFD194B9E
:100DE000356801931B689842E8D1A842E6D0164BBB
:100DF0001B689842E2D00021200002F01FFD00286D
:100E0000DBD1039B01330393039B012B00D0FEE74F
:100E1000206A02F0C6FA009B009A1871236A5B6888
:100E200014609360019B1D68C8E7C046424D0000F6
:100E3000B54D0000734D000001010001E14D0000BF
:100E40000B4E0000B00700200C0000201000002016
:100E500070B5074D0400280002F019FD210028009C
:100E6000FFF7C4FE0400280002F04AFC200070BD19
:100E7000B40B002013B5094BC000C05801A9C0B283
:100E8000FFF7A4FB0124002806D1019803F0C9FB59
:100E90000400019802F0E0FA200016BDA849000005
:100EA00030B5104BC000C05885B0C0B201A9FFF7E3
:100EB0008DFB0124002810D102AD2900019801F01A
:100EC00067FF041E0CD1EB78032B03D1019803F0CC
:100ED0006EFB0400019802F0BFFA200005B030BD9F
:100EE0000124F7E7A8490000F0B587B007000C001F
:100EF0001D1E009212D130234B43C3181B6A2E00D3
:100F0000039301230193994256D1280001F094FFE5
:100F10000194042850D07B6D5E684DE0180002F00B
:100F2000BCFC019000285CD101003800FFF7D6FC22
:100F3000002802D101230293BDE005A902F083FB42
:100F40000028F7D13800059902F05BFD7B6A02901A
:100F50005E68EB79042B10D1002C22D0012C34D107
:100F60002B68029A013B93422ED8002693421ED151
:100F70002C79033C631E9C4119E0019801F05CFF51
:100F80000428E9D0002C26D12A68012A03D81BD1D5
:100F90002B79022B18D100263400029B9342744116
:100FA00005E02B68029A013B93420AD901243023C1
:100FB0006343FB181B6A0393039B002B23D102F0AE
:100FC00009FE029A934202D000240026EFE72B7913
:100FD000022BF9D1EAE7012CF7D12B68012BF3D8CA
:100FE000E4E730236343FB181B6A0393EB79042B7C
:100FF00007D0002001F020FF00260428DCD0012CBF
:1010000089D00026D8E720233100009A039802F007
:1010100024FA029000288DD1019B002B21D0009B47
:101020001A785B781B021343009A927812041A43D1
:10103000009BDB781B061343204A934211D0012CFE
:101040000FD101F0F9FE029E042801D17B6D5E688C
:1010500020233100009A039802F0FFF9002800D005
:1010600068E7009B1A785B781B021343009A92781A
:1010700012041A43009BDB781B0613430F4A93426A
:1010800017D1002D17D0012C00D1BE66009B1A7815
:101090005B781B021343009A927812041A43009B58
:1010A000DB781B061343064A9B185A1E93415B428A
:1010B00041E7002DEAD1029807B0F0BD3DB8F396A4
:1010C000C3470C69F0B589B000900C000100002006
:1010D0001600FFF7F1FB051E51DB636E00980393CA
:1010E00002F0A4FA00230124019301330590029336
:1010F0006442002D1CD1019B012B03DD45212248B8
:1011000002F094F9631C10D001237371E30F1B19D3
:101110005B10013333601D4B1C4004D50223013C9E
:101120005B421C43013401343471280009B0F0BD26
:101130006B1E0493FF23039906AA19406B1E5943A3
:10114000059B0098C9180732012302F086F9071E93
:1011500017DB06AB01220098D91D03F0C8F900285F
:1011600009D0029BFB1A5A1E9341019AD31801938E
:10117000049D0297BDE7631CFAD12C00F8E7072510
:10118000D3E70125D1E7C046174E000001000080DB
:10119000F7B5876A866D0500B74203D07B1C1848F7
:1011A000B3421AD1002417480194711E682F14D835
:1011B000A14206D8280002F0C7FC002814D112482A
:1011C0000BE06A6AE300D218526801926A6DD31884
:1011D0005B68019A9A4205D00C48572102F026F923
:1011E0000020FEBD0134E3E70120B742F9D96B6A64
:1011F000E4001B195B68019A9342F2D0ECE7C04609
:101200003A4E0000724E0000CD4E0000A14E00008C
:10121000F0B589B004AC06002100006A01F0B8FD09
:10122000002801D002F0D6FC2278214B012A03D0FD
:10123000204B032A00D1204BE178204F0291A17866
:101240003800019161781E4A009106AD492102F0F3
:10125000EDF8306D290001F09BFD061EE2D12A78E1
:10126000134B012A03D0134B032A00D1124BE97808
:1012700038000291A978134A0191697800914921B7
:1012800002F0D4F82378012B0DD1A378032B0AD1D7
:101290002B78012B07D049210B4802F0C7F8022612
:1012A000300009B0F0BD4921084802F0BFF8F7E767
:1012B0000A4F0000064F00000F4F0000234F0000B0
:1012C000154F0000644F0000744F0000934F000062
:1012D000F0B5CB7907000E00140087B0042B33D192
:1012E0000B68012B30D104AD2900100001F050FD36
:1012F000002801D002F06EFC2A78144B012A03D09A
:10130000134B032A00D1134BE978134A0291A978B1
:101310001248019169780091492102F087F82B78F1
:10132000032B11D12100380002F0F3FA0028E1D19B
:10133000200003F076F90028DCD1320021003800CB
:1013400002F0FAFA0028D5D107B0F0BD0A4F00002C
:10135000064F00000F4F0000644F0000234F0000B5
:10136000F0B5040016008FB0B9480D00492102F015
:101370005DF83100200002F044FB636A06905F686C
:10138000236A0493002B01D102F024FC236D039304
:10139000002BF9D0280002F080FA00281ED0606EE1
:1013A00002F0AFF93B00A66A013E984202D9013E25
:1013B000DB19FAE7069BB34210D35721A54802F088
:1013C00035F83300069A7B43013257217A43A2480D
:1013D00002F02CF80123EB710FB0F0BD29002000C2
:1013E000039AFFF775FF2B68012B15D1EB68022BD1
:1013F0000CD02000049902F08CFA0028C4D12A00F5
:101400002000049902F098FA0028BDD12000039929
:1014100002F07FFA0028B7D10E260AABF618320088
:101420000DA9049802F01CF901236B710AAB208905
:101430009B893900C0186389C018E368013BDB1938
:10144000C018FEF78FFE0890638F208F3900C018F8
:101450003388C018E36B013BDB19C018FEF782FE2E
:101460000990EB79042B62D1069E069B9A1B2B6890
:10147000013B9A4200D2CAE0626AF300D158126876
:101480008A1A05922A79012A00D0BDE0089AB24250
:101490001AD3626D0398D318996813683A00CB1A6F
:1014A00007930799002302F04AF9002800D06BE760
:1014B000079B20000093039A059B04990197FFF76F
:1014C00067FB002800D05FE72900200002F0F2F956
:1014D00002232B71002803D0604A13680133136084
:1014E000099BB34213D300233A000599049802F0F4
:1014F00026F9002800D047E7059B2000049A0399AD
:1015000001970093FFF744FB002800D03CE7290037
:10151000200002F0CFF92B6801332B6001232B71DF
:10152000002874D04D4A1368013313606FE0002027
:1015300001F082FC042897D0002305932B68059ABC
:10154000013B93427BD8636AD20019680A910A98DA
:1015500099589B189B68091A07910B932B79012BBB
:101560006BD1089B05998B4217D3636D03989E58E6
:101570001B683A00F61A3100002302F0E0F8002858
:1015800000D001E72000079B039A04990197009679
:10159000FFF7FEFA002800D0F6E62900200002F04E
:1015A00089F902232B71002803D02C4A13680133D8
:1015B0001360099B059A934216D300233A000799BA
:1015C000049802F0BCF8002800D0DDE60A9A0B9BD4
:1015D00020009B1A079A039900920197049AFFF73B
:1015E000D7FA002800D0CFE62900200002F062F9E7
:1015F0002B6801332B6001232B7100281FD0174A61
:101600001368013313601AE0022A00D168E7069BD1
:10161000013E9E4200D828E700233A0019000398B3
:1016200002F0D6F8002800D0AEE62000039902F0C0
:1016300070F9002800D1CFE6A6E6022BB9D0059BB1
:10164000069A01330593934200D877E7C4E6C04673
:10165000AA4F0000D54F000004500000200C0020CD
:101660003023F0B54B43C31815001A6A87B0070042
:101670000C000092002A01D102F0ACFA002DFBD040
:1016800000222A601989DB68CB180393012C00D152
:10169000826E039B0098D31802930299042305AA33
:1016A00001F0DBFE0190002807D001230193009890
:1016B00001F0D2FE019807B0F0BD3023634304AAC5
:1016C000FB185E899288124B9A421DD104ABDB88CD
:1016D0009E4201D00323E9E7029B0098F11805AA76
:1016E000042301F0BAFE0028DFD105AB094A1988AE
:1016F0009142EFD1302262435B88BA189385039AF6
:101700009B199B182B60D2E7002EEED0E2E7C04673
:101710000869000007690000F0B500220368A3B063
:10172000079343680F91089383680993C3680A93EA
:1017300003690A9F0B9343690C9383690D93C369F3
:101740000E9304930D9B05930C9B02930B9B0093AC
:10175000099B0393089B0193079E0F9B06259C18EA
:1017600061789B5C09021943A3781B040B43E17861
:10177000009C09060B431BBA12A953500B21CC4104
:101780000099E9416140009C1335EC4161406B4C8C
:10179000A55806945B19CB18029D0099009C0D403A
:1017A00005990432A14369405B18049935005B1820
:1017B0000D21CD41022429003500E54134004D4082
:1017C0001621CC4101996540039C614031408C4613
:1017D000019C03990C40210064464C402919DD19F5
:1017E0005B189C46059B039F0493402A00D092E01F
:1017F00010230493049912AA0B00013304930F23BE
:10180000049C23409B009C58072327001222DF41A1
:101810002300D3415F40E30810930B000F240E33E5
:1018200023409B0012AA9C5811222300D3410F97FA
:101830001A0013272300FB411F0013007B400F27D2
:10184000A20A0F240F40093121401192BF0012AAB1
:1018500089008958BA580F9C8918109A5440119AD7
:1018600009195340CB1812AABB50290006222C009C
:10187000D1410532D441192261402C00D441029A51
:101880006140009CAA432C4062408A180699644635
:10189000096C5218D318059A61469B180222D1414F
:1018A0000B32D441162261406446D4416140644603
:1018B000019A72402240019C344062408A18039988
:1018C00059189B18069A04320692019A0392029ABA
:1018D0000592049A402A28D1079AD3180360019AE6
:1018E000089B634494464360099B009A9B1983605C
:1018F0000A9B6344C3600B9B59180C9B01615B19E5
:1019000043610D9B9B18029A836194460E9B63442E
:10191000C36123B0F0BD029B0593009B0095029329
:10192000019B01960393664617E7009A019600957E
:1019300066460D009C4602925CE7C046B049000036
:1019400010B5041E14D07022002102F0F9F8012015
:10195000084B2360084B6360084BA360084BE360AF
:10196000084B2361084B6361084BA361084BE3619B
:1019700010BDC04667E6096A85AE67BB72F36E3C70
:101980003AF54FA57F520E518C68059BABD9831F4A
:1019900019CDE05BBFF36F8F72B60122034B524249
:1019A000191DCA67C02149005A50704700E100E084
:1019B00010B5034801F017FD024801F014FD10BDF9
:1019C000355000005B50000010B5034A0348002169
:1019D000121A02F0C7F810BDB40D0020B0000020AC
:1019E0000648074A10B5121A064902F0BFF8064A1F
:1019F00006480749121A02F0B9F810BD0400002089
:101A0000AC000020C45100000400002004000020AD
:101A1000C451000030BFFDE770B5264B0C005B6879
:101A200088B0DB05DB0D62B6BFF36F8F0026150EA5
:101A30003100FF2D09D1F33D1540082D05D00100DF
:101A40000136120701D5210000260025032B1BD1EA
:101A50008B69194A934202D3184A934206D3184A13
:101A60000025934210D3174A93420DD2023B1B88A4
:101A7000FF221C00DF20002594430002844203D192
:101A80001340022B00D10D682022684602F030FE80
:101A90006C46079B002E0AD0DA0502D10A4A13438E
:101AA000E3612100280002F065F808B070BD5B0A10
:101AB0005B02F5E700ED00E0500100006847000020
:101AC0000400002004000020FF0100000821024A59
:101AD00053698B435361704700ED00E0EFF30880DA
:101AE000EFF3098101B57246FFF796FF01BDC046CD
:101AF0000A4880F3088800F02BFD72B608480949AF
:101B0000401880F30988EFF314800221084380F322
:101B10001488BFF36F8F02F047F80000B83D002033
:101B2000B80D00200008000004207146014202D0D8
:101B3000EFF3098001D1EFF3088081690239097858
:101B40000229FFD001B5724602F01CF801BDC04663
:101B500043B2000605D41F221A4001239340014AD4
:101B60001360704700E100E0054A43099B009B5861
:101B70001F2210401E3A8240134018007047C04692
:101B800000E100E030B5FF2503220B00290040B240
:101B90000240D20091409B012B40C9439340002852
:101BA0000ADBC0240A4A800880008018A400025979
:101BB0000A401343035130BD0F2210400838054A34
:101BC000800880008018C26911401943C161F2E7A2
:101BD00000E100E000ED00E0014B024A1A607047AE
:101BE00000000020A8000000F0B506000C00150061
:101BF000084F87F30988002004498847201C291CC6
:101C00001A1CB04702488047FEE70000BF3B0000B7
:101C1000CB3B0000B83D00201022014B1A617047F9
:101C200000ED00E0F0B5C02400220326FF25A4004B
:101C300010002F003040C0008740054993089B00EA
:101C40005B1819590132B94319511A2AF0D1F0BD64
:101C500000E100E010B5EFF30583054A103BDB001F
:101C6000D11849689858884701F0B3FF10BDC046A5
:101C700008480000EFF30580800002490968091850
:101C8000096808470000002010B5024B1B68984700
:101C9000002010BD240C0020034B044A18600223CE
:101CA00091780B4393707047240C0020140000209F
:101CB00010B5044801F097FB62B6BFF36F8F0423A1
:101CC000181C02DF87500000074B70B5C31A0D00C7
:101CD00006499B10594304004022054801F08BFF40
:101CE00001002000A84770BD280C0020B76DDBB6AE
:101CF0009847000073B540230D00084C0849041BA9
:101D0000A4106143009306002B00064A064801F028
:101D1000A7FF011E01D03000A84773BD280C00208A
:101D2000B76DDBB6D53C000098470000F7B5002240
:101D3000012105001000FFF725FF114800F06AFCA3
:101D4000041E19D100F086FC0E4B2F6919003800D3
:101D5000019301F053FB002809DB01263E642D6945
:101D6000019928001C3001F049FB002802DA040028
:101D70002000FEBDEE64FBE705246442F8E7C046A0
:101D80001D1E0000B04A00000C210B0070B543433B
:101D900004000020084AD3189D6B986360420840F5
:101DA00040308018DE6B01F0A6FF002D03D032001A
:101DB00021000248A84770BD280C00209847000069
:101DC00070B5EFF3108572B60223012410490A683A
:101DD00013430B6022420FD080220E4BD205D15804
:101DE000D358234208D00C4801F085FF002D05D0C0
:101DF0000020FFF7C9FF70BD2C1E04D162B6BFF3EF
:101E00006F8F002CF4D1012002F056F9F3E7C046A1
:101E1000780C00200C040000680C002010B500288D
:101E200002D0012807D010BD044B1A6C0723100004
:101E300018401A42F7D1FFF7A7FFF4E7280C00205B
:101E400010B5EFF3108472B6084A02211368180027
:101E5000884310600120034201D102F039F9002CBF
:101E600002D162B6BFF36F8F10BDC046780C002060
:101E700010B5084802F004FC002808D0064C2000E9
:101E8000FFF70AFF2000FEF7A1FA002010BD132083
:101E90004042FBE7D04700009D1E000070B50400E3
:101EA000074D0A2804D1AB680D2128005B689847CC
:101EB000AB6828005B68E1B29847200070BDC0465F
:101EC000D0470000024B0B60012313607047C046EF
:101ED0007C0C002000487047D44A000010B502F086
:101EE000EDFA034C206002F0E5FA6060002010BDBE
:101EF0007C0C0020F8B50E001900300017001C0003
:101F000001F080FF002824D0330023439B0720D119
:101F1000002C01D10020F8BD25003019401B032DF5
:101F200007D8802101230C48C90042581A42FCD02E
:101F3000F0E73B195B1B59781A78090211439A782C
:101F4000043D12040A43D9780906114300F0F8FE53
:101F5000E3E716204042DEE700E001404368080066
:101F600010409143A1225B68D2009850014A0020A2
:101F7000995070470C050000436800205A68014BD7
:101F8000D15070470C050000436808005A68054BA3
:101F9000D35898430B40A121C9005050024900205A
:101FA00053507047040500000C05000070B543094C
:101FB00008D10C4B5968002904D0012585400C68D4
:101FC000002900D170BD8B681A002A402B4202D034
:101FD00005484B689847231E00D0236821001C0049
:101FE000EEE7C046840C0020B44700001F23F0B584
:101FF000140045680B402A7C89B052011A430092B4
:102000000322E30601D4A206D20F832002ABDA70CA
:10201000594B4000234083424AD03BD8062B49D03D
:102020002FD8002B46D004271D38022B2FD1230395
:1020300046D501238B40A1216868C9004350A86898
:10204000002844D11F2300990B40490900D08EE09D
:10205000A0210126C9059B005B18E103C90FE02000
:102060007140B140640CC00034401D580C434349DA
:1020700092000D402C4322433F023A431A50002065
:1020800006E08020012740008342D0D01738FF3877
:1020900009B0F0BD3A4883420ED0FE3083420DD0E5
:1020A0000138FF3802278342C1D016204042EFE7B3
:1020B0000727BCE71F00BAE70527B8E70327B6E7FD
:1020C0006303BCD5012368688B402E49B6E702AB99
:1020D0009A1C009902F092F8C0239B0201901C42C6
:1020E0000CD10099A86802F0BAF8019B002BC6D168
:1020F00002AB9978A86800F0D5FDC0E705AE0822CC
:10210000002103A802F0FDFA0C220021300002F0A9
:10211000F8FA03AB736032000099A86800F09AFCEB
:102120000028ACDB802321009B0219401C4211D007
:102130000123E403E40F6340737002ABDB78377074
:10214000B370320000230099A86800F041FD002818
:10215000CBDA94E7082206A802F0D3FA02AB0333E5
:10216000059332000099A86800F074FCEFE7C133D2
:10217000FF339B001B68FFDE06030000F0F8FFFF43
:10218000020200000C05000070B54568A868002830
:1021900012D002F05EF8011E0ED1A86802F03CF8E1
:1021A000041E0BD102000749A86802F024F822009F
:1021B00001210620FFF7E6FC002070BD052040420B
:1021C000FBE7C046AD1F0000F0B50400890085B0F4
:1021D00043180293029BA34202D1002005B0F0BD38
:1021E0000F21082508272068C30AC6051940F60DE7
:1021F0001D403B4251D12F4B5B5C01932E4B9E42C5
:1022000001D101267642000E032849D8FDF7A0FF30
:1022100002083134294BD650731C30D10434D9E72D
:10222000274B0021D650731CF8D0802320681B0256
:10223000184230D10D001F233340760935D1A02636
:10224000E027F6059B009B19FF00DE594005039629
:10225000019E800F3602800030430190194E039892
:102260004900304006000198304328430143D951CA
:10227000D4E7A123DB00CEE7A223DB00D1E7A12333
:102280007109DB0000290DD101310F00A020B740FA
:10229000C005C750C9E70121CDE7162040429DE7A0
:1022A0008620FBE700221A60FFDEC133FF339B006C
:1022B0001B68F9E79F510000FF0100000C050000BA
:1022C00014050000F0F8FCFF074B1A68002A07D03D
:1022D00000201860A323054ADB00D3580B70704719
:1022E00001204042FBE7C04608210040002000409A
:1022F0009023024ADB00D058D050704700200040A5
:10230000F8B50E0002F0DBF96424174D00280AD05E
:1023100001232B600EE0FA20013C8000E4B202F0C1
:102320008AF9002C06D001220021280002F0CDF904
:102330000028F0D0002301220C4F0D4C3B600D4BC8
:102340001A600D4A0D4BD6503B68002B05D1012079
:10235000013C01F07FFE002CF6D10122084B1A60EF
:1023600000232B60F8BDC046900C00201C210040CB
:102370001027000008200040002000401C0500003D
:102380000C200040F7B5A02200215E4D4368D2002A
:102390000469A9501F68060001AA380001F042FE36
:1023A000002842DB019B3A6819791868FFF70CFF97
:1023B00000283ADB63793069012B3FD1A379032BE5
:1023C0003CD1E379002B39D12179002902D00229AF
:1023D00034D10C31962223681202934200D170E06E
:1023E00042D896229201934200D16CE029D89622DD
:1023F000D200934200D168E018D89622520093424E
:1024000066D096269C22B6009202B34216D13E4B6D
:10241000EA503E4BE95006CC06C0042200206C3B3B
:10242000EA503B4B186001232B60FEBD962212013F
:10243000934250D09622520193424FD08620404280
:10244000F3E7E122D20193424AD009D8E122920176
:10245000934247D09622D2019342EFD12D4AD6E73C
:1024600080222D4E1204D0E7E122920293423CD00A
:1024700013D896225202934239D008D8274A934261
:1024800037D0E12212029342D8D1254ABFE7E12298
:1024900052029342D2D1234AB9E7E1221203934276
:1024A0002AD008D8204A934228D0E122D20293426F
:1024B000C4D11E4AABE71E4A9342BFD180225205C7
:1024C000A5E71C4AA3E71C4AA1E79E22D2029EE789
:1024D000A02252029BE79D22120398E7174A96E733
:1024E000174A94E7EC22920391E7164A8FE7164ABF
:1024F0008DE7E52212048AE7144A88E78022D20495
:1025000085E7C04600200040240500006C0500005F
:102510000821004000A04E00127A0000C0DA00003E
:1025200000F0EB0000E0D70190D0030000705F07DF
:1025300040420F0000509D000050270000B01300E3
:1025400000F0750000B0AF0300903A0100D0BE0E5D
:102550001F4A1168C9B201290FD10C201D4B4042FE
:102560001B681B061B0F1841084206D11A4B1B495A
:10257000196080211A4B090219601168C9B201293A
:102580000CD10220134B1B681B061B0F023B83431D
:1025900004D18020C123C005DB00C1501268D2B233
:1025A000012A13D10B4B0F491B681B061B0FD94087
:1025B00011420BD10C4B1A68012A04D00B4A1A6045
:1025C0001A68012AFCD1C022094B1A607047C04624
:1025D000E00F00F0E80F00F004050040DFFF07C047
:1025E000186C00409F1B000000EC06407593000033
:1025F00014EC064010B5024B00201B68984710BD34
:10260000940C002010B5024B1B68984710BDC046C3
:10261000940C002010B50C4C2379002B10D1013301
:1026200020602371002800D0084800F049F80028F5
:1026300005D12068002800D0054800F0A3F810BD9F
:1026400078204042FBE7C046940C0020F5250000AE
:102650000526000010B5064B1B68002B06D0002095
:10266000FFF782FA002801D1FFF772FA10BDC046C9
:10267000940C002070B5C222802501239200ED0544
:10268000AB500B4A8026136000220A4B0A4C1A609A
:1026900076020A4BEA58EB58324207D00120034237
:1026A00004D0013C01F0D6FC002CF2D170BDC04634
:1026B0000400004000010040102700000C0400004E
:1026C000054B02001879002803D11A6001221A7103
:1026D000704778204042FBE79C0C002080210022BC
:1026E000012010B5084B094CC9051A600860246820
:1026F000944203D0C1239B00C85010BD1968002923
:10270000FCD01A60F9E7C046000100409C0C002094
:102710008023C12210B59200DB0599580122114295
:102720000BD006490868002807D000200860C221A5
:1027300089005A50024B1B68984710BD00010040A9
:102740009C0C002070B5C223802502229B00ED0561
:10275000EA50094B013A1A6083260022074B084CC5
:102760001A60F600AB59DB0305D50120013C01F0EE
:1027700071FC002CF6D170BD0C000040040100403B
:1027800010270000084A1379002B09D1012110609D
:1027900011718021A3221800C905D2008B50704707
:1027A00078204042FBE7C046A40C0020802283230F
:1027B00070B5D205DB00D1581D4CD358C9031CD5C8
:1027C00003221340012B02D0002B13D100238021C0
:1027D000A322C905D2008B50012500221548164BB3
:1027E0001A600560206890421ED0C12302329B000F
:1027F000CA5018E0FFF7A6FFE8E7104BD358DB07F5
:10280000E4D50F4BD15802231942F3D12168002996
:1028100006D1094B1A68002AFCD000221A6002E097
:10282000C1218900535070BD19680029FCD0F5E71B
:10283000A40C002008000040040100401404000023
:102840001C040000F8B58022C123D2059B00D45897
:102850001A231F2601251C40002C00D1F8BD2000A2
:10286000FDF7C8FC2A008021301A82408300013322
:10287000FF33C9059BB25B181968D2B29443002993
:10288000EAD0002119608023C221DB0589005A505B
:10289000022A0ED11131FF315F585958890708D1EA
:1028A000A321C9005D50C12189005A50034B1D600E
:1028B000D2E7034BC0B21B689847CDE70800004041
:1028C000A40C002070B58024CBB25B00C3189A8A98
:1028D000640022421BD00E4E510A32400F250600E2
:1028E0009A8202002940143254361388234203D0BE
:1028F0005B0A2B4099420AD00232B242F5D1002243
:10290000CB00C3185A60C9B2583001F0C0FB70BD8B
:10291000FFE0FFFFF0B51F2485B004400A9E400988
:102920004BD1A025A400ED0564190194E024019D7C
:10293000E4002C5902941400651EAC410D006F1E7A
:10294000BD4164002C431D1E00D00C252C43754254
:1029500075411C4F6D423D40E027FF00ED190B9F74
:102960002C437D427D41184F6D423D40C027BF0240
:10297000ED192C43029DA5430C1E00D00C78111EAE
:1029800001D0117849001A002C43002B01D01A788D
:10299000920033002143002E01D033781B020A43FA
:1029A0000B99002901D0087800041343E022019913
:1029B0000343D2008B5005B0F0BDC134FF34A400F6
:1029C0002368FFDE00F9FFFF0000FDFFF8B50127D7
:1029D000CDB26D004519AB8A06000C003B422ED0EB
:1029E00001F0E8FBAB8A9A061FD532685B0B9B00AF
:1029F000D318A2220021D200995099503000210012
:102A0000FFF760FF0023AB821F332340600919D119
:102A1000A022E024D2059B009B18E40019590C4A1F
:102A2000114002220A431A51F8BD07222240974062
:102A30003200E3086432D15CB943D154DEE716209A
:102A40004042F1E7C133FF339B001B68FFDEC04605
:102A5000F0F8FCFFF0B5136805000C00160087B015
:102A6000002B1BD0CFB222217F00C719BA8A0A409F
:102A70008A4221D0002202A98A73CA73019200926D
:102A80000F3252180E2102A809182000FFF742FF4A
:102A90000223BA8A9A43013B1343BB827268002A1D
:102AA00034D013785168E2B25200AA189446928A40
:102AB000900704D5002955D0162040422AE042480C
:102AC00002406046828200294CD0032BF4D8726801
:102AD00029685268127890000292A2220918D20046
:102AE000002B19D18B508B500721012721408F409B
:102AF0002900E2086431885CB843885462461C218E
:102B0000928A9B008A43134362469382B368002BE8
:102B100035D1002007B0F0BD8F58039103218F43BA
:102B200003998F502968294F0818815839408150DE
:102B3000815827020391F821490139401F04394384
:102B4000039F394381506146029A2C325200AA18E1
:102B50009480029A898A5203114320220A436146D3
:102B60008A82C1E7002BBFD007200122204082408B
:102B70002800E1086430475C3A434254BEE7210034
:102B8000C0CB2800FFF79EFE002EC2D06B689E428D
:102B900006D02800583001F061FA002804DAB9E7BD
:102BA000AB689F42F5D10020C300E4B2EB1864008B
:102BB0005E609F602C19A38AC0B24002034380204C
:102BC00040001843A082A4E7DF1F0000FFE0FCFFE5
:102BD000F0B50C00050011001E0087B0002A1FD0C0
:102BE000E7B27F00C719BB8A9A0701D49A061FD49F
:102BF0001C22134202D04B78012B19D00123002054
:102C000002AAD3738B1C4A1C00910F21019002A8C9
:102C100009182000FFF77EFE0323BA8A1343BB8204
:102C2000002E39D0E3B25B00EB189A8A920703D4E6
:102C30001620404207B0F0BDA22100273278C9001B
:102C4000039290002A681218575057509A8A134FCF
:102C50003A409A827278002A1ED02D68104F2818A8
:102C6000455824023D40F8277F013C40C02712040C
:102C7000BF023A4022438024B678640345503605AB
:102C80004558264032432A434250039A998A5703B3
:102C9000202239430A439A820020CBE7DF1F00003D
:102CA000FFE0ECFF10B5024801F0F1F910BDC0469D
:102CB0009800002010B504480C0001F0CFF900285E
:102CC00001DB2070002010BD9800002030B580246A
:102CD0000123044DE4002A591A42FCD00160BFF3DD
:102CE0005F8F30BD00E00140802310B55B0519699E
:102CF0000400FDF773FA002918D10E4B0E4A023179
:102D000099500E49086801300ED009688C420BD2E8
:102D1000A221C9005C5080240121E4001859084216
:102D2000FCD00020985010BDA121F2E70D204042B8
:102D3000F9E7C04600E00140040500000010001063
:102D4000012370B5034D044C2B51FFF7BFFF002347
:102D50002B5170BD00E0014004050000072330B591
:102D60000400856885B0103D9D4300F0C0FB102233
:102D70006846064901F0BCFC10236A462900200081
:102D800000F081FB431E984105B030BD5A4B000056
:102D900070B50C00816886B01023103902AA0500B6
:102DA00000F05BFB002802DA012006B070BD1022A3
:102DB000280002A901F09BFB0323002808D1102260
:102DC0001C4902A801F0A5FC03005A1E93410133DF
:102DD0002370280001F076FB6B46DE1D0100012305
:102DE0003200280000F039FB0028DDDB0F223378A9
:102DF00031001A401B09627028000122237101F082
:102E000076FB002802D16378042B03D90123637079
:102E1000002323710723AA682800183A9A43083A26
:102E2000A11C01F078FB0028BED12800E11C01F0B4
:102E3000C7FBBAE75A4B0000F0B5374B87B0009399
:102E4000009AC3000700450002A9985801F0C0FB92
:102E5000061E02D0FF2007B0F0BD009B013504AC78
:102E6000AD002100E85801F0B3FB012807D13A007A
:102E700049212A4800F0DAFA294B267104930026EA
:102E800002AB1B78274D0093237801932878009993
:102E900001F01EFB00282FD06878019901F018FB83
:102EA000002829D0AB78042B03D002AAD2789A420A
:102EB00022D1EB78042B02D0E2789A421CD12B79F4
:102EC000042B03D002AA92789A4215D16B79042B75
:102ED0000FD1AB79023BDBB2022B18D9124B13484E
:102EE0003A00492100F0A2FAA879831E022BB2D938
:102EF000B0E7A2789A42ECD001360735042EC5D14E
:102F00000B483A00492100F091FA0120A3E7094A51
:102F10009B009B58E3E7C0461C4B0000F3500000A9
:102F200003010303A7510000E15000003D510000E0
:102F300061510000104B0000F8B501270A4E8300D4
:102F40009D59013084003359AB4200D8F8BD686800
:102F5000002806D0037E3B4201D101F078FB083502
:102F6000F1E72B689847FAE7244B000010B50124DD
:102F7000084B03201C70FFF7DFFFFEF719FD04204C
:102F8000FFF7DAFFFDF774F9034A9389A3439381AE
:102F900010BDC046B00D0020B0000020002010B5CC
:102FA000FFF7CAFF0D4B83F308880D490D4B0A6AE2
:102FB0001A40C0231B0413430B62FEF787FDFEF784
:102FC0002BFE0120FFF7B8FF0220FFF7B5FF00231B
:102FD00005481A001900FEF707FEC046B815002084
:102FE00000ED00E0FFFF00FF6D2F0000024B1868AE
:102FF000984200D1002070479C00002070B5060068
:10300000FFF7F4FF00280ED0026943693400F5177A
:10301000121BAB41002B06DC01D1002A03DBD84395
:10302000C017104070BD0148FCE7C046FFFFFF7F9E
:1030300030B500280ED00B4B5B6898420AD001686F
:10304000002907D00A694B690469456912196B4167
:103050000A614B610368426813605A600023036091
:10306000436030BD9C000020F0B5050089B0304BB6
:1030700003911D60FFF7BAFF2E4904000A684B68F0
:10308000E81704920593002C10D026696769009513
:103090000190874202DC22D1AE4220D932003B00AF
:1030A000009E019F921BBB41226163612A00049C28
:1030B000059D030012196B4100240A604B601C4BF4
:1030C00020001C60FFF79AFF2100FDF7EBF9039B3E
:1030D000A34202D162B6BFF36F8F09B0F0BDF31700
:1030E00006960793069A079B0498059980185941FC
:1030F000002200230F4D2261636128606960200077
:10310000FFF796FF802301221B0622616361039B68
:10311000002B02D162B6BFF36F8F2000A3689847DF
:10312000EFF3108372B60393014B1D68AD1BA0E74C
:10313000AC0C002020010020F0B5436889B001905C
:103140000293837816009B0700D49BE00023009332
:10315000087800284FD025280AD04B1C0393009CE8
:1031600001340199029B9847002800DB7BE083E053
:103170004D788B1C0393252DF1D037000024039A42
:10318000854903921F2C15D82B00203B102B05D806
:1031900001209840084235D1032B51D02B00303B01
:1031A000092B2FD92A2D21D1043763062AD42023B5
:1031B0001C4327E07F2CF1D96C2D34D01ED8682D0C
:1031C00038D06A2D39D04C2D37D0280063381228DA
:1031D00000D9AAE0FCF7BCFF365AA9A9A9A95AA9A7
:1031E000A9A9A9A9B3A5A9A93CA981002E2DE3D11C
:1031F00040231C42DCD0009809B0F0BD742D01D0F2
:103200007A2DE2D1039B01321D78002DB9D13E0009
:10321000039225200199029B984700282CDB009CF3
:10322000E8B202349DE780231C42C1D08020800098
:103230000443BDE780235B00F6E7A0239B00B7E7CC
:103240001024DFE73E00009C01CE0134C0B288E7C5
:103250003D68002D00D1514D009C009BEB1A185D7C
:10326000002803D13E1D0399009471E70199029B48
:10327000013498470028F0DA019B9A78042313431D
:10328000019A937001235B420093B4E723061AD599
:10329000A30515D5072307379F433E003868083636
:1032A000002803DA8023DB0040421C4305AF3900CD
:1032B0000A2201F03CFAC71B640559D43C0066E0C1
:1032C0003E0001CEECE73E0001CEE305E8D5A305C4
:1032D00001D540B2E4E700B2E2E710230A229C43A2
:1032E000230632D5A3052DD5072307379F433E007C
:1032F00038680836002801D110239C4305AF3900F7
:1033000001F015FAC71BE406D8D530200199029BBD
:1033100098470028B0DB009B002D20D1013300939B
:10332000CCE7102278251443DAE720233E002B4314
:10333000782B00D06DE710225B1B1A43D0E70822E0
:103340000025CDE73E0001CED4E73E0001CEE305E7
:10335000D0D5A30501D5C0B2CCE780B2CAE702330D
:1033600001990093E8B2029B98470028A6DA83E708
:10337000009B2D20013301990093F4E705AB013C3C
:10338000E05C0199029B9847002800DA74E7002C62
:10339000F4D1009BDC1966E78128010098510000F8
:1033A0007047002070477FB504001500002913DB2B
:1033B00083688B4210D96368C068C91801AE3200B7
:1033C00000F0E2FC002805D16268019B9B1A2B608B
:1033D000029B6B6004B070BD22204042FAE7704748
:1033E0007047002070470FB407B504A901C90191C7
:1033F000FCF7F2FF03B008BC04B0184770B5050035
:103400000C0000280ED000290CD00B68002B09D02E
:103410004B68002B06D01C22002101F072F900201D
:103420002C6170BD16204042FBE770470FB407B512
:1034300004A901C90191FCF7CFFF03B008BC04B097
:1034400018470023994205DB8068884202D9401A58
:1034500090425B41180070477047F8B516001A009B
:1034600007000C001D00FFF7ECFF002808D079686A
:10347000F8686118836832001C682B00A047F8BD0B
:1034800016204042FBE7F8B516001A0007000C00B2
:103490001D00FFF7D6FF002808D07968F86861188A
:1034A000836832005C682B00A047F8BD16204042BC
:1034B000FBE770B505000C001600FFF7C2FF0028FF
:1034C00009D06968E868611883689B68002B05D09B
:1034D0003200984770BD16204042FBE75820FBE7BA
:1034E00010B5C0688368DB689847006810BD10B5E8
:1034F000C0688368DB689847407910BD30B54D6877
:103500000368AB4201D2012030BD8A68AA189342F9
:1035100001D30020F8E70C694A69944203D30C23D5
:103520005B428B61F5E7CA685B1BE400A3500B6943
:103530004068DB00D21850600B6901330B61E2E791
:1035400037B50C00C0B201A91500FDF73FF80028FF
:103550000CDB0198002809D021002A00FDF75CF857
:1035600004000198FFF778FF20003EBD1624644256
:10357000FAE7F0B50D009FB011001F00009200F0B7
:10358000C0F9019002A8FEF7DBF9269B002B07D0BB
:10359000279B002B04DD1A00269902A800F05BFA95
:1035A000EB7AAA7A1B0213436A7A297A12020A4337
:1035B000697B9B182A7B0902EC7B1143AA7B0025BF
:1035C00012040A4324061443E418AC4206D8259892
:1035D00002A900F06AFA00201FB0F0BD249B661B10
:1035E0009E4200D91E00019B3A00591900983300F1
:1035F000FFF733FF0028EFD13200390002A800F0B6
:103600002AFAAD19E1E700280AD00368002B07D099
:103610004368002B04D0C06881428041404270471B
:103620000120FBE710B501F074F810BD10B50400DF
:10363000FFF756FF00F065F8A368984201D900F043
:10364000C9FA181A10BD70B50D00040000F03AFF59
:1036500001002A00042320001039FFF7FEFE70BD90
:10366000002373B506000D001400019300F02AFF3B
:10367000010004233000083901AAFFF7EEFE0028FC
:1036800003D1019B2B801B0C238076BD13B5040056
:10369000019100F017FF010004232000103901AA56
:1036A00000F054FF16BD73B50E000500140000F0C5
:1036B00009FF01002404280034430423083901AA27
:1036C000019400F043FF76BD10B500F0AEF910BDD7
:1036D00037B5682204000D00019201290AD1426A1F
:1036E0002834280001A9FFF72BFF002801D1019BF6
:1036F00023603EBD01200229FBD1626D5834F0E702
:103700007047D02358433830704773B50C0005001C
:103710001600FFF7E5FEA04203D92800FFF7E0FE00
:103720000400D0236343A9686A4638392800C91ABF
:10373000FFF739FE002801DB009B336076BDF0B552
:1037400087B0039383680C00170001908B423AD92D
:103750005B1A934237D3039B04AE002B22D0320076
:10376000FFF721FE051E30DB049B013C02933C1950
:10377000320021000198FFF716FE051E25DB346894
:10378000776821003A000198FFF793FE051E1CDBC5
:10379000FCF7F4FD039B002B0FD0029BA34214D235
:1037A000013CE5E70139891801983200FFF7FBFD7C
:1037B000051E0ADB049B0293DAE7029B3C19A34235
:1037C00003D30134D4E701256D42280007B0F0BDD2
:1037D00010B504000020824202D02000FFF7AFFFA6
:1037E00010BD002310B519008268FFF7F1FF10BD6E
:1037F000302310B559434118086A002801D100F060
:10380000E9F9042200F073FE10BDF8B513000E00B4
:103810001700002102000400FDF766FB051E0BD116
:1038200022003B00012120003032FDF75DFB002823
:1038300002D0002E00D005002800F8BD00207047FF
:10384000002110B504000800FCF786FD2100C0B27D
:103850002031FCF7BBFE002809D10121FCF77CFDDB
:103860002100C0B25031FCF7B1FE002801D000F0B9
:10387000B1F910BD10B50400006D002801D0FFF7AC
:10388000EBFD206A002801D0FFF7E6FD10BD10B562
:103890006C22002100F035FF10BD427903000020AA
:1038A000012A06D11A68012A03D118790138434246
:1038B00058417047F0B5056A85B0070028000E0032
:1038C000FFF7B4FE796E0400300000F0A4F824186D
:1038D0002800FFF705FE01902800FFF708FE02AF61
:1038E00001000722781C00F00CFF33793A003B708E
:1038F0002100019B2800FFF7C6FD431E984105B03B
:10390000F0BD031E04D0026D00208A4200D1986EE3
:10391000704713B50C0001AA416E2000FFF7F5FEB9
:103920000123002806DB0199A2682000521AFFF744
:103930004FFFC30F180016BDF7B505000C00006D52
:1039400069461600FFF724FA6F46021E01D000F008
:1039500041F9F179012904D0200000F04CFE002843
:10396000F5D1FB78012B04D1200000F020FE0028C7
:10397000EDD12000B168FFF789FE0028E7D12B00C8
:103980005C3320001A88A98DFFF78DFE0028DED158
:103990002000FFF7E3F90028D9D1FEBDF7B50D00EF
:1039A0000400FDF735FCE860002827D0022802D18A
:1039B000266A002E01D100F00DF921002A00300006
:1039C000FDF780FB041E1AD1300000F07BFD6B4632
:1039D000DF1D010001233A003000FFF73EFD0134F6
:1039E00000280CD122003900300000F080FD0028B2
:1039F00000D03C700F223B781340EB710024200074
:103A0000FEBD436A00205A681300994202D9013072
:103A10009B18FAE77047020003681279013B4800DF
:103A2000013A584351434018704770B50400406E46
:103A3000FFF767FE636AA26A5D68691E0918A06DD8
:103A40006A43013868436B421940521A401A904247
:103A500000D9100070BDF7B504000D00002823D078
:103A6000081E21D08B180193002A1CD08026002725
:103A7000B600A36E5A1CA2662978E3182833197081
:103A80003F2A0CD9210020002831FDF745FE0023F4
:103A9000A366226A636A92197B4122626362019B78
:103AA00001359D42E5D10120FEBDF8B506000C00B0
:103AB000002844D0081E42D0226A636A00258F6E17
:103AC0002900F80012184B41226263628023781C9F
:103AD000E7192837A0663B702700283738280AD90D
:103AE0004022121A381800F02BF820003900FDF798
:103AF00013FE2800A56638220021121A381800F09B
:103B00001FF8236A626A1BBA12BA390022662000C3
:103B10006366FDF701FE31002200203108CA180E4D
:103B20003070180C7070180AB070F37004368E4242
:103B3000F4D120007022002100F002F80120F8BD2D
:103B400010B500F0DEFD10BD10B5036A0400D868A2
:103B50008368DB689847236DD8688368DB6898477B
:103B6000012010BD10B500F0CCFD10BD10B500F067
:103B7000BFFD10BD10B5012801D1EFF3058300F0A2
:103B800092FD10BD10B501000068FFF7F3FF10BDF6
:103B900010B5FDF73FFF00F01CF810BD10B5002177
:103BA0000120FFF7E7FF10BD10B5FEF715F8FDF790
:103BB0000BFFFDF715FFFEF735F8FFF7EFF90028CB
:103BC00002D162B6BFF36F8F7047EFF3108072B609
:103BD0007047704710B5FEF76BF810B5FEF754F854
:103BE000002010BDCAB20C21514303695B18186C48
:103BF000072318407047F7B5C9B203690192EFF384
:103C0000108572B60C2426004E439E19376CC026D0
:103C10003A0032409446374202D0019A62450ED1B2
:103C200001224C431B191A6400239D420BD00C2225
:103C30004A4343689B185B6898470020FEBD002DEF
:103C400006D101235B4262B6BFF36F8F0133EED121
:103C500001204042F2E710B58022FFF7CCFF10BDF3
:103C6000F8B5944605000469C9B2EFF3108772B63F
:103C70000C2207264A43A218106C0640012E0FD1D1
:103C8000069810640020874213D00C224A436146F4
:103C9000A418A163E3636B68D35898470020F8BD6C
:103CA000C0221040069A824209D178204042002F5B
:103CB000F5D162B6BFF36F8F0028E6D0EFE70120A1
:103CC000F4E713B580240094FFF7CAFF16BD8620E1
:103CD00040427047CBB21C2110B5594300694018CF
:103CE0000021904710BD10B500F007FA10BD10B5C7
:103CF000FEF75CFD10BDEFF3108172B6C0230268C1
:103D00001A40BE3B13430360002902D162B6BFF3E1
:103D10006F8F7047F0B51C00002387B00392826854
:103D20002360A3605369029105AA04A99847059BE3
:103D30005A1E0592002B03D11620404207B0F0BD59
:103D4000A368049E01937568029B27686560002B39
:103D500012D1039B019A981A3368834200D9030059
:103D60005D43019AED199A182560A26032689A4263
:103D700008D808360496DAE7029B2900D81BFCF71E
:103D8000F1F9E9E70020D9E710B513000022FFF7A9
:103D9000C1FF10BDF0B5002483688BB0029103927F
:103DA0005B6906AA05A9984701940094069B009AAE
:103DB000934201D80BB0F0BD009B059EDB00F618C6
:103DC0007368019D0893019B3268EB1A9A4204D8EC
:103DD000009B019501330093E8E707AF3800039992
:103DE000029B0794099598470028E3D0089B01356A
:103DF000E418E8E710B50C0000F056FB2060002046
:103E0000606010BD70B505000C0000F04DFB002394
:103E10009D4204DBA84202D9401BA0425B4118002E
:103E200070BD70B50D001900280016001C00FFF7CA
:103E3000E9FF002808D0002C04D02200290030001F
:103E400000F056FC002070BD16204042FBE770B524
:103E50000C00150000F02EFB290006002000FFF7E3
:103E6000D1FF002818D031002000FCF7B7F9002955
:103E700012D131002800FCF7B1F900290CD1AE4273
:103E800008D800F017FB06002000FEF72DFFA4194C
:103E9000AD1BF9D1002070BD16204042FBE74368FE
:103EA00000205A68A223DB00D3580B607047436898
:103EB00000205A68A123DB00D150704730B5036958
:103EC0000024586800280FD1002A1BD11620404238
:103ED00030BD20609868814210D19C600EE005687A
:103EE0000400002DF0D028008842F8D10868002C8A
:103EF000EFD19C685860A14200D198600020086012
:103F0000824206D05A680A609A685960002A00D135
:103F100099600020DCE710B500F0F1F910BDF0B5B4
:103F20001F001F23456889B001912C7CA86864019B
:103F30000B4016001C43002800D16EE080239B0339
:103F40009E4204D1210000F0D6F9002057E008225B
:103F5000002103A800F0D5FB8023DB039E423CD167
:103F6000FE231B06FB185A1E9341043302AA137149
:103F700000210C2205A800F0C4FB03AB019A0693B4
:103F8000EB6802A9D3400122CF1C134239D1A023F0
:103F90005B049E4235D11F232340C133FF336109A7
:103FA0009B0000293CD1A021C9055B58134228D1B0
:103FB0003A002100A86800F021F9163019D00497C2
:103FC0002100A86805AAFEF745FD002817DB01229D
:103FD0002100A86800F047F9B7E7C0220323D20404
:103FE0009742C3D0FE231B06FB185A4253410133AC
:103FF000BCE73900A868FEF75DFE0028DFDA09B0EB
:10400000F0BD3A002100A86800F0F8F80028D7D1E8
:104010003978A868FEF746FED2E786204042EEE7F0
:104020001B68FFDE30B543681360057A4468ED0015
:104030006419A34202D30220404230BD0833DC1E83
:1040400024788C42F0D10020F7E710B5030000205F
:10405000984710BD10B500F0EEFA10BDF8B5050098
:104060001F272E68002E0FD03000FCF7C3F83C1A33
:1040700001233200A340310028009A4300F025FBC1
:104080000028EED02000F8BD0C246442FAE770B599
:1040900003680125CB4004002B420AD18D402168E2
:1040A0000A0020002A4300F010FB0028F7D000206F
:1040B00070BD16204042FBE710B5002802D0012851
:1040C00003D010BDFEF772FBFBE7FEF707FBF8E736
:1040D00010B5002804D0012801D100F00AF810BD65
:1040E00000F00BF8FBE710B5FEF712FBFEF7AAFB9A
:1040F00010BD10B5FEF7BEFA10BD10B5FEF722FBDD
:1041000010BDF8B5CBB208335B001B5A04000D009C
:104110001600DA0508D5DB041B0FDB00C3183100DD
:1041200028001F685A68B847A368002B03D03100E5
:104130002800E2689847F8BDF7B59200121803000E
:104140000192020000200700019CA2420CD1BE2275
:1041500052009A58002A06D000227D33FF331A609D
:1041600080231B061843FEBD0125D41AA408A540D0
:104170002C000D4206D0551CFF352E68002E01D0B4
:104180002F6020430432DFE7A023C130FF30DB057E
:104190008000C0588003800F70471FB50F236B4409
:1041A0001970002101930A000B000091FEF7B2FB89
:1041B00005B000BD020010B5CBB208335B00D318C8
:1041C0009B880800990612D5990710D401215B0B32
:1041D000C2209940146880002150A2210320126857
:1041E0009B00D318C9005A5882435A5010BD002171
:1041F000FFF7D3FFFAE7C16002617047C9B2083127
:10420000490040188388990603D500205B0B137082
:10421000704716204042FBE770B5060068363478D8
:104220000500002C12D140222100143000F069FA60
:10423000286803007D33FF33000B1C6040B2FDF79C
:1042400087FC012320003370AB6570BD78204042AD
:10425000FBE768300078431E9841C0B2704710B544
:10426000FEF7B4FB10BDF8B50400CBB25B00E31859
:104270000800998A26688D061AD502270D003D4050
:10428000394215D1480B87007B1CFF33F318A22657
:104290001D6001232168F600C9198D591D438D51F8
:1042A000002A04D0C1228340216892008B50F8BDBF
:1042B000C1229200B158002902DB80210906B150C9
:1042C0009B8ADB065B0F042B11D00221052B0BD040
:1042D000A2224309D200002B0BD1A023DB05995861
:1042E0000123C14019400231FFF757FFDFE70321E7
:1042F000FAE71368FFDE10B5FFF75CFF10BD03009F
:10430000F0B504CB89B00293C1239B00D35803922C
:1043100080210F22090613400190194303980B3A9C
:10432000FFF70AFF0090002824DAA022A223D2057A
:10433000DB00D3580793019B5F6E002F22D1019BB6
:104340005B6E1E000493079D002E00D06DE080215F
:10435000320003980906FFF7EFFEA022A223D20540
:10436000DB00D35807939D4200D080E0009B5B00A8
:104370005B08009301240325009B002B00D07AE00A
:1043800009B0F0BD3800FBF753FF012383409F4382
:1043900003000400019A08335B00D3189B88049340
:1043A000FFF7F2FE07AAE308D35C07222240D340BE
:1043B0000122050013421DD00228BED1049B9E0895
:1043C00007231E40F3B20593049BDB0615D5029824
:1043D0002100059AFFF795FE2000FFF7D5FE8542E4
:1043E000ABD120000021FFF7D8FE29002000FFF705
:1043F000D4FEA2E70328A0D1E0E7A91E4B42594111
:1044000020000231FFF7C9FE032E04D0022D08D18F
:10441000012E00D091E72100059A0298FFF771FE66
:104420008BE7022E00D088E7F5E73000FBF700FFAE
:1044300001278740FB4304000593BE43FFF7A4FE1A
:10444000002800D17FE70722019B083464001C1973
:10445000A3889B081340052B03D1059B1D4007959E
:1044600071E7042B00D06EE72F4307976BE7049F9B
:104470005D402F4061E70098FBF7DAFE23008340A0
:10448000009A9A43030045330092FF33039A9B003E
:104490009A582C30019B40001818120C81882A4031
:1044A0000298FFF72EFE67E780235B051A695869BB
:1044B0005043704780235B051869704780235B0574
:1044C0005869704707238068183898431038704738
:1044D00003000120042B05D0052B04D101394B1E0C
:1044E000994108007047581A43425841FAE770B59D
:1044F0000C00150000290CD0002A0AD0FEF7F7FFA7
:1045000065192378834204D10134AC42F9D10120EA
:1045100070BD0020FCE770B50C00012311002200E3
:104520000500FEF79AFF012200280DDB210028007C
:10453000FFF7DDFF0323002804D12378013B5A1E37
:104540009341013300222370100070BDF0B51D00AF
:1045500087B0060001910292FEF7C2FF6B1E1B1886
:1045600044421C40082C01D9FFF734FB3000FEF711
:10457000BEFF04AF2A0002990390380000F0B8F89B
:104580000399621B781900F0BCF823003A00300050
:104590000199FEF778FF431E984107B0F0BD130064
:1045A00007B501AA13700123FFF7D0FF0EBD072343
:1045B00010B58168012218399943FFF7F0FF10BD4B
:1045C000072310B58268183A9A43FFF7A4FF10BD7D
:1045D00037B50D00C0B201A9FBF7F8FF0124002890
:1045E00007D129000198FEF7D3FB04000198FEF7DC
:1045F00033FF20003EBD37B504000E2A01D9FFF776
:10460000E9FA0E29FBD86B4612011143DD1DD97161
:10461000FFF758FF2A00010001232000FFF796FF53
:104620003EBD072310B58168012218399943083926
:10463000FFF7B5FF10BD70B5041E07D0FBF7B0FF44
:104640000500FBF7ADFF401BA042FAD370BD10B5CB
:1046500043690400002B07D100230122E168487858
:1046600002434A70584210BD98470028F4D0C11741
:104670004318E2684B40FF2B00DDFF231370ECE78B
:10468000002808D0C36800205A78D20703D51878CC
:1046900043425841C0B27047EFF3108372B6FEE751
:1046A00010B5FFF7F9FF10B5EFF3108472B6FFF7FE
:1046B000F7FF002C02D162B6BFF36F8F10BDEFF38E
:1046C0000580431E9841C0B27047030070B5EFF3F8
:1046D000108572B60668012400208E4201D12000A8
:1046E0001A60002D02D162B6BFF36F8F204070BDFB
:1046F000002310B59A4200D110BDCC5CC4540133E4
:10470000F8E703008218934200D170471970013313
:10471000F9E730B500240139A24201D1002005E0BB
:10472000035D01340D5DAB42F6D0581B30BDF8B5CA
:10473000372614001F2307000D00B61AF6B21C40DE
:1047400038002100FBF74AFD3A00CBB207000929E7
:1047500001D9F318DBB23033681C2B70944200D9B6
:10476000F8BD0500ECE700000000000098470000DD
:1047700000000000B447000000000000D047000027
:10478000711E000000000000450400000000000051
:1047900000000000EC47000090500000BC4A000000
:1047A00014490000A4000020280C00202D1D00004A
:1047B00000000000C5500000DC4A0000F048000086
:1047C000A8000020840C00208921000000000000C7
:1047D000D3500000F04A000030490000AA00002039
:1047E000900000208523000000000000AB50000076
:1047F00000000000D8480000A600002000000000D3
:10480000DD1E000000000000E74000004B400000FB
:10481000000000009D3B0000000000009D3B0000E8
:10482000000000009D3B0000000000009D3B0000D8
:10483000000000009D3B000024000020173F000006
:10484000000000009D3B0000000000000504000087
:10485000000000009D3B0000000000009D3B0000A8
:10486000000000009D3B0000000000009D3B000098
:10487000000000009D3B0000000000009D3B000088
:10488000000000009D3B0000000000009D3B000078
:10489000000000009D3B0000000000009D3B000068
:1048A000000000009D3B0000000000009D3B000058
:1048B000000000009D3B0000000000009D3B000048
:1048C000000000009D3B0000000000009D3B000038
:1048D000000000009D3B0000233E0000F51E00008C
:1048E0004F3E0000D51E0000F53D0000C51E000033
:1048F000ED1F00009F3E00005D1F0000AF3E000066
:10490000791F0000891F00001F3F0000BD3E00000E
:1049100000000000CF3C0000573C0000C33C0000FA
:1049200000000000E53B0000000000000000000067
:10493000C922000001230000F1220000334C0000D6
:10494000030000000100000002000000050000005C
:10495000000000000000000000800000EC470000A4
:10496000010000000080000000A00100EC470000F2
:10497000020000000020020000A00100EC4700003F
:104980000300000000C0030000200000EC4700000E
:104990000400000000E0030000200000EC470000DD
:1049A0000100000002000000010000000200000001
:1049B000982F8A4291443771CFFBC0B5A5DBB5E98A
:1049C0005BC25639F111F159A4823F92D55E1CABFE
:1049D00098AA07D8015B8312BE853124C37D0C558C
:1049E000745DBE72FEB1DE80A706DC9B74F19BC1D4
:1049F000C1699BE48647BEEFC69DC10FCCA10C24C4
:104A00006F2CE92DAA84744ADCA9B05CDA88F976A7
:104A100052513E986DC631A8C82703B0C77F59BF11
:104A2000F30BE0C64791A7D55163CA06672929143D
:104A3000850AB72738211B2EFC6D2C4D130D3853DA
:104A400054730A65BB0A6A762EC9C281852C72929C
:104A5000A1E8BFA24B661AA8708B4BC2A3516CC7CA
:104A600019E892D1240699D685350EF470A06A1003
:104A700016C1A419086C371E4C774827B5BCB03452
:104A8000B30C1C394AAAD84E4FCA9C5BF36F2E68F0
:104A9000EE828F746F63A5781478C8840802C78C7F
:104AA000FAFFBE90EB6C50A4F7A3F9BEF27871C682
:104AB000F51C0000C91C000000000000C11D000022
:104AC000411E00009F500000EF3C0000E73C00004A
:104AD000A55000000400000000FF0000FFFFFFFFE2
:104AE0000000005024000020000000000000000032
:104AF000F44A000000200040004B000001000000CC
:104B0000084B00000200000018000000190000011E
:104B1000875100008C5100009151000001000000FD
:104B20000200000068470000684700008847000056
:104B300090470000984700009847000001000200DD
:104B40001000110012002000210022002300240088
:104B50003000310032003300FFFF77C295F360D29E
:104B6000EF7F3552500F2CB6798025633A2053746D
:104B7000617274696E6720626F6F746C6F616465D7
:104B8000720A0025633A20556E61626C6520746F6D
:104B90002066696E6420626F6F7461626C65206963
:104BA0006D6167650A0025633A20426F6F746C6F10
:104BB0006164657220636861696E6C6F6164206115
:104BC000646472657373206F66667365743A20302F
:104BD0007825780A0025633A20496D61676520765B
:104BE000657273696F6E3A207625642E25642E25D2
:104BF000640A0025633A204A756D70696E672074F7
:104C00006F2074686520666972737420696D6167CE
:104C10006520736C6F740A0025633A204E657665D3
:104C2000722073686F756C642067657420686572A4
:104C3000650A006D6375626F6F740025633A2069C1
:104C40006E76616C696420666C61736820494420EB
:104C500025643B2065787065637465642025640A6B
:104C60000025633A204661696C656420746F207288
:104C7000656164207374617475732066726F6D2052
:104C800025642C206572722025640A0A00707269FE
:104C90006D617279007365636F6E6461727900256E
:104CA000633A205365636F6E646172792068656151
:104CB000646572206D6167696320646574656374FF
:104CC000656420696E20666972737420736563740D
:104CD0006F722C2077726F6E672075706C6F6164D5
:104CE00020616464726573733F0A0025633A20494A
:104CF0006D61676520696E20746865202573207377
:104D00006C6F74206973206E6F742076616C6964B7
:104D1000210A0025633A2025642073746174757339
:104D2000207772697465206661696C7320706572A2
:104D3000666F726D696E6720746865207377617045
:104D40000A0025633A204661696C656420746F200F
:104D50006F70656E20666C61736820617265617347
:104D60002C2063616E6E6F7420636F6E74696E7554
:104D7000650A0025633A204661696C6564207265A6
:104D80006164696E6720736563746F72733B204260
:104D90004F4F545F4D41585F494D475F5345435412
:104DA0004F52533D2564202D20746F6F20736D6129
:104DB0006C6C3F0A0025633A204661696C6564208B
:104DC00072656164696E6720696D616765206865F9
:104DD00061646572733B20496D6167653D25750AA5
:104DE0000025633A204661696C65642072656164E0
:104DF000696E6720626F6F74207374617475733BA2
:104E000020496D6167653D25750A0025633A20706C
:104E1000616E6963210A0025633A20446574656305
:104E200074656420696E636F6E73697374656E7404
:104E300020737461747573210A0025633A204361FD
:104E40006E6E6F7420757067726164653A206E6F64
:104E500074206120636F6D70617469626C6520619C
:104E60006D6F756E74206F6620736563746F7273F7
:104E70000A0025633A2043616E6E6F742075706777
:104E8000726164653A206D6F726520736563746F3B
:104E90007273207468616E20616C6C6F7765640A50
:104EA0000025633A2043616E6E6F742075706772DF
:104EB0006164653A206E6F742073616D652073655F
:104EC00063746F72206C61796F75740A0025633AA0
:104ED0002043616E6E6F7420757067726164653A0D
:104EE00020736C6F742077726974652073697A65BA
:104EF0007320617265206E6F7420636F6D706174D2
:104F000069626C650A0062616400676F6F640075B6
:104F10006E736574005072696D61727920696D619C
:104F200067650025633A2025733A206D61676963E0
:104F30003D25732C20737761705F747970653D3007
:104F40007825782C20636F70795F646F6E653D30D3
:104F50007825782C20696D6167655F6F6B3D3078CF
:104F600025780A005365636F6E6461727920696DFC
:104F70006167650025633A20426F6F7420736F7517
:104F80007263653A207072696D61727920736C6F1B
:104F9000740A0025633A20426F6F7420736F757234
:104FA00063653A206E6F6E650A0025633A2053747C
:104FB000617274696E672073776170207573696EB2
:104FC00067206F666673657420616C676F726974C1
:104FD000686D2E0A0025633A204E6F7420656E6F4F
:104FE00075676820667265652073706163652074FB
:104FF0006F2072756E2073776170207570677261B3
:1050000064650A0025633A2072657175697265648A
:1050100020256420627974657320627574206F6E38
:105020006C792025642061726520617661696C610C
:10503000626C650A002A2A2A20426F6F74696E67C3
:10504000204D4355626F6F74206565333965326456
:105050003639346264202A2A2A0A002A2A2A20554C
:1050600073696E67205A6570687972204F532062A9
:1050700075696C6420363834633965386633326557
:1050800034202A2A2A0A0061626F727428290A00D1
:10509000636C6F636B4034303030303030300068D8
:1050A00066636C6B006C66636C6B00666C61736846
:1050B0002D636F6E74726F6C6C657240343030317A
:1050C00065303030006770696F40353030303030D7
:1050D00030300075617274403430303032303030EE
:1050E000004255473B2063616E27742068617070F1
:1050F000656E0025633A205365636F6E6461727953
:1051000020696D616765206F6620696D6167652044
:1051100070616972202825642920697320756E7278
:105120006561636861626C652E20547265617420EC
:10513000697420617320656D7074790A0025633A83
:1051400020496D61676520696E6465783A20256441
:105150002C205377617020747970653A2025730A8A
:105160000025633A20496D61676520696E64657842
:105170003A2025642C205377617020747970653A49
:10518000206E6F6E650A0074657374007065726DD1
:105190000072657665727400286E756C6C2900006B
:1051A00001020304050607040104030401040401C9
:1051B00004030404020401040104040301040304BD
:1051C00001040400E3330000504900000100000026
:1051D000FFFFFFFF00000000DB3B000000000000BD
:1051E000000000000060004000000000000000001F
:1051F00000000000000000000000000000000000AF
:10520000000000000000000000000000000000009E
:10521000000000000000000000000000000000008E
:10522000000000000000000000000000000000007E
:10523000000000000000000000000000000000006E
:10524000000000000000000000000000000000005E
:1052500000C20100000103000F0000009C000020BC
:105260009C000020000000000000000015E015E098
:108000003DB8F3960000000000020000F4BF00003D
:108010000000000000000000000000000000000060
:108020000000000000000000000000000000000050
:108030000000000000000000000000000000000040
:108040000000000000000000000000000000000030
:108050000000000000000000000000000000000020
:108060000000000000000000000000000000000010
:108070000000000000000000000000000000000000
:1080800000000000000000000000000000000000F0
:1080900000000000000000000000000000000000E0
:1080A00000000000000000000000000000000000D0
:1080B00000000000000000000000000000000000C0
:1080C00000000000000000000000000000000000B0
:1080D00000000000000000000000000000000000A0
:1080E0000000000000000000000000000000000090
:1080F0000000000000000000000000000000000080
:10810000000000000000000000000000000000006F
:10811000000000000000000000000000000000005F
:10812000000000000000000000000000000000004F
:10813000000000000000000000000000000000003F
:10814000000000000000000000000000000000002F
:10815000000000000000000000000000000000001F
:10816000000000000000000000000000000000000F
:1081700000000000000000000000000000000000FF
:1081800000000000000000000000000000000000EF
:1081900000000000000000000000000000000000DF
:1081A00000000000000000000000000000000000CF
:1081B00000000000000000000000000000000000BF
:1081C00000000000000000000000000000000000AF
:1081D000000000000000000000000000000000009F
:1081E000000000000000000000000000000000008F
:1081F000000000000000000000000000000000007F
:10820000602A002011A40000DF0A0100FDA3000085
:10821000000000000000000000000000000000005E
:1082200000000000000000000000000079A4000031
:10823000000000000000000001A600000000000097
:10824000A1A60000A1A60000A1A60000A1A6000012
:10825000A1A60000A1A60000A1A60000A1A6000002
:10826000A1A60000A1A60000A1A60000A1A60000F2
:10827000A1A60000A1A60000A1A60000A1A60000E2
:10828000A1A60000A1A60000A1A60000A1A60000D2
:10829000A1A60000A1A60000A1A60000A1A60000C2
:1082A000A1A60000A1A6000002B471464908490039
:1082B000095649008E4402BC7047C04602B471465C
:1082C00049084900095C49008E4402BC7047C04619
:1082D000002934D00123002210B488422CD3012479
:1082E0002407A14204D2814202D209011B01F8E70E
:1082F000E400A14204D2814202D249005B00F8E7C7
:10830000884201D3401A1A434C08A04202D3001BF2
:108310005C0822438C08A04202D3001B9C08224325
:10832000CC08A04202D3001BDC082243002803D063
:108330001B0901D00909E3E7100010BC704701B523
:10834000002000F05FF802BD0029F8D003B5FFF768
:10835000C1FF0EBC4243891A1847C046002941D0CC
:1083600010B404004C40A44601230022002900D58B
:108370004942002800D5404288422CD301242407DA
:10838000A14204D2814202D209011B01F8E7E400B4
:10839000A14204D2814202D249005B00F8E7884240
:1083A00001D3401A1A434C08A04202D3001B5C08B8
:1083B00022438C08A04202D3001B9C082243CC0815
:1083C000A04202D3001BDC082243002803D01B0973
:1083D00001D00909E3E710006446002C00D54042B3
:1083E00010BC704701B5002000F00CF802BDC0467B
:1083F0000029F7D003B5FFF7B3FF0EBC4243891A3B
:108400001847C0467047C0461C2101231B049842F0
:1084100001D3000C10391B0A984201D3000A083915
:108420001B09984201D30009043902A2105C4018CC
:108430007047C04604030202010101010000000070
:1084400000000000414208401C2101231B04984207
:1084500001D3000C10391B0A984201D3000A0839D5
:108460001B09984201D30009043902A2105C401A8A
:108470007047C0461B1C1D1D1E1E1E1E1F1F1F1FDA
:108480001F1F1F1F02780B78002A03D00130013113
:108490009A42F7D0D01A704703000A7801311A7057
:1084A0000133002AF9D170470023C25C0133002A4E
:1084B000FBD1581E7047F7B5040C0D0091B20F00A8
:1084C00061438C460600019383B2100C5F43444322
:1084D00058433B0C60441B18994202D98021490241
:1084E0006418019955437143180C04191B04BFB259
:1084F0004919D819091903B0F0BD000073B5012559
:108500000F4A104C104B019204212A0020000095C4
:1085100008F0B4F90D4E031E04DA0D4A29003000AC
:1085200008F081F8032130000A4A08F075F8642049
:10853000002106F071FDA3690133A361F7E7C0468E
:10854000A8300100E0090020B53E0100042E010022
:10855000B6300100DB300100F7B500AF79600029CB
:1085600000D173E005680C1F641BE408E300EB18FE
:10857000598801223B600B001340114215D16E4611
:1085800088B06A46324905917968069103210491C1
:10859000C22130481032490101F042F9B54662B6B5
:1085A000BFF36F8F0423181C02DF2100280007F09F
:1085B000ACFB2018C3005B5BC01A844216D06E4629
:1085C00088B06A46244B05937B6806930323049383
:1085D000C22100231F481032490101F021F9B5469C
:1085E00062B6BFF36F8F0423181C02DF01223B68C1
:1085F00039685B88280093434B80210007F085FB96
:1086000001222618F300EB185B88134208D13100D1
:10861000280007F0C1FB32002100280007F00AFC07
:108620003B681E88A61BF300EB185B88DB0709D4A8
:108630003100280007F0B0FB22003100280007F0CD
:10864000F9FB34002100280007F064FBBD46F7BDAC
:108650005A310100FC2D010031310100F0B597B015
:10866000049304230A921A400A9B0B92DA08072308
:108670001A40013207001C9E02910D92820700D021
:10868000BEE1041D002851D10A001A401300141D38
:108690000822D31A0293049B0425013B069300236E
:1086A00007930C9305930193013B08930395002FC7
:1086B00001D0049B23600D9B002B00DDEDE09C4B63
:1086C000049A9A4203D39B4B9A4200D2E5E00222DD
:1086D0000A990A98E31B1140104200D0EAE00A0010
:1086E00005990F2900D9E3E0002F00D1E8E09B08AD
:1086F000DBB29C46080061460EAB1954059B0899F5
:1087000012A8C154002A00D1D6E08022634652420A
:108710001343059A0EA98B54079B01330793059BBE
:1087200001330593069B0434013B09E0029B072BB0
:10873000B1D81C204042F8E008250395069B013380
:108740000693069B9878002800D1E4E0019B002B5B
:1087500008D12528F2D1089B013308930123019306
:108760000425EAE77A284FD84B2813D847284BD856
:10877000292831D8252844D0002301932528DDD885
:1087800003002038233B5A425341424250410343A5
:108790000193D3E74C382E2836D8FFF785FDCF3527
:1087A0003535353535353535353537353535353577
:1087B00035353562353737626262CF37CD35CF35E3
:1087C00018371835357AE13735353735E10000236C
:1087D00009930425019327E001210B002A38C0B238
:1087E0008340554A1342A9D1E22218009205104055
:1087F000134236D11A000A4001920B429ED00990D2
:1088000013E0089B013B08930023C1E70022069B6D
:1088100009925B7801926C2B07D10425069B039586
:108820001B786C2B01D16D190395013C601929004F
:10883000FFF74EFD68430400002F06D0039B029A09
:10884000DB1B1B18934200D973E7099B002B49D00F
:10885000069B023306930D9B013B0D9308CE0493B8
:1088600025E7072107368E4364188C430CCE002F72
