:10000000A04F0020011E0000C1190000ED1D0000DE
:10001000ED1D0000ED1D0000ED1D000000000000C2
:100020000000000000000000000000007D1E000035
:10003000ED1D000000000000D11F0000C1270000DE
:100040003D2000003D2000003D2000003D2000003C
:100050003D2000003D2000003D2000003D2000002C
:100060003D2000003D2000003D2000003D2000001C
:100070003D2000003D2000003D2000003D2000000C
:100080003D2000003D2000003D2000003D200000FC
:100090003D2000003D2000003D2000003D200000EC
:1000A0003D2000003D2000003D2000003D200000DC
:1000B0003D2000003D2000003D2000003D200000CC
:1000C00010F8012B11F8013B012A28BF9A42F7D002
:1000D000D01A7047034613F8012B002AFBD1181AD7
:1000E00001387047492108B5094803F0F7FD01F0D0
:1000F00063F8024620B14421064803F0EFFDFEE715
:10010000054801F07DFB4421044803F0E7FDFEE7CC
:100110004A5B00006E5B0000105800009C5B000012
:1001200030B587B003F0C8FD03F0C7FD49211E4874
:1001300003F0D4FD03F0B9FD03A800F0DBFD044695
:100140001A4D44212A68131A5A425A41184803F09A
:10015000C5FD03F080FD28B14421164803F0BEFD23
:10016000FFF7C0FF2B68A34202D045211248F5E7F4
:10017000039B49215A68114803F0B0FD03991048C8
:100180004B7D0A7DC98A0091492103F0A7FD4921D1
:100190000C4803F0A3FD03A800F02AF845210A4803
:1001A00003F09CFDFEE700BFD75B00008C0200203F
:1001B000F05B0000155C0000355C0000585C00003E
:1001C000875C0000A55C0000CA5C000021B1012929
:1001D00006D06FF015007047044B53F8300070479D
:1001E000024B03EBC0035868704700BF185800006B
:1001F00010B502680D4C536812891344236004F053
:10020000D7FB01F053FB01F027FE23681B6883F343
:100210000888002383F31488BFF36F8FBFF36F8FB9
:100220002368BDE810405B68184700BF80020020CB
:1002300008B5024803F044FD002008BDF55C00004D
:10024000014B1B68184700BF00000020014B1860DD
:10025000704700BF0000002030B5044685B00D4651
:1002600010220021684605F084F802238DF8023040
:10027000044B2A4621466846019303F0B3FB05B0C0
:1002800030BD00BF41020000044608B5EFF3118302
:10029000202383F31288BFF36F8F04F089FB20467D
:1002A00001F0C8FD024803F00BFD03F053FFFCE72B
:1002B000325D0000014B03600020704720580000B1
:1002C000F8B506460C4600230A4F3D6825B95BB9D0
:1002D0003C6000202660F8BD31462868FFF7F0FE3C
:1002E00020B12B466D69F1E75C61F2E76FF07700B2
:1002F000F1E700BF8402002070B5104B0D461C686A
:10030000B4B10F4B196800238B4202DB6FF0010080
:1003100070BD224612F8106B864202D0144601339B
:10032000F2E7E06804F009FF28B100202C60EFE755
:100330006FF00C00ECE76FF01200E9E7040000201A
:100340002058000080B505460E461746984603F033
:1003500017F9034601F084FE0446DFF81890424680
:1003600049F8003039463046A84754F8090001F0F2
:1003700019FE00BF080000002DE9F347174642F2BE
:100380001602424DADF800202A888046ADF80220C2
:1003900000220C461E4601921BB9032002B0BDE8A4
:1003A000F087DFF8EC9099F8003053B9394803F042
:1003B00098FF384803F020FF374B1860012389F875
:1003C00000304FF00409B5F800A0CA4524D8C4F3A2
:1003D0000B0444EA0830BCB2B5F80080ADF8040064
:1003E000201D80B24044B0F5803FADF80640D4DA1D
:1003F000294B80B21B68834246DB042341460DEB48
:100400000302244803F048FF0246D8B1452123489F
:1004100003F064FC0420C1E7042349461D480DEBAA
:10042000030203F0FFFE58BBBDF80430B8EB133FE6
:1004300003D1C3F30B03A34224D0BDF80630043329
:100440009944C2E708F104013B463246114803F0E3
:1004500023FF014618B1024645211148D8E72B88F1
:100460006A4604331C44A4B204230A482C80ADF825
:10047000024003F011FF003818BF012080008DE713
:1004800005208BE7022089E7012087E7A8000020EC
:10049000EE100020D8550000880200206C5D00009E
:1004A000995D00002DE9F04F9B4682460E4691462D
:1004B000484F9DB044214848299D3C6803F00EFCFC
:1004C000289B0DF150080393279B4A460293269BD5
:1004D0003146009350465B46CDF8048000F08CF81E
:1004E00078BB5DB1C4462B46624603CA59601CA95D
:1004F0008A421860944603F10803F5D100234A4666
:10050000009331464FF6FF7306A800F09BF80546AE
:1005100028B144210246314803F0E0FB11E0DDF848
:100520002CB044215B460A9A2D4803F0D7FB49467C
:10053000504603F064FC58452AD24421294803F070
:10054000CDFB3C6842E0934237D1102A20D14421B0
:10055000254803F0C3FBBDF81030202BF1D1059ADC
:100560007368134403F120050CAA144618685968EF
:10057000083303C4AB422246F7D1202240460CA9DF
:1005800003F03BFC0446194B01251B689842D8D167
:100590000DF1120304AA05A906A800F09FF800288F
:1005A000CFDB11D1059906A803F019FCBDF8122084
:1005B0000028CAD14FF6FF700D4931F8023B834243
:1005C000C1D144210B48A7E7012DBAD120461DB067
:1005D000BDE8F08F0C000020D45D0000FE5D00003F
:1005E000325E0000615E0000C45E00008C020020EC
:1005F0002C5B0000935E000070B511489CB00C4667
:10060000DDE92256442103F069FB684600F0F0FC66
:1006100035B1002E04DD32462946684603F08FFCD2
:100620006289238961681344E26868461A4403F0CA
:1006300086FC6946219803F0A8FC00201CB070BD20
:10064000F85E00002DE9F3411E4604469DF8208027
:100650000D4617464346324644211F4803F03EFBF1
:1006600024B94FF0FF3002B0BDE8F081002DF8D082
:10067000002FF6D046F6081CEB68298919446B68F0
:100680005A5858181FFA82FE0192E6456B891FD10D
:10069000B3EB124F4FEA124CE3D15CF800300193F8
:1006A00046F60713BDF804209A42DAD1C4E9005790
:1006B000268184F80A806B89BDF806200B44E3602C
:1006C0006B89002013440B44043163612161CAE744
:1006D000002BE5D0C5E700BF0F5F00002DE9F74311
:1006E0000D4616461F46044600283BD00368002BE3
:1006F00038D04368002B35D04FF6FF78436944214A
:1007000001930369009302894FF6FF732E4803F0AB
:10071000E5FAD4F814E02269724503D34421228912
:100720002A4807E0A07A48B1E368934206D84421FA
:100730002289274803F0D2FA012015E021684B896D
:100740002BB1E368934202D104322261E3E770B136
:10075000E3689A4202D8981A03280AD844211D480F
:1007600003F0BCFA4FF0FF3003B0BDE8F0837346EE
:10077000EFE7496804388958B0EB114FC1F30F49CE
:100780004FEA114C02D244211348E9E720898BB289
:10079000404501D0984214D107B13B8023690F48EE
:1007A00004332B60A6F8009023698AB204336344B3
:1007B00023613388442100932B6803F08FFA0020D3
:1007C000D2E704326244C0E7415F00009860000055
:1007D000975F0000CF5F0000156000005E600000C2
:1007E0002DE9F04306460C4685B0CDE9002391463D
:1007F0001F4602460B462348442103F06FFAB368B4
:10080000A34239D91B1B4B4536D344211E4803F064
:1008100065FA0FB32146304602AA03F02BFA051EF3
:100820002CDB013CDDF808804C442146304602AA0E
:1008300003F020FA051E21DBDDE9024930464A4675
:10084000214603F0A9FA051E18DB03F036FA77B14A
:10085000444513D9013CE8E7611E304602AA4944E9
:1008600003F008FA051E09DBDDF80880DDE74C44DB
:10087000A04503D30134D8E74FF0FF35284605B033
:10088000BDE8F083C660000013610000F7B51446B0
:10089000CDE9002305460E461F4602460B46084892
:1008A000442103F01BFA44B13B4622463146284618
:1008B00003B0BDE8F040FFF793BF204603B0F0BDA2
:1008C0003D6100002C2310B559434218146A0CB93D
:1008D00003F05DFC41580D4B994206D1D168138954
:1008E0005B1802D25189C91801D300200CE0A3681B
:1008F0009942FAD2106920F4F97020F00100000545
:10090000000DB0FA80F0400910BD00BF3DB8F3966D
:100910001FB52C2303FB02010A6A0AB903F037FC56
:100920000023CDE9023301934FF480730093034B0E
:10093000FFF7B8FD05B05DF804FB00BFEF10002025
:1009400030B505460C464B8885B003934B7802932F
:100950000B784421019343880093437802780D4833
:1009600003F0BCF92A7823789A4210D80CD36A781D
:1009700063789A420BD807D36A8863889A4206D86C
:1009800060EB000005B030BD4FF0FF30FAE701200A
:10099000F8E700BF646100002C2370B503FB01047D
:1009A0000D46266A00F06AF82A460346314620467C
:1009B00000F00AF8044618B14521024803F08EF908
:1009C000204670BD9A610000F0B51D460623002444
:1009D000012787B08DF80720244A254E51681068FA
:1009E0008DF80D3004AB03C331788DF80E408DF8CF
:1009F0000F70A1BB3A4602200DF10D03FFF7BCFCBE
:100A0000044660BB3A46394602200DF10E03FFF75B
:100A1000B3FC044618BB02213A4608460DF10F0309
:100A2000FFF7AAFC0446D0B93A46032102200DF193
:100A30000703FFF7A1FC044688B90822042102201D
:100A400004ABFFF799FC044648B92B7853B1042254
:100A5000052102202B1DFFF78FFC18B1044620460C
:100A600007B0F0BD01233370F9E700BF085800005C
:100A7000EF1100200048704798020020004870479E
:100A8000900200202DE9F84305464FF000083D4E46
:100A90002B6E013373D195F8643095F86520013BD6
:100AA000DAB1013323D005F1140105F14000FFF75D
:100AB00047FF431E5C425C4128462C6600F02CF93F
:100AC0000346C0B12146284600F08EF94FF0FF33AF
:100AD0002C4484F864802B66DAE7013309D149217C
:100AE000294803F0FBF8294B1868BDE8F883012476
:100AF000E2E71446E0E74FF02C0909FB04592246CF
:100B00004421234803F0EAF8D9F820700FB903F024
:100B10003EFB2146284603F0C0F920B9D9F8101051
:100B200011F0100908D01B4B18683368834226D097
:100B3000284600F045F9C9E721462846FFF7C2FEDE
:100B4000B8B915482246442103F0C8F80F4B18687D
:100B500033688342E9D0114B114A4521002C18BF5C
:100B60001A46104803F0BAF82146384603F090F9C7
:100B7000D9E7224649462846FFF7CAFEE8E7014B77
:100B8000B2E700BF8C020020DB6100000C000020F7
:100B9000FD6100000800002035620000D161000006
:100BA000C96100006A6200002DE9F043DFF81C9182
:100BB00085B004460F46D9F8006003F093F9024669
:100BC00028B1D9F80060304605B0BDE8F083014691
:100BD000204603F06FF9054648B157213C4803F021
:100BE0007DF8204603F096F9002DEAD1EBE70146A7
:100BF0002046FFF767FE70BB2A464921354B364831
:100C000084F8645003F06AF801212046FFF75AFE89
:100C1000024600282FD0012384F86530636C4921F7
:100C20000293B4F842302D4A019394F841302C4895
:100C3000009394F8403003F051F84FF0FF332366EF
:100C40002046FFF71FFF0646264B1B6883421AD03B
:100C5000D9F80060C5E7012384F86430A36949210D
:100C60000293E38A204A0193637D1D480093237D0C
:100C700003F034F8C8E784F8650049211B4B164897
:100C800003F02CF8D9E7204694F86010FFF784FEB3
:100C900005460028DCD1226E14490E4B002A18BFED
:100CA0000B4602464921124803F018F82C22236E05
:100CB00002FB0348D8F8200002F0DAFF3871D8F8B8
:100CC00020305B68C7F80080BB608AE70C0000201A
:100CD00092620000C9610000B56200000863000074
:100CE000E46200008C020020DC620000D1610000A0
:100CF0001263000010B50446064803F00CF90548DD
:100D00002146FFF751FF0446024803F0C0F8204691
:100D100010BD00BF98020020F7B52C25016E0646D5
:100D200005FB01052B699B063BD501AA6F6803F003
:100D300069F80446A8B91C4A019B9742B766F36656
:100D400008D9D91906D2194A914203D8286A58B944
:100D500003F01DFA3B4600224921154802F0BEFF70
:100D60000324204603B0F0BD21463A4602F0EAFFD4
:100D7000044678B10346002249210E4802F0AEFF36
:100D80003B46002249210C4802F0A8FF0023C6E997
:100D90001A33E6E702463B464921084802F09EFF27
:100DA000DFE70324F2E700BFFFFF232000F03F202E
:100DB0003863000068630000A2630000CF63000096
:100DC00010B50446836E00224921064802F086FFD2
:100DD0000021E26EA06E04F0CCFA0020C4E91A00F3
:100DE00010BD00BFFF63000038B500220B4605466A
:100DF0000C460848492102F071FF2C2303FB0455DF
:100E0000286A08B903F0C3F92146BDE8384003F069
:100E10003FB800BF306400002DE9F04F00260368A2
:100E20009DB002934368DFF8C0E1039383688A466C
:100E3000DDE902150493C36805930369DDE904B78E
:100E40000693436907938369DDE9062C0893C36918
:100E500098460993089B00935AF806400CAB24BAB5
:100E60005EF8049B9C514FEAF223A14483EAB2133B
:100E7000009C83EA72634B4424EA020402EA0C09F0
:100E800084EA09042344434485EA0B044FEA713899
:100E900088EAB1080C4005EA0B0984EA090488EAEB
:100EA000B1580436A044402E03EB070443445F4688
:100EB000DDF8008040F088804FF0100A4B4E0A9613
:100EC00056460AF1010A0DF1700E0AF00F070EEBFB
:100ED000870757F8407C06F00F094FEAB74801979B
:100EE00088EAF71806F10E0707F00F070EEB8707E1
:100EF00057F8407C09364FEAF74E8EEA774ECDF828
:100F00002CE006F00F060DF1700E0EEB86060EEBD0
:100F1000890959F840EC56F8406CBAF1400F764414
:100F2000DDF804E088EADE08DDF82CE046448EEACD
:100F3000972E764404EA02084FEAF42E2CEA0407BE
:100F400087EA08078EEAB41EDDF828808EEA746E00
:100F5000774458F804EF49F8406C77443744009ED2
:100F60004FEA733E3E4481EA0507CDF828808EEAB9
:100F7000B30E07EA030701EA05088EEAB35E87EAC3
:100F800008077744374406EB0B0ECDF800C0AB469C
:100F900022D1029E3E440660039E1E44049B46608E
:100FA0000B448360059B2B44C360069B7344036121
:100FB000079B23444361089B13448361099B63445B
:100FC000C3611DB0BDE8F08FAB46CDF800C00D4643
:100FD0009446194622463FE794460D462246194656
:100FE00074463B466CE700BF64580000A058000000
:100FF00010B50446C8B17022002103F01AF80B4B5B
:101000000B4A0C49C4E900230B4B0C48C4E90213FA
:101010000B4BC4E9040301200A4BA36103F1745391
:10102000A3F52303A3F69243E36110BD85AE67BB2E
:1010300067E6096A72F36E3C3AF54FA57F520E518E
:101040008C68059BABD9831FF7B5274E3068836842
:101050005B6C03B19847306883685B6B002B2AD1C7
:10106000224C234D234F306883689B69002B2CD082
:101070000DF10701012298470128216825D141B9C6
:101080002968E9B16A680B6891422B6000D16B60F6
:1010900021603A889DF80700531C9BB20A447F2BBD
:1010A0003B801072DFD94B60134802F0C4FF00236D
:1010B0003B802360D6E798470028D1D103B0F0BD2C
:1010C00045210E4802F00AFEF8E721680029F5D014
:1010D000084A1388002BF1D04B60074802F0ABFFA1
:1010E000002313802360E9E768070020080300203D
:1010F00020030020EC100020180300205A64000098
:1011000010B5044B044618688368E1B25B689847E1
:10111000204610BD680700202DE9F047DFF88490D5
:101120008046D9F800500C4617461F4E65BBEFF3BA
:10113000118A202383F31288BFF36F8F1B4A116833
:1011400029B11B4843688B4201D002F074FF194853
:10115000036833B1D0F804C019686345016008BF63
:1011600041608AF31188BFF36F8F136043B919464A
:101170001A463360C9F800103A602846BDE8F08787
:1011800003F108025D683260AC42A8BF2C463168AA
:101190002246404604F0C6F83368291B0122254642
:1011A0002344E6E714030020100300200C03002072
:1011B000200300201803002037B5204D2B7813B1F1
:1011C000002003B030BD1E4A1E48C2E900331A4653
:1011D000C0E900331C49013202F02DFF082A01F159
:1011E0008801F8D1194C1A48206003F0A6FF10B30B
:1011F0002068836823B19B6C13B10022154998477E
:10120000206883685B6B0BB1984748B1206883689E
:101210009B69002BFAD001220DF107019847F4E7F2
:1012200000220D4B20681A8083689B6A03B198479F
:1012300001232B70C4E74FF0FF30C2E7F01100200C
:101240001803002020030020280300206807002046
:101250008455000049100000EC10002070B5114BBF
:10126000114D1C68114B641B1868114E037808213E
:101270005A1C62F3020303700023437063BA438075
:1012800083885BBA838033685B68984733682146FC
:1012900028465B689847BDE870404421054802F045
:1012A0001DBD00BF78070020F1110020C0070020FD
:1012B000C4070020986400002DE9F0474FF0FF3488
:1012C00000250B460121D4B00594069407940AAE7C
:1012D0000246C6E90055089530A80091CDE90155B0
:1012E0000421099503F044FE4022294620A804F079
:1012F00040F8814B03211C93052304221D937F4B4F
:101300000DF1180ACDE91E3A7D4B7E4821937E4BA4
:1013100005AFCDE923367D4B0DF11C0826937C4BA0
:10132000CDE92B01CDE92838CDE92D37279109AB3F
:101330001CA930A808AC229202F095FE30B3032518
:101340002A464421734802F0C9FC0A21724803F07E
:10135000C8FE72490222704803F0B6FE29466E4864
:1013600003F08FFE4DB9674903226B4803F0ACFED2
:101370006B4B6948196803F08EFE0A21664803F03A
:10138000B8FEFFF76BFF54B0BDE8F0873B685A1C0E
:10139000D5D0D6F80090B9F1000FD0D07668614A68
:1013A00033B9DAF80010B1F1FF3F18BF0B461360F4
:1013B00000211068FEF70AFF2146C0B2FEF79CFF2D
:1013C00005460028BBD13B68554F002B3DD1206816
:1013D000D8F8003082683D609342B0D82B46294649
:1013E000FFF7FEF90028AAD1D8F800204E4B1A606A
:1013F000206802F0E6FCB6FBF0F303FB00FA3A6863
:10140000494902EB0A030968A6EB0A0698198842C3
:1014100038BF00264421454802F060FC206802F0F5
:10142000D0FC0128D04606D9206802F0CAFC013859
:1014300019EA000F3DD153464A463968206802F048
:1014400096FC00287FF47BAF2DE03A6893427FF44E
:1014500077AF354A334412689342C9D96FE7C24522
:10146000206828BFC24602F0B3FC402201460CA807
:1014700003F07FFF524649460CA803F053FF534642
:10148000396820680CAA02F072FC08B1054657E7DB
:101490003B68D14453443B60A8EB0A08206802F043
:1014A00090FC4045DBD93EB93B68334443443B6044
:1014B00046E74FF0400AF1E7206802F089FC082275
:1014C00001460CA803F055FF324609EB08010CA8B1
:1014D00003F028FFD4F800903968484608EB01046F
:1014E00002F06FFC214603460CAA484602F03FFC7E
:1014F00000287FF424AFD7E7A06400009F4D0000D0
:10150000A6640000AB640000A94D00008C6B0000D5
:10151000A54D0000CF64000078070020DD640000C6
:1015200070070020740700206C070020AF640000E3
:1015300010B504460A210A4803F0D3FD02220949E6
:10154000074803F0C1FD2146054803F09AFD0A2132
:10155000034803F0CEFDBDE81040FFF77FBE00BF9B
:1015600078070020DD640000002307B50221009306
:10157000034AA423034803F0BEFD03B05DF804FB57
:10158000F1110020780700202DE9F04F07290446CB
:10159000ADB040F21981037813F0050F40F01481CB
:1015A0004388A1F108055BBA9BB2AB42C0F00C8145
:1015B000874B186083885BBA8380FFF7D5FFA688C6
:1015C000012E40F0E880E37923B1012B00F0DB80AD
:1015D0000820F4E02778FFF74DFA054602F09BFC5F
:1015E000284602F07FFC07F00707044688B1024650
:1015F0004521784802F072FB3446284602F047FC49
:1016000014B12046FFF794FF2DB0BDE8F04FFFF76F
:10161000ABBF002F40F0B58031466F4803F061FD4D
:1016200006226E496C4803F04FFD05216A4803F01D
:1016300054FD2746DFF8A881DFF8A891DFF8A8A1BC
:101640007B4205F1200203F02C03D658002E6AD00D
:101650002023002130460CAAD8F800B002F072FB1B
:101660000C9B4B450CD10023CDE902330193402361
:101670003246009328461CAB0CA9FEF713FF8346A5
:10168000DAF800305B454ED10023324600930CA9B6
:101690004FF6FF7306A8FEF7D5FF002856D04FF08F
:1016A000FF3614214C4803F01CFD504904224A48DF
:1016B00003F00AFD3946484803F0EDFC4EB9042218
:1016C0004B49454803F000FD2022434814A903F08C
:1016D000F2FC07224749404803F0F6FCBDF84630CB
:1016E0001CAE01939DF845304021009330469DF893
:1016F0004430414A02F04CF9129B43B1421E3E2A4B
:1017000005D8C0F140013D4A304402F041F930466D
:10171000FEF7E0FC314602462F4803F0D5FC1421C9
:101720002D4803F0E6FC7B1C022B4FF0010787D10C
:101730000521294803F0D9FC3946274803F0D9FC94
:10174000FFF78CFD284602F0E5FB56E70DF112038A
:1017500004AA05A906A8FEF7C1FF00289FD1BDF87D
:101760001230102BF2D1BDF81030202B97D130461B
:10177000059914AA02F0E6FA061E18BF0126764261
:101780008FE70824DEE7294604F108002DB0BDE804
:10179000F04FFFF791BD002E7FF41AAFE379012BD4
:1017A0000CD0052B7FF414AF3046FFF7C1FE192093
:1017B000002103F081FD0120FEF766FD30462DB0CB
:1017C000BDE8F04FFFF7B4BE2DB0BDE8F08F00BF0D
:1017D000C0070020E06400007807002004650000D6
:1017E0000C0000203DB8F3968C0200200B65000031
:1017F00010650000156500001D65000029650000EA
:101800002DE9F3470027012380463C46DFF89090FE
:10181000244E89F80030244B186099F8003013B931
:1018200002B0BDE8F08702F048FAC4F58061D8F84C
:10183000003001AA013130199847002801DC019BD2
:101840003BB1044402F032FA40F2014A0746072C49
:101850000ADC002CE1DD02F029FA40F6B733C01BA8
:10186000984288BF0024D8E7758833786DBAADB246
:1018700013F0050F05F1080501D1554501DD0024E0
:10188000CBE7A542E7DC29463046FFF77DFEA542BF
:10189000F5DA641B22463046711903F051FDD6E794
:1018A0009512002096120020C4070020BFF36F8F0E
:1018B00072B64FF0FF32114BC3F88020C3F884207A
:1018C000C3F88820C3F88C20C3F89020C3F8942074
:1018D000C3F89820C3F89C20C3F88021C3F8842162
:1018E000C3F88821C3F88C21C3F89021C3F8942150
:1018F000C3F89821C3F89C21704700BF00E100E0C5
:1019000008B50348034A0021121A02F002FC08BD80
:10191000E0000020A0160020074808B5074A084943
:10192000121A02F0F8FBBDE808400648064A0749CB
:10193000121A02F0F0BB00BF00000020DC00002003
:10194000FCA200000000002000000020FCA200001B
:1019500037B505460C46C9B18B6814480093D1E9E8
:101960000023452102F0BAF9636945210093D4E9C7
:1019700003230F4802F0B2F94521E2690D4802F055
:10198000ADF94521A2690C4802F0A8F9012D06D154
:10199000EFF3058245210948103A02F09FF92146EC
:1019A000284603B0BDE8304001F000B82D650000C6
:1019B0006165000095650000A9650000DC65000018
:1019C00008B5034B1B689847BDE8084000F0DABA39
:1019D0001000002030BFFFF7FDBF00BF2DE9F04130
:1019E00005460B4EDFF82C80324606EB0807CC1B71
:1019F0002046094903F096FCA01942460021083C04
:101A000003F0B7FC2C6707F10800BDE8F08100BFC8
:101A100000000000040000000858000010B5204C31
:101A20004521204802F05AF9A36A990136D51E488B
:101A3000452102F053F91E20A36ADA0104D51B48A0
:101A4000452102F04BF91F20154CA36A1B0304D556
:101A50001748452102F042F92120A36A590304D511
:101A60001448452102F03AF922200D4CA36A9A034A
:101A700004D51148452102F031F92320A36ADB0384
:101A800004D50E48452102F029F92420044A936A1E
:101A90006FEA03436FEA1343936210BD1D20CBE747
:101AA00000ED00E0F465000011660000296600000A
:101AB000486600006B66000095660000B466000092
:101AC00070B5244C06460D462348452102F006F920
:101AD000A36AD9043BD52148452102F0FFF817201D
:101AE000A36A1A0504D51E48452102F0F7F818200C
:101AF000184CA36A9B0511D545211A4802F0EEF84F
:101B0000A26BA36A190408D54521174802F0E6F82C
:101B10001EB1A36A23F40043A36219200D4CA36AEB
:101B20005A0504D51148452102F0D8F81A20A36AB5
:101B3000DB0504D50E48452102F0D0F81B20054AEC
:101B4000936A43F47F43936200232B7070BD162089
:101B5000C6E700BF00ED00E0E4660000FF6600009D
:101B6000156700002D6700004B67000065670000E7
:101B70008567000070B5224C06460D462148452178
:101B800002F0ACF8A36AD90637D51F48452102F008
:101B9000A5F81120A36A1A0704D51C48452102F0B4
:101BA0009DF81220164CA36A9B0711D545211848B1
:101BB00002F094F8626BA36A190608D5452115480E
:101BC00002F08CF81EB1A36A23F08003A3621320F5
:101BD0000B4CA36ADA0704D50F48452102F07EF8C2
:101BE0001420A36A064ADB0658BFA36A936A43F02F
:101BF000FF03936200232B7070BD1020CAE700BF63
:101C000000ED00E0A2670000BD670000156700005E
:101C1000F5670000126800002D6800002DE9F04112
:101C2000614B04465F6800258AB0C7F3080685F358
:101C30001188BFF36F8F02F07F43B3F17F4F07D15D
:101C400002F00C03082B14D14521584802F046F845
:101C500000252C464FF00008F31E8DF80780092B55
:101C600000F29180DFE803F00A8488808F8F8F8FE5
:101C70008F8C10074CBF0C460125EBE745214C48E3
:101C8000494E02F02BF88DF80780F36A9A0705D5C4
:101C90004521484802F022F800232DE0F36A002B8A
:101CA00002DA45214448F5E7F36A5B00F4D54521A3
:101CB000424802F013F87369A26943F480737361B8
:101CC000BFF34F8FBFF36F8F32F8023C726922F47B
:101CD00080727261BFF34F8FBFF36F8F03F47F4247
:101CE000B2F55F4F28D1DBB2022B25D14521226806
:101CF000334801F0F3FF23689DF80720CAB902AE0C
:101D000004F12007324620686168083403C2BC42EF
:101D10001646F7D1099A002D42D0C2F3080121B925
:101D20006FEA52226FEA42220992184602A9FFF78F
:101D30000FFE0AB0BDE8F0811B4B9A6AD2B22AB1FD
:101D400001200DF10701FFF715FF0FE09A6A12F469
:101D50007F4F05D001200DF10701FFF7B1FE05E02F
:101D60009B6AB3F5803F97D3FFF758FE0346C3E75E
:101D700000200DF10701E6E700200DF10701ECE777
:101D80004521104886E7104917F4F87F0F4A10489C
:101D900018BF0A46A6F11003452101F09FFF7BE71B
:101DA0006FF30802C0E700BF00ED00E07F680000AD
:101DB000AF680000CB680000F16800000469000013
:101DC0002869000049690000666800005168000049
:101DD00072690000044B5A6942F010025A615A6954
:101DE00022F008025A61704700ED00E0EFF308802E
:101DF000EFF3098101B57246FFF710FF01BD00BF87
:101E00000A4880F30888202080F3118808484FF49E
:101E10008051401880F30988EFF3148002210843B1
:101E200080F31488BFF36F8F02F07FF9A04F00207A
:101E3000A0160020BFF34F8F0549064BCA6802F475
:101E4000E0621343CB60BFF34F8F00BFFDE700BFDD
:101E500000ED00E00400FA05002318460649D1F819
:101E60009020C2F30722934200DB7047C1F89830FC
:101E7000C1F8A0000133F6E700ED00E01EF0040F0A
:101E80000CBFEFF30880EFF30980816911F8021CA1
:101E90000229FFD001B5724602F03FF901BD00BF33
:101EA00040B2002807DB01234109034A00F01F006C
:101EB000834042F82130704700E100E040B2002842
:101EC00001F10101ACBF00F16040064B4FEA411146
:101ED000C9B2ABBF00F5614000F00F0080F80013FD
:101EE0001954704714ED00E0054B064A23F04043B7
:101EF00023F07F039360BFF34F8FBFF36F8F704763
:101F00000000000000ED00E042F8203C009B0B497F
:101F100042F81C3C019B21F0010142F8183C029B55
:101F200042F8081C42F8143C4FF0807342F8043C1D
:101F30000023203A02654367704700BF4503000055
:101F400000B50B4B15469860026F0A4B0E461A609F
:101F50002C4686F309880020034B98472046002131
:101F600000220023014C20474741000045030000A8
:101F7000BC100020C80700201022014B1A617047D6
:101F800000ED00E0054B5A699B689A421FBF044A66
:101F9000536843F080535360704700BFBC1000206B
:101FA00000ED00E0084B9B6883420BD1EFF3058303
:101FB00043B1064B5A6842F080525A605A6A22F482
:101FC00000425A6203F0E0B8BC10002000ED00E0CF
:101FD00011498A684FF030001044EFF3098C80E813
:101FE000F01F202080F31288BFF36F8F0B4F4FF04C
:101FF00000664A698A603E60106F094C2060506F2D
:102000000023536780F3118802F1300090E8F01F3D
:102010008CF3098870470000BC10002004ED00E03C
:10202000C8070020002320210348C2180133202BB9
:1020300082F80013F9D1704700E100E008B5EFF332
:102040000583064A103B02EBC30152F8330049688E
:102050008847BDE80840FFF795BF00BFF455000072
:102060000148006870470000C80700200121024BAA
:10207000024A034800F09EB800000420000000203F
:102080006459000007B502460C48C0F898200B6858
:1020900023F01F03134343F01003C0F89C308B68F8
:1020A00043F00103C0F8A0308B68054800930B682B
:1020B000442101F013FE03B05DF804FB00ED00E0E5
:1020C0008E69000038B50E4B0D46D3F890300446AB
:1020D000C3F30723013B9842024607D9452109482B
:1020E00001F0FCFD6FF01504204638BD4421064880
:1020F00001F0F4FD29462046FFF7C4FFF4E700BFD6
:1021000000ED00E0A6690000D16900002DE9FF4163
:102110000F46984605460026BE420EDA6B685BB352
:10212000B8F1000F12D0591E0B420AD03246452199
:10213000134801F0D3FD6FF01502104604B0BDE85E
:10214000F0811F2BF2D92B681942EFD1D4B222466D
:1021500044210C4801F0C2FD2B6801A90193D5E987
:10216000010302F004F8034320460393FFF7AAFF9C
:1021700010F1160FDFD0421C01360C35CCE700BF42
:10218000F7690000226A00000522044BC3F894207E
:10219000BFF34F8FBFF36F8F704700BF00ED00E0BC
:1021A000BFF35F8F0022024BC3F89420704700BF3B
:1021B00000ED00E010B5034C01232278FFF7A6FFE5
:1021C000207010BD971600202DE9F0435A4A5B4E4F
:1021D000D2F890303568C3F307239D4285B000F2F2
:1021E000A880D2F890204421C2F30722544801F07D
:1021F00075FD0024FFF7D4FF0C27A54219D1514FDC
:1022000068463D70FEF756F84FF0000881464E4C88
:102210004E4D4F4EC14514D100203B784649D1F870
:102220009020C2F3072293427DDBFFF7ADFF002031
:1022300045E07168204607FB0411FFF723FF0134D6
:10224000DBE700984FEA081C00EB0811CB6823403D
:10225000B3F5000F49D00BD8B3F5001F32D0B3F55A
:10226000800F37D0B3F5801F14D008F10108D1E7F3
:10227000B3F1007F42D0B3F1805F48D0B3F1807FEB
:10228000F3D150F80C30886801F071FF4A6840F0D3
:10229000887009E050F80C30886801F068FF4A68DF
:1022A00040F0885040F43020039001A93878CDE9FF
:1022B0000123FFF707FF002831DA6FF0150005B0A2
:1022C000BDE8F08350F80C30886801F050FF4A6890
:1022D0003043E9E750F80C30886801F048FF40F0DF
:1022E00000704A6840F40030DEE750F80C3088682F
:1022F00001F03DFF4A6840F08270D5E750F80C309D
:10230000886801F034FF4A6840F48020CCE750F838
:102310000C30886801F02BFF4A682843C4E73B78FB
:1023200001333B70A1E7C1F89830C1F8A000013338
:1023300075E74FF0FF30C2E700ED00E07059000094
:102340004A6A0000971600200000F0FF000002110A
:102350000000081108B5024B1B689847002008BD13
:10236000CC070020034B044A1860937843F0020323
:1023700093707047CC0700201400002008B5054872
:1023800001F09EFC002383F31188BFF36F8F0423B9
:10239000184602DF756A000070B54568066928684E
:1023A00002F0CBFE38B94521124801F097FC6FF0DE
:1023B0001204204670BD286883681B689847041E75
:1023C00005DA224645210C4801F088FCF1E7D5E901
:1023D00001231A44A24207D923464521074801F0A8
:1023E0007DFC6FF01504E4E7301D02F0C4FE00240C
:1023F000DFE700BF7E6A00009E6A0000C56A000039
:1024000013B504460B4801F0FCFE012802D010F180
:10241000860F0CD10123002106480DF1070201F0BF
:1024200001FF20B99DF807301B1B5842584102B0EC
:1024300010BD00BFBC550000014801F052BF00BFF5
:10244000BC55000008B5074802F077FE38B10648D1
:10245000FFF788FF0448FDF7F9FE002008BD6FF084
:102460001200FBE7685500006D2400000A2838B50B
:102470000446074D04D1AB680D2128465B68984798
:10248000AB6803485B68E1B29847204638BD00BF9F
:102490006855000038B50546002910461C462A69D3
:1024A00014DB6B685B698B4210D95B1A9C420DD8B8
:1024B000084D6B6A01336B6213682246194402F0BF
:1024C00031FF0020AB692344AB6138BD6FF01500CC
:1024D000FBE700BF2408002040F2092213B50F4B90
:1024E00004460421019300920D4B0E4801F00AFCB2
:1024F00003220D4B0092019304210C4B0C4801F078
:1025000001FC23691A7932B162681868516852690E
:10251000497902F02EFF002002B010BD2E6B0000A2
:10252000BC960000240800203E6B0000AA96000024
:102530000008002000292DE9F8438046174646DBB5
:10254000D0F80490D9F814308B4240D95B1A9A42E3
:102550003DD8D9F81030B1FBF3F203FB1212002A78
:1025600035D1B7FBF3F603FB167686BB194C1A4A36
:10257000636BD2690133636322B1934202D30020BB
:10258000BDE8F883D9F81030B1FBF3F505F10F037E
:1025900004EB8304D9F81030B7FBF3F3B342EED960
:1025A0007019FF2898BF236806F101069CBF01330C
:1025B0002360D8F8043004341A695968D8F8103008
:1025C00049791B6802FB003002F0D3FEE2E76FF0AE
:1025D0001500D5E724080020000800202DE9F74F5A
:1025E0000D1E91461F46D0F810A06BDBD0F804807A
:1025F000D8F81430AB4265D95B1B9F4262D8D8F83B
:1026000004301B68B5FBF3F203FB1252002A59D1C8
:10261000B7FBF3F403FB1474002C53D12B4EA346E9
:10262000F36A0133F362D8F80430D8F800001A686E
:10263000597902F09EFEBB4510D32548836933B11A
:10264000F26A934208D322D1036A2BB10123BC4220
:102650001FD1F3692344F361002013E0D8F804305C
:102660000BEB05011A68DAF80030D8F800001944BD
:10267000019202F086FE019A38B16FF00400336ACD
:102680000133336203B0BDE8F08F9344D3E70023F6
:10269000DDE713B1026AA242DED9D8F80420DAF8E5
:1026A00000E004EB050C527919F804101EF80CB088
:1026B000FF2A0CBF01EA0B0141EA0B010EF80C10D6
:1026C0000134C4E76FF01500DCE700BF24080020E8
:1026D0000008002070B50F4D00EB8104A04201D12D
:1026E000002070BD4378017813F0010FC1F301138E
:1026F0000CBF4FF400324FF48032061D01F00F0181
:1027000055F8230001F01CFF10F1860FE9D0304688
:10271000E4E700BF9C5A0000054B1B7833B180688A
:102720004FF0FF324FF0FF3300F0BCBA704700BFEC
:102730009C160020034B1B7813B1806800F060BB2F
:10274000704700BF9C1600204FF0E0230D4A9969A6
:10275000126818699B69002908BF1146002B08BF41
:10276000134610F4803F084801D1994205D2016810
:10277000114401604FF0E021096900681044C01A5B
:10278000704700BFB8100020A810002020220020B1
:10279000074B83F82320074B074A1A60074B013A7F
:1027A00018604FF0E0235A61072298611A61704760
:1027B00000ED00E0B810002090D00300A810002029
:1027C000684620F007018D4631B5EFF311852023CF
:1027D00083F31288BFF36F8FFFF7B6FF0D4B0E4ADE
:1027E000186811680D4C0844106000221A602368B4
:1027F0000B49C01AB0FBF1F001FB00332360094B19
:1028000029461A6001F042F8FFF7BCFBBDE83140F1
:1028100085467047A8100020B4100020B01000209A
:1028200090D00300AC1000202DE9F04180462E4FDF
:1028300069B1B0F1FF3F0AD14FF0E022136923F0F4
:10284000010313614FF07F433B60BDE8F081FFF768
:102850007BFF4FF0E0230022244C99692368B8F1F4
:10286000FF3F00EB0306224B3D681A601FD0214B4F
:102870001868301A34D4204BDFF880E01B684FEA28
:10288000E87C13EB0803A3FB0E324CF1000C1B1A7F
:1028900043F60A500EFB0C2262F10002834272F1F1
:1028A00000001DDBB3F1807F72F1000201DB6FF0ED
:1028B0007F434FF0E0203B60013B8269436100238E
:1028C00083614FF000700E4B914258603BBF481936
:1028D000801A891A80192ABF891920602160B4E7FB
:1028E00043F60953E5E700BFB8100020B4100020FC
:1028F000A8100020B0100020AC10002090D00300E1
:1029000000ED00E010B5074B1C68074B1B68E41A8C
:10291000FFF71AFF054B2044B0FBF3F0044B18609F
:1029200010BD00BFB4100020B010002090D00300F4
:10293000AC10002070B516461D465A1C03680446AC
:102940001344C2689A4205D20821006A02F012FBC1
:10295000002070BD65B93278204602F00EFB0028D9
:10296000F6D03544B5420CD1A3680133A360F0E73B
:10297000AB1E062B8EBF0023054AD35C1833DAB298
:10298000EAE723685A1C226015F8012D1A70E9E75E
:10299000F2A2000010B504464521034801F09EF95B
:1029A000204602F0D5FB00BF10940000F7B50446A6
:1029B0000D46EFF31187202383F31288BFF36F8F47
:1029C0001A4A0428966898BF194B127C94BF53F892
:1029D0002030184B009245210246174801F07EF93D
:1029E0003DB1EB69C3F308031BB14521134801F066
:1029F00075F936B1304602F0C5FB034608B10278DE
:102A000002B90F4B324645210E4801F067F92946BD
:102A10002046FFF7BFFF87F31188BFF36F8F304663
:102A200003B0BDE8F040FFF7BDBA00BFBC10002006
:102A3000005B0000249400003A94000067940000BA
:102A4000329400008D94000038B50A4B53F82040B2
:102A5000013053F82050A54200D838BD606830B12D
:102A6000037EDB0701D402F050FB0834F3E7236850
:102A70009847FAE7145B0000012270B5284B86B036
:102A800003201A70FFF7E0FF0420FFF7DDFF254C5D
:102A9000254D2646AE4204F130040FD300F04CFD24
:102AA000204CAC4226D300F05BFDFDF739FB1F4AFA
:102AB000938923F00103938106B070BD54F80C3C58
:102AC000059354F8103C049354F8143C039354F8C1
:102AD000183C029354F81C3C019354F8203C00939A
:102AE00054E90A2354E90C0100F0F4F954F8303C9D
:102AF0005E65CEE7D4E90A23B3F1FF3F08BFB2F128
:102B0000FF3F05D052EA0301206803D100F040FAEC
:102B10003034C6E70649183000F0C8FDF8E700BFBA
:102B20009C160020F4560000F456000060010020BE
:102B3000895200000023012270B586B0CDE904233C
:102B40000F220193CDE9023214230F4D0F4E03FBE8
:102B500000550F4906EBC016044601EB00214FF467
:102B6000807230460B4B009500F0B4F9337C2C7426
:102B700023F004033374084B013403EB0433EE6099
:102B80006B6006B070BD00BFBC100020E0000020EC
:102B9000A026002061510000A01600207FB5002073
:102BA000FFF752FF264B83F30888264C0025636904
:102BB00043F400736361E02384F82230E5772576DF
:102BC0006576A576636A43F4E0236362FFF702F952
:102BD000FFF7D2F94FF0FF33A362E362FFF7F4FA95
:102BE000FFF744FA184800F0C7F90120FFF72CFF5F
:102BF0000220164CFFF728FF00F096FC144B4FF410
:102C000020525C61134B1449059301232046CDE902
:102C10000353CDE90155114B009500F05BF90646D1
:102C2000237C204623F00403237402F006FB28468D
:102C3000FFF780FF31462046084AFFF781F900BFC1
:102C4000A026002000ED00E0E0010020600100204F
:102C5000BC100020F4940000A0270020792A000076
:102C600037B58268054692F90E300C468B4213D078
:102C7000117C0B4811F01F0FCDE900434FF04401C8
:102C800014BF6E23792301F029F82146A86803B008
:102C9000BDE8304000F09CBB002003B030BD00BF59
:102CA000FC9400002DE9F743044690461E46EFF3DE
:102CB0001189202383F31288BFF36F8F484FC168B7
:102CC000BA6871B1836893421FD058EA06011ED1D9
:102CD00089F31188BFF36F8F6FF00F0003B0BDE869
:102CE000F08392F90E000131C4E902212061CDE99F
:102CF000001023464421BA683A4800F0EFFF89F3F8
:102D00001188BFF36F8F0020E8E70069EBE792F9C5
:102D10000E5093F90E3002469D42A8BF1D46442135
:102D2000314800F0DBFFA36893F90E30AB424EDD73
:102D300029462046FFF794FF054622464946CDE93D
:102D400000862A4800F018FB064603462246442126
:102D5000274800F0C3FF002E0CBF6E237923009399
:102D600044212346BA68234800F0B8FF002ECAD099
:102D700023464421BA68204800F0B0FFEFF31187E2
:102D8000202383F31288BFF36F8FA3680BB32368EC
:102D900026699C420AD04BB193F90E309E42A8BFDF
:102DA0001E466FF07F039E42B8BF1E464421134863
:102DB000224600F093FF31462046FFF751FF40B115
:102DC00039460A4802F075FA6FF00A0086E70025D6
:102DD000B3E7002DF4D187F31188BFF36F8FF3E7CA
:102DE000BC10002032950000629500009D16002066
:102DF00085950000AA950000C9950000E5950000A2
:102E000073B583680546002B53D02D4A92689342D0
:102E100052D1C368024644212A4800F05FFFEB68A4
:102E2000012B04D9013BEB60002002B070BDEFF331
:102E30001186202383F31288BFF36F8F28462969F8
:102E4000FFF70EFF2C68A54217D100241E4BAC6083
:102E500000932A46234644211C4800F03FFF14B348
:102E600094F90E3020462B610023A36702F0F4F999
:102E70003146174802F01DFAD6E7002CE5D0D4E918
:102E8000003213605A600023227CC4E9003322F030
:102E90000202A360227404F1180000F09FFCAC60F1
:102EA00094F90E30D4E7EC6086F31188BFF36F8F8E
:102EB000BAE76FF01500B8E74FF0FF30B5E700BF95
:102EC000BC1000200A96000018FCFFFF27960000A7
:102ED0009D1600202DE9FF47994600F15803C0E9EF
:102EE0001633109B4FF000088381042303740F9B5B
:102EF0000F4604468373C0E90688C0F8088080F84E
:102F00000F8000210020073222F0070607EB060A97
:102F1000C4E90A0123463A4644211548CDE9026A2C
:102F2000CDE9006700F0DAFE51462046FEF756FD77
:102F30000E9BC51D25F00705A566C4E9187602930A
:102F40000D9BAAEB050501930C9B2A46009339467D
:102F50004B462046FEF7D8FF064BC4F854809B68CA
:102F600003B1DB6E2846E36604B0BDE8F08700BF1E
:102F700051960000BC1000200123037483810023BC
:102F8000C0E91833C366014B98607047BC1000203D
:102F900038B50446EFF31185202383F31288BFF37D
:102FA0006F8F037C5B070FD5183000F017FC237C74
:102FB000204623F00403237402F04EF92946BDE8AD
:102FC0003840044802F075B985F31188BFF36F8F5C
:102FD00038BD00BF9D1600206FF00A01084A9368B3
:102FE0009967084958674B6843F080534B6000234A
:102FF00083F31188BFF36F8F9368986F704700BF9A
:10300000BC10002000ED00E038B590F9102001461A
:10301000002A037C04DA03F07F03037402F0D5F87E
:103020000D4D2A4652F8184FAB68944200D004B9AF
:10303000EC688B4207D01A7CD20604D1DA897F2A49
:1030400001D9A2692AB1A34202D0204600F0CEFAEB
:1030500023466B6138BD00BFBC10002070B590F9ED
:103060001020037C002A2FDBD9062DD11A4C63F0E7
:103070007F032246037452F8183FE169934207D157
:10308000C0E900210860E0610FE09942F8D01B68B8
:10309000002BF5D093F90E6090F90E50AE42F4DD9E
:1030A0005968C0E9003108605860A569954200D0B0
:1030B00005B9E568A3681A7CD20606D1DA897F2AA9
:1030C00003D9AA690AB9636170BDAB4202D0284630
:1030D00000F08CFA6561F7E7BC100020034648B9A0
:1030E000EFF3058232B9064A51699268914201D0E4
:1030F000FFF772BF83F31188BFF36F8F704700BF74
:10310000BC10002038B5184CA168E0690B688142FA
:1031100014BF1A46002249680B605960A368E16930
:103120002AB9124AC3E900210B60E3610AE092F96F
:103130000E5093F90E00854212DD5168C3E900215B
:103140000B605360A569094B9D4200D005B9E56845
:10315000A3689D4202D0284600F048FA656138BD58
:103160008A42DED01268DBE7BC100020D4100020B9
:10317000002A2DE9F8430CBF4FF010084FF0080863
:10318000027C044618EA020F0D4664D148EA0203A5
:10319000D2090CD10374B8F1080F7DD1A36813B123
:1031A000204602F01AF8202704F118060FE003F079
:1031B0007F03037402F009F8EDE785F31188BFF38C
:1031C0006F8FEFF3118587F31288BFF36F8F30464F
:1031D00000F004FB0B30F0D0A66D04F15807B742A5
:1031E00013D04FF0000986B1304601F0F6FFC6F863
:1031F000789006F1180000F0F1FA0B3002D030465A
:10320000FFF72CFFA66DB742EDD1274B9B689C4280
:1032100042D1EFF30587003F18BF0127DFF8889000
:103220004B4653F8186F9E4200D00EB9D9F80C6087
:10323000D9F80830B34202D0304600F0D7F9B8F1DF
:10324000100FC9F8146006D0204600F079FF17B1BE
:103250001648FFF791FE144B9B68A3421ED1EFF373
:103260000583DBB9A289D20711D585F31188BFF395
:103270006F8F83F31188BFF36F8F0423184602DF2B
:10328000EFF31185202383F31288BFF36F8F284655
:10329000BDE8F843FFF7A0BE0027BFE785F311881C
:1032A000BFF36F8FBDE8F883BC100020E001002061
:1032B00070B50F4D06462B4653F8184F9C4200D070
:1032C00004B9EC68AB681A7CD20604D1DA897F2A8B
:1032D00001D9A2692AB1A34202D0204600F086F9A2
:1032E00023466B613046BDE87040FFF7F7BE00BF74
:1032F000BC10002070B5EFF31186202383F31288F1
:10330000BFF36F8F1A4CA168E0690B68814214BF4C
:103310001A46002249680B605960A368E1692AB91E
:10332000144AC3E900210B60E3610AE092F90E50F0
:1033300093F90E00854216DD5168C3E900210B6048
:103340005360A5690B4B9D4200D005B9E568A368A1
:103350009D4202D0284600F049F965613046BDE83B
:103360007040FFF739BE8A42DAD01268D7E700BF53
:10337000BC100020D4100020F8B5124B0C46DDE93B
:10338000067611469868104A1060EFF311822022E9
:1033900082F31288BFF36F8F9D68284601F027FFE4
:1033A000B6F1FF3F08BFB7F1FF3F06D03A463346BC
:1033B000064905F1180000F079F92046BDE8F8400B
:1033C000FFF70ABEBC100020DC100020895200006C
:1033D000F8B50446EFF31187202383F31288BFF377
:1033E0006F8F037C49B203F01F02002A0CBF012635
:1033F000002635D103F07F032A4D037401F0E5FE6A
:103400002A46037C817363F07F03037452F8183FEC
:10341000E869934207D1C4E900200460EC610DE043
:103420009842F8D01B68002BF5D093F90EC08C455C
:10343000F6DD5968C4E900310C605C60AC69944207
:1034400000D004B9EC68AB689C4202D0204600F082
:10345000CDF86C6187F31188BFF36F8F3046F8BDEC
:103460009B071CD5856801F0B0FE81732B689D42D7
:1034700009D16B68C4E900531C606C60EAE76A68B4
:103480009A42F6D01B68002BF3D093F90E208A42A3
:10349000F5DD5A68C4E9003214605C60DAE78173D4
:1034A000D8E700BFBC100020F8B550EA010305467C
:1034B0000C4603D101F087FE0020F8BDEFF3118721
:1034C000202383F31288BFF36F8F134E134BB06822
:1034D000186001F0C3FEB0682A4623461049183030
:1034E00000F0E4F8B36804461A7C5F6742F0040217
:1034F0001A746FF00A029A670A4A536843F08053BD
:103500005360002383F31188BFF36F8F01F004FF32
:10351000201A20EAE070D0E7BC100020DC10002068
:103520008952000000ED00E0024B03F11802C3E9EC
:1035300006227047BC100020EFF31181202383F393
:103540001288BFF36F8F054B9A68D37B013BD3730F
:1035500081F31188BFF36F8F704700BFBC1000204C
:10356000EFF31180202383F31288BFF36F8F034B97
:103570009A68D37B0133D373FFF79ABEBC10002047
:10358000014B9868704700BFBC100020027C0346C6
:1035900012F01F0210D10A4988420DD0094908686B
:1035A00068B1D9897F2909D893F90E20064B1B6889
:1035B0009A42B8BF002070470020704710467047FD
:1035C000E000002098000020E01000200122044BC1
:1035D000C01A044BC0105843034B1A54704700BF25
:1035E00060020020ABAAAAAA9D160020F8B50C4BD9
:1035F0000C4D1E7CFFF7CAFF1823044603FB06553B
:10360000284600F0EBF8084F34B1BB5D2846E21ABB
:103610000649D31700F04AF80023BB55F8BD00BF98
:10362000BC100020600200209D160020CD35000057
:1036300070B5EFF31186202383F31288BFF36F8FE9
:103640000F4D104BAC681868A04202D1FFF7CEFFB7
:1036500011E000221A602B7C0B4AD35C5BB1204640
:10366000FFF794FF38B1237CDB0604D1FFF74AFD56
:103670006869A042EAD086F31188BFF36F8F70BDEE
:10368000BC100020DC1000209D160020024B1868A2
:10369000984208BF00207047A0000020024B186825
:1036A00008B1FFF72FB970479C000020B3F1FF3F2E
:1036B00008BFB2F1FF3F2DE9F84F04469946154681
:1036C0001F4600F081808160EFF31188202383F38F
:1036D0001288BFF36F8FB9F1000FDFF8F4A025DB7C
:1036E000FFF7DCFF3B4B06461B68003B18BF01237E
:1036F000451949EBE0795B1949F100024FF00109E6
:10370000DAE90057C4E904325D1942EB0707FFF715
:10371000BDFF0346DFF8C0E0DEF804A0EBB9C4E962
:1037200000EACAF80040CEF8044028E06FF0010338
:10373000DAE900125B1A4FF0FF3161EB02025B1B0A
:1037400062EB0902012B72F10001BCBF01230022D0
:103750004FF00009C0E90432D9E7D3E9041CD4E9E9
:1037600004208A4270EB0C0B25DA891A5A686CEB3C
:103770000000C3E90410C4E9003214605C60FFF784
:1037800085FF84420FD1134B1B6801330BD1B9F174
:10379000000F02D1FFF782FF0646304601F0A5FD7B
:1037A0000021FFF741F888F31188BFF36F8F284697
:1037B0003946BDE8F88F521A60EB0C005345C4E956
:1037C0000420ACD01B68A9E700252F46EFE700BF17
:1037D000780200209C000020A0000020F8B50446DC
:1037E000EFF31186202383F31288BFF36F8F0268F3
:1037F00072B3FFF74BFF184B5B689C4208D0D2E9CD
:103800000431D4E90475DB1941EB0501C2E9043147
:10381000D4E900320025A04213605A60C4E9005583
:103820000ED000200D4A136823F001018C4204BF22
:1038300043F00103136086F31188BFF36F8FF8BD67
:10384000FFF72CFF01F051FD2946FEF7EDFFE8E7F9
:103850006FF01500E6E700BFA0000020E410002094
:10386000EFF31182202383F31288BFF36F8F064B8F
:1038700040F001001B681B1A5842584182F311881E
:10388000BFF36F8F704700BFE410002000232DE9C5
:10389000F047DFF8BC902F4CC9F8000023600E46BB
:1038A000FFF7F4FE2C4FDFF8B480D9F80050D7E9C9
:1038B00000CE4FEAE57A50B1D0E904319D427AEB6F
:1038C00001021EDA5B1B61EB0A01C0E9043115EB52
:1038D0000C054EEB0A02C7E9005200254FF0FF33FA
:1038E00028462360C9F8005001F0FFFC2946FEF786
:1038F0009BFF86F31188BFF36F8FBDE8F047FFF79A
:1039000097BE13EB0C0CA5EB03034FF0000541EB46
:103910000E018268C7E900C1C9F80030C8F800008C
:10392000D0E900310B605960C0E9005586F3118879
:10393000BFF36F8F9047EFF31186202383F3128834
:10394000BFF36F8FC8F80050FFF7A0FEADE700BFD0
:10395000E81000209C00002078020020E4100020E5
:1039600010B5EFF31184202383F31288BFF36F8F18
:10397000FFF794FE0346054AD2E90001181841EB0F
:10398000E37184F31188BFF36F8F10BD78020020BC
:103990000CB430B58BB004460D462022002102A89D
:1039A00001F0E7FC02238DF80A300D4B002D039344
:1039B000069412DB01D06B1E1C440FAA0E9902A8BC
:1039C0000794019200F00EF815B10022069B1A70C0
:1039D0000BB0BDE8304002B070470024EDE700BFF7
:1039E000D55300002DE9F04F837815469A07074616
:1039F000D0F8048085B040F19F8000260878002828
:103A000000F09C80252808D001F1010A39460136D2
:103A1000C047002880F286808AE091F801B001F169
:103A2000020ABBF1250FF1D0002401211F2C25D85B
:103A3000ABF12002102A06D8844B01FA02F018429A
:103A40000ED1032A5AD0ABF13002092A08D9BBF1B2
:103A50002A0F33D1630605F1040501D444F0200494
:103A60001AF801BBBBF1000FE0D139462520C04751
:103A700000285DDB394658460236C9E77F2CE2D97B
:103A8000BBF16C0F29D021D8BBF1680F2CD0BBF152
:103A90006A0F30D0BBF14C0F2DD0ABF16302122A6C
:103AA00000F2A580DFE802F02C4EA3A3A3A34EA34F
:103AB000A3A3A3A3AD9DA3A331A37700BBF12E0FB6
:103AC000DED160063AD444F04004C9E7BBF1740F7C
:103AD000C6D0BBF17A0FC3D0DFE7220648BF44F45B
:103AE000007444F08004BBE7E30548BF44F400746D
:103AF00044F48074B4E744F42074B1E71024AFE7D1
:103B0000394615F8040B013682E72C68504B002C1F
:103B100008BF1C46A1464B4619F8010B20B9341BBF
:103B20001E190435514669E73946C0470028F2DAC4
:103B3000BB7843F00403BB704FF0FF36304605B04E
:103B4000BDE8F08F20061DD5A10543BF073525F040
:103B5000070555F8080B55F8040B00280DF104096A
:103B60004946B8BF40424FF00A02B8BF44F48064EF
:103B700001F017FC6405A0EB090956D44C460DF181
:103B8000040B5EE0E20555F8040BE6D5A3054CBF37
:103B900040B200B2E1E70A2224F01004A4B22006E9
:103BA00033D5A10543BF073525F0070555F8080BA8
:103BB00055F8040B10B924F01004A4B20DF1040957
:103BC000494601F0EEFBE306A0EB0909D6D53946DC
:103BD0003020C0470028ABDBBBF1000F1ED10136FF
:103BE000CCE710224FF0780B44F01004D7E74BF0ED
:103BF0002002782A7FF439AFCBF1780242F010022C
:103C0000CDE708224FF0000BC9E7E30555F8040B98
:103C1000D0D5A1054CBFC0B280B2CBE739465846DB
:103C20000236C0470028A9DA82E739462D2001363E
:103C3000F7E7013C39461BF80400C0470028FFF6AF
:103C400077AF002CF5D14E446CE700BF812801000E
:103C5000A3960000704710B50120FEF7D1FB0128A4
:103C6000044603D1FEF7E8FB204610BD0020FCE728
:103C70000020704730B500290446154685B011DB99
:103C800083688B420ED96368C068194401AA00F0AA
:103C900085FB28B96268019B9B1A2B60029B6B60B5
:103CA00005B030BD6FF02100FAE7704708B501F0AC
:103CB00037FB0A23584308BD704770470020704700
:103CC0000FB407B504A951F8040B0191FCF7C4FA2D
:103CD00003B05DF804EB04B0704770470FB407B54C
:103CE00004A951F8040B0191FCF7B6FA03B05DF892
:103CF00004EB04B070470379C28800215A4318309E
:103D000001F037BB10B50446C360BDF80830C2806F
:103D100003610171FFF7EFFF21460398FCF7D0FA2A
:103D2000002818BF6FF0770010BD002908DB8068FD
:103D3000884205D9401A904234BF002001207047C4
:103D40000020704770B516461A4605460C46FFF728
:103D5000ECFF48B16968E86821448268146832461B
:103D6000A446BDE8704060476FF0150070BD70B5A7
:103D700016461A4605460C46FFF7D7FF48B1696854
:103D8000E8682144826854683246A446BDE8704021
:103D900060476FF0150070BD10B50B460446FFF785
:103DA000C4FF40B16168E068194483689B682BB127
:103DB000BDE8104018476FF0150010BD6FF05700B8
:103DC000FBE708B5C0688368DB689847006808BDF2
:103DD00008B5C0688368DB689847407908BD48B17A
:103DE00003683BB143682BB1C068884294BF002090
:103DF000012070474FF0FF30704701F0C2BA08460B
:103E000000F0DDBD01292DE9F341174601D900F08D
:103E1000BEF92C2303FB0104D4F82080B8F1000F75
:103E2000F5D0E368268940461E44042331460DEB55
:103E30000302FFF787FF054620B10125284602B09F
:103E4000BDE8F08146F60813BDF8042064899A4263
:103E50001AD1BDF806309C4201D00325EEE70423B9
:103E600040460DEB0302A119FFF76CFF0028E4D1D7
:103E700046F60713BDF804209A42EED1BDF80610AD
:103E8000214431443960D9E7002CF1D0E5E770478F
:103E9000002382681946FCF7F9BC08B52C2303FB04
:103EA0000101086A08B900F072F90422BDE808406F
:103EB00000F08BBDF8B513460F46164600210246AA
:103EC000054600F02CF8044650B933460121284637
:103ED00005F12C0200F023F810B1002F18BF0446A2
:103EE0002046F8BD002110B504460846FCF76EF9DF
:103EF00004F12001C0B2FCF7FFF940B90121FCF741
:103F000065F904F14C01C0B2FCF7F6F908B100F014
:103F10003EF910BD70477022002101F02ABA08B5A1
:103F20002C2303FB0100006A08B900F030F92023BC
:103F30000021FFF707FF003818BF012008BDF8B5C2
:103F40000C4610B1F9B10AB90120F8BD00278D184F
:103F500000F12806AC42F7D0836E5A1C826614F832
:103F6000011B03443F2A83F82810F3D93146FCF79C
:103F700053FFD0E9083213F5007342F10002C0E9A3
:103F800008328766E6E70846DFE7F8B50C460546DF
:103F900000284BD000294AD08B6ED1E90821D800E7
:103FA000121841F10001C4E908218022581C382868
:103FB0002344A0664FF0000783F8282004F1280668
:103FC0000BD9C0F140023946304400F032F82046A7
:103FD0003146FCF721FF3846A766C0F138020021C0
:103FE000304400F026F8236A626A1BBA12BA3146DE
:103FF000C4E918232046FCF70FFF2B1D211F243591
:1040000051F8042F0433100E03F8080C100C03F8B9
:10401000070C100A03F8060C03F8052CAB42EFD18D
:1040200020467022002100F004F80120F8BD084667
:10403000FCE701F09EB900230B60436813B9C0E9A7
:104040000011704719604160704770B506460D4613
:104050000024AC4200DB70BD305DFDF751F801304B
:10406000F9D00134F5E72DE9F04F85B005460E464D
:1040700090461F4600F0B0FE20B96FF04C0005B02E
:10408000BDE8F08F4FF01409002334464FF0010AC9
:1040900009FB08693B60284602A900F091FE60B167
:1040A000DDE902324FF0000B0093C3450CD1002133
:1040B000284600F0D1FE0028EDD1284600F0B5FEDC
:1040C0000028DAD00020DAE7A14598BF34466168BD
:1040D0008A4214D121680098019201F052F9019AA4
:1040E00068B9237C7BB9D4E902312846984768B186
:1040F00084F810A03B68143401333B60CBE71434E0
:104100000BF1010BD1E76FF06F00B8E76FF0220001
:10411000B5E701F02EB901F005B901460068FDF7D9
:1041200017BC00210120FDF713BC08B5FDF7DCFE2C
:10413000FDF7E6FBFDF7F0FBFDF774FFFEF72EFD44
:104140006FF08500704761B662B680F31188BFF3E7
:104150006F8F704772B6002383F31188BFF36F8FA0
:10416000BFF34F8F30BF62B6BFF36F8F7047202809
:1041700009D9B0F1004F08D80138B0FA80F0C0F189
:104180001F0040007047082070473E20704708B568
:10419000FEF7F4F808B5FEF7DDF8002008BD2DE9BC
:1041A000F04106460D4617461C46ABB1D0F80880D4
:1041B000D8F800309847002D11DB84420FD8031B3C
:1041C000AB420CD3D8F808E023463A46294630469D
:1041D000F446BDE8F04160471846BDE8F0816FF055
:1041E0001500FAE74FF0FF324FF0FF330430FEF7CF
:1041F00059BD0430FEF704BE4368D3E90203C01A78
:10420000704738B5456804460069FFF7EBFF2B8A15
:104210002069002B0CBF6FF085050125FFF7E9FF32
:10422000284638BD2DE9F8430D1E064690461C462B
:10423000D0F804902DDBEA18D9E902315B1A9A42D2
:1042400027D80069FFF7CEFFD9E9007299F811303D
:10425000B4B1D7F8089015441D443846D9F8003059
:104260009847002D12DB844210D8031B9D420DD8C5
:104270002346424629463846D9F80490C8470446A2
:104280003069FFF7B6FF2046BDE8F8836FF01504EC
:10429000F6E76FF01504F6E72DE9F0410C464668A5
:1042A0000546006990461F46FFF79CFF002C15DB72
:1042B000D6E90231E2195B1A9A420FD8D6E9000317
:1042C000E118737C19443B464246FFF768FF0446F9
:1042D0002869FFF78EFF2046BDE8F0816FF01504D6
:1042E000F6E7F0B50024056985B010220021476883
:1042F0000646684601F03DF82846FFF773FF2C702C
:104300002546BB68A34205D83069FFF772FF2846EF
:1043100005B0F0BDD7E9000121441B1B102B28BFBD
:1043200010236A46FFF73BFF051EEDDBBB681B1B36
:10433000102B94BFE4181034E3E7F7B51C460023B4
:10434000164682682360A3600D465369694601AA38
:104350009847019B5A1E01921BB96FF0150003B0DC
:10436000F0BD0098A26847682168676085B9B31AF4
:10437000D0F800C0634528BF634603FB07111A4409
:104380002160A26002689A4206D808300090E0E7F7
:104390006B1AB3FBF7F3EBE70020E0E713460022CC
:1043A000FFF7CBBF43689B680B6001231360704726
:1043B000436800205B69C1E9003070474368586872
:1043C0007047436800205B681B680B607047436858
:1043D0005B68586842400A4042405A60002070477B
:1043E000436800205A6853680B4353607047436822
:1043F00000205A68536823EA0103536070474368FA
:1044000000205A6853684B405360704730B5B3F191
:10441000C06F44681CD0B2F5800F19D00120B2F5EE
:10442000001F656800FA01F102D16962002030BD09
:10443000B2F1A07F0CBFA962E9626268B3F1806F3C
:104440000CBF116351636368996363681962EDE798
:104450006FF08500EBE730B50369586800B30024BE
:10446000884219D108688CB99C685860A14200D173
:104470009860002008602AB15A680A609A685960FA
:1044800002B9996000200FE02846E9E720609868AB
:10449000814208BF9C60ECE705680446002DF3D11B
:1044A000002AE9D16FF0150030BD08B543689B685C
:1044B0009847002008BD08B5062000220321FDF71B
:1044C000FDFCBDE808400620FDF7EABC08B5072062
:1044D00000220321FDF7F2FCBDE808400720FDF7AC
:1044E000DFBC08B5102000220321FDF7E7FCBDE882
:1044F00008401020FDF7D4BC08B51120002203218C
:10450000FDF7DCFCBDE808401120FDF7C9BC70B523
:10451000436802695B6805469E6B9E63516809B1FA
:104520000C6801B970BD8A68324002D028464B68D9
:1045300098471CB1236821461C46F2E72346FAE758
:1045400038B512F4403F0C46456816D012F0320FD1
:1045500013D193030ED5130307D5FFF741FF6B6803
:104560001C6100206B68DC6138BD5303F7D5FFF791
:104570003EFFF4E76B685961F3E76FF08500F3E7FE
:10458000012303FA01F1FFF7DBBF30B503695C6873
:10459000012303FA01F1236819422BD022F470237E
:1045A00023F001031BB9237A23B1930317D56FF0CE
:1045B000850015E0D503FAD4900310D56068EFF3B9
:1045C0001185202383F31288BFF36F8F130308D55F
:1045D00003681943016085F31188BFF36F8F0020D2
:1045E00030BD5303F7D52368026823EA0103134063
:1045F0000360F0E76FF01500F2E7036900205B68E5
:104600005A681B68126813400B60704710B5036945
:10461000586809C80140EFF31184202080F3128804
:10462000BFF36F8F186842400A4042401A6084F31B
:104630001188BFF36F8F002010BD03695B685A6853
:104640001B681940EFF31180202383F31288BFF316
:104650006F8F13680B43136080F31188BFF36F8F64
:104660000020704703695B685A681B681940EFF3C4
:104670001180202383F31288BFF36F8F136823EA1E
:104680000103136080F31188BFF36F8F0020704720
:1046900003695B685A681B681940EFF31180202397
:1046A00083F31288BFF36F8F13684B40136080F35E
:1046B0001188BFF36F8F002070476FF0850070473F
:1046C0000369426800205A60704730B50368136080
:1046D0000579046804EBC504A34202D36FF001001E
:1046E00030BD5C7908338C42F1D10020F8E7436893
:1046F000586870472DE9F0411F460E46154604469E
:10470000D0F804804046FEF707F8D8F800103A4683
:104710003144284600F006FE6068FEF70BF80020E2
:10472000BDE8F0812DE9F0411F460D4616460446CE
:10473000D0F804804046FDF7EFFFD8F800003A4675
:104740003146284400F0EEFD6068FDF7F3FF0020DD
:10475000BDE8F08138B5044645682846FDF7DCFF22
:1047600000216A68286800F004FE6068FDF7E2FF37
:10477000002038BD43681B685A68920743BF1B6816
:1047800000200B704FF0FF30704743681B685A6879
:10479000D207FCD419607047034610465AB15B68D3
:1047A0001A685068C00705D40120D0601B680A78D9
:1047B0001A60704700207047034610465AB15B6884
:1047C0001A68506810F0020005D00220D060012065
:1047D0001B681B680B7070474268EFF31180202341
:1047E00083F31288BFF36F8F11688B6823F0040383
:1047F0008B6013680122DA6080F31188BFF36F8F3A
:10480000704743681B685A68D2075ABF9868C0F35C
:104810008000002070474268EFF31180202383F36B
:104820001288BFF36F8F11688B6823F008038B60C9
:1048300013680222DA6080F31188BFF36F8F70472C
:10484000FFF7DFBF43681B68586810F002001CBF09
:104850009868C0F3C0007047704708B50246FFF77C
:10486000F1FF20B9BDE808401046FFF7CABF08BDF8
:104870000369C3E901127047026953680BB191687B
:104880001847704710B54268EFF31184202383F373
:104890001288BFF36F8F11688B6843F008038B6039
:1048A00013685B689B0701D5FFF7E6FF84F3118867
:1048B000BFF36F8F10BD10B54268EFF31184202352
:1048C00083F31288BFF36F8F11688B6843F0040382
:1048D0008B6013685B68DB0701D4FFF7CDFF84F3BF
:1048E0001188BFF36F8F10BD08B50022032101208E
:1048F000FDF7E4FA0120FDF7D3FA00220321104668
:10490000FDF7DCFABDE808400020FDF7C9BA032135
:1049100008B508460022FDF7D1FA0320FDF7C0FADA
:10492000022000220321FDF7C9FABDE80840022059
:10493000FDF7B6BA08B5002203210520FDF7BEFA3F
:104940000520FDF7ADFA042000220321FDF7B6FA99
:10495000BDE808400420FDF7A3BA37B54568044612
:104960000021A86801AAFFF7B0FE002812DB019B16
:10497000002219791868FDF7ADFE00280ADB2369CB
:104980001A685AB903222B6820469A60EB68984748
:10499000002001E0831CF2D003B030BD61684B6899
:1049A000002BEFD0B3FBF2F309680B61EAE7704725
:1049B0004FF0E022136923F0010313617047806810
:1049C000183820F007001038704738B515460C46E7
:1049D00061B15AB1FFF7FCF92146254411F8013BBA
:1049E000834203D1A942F9D1012038BD0020FCE760
:1049F00030B5026A0346D2E9014084424FF000001C
:104A000002D30123D36030BD1874506824250130CF
:104A10005060186A4268541E0268184605FB04225A
:104A20005C1950F8045BA04242F8045BF9D1012004
:104A30009960E8E7F0B5064604468BB001AD0F4635
:104A400094460FCE0FC50FCE0FC5216A33684A6852
:104A50002B6022B90223CB6000200BB0F0BDFB0716
:104A60002068A56813D524260B68013A06FB02339B
:104A70007E0703D41A7C0AB10F23ECE7224603F128
:104A8000240153F8046B8B4242F8046BF9D1B90747
:104A900041BF226A536803F1FF335360AC4505D22E
:104AA000236A002BD8D00422DA60D5E77A0748BF02
:104AB00020603B0701D40120CFE7143406AB93E814
:104AC000070084E80700F6E710B502601A44029B6D
:104AD000012983604FF00003C26003740375836192
:104AE00001D8036210BD24224A43243A8418046288
:104AF0008350026A8C1E9460026A02295360026A23
:104B0000D360026A1374026A53741EBF036A2430AE
:104B10001860E7E7182871F100030ED3B0F5807F25
:104B200071F100030BD3B0F5803F71F1000308D39E
:104B3000002914BF0920052070470120704702207A
:104B400070470320704737B50024002508290A461E
:104B5000CDE900450AD80146684600F0E3FBDDE9EF
:104B6000000103B0BDE83040FFF7D4BF002003B020
:104B700030BD00B1C1607047436803608368013392
:104B80008360006AFFF7F5BF08B50268C3689A4200
:104B900005D3006A0821FFF7ECFF002008BD0120C3
:104BA000FCE738B504460D46FFF7EEFF40B1236839
:104BB0001B78B5EB531F04D00A21206AFFF7D9FFF9
:104BC000002038BD10B50446FFF7DEFF38B123687A
:104BD0001A78FF2A05D00A21206AFFF7CAFF0020B1
:104BE00010BD01332360FBE710B5027D044632B1EE
:104BF000FFF7E8FF48B100234FF0FF32237520464E
:104C0000BDE810400721FFF715BF10BD2DE9F84F93
:104C100004460E4691461D46FFF7B6FF804628B172
:104C2000A36843B90321206AFFF7A3FF4FF00008F0
:104C30004046BDE8F88F2268177807F01F0BBBF1DC
:104C40001F0F12D1FDB1206A18B1037C0BB11521E1
:104C5000EAE701232B7000252368013563602B44AC
:104C60002360A368013BA360E2E7BBF1170F0CD9F7
:104C7000ABF11803D9B2032905D801259D40A945F8
:104C800004D20521CFE70721CDE70025E36805F130
:104C9000010A5244934201D20821C4E74A46002146
:104CA000304600F066FB15B986F800B0D3E72268FD
:104CB000711E531913F80109934201F8010FF9D13C
:104CC000236A002BC8D01B7C002BC5D00737FFB24E
:104CD000022FC1D949463046FFF735FF8245BBD088
:104CE0001521A0E738B50C4611460546FFF759FFD8
:104CF00008B9002038BD042200232846A118FFF778
:104D000085FF0028F5D02B682360F3E7002337B533
:104D100004468DF80330FFF744FFA8B10422204673
:104D20000DF103030DEB0201FFF770FF60B19DF879
:104D3000035065B901992046FFF75AFE50B96368E0
:104D40002360A3680133A360002003B030BD6FF07F
:104D50000F01F0E72575F8E738B504460D46FFF773
:104D6000C1FF48B12268E3689B1A6A689A4204D975
:104D700008212046FFF700FF002038BD70B50D4622
:104D8000002104461646FFF70CFF38B1324629468B
:104D90002046BDE870400023FFF738BF70BD0422F5
:104DA000FFF7ECBFFFF7FBBF38B5022204460D4604
:104DB000FFF7D2FF18B123686A681344236038BD37
:104DC00038B5032204460D46FFF7C6FF18B1236825
:104DD0006A681344236038BD10B505210446FFF707
:104DE00095FF50B1237D4BB96FF00042A368934209
:104DF00005D305212046FFF7BFFE002010BD5B0054
:104E0000A360FBE7037D23B98068B0FA80F0400916
:104E100070470368C268934205D21878A0F1FF0377
:104E200058425841704700207047FFF7DDBE38B543
:104E30000D4606210446FFF7B4FE08B9002038BD30
:104E40000023042229462046FFF7E0FE0028F5D083
:104E5000A3680133A360F2E7F0B58FB00446FFF713
:104E600093FE00285DD0236800221D780023CDE941
:104E7000022323466D0905AA04F120071646186887
:104E80005968083303C6BB423246F7D11868306010
:104E9000062D1CD02A1F0023012A4FF008028DF88E
:104EA00004300DEB020198BF01AB05A8FFF7AEFE81
:104EB0000646002835D0042D3BD019D8023D012DDF
:104EC00021D9059B2360A368013BA3602AE001A9C7
:104ED00005A8FFF7ACFF20B3059B089A934204D3C3
:104EE0000821206AFFF745FE1BE01D786D09CFE71A
:104EF000052DE6D1DDE90232B3F1004F72F1000178
:104F000013D32946EDE7E3682168029A5B1A9A42B7
:104F100003D8059B13440593D3E708212046FFF7E8
:104F20002BFE002630460FB0F0BDDB185241CDE914
:104F300002329DF8045025B16FF00F020023CDE935
:104F40000223029B8DF82850079305A8FFF75AFF0C
:104F5000014638B1002DB4D005A8FFF733FE002874
:104F6000AFD1DEE705A8FFF777FF0028EDD1D8E73E
:104F7000FFF7AABD00B1C160704710B50368C468EF
:104F8000A34205D3006A0821FFF7F4FF002010BDFB
:104F900002F01F0242EA41111970036801330360F5
:104FA0000120F4E770B505460E4610461946144632
:104FB000FFF7C9FD22463146431E2846BDE8704032
:104FC000FDF7B8BCF8B51746C368026804469A42B4
:104FD0000D4606D30821206AFFF7CCFF0026304695
:104FE000F8BD9B1A4A689A42F4D80E4656F8043B1C
:104FF00053B104213046FFF7A6FD6A6823681344C5
:10500000E26803449A42E5D33246042339462046F7
:10501000FFF7C8FF06460028E0D0206829688842CC
:1050200002D06A6800F08CF923686A681344236030
:10503000D5E7082A73B513460C4606D9006A052140
:10504000FFF798FF002002B070BD8E1816F9012CF2
:10505000002A0FDA0A466C466946B24204D10121A1
:105060002246FFF79FFFEEE712F8015BED4301F8E0
:10507000015BF2E70021F3E713460A460021FFF740
:1050800091BF07B5042201910DEB0201FFF7D1FF9B
:1050900003B05DF804FB07B5042201910DEB02019A
:1050A000FFF7EAFF03B05DF804FB0222FFF78ABFB7
:1050B0000322FFF787BF07B5CDE900126946FFF766
:1050C000F4FF03B05DF804FB07B5CDE900126946B3
:1050D000FFF7EEFF03B05DF804FB1F220421FFF78A
:1050E0004CBF1F220521FFF748BF1F220721FFF7F2
:1050F00044BFFFF7FABF1FB50024CDE90144069C69
:105100000094FFF7E1FC04B010BD10B543690446FC
:105110003BB90020E2684042537843F001035370EA
:1051200010BD98470028F4D00028B8BF4042FF289F
:10513000A8BFFF20E3681870ECE740B1C368587857
:1051400010F001001EBF1878B0FA80F040097047D7
:10515000EFF31183202383F31288BFF36F8FFEE7F1
:1051600010B52024EFF3118384F31288BFF36F8FFF
:10517000FEF7F0FFF6E703460020C3E90033C3E97A
:10518000020070470020704738B58589EFF3118120
:10519000202282F31288BFF36F8F037C13F0080480
:1051A00004D081F31188BFF36F8F38BD0122FDF762
:1051B000DFFFEB07F9D584F31188BFF36F8F04236A
:1051C000184602DFF1E7FEF795B8D0E90032136028
:1051D0005A600023C0E90033704708B5FFF7F5FFB8
:1051E000037C23F0020303740023836008BD38B5F9
:1051F00004460D46FDF708FF237C43F002032374A9
:10520000D5B1A5602B689D4209D16B68C4E90053F4
:105210001C606C6010E06A689A42F6D01B68002B34
:10522000F3D093F90E1094F90E209142F3DD5A68F1
:10523000C4E9003214605C6038BD10B5EFF311842E
:10524000202383F31288BFF36F8FFDF707FF84F3EA
:105250001188BFF36F8F10BDFDF700BFFDF7D4BEFF
:1052600008B5037C014613F0280F0CD183680BB1FD
:10527000FFF7B3FF0B7C084623F004030B74BDE873
:105280000840FDF7EBBE08BD38B50446EFF31185C5
:10529000202383F31288BFF36F8FFEF7E1FA18B96A
:1052A000A4F11800FFF7DCFF85F31188BFF36F8FBF
:1052B00038BD0846FDF712BF38B505460C46FEF767
:1052C000F3F8B4F1FF3F08BFB5F1FF3F0AD00A235E
:1052D000A0FB0303B0F1004F73F1000301D36FF0A3
:1052E000004038BD4FF0FF30FBE708B50246FEF73F
:1052F000CDF970B1D0E904319B1A61EBE272B3F1E0
:10530000004F72F1000104DA002AACBF18460020F9
:1053100008BD6FF00040FBE708B5FEF721FB08BDB4
:10532000FEF71EBB0A44914200F1FF3300D17047E3
:1053300010B511F8014B914203F8014FF9D110BD9E
:10534000884210B501EB020402D98442234607D8F3
:10535000431EA14207D011F8012B03F8012FF8E7F3
:105360000244824200D110BD13F8011D02F8011D54
:10537000F7E703460244934200D1704703F8011B4C
:10538000F9E710B501390244904201D1002005E04F
:10539000037811F8014FA34201D0181B10BD013052
:1053A000F2E7F0B504460846C2F13705EDB202F067
:1053B0001F02B4FBF2F6274602FB1641CBB20929C5
:1053C00084BF5B19DBB23033BA42344600F8013B8C
:1053D000EFD9F0BDD1E9043293421EBF5A1C0A61D5
:0453E000187070478A
:1053E40000000000DC54000000000000C054000075
:1053F40000000000A45400000000000088540000D5
:10540400000000006C54000000000000145500006F
:10541400000000003055000000000000F8540000B7
:1054240000000000845500000000000068550000E2
:10543400000000004C55000045240000000000005E
:105444008D2700000000000000000000A0550000AF
:1054540000000000D855000000000000BC5500000A
:0854640031020000000000000D
:10546C004B930000E85900000C570000B2000020DC
:10547C0060100020AB4400000000000059930000B5
:10548C000C5A00000C570000B40000206C100020D7
:10549C00AB4400000000000067930000305A00008D
:1054AC000C570000B600002078100020AB44000020
:1054BC000000000075930000545A00000C570000C7
:1054CC00B800002084100020AB4400000000000055
:1054DC00C2930000AC5A000054570000C0000020DA
:1054EC00000000000000000000000000839300009A
:1054FC00785A000030570000BA00002090100020AD
:10550C00C14600000000000098930000845A00007F
:10551C0030570000BC00002098100020C14600004D
:10552C0000000000AD930000905A000030570000BE
:10553C00BE000020A0100020C146000000000000AA
:10554C00E6930000B85A000064570000C200002027
:10555C002C0000205B49000000000000F4930000C8
:10556C00D05A000064570000C400002050000020F6
:10557C005B4900000000000002940000E85A0000A3
:10558C0064570000C6000020740000205B49000036
:10559C0000000000536B0000C0590000F4560000DE
:1055AC00B000002024000020D924000000000000DE
:1055BC000A6B00009059000000000000AC000020B5
:1055CC00D00700209923000000000000186B000099
:1055DC00A859000000000000AE000020E8070020E1
:0855EC009923000000000000FB
:1055F4008455000079480000845500007948000073
:10560400685500007948000068550000794800009A
:105614004C550000794800004C55000079480000C2
:10562400C05400000F450000A45400000F450000C2
:10563400000000002341000000000000234100009E
:10564400000000002341000000000000234100008E
:10565400000000002341000000000000234100007E
:10566400000000002341000000000000234100006E
:10567400885400000F4500006C5400000F450000E2
:10568400000000002341000000000000234100004E
:10569400000000002341000000000000234100003E
:1056A400000000002341000000000000234100002E
:1056B400000000002341000000000000234100001E
:1056C400000000002341000000000000234100000E
:1056D40000000000234100000000000023410000FE
:1056E40000000000234100000000000023410000EE
:1056F40095240000DD25000035250000BD43000091
:10570400B1430000A543000081450000C3430000ED
:10571400CF430000E1430000EF430000FF430000DB
:105724000D44000057440000000000008B450000B9
:10573400FB4500000D4600003B46000065460000A6
:1057440091460000BB46000000000000000000007D
:10575400EF460000F54600002547000055470000CD
:10576400754700008B4700000000000000000000A7
:105774000000000099470000B9470000B748000046
:10578400D94700000348000085480000174800007E
:10579400414800004548000059480000AF49000056
:0C57A4005B48000000000000714800009D
:1057B000C45D000004000000215D00000400000042
:1057C000665D000004000000E55C000004000000CD
:1057D0008A69000004000000F99400000400000041
:1057E000ED5C000004000000CE9300000400000007
:1057F000246B000004000000896400000400000025
:085800005B5D000004000000E4
:105808000204000000000000191100004B400000D5
:105818000100000002000000040000000000000079
:105828000000000000000100A05500000100000079
:105838000000010000000800A05500000200000060
:105848000000090000000800A05500000300000047
:105858000000110000000400A0550000982F8A42A3
:1058680091443771CFFBC0B5A5DBB5E95BC25639AA
:10587800F111F159A4823F92D55E1CAB98AA07D8C2
:10588800015B8312BE853124C37D0C55745DBE72E5
:10589800FEB1DE80A706DC9B74F19BC1C1699BE465
:1058A8008647BEEFC69DC10FCCA10C246F2CE92DF5
:1058B800AA84744ADCA9B05CDA88F97652513E9819
:1058C8006DC631A8C82703B0C77F59BFF30BE0C620
:1058D8004791A7D55163CA0667292914850AB727AE
:1058E80038211B2EFC6D2C4D130D385354730A654B
:1058F800BB0A6A762EC9C281852C7292A1E8BFA222
:105908004B661AA8708B4BC2A3516CC719E892D189
:10591800240699D685350EF470A06A1016C1A4190C
:10592800086C371E4C774827B5BCB034B30C1C390B
:105938004AAAD84E4FCA9C5BF36F2E68EE828F74CA
:105948006F63A5781478C8840802C78CFAFFBE90E4
:10595800EB6C50A4F7A3F9BEF27871C600000020E2
:105968000000000000000B0602000000785900004B
:1059780000000000666A00002A0002020000002001
:105988006E6A000022000B11DC54000000010000C8
:1059980010000000000000000000000000000000EF
:1059A800DC540000000000000001000000000000BE
:1059B800000000000000000098160020E0590000D8
:1059C800D85900000000000000100000000020006E
:1059D80000020000001000000400000000000000A9
:1059E800FFFFFFFF00300140F94400000000000005
:1059F80000300140000100000030014000020000BA
:105A080000300140FFFFFFFF00200140E344000099
:105A180000000000002001400001000000200140BB
:105A28000002000000200140FFFFFFFF00100140BE
:105A3800CD440000000000000010014000010000FB
:105A4800001001400002000000100140FFFFFFFFAE
:105A580000000140B74400000000000000000140C1
:105A680000010000000001400002000000000140A9
:105A7800FF0300004C80024000000000030000000B
:105A8800088002400100000003000000008002407E
:105A980000000000C0540000A45400008854000016
:105AA8006C54000000FC3F2000040000C8000020E7
:105AB8000060004040787D01C85A00003549000068
:105AC800D05A0000000000000050004040787D01DE
