:10000000A8270020A11E00005F6E00008D1E0000CA
:1000100000000000000000000000000000000000E0
:10002000000000000000000000000000D91E0000D9
:10003000000000000000000051200000000000004F
:10004000F1200000F1200000F1200000F12000006C
:10005000F1200000F1200000F1200000F12000005C
:10006000F1200000F1200000F1200000F12000004C
:10007000F1200000F1200000F1200000F12000003C
:10008000F1200000F1200000F1200000F12000002C
:10009000F1200000F1200000F1200000F12000001C
:0800A000F1200000F120000036
:1000A80002B4714649084900095649008E4402BC09
:1000B8007047C04602B4714649084900095C4900C6
:1000C8008E4402BC7047C046002934D00123002268
:1000D80010B488422CD301242407A14204D28142BF
:1000E80002D209011B01F8E7E400A14204D28142CF
:1000F80002D249005B00F8E7884201D3401A1A434C
:100108004C08A04202D3001B5C0822438C08A04282
:1001180002D3001B9C082243CC08A04202D3001B38
:10012800DC082243002803D01B0901D00909E3E7B2
:10013800100010BC704701B5002000F05FF802BD48
:100148000029F8D003B5FFF7C1FF0EBC4243891A56
:100158001847C046002941D010B404004C40A446BA
:1001680001230022002900D54942002800D5404239
:1001780088422CD301242407A14204D2814202D20E
:1001880009011B01F8E7E400A14204D2814202D22E
:1001980049005B00F8E7884201D3401A1A434C082B
:1001A800A04202D3001B5C0822438C08A04202D361
:1001B800001B9C082243CC08A04202D3001BDC0889
:1001C8002243002803D01B0901D00909E3E71000E6
:1001D8006446002C00D5404210BC704701B5002091
:1001E80000F00CF802BDC0460029F7D003B5FFF7B0
:1001F800B3FF0EBC4243891A1847C0467047C04631
:100208001C2101231B04984201D3000C10391B0A3E
:10021800984201D3000A08391B09984201D3000902
:10022800043902A2105C40187047C0460403020259
:1002380001010101000000000000000041420840E7
:100248001C2101231B04984201D3000C10391B0AFE
:10025800984201D3000A08391B09984201D30009C2
:10026800043902A2105C401A7047C0461B1C1D1DB1
:100278001E1E1E1E1F1F1F1F1F1F1F1F02780B7809
:10028800002A03D0013001319A42F7D0D01A7047C2
:1002980003000A7801311A700133002AF9D1704736
:1002A8000023C25C0133002AFBD1581E7047F7B502
:1002B800040C0D0091B20F0061438C4606000193B7
:1002C80083B2100C5F43444358433B0C60441B18F3
:1002D800994202D980214902641801995543714312
:1002E800180C04191B04BFB24919D819091903B00D
:1002F800F0BD000073B501250F4A104C104B019258
:1003080004212A002000009506F083FD0D4E031EEF
:1003180004DA0D4A2900300006F05BFC03213000A6
:100328000A4A06F04FFC6420002105F04BF9A36946
:100338000133A361F7E7C046F48D00009809002057
:10034800939500000C8C0000028E0000278E0000A0
:10035800F7B500AF7960002900D173E005680C1F7C
:10036800641BE408E300EB18598801223B600B008A
:100378001340114215D16E4688B06A46324905913C
:100388007968069103210491C2213048103249014D
:1003980001F042F9B54662B6BFF36F8F0423181C0B
:1003A80002DF2100280005F086FF2018C3005B5BF0
:1003B800C01A844216D06E4688B06A46244B05930C
:1003C8007B68069303230493C22100231F4810323D
:1003D800490101F021F9B54662B6BFF36F8F0423D6
:1003E800181C02DF01223B6839685B8828009343A8
:1003F8004B80210005F05FFF01222618F300EB185F
:100408005B88134208D13100280005F09BFF3200B9
:100418002100280005F0E4FF3B681E88A61BF300B6
:10042800EB185B88DB0709D43100280005F08AFF48
:1004380022003100280005F0D3FF340021002800F5
:1004480005F03EFFBD46F7BDA68E0000048C0000F7
:100458007D8E0000F0B597B0049304230A921A40E9
:100468000A9B0B92DA0807231A40013207001C9EE8
:1004780002910D92820700D0BEE1041D002851D1DF
:100488000A001A401300141D0822D31A0293049B71
:100498000425013B0693002307930C9305930193CE
:1004A800013B08930395002F01D0049B23600D9B0B
:1004B800002B00DDEDE09C4B049A9A4203D39B4B42
:1004C8009A4200D2E5E002220A990A98E31B1140F9
:1004D800104200D0EAE00A0005990F2900D9E3E0AC
:1004E800002F00D1E8E09B08DBB29C46080061467B
:1004F8000EAB1954059B089912A8C154002A00D1C3
:10050800D6E08022634652421343059A0EA98B54C3
:10051800079B01330793059B01330593069B04341E
:10052800013B09E0029B072BB1D81C204042F8E0B0
:1005380008250395069B01330693069B98780028A7
:1005480000D1E4E0019B002B08D12528F2D1089BBB
:1005580001330893012301930425EAE77A284FD849
:100568004B2813D847284BD8292831D8252844D0D8
:10057800002301932528DDD803002038233B5A4265
:1005880053414242504103430193D3E74C382E284C
:1005980036D8FFF785FDCF35353535353535353521
:1005A8003535373535353535353535623537376293
:1005B8006262CF37CD35CF3518371835357AE13700
:1005C80035353735E100002309930425019327E0E9
:1005D80001210B002A38C0B28340554A1342A9D1E1
:1005E800E222180092051040134236D11A000A4040
:1005F80001920B429ED0099013E0089B013B08939F
:100608000023C1E70022069B09925B7801926C2BBC
:1006180007D10425069B03951B786C2B01D16D1916
:100628000395013C60192900FFF74EFD684304005B
:10063800002F06D0039B029ADB1B1B18934200D99C
:1006480073E7099B002B49D0069B023306930D9B49
:10065800013B0D9308CE049325E7072107368E4307
:1006680064188C430CCE002F08D00131C91B0298A6
:100678000919814200D958E72260636000230825E0
:1006880001932B000834039354E7019B099300233B
:100698009BE70A9B9B0700D440E70122E31B8021CC
:1006A80089008B4200D217E716203FE70022F6E7C1
:1006B8000C9B01330C932EE7029B002A02D00133D6
:1006C800029328E7023302930B9B002B00D022E70A
:1006D8000498FFF7E5FD029B1B18F1E7039B042B29
:1006E80007D1331D002F01D0326822601E00043468
:1006F80020E70722F31D93431E000836002F03D07E
:100708001A685B682260636008230834BBE78022AC
:10071800E31BD2009342C7D2002F0BD102980838AE
:10072800C01817B0F0BDC04694890000909600002C
:10073800DAFF00009B08302238603B706B469B183C
:100748000B9A1B78002A0BD0FB70079BBB70002B01
:100758001AD100250EAE059BAB421CD1E01BE0E789
:100768007B70F2E7C656195C002E08DA6546294008
:10077800029D1619AE4200D9D7E621700134013323
:1007880005999942EED1E4E77F2294467E3A002308
:100798000EA8D21BF4E7079B002B02D033787F2BDF
:1007A8001BD80B9B002B1BD012ABEB5C23700023D8
:1007B800013401930123019ADB1B1B199B18029A30
:1007C800934200D9B1E63378019A237001342000AE
:1007D800049908F01AF8019B1C1901350136BAE78B
:1007E80033789B00FB181A6804920B9A04981A60D5
:1007F800FFF756FD431CDCE70E2097E6F0B59BB0EB
:1008080000AFF863F9623A63BB6200290BD1047840
:100818008378A400E41845780419FB6A9D4227D818
:10082800FB6BE31AFB62FB6B80219B787A18BB6336
:1008380001231268BD6B1A40FA616A1E9541FB6973
:100848001D40FB6BDB787B62002B03D07B181B6899
:100858009B0717D4002D15D13B6B002B03D0BA6A28
:10086800F96AF86B9847FE6A3000BD461BB0F0BDC8
:1008780001342000FFF714FDFB6A0130013324180E
:10088800FB62CAE78023FA6BFB1894461B681B07B8
:10089800DB0FBB61FB6B1B78BB609B003B61FB6B99
:1008A8005B68FB603B6963443B623B6B002B00D099
:1008B80096E0BA6B3B6A944663441A00FE6A7B630F
:1008C800002D08D03C6A3D6B7B6B9C424CD1BB6BC6
:1008D8003A6A9C4662448021052379180968BA63FC
:1008E8000B4059424B410133BB6200237B637B6B56
:1008F8007A6A9342B8D2BB6BFA6B5B789B009B58C1
:100908003B633A6BBD4B9A4200D26BE1BC4CBB696E
:10091800A242A4416442002B3FD0BB6BF8681B780D
:100928001900FB6205F039FE002836D06C468AB003
:100938006A46B44B0593FB680693FB6A07938023CA
:100948009B001384B04B049392210023AF481032CC
:10095800890100F061FEA546023E7B6B01337B6393
:10096800BB6B0233BB63C2E72378FA6B9B009858D2
:10097800FFF796FC8422BB181B680130002B09D0B6
:100988008823FB181B689D4204D2BA1812686B00B2
:10099800985201353618013496E7002C05D0FB69CA
:1009A800002B08D1BB6AF61AD7E780230222FB186E
:1009B8001B681342D1D0386BFFF772FC84217B1877
:1009C8001B68002B0AD08823FB181B689D4205D2A0
:1009D800791809686B00421C5A5201353618BCE771
:1009E800BB6B7B63002D6DD11C1E0FD08023FB18C1
:1009F8001B682C007D635B0708D518234022BC6B5D
:100A08009B18D819BA6B396A07F0FFFEBA6B3B6AB4
:100A1800944663443B603B6200237B617B697A6A4E
:100A2800934255D3FB6B00215D787B6B5A19802369
:100A3800FB181B68D2B29B0700D461080023F86931
:100A4800984205D18033FB181B685B07DB172340EE
:100A5800F86B42708370C170BA6A39693B6B98470A
:100A6800061E00DA00E7FB6BBA6840201A70BA6B02
:100A78005D709A707A6A2100DA7018231B18D819E9
:100A8800BA6A3B6B9847041E00DAA7E07B6ABA6A29
:100A980058003B691918BB6BC918FB6A591A3B689F
:100AA80018183B6B9847002800DA99E0002536199A
:100AB80036187B6B9D425ED30021BA6A08003B6BF7
:100AC8009847D1E6082340229B180024D81999E7B3
:100AD8003B6AFA6B1B787B603B6A5E78B3009D5873
:100AE800464B9D4200D283E0454B9D42AD41BB69D8
:100AF8006D42002B05D07968F86805F04EFD002896
:100B08001CD1002D21D0FB69002B0AD008227B6B59
:100B1800013340215218796BD219DBB256547B63EA
:100B28000CE080230422FB181B68134206D04021E6
:100B380014325218631CD2191655DCB27B69013382
:100B48007B613B6A02333B6268E780230222FB1821
:100B58001B68134203D07B6B06320133D9E740216F
:100B6800182252187968631CD2191155DBB2023465
:100B7800E4B2D654E2E7402208239B18DB19EB5C69
:100B88000732B818FA6B03709B009B588422BB632A
:100B9800BB181C68002C09D08823FB181B6800248C
:100BA8009D4203D2BA1812686B00D45A0121BA6A5E
:100BB8003B6B9847002813DB3618002C04D1B86B20
:100BC800FFF76EFB013084B22100BA6AB86B3B6B49
:100BD8009847002804DB361801356AE7060043E623
:100BE800060041E6BB69002B00D1DEE6002494E64E
:100BF800BB69002BA9D000257DE7C0469489000079
:100C080090960000D38E000004000001A48B000021
:100C1800014B18607047C04630000020F7B504004B
:100C28000D001E00019204F0E5FC030001F06CFACF
:100C3800054F32003B5001992800A04701F064FAA3
:100C4800385801F0E5F9C0460800000010B5EFF388
:100C5800108372B601F080FB024805F0C0FC06F074
:100C68001BF9FCE7878F0000F0B585B01E000A9BD2
:100C78000F0014000190002B02D11360002019E02E
:100C880003210A98FFF720FA032105000A98FFF7C5
:100C980057FA4B1E994180234919DB0599420BD21B
:100CA80089000131B94202D8019B002B07D10C20E1
:100CB8002160404205B0F0BD01214942F7E7032316
:100CC80000206B43019903933300254E039D0A00CE
:100CD800A84226D30A9DA8421DD20A9E01300025AB
:100CE8001A78B04200D25D781D4B96109E5D1201B5
:100CF8000E70302632409A182E11925D0A9E4A7064
:100D08003D22B04203D2013AAD0015405A5D3D2361
:100D18008A70CB700A1D019BD31A236000231370BD
:100D2800ACE71D785A789F780292AA10B25C2D0120
:100D38000A7030221540029A75191211AD5C029A98
:100D48004D703C2592002A40B218BD11525D033007
:100D58008A703F221740F25D0333CA700431B5E749
:100D680019960000F0B500240F002500210085B079
:100D78000192454A009002920A9A954218D3002996
:100D880032D10020019B196005B0F0BD01300A9AEC
:100D9800904227D01E5C202EF8D0121A012A09D0C2
:100DA8000D2E07D11A1852780A2A05D1451CE3E7F7
:100DB8002800ECE70A2EF9D0A84204D13D2E04D130
:100DC8000134022C04D916202DE075B2002DFADB6F
:100DD800029A955D7F2DF6D03F2D01D8002CF2D1D7
:100DE8000131E3E70500CAE70720062608407043FB
:100DF800C9084E430730009AC008361B8019002ADC
:100E08000ED0B8420CD800205A1903240500944685
:100E18001D4A00990292634507D1009BC91AB0E7A1
:100E2800019B18600C204042AEE71F783E000A3E46
:100E3800F6B2162E05D8154AF240160001221642BF
:100E480016D1029A8001D65D01353700403F3A003D
:100E5800574257413F221640E41B3043042D07D127
:100E68000025AC4204D0060C0E70012C02D10131D1
:100E78000133D0E7060A4E70022C01D10231F7E7A0
:100E880088700331F4E7C0469995000009004000D6
:100E980000220B4B70B51A60A8230A4A0A4CDB00E3
:100EA800D05825680949401BFFF70EF9074B434303
:100EB8005B192360EFF3108172B604F0D5FD70BDA5
:100EC8004081004000800040B40900201027000045
:100ED800A223042210B5124CDB00E250A122032306
:100EE800D200A15808200B43A3500121002201F091
:100EF8001DF8082001F000F801230020094A80218C
:100F080013602360084B094A1860C02349005B003E
:100F1800D15080228533FF335202E25010BDC046C3
:100F2800008000400C8000404081004000E100E06B
:100F3800F7B5431C58D00023012856DC0122314F55
:100F4800314C324E32493A600968A2590191521A1D
:100F5800D143304DC9170B406B43521929009818DB
:100F6800FFF7B2F845432C4B9D4200D91D00019B69
:100F780080225B190193C22352029B00E250012395
:100F8800A82200213B60D200A359244DA058296013
:100F9800C01AA350012803D107F097F800232B604B
:100FA800C02380221E495B005200CA50803BFF3B91
:100FB8003B60019AA359D11AA822D20001291DD158
:100FC800981CA0503960A059984214D1C12380229E
:100FD8009B005202E250002380222B60104981338B
:100FE800FF335200CA50F7BD0E480F4B984200DD40
:100FF8001800431EA2E73960A359E1E7019BA350FB
:10100800E4E7C046448000400080004044050000FA
:10101800B409002010270000B0CAFF7F40810040BB
:1010280000E100E0DB460300DC46030010B5EFF307
:10103800108472B60122084B08491A60084B094A05
:10104800D058094B1B68C01AFFF73EF8002C02D194
:1010580062B6BFF36F8F10BD4480004010270000B8
:101068004405000000800040B4090020EFF310831D
:1010780072B60121054A11600549064A8858002BB5
:1010880002D162B6BFF36F8F7047C04644800040FC
:101098000080004044050000F7B505000600280060
:1010A800FFF7CCF801238340DA430F4F04019D4337
:1010B8003B1901931B7B0092002B0CD0E3591B6951
:1010C800002B0CD1009B3C191E4063680322196851
:1010D800019805F03AFD002DE1D13000FEBD381928
:1010E80098470028F7D1EDE72C8C0000F0B50022D6
:1010F80089B00F490F4807F03AFB00240026002763
:101108000E20C0220C4D03900696079728000B4B23
:101118000B490494029401940094920004F04AF854
:101128000849280007F0ADF9200009B0F0BDC04615
:101138005111000058060020C80100206114000069
:10114800280B0020BB8F000010B5024803F008FEF2
:1011580010BDC04684010020F7B500901F480191DA
:1011680005F0DAFC061E35D000252800FEBD237BDD
:10117800002B11D02368DB68002B01D02000984792
:1011880063689F7123681B69002B1BD16368032266
:101198002000196805F0D9FC01361034104B9C4228
:1011A800E5D3009B002BE0D0002DDDD02800FFF711
:1011B80073FF019B0500002BF6D00021012004F0ED
:1011C80001FAF1E7200098470028DFD03B00B34040
:1011D8001D43E1E705000127024CDFE7C8090020AD
:1011E8003C8C00002C8C0000014B8000C0587047DC
:1011F8005C8C0000030010B50800002B05D0044AE1
:10120800136000F08FFC002010BD16204042FBE761
:101218003400002010B5054C2378002B02D1044877
:1012280003F09EFD0123237010BDC0461C0B002057
:101238008401002010B50400074805F06DFC002C5F
:1012480003D00121054807F0BEFA054804F04CFD1B
:10125800044803F085FD10BDC0090020C409002022
:10126800580600208401002010B50021014807F02D
:10127800B7FA10BDC009002070B5FFF7F5FF0500EB
:10128800084C094B9C4200D370BD63685B79002B06
:1012980006D023685B68002B02D0290020009847FD
:1012A8001034EEE72C8C00003C8C000010B5044C88
:1012B8000449200005F09DFA034B1C6010BDC04690
:1012C8002C010020488C0000B809002000230D4A9A
:1012D80010B513700C4A0D4913600D4A0D48136080
:1012E800FFF788FFFFF7E2FF0B4B0C4918008B4212
:1012F80000D310BD1A1A5C68121101322271103322
:10130800F5E7C0461D0B0020C009002040420F0031
:10131800C4090020196B00002C8C00003C8C0000D4
:1013280010B5044C010000220023200005F082FAC9
:1013380010BDC0462C01002010B5024805F014FB72
:1013480010BDC0462C01002010B5034B01001868E1
:1013580005F063FB10BDC046B809002010B502486F
:1013680005F094FB10BDC0462C01002070B5224B3F
:101378001878002829D0FFF7DFFF204C051E2FD151
:101388001F4B204C1B68002B11DD07F0A4F90A2223
:101398000023FEF78CFF22686368801A99410029B0
:1013A80003D1FA239B00984201D9FFF765FF226811
:1013B8006368FA200021800012184B410020226047
:1013C8006360854201D0FFF7C9FF70BD63685B7930
:1013D800002B04D02368290020001B68984710348C
:1013E800094B9C42F2D32800FFF7AEFF01210748C2
:1013F80007F0E9F9C4E7C0461C0B00202C8C00005C
:10140800C0090020500600203C8C0000C4090020C0
:1014180070B50E4D297800290CD10120FFF79CFEEC
:101428000B4C0C4B9C4206D3FFF7A0FF0028FBD1C6
:1014380001232B7070BD63685B79002B03D0236890
:1014480020009B6898471034EBE7C0461D0B00202E
:101458002C8C00003C8C0000F7B500210800FFF739
:101468007BFE041E2CD00527002600F04DFE1D4BE8
:101478001D4A1B581360002B06D01C4B1B68092BF8
:1014880002DD1B4803F06CFC00230093002C07D0FE
:101498002000FFF701FE041E02D101277F423E0013
:1014A800FFF764FF0190002808D1009B114D002B25
:1014B80013D10F483A00330003F084FC019BE4E7A2
:1014C80001277F423E00D0E72B689B69002B03D0A1
:1014D80000222800110098471035074B9D42F3D38E
:1014E800E7E7C04608000000BC090020C409002046
:1014F800840100202C8C00003C8C000013B515489A
:1015080005F00AFB144B1B78002B0AD0EFF310846C
:1015180072B6FFF72BFF002C02D162B6BFF36F8FB4
:1015280013BD0E4B1B68002BFAD0002809D10022EE
:1015380000230B48009201936422002304F09EFBD1
:10154800EEE70928ECD1064804F0CEFB054803F085
:1015580007FCE5E7C40900201D0B0020BC0900209A
:10156800580600208401002010B5064B04001B68B3
:1015780098472100A060044805F0DAF9FFF7BEFF9C
:1015880010BDC046340000202C010020044B054A41
:1015980000209B1ADB08994201D2C900885870477D
:1015A8002C8C0000A48B0000F0B55E1C85B0B50043
:1015B80000902800072317309843033080080F0055
:1015C8000192FFF7ADFE02AB04000322581D002173
:1015D80007F036F903AB1E70002C0BD0039B2100DB
:1015E8002361002314312A1F0198C058C8500433BE
:1015F8009342F9D1E023BA015B001A406D02054B12
:101608002A431A4020000023009905F0C2FA05B0C9
:10161800F0BDC046C0FF0F00F0B591B004AF3B600D
:101628000B035B0D0E0078607A613B610C0D002B9B
:1016380000D172E0BB6018220C239B18DD1900232F
:101648007B626B60AB60043302939B18FB180193B9
:101658000A23009300222B00B9687869FFF7CEF8B7
:101668008023F8601B01984224D37B696C461A7961
:101678005B798AB01B0213437A69927912041A4380
:101688007B69DB791B06134304AA9361284B29491C
:10169800D36180239B001384274B516113619221EE
:1016A8000023264810328901FFF7B6FFA546BD463C
:1016B8000DB0F0BDFB6817345B055A0D3A61204A3E
:1016C8001B0B16401E43FB68E018072398430330A2
:1016D8008008FFF725FE041E13D0030010337B6239
:1016E800FB68184A6B600023AB600433029318331D
:1016F800FB1801930A230093B9682B007869FFF758
:101708007DF83B690E4A5B0216401E4332002000FA
:101718003B68796805F03DFAC9E7200007231730D0
:10172800984303308008FFF7FBFD0400E9E7C04653
:10173800FF070000D08F000004000001B48B0000F8
:10174800FF01F0FF696B0000F0B587B00E9E050041
:10175800140002910393002E15D00F9B10210593BE
:101768000093002033000D9AFEF774FE80230700D3
:101778001B01984209D30221174A1848184B05F053
:1017880028FA07B0F0BD3700300007232A001C40B4
:101798001A40D200A40114430C9A400204431205D3
:1017A80014430C9D1735E819984303308008FFF758
:1017B800B7FD051E09D0002E07D00F9B39000093F6
:1017C8000D9A33001030FEF745FE22002800039BD7
:1017D800029905F0DEF9D4E70F900000B48B000001
:1017E800FF0700004068002804D0044BC01AC00856
:1017F80000B2704701204042FBE7C046A48B0000BE
:101808000EB417B5054C05AB04CB010020000193BD
:1018180000F080FC1EBC08BC03B01847236C000015
:1018280010B5CB0604D4890603D50349FFF7E8FFB2
:1018380010BD0249FAE7C0464890000047900000F2
:10184800F0B591B01F0018AB1B7804000D0008928A
:101858000593002B00D199E002261C9B1C9A1E4080
:1018680001231A400A921C9A07331A400B921C9AB9
:10187800F8331A400E9205F066F900230200069329
:10188800984204D020007D49FFF7BAFF0690002E49
:101898000BD044231C9A1A423CD12A0020007849D4
:1018A800FFF7AEFF069B1B1806930A9B002B0AD076
:1018B800059A744B9200D258002A00D1724A20002F
:1018C8007249FFF79DFF0E9B00255A4253415B4228
:1018D8001F400B9BAB4208D0059A6D4B920020002D
:1018E8006C49D258FFF78CFF0500089B002B05D0E8
:1018F8001A0020006849FFF783FF2D18002F05D034
:101908003A0020006549FFF77BFF2D18069BED186C
:1019180063483FE00020634B1E688642C2D0624B9A
:1019280028001968FEF7D0FBFA253100FEF708FCFD
:10193800AD006943079008003100FEF701FC0D91E6
:10194800E1210C9009010798FEF7FAFB0991099823
:101958003C21FEF7B9FBE1210F9009010798FEF73A
:10196800B3FB07900D9831006843FEF7ADFB0C9B65
:1019780002903C2109980193FEF7E2FB20000091B8
:101988000F9B079A4949FFF73BFF8BE74848059D9E
:10199800012FBDD0199B002B03D02200454904F02C
:1019A800C8FD1B9B002B54D01B9F102F00D910275C
:1019B80020001C99FFF734FF0026B54219DC0026E9
:1019C80033001A9A2000D25C3B49FFF719FF013611
:1019D800102E14D007231E4203D120003749FFF7E9
:1019E8000FFF3300BE42ECD320003549FFF708FF54
:1019F800EDE720003149FFF703FF0136DDE7002658
:101A080020003049FFF7FCFE33001A9AD25C13001D
:101A1800203B5E2B00D92E2220002B49FFF7F0FE39
:101A28000136102E0ED007231E4203D12000234971
:101A3800FFF7E6FE3300B742E7D820001F49FFF75B
:101A4800DFFEEDE71A9BDB191A931B9BDB1B1B932D
:101A5800A8E7059B002B0BD01C9BDB0704D52000B7
:101A6800094A0A49FFF7CCFE20001C99FFF7D8FE67
:101A7800200005F0C6F811B0F0BDC0464F90000038
:101A8800539000006C8C00004A90000033930000D3
:101A9800808C0000789000007E900000829000000A
:101AA800236C0000D0090020CC0900205C900000C5
:101AB800496C00001D210000879000008F900000F5
:101AC8008D900000919000009390000073B5114A2A
:101AD80004000B000568914200D9130005216846EF
:101AE8000D4A04F07BF90600636828000B220B49B5
:101AF8005B6805F077F863683200280069465B6820
:101B080005F070F8636828001B2205495B6805F03A
:101B180069F873BD0F2700007B91000075960000DF
:101B280059960000012310B500211C00074A904275
:101B380007D8074A002900D101231360054B186014
:101B480010BD210040085B00F1E7C04640420F008D
:101B5800CC090020D009002070B50D0004004618FB
:101B6800B44201D1280070BD21780348013483684C
:101B78005B689847F4E7C046348A0000002802D121
:101B8800024B186870474069FCE7C046F809002016
:101B980070B50500064B1C68002C01D1200070BDF3
:101BA80029002068FEF76AFB0028F7D06469F3E78C
:101BB800F8090020F8B506000C0000230B4F3D681B
:101BC800002D05D1002B0CD13C6000202660F8BD0B
:101BD80031002868FEF752FB002804D02B006D69FD
:101BE800EEE75C61F1E778204042F0E7F809002071
:101BF80010B5034A03480021121A05F01EF910BD5A
:101C0800240B0020C80100200648074A10B5121A04
:101C1800064905F016F9064A06480749121A05F05A
:101C280010F910BD00000020C801002090960000A7
:101C3800000000200000002090960000F0B585B05C
:101C480000AF0C1EB86036D06E468AB06D46096883
:101C58006268A368089305232048069105900792B7
:101C68000493A1216A461E481032002389017A6034
:101C7800F860FFF7D1FCB546E168AD4622696369B3
:101C88002B6205231748A9616861EA612B61A121CC
:101C980000237A68F8688901FFF7BEFCB546E36956
:101CA8000121114AF86804F094FFA36901210F4A41
:101CB800F86804F08EFFBB68012B07D1EFF30583AA
:101CC8000B4A0748B968103B04F083FF2100B86845
:101CD80002F050FEBD4605B0F0BDC046D0900000F1
:101CE800FC8B0000FF9000002E9100003D91000049
:101CF8006B91000030BFFDE7F7B50A4B0A4D0600AF
:101D0800EF18CC1B2A0020000849019306F07DFD3E
:101D180060190021019A06F093FD3800083CB46769
:101D28000830FEBD0400000000000000488C0000E0
:101D3800F0B5424B8BB05B6800AF7B60DB05DB0D19
:101D480004003B6062B6BFF36F8F3D4D130EFF2B4F
:101D580008D1F33B1340082B45D101212800394A0B
:101D680004F030FF002634003B68032B41D1364A8B
:101D78000121280004F026FFA369344A934202D3C4
:101D8800334A934205D3334A934251D3324A93425A
:101D98004ED2023B1B88FF221800DF219043090224
:101DA800884245D11340022B42D1236801212800E3
:101DB8002A4A04F00EFF23687B600823FD182022BE
:101DC8002100280006F021FDEB69002E32D0DA054B
:101DD80002D1234A1343EB6129007868FFF72EFFED
:101DE800BD460BB0F0BD01261207BDD50C0000267C
:101DF800BAE7F822796852001A4B114200D11A4BFF
:101E08006A468AB07A606A4606933B681749103B6F
:101E1800079380239B0005911384154B049391210C
:101E28000023280010328901FFF7F6FB7B689D46E6
:101E38000023C1E75B0A5B02CDE7C04600ED00E086
:101E4800FC8B0000AC910000D7910000A8000000B6
:101E5800948900000000002000000020EE9100009E
:101E6800FF010000939100007E9100000A9200009B
:101E7800040000010821024A53698B4353617047EB
:101E880000ED00E0EFF30880EFF3098101B5724639
:101E9800FFF74EFF01BDC0460A4880F3088802F0EC
:101EA80051F972B608480949401880F30988EFF3D8
:101EB80014800221084380F31488BFF36F8F04F065
:101EC800D7FF0000A82700202816002000080000DF
:101ED80004207146014202D0EFF3098001D1EFF3EB
:101EE80008808169023909780229FFD001B5724654
:101EF80004F0ABFF01BDC04643B2000605D41F2263
:101F08001A4001239340014A1360704700E100E042
:101F1800054A43099B009B581F2210401E3A8240E5
:101F2800134018007047C04600E100E030B5FF25B7
:101F380003220B00290040B20240D20091409B01CD
:101F48002B40C943934000280ADBC0240A4A800872
:101F580080008018A40002590A401343035130BD81
:101F68000F2210400838054A800880008018C2698E
:101F780011401943C161F2E700E100E000ED00E023
:101F880010B5203A1360029B01245360039B064955
:101F98009360049BA143D36080235B04D361002337
:101FA80091610265C36710BD250C000070B50B4B2D
:101FB80015009860826F0A4B0E001A602C1C86F37D
:101FC80009880020034B9847201C00210022002389
:101FD800014C2047956E0000250C0000E40A002003
:101FE800FC0900201022014B1A61704700ED00E047
:101FF800054B5A699B689A4205D08023034A5B05C2
:1020080051680B4353607047E40A002000ED00E07C
:1020180010B50A4B9B6883420DD1EFF30583002B63
:1020280009D08022064B520559680A435A605A6AF9
:1020380004490A405A6203F0E3FA10BDE40A00209A
:1020480000ED00E0FF7FFFFF15498A68154810443E
:10205800EFF3098CF0C043464C4655465E4667464A
:10206800F8C072B6104F114E4A698A603E60104C33
:10207800141920680F4C2060D06F0023D367002804
:1020880000D162B6074C10191030F8C89846A1461E
:10209800AA46B346BC462438F0C88CF30988704772
:1020A800E40A00203000000004ED00E00000000811
:1020B80078000000FC090020F0B5C02400220326A7
:1020C800FF25A40010002F003040C00087400549BC
:1020D80093089B005B1819590132B94319511A2A00
:1020E800F0D1F0BD00E100E010B5EFF30583054A3B
:1020F800103BDB00D118496898588847FFF778FFEC
:1021080010BDC046508A00000148006870470000B2
:10211800FC090020F0B589B002AC07000D0001925F
:102128000021102220001E0006F08AFB0223A37063
:10213800054B32002000019903930697079503F099
:1021480077FE09B0F0BDC046AF6E000010B5024B77
:102158001B689847002010BD000A0020034B044A62
:102168001860022391780B4393707047000A00208F
:1021780040000020072310B50449054A9943054843
:10218800521A04F096F9002010BDC0462F3A0020DC
:1021980000400020040A002070B541690400867AD6
:1021A8000A4D00290BD0437ADB0706D42423734356
:1021B800EB18DB691B689B6898470023636124233D
:1021C80073432100E81806F0DFF870BDA401002071
:1021D800242210B5817A064B4A439B181A6A197D46
:1021E80003231B31801A9943FDF76EFF10BDC046CB
:1021F800A4010020242270B5847A064B62439B1800
:10220800DB699C685A680C601568FFF7E1FF60435A
:10221800281870BDA4010020F0B589B0050004A8F5
:1022280001931700079106F05AFA049B059C029344
:102238000394EFF3108672B66B8A002B47D02A8A74
:102248009A422AD900220023280002F05BFD041ECE
:1022580023D0002E02D162B6BFF36F8F079B002BED
:1022680045D0029A039B04A806F05AFA2422059B3B
:10227800049F0193A17A264B4A439B18DB693A00D5
:102288001B6820001D6807A9019BA84760610028FA
:102298002ED12000FFF780FF25E0698A4B1E6B8254
:1022A800002E02D162B6BFF36F8F03232A7D2C6AFA
:1022B8001B329A432B8A5B1A5343E418144B154A72
:1022C800EB1A9B105343A3722B7DE372C6E7002ED3
:1022D80002D162B6BFF36F8F3A002800019B02F06B
:1022E80011FD041EBAD10024200009B0F0BD6361BD
:1022F8000123002520002381079B29006382E27ABD
:102308006560183006F09CFA63692582E360EBE7A4
:10231800A4010020398EE33870B52424002800D1A8
:1023280070BD037A4568002BFAD0013BDBB203721B
:10233800002BF5D1827AC36062434360054B9B183A
:102348009B69002B02D098472800E7E7FFF724FF96
:10235800FAE7C046A4010020BFF34F8F034B044A9D
:10236800DA60BFF34F8FC046FDE7C04600ED00E0DE
:102378000400FA0510B5064C064B9C4201D3002018
:1023880010BD2368002B00D098470434F4E7C046FA
:102398003C8C0000488C0000084B0200186800289C
:1023A80002D00368002800D1704741899142FBD0D0
:1023B800191E00D0196818000B00F3E7100A002056
:1023C8000A4B01001B68181E03D01A68002B01D1A4
:1023D800180070475889884205D0101E00D0106830
:1023E80013000200F2E7D868F3E7C046100A00209D
:1023F80000230360044B5A68002A02D15860186011
:10240800704710605860FBE7100A002070B50A4B4F
:10241800050018680E00002802D00468002800D1C2
:1024280070BD3100A8470028FAD0231E00D02368C9
:1024380020001C00F2E7C046100A0020F0B595B055
:10244800070006910822002110A806F0F9F9069B5A
:102458001B8A002B0CD11C0005933968069804F0E0
:10246800BAFE0598396804F0B6FE200015B0F0BD34
:10247800072B00D82EE1069B10AEDC68082221004D
:10248800300006F0C2F9637922791B0213430C93DA
:10249800A379A2780D93E37908210893E3781B02C6
:1024A80013435BBA9BB209930C9B5BBA9BB20A932A
:1024B800069B0C3318000B9304F00CFD069B099A3D
:1024C8001B8A934200D209E1052405223378079339
:1024D8001C40134200D003E13968069804F066FEF8
:1024E8000590002800D1FDE001227868069B0521AF
:1024F80008C01B8A0092069A02940194D26805F0DB
:10250800F5FC0599B86804F00AFD3378BD68DB0668
:102518009A0FEC640F92002B00DAD7E00A98FFF7C5
:102528003BFF002800D1C1E0089904F0E7FC00282F
:1025380000D1BBE033785B075E0F002B4AD0022E38
:1025480061D003240599B86804F0E9FCBD6802214C
:102558002E1D300005F086FD002800D0A8E00023DD
:1025680007930221300005F089FD079B034200D143
:1025780073E72E686868F36810A9C01A08235B42DD
:102588009C460B78032284445B0700D1023A097801
:10259800C9068B0F00D00123DBB2DB001A43634668
:1025A800002512A95BBA4B800A9B30825BBA8B80EC
:1025B800B8680D9B00688B71089B0D80CB710A7001
:1025C800C068082206F021F93B6805981B6A9847FD
:1025D800059542E70468002C68D0B8680F210430DC
:1025E80005F040FD00280CD03800A0470400B8686A
:1025F8000F21043005F042FD0E90002805D1002C73
:10260800A0D107249EE74468E5E7002C9AD12B0067
:102618004E331C88002C1AD01823079A1A4216D158
:102628004C352888FFF7CCFE031E51D02000984770
:10263800041E30D00E9B002B00D10EE7059B002B0B
:1026480000D07FE70022069B069205937AE72A6866
:102658006B68D1685B1A13822B6803221B8A083BBC
:10266800002E00D1023A00200F9C12A9E400224358
:1026780008800A701A0AD2B21B0213434B800C9BC3
:10268800B8688B800D9B00688B71089B0822C06816
:10269800CB7106F0BAF83B6805981B6A9847041E88
:1026A80022D109990B9804F015FCD0E6082449E7D3
:1026B800022230000E4905F0BBFC002800D14EE78D
:1026C8002100300005F0A1FC07904AE70D2439E706
:1026D800012437E7002309240593BEE60924B1E75E
:1026E8000824AFE70224ADE700230593A2E7C0461C
:1026F8003892000070B504000E0015000120002A71
:102708000DD02300483319805A802000032217492E
:1027180005F08EFC002803D100200123184070BD6D
:102728000221200005F09EFC0028F5D0052220009B
:102738000F4905F07DFC0028EED03100200005F09F
:102748006BFC0028E8D0022220000A4905F070FC42
:102758000028E1D02900200005F05EFC0028DBD02D
:102768000221200005F08AFCD7E7C046A6900000A9
:102778003B9200003892000010B50248FFF738FE7F
:1027880010BDC046BC000020F0B5CBB003AC0500BE
:1027980008220021200006F053F880220AAE00210A
:1027A8005200300006F04CF8AB68686804330193B7
:1027B8009C4B05A9059306234B609B4B01228B601C
:1027C800002304300B7402ABCC6004F0BFFB031E83
:1027D800009000D024E104000499039A8D18AA42BD
:1027E8000DD1994239D0022200210198FFF782FFCA
:1027F800002801D10723009300984BB0F0BD107852
:10280800613815280FD8FDF755FC0B1D0E0E0E0E5E
:102818000E0E230E0E0E1F1525210E19100E0E1B5F
:102828000133824C9BB20132D9E7012004431B18C3
:102838009BB2F8E7022004430133F9E70420FAE7E2
:102848000820F8E71020F6E72020F4E74020F2E718
:102858008020F0E780204000EDE70123002C00D124
:10286800DCE025001D4029001C4205D070493000DD
:10287800FDF70EFD06250121A30714D580277F004B
:102888006C4B70197F1B002900D06B4B39006B4AC9
:1028980003F0A4FA0028ADDB8742ABD9022301215B
:1028A8002D18ADB29C43630715D580277F00644A75
:1028B80070197F1B002900D0624A3900624B03F06F
:1028C8008DFA002896DB874200D893E7042301217C
:1028D8002D18ADB29C43230716D580277F00584A90
:1028E80070197F1B002900D0564A3900574B03F056
:1028F80075FA002800DA7DE7874200D87AE70823CE
:1029080001212D18ADB29C43E30617D580277F001F
:102918004B4A70197F1B002900D04A4A4C4B39009A
:102928001B6803F05BFA002800DA63E7874200D8E7
:1029380060E7102301212D18ADB29C43A30616D5DC
:1029480080277F003E4A70197F1B002900D03D4A2E
:102958003900404B03F042FA002800DA4AE7874280
:1029680000D847E7202301212D18ADB29C43630608
:1029780016D580277F00324A70197F1B002900D0A6
:10298800304A3900344B03F029FA002800DA31E7DD
:10299800874200D82EE7402301212D18ADB29C4371
:1029A800230616D580277F00254A70197F1B00292A
:1029B80000D0244A3900294B03F010FA002800DA25
:1029C80018E7874200D815E7802301212D18ADB2FA
:1029D8009C4380235B001C4212D00AA85C1B401950
:1029E800144B002900D0144B21001D4A03F0F6F9BE
:1029F800002800DAFEE6844200D8FBE62D18ADB2C6
:102A080006221849019805F013FB002800D1F1E6C9
:102A18002A003100019805F00BFBE9E61C0025E7C8
:102A28000323E8E641920000717D0000FF010000E9
:102A38008D920000499000008F900000489200009D
:102A48003393000032930000529200005F9200001E
:102A5800D000002065920000699200007392000087
:102A68008B9200009492000010B584680822043408
:102A780020000E4905F0DCFA002806D0802120004D
:102A8800890005F0C9FA002801D1072010BD0922E4
:102A98002000074905F0CCFA0028F6D004212000D0
:102AA80005F0BAFA0028F0D00020EFE79B9200006A
:102AB800A492000010B519220023024802F022FB5C
:102AC800002010BD00000020F0B589B001AE002143
:102AD800446808228568300005F0B2FE124B0127D1
:102AE8000393124B03A98B600023043420000B745A
:102AF8003A006B464F60CE6004F028FA041E11D1EC
:102B080004353A0028000A4905F092FA002805D051
:102B18003100280005F087FA002800D1072420009A
:102B280009B0F0BD0324FAE77C910000717D000034
:102B38005F9400007FB500230126846801AD04344A
:102B48000522134920006B6001942E7205F070FA7B
:102B58003221200005F086FA29000E4802F092FE84
:102B68002B7A002B0AD03221200005F087FA0023A7
:102B7800984200D10723180004B070BD064A3100FE
:102B8800064804F01FF82B7A002BF3D0EBE7C04679
:102B9800AE920000A92B0000B4920000D48B000074
:102BA80073B50B7A05000C00002B18D00E230E68A5
:102BB800C3560521264A684603F010F96A460023E1
:102BC800694653713000062205F039FA002807D10A
:102BD800002001231840636820720133636073BDCD
:102BE8001421206805F03EFA0028F1D0266819491A
:102BF8000422300005F01CFA0E216956002823D063
:102C0800300005F002FA0028E2D0032212492068B9
:102C180005F00EFA0028DBD06168206805F0FCF9A1
:102C28000028D5D005220D49206805F001FA0028B2
:102C3800CED0297C206805F0EFF90028C8D01421EF
:102C4800206805F01BFAC4E7300005F0E5F9DAE77B
:102C58007B910000D3920000D8920000DC92000023
:102C680010B50248FFF7C4FB10BDC046D4000020D1
:102C780070B500263400856804352000FEF77EFF15
:102C8800041E09D109222800104905F0D1F90028AD
:102C980004D10724200070BD0136EEE7310028007A
:102CA80005F0DAF90028F4D02000FEF767FF041ECB
:102CB80005D001682022280005F0C1F9F2E73100AB
:102CC800280005F0D5F90028E4D1E2E711930000C7
:102CD80008220C23F0B5002697B000AF9B18456872
:102CE80031008468D819FE6005F0AAFD08201C226E
:102CF8001318D919524B534A8B600C237A607A62A5
:102D080004221B18DB190435CB6003184A6028001D
:102D1800DB19033A0E7404F019F90500B04200D02B
:102D28008CE0BE69731E1E2B00D987E00820302373
:102D38001B1832007969D81905F067FD082130227F
:102D48005318DB199D550C23FB18FB615318D81930
:102D58000E000434FEF71CFF00280AD0FB693A492C
:102D68001D6014239B19DE19320003F0E3FF0028CD
:102D780022D06E4688B06A46344B0821059330232A
:102D88005B18DB19069380239B009383304B0493D5
:102D9800E2213048103249010023FEF73DFC0322AE
:102DA800B54602212000FFF7A5FC002800D1072521
:102DB8002800BD4617B0F0BD04222000796805F050
:102DC80037F90028F3D00C2308229B182000D919C2
:102DD80005F029F90028EAD0062220001E4905F04E
:102DE80027F90028E3D02000F96805F03BF900280E
:102DF800DDD0302308229B18D819FEF7C9FE002819
:102E08000FD0164B3200FB611549746003F092FF36
:102E1800002804D12000F96805F030F9C5E7022838
:102E280008D1022082B202212000FFF763FC0028AB
:102E3800BDD0EFE70428F5D00520F3E70325B7E771
:102E4800717D00001B9300002F700000209300008C
:102E580003000001E48B0000369300008570000039
:102E68003970000010B50248FFF7C2FA10BDC0461D
:102E7800E80000207FB5002301936B468568DC1CC1
:102E88001648043501A902940395FFF7BFFA0622F4
:102E98002800134902AE05F0CBF8002814D028000A
:102EA800019905F0D9F800280ED0012331000D480A
:102EB8002370FFF7ABFA2378002B07D0280001997D
:102EC80005F0D6F8207001E000232370237809204C
:102ED8005A4253415B42184004B070BDAB700000C9
:102EE80057930000F370000037B50024856801A9E6
:102EF8000A4804350194FFF789FA05222800084991
:102F080005F096F8A04205D02800019905F084F84C
:102F1800A04200D1092420003EBDC046AB7000008D
:102F2800A8920000F8B58A6805000C000669002A16
:102F380014D08989002911D0002340891788874235
:102F48000AD001339BB202329942F7D10122236899
:102F58001A7023681878F8BD9942F7D0371E03D045
:102F68003000FDF79DF907000321606805F07AF845
:102F780000280ED10020012223681040187025680F
:102F88002B78002BE5D00321606805F077F82870CE
:102F9800DFE705221249606805F04AF80028E9D001
:102FA8006989606805F038F80028E3D004220D49E3
:102FB800606805F03DF80028DCD03A003100606810
:102FC80005F036F80028D5D008220749606805F0D2
:102FD8002FF80028CED02989606805F01DF8CAE7C7
:102FE8003B9200001B9300005E930000F0B50026A2
:102FF80005278DB0836803AC310045681022200096
:103008000193029605F01CFC254B04350793254BCC
:1030180007A928008B60012202AB0E744F60CC60B8
:1030280003F094FF0500B04237D18023039A5B0276
:103038009A4232D221001C48019EFFF7E7F9237B10
:103048000436002B08D104220A213000FFF752FB76
:103058000700002F17D115E03A003000134904F09B
:10306800E7FF071E04D03000A16804F0D5FF070071
:10307800637B002BEDD0032230000D4904F0D8FF0C
:10308800002803D1092528000DB0F0BD012130002A
:1030980005F009F80028F5D0DBE70325F3E7C0467B
:1030A80067930000677D0000B57000003B92000048
:1030B8006D930000F0B5002485689DB02B1D019329
:1030C80043680BAF1A1DDB681000049306ABDD1DC7
:1030D800019B04990292089409940A940B957B60C9
:1030E800BC81BC6004F063FCA04208D1414A0121C4
:1030F800414803F067FD022420001DB0F0BD3F4B9E
:103108000FAE03930F93062373603D4B0122B36008
:1031180009ABF36031000AAB0298347403F016FF70
:103128000400634263412B7000282CD10321049AC8
:10313800029804F059FC002801D1324AD7E7099BCC
:10314800102B0CD902220A210198FFF7D3FA287014
:1031580006AB07331B78002BCED10924CCE7002B14
:1031680033D0294ABB81B26014AAF260BA600AABB4
:10317800012231000298347403F0E8FE43424341CF
:103188002B70002801D00324B6E706220399019882
:1031980004F04EFF00280CD00899019804F05CFF59
:1031A800002806D00123390018482B70FFF72EF9A4
:1031B80001E000232B702B78002BC9D008990198C7
:1031C80004F056FF06ABD871C2E7114808A9FFF70B
:1031D8001DF906220399019804F02AFF002805D05A
:1031E8000899019804F038FF0028DBD1002306AACB
:1031F800D371ADE771930000CC8B000057930000AA
:10320800477100008F930000097100002D2F000006
:10321800AB70000013B5074C200005F026F980229A
:10322800054B2000009305490323120101F000FF1C
:10323800002016BD90060020588D0000280E0020A2
:1032480010B500220023024803F03EFE10BDC04620
:10325800A401002010B5036A0400002B08D0064919
:1032680005F0DFF82000103005F07DF8002010BDD3
:1032780016204042FBE7C0468F71000010B50400DD
:10328800103005F078F82100014805F0E2F810BD8B
:10329800900600200748084B10B50362074B4362AD
:1032A800FFF7D8FF041E02D1054800F00DFB2000EF
:1032B80010BDC046180A0020FD710000F77100001B
:1032C800CD32000010B5044B0100180005F053F88A
:1032D800024801F0A3FE10BD94010020FC0000206C
:1032E80070B5002200230C4801F00CFD041E00D12B
:1032F80070BD230008330948DA6F211D00F012F869
:103308000500200000F042FA002DEAD02900044808
:10331800FFF7B4FFE5E7C04694010020500A0020FB
:10332800180A0020F0B5036804000D00160085B0E7
:10333800002B04D0012E0BD8002005B0F0BDFFF7FC
:103348007FFF206003F0BBFD2368002BF2D1F3E779
:103358002F88234B9F423BD0224B9F42ECD12068C1
:1033680003F0ADFD2268023ED368108A9C46AB1C70
:103378006546518A5269091AAA1A891A6044009640
:1033880003AAFDF7EFFC002826D12268039B118AC7
:103398005B181382134B9F4207D12068038A012BC5
:1033A8001AD90C3003F09EFDA0802368A1881A8AE0
:1033B8008A42C1D310D8D968002003F040FF031E09
:1033C8000AD121680A8A023A0A8220682360B4E78F
:1033D80023681B8A002BC5D1200003F017FFABE739
:1033E8000414000006090000F0B589B001900391AB
:1033F80017000A000100002003F021FF00245D22CD
:1034080001264C4B04900292059406AA5380039B14
:103418009C4201DB00204DE0022106AB5818B8475A
:10342800002847D12500002E13D0039B06AA02339B
:103438005BBA07A853800380019B3A001B780321DD
:10344800837003F0EDFE002834D1029B0135033B65
:103458000293039B029A5B1B1E00934200DD160039
:10346800029AD31A012B27D80023013E2C0005937A
:10347800AB1922001B1B022B26DC059B002B12D04C
:10348800039B1B1B012B2ED0022B39D0002B0AD1FA
:10349800049B06AA5BBA938002213A0007A803F0AE
:1034A800BFFE002806D101212348B8470026234B38
:1034B800B042AAD009B0F0BD0122012B00DC0022E5
:1034C800059B1343DBB2D1E7019B0322191907A817
:1034D80005F09BF93A00032107A803F0A1FE002894
:1034E800E8D10334C4E7019B07A89B5C0321037060
:1034F800049B3A001B0A4370049B01348370CEE797
:10350800019A07AD125D631C2A70019A0321D35CEE
:1035180028006B70049B3A001B0A0234AB7003F05E
:103528007FFE0028C6D1049B3A00012128002B7099
:10353800B5E7C046060900004890000004140000E2
:10354800074B70B5C31A0D0006499B105943040078
:103558004022054803F093FE01002000A84770BDF3
:10356800580A0020B76DDBB6FC89000073B540230C
:103578000D00084C0849041BA41061430093060081
:103588002B00064A064803F0AFFE011E01D03000AA
:10359800A84773BD580A0020B76DDBB65F730000FB
:1035A800FC890000F7B50022012105001000FEF794
:1035B800BDFC114800F028FE041E19D100F044FE9D
:1035C8000E4B2F6919003800019303F076FA002892
:1035D80009DB01263E642D69019928001C3003F09F
:1035E8006CFA002802DA04002000FEBDEE64FBE756
:1035F80005246442F8E7C046CD360000648D00001B
:103608001FB500236C46029301330393074A6B46A8
:103618000094019403F099FE002804D1322200237B
:10362800684601F0CFFB04B010BDC04671730000BE
:103638000C210B0070B5434304000020084AD3183E
:103648009D6B98636042084040308018DE6B03F041
:1036580098FE002D03D0320021000248A84770BD13
:10366800580A0020FC89000070B5EFF3108572B687
:103678000223012410490A6813430B6022420FD029
:1036880080220E4BD205D158D358234208D00C487B
:1036980003F077FE002D05D00020FFF7C9FF70BDAD
:1036A8002C1E04D162B6BFF36F8F002CF4D1012019
:1036B80003F085FFF3E7C046A80A00200C040000C9
:1036C800980A002010B5002802D0012807D010BDA4
:1036D800044B1A6C0723100018401A42F7D1FFF761
:1036E800A7FFF4E7580A002010B5EFF3108472B66C
:1036F800084A022113681800884310600120034219
:1037080001D103F068FF002C02D162B6BFF36F8FBE
:1037180010BDC046A80A002010B5084804F0FAFCFD
:10372800002808D0064C2000FEF718FD2000FDF701
:103738006FFA002010BD13204042FBE7348A0000D6
:103748004D37000070B50400074D0A2804D1AB6856
:103758000D2128005B689847AB6828005B68E1B2D8
:103768009847200070BDC046348A000070B5040038
:103778004518AC4201D1002070BD217802480134BF
:1037880083685B689847F4E7348A000010B5034BF8
:103798000100180004F02BFD10BDC0466801002090
:1037A800F0B58DB03C4CA368DB6B002B62D1A568EB
:1037B800AB6B002B64D1EB6A002B30D12B69002B4B
:1037C800F0D02022200004A9984700250090A842A4
:1037D800E8D0009B9D42E5DA0822304E02AB9B18E8
:1037E8005F5D3378002B14D12D4C23680193002B97
:1037F80024D1002200232B4803A901F057FA0028FE
:1038080012D1039B1A00236033780832D067002B4B
:1038180014D00A2F2CD10022204B1A7028E0200047
:1038280098470028BED0C9E7019B236002211E4AA1
:103838001E4803F0C7F901233370EAE72068020045
:103848000832D36F7F2B0DD9194A0221174803F08C
:10385800B9F92068FFF79AFF0023012223600F4B74
:103868001A70D6E7591CC318D1671F710A2F0CD0DC
:103878000135AEE720009847002898D10DB0F0BD7B
:1038880020009847002896D1F8E700232360094BC9
:103898001B689847ECE7C046348A00001F0B0020DD
:1038A800AC0A0020680100200E940000248C00005F
:1038B80035940000B00A002010B5024AFFF794FDC5
:1038C80010BDC04675370000114B70B51860114C1B
:1038D800200004F01FFC002818D0A3685B6A002BA6
:1038E80001D020009847A568AB69002B01D02000C3
:1038F80098472B6C002B03D00022200006499847DC
:10390800A3681B6A002B01D02000984770BDC046F1
:10391800B00A0020348A0000A93700004368080074
:1039280010409143A1225B68D2009850014A0020C0
:10393800995070470C050000436800205A68014BF5
:10394800D15070470C050000436808005A68054BC1
:10395800D35898430B40A121C90050500249002078
:1039680053507047040500000C05000070B543096A
:1039780008D10C4B5968002904D0012585400C68F2
:10398800002900D170BD8B681A002A402B4202D052
:1039980005484B689847231E00D0236821001C0067
:1039A800EEE7C046B40A0020188A00001F23F0B5CD
:1039B800140045680B402A7C89B052011A430092D2
:1039C8000322E30601D4A206D20F832002ABDA70E9
:1039D800594B4000234083424AD03BD8062B49D05C
:1039E8002FD8002B46D004271D38022B2FD12303B4
:1039F80046D501238B40A1216868C9004350A868B7
:103A0800002844D11F2300990B40490900D08EE0BB
:103A1800A0210126C9059B005B18E103C90FE0201E
:103A28007140B140640CC00034401D580C434349F8
:103A380092000D402C4322433F023A431A50002083
:103A480006E08020012740008342D0D01738FF3895
:103A580009B0F0BD3A4883420ED0FE3083420DD003
:103A68000138FF3802278342C1D016204042EFE7D1
:103A78000727BCE71F00BAE70527B8E70327B6E71B
:103A88006303BCD5012368688B402E49B6E702ABB7
:103A98009A1C009903F035FEC0239B0201901C423A
:103AA8000CD10099A86803F05DFE019B002BC6D1DC
:103AB80002AB9978A86800F0EFFEC0E705AE0822CF
:103AC800002103A804F0BCFE0C220021300004F001
:103AD800B7FE03AB736032000099A86800F0B4FD2C
:103AE8000028ACDB802321009B0219401C4211D026
:103AF8000123E403E40F6340737002ABDB78377093
:103B0800B370320000230099A86800F05BFE00281B
:103B1800CBDA94E7082206A804F092FE02AB03333E
:103B2800059332000099A86800F08EFDEFE7C133D5
:103B3800FF339B001B68FFDE06030000F0F8FFFF61
:103B4800020200000C05000070B54568A86800284E
:103B580012D003F001FE011E0ED1A86803F0DFFDAC
:103B6800041E0BD102000749A86803F0C7FD220014
:103B780001210620FEF7DAF9002070BD0520404239
:103B8800FBE7C04675390000F0B50400890085B030
:103B980043180293029BA34202D1002005B0F0BD56
:103BA8000F21082508272068C30AC6051940F60D05
:103BB8001D403B4251D12F4B5B5C01932E4B9E42E3
:103BC80001D101267642000E032849D8FCF772FA83
:103BD80002083134294BD650731C30D10434D9E74C
:103BE800274B0021D650731CF8D0802320681B0275
:103BF800184230D10D001F233340760935D1A02655
:103C0800E027F6059B009B19FF00DE594005039647
:103C1800019E800F3602800030430190194E0398B0
:103C28004900304006000198304328430143D951E8
:103C3800D4E7A123DB00CEE7A223DB00D1E7A12351
:103C48007109DB0000290DD101310F00A020B74018
:103C5800C005C750C9E70121CDE7162040429DE7BE
:103C68008620FBE700221A60FFDEC133FF339B008A
:103C78001B68F9E781960000FF0100000C050000B1
:103C880014050000F0F8FCFF054B01201B68002B11
:103C980004D1044B1878431E9841C0B27047C046FF
:103CA8001C210040210B0020074B1A68002A07D06E
:103CB80000201860A323054ADB00D3580B70704717
:103CC80001204042FBE7C046082100400020004098
:103CD8009023024ADB00D058D050704700200040A3
:103CE8000020F0B5A3270500074B084EFF00141A63
:103CF800002C02DD1C68002C00D1F0BD1D60F459B9
:103D08000C540130F3E7C046082100400020004071
:103D18000122014B1A707047200B0020C123042197
:103D2800014A9B00D150704700200040C223042163
:103D3800014A9B00D150704700200040C12310B5B4
:103D4800064A9B00D35800201B0605D5044B1B7858
:103D5800834201D1FFF798FF10BDC0460020004004
:103D6800200B0020024B1868431E98417047C0463C
:103D780008210040C1238021024A9B008900D150BC
:103D88007047C04600200040C2238021024A9B00A1
:103D98008900D1507047C0460020004070B5C12549
:103DA8000A4CAD0063591B0606D46259042310005F
:103DB80018401A4205D170BDFFF7C0FF0028FAD19C
:103DC800F3E7034B1868431E9841F4E700200040CE
:103DD80008210040024B1960024B1A607047C04628
:103DE800C80A0020C40A002000220D4B80211A7046
:103DF8000C4B01321A60C1230B4A9B00D150EFF3E0
:103E0800108372B6094A1278002A02D0084A7C390F
:103E18005160002B02D162B6BFF36F8F7047C04666
:103E2800200B00200820004000200040210B00202B
:103E3800FCE100E010B5104B1A78002A0ED00F4AAA
:103E48001268002A0AD0C22280200D4992008850A8
:103E580001210C4A116000221A7010BD0A4B1A6821
:103E6800002A01D000221A60084B1B68002BF4D0EE
:103E7800074A11689847F0E7200B00201C210040F2
:103E8800002000400C20004024210040C80A0020E7
:103E9800C40A002070B50E0004F0EDFA6424184D31
:103EA80000280AD001232B600EE0013C01200021EC
:103EB800E4B201F087FB002C06D001220021280083
:103EC80004F061FC0028F0D000230E4A0E4C136069
:103ED8000E4A137001220E4B1A600E4A0E4BD65032
:103EE800FFF7D2FE002805D10130013C03F035FB75
:103EF800002CF5D10122094B1A6000232B6070BDFC
:103F0800C00A00201C21004010270000210B0020BF
:103F180008200040002000401C0500000C20004044
:103F2800F7B5A0220021634D4368D2000469A95067
:103F38001F68060001AA380003F0F5FA00284DDBD7
:103F4800019B3A6819791868FFF71EFE002845DBBF
:103F580063793069012B4AD1A379032B47D1E379DF
:103F6800002B44D12179002902D002293FD10C31FC
:103F7800962223681202934200D17BE04DD8962204
:103F88009201934200D177E034D89622D20093422E
:103F980000D173E023D896225200934200D170E0FA
:103FA80096269C22B6009202B34220D1424BEA5098
:103FB800424BE95006CC06C00422002401216C3B88
:103FC800EA503F4B22001C603E4B296002201970CA
:103FD800FDF7ACFF0220FDF78FFF2000FEBD962203
:103FE8001201934250D09622520193424FD086201C
:103FF8004042F3E7E122D20193424AD009D8E122B4
:104008009201934247D09622D2019342EFD12E4A91
:10401800CCE780222D4E1204C6E7E1229202934299
:104028003CD013D896225202934239D008D8284A55
:10403800934237D0E12212029342D8D1254AB5E7FC
:10404800E12252029342D2D1234AAFE7E12212037E
:1040580093422AD008D8214A934228D0E122D2029A
:104068009342C4D11E4AA1E71E4A9342BFD180227F
:1040780052059BE71C4A99E71C4A97E79E22D20201
:1040880094E7A022520291E79D2212038EE7184A74
:104098008CE7184A8AE7EC22920387E7164A85E7F5
:1040A800164A83E7E522120480E7154A7EE7802254
:1040B800D2047BE700200040240500006C050000C6
:1040C80008210040210B002000A04E00127A0000B9
:1040D800C0DA000000F0EB0000E0D70190D0030048
:1040E80000705F0740420F0000509D0000502700FD
:1040F80000B0130000F0750000B0AF0300903A0163
:1041080000D0BE0E70B50D0016000024331B002B26
:1041180003DDFFF7B9FD002801D1200070BD0023A1
:10412800044A1360044A295D1370044A044B01349D
:10413800D150EBE71C210040210B0020002000405B
:104148001C0500001F4A1168C9B201290FD10C20B3
:104158001D4B40421B681B061B0F1841084206D125
:104168001A4B1B49196080211A4B09021960116802
:10417800C9B201290CD10220134B1B681B061B0F67
:10418800023B834304D18020C123C005DB00C1501A
:104198001268D2B2012A13D10B4B0F491B681B06B8
:1041A8001B0FD94011420BD10C4B1A68012A04D0BD
:1041B8000B4A1A601A68012AFCD1C022094B1A60FE
:1041C8007047C046E00F00F0E80F00F0040500401B
:1041D800DFFF07C0186C00409F1B000000EC064082
:1041E8007593000014EC064010B5024B00201B68C4
:1041F800984710BDCC0A002010B5024B1B689847A1
:1042080010BDC046CC0A002010B50C4C2379002BF9
:1042180010D1013320602371002800D0084800F035
:1042280049F8002805D12068002800D0054800F08A
:10423800A3F810BD78204042FBE7C046CC0A002016
:10424800F14100000142000010B5064B1B68002B2D
:1042580006D00020FDF75CFE002801D1FDF74CFEDA
:1042680010BDC046CC0A002070B5C22280250123AB
:104278009200ED05AB500B4A8026136000220A4BD2
:104288000A4C1A6076020A4BEA58EB58324207D0B9
:104298000120034204D0013C03F05FF9002CF2D165
:1042A80070BDC04604000040000100401027000017
:1042B8000C040000054B02001879002803D11A608D
:1042C80001221A71704778204042FBE7D40A002087
:1042D80080210022012010B5084B094CC9051A603D
:1042E80008602468944203D0C1239B00C85010BDC5
:1042F80019680029FCD01A60F9E7C046000100409F
:10430800D40A00208023C12210B59200DB059958F9
:10431800012211420BD006490868002807D0002066
:104328000860C22189005A50024B1B68984710BD8B
:1043380000010040D40A002070B5C2238025022263
:104348009B00ED05EA50094B013A1A6083260022CA
:10435800074B084C1A60F600AB59DB0305D5012062
:10436800013C03F0FAF8002CF6D170BD0C000040B7
:104378000401004010270000084A1379002B09D1D6
:104388000121106011718021A3221800C905D200F3
:104398008B50704778204042FBE7C046DC0A00207B
:1043A8008022832370B5D205DB00D1581D4CD35829
:1043B800C9031CD503221340012B02D0002B13D1B3
:1043C80000238021A322C905D2008B500125002299
:1043D8001548164B1A600560206890421ED0C1230C
:1043E80002329B00CA5018E0FFF7A6FFE8E7104B1F
:1043F800D358DB07E4D50F4BD15802231942F3D128
:104408002168002906D1094B1A68002AFCD000222D
:104418001A6002E0C1218900535070BD1968002953
:10442800FCD0F5E7DC0A0020080000400401004049
:10443800140400001C040000F8B58022C123D20532
:104448009B00D4581A231F2601251C40002C00D19C
:10445800F8BD2000FBF7D4FE2A008021301A8240E4
:1044680083000133FF33C9059BB25B181968D2B2C8
:1044780094430029EAD0002119608023C221DB057A
:1044880089005A50022A0ED11131FF315F5859580C
:10449800890708D1A321C9005D50C12189005A505C
:1044A800034B1D60D2E7034BC0B21B689847CDE7AA
:1044B80008000040DC0A002070B58024CBB25B0005
:1044C800C3189A8A640022421BD00E4E510A324009
:1044D8000F2506009A8202002940143254361388A8
:1044E800234203D05B0A2B4099420AD00232B242DF
:1044F800F5D10022CB00C3185A60C9B2583003F076
:1045080049F870BDFFE0FFFFF0B51F2485B00440F7
:104518000A9E40094BD1A025A400ED056419019419
:10452800E024019DE4002C5902941400651EAC415E
:104538000D006F1EBD4164002C431D1E00D00C25CC
:104548002C43754275411C4F6D423D40E027FF00EA
:10455800ED190B9F2C437D427D41184F6D423D4024
:10456800C027BF02ED192C43029DA5430C1E00D0A5
:104578000C78111E01D0117849001A002C43002B29
:1045880001D01A78920033002143002E01D03378ED
:104598001B020A430B99002901D008780004134331
:1045A800E02201990343D2008B5005B0F0BDC1341D
:1045B800FF34A4002368FFDE00F9FFFF0000FDFFC1
:1045C800F8B50127CDB26D004519AB8A06000C007D
:1045D8003B422ED003F071F8AB8A9A061FD5326899
:1045E8005B0B9B00D318A2220021D200995099504E
:1045F80030002100FFF760FF0023AB821F33234008
:10460800600919D1A022E024D2059B009B18E40080
:1046180019590C4A114002220A431A51F8BD0722BF
:10462800224097403200E3086432D15CB943D15448
:10463800DEE716204042F1E7C133FF339B001B68D9
:10464800FFDEC046F0F8FCFFF0B5136805000C006B
:10465800160087B0002B1BD0CFB222217F00C719CC
:10466800BA8A0A408A4221D0002202A98A73CA73F0
:10467800019200920F3252180E2102A80918200048
:10468800FFF742FF0223BA8A9A43013B1343BB82D6
:104698007268002A34D013785168E2B25200AA181E
:1046A8009446928A900704D5002955D01620404296
:1046B8002AE0424802406046828200294CD0032BFF
:1046C800F4D8726829685268127890000292A2227F
:1046D8000918D200002B19D18B508B5007210127C4
:1046E80021408F402900E2086431885CB84388542F
:1046F80062461C21928A9B008A4313436246938236
:10470800B368002B35D1002007B0F0BD8F58039156
:1047180003218F4303998F502968294F081881581E
:1047280039408150815827020391F82149013940C5
:104738001F043943039F394381506146029A2C3242
:104748005200AA189480029A898A5203114320229F
:104758000A4361468A82C1E7002BBFD007200122A5
:10476800204082402800E1086430475C3A434254C4
:10477800BEE72100C0CB2800FFF79EFE002EC2D066
:104788006B689E4206D02800583002F0EAFE0028E6
:1047980004DAB9E7AB689F42F5D10020C300E4B260
:1047A800EB1864005E609F602C19A38AC0B24002B7
:1047B8000343802040001843A082A4E7DF1F0000C5
:1047C800FFE0FCFFF0B50C00050011001E0087B0EB
:1047D800002A1FD0E7B27F00C719BB8A9A0701D405
:1047E8009A061FD41C22134202D04B78012B19D0F1
:1047F8000123002002AAD3738B1C4A1C00910F21AD
:10480800019002A809182000FFF77EFE0323BA8A48
:104818001343BB82002E39D0E3B25B00EB189A8AAF
:10482800920703D41620404207B0F0BDA22100270A
:104838003278C900039290002A68121857505750CE
:104848009A8A134F3A409A827278002A1ED02D68AD
:10485800104F2818455824023D40F8277F013C4056
:10486800C0271204BF023A4022438024B67864036A
:10487800455036054558264032432A434250039A4C
:10488800998A5703202239430A439A820020CBE7AA
:10489800DF1F0000FFE0ECFF10B5024802F07AFECF
:1048A80010BDC0461401002010B504480C0002F0E9
:1048B80058FE002801DB2070002010BD14010020E4
:1048C80010B50521040003F001FA00280AD0237D61
:1048D800002B08D1A368064A934205D90521200078
:1048E80003F020F9002010BD5B00A360FBE7C04681
:1048F800FEFFFF7F70B516001D005A1C03680400F8
:104908009B18C2689A4205D20821006A03F0F8FA97
:10491800002070BD002D0BD13278200003F0F4FA8E
:104928000028F5D0002D0CD1A3680133A360F0E76F
:10493800AB1E0022062B01D8054AD25C1832D2B22F
:10494800EBE72368013D5A1C2260725D1A70E9E7A3
:104958008996000010B50400FCF75AFD03480121B0
:10496800034A02F02FF9200003F0E0FBFC8B000063
:104978007D940000F0B585B005000C0000AFEFF3A2
:1049880010837B6072B62D4A9368FB602C4B042819
:1049980002D82C4B8100CB586E468AB0117C6A46EF
:1049A80029480793294B0590069508919384284B2D
:1049B8000493B121274B1032BB60B86800238901EA
:1049C800FCF72AFEB546002C07D0E369DB0504D0C6
:1049D8000121214AB86802F0F5F8FB68002B07D0DE
:1049E800180003F051FD002802D00378002B00D1F5
:1049F8001A486E468AB06A46194B07900593FB68B9
:104A08000693124B1384174B0493912100231148EA
:104A180010328901FCF700FE2100B5462800FFF797
:104A280099FF7B68002B02D162B6BFF36F8FF868DD
:104A3800FDF7EEFABD4605B0F0BDC046E40A002019
:104A48008C940000BC8D00009A94000001030000C3
:104A580005000001FC8B0000C29400004A9200008F
:104A6800E394000004000001F8B501270A4E830012
:104A78009D59013084003359AB4200D8F8BD6868AD
:104A8800002806D0037E3B4201D103F02AFB0835FB
:104A9800F1E72B689847FAE7D08D0000012270B53E
:104AA800234B86B003201A70FFF7DEFF01F07AF976
:104AB8000420FFF7D9FF1F4C26001F4DAC420ED330
:104AC80000F0C4FCAE4220D300F0D0FCFBF712FC8F
:104AD80001211A4A93898B43938106B070BD636A9A
:104AE8000593236A0493E3690393A36902936369B3
:104AF800019323690093E368A2686168206800F065
:104B08000BFB23685C653034D7E7B26AF36A511C43
:104B180001D1591C05D011003068194303D103F0A5
:104B280067FD3036CEE70649183000F00DFFF8E78C
:104B3800220B0020208B0000208B0000C0070020E3
:104B48006585000070B588260125040046430102EA
:104B5800114880220918002086B004950E35039567
:104B6800053565430D4B0590029001900C48F618E9
:104B78002D180C4B30000095520000F0CDFA04229D
:104B8800337C2C74934333740134074BE402E418E8
:104B9800EE606C6006B070BD281E0020380700204B
:104BA800E40A00206382000028160020F0B50020E7
:104BB80087B0FFF759FF204B83F308881F49204B24
:104BC8000A6A00251A40C0231B0413430B62FDF731
:104BD80051F9FDF707FAFCF779FB1A4800F016FBC4
:104BE8000120FFF741FF0220FFF73EFF00F066FCBF
:104BF800154C164B88225C61154B164E0593012304
:104C0800154904931201330020000395029501957C
:104C1800009500F081FA04220700237C20009343CA
:104C2800237403F06DFC2800FFF78CFF3200390075
:104C38002000FDF7BBF9C046281E002000ED00E06B
:104C4800FFFF00FF48080020C0070020E40A0020FA
:104C580045950000A54A0000281F002010B5064C05
:104C6800064B9C4201D3002010BD2000A268616859
:104C780003F060FA1434F3E7840100208401002073
:104C880010B5084C084B9C4201D3002010BD2000F1
:104C980003F071FA002801D11C34F3E716204042D2
:104CA800F4E7C046680100208401002037B50400FD
:104CB8000D00EFF3108172B6C06800280CD0286090
:104CC80003680020E360A3690133A361002916D1BA
:104CD80062B6BFF36F8F12E01000184302D128604C
:104CE8000C38F3E72000009208302200019300F00E
:104CF8007BFB002803D1024B9B685B692B603EBDA0
:104D0800E40A002037B5EFF3108572B60468002C6A
:104D180013D003222368934342680360944200D16E
:104D280043602000012103F011FB0400002D02D193
:104D380062B6BFF36F8F20003EBD11001943F5D056
:104D48000830009229000200019300F04DFB002872
:104D5800F1D1024B9B685C69EDE7C046E40A00208C
:104D680070B5EFF3108572B60468A0421BD0002C12
:104D780019D062682368002613605A600222200056
:104D8800237C2660934323746660A660183003F082
:104D98006AFC231D2000DE6703F0B2FB29000848E7
:104DA80003F0FEFB70BD8268C3689B1A591E8B41D5
:104DB8009B188360002DF5D162B6BFF36F8FF1E7C2
:104DC800230B002013B50400EFF3108172B680683E
:104DD800002808D00138A060002902D162B6BFF3CC
:104DE8006F8F002016BD1000184307D1002902D18B
:104DF80062B6BFF36F8F10204042F3E70092019331
:104E08002200024800F0F0FAECE7C046230B00202D
:104E1800F0B587B00490EFF3108772B6049E049D36
:104E28008C363468A435002C1CD10221280003F0EC
:104E3800C0FA002869D0049C9C340022012120007B
:104E480003F0F2FB0028F8D100230293012252421A
:104E5800D31700920193049A39009432404800F025
:104E680065FCD8E7236872683360944200D17360A8
:104E780002222B6813432B600423E2689A43033B06
:104E88001343E3606368002F4AD020009847EFF38C
:104E98001083059372B6E36801211A008A4310094A
:104EA800084241D1E260E3689A071AD50222934387
:104EB800E3602C4B1868002813D0002102680028F2
:104EC8000FD04768BC423DD10268002934D15968E7
:104ED8001A60884200D15A60002303600830FFF747
:104EE8003FFF02222B6893432B60DB0533D43368E2
:104EF8005A1E9341059A002A02D162B6BFF36F8FFA
:104F0800002B88D000F0E4FA85E72B68DB069BD5F8
:104F18002860002F02D162B6BFF36F8F07B0F0BDD3
:104F280062B6BFF36F8FB0E711229343E3602000AE
:104F38001030FFF715FFB6E70A605A689042CBD1E8
:104F48005960C9E701009446002A01D010688446D8
:104F580010006246B3E7059B002BCED05BE7C04646
:104F6800230B0020080B0020F8B5C3680E00590871
:104F780001220D0004001540114248D19B0813423C
:104F880047D13368002B01D1836833600125E3687A
:104F98002B4202D0A3686D1933603768002F2FD0D9
:104FA8001D4B00209A683B0088331B689A4204D145
:104FB80003F061FA01235840C0B23B000122A43338
:104FC8001B689908114013421CD000291CD00028E6
:104FD8001DD0002323603B008C335A68002A0CD173
:104FE8005C601C60380003F0F0F90423E2681343A6
:104FF800E3603368A3602800F8BD14605C60F1E7E3
:10500800162505E0132503E0DB081342E1D010253F
:105018006D4200233360EEE7E40A002010B5034B2D
:105028000100180003F015FA10BDC046F008002072
:10503800F0B5002689B004008C30066046600E9DED
:105048000830006040600830006040600120B542D0
:1050580004D02879461EB041000201302600A4364B
:10506800306001267642F717069607970026104803
:10507800039304960300029620000196009400F022
:1050880099F8B5420CD02968B14202D0200003F04B
:10509800F8F96B79002B03D00123A2891343A3816C
:1050A800200003F0A5FA230088331C6009B0F0BD86
:1050B800194E000073B50C000190EFF3108572B61D
:1050C800CE681E2100200E4207D1190011438142EB
:1050D80009D1200001A9FFF747FF002D02D162B6D0
:1050E800BFF36F8F76BD082120003143E16001993D
:1050F8001030A162024900F027FC0120EDE7C0460C
:10510800E583000010B5034C01002000FFF7D2FF33
:1051180010BDC046F0080020F0B587B00593030025
:1051280058338365C365109B0727838104230025B3
:105138000732BA430374D2190F9BBA4383738B188F
:105148000E0085601900C5738561C561040004936C
:10515800FCF7D2FD049BC019B8431F1A0E9B3A00F6
:1051680002930D9B310001930C9B20000093059B3B
:10517800FCF706FF059B656523660C9B63660D9B24
:10518800A3660E9BE366EFF3108272B6084B196AAA
:105198001C622167AA4202D162B6BFF36F8F9B6877
:1051A800002B00D05B6F3800636707B0F0BDC046C6
:1051B800E40A002070B50400002086B005900E981F
:1051C800119D04900D98109E03900C9802900B98D6
:1051D80001900A9800902000FFF79EFF2B00721C98
:1051E80001D1013305D02B00334305D1200003F052
:1051F800FFF9200006B070BD200032002B000249E4
:10520800183000F0A1FBF4E7658500000123037462
:10521800838100234367014B98607047E40A0020AC
:105228000B21094A49429368D8670433D967802318
:1052380006495B05486803434B6062B6BFF36F8F4E
:1052480093680433D86F7047E40A002000ED00E04B
:10525800102370B5C356027C002B31DBD3062FD147
:1052680080235B4213431A4C0374A3691949E2690A
:105278008B4207D1016042601060E0610FE09A4202
:10528800F8D01B68002BF5D00E260E259E574557E3
:10529800AE42F4DD5A680360426010605860A56948
:1052A8008D4201D0002D00D1E568A3681A7CD20692
:1052B80007D1DA897F2A04D9AA69002A01D1636152
:1052C80070BDAB4202D0280000F074FA6561F7E7C0
:1052D800E40A0020FC0A0020102270B5825605005E
:1052E800037C002A04DA7F221340037403F0CEF80B
:1052F8000D4E0E4AB469B368944201D0002C00D117
:10530800F468AB4208D01A7CD20605D1DA897F2A24
:1053180002D9A269002A05D0A34202D0200000F0D9
:1053280049FA2300736170BDE40A0020FC0A0020DA
:1053380010B5511C01D1591C03D00249183000F096
:1053480003FB10BD6585000010B500280AD1EFF3F6
:105358000580002807D1064B5A699B689A4202D0FB
:10536800FFF75EFF10BD62B6BFF36F8FFAE7C04666
:10537800E40A002070B51A4CA168E3690A68CB1AE0
:10538800581E834149685B420A6051601340E169D5
:10539800A268002B05D1134B516013600A60E261CB
:1053A8000AE00E250E205D571056854213DD596818
:1053B800136051600A605A60A5690A4B9D4201D08A
:1053C800002D00D1E568A3689D4202D0280000F0B6
:1053D800F1F9656170BD8B42DDD01B68D9E7C04625
:1053E800E40A0020FC0A002070B50C0011000A4AEB
:1053F8000A4B90681860EFF3108372B6956828001E
:1054080003F057F8049A059B2800FFF791FF200046
:10541800FFF706FF70BDC046E40A0020100B00200D
:1054280010B500280AD1EFF30580002807D1064BF4
:105438005A699B689A4202D0FFF7F2FE10BD62B625
:10544800BFF36F8FFAE7C046E40A0020EFF310813C
:1054580072B6054B9A68D37B013BD373002902D1FE
:1054680062B6BFF36F8F7047E40A002070B5EFF3A0
:10547800108672B60F4DAB68DA7B0132DA73AC690D
:105488000D4A944201D0002C00D1EC681A7CD20657
:1054980005D1DA897F2A02D9A269002A05D09C425F
:1054A80002D0200000F086F9230030006B61FFF77E
:1054B8004BFF70BDE40A0020FC0A0020024B034A9F
:1054C8009A61DA617047C046E40A0020FC0A0020AD
:1054D80070B5EFF3108572B61B4CA168E3690A68D2
:1054E800CB1A581E834149685B420A6051601340D9
:1054F800E169A268002B05D1144B516013600A6062
:10550800E2610AE00E260E209E571056864216DDEE
:105518005968136051600A605A60A6690B4B9E4235
:1055280001D0002E00D1E668A3689E4202D0300068
:1055380000F040F928006661FFF772FE70BD8B42EB
:10554800DAD01B68D6E7C046E40A0020FC0A00202F
:10555800F8B5030007000C000B4303D1FFF7B8FFB1
:105568000020F8BDEFF3108672B6134D134BA868F0
:105578001860FFF7B1FEA86823003A0010491830F8
:1055880000F0E2F90423AA680400117C30000B4300
:105598001374FFF745FEAB689A6A002AE0D18022AF
:1055A800DB6A12069342DBD103F091F8201AC34359
:1055B800DB171840D5E7C046E40A0020100B00208E
:1055C8006585000070B505000C00FFF7C1FF0135C7
:1055D80001D1631C0AD00A220023C117FAF767FE1B
:1055E800002901D1002800DA014870BD2000FCE73D
:1055F800FFFFFF7F014B98687047C046E40A002010
:10560800F7B5838904000193EFF31083009372B612
:105618000823027C1A4206D0009B002B02D162B6F6
:10562800BFF36F8FF7BD1900114348B200285ADB4A
:105638002174A368002B02D0200002F02FFF200065
:105648002600183003F00FF85836A56DAE4201D089
:10565800002D50D1324F0025BB689C4204D1EFF396
:1056680005856A1E9541EDB2BE692E4A964201D063
:10567800002E00D1FE68B34202D0300000F09AF844
:1056880020007E6101F0FFFB200000F0E1F8002D12
:1056980002D02548FFF7BAFDBB689C4239D1EFF329
:1056A8000583002B35D1A389DB070FD5009B002B81
:1056B80002D162B6BFF36F8F62B6BFF36F8F042358
:1056C800181C02DFEFF31083009372B60098FFF7FF
:1056D800A7FD019BDB07A5D562B6BFF36F8F042337
:1056E800181C02DF9EE77F210A4013432000237421
:1056F80002F0CCFE9DE7280002F0D0FE280018300A
:1057080002F0B1FF00222B1D2800DA67FFF7A0FD89
:105718009BE7009B002BDCD162B6BFF36F8FD8E705
:10572800E40A0020FC0A00204808002073B5069D02
:10573800079E089C00950196FFF756FE002C03D0A3
:10574800024B9B685B69236076BDC046E40A002073
:1057580010B5047C1F21220003000A4000200C42DF
:1057680011D1094910008B420DD00849086800285A
:1057780009D0D9897F2905D80E215956044B1B68B1
:10578800994200DA100010BD3807002018010020E7
:10579800140B00200121044B044AC01A044BC0100A
:1057A8004343D1547047C046D0080020230B002043
:1057B800ABAAAAAA70B518250B4B1E7CFFF7C8FF29
:1057C80075430A4B0400ED18280002F04CFF002234
:1057D800074B9A55944205D0621E28000549D317F5
:1057E80000F0B2F870BDC046E40A0020D0080020DE
:1057F800230B00209D57000070B5EFF3108572B69B
:10580800104A114B94681868A04207D1FFF7D2FFDD
:10581800002D02D162B6BFF36F8F70BD00211960F1
:10582800127C0A4B9B5C8B42F2D02000FFF790FF62
:105838000028EDD0237CDB0601D1FFF79BFD20007B
:10584800E4E7C046E40A0020100B0020230B0020E8
:10585800EFF3108172B60A4A136A834208D11B6FAC
:105868001362002902D162B6BFF36F8F704713002D
:10587800002BF6D01A6F8242F9D1026F1A67F0E74F
:10588800E40A0020F8B505000E00EFF3108772B6A1
:10589800074B1C6A002C05D1002F02D162B6BFF35A
:1058A8006F8FF8BD20003100A847246FF2E7C0468B
:1058B800E40A0020024B1868984200D10020704783
:1058C8001C01002070B50600FFF7F4FF00280ED079
:1058D800026943693400F517121BAB41002B06DC43
:1058E80001D1002A03DBD843C017104070BD01481E
:1058F800FCE7C046FFFFFF7F002010B5034B1B6885
:10590800834201D1FBF792FB10BDC046180B002063
:1059180030B500280ED00B4B5B6898420AD001685E
:10592800002907D00A694B690469456912196B4156
:105938000A614B610368426813605A600023036080
:10594800436030BD1C010020F0B5040015001E00A6
:1059580085B0531C02D1731C00D17CE0A160EFF329
:105968001083039372B6002E26DBFFF7C5FF0021D4
:105978000090012040197141009AD31712184B4129
:105988003649226163610868496812184B411E0054
:10599800150001230293FFF78DFF0700304B9C464B
:1059A8005B680193002F1DD163462360019B6360F0
:1059B8001C6063465C6027E0284B1868596802221F
:1059C8005242D317121A8B41521BB3411100002BBC
:1059D80004DC01D1002A01D1012100236361216186
:1059E8000023D7E73869796922696369994202DC3B
:1059F80028D1904226D9801A99417B68386179610B
:105A0800636027601C607C60FFF754FF84420FD1FD
:105A1800144B1B68002B0BD1029B002B02D1FFF704
:105A28006BFF00900098FFF74DFF0021FBF780FA0D
:105A3800039B002B02D162B6BFF36F8F28003100A1
:105A480005B0F0BD121A8B4122616361019B9F4230
:105A5800AAD03F68A6E700250026EFE7E80800205F
:105A68001C010020180B0020F0B5050089B0314B4F
:105A780003911D60FFF71EFF2F4904000A684B6859
:105A8800E81704920593002C10D0266967690095E1
:105A98000190874202DC24D1AE4222D932003B0079
:105AA800009E019F921BBB41226163612A00049CF6
:105AB800059D030012196B4100240A604B601D4BC1
:105AC80020001C60FFF7FEFE2100FBF731FA039B64
