:1000000088530020D9200000991C0000C520000062
:10001000C5200000C5200000C52000000000000031
:10002000000000000000000000000000552100005A
:10003000C520000000000000A9220000992A00004D
:1000400015230000152300001523000015230000D0
:1000500015230000152300001523000015230000C0
:1000600015230000152300001523000015230000B0
:1000700015230000152300001523000015230000A0
:100080001523000015230000152300001523000090
:100090001523000015230000152300001523000080
:1000A0001523000015230000152300001523000070
:1000B0001523000015230000152300001523000060
:1000C00010F8012B11F8013B012A28BF9A42F7D002
:1000D000D01A7047034613F8012B002AFBD1181AD7
:1000E00001387047492108B5094803F0F9FE01F0CD
:1000F00041F9024620B14421064803F0F1FEFEE733
:10010000054801F0E7FC4421044803F0E9FEFEE75E
:10011000C25D0000E65D0000885A0000145E000029
:1001200070B586B003F0CAFE03F0C9FE4921294824
:1001300003F0D6FE03F0C1FE03A800F0C9FE054699
:10014000254E44213268131A5A4224485A4103F07A
:10015000C7FE03F088FE044628B14421204803F07E
:10016000BFFEFFF7BFFF3368AB4202D045211D48F9
:10017000F5E7039B49215A681B4803F0B1FE039938
:100180001A484B7D0A7DC98A194D0091492103F017
:10019000A7FE4921174803F0A3FE039A536812896A
:1001A00013442B6004F01AFD01F0DEFC01F0C0FFE7
:1001B0002B681B6883F3088884F31488BFF36F8F60
:1001C000BFF36F8F2B685B68984745210A4803F09F
:1001D00087FEFEE74F5E000084020020685E00009C
:1001E0008D5E0000AD5E0000D05E0000FF5E00008E
:1001F000780200201D5F0000425F000021B101294C
:1002000006D06FF015007047044B53F8300070476C
:10021000024B03EBC0035868704700BF905A0000C0
:10022000014B1B68184700BF00000020014B1860FD
:10023000704700BF0000002030B5044685B00D4671
:1002400010220021684605F0D3F902238DF8023010
:10025000044B2A4621466846019303F0CBFC05B0C7
:1002600030BD00BF2102000080B505460E4617468E
:10027000984603F03FFA034602F05EF80446DFF8C2
:100280001890424649F8003039463046A84754F89D
:10029000090001F0F3FF00BF08000000044608B5A4
:1002A000EFF31183202383F31288BFF36F8F04F0E1
:1002B00095FC204601F02AFF024803F003FE04F0FB
:1002C0004EF8FCE77E5F00002DE9F043079D15B96D
:1002D0001560002012E00324B5FBF4F404EB44079E
:1002E000BD4218BF0134B4F1804F09D2A4000134DB
:1002F0008C4200D838B96FF00B001460BDE8F08371
:100300004FF0FF34F7E704460021DFF8B4E0B942CC
:1003100003F1030C04F104062BD3A942274623D290
:1003200001F1010CAC451F7828BF002324494FEA96
:10033000A70E38BF5B7811F80EE0AC4584F800E0FA
:1003400001EB131E2EBF3D239B0003F03C034FEA3D
:10035000071738BFCB5C07F030071EF80770A37093
:100360003D2367703746E3700023381A10603B70F6
:10037000AFE71CF8034C1CF8023C4FEAA4091EF836
:10038000099024011CF8018C04F0300406F8049C48
:100390000EEB131919F804409B0006F8034C03F008
:1003A0003C030EEB9814E35C08F03F0806F8023CAF
:1003B0001EF80830344606F8013C03316346A6E7D0
:1003C000949900002DE9F04300273C463E46DDF8B5
:1003D0001CE0DFF81C81764526D3D4BB00201460D6
:1003E000BDE8F0830135754531D013F805C0BCF187
:1003F000200FF7D0AEEB0509B9F1010F16D0BCF113
:100400000D0F13D103EB050999F80190B9F10A0F0B
:100410001BD0B54205D1BCF13D0F0AD10137022FE7
:100420000AD96FF01500DBE73546DCE7BCF10A0FAF
:10043000EEE71CF0800FF4D118F80C607F2EF0D09E
:100440003F2E01D8002FECD101346E1CC3E72E469D
:10045000C3E74FF0060C04F00705E4080CFB05F5B4
:100460000CFB04F40735E41B04EBD50470B18C429B
:100470000CD80027014603253C46DFF874E0DFF87E
:1004800074801E44B34205D10C1AA7E76FF00B002D
:100490001460A5E713F8019BA9F10A0C5FFA8CFC24
:1004A000BCF1160F04D828FA0CFC1CF0010FE9D19E
:1004B0001EF809C00134BCF1400F08BF013D0CF02B
:1004C0003F0C042C4CEA8717DCD17DB13C0C012D8C
:1004D0000C7002D101310024D4E7022D4FEA172419
:1004E0004C7016BF8F7002310331F4E72C46C9E718
:1004F0001499000009004000014B03600020704780
:10050000985A0000F8B506460C4600230A4F3D688D
:1005100025B95BB93C6000202660F8BD31462868EB
:10052000FFF7CEFD20B12B466D69F1E75C61F2E784
:100530006FF07700F1E700BF7C02002070B5104B30
:100540000D461C68B4B10F4B196800238B4202DBC7
:100550006FF0010070BD224612F8106B864202D087
:1005600014460133F2E7E06804F0FDFE28B10020F4
:100570002C60EFE76FF00C00ECE76FF01200E9E79A
:1005800004000020985A00002DE9F347174642F274
:100590001602424DADF800202A888046ADF80220B0
:1005A00000220C461E4601921BB9032002B0BDE892
:1005B000F087DFF8EC9099F8003053B9394803F030
:1005C000A9FF384803F031FF374B1860012389F841
:1005D00000304FF00409B5F800A0CA4524D8C4F390
:1005E0000B0444EA0830BCB2B5F80080ADF8040052
:1005F000201D80B24044B0F5803FADF80640D4DA0B
:10060000294B80B21B68834246DB042341460DEB35
:100610000302244803F059FF0246D8B1452123487C
:1006200003F05EFC0420C1E7042349461D480DEB9E
:10063000030203F010FF58BBBDF80430B8EB133FC2
:1006400003D1C3F30B03A34224D0BDF80630043317
:100650009944C2E708F104013B463246114803F0D1
:1006600034FF014618B1024645211148D8E72B88CE
:100670006A4604331C44A4B204230A482C80ADF813
:10068000024003F022FF003818BF012080008DE7F0
:1006900005208BE7022089E7012087E7A4000020DE
:1006A000D61000205058000080020020B85F0000E3
:1006B000E55F00002DE9F04F9B4682460E469146CD
:1006C000484F9DB044214848299D3C6803F008FCF0
:1006D000289B0DF150080393279B4A460293269BC3
:1006E0003146009350465B46CDF8048000F08CF80C
:1006F00078BB5DB1C4462B46624603CA59601CA94B
:100700008A421860944603F10803F5D100234A4653
:10071000009331464FF6FF7306A800F09BF805469C
:1007200028B144210246314803F0DAFB11E0DDF83C
:100730002CB044215B460A9A2D4803F0D1FB494670
:10074000504603F05FFC58452AD24421294803F063
:10075000C7FB3C6842E0934237D1102A20D14421A4
:10076000254803F0BDFBBDF81030202BF1D1059AD0
:100770007368134403F120050CAA144618685968DD
:10078000083303C4AB422246F7D1202240460CA9CD
:1007900003F036FC0446194B01251B689842D8D15A
:1007A0000DF1120304AA05A906A800F09FF800287D
:1007B000CFDB11D1059906A803F014FCBDF8122077
:1007C0000028CAD14FF6FF700D4931F8023B834231
:1007D000C1D144210B48A7E7012DBAD120461DB055
:1007E000BDE8F08F0C000020206000004A6000008F
:1007F0007E600000AD6000001061000084020020F7
:10080000A45D0000DF60000070B511489CB00C468C
:10081000DDE92256442103F063FB684600F0D6FC74
:1008200035B1002E04DD32462946684603F096FCB9
:100830006289238961681344E26868461A4403F0B8
:100840008DFC6946219803F0AFFC00201CB070BD00
:10085000446100002DE9F3411E4604469DF82080C6
:100860000D4617464346324644211F4803F038FBE5
:1008700024B94FF0FF3002B0BDE8F081002DF8D070
:10088000002FF6D046F6081CEB68298919446B68DE
:100890005A5858181FFA82FE0192E6456B891FD1FB
:1008A000B3EB124F4FEA124CE3D15CF800300193E6
:1008B00046F60713BDF804209A42DAD1C4E900577E
:1008C000268184F80A806B89BDF806200B44E3601A
:1008D0006B89002013440B44043163612161CAE732
:1008E000002BE5D0C5E700BF5B6100002DE9F743B1
:1008F0000D4616461F460446002854D00368002BB8
:1009000051D04368002B4ED04FF6FF784369442105
:1009100001930369009302894FF6FF73234803F0A4
:10092000DFFAD4F814E020692289704502D344210B
:100930001F4810E021684B8923B1E368834204BF5C
:10094000043020614B681958A37A43B1E3688342AD
:1009500005D84421174803F0C3FA01201CE04245A2
:100960008BB2C1F30F494FEA114C01D09A4216D114
:1009700007B13B802369104804332B60A6F8009030
:1009800023698AB20433634423613388442100938A
:100990002B6803F0A5FA002003B0BDE8F083043013
:1009A00060442061BFE74FF0FF30F5E78D61000044
:1009B00055620000E36100001B6200002DE9F04376
:1009C00006460C4685B0CDE9002391461F460246F7
:1009D0000B462348442103F083FAB368A34239D974
:1009E0001B1B4B4536D344211E4803F079FA0FB345
:1009F0002146304602AA03F045FA051E2CDB013CD5
:100A0000DDF808804C442146304602AA03F03AFA49
:100A1000051E21DBDDE9024930464A46214603F046
:100A2000BEFA051E18DB03F04AFA77B1444513D924
:100A3000013CE8E7611E304602AA494403F022FA6D
:100A4000051E09DBDDF80880DDE74C44A04503D333
:100A50000134D8E74FF0FF35284605B0BDE8F083F4
:100A600083620000D0620000F7B51446CDE9002390
:100A700005460E461F4602460B460848442103F031
:100A80002FFA44B13B4622463146284603B0BDE822
:100A9000F040FFF793BF204603B0F0BDFA620000BC
:100AA0002C2310B559434218146A0CB903F074FC96
:100AB00041580D4B994206D1D16813895B1802D277
:100AC0005189C91801D300200CE0A3689942FAD2D9
:100AD000106920F4F97020F001000005000DB0FA53
:100AE00080F0400910BD00BF3DB8F3961FB52C2320
:100AF00003FB02010A6A0AB903F04EFC0023CDE9A8
:100B0000023301934FF480730093034BFFF7D2FD40
:100B100005B05DF804FB00BFD710002030B50546D6
:100B20000C464B8885B003934B7802930B78442195
:100B3000019343880093437802780D4803F0D0F97D
:100B40002A7823789A4210D80CD36A7863789A422C
:100B50000BD807D36A8863889A4206D860EB0000F6
:100B600005B030BD4FF0FF30FAE70120F8E700BFD5
:100B7000216300002C2370B503FB01040D46266A97
:100B800000F06AF82A4603463146204600F00AF88B
:100B9000044618B14521024803F0A2F9204670BD71
:100BA00057630000F0B51D4606230024012787B0D7
:100BB0008DF80720244A254E516810688DF80D30B5
:100BC00004AB03C331788DF80E408DF80F70A1BBD4
:100BD0003A4602200DF10D03FFF7D6FC044660BB38
:100BE0003A46394602200DF10E03FFF7CDFC0446CC
:100BF00018BB02213A4608460DF10F03FFF7C4FC6B
:100C00000446D0B93A46032102200DF10703FFF74D
:100C1000BBFC044688B908220421022004ABFFF77C
:100C2000B3FC044648B92B7853B1042205210220B5
:100C30002B1DFFF7A9FC18B10446204607B0F0BDF4
:100C400001233370F9E700BF805A0000D71100205C
:100C5000004870479002002000487047880200203A
:100C60002DE9F84305464FF000083D4E2B6E013349
:100C700073D195F8643095F86520013BDAB1013302
:100C800023D005F1140105F14000FFF747FF431E93
:100C90005C425C4128462C6600F02CF90346C0B14A
:100CA0002146284600F08EF94FF0FF332C4484F89B
:100CB00064802B66DAE7013309D14921294803F022
:100CC0000FF9294B1868BDE8F8830124E2E71446C0
:100CD000E0E74FF02C0909FB045922464421234840
:100CE00003F0FEF8D9F820700FB903F055FB214648
:100CF000284603F0D5F920B9D9F8101011F01009E1
:100D000008D01B4B18683368834226D0284600F071
:100D100045F9C9E721462846FFF7C2FEB8B915488C
:100D20002246442103F0DCF80F4B186833688342F5
:100D3000E9D0114B114A4521002C18BF1A46104822
:100D400003F0CEF82146384603F0A5F9D9E722464C
:100D500049462846FFF7CAFEE8E7014BB2E700BF65
:100D600084020020986300000C000020BA63000099
:100D700008000020F26300008E630000866300001C
:100D8000276400002DE9F043DFF81C9185B004468C
:100D90000F46D9F8006003F0A8F9024628B1D9F847
:100DA0000060304605B0BDE8F0830146204603F000
:100DB00084F9054648B157213C4803F091F8204694
:100DC00003F0ABF9002DEAD1EBE701462046FFF72F
:100DD00067FE70BB2A464921354B364884F864507B
:100DE00003F07EF801212046FFF75AFE0246002854
:100DF0002FD0012384F86530636C49210293B4F845
:100E000042302D4A019394F841302C48009394F8D5
:100E1000403003F065F84FF0FF3323662046FFF7BC
:100E20001FFF0646264B1B6883421AD0D9F8006084
:100E3000C5E7012384F86430A36949210293E38A5A
:100E4000204A0193637D1D480093237D03F048F8F9
:100E5000C8E784F8650049211B4B164803F040F8A9
:100E6000D9E7204694F86010FFF784FE0546002875
:100E7000DCD1226E14490E4B002A18BF0B460246E5
:100E80004921124803F02CF82C22236E02FB034860
:100E9000D8F8200002F0F4FF3871D8F820305B68F1
:100EA000C7F80080BB608AE70C0000204F64000098
:100EB0008663000072640000C5640000A164000045
:100EC00084020020996400008E630000CF6400005B
:100ED00010B50446064803F02DF905482146FFF7F2
:100EE00051FF0446024803F0D5F8204610BD00BF6C
:100EF00090020020F7B52C25016E064605FB010582
:100F00002B699B063BD501AA6F6803F07EF8044667
:100F1000A8B91C4A019B9742B766F36608D9D9194C
:100F200006D2194A914203D8286A58B903F034FA14
:100F30003B4600224921154802F0D2FF03242046F7
:100F400003B0F0BD21463A4602F0FFFF044678B1F7
:100F50000346002249210E4802F0C2FF3B46002210
:100F600049210C4802F0BCFF0023C6E91A33E6E72A
:100F700002463B464921084802F0B2FFDFE703245E
:100F8000F2E700BFFFFF232000F03F20F5640000E0
:100F9000256500005F6500008C65000010B5044603
:100FA000836E00224921064802F09AFF0021E26E7A
:100FB000A06E04F01DFB0020C4E91A0010BD00BFA4
:100FC000BC65000038B500220B4605460C460848B3
:100FD000492102F085FF2C2303FB0455286A08B938
:100FE00003F0DAF92146BDE8384003F054B800BFF9
:100FF000ED6500002DE9F04F002603689DB00293D7
:101000004368DFF8C0E1039383688A46DDE902158F
:101010000493C36805930369DDE904B70693436944
:1010200007938369DDE9062C0893C3699846099301
:10103000089B00935AF806400CAB24BA5EF8049B58
:101040009C514FEAF223A14483EAB213009C83EA45
:1010500072634B4424EA020402EA0C0984EA09049C
:101060002344434485EA0B044FEA713888EAB10807
:101070000C4005EA0B0984EA090488EAB1580436F1
:10108000A044402E03EB070443445F46DDF8008094
:1010900040F088804FF0100A4B4E0A9656460AF1EF
:1010A000010A0DF1700E0AF00F070EEB870757F8D3
:1010B000407C06F00F094FEAB748019788EAF71815
:1010C00006F10E0707F00F070EEB870757F8407C75
:1010D00009364FEAF74E8EEA774ECDF82CE006F04F
:1010E0000F060DF1700E0EEB86060EEB890959F80E
:1010F00040EC56F8406CBAF1400F7644DDF804E05D
:1011000088EADE08DDF82CE046448EEA972E764425
:1011100004EA02084FEAF42E2CEA040787EA0807DB
:101120008EEAB41EDDF828808EEA746E774458F893
:1011300004EF49F8406C77443744009E4FEA733E11
:101140003E4481EA0507CDF828808EEAB30E07EA0F
:10115000030701EA05088EEAB35E87EA08077744C9
:10116000374406EB0B0ECDF800C0AB4622D1029EF1
:101170003E440660039E1E44049B46600B4483600D
:10118000059B2B44C360069B73440361079B234468
:101190004361089B13448361099B6344C3611DB091
:1011A000BDE8F08FAB46CDF800C00D469446194619
:1011B00022463FE794460D462246194674463B4672
:1011C0006CE700BFDC5A0000185B000010B5044655
:1011D000C8B17022002103F03BF80B4B0B4A0C49BD
:1011E000C4E900230B4B0C48C4E902130B4BC4E9C0
:1011F000040301200A4BA36103F17453A3F52303F5
:10120000A3F69243E36110BD85AE67BB67E6096A4A
:1012100072F36E3C3AF54FA57F520E518C68059BD8
:10122000ABD9831FF7B5254E306883685B6C03B17B
:101230009847306883685B6B002B31D1204C214D7F
:10124000306883689B69002B2DD001220DF10701C6
:101250009847012827D1236843B92B682BB36968C5
:101260001A688B422A6000D16A602360164A9DF892
:10127000070011887F2904D823684F1C0B4417806E
:1012800018720A28DCD10020236811881860596080
:101290000E494D6875B9C1E9003310802060CEE772
:1012A00098470028CAD103B0F0BD4521084802F094
:1012B00017FEF8E72B604B60EFE700BF58070020F0
:1012C0000003002010030020D41000200803002099
:1012D0001766000010B5044B044618688368E1B235
:1012E0005B689847204610BD58070020F8B50546B2
:1012F00016460846EFF3118C202383F31288BFF3C0
:101300006F8F19490B684BB1184C62689A4205D02F
:1013100000221A6062689AB9C4E90033144A13685B
:101320002BB157681C68BB42146008BF54608CF333
:101330001188BFF36F8F0B602BB918463360F8BD6F
:1013400013606360EAE75C6803F10801A042D8BF5C
:1013500000F1FF342246284604F023F90023601CE4
:101360002B550123EAE700BF0403002010030020EF
:1013700008030020002313B51C462049204AC1E978
:101380000033C2E900331F4A4868146020BBC1E93A
:1013900000220133082B02F18802F5D11A4C1B48B8
:1013A000206003F0E0FF28B32068836823B19B6CC2
:1013B00013B1002216499847206883685B6B0BB114
:1013C000984760B1206883689B69002BFAD001229E
:1013D0000DF107019847F4E702604A60D9E700225F
:1013E0000C4B20681A8083689B6A03B198470020E1
:1013F00002B010BD4FF0FF30FAE700BF100300202D
:10140000080300201803002058070020FC570000A4
:1014100025120000D410002041F204432DE9F04FC2
:10142000EFB0ADF80C3040F606130024DFF8D4908E
:10143000ADF81030D9F80010334BDFF8D0801E68BB
:101440000B78A6EB08065A1C62F302030B7073BA02
:101450004B808B8808225BBA8B804C70204602F050
:10146000A3FF3246414602F09FFF0746B5B205F1A1
:101470000A03D9F800101FFA83FB5BBAADF81830E5
:101480000B683246CDF81A304B680DF1180A414608
:101490007FBA0DF122000C35CDF81E30ADB204F04C
:1014A00080F832AE2AF80B7005AF009553463A46E5
:1014B000ED213046FEF708FF154DBDF81480A0451C
:1014C00006DC4421134802F00BFD6FB0BDE8F08F3D
:1014D0002B6802215B6894B904A8A8EB040798471D
:1014E0007C2FA8BF7C272B68301939465B6898474A
:1014F0002B6801215B6808483C449847DFE703A854
:10150000EBE700BFB007002068070020D8110020DB
:10151000B4070020556600009A96000010B50446F6
:101520000A210A4803F0F3FE02220949074803F0A2
:10153000E1FE2146054803F0BAFE0A21034803F004
:10154000EEFEBDE81040FFF767BF00BF6807002050
:101550005D6600002DE9F0474FF0FF3400250B4693
:101560000121D4B00594069407940AAE0246C6E958
:101570000055089530A80091CDE901550421099541
:1015800003F00CFE4022294620A804F031F8834BDA
:1015900003211C93052304221D93814B0DF1180A8E
:1015A000CDE91E3A7F4B80482193804B05AFCDE9B2
:1015B00023367F4B0DF11C0826937E4BCDE92B0182
:1015C000CDE92838CDE92D37279109AB1CA930A8E2
:1015D00008AC229202F04CFE48B303252A4644216F
:1015E000754802F07DFC0A21744803F090FE7449AE
:1015F0000222724803F07EFE2946704803F057FE2F
:101600004DB9694903226D4803F074FE6D4B6B4878
:10161000196803F056FE0A21684803F080FEFFF7C0
:10162000FBFE206802F090FC54B0BDE8F0873B68F8
:101630005A1CD2D0D6F80090B9F1000FCDD0766800
:10164000614A33B9DAF80010B1F1FF3F18BF0B4619
:10165000136000211068FEF7D1FD2146C0B2FEF7ED
:101660006DFF05460028B8D13B68564F002B3DD191
:101670002068D8F8003082683D609342ADD82B4690
:101680002946FFF79BF90028A7D1D8F800204F4B37
:101690001A60206802F098FCB6FBF0F303FB00FA36
:1016A0003A684A4902EB0A030968A6EB0A06981948
:1016B000884238BF00264421454802F011FC2068CA
:1016C00002F082FC0128D04606D9206802F07CFC9A
:1016D000013819EA000F3DD153464A46396820685F
:1016E00002F048FC00287FF478AF2DE03A6893427E
:1016F0007FF474AF354A334412689342C9D96CE71A
:10170000C245206828BFC24602F065FC402201465F
:101710000CA803F06DFF524649460CA803F041FFA8
:101720005346396820680CAA02F024FC08B105462B
:1017300054E73B68D14453443B60A8EB0A08206857
:1017400002F042FC4045DBD93EB93B683344434498
:101750003B6043E74FF0400AF1E7206802F03BFCB2
:10176000082201460CA803F043FF324609EB0801AA
:101770000CA803F016FFD4F800A03968504608EB17
:10178000010902F021FC494603460CAA504602F02A
:10179000F1FB00287FF421AFD7E700BF60660000AF
:1017A000CB4F0000666600006B660000D54F00005E
:1017B0009B6D0000D14F00008F660000680700207D
:1017C0005D66000060070020640700205C070020C1
:1017D0006F660000F0B50C68164F85B002380D46F4
:1017E000C4F580610090144B381903AA0131FEF74B
:1017F000E9FD0446D0B92B68039A1344022B2B60F1
:1018000011D93E88023B76BAB6B29E420BD132461F
:10181000B91C02F0C9FD30B9022E04D92B689A1EFA
:101820002A60FC540124204605B0F0BD4FF0FF347F
:10183000F9E700BF7D12002080160020002307B5C5
:1018400002210093034AA423034803F06AFD03B076
:101850005DF804FBD8110020680700202DE9F04F47
:1018600007290446ADB040F21981037813F0050F43
:1018700040F014814388A1F108055BBA9BB2AB42EA
:10188000C0F00C81874B186083885BBA8380FFF7B8
:10189000D5FFA688012E40F0E880E37923B1012B23
:1018A00000F0DB800820F4E02778FFF7D1F9054647
:1018B00002F040FC284602F018FC07F00707044637
:1018C00088B102464521784802F00AFB3446284692
:1018D00002F0E0FB14B12046FFF720FE2DB0BDE87A
:1018E000F04FFFF7ABBF002F40F0B58031466F4897
:1018F00003F00DFD06226E496C4803F0FBFC052148
:101900006A4803F000FD2746DFF8A881DFF8A891B8
:10191000DFF8A8A17B4205F1200203F02C03D65882
:10192000002E6AD02023002130460CAAD8F800B03F
:1019300002F00BFB0C9B4B450CD10023CDE902338D
:10194000019340233246009328461CAB0CA9FEF7B6
:10195000B1FE8346DAF800305B454ED100233246B3
:1019600000930CA94FF6FF7306A8FEF773FF00283B
:1019700056D04FF0FF3614214C4803F0C8FC5049B4
:1019800004224A4803F0B6FC3946484803F099FC63
:101990004EB904224B49454803F0ACFC2022434891
:1019A00014A903F09EFC07224749404803F0A2FC1B
:1019B000BDF846301CAE01939DF8453040210093A0
:1019C00030469DF84430414A02F0EAF8129B43B198
:1019D000421E3E2A05D8C0F140013D4A304402F083
:1019E000DFF83046FEF776FB314602462F4803F01B
:1019F00081FC14212D4803F092FC7B1C022B4FF03C
:101A0000010787D10521294803F085FC394627487D
:101A100003F085FCFFF700FD284602F07EFB56E749
:101A20000DF1120304AA05A906A8FEF75FFF00281E
:101A30009FD1BDF81230102BF2D1BDF81030202B01
:101A400097D13046059914AA02F07FFA061E18BFF6
:101A5000012676428FE70824DEE7294604F10800D4
:101A60002DB0BDE8F04FFFF775BD002E7FF41AAF23
:101A7000E379012B0CD0052B7FF414AF3046FFF730
:101A80004DFD1920002103F003FD0120FEF706FCA7
:101A900030462DB0BDE8F04FFFF740BD2DB0BDE89A
:101AA000F08F00BFB00700209D660000680700208F
:101AB000C16600000C0000203DB8F39684020020AF
:101AC000C8660000CD660000D2660000DA6600003D
:101AD000E666000001232DE9F341002405461E4F70
:101AE0001E4E3B701E4B009418603B7813B902B039
:101AF000BDE8F08140F2014802F0E1F92B6801AA4B
:101B0000A8EB0401301998470028019B0FDC002B3B
:101B1000EBD004443378062B10D17378092B12D103
:101B2000002300936946A01EFFF754FE0BE0044417
:101B3000002BEFD14445D8D10024D6E7042B02D1A5
:101B40007378142BEED00128F6D10099054802399C
:101B5000FFF784FEF0E700BF7C1200207E16002015
:101B6000B40700207F120020BFF36F8F72B64FF0D2
:101B7000FF32114BC3F88020C3F88420C3F88820BB
:101B8000C3F88C20C3F89020C3F89420C3F89820A1
:101B9000C3F89C20C3F88021C3F88421C3F88821AE
:101BA000C3F88C21C3F89021C3F89421C3F898217D
:101BB000C3F89C21704700BF00E100E008B504486D
:101BC00002F080F9BDE80840024802F07BB900BF8E
:101BD000EA6600001067000008B50348034A0021C8
:101BE000121A02F09BFB08BDD8000020881A0020C2
:101BF000074808B5074A0849121A02F091FBBDE8E8
:101C000008400648064A0749121A02F089BB00BF7D
:101C100000000020D800002024A6000000000020C2
:101C20000000002024A6000037B505460C46C9B1C7
:101C30008B6814480093D1E90023452102F050F944
:101C4000636945210093D4E903230F4802F048F962
:101C50004521E2690D4802F043F94521A2690C488B
:101C600002F03EF9012D06D1EFF305824521094826
:101C7000103A02F035F92146284603B0BDE830405D
:101C800001F004B83C67000070670000A467000022
:101C9000B8670000EB67000008B5034B1B68984766
:101CA000BDE8084000F0DABA1000002030BFFFF7AE
:101CB000FDBF00BF2DE9F04105460B4EDFF82C803B
:101CC000324606EB0807CC1B2046094903F069FCA5
:101CD000A01942460021083C03F08AFC2C6707F15A
:101CE0000800BDE8F08100BF000000000400000013
:101CF000805A000010B5204C4521204802F0F0F831
:101D0000A36A990136D51E48452102F0E9F81E2044
:101D1000A36ADA0104D51B48452102F0E1F81F202F
:101D2000154CA36A1B0304D51748452102F0D8F8C7
:101D30002120A36A590304D51448452102F0D0F8A4
:101D400022200D4CA36A9A0304D51148452102F0C4
:101D5000C7F82320A36ADB0304D50E48452102F00F
:101D6000BFF82420044A936A6FEA03436FEA1343DF
:101D7000936210BD1D20CBE700ED00E0036800007A
:101D80002068000038680000576800007A6800008A
:101D9000A4680000C368000070B5244C06460D46D8
:101DA0002348452102F09CF8A36AD9043BD5214879
:101DB000452102F095F81720A36A1A0504D51E489C
:101DC000452102F08DF81820184CA36A9B0511D507
:101DD00045211A4802F084F8A26BA36A190408D5B9
:101DE0004521174802F07CF81EB1A36A23F4004392
:101DF000A36219200D4CA36A5A0504D51148452148
:101E000002F06EF81A20A36ADB0504D50E484521BE
:101E100002F066F81B20054A936A43F47F439362FD
:101E200000232B7070BD1620C6E700BF00ED00E058
:101E3000F36800000E690000246900003C6900009E
:101E40005A690000746900009469000070B5224C62
:101E500006460D462148452102F042F8A36AD906FC
:101E600037D51F48452102F03BF81120A36A1A0715
:101E700004D51C48452102F033F81220164CA36A01
:101E80009B0711D54521184802F02AF8626BA36A16
:101E9000190608D54521154802F022F81EB1A36A9B
:101EA00023F08003A36213200B4CA36ADA0704D546
:101EB0000F48452102F014F81420A36A064ADB06F5
:101EC00058BFA36A936A43F0FF03936200232B7009
:101ED00070BD1020CAE700BF00ED00E0B16900004E
:101EE000CC69000024690000046A0000216A000037
:101EF0003C6A00002DE9F041614B04465F68002513
:101F00008AB0C7F3080685F31188BFF36F8F02F01C
:101F10007F43B3F17F4F07D102F00C03082B14D19C
:101F20004521584801F0DCFF00252C464FF0000801
:101F3000F31E8DF80780092B00F29180DFE803F093
:101F40000A8488808F8F8F8F8F8C10074CBF0C4630
:101F50000125EBE745214C48494E01F0C1FF8DF8C2
:101F60000780F36A9A0705D54521484801F0B8FF74
:101F700000232DE0F36A002B02DA45214448F5E7FF
:101F8000F36A5B00F4D54521424801F0A9FF73696B
:101F9000A26943F480737361BFF34F8FBFF36F8FF8
:101FA00032F8023C726922F480727261BFF34F8F83
:101FB000BFF36F8F03F47F42B2F55F4F28D1DBB2DE
:101FC000022B25D145212268334801F089FF23687F
:101FD0009DF80720CAB902AE04F1200732462068F6
:101FE0006168083403C2BC421646F7D1099A002D35
:101FF00042D0C2F3080121B96FEA52226FEA4222AD
:102000000992184602A9FFF70FFE0AB0BDE8F08159
:102010001B4B9A6AD2B22AB101200DF10701FFF7DA
:1020200015FF0FE09A6A12F47F4F05D001200DF1E1
:102030000701FFF7B1FE05E09B6AB3F5803F97D338
:10204000FFF758FE0346C3E700200DF10701E6E75E
:1020500000200DF10701ECE74521104886E7104903
:1020600017F4F87F0F4A104818BF0A46A6F110036C
:10207000452101F035FF7BE76FF30802C0E700BFA1
:1020800000ED00E08E6A0000BE6A0000DA6A00001F
:10209000006B0000136B0000376B0000586B0000F2
:1020A000756A0000606A0000816B0000044B5A6989
:1020B00042F010025A615A6922F008025A617047D0
:1020C00000ED00E0EFF30880EFF3098101B57246FF
:1020D000FFF710FF01BD00BF0A4880F308882020E9
:1020E00080F3118808484FF48051401880F3098824
:1020F000EFF314800221084380F31488BFF36F8F3D
:1021000002F018F988530020881A0020BFF34F8F7F
:102110000549064BCA6802F4E0621343CB60BFF383
:102120004F8F00BFFDE700BF00ED00E00400FA059F
:10213000002318460649D1F89020C2F307229342A3
:1021400000DB7047C1F89830C1F8A0000133F6E712
:1021500000ED00E01EF0040F0CBFEFF30880EFF37A
:102160000980816911F8021C0229FFD001B572466D
:1021700002F0D8F801BD00BF40B2002807DB012300
:102180004109034A00F01F00834042F821307047A4
:1021900000E100E040B2002801F10101ACBF00F114
:1021A0006040064B4FEA4111C9B2ABBF00F5614038
:1021B00000F00F0080F800131954704714ED00E090
:1021C000054B064A23F0404323F07F039360BFF39F
:1021D0004F8FBFF36F8F70470000000000ED00E0ED
:1021E00042F8203C009B0B4942F81C3C019B21F02B
:1021F000010142F8183C029B42F8081C42F8143CCA
:102200004FF0807342F8043C0023203A0265436794
:10221000704700BF6902000000B50B4B154698607F
:10222000026F0A4B0E461A602C4686F3098800207E
:10223000034B98472046002100220023014C2047F1
:102240005143000069020000A8100020B8070020D8
:102250001022014B1A61704700ED00E0054B5A69EE
:102260009B689A421FBF044A536843F080535360EF
:10227000704700BFA810002000ED00E0084B9B68ED
:1022800083420BD1EFF3058343B1064B5A6842F00A
:1022900080525A605A6A22F400425A6201F030BAFF
:1022A000A810002000ED00E011498A684FF03000CE
:1022B0001044EFF3098C80E8F01F202080F312888F
:1022C000BFF36F8F0B4F4FF000664A698A603E6024
:1022D000106F094C2060506F0023536780F3118802
:1022E00002F1300090E8F01F8CF30988704700007D
:1022F000A810002004ED00E0B807002000232021F2
:102300000348C2180133202B82F80013F9D170471B
:1023100000E100E008B5EFF30583064A103B02EB4D
:10232000C30152F8330049688847BDE80840FFF709
:1023300095BF00BF6C58000001480068704700005E
:10234000B80700200121024B024A034800F09EB862
:102350000000042000000020DC5B000007B50246FE
:102360000C48C0F898200B6823F01F03134343F078
:102370001003C0F89C308B6843F00103C0F8A03014
:102380008B68054800930B68442101F0A9FD03B058
:102390005DF804FB00ED00E09D6B000038B50E4BCE
:1023A0000D46D3F890300446C3F30723013B98420F
:1023B000024607D94521094801F092FD6FF0150446
:1023C000204638BD4421064801F08AFD29462046B2
:1023D000FFF7C4FFF4E700BF00ED00E0B56B0000BD
:1023E000E06B00002DE9FF410F46984605460026A8
:1023F000BE420EDA6B685BB3B8F1000F12D0591E03
:102400000B420AD032464521134801F069FD6FF0B6
:102410001502104604B0BDE8F0811F2BF2D92B68DD
:102420001942EFD1D4B2224644210C4801F058FDA4
:102430002B6801A90193D5E9010301F09DFF034336
:1024400020460393FFF7AAFF10F1160FDFD0421CBE
:1024500001360C35CCE700BF066C0000316C000083
:102460000522044BC3F89420BFF34F8FBFF36F8F47
:10247000704700BF00ED00E0BFF35F8F0022024B0A
:10248000C3F89420704700BF00ED00E010B5034C86
:1024900001232278FFF7A6FF207010BD7F1A0020CD
:1024A0002DE9F0435A4A5B4ED2F890303568C3F3B9
:1024B00007239D4285B000F2A880D2F890204421E5
:1024C000C2F30722544801F00BFD0024FFF7D4FFAC
:1024D0000C27A54219D1514F68463D70FEF70CF804
:1024E0004FF0000881464E4C4E4D4F4EC14514D121
:1024F00000203B784649D1F89020C2F3072293424E
:102500007DDBFFF7ADFF002045E07168204607FB4B
:102510000411FFF723FF0134DBE700984FEA081CA2
:1025200000EB0811CB682340B3F5000F49D00BD85E
:10253000B3F5001F32D0B3F5800F37D0B3F5801F4D
:1025400014D008F10108D1E7B3F1007F42D0B3F114
:10255000805F48D0B3F1807FF3D150F80C308868A9
:1025600001F00AFF4A6840F0887009E050F80C302A
:10257000886801F001FF4A6840F0885040F430203C
:10258000039001A93878CDE90123FFF707FF002860
:1025900031DA6FF0150005B0BDE8F08350F80C306B
:1025A000886801F0E9FE4A683043E9E750F80C30EA
:1025B000886801F0E1FE40F000704A6840F40030A5
:1025C000DEE750F80C30886801F0D6FE4A6840F02B
:1025D0008270D5E750F80C30886801F0CDFE4A686B
:1025E00040F48020CCE750F80C30886801F0C4FE3D
:1025F0004A682843C4E73B7801333B70A1E7C1F840
:102600009830C1F8A000013375E74FF0FF30C2E702
:1026100000ED00E0E85B0000596C00007F1A00202C
:102620000000F0FF000002110000081108B5024B85
:102630001B689847002008BDBC070020034B044AD4
:102640001860937843F0020393707047BC07002032
:102650001400002008B5054801F034FC002383F382
:102660001188BFF36F8F0423184602DF846C0000CB
:1026700070B545680669286802F075FE38B94521CD
:10268000124801F02DFC6FF01204204670BD28683E
:1026900083681B689847041E05DA224645210C48CA
:1026A00001F01EFCF1E7D5E901231A44A24207D943
:1026B00023464521074801F013FC6FF01504E4E7B9
:1026C000301D02F06EFE0024DFE700BF8D6C0000BD
:1026D000AD6C0000D46C000013B504460B4801F04B
:1026E000A9FE012802D010F1860F0CD10123002190
:1026F00006480DF1070201F0AEFE20B99DF8073043
:102700001B1B5842584102B010BD00BF3458000096
:10271000014801F0FFBE00BF3458000008B507486B
:1027200002F021FE38B10648FFF788FF0448FDF7A4
:102730007DFD002008BD6FF01200FBE7E0570000B0
:10274000452700000A2838B50446074D04D1AB6878
:102750000D2128465B689847AB6803485B68E1B287
:102760009847204638BD00BFE057000038B5054601
:10277000002910461C462A6914DB6B685B698B4292
:1027800010D95B1A9C420DD8084D6B6A01336B62FD
:1027900013682246194402F004FF0020AB69234469
:1027A000AB6138BD6FF01500FBE700BF14080020D7
:1027B00040F2092213B50F4B044604210193009205
:1027C0000D4B0E4801F0A0FB03220D4B009201932C
:1027D00004210C4B0C4801F097FB23691A7932B1A4
:1027E0006268186851685269497902F001FF002057
:1027F00002B010BD3D6D0000E699000014080020F5
:102800004D6D0000D4990000F007002000292DE94B
:10281000F8438046174646DBD0F80490D9F81430C8
:102820008B4240D95B1A9A423DD8D9F81030B1FB9F
:10283000F3F203FB1212002A35D1B7FBF3F603FBC8
:10284000167686BB194C1A4A636BD26901336363EF
:1028500022B1934202D30020BDE8F883D9F81030AA
:10286000B1FBF3F505F10F0304EB8304D9F8103045
:10287000B7FBF3F3B342EED97019FF2898BF236872
:1028800006F101069CBF01332360D8F804300434FC
:102890001A695968D8F8103049791B6802FB003072
:1028A00002F0A6FEE2E76FF01500D5E7140800205D
:1028B000F00700202DE9F74F0D1E91461F46D0F876
:1028C00010A06BDBD0F80480D8F81430AB4265D987
:1028D0005B1B9F4262D8D8F804301B68B5FBF3F24B
:1028E00003FB1252002A59D1B7FBF3F403FB147413
:1028F000002C53D12B4EA346F36A0133F362D8F870
:102900000430D8F800001A68597902F071FEBB450E
:1029100010D32548836933B1F26A934208D322D198
:10292000036A2BB10123BC421FD1F3692344F36135
:10293000002013E0D8F804300BEB05011A68DAF830
:102940000030D8F800001944019202F059FE019AB3
:1029500038B16FF00400336A0133336203B0BDE86D
:10296000F08F9344D3E70023DDE713B1026AA2425C
:10297000DED9D8F80420DAF800E004EB050C52792F
:1029800019F804101EF80CB0FF2A0CBF01EA0B0165
:1029900041EA0B010EF80C100134C4E76FF015008A
:1029A000DCE700BF14080020F007002070B50F4DD1
:1029B00000EB8104A04201D1002070BD4378017872
:1029C00013F0010FC1F301130CBF4FF400324FF4A9
:1029D0008032061D01F00F0155F8230001F0C9FEF9
:1029E00010F1860FE9D03046E4E700BF145D000027
:1029F000054B1B7833B180684FF0FF324FF0FF3347
:102A000000F0C2BA704700BF841A0020034B1B7845
:102A100013B1806800F066BB704700BF841A0020C5
:102A20004FF0E0230D4A9969126818699B690029E3
:102A300008BF1146002B08BF134610F4803F08481A
:102A400001D1994205D20168114401604FF0E021A3
:102A5000096900681044C01A704700BFA410002024
:102A60009810002020220020074B83F82320074BDA
:102A7000074A1A60074B013A18604FF0E0235A6189
:102A8000072298611A61704700ED00E0A410002051
:102A900090D0030098100020684620F007018D4672
:102AA00001B5FFF7BDFF104B104A186811680844C4
:102AB000106000221A600E4A0E491368C01AB0FB5B
:102AC000F1F001FB00331360EFF31181202383F356
:102AD0001288BFF36F8F00F0EFFFFFF7BFFBBDE879
:102AE00001408546704700BF98100020A0100020CC
:102AF0009C10002090D003002DE9F041304E91B1A0
:102B0000421C0AD14FF0E022136923F00103136144
:102B10004FF07F433360BDE8F0813468012806DC64
:102B20004FF0000808E0431C3468F7D142204328E6
:102B3000A8BF432000F1FF38EFF31185202383F372
:102B40001288BFF36F8FFFF76BFF4FF0E023002277
:102B50001C4FD3F818C03B6818441B4B1A601B4B22
:102B60001A68831A29D4DFF868E00EFB083303F5EE
:102B700074338F33B3FBFEF1131A43F609520EFB85
:102B80000133934238BF1346124A934228BF13467B
:102B90004FF0E0223360013B9169536100238C4583
:102BA0009361ACEB01033ABFE4180019C018386018
:102BB00085F31188BFF36F8FADE743F60953E7E75D
:102BC000A4100020A0100020981000209C100020CD
:102BD00090D0030020C5FB0038B5EFF3118520230A
:102BE00083F31288BFF36F8F074B1C68074B1B687A
:102BF000E41AFFF715FF85F31188BFF36F8F044BBD
:102C00002044B0FBF3F038BDA01000209C10002041
:102C100090D0030070B516461D465A1C0368044642
:102C20001344C2689A4205D20821006A02F0B8FA39
:102C3000002070BD65B93278204602F0B4FA002851
:102C4000F6D03544B5420CD1A3680133A360F0E758
:102C5000AB1E062B8EBF0023054AD35C1833DAB2B5
:102C6000EAE723685A1C226015F8012D1A70E9E77B
:102C70001CA6000010B504464521034801F030F9B8
:102C8000204602F07BFB00BF1F960000F7B504460C
:102C90000D46EFF31187202383F31288BFF36F8F64
:102CA0001A4A0428966898BF194B127C94BF53F8AF
:102CB0002030184B009245210246174801F010F9C8
:102CC0003DB1EB69C3F308031BB14521134801F083
:102CD00007F936B1304602F06BFB034608B10278C3
:102CE00002B90F4B324645210E4801F0F9F829464A
:102CF0002046FFF7BFFF87F31188BFF36F8F304681
:102D000003B0BDE8F040FFF7B9BA00BFA81000203B
:102D1000785D00003396000049960000769600002A
:102D2000419600009C96000038B50A4B53F82040AD
:102D3000013053F82050A54200D838BD606830B14A
:102D4000037EDB0701D402F0F6FA0834F3E72368C8
:102D50009847FAE78C5D0000012270B5294B86B0D8
:102D600003201A70FFF7E0FFFEF728FF0420FFF7AB
:102D7000DBFF254C254D2646AE4204F130040FD32F
:102D800000F0DCFB204CAC4226D300F0F3FBFDF757
:102D9000C7F91F4A938923F00103938106B070BDE0
:102DA00054F80C3C059354F8103C049354F8143C2C
:102DB000039354F8183C029354F81C3C019354F8C4
:102DC000203C009354E90A2354E90C0100F0F4F983
:102DD00054F8303C5E65CEE7D4E90A23B3F1FF3FF7
:102DE00008BFB2F1FF3F05D052EA0301206803D1CA
:102DF00002F067FB3034C6E70649183000F0CCFD1E
:102E0000F8E700BF841A00206C5900006C590000DC
:102E1000580100206B5400000023012270B586B0D9
:102E2000CDE904230F220193CDE9023214230F4D83
:102E30000F4E03FB00550F4906EBC016044601EB8D
:102E400000214FF4807230460B4B009500F0B4F92E
:102E5000337C2C7423F004033374084B013403EBEC
:102E60000433EE606B6006B070BD00BFA810002098
:102E7000D8000020882A00208D530000881A0020E6
:102E80007FB50020FFF750FF264B83F30888264CC0
:102E90000025636943F400736361E02384F8223002
:102EA000E57725766576A576636A43F4E023636269
:102EB000FFF7FCF8FFF7CCF94FF0FF33A362E362B2
:102EC000FFF7EEFAFFF73EFA184800F0C3F90120C9
:102ED000FFF72AFF0220164CFFF726FF00F07CFBCD
:102EE000144B4FF420525C61134B1449059301239A
:102EF0002046CDE90353CDE90155114B009500F073
:102F00005BF90646237C204623F00403237402F079
:102F100089FA2846FFF780FF31462046084AFFF726
:102F20007BF900BF882A002000ED00E0D8010020D6
:102F300058010020A810002003970000882B0020D3
:102F4000592D000037B58268054692F90E300C46BF
:102F50008B4213D0117C0B4811F01F0FCDE90043B9
:102F60004FF0440114BF6E23792300F0B9FF2146CE
:102F7000A86803B0BDE8304000F074BA002003B088
:102F800030BD00BF0B9700002DE9F7430446904683
:102F90001E46EFF31189202383F31288BFF36F8F4E
:102FA000484FC168BA6871B1836893421FD058EA2C
:102FB00006011ED189F31188BFF36F8F6FF00F00E8
:102FC00003B0BDE8F08392F90E000131C4E902219B
:102FD0002061CDE9001023464421BA683A4800F048
:102FE0007FFF89F31188BFF36F8F0020E8E7006946
:102FF000EBE792F90E5093F90E3002469D42A8BFBE
:103000001D464421314800F06BFFA36893F90E3050
:10301000AB424EDD29462046FFF794FF0546224687
:103020004946CDE900862A4800F0FAF906460346EB
:1030300022464421274800F053FF002E0CBF6E2388
:103040007923009344212346BA68234800F048FFBF
:10305000002ECAD023464421BA68204800F040FF21
:10306000EFF31187202383F31288BFF36F8FA368D8
:103070000BB3236826699C420AD04BB193F90E30FA
:103080009E42A8BF1E466FF07F039E42B8BF1E46F9
:1030900044211348224600F023FF31462046FFF723
:1030A00051FF40B139460A4802F0EFF96FF00A00CB
:1030B00086E70025B3E7002DF4D187F31188BFF32D
:1030C0006F8FF3E7A8100020419700007197000070
:1030D000851A002094970000B9970000D897000047
:1030E000F497000073B583680546002B53D02D4A32
:1030F0009268934252D1C368024644212A4800F0A4
:10310000EFFEEB68012B04D9013BEB60002002B01D
:1031100070BDEFF31186202383F31288BFF36F8F06
:1031200028462969FFF70EFF2C68A54217D1002415
:103130001E4BAC6000932A46234644211C4800F0F5
:10314000CFFE14B394F90E3020462B610023A36701
:1031500002F068F93146174802F097F9D6E7002CDB
:10316000E5D0D4E9003213605A600023227CC4E920
:10317000003322F00202A360227404F1180002F06E
:10318000D7F9AC6094F90E30D4E7EC6086F311887F
:10319000BFF36F8FBAE76FF01500B8E74FF0FF305D
:1031A000B5E700BFA81000201998000018FCFFFF29
:1031B00036980000851A00202DE9FF47994600F156
:1031C0005803C0E91633109B4FF000088381042395
:1031D00004460732037422F007060F9B01EB060A30
:1031E00083730A460346C0E90688C0F8088080F861
:1031F0000F800F46CDE9006114484421CDE9026AF1
:1032000000F06EFE51462046FEF754FD0E9BC51D94
:1032100025F00705A566C4E9187602930D9BAAEB75
:10322000050501930C9B2A46009339464B462046E0
:10323000FEF7D6FF064BC4F854809B6803B1DB6EE3
:103240002846E36604B0BDE8F08700BF6098000040
:10325000A81000200123037483810023C0E91833E0
:10326000C366014B98607047A81000206FF00A01F8
:10327000084A93689967084958674B6843F0805338
:103280004B60002383F31188BFF36F8F9368986FAF
:10329000704700BFA810002000ED00E070B590F965
:1032A0001020037C002A2FDBD9062DD11A4C63F0A5
:1032B0007F032246037452F8183FE169934207D115
:1032C000C0E900210860E0610FE09942F8D01B6876
:1032D000002BF5D093F90E6090F90E50AE42F4DD5C
:1032E0005968C0E9003108605860A569954200D06E
:1032F00005B9E568A3681A7CD20606D1DA897F2A67
:1033000003D9AA690AB9636170BDAB4202D02846ED
:1033100000F0C4FA6561F7E7A810002038B590F90D
:1033200010200146002A037C04DA03F07F030374B3
:1033300002F040F80D4D2A4652F8184FAB689442FF
:1033400000D004B9EC688B4207D01A7CD20604D1B5
:10335000DA897F2A01D9A2692AB1A34202D0204684
:1033600000F09CFA23466B6138BD00BFA810002016
:10337000B3F1FF3F08BFB2F1FF3F03D0024918305D
:1033800000F00ABB704700BF6B540000034648B909
:10339000EFF3058232B9064A51699268914201D031
:1033A000FFF764BF83F31188BFF36F8F704700BFCF
:1033B000A810002038B5184CA168E0690B6881425C
:1033C00014BF1A46002249680B605960A368E1697E
:1033D0002AB9124AC3E900210B60E3610AE092F9BD
:1033E0000E5093F90E00854212DD5168C3E90021A9
:1033F0000B605360A569094B9D4200D005B9E56893
:10340000A3689D4202D0284600F048FA656138BDA5
:103410008A42DED01268DBE7A8100020C01000202E
:10342000F8B5DDE906670D4B0C46986811460C4A65
:103430001060EFF31182202282F31288BFF36F8FA6
:103440009D68284601F0C8FF284632463B46FFF7F4
:103450008FFF2046BDE8F840FFF708BFA810002006
:10346000C8100020F8B50446EFF31187202383F33A
:103470001288BFF36F8F037C49B203F01F02002A4A
:103480000CBF0126002635D103F07F032A4D0374BB
:1034900001F090FF2A46037C817363F07F0303747D
:1034A00052F8183FE869934207D1C4E9002004604C
:1034B000EC610DE09842F8D01B68002BF5D093F931
:1034C0000EC08C45F6DD5968C4E900310C605C60C3
:1034D000AC69944200D004B9EC68AB689C4202D05D
:1034E000204600F0DBF96C6187F31188BFF36F8F22
:1034F0003046F8BD9B071CD5856801F05BFF8173E2
:103500002B689D4209D16B68C4E900531C606C6054
:10351000EAE76A689A42F6D01B68002BF3D093F969
:103520000E208A42F5DD5A68C4E9003214605C60FE
:10353000DAE78173D8E700BFA810002010B50B4C64
:103540004421A2680A48D37B00F0CAFCEFF3118142
:10355000202383F31288BFF36F8FA268D37B013BD4
:10356000D37381F31188BFF36F8F10BDA8100020B3
:10357000B298000070B5164D4421AA681548D37B57
:1035800000F0AEFCEFF31186202383F31288BFF323
:103590006F8FAB68DA7B0132DA732A4652F8184F24
:1035A000944200D004B9EC681A7CD20604D1DA89BE
:1035B0007F2A01D9A2692AB19C4202D0204600F09C
:1035C0006DF923466B613046BDE87040FFF7DEBE03
:1035D000A8100020D0980000024B03F11802C3E9A4
:1035E00006227047A810002070B5EFF31186202343
:1035F00083F31288BFF36F8F1A4CA168E0690B68E0
:10360000814214BF1A46002249680B605960A368C2
:10361000E1692AB9144AC3E900210B60E3610AE0B9
:1036200092F90E5093F90E00854216DD5168C3E9F8
:1036300000210B605360A5690B4B9D4200D005B97A
:10364000E568A3689D4202D0284600F027F965612D
:103650003046BDE87040FFF709BE8A42DAD01268F2
:10366000D7E700BFA8100020C0100020F8B504461E
:103670000E461C4D03464421AA681B4800F030FC4E
:1036800056EA040303D1FFF7AFFF0020F8BDEFF3C4
:103690001187202383F31288BFF36F8F134BA86821
:1036A0001860FFF73BFEA8682246334610491830E1
:1036B00000F072F9AA680446137C384643F004030C
:1036C0001374FFF7D3FDAB68D3E90A23B3F1004FBE
:1036D00008BF002AD9D101F060FF201A20EAE0706B
:1036E000D4E700BFA8100020F0980000C810002008
:1036F0006B540000014B9868704700BFA810002071
:103700002DE9F84304468789EFF31186202383F3DC
:103710001288BFF36F8F037C190705D586F31188D4
:10372000BFF36F8FBDE8F883D90943F008026FD16A
:103730000274A36813B1204601F044FE04F118009E
:1037400001F0F6FEA56D04F15808A84511D04FF020
:10375000000975B1284601F035FE05F1180001F0A9
:10376000E7FE2846C5F87890FFF798FDA56DA845B7
:10377000EFD1DFF8BC80D8F808309C4250D1EFF38D
:103780000589B9F1000918BF4FF00109D8F81850A0
:10379000284A954200D00DB9D8F80C50AB4202D05F
:1037A000284600F07BF82046C8F8145000F0CDFD04
:1037B000B9F1000F02D02048FFF74CFDD8F80830CF
:1037C0009C4230D1EFF305836BBBA289D20711D5A0
:1037D00086F31188BFF36F8F83F31188BFF36F8F68
:1037E0000423184602DFEFF31186202383F31288A7
:1037F000BFF36F8F3046FFF739FDFB0792D50023EB
:1038000083F31188BFF36F8F0423184602DF89E723
:1038100003F07F0343F00803037401F0CBFD88E756
:103820004FF00009B2E786F31188BFF36F8FE4E72A
:10383000A8100020C0100020D8010020027C034600
:1038400012F01F0210D10A4988420DD009490868B8
:1038500068B1D9897F2909D893F90E20064B1B68D6
:103860009A42B8BF0020704700207047104670474A
:10387000D800002098000020CC1000200122044B2A
:10388000C01A044BC0105843034B1A54704700BF72
:1038900058020020ABAAAAAA851A002070B50C4BCA
:1038A0000C4D1E7CFFF7CAFF182303FB0655044688
:1038B000284601F03DFE0022074B9A553CB1621E9E
:1038C0002846BDE870400549D31700F065B870BDC3
:1038D000A810002058020020851A00207D38000022
:1038E00038B5EFF31185202383F31288BFF36F8F70
:1038F0000F4B104A9C681068A04206D1FFF7CEFF1C
:1039000085F31188BFF36F8F38BD00211B7C1160D8
:10391000094AD35C002BF3D02046FFF78FFF002825
:10392000EED0237CDB0601D1FFF744FD2046E5E71E
:10393000A8100020C8100020851A0020024B18682B
:10394000984208BF002070479C000020034B1B6872
:103950000BB9FFF741B90020704700BFD01000201D
:1039600030B570B10B4B5B6898420AD0036843B125
:10397000D3E90421D0E90445121941EB0501C3E95B
:103980000421D0E9003213605A600023C0E90033FB
:1039900030BD00BF9C000020B3F1FF3F08BFB2F173
:1039A000FF3F2DE9F84F0446994615461F467AD049
:1039B0008160EFF31188202383F31288BFF36F8FA8
:1039C000B9F1000FDFF8E4A020DBFFF7BFFFDAE971
:1039D0000027013549F100092D1849EBE07306462F
:1039E0004FF00109C4E90453AD1843EB0707FFF793
:1039F000A5FF0346DFF8B8E0DEF804A0EBB9C4E9A0
:103A000000EACAF80040CEF8044028E06FF0010355
:103A1000DAE900125B1A4FF0FF3161EB02025B1B27
:103A200062EB0902012B72F10001BCBF01230022ED
:103A30004FF00009C0E90432D9E7D3E9041CD4E906
:103A400004208A4270EB0C0B24DA891A5A686CEB5A
:103A50000000C3E90410C4E9003214605C60FFF7A1
:103A60006DFF84420ED1134B1B685BB9B9F1000F97
:103A700002D1FFF76BFF0646304601F042FD002100
:103A8000FFF73AF888F31188BFF36F8F284639465D
:103A9000BDE8F88F521A60EB0C005345C4E90420CE
:103AA000ADD01B68AAE700252F46EFE77002002083
:103AB0009C000020D01000202DE9F047DFF8A890EE
:103AC0000246C9F800000D46FFF738FF0026002720
:103AD000DFF898804FEAE27ED8E9001350B1D0E9D0
:103AE000044CA2427EEB0C0A1ADAA41A6CEB0E0606
:103AF000C0E904460024521843EB0E032046C8E9EF
:103B00000023C9F8004001F0FCFC2146FEF7F4FF59
:103B100085F31188BFF36F8FBDE8F047FFF7E0BE74
:103B2000611843EBE473C0E90467C8E90013FFF7C9
:103B300017FF01224FF00043C0E9042385F31188E9
:103B4000BFF36F8F83689847EFF31185202383F3CA
:103B50001288BFF36F8FD9F80020121BC9F800201C
:103B6000FFF7ECFEB6E700BFD01000207002002087
:103B700010B5EFF31184202383F31288BFF36F8F06
:103B8000FFF7E4FE0346054AD2E90001181841EBAD
:103B9000E37184F31188BFF36F8F10BD70020020B2
:103BA0000CB430B58BB004460D462022002102A88B
:103BB00001F01EFD02238DF80A300D4B002D0393FA
:103BC000069412DB01D06B1E1C440FAA0E9902A8AA
:103BD0000794019200F00EF815B10022069B1A70AE
:103BE0000BB0BDE8304002B070470024EDE700BFE5
:103BF000535600002DE9F04F837815469A07074683
:103C0000D0F8048085B040F19F8000260878002815
:103C100000F09C80252808D001F1010A39460136C0
:103C2000C047002880F286808AE091F801B001F157
:103C3000020ABBF1250FF1D0002401211F2C25D849
:103C4000ABF12002102A06D8844B01FA02F0184288
:103C50000ED1032A5AD0ABF13002092A08D9BBF1A0
:103C60002A0F33D1630605F1040501D444F0200482
:103C70001AF801BBBBF1000FE0D139462520C0473F
:103C800000285DDB394658460236C9E77F2CE2D969
:103C9000BBF16C0F29D021D8BBF1680F2CD0BBF140
:103CA0006A0F30D0BBF14C0F2DD0ABF16302122A5A
:103CB00000F2A580DFE802F02C4EA3A3A3A34EA33D
:103CC000A3A3A3A3AD9DA3A331A37700BBF12E0FA4
:103CD000DED160063AD444F04004C9E7BBF1740F6A
:103CE000C6D0BBF17A0FC3D0DFE7220648BF44F449
:103CF000007444F08004BBE7E30548BF44F400745B
:103D000044F48074B4E744F42074B1E71024AFE7BE
:103D1000394615F8040B013682E72C68504B002C0D
:103D200008BF1C46A1464B4619F8010B20B9341BAD
:103D30001E190435514669E73946C0470028F2DAB2
:103D4000BB7843F00403BB704FF0FF36304605B03C
:103D5000BDE8F08F20061DD5A10543BF073525F02E
:103D6000070555F8080B55F8040B00280DF1040958
:103D70004946B8BF40424FF00A02B8BF44F48064DD
:103D800001F04EFC6405A0EB090956D44C460DF138
:103D9000040B5EE0E20555F8040BE6D5A3054CBF25
:103DA00040B200B2E1E70A2224F01004A4B22006D7
:103DB00033D5A10543BF073525F0070555F8080B96
:103DC00055F8040B10B924F01004A4B20DF1040945
:103DD000494601F025FCE306A0EB0909D6D5394692
:103DE0003020C0470028ABDBBBF1000F1ED10136ED
:103DF000CCE710224FF0780B44F01004D7E74BF0DB
:103E00002002782A7FF439AFCBF1780242F0100219
:103E1000CDE708224FF0000BC9E7E30555F8040B86
:103E2000D0D5A1054CBFC0B280B2CBE739465846C9
:103E30000236C0470028A9DA82E739462D2001362C
:103E4000F7E7013C39461BF80400C0470028FFF69D
:103E500077AF002CF5D14E446CE700BF81280100FC
:103E60000D990000704710B50120FEF735FC0128C0
:103E7000044603D1FEF74CFC204610BD0020FCE7B1
:103E80000020704730B500290446154685B011DB87
:103E900083688B420ED96368C068194401AA00F098
:103EA00096FB28B96268019B9B1A2B60029B6B6092
:103EB00005B030BD6FF02100FAE7704770477047DA
:103EC000002070470FB407B504A951F8040B019105
:103ED000FCF7B2F903B05DF804EB04B0704770472B
:103EE0000FB407B504A951F8040B0191FCF7A4F92C
:103EF00003B05DF804EB04B070470379C288002179
:103F00005A43183001F074BB10B50446C360BDF8C5
:103F10000830C28003610171FFF7EFFF214603986B
:103F2000FCF7F0FA002818BF6FF0770010BD0029E9
:103F300008DB8068884205D9401A904234BF0020CF
:103F40000120704700207047704770B516461A462A
:103F500005460C46FFF7EBFF48B16968E868214465
:103F6000826814683246A446BDE8704060476FF02E
:103F7000150070BD70B516461A4605460C46FFF78B
:103F8000D6FF48B16968E8682144826854683246BF
:103F9000A446BDE8704060476FF0150070BD10B5D5
:103FA0000B460446FFF7C3FF40B16168E06819445F
:103FB00083689B682BB1BDE8104018476FF015006F
:103FC00010BD6FF05700FBE708B5C0688368DB6879
:103FD0009847006808BD08B5C0688368DB689847E3
:103FE000407908BD48B103683BB143682BB1C06854
:103FF000884294BF0020012070474FF0FF30704787
:1040000001F0FEBA084600F0F0BD01292DE9F341A8
:10401000174601D900F0C0F92C2303FB0104D4F8A2
:104020002080B8F1000FF5D0E368268940461E4491
:10403000042331460DEB0302FFF787FF054620B14D
:104040000125284602B0BDE8F08146F60813BDF808
:10405000042064899A421AD1BDF806309C4201D0EE
:104060000325EEE7042340460DEB0302A119FFF7F9
:104070006CFF0028E4D146F60713BDF804209A42ED
:10408000EED1BDF80610214431443960D9E7002C47
:10409000F1D0E5E77047002382681946FCF7E4BCDD
:1040A00008B52C2303FB0101086A08B900F074F974
:1040B0000422BDE8084000F09EBDF8B513460F4647
:1040C000164600210246054600F038F8044650B96D
:1040D00033460121284605F12C0200F02FF810B1DB
:1040E000002F18BF04462046F8BD002110B5044635
:1040F0000846FCF783F804F12001C0B2FCF71EFA71
:1041000040B90121FCF77AF804F14C01C0B2FCF788
:1041100015FA08B100F040F910BD10B50446C06CA6
:1041200008B1FFF711FF206A18B1BDE81040FFF792
:104130000BBF10BD7022002101F05ABA08B52C2324
:1041400003FB0100006A08B900F026F920230021D2
:10415000FFF7FBFE003818BF012008BDF8B50C467C
:1041600010B1F9B10AB90120F8BD00278D1800F18E
:104170002806AC42F7D0836E5A1C826614F8011BE5
:1041800003443F2A83F82810F3D93146FCF732FF65
:10419000D0E9083213F5007342F10002C0E9083299
:1041A0008766E6E70846DFE7F8B50C4605460028CF
:1041B0004BD000294AD08B6ED1E90821D8001218C3
:1041C00041F10001C4E908218022581C3828234409
:1041D000A0664FF0000783F8282004F128060BD9C9
:1041E000C0F140023946304400F032F820463146F2
:1041F000FCF700FF3846A766C0F1380200213044C2
:1042000000F026F8236A626A1BBA12BA3146C4E982
:1042100018232046FCF7EEFE2B1D211F243551F8F4
:10422000042F0433100E03F8080C100C03F8070CCD
:10423000100A03F8060C03F8052CAB42EFD1204618
:104240007022002100F004F80120F8BD0846FCE7C8
:1042500001F0CEB970B506460D460024AC4200DB35
:1042600070BD305DFDF736F80130F9D00134F5E767
:104270002DE9F04F85B005460E4690461F4600F0EA
:10428000C1FE20B96FF04C0005B0BDE8F08F4FF0D3
:104290001409002334464FF0010A09FB08693B600A
:1042A000284602A900F0A2FE60B1DDE902324FF01B
:1042B000000B0093C3450CD10021284600F0E2FE1C
:1042C0000028EDD1284600F0C6FE0028DAD00020F4
:1042D000DAE7A14598BF344661688A4214D1216863
:1042E0000098019201F08CF9019A68B9237C7BB99E
:1042F000D4E902312846984768B184F810A03B6899
:10430000143401333B60CBE714340BF1010BD1E7DC
:104310006FF06F00B8E76FF02200B5E701F068B901
:1043200001F03FB901460068FDF77EBC0021012085
:10433000FDF77ABC08B5FDF743FFFDF74DFCFDF72F
:1043400057FCFDF7DBFFFEF79BFD6FF08500704724
:1043500061B662B680F31188BFF36F8F704772B693
:10436000002383F31188BFF36F8FBFF34F8F30BFEC
:1043700062B6BFF36F8F7047202809D9B0F1004FA4
:1043800008D80138B0FA80F0C0F11F004000704733
:10439000082070473E20704708B5FEF75BF908B566
:1043A000FEF744F9002008BD0A448A4200D1704754
:1043B00011F8013B40BA80B25840C0F303134340A8
:1043C000180380B24340580100F4FF505840ECE716
:1043D0002DE9F04106460D4617461C46ABB1D0F814
:1043E0000880D8F800309847002D11DB84420FD8A0
:1043F000031BAB420CD3D8F808E023463A462946C3
:104400003046F446BDE8F04160471846BDE8F0810B
:104410006FF01500FAE74FF0FF324FF0FF33043032
:10442000FEF7B2BD0430FEF75DBE4368D3E9020378
:10443000C01A704738B5456804460069FFF7EBFFBE
:104440002B8A2069002B0CBF6FF085050125FFF733
:10445000E9FF284638BD2DE9F8430D1E0646904673
:104460001C46D0F804902DDBEA18D9E902315B1A1A
:104470009A4227D80069FFF7CEFFD9E9007299F870
:104480001130B4B1D7F8089015441D443846D9F816
:1044900000309847002D12DB844210D8031B9D4248
:1044A0000DD82346424629463846D9F80490C847D5
:1044B00004463069FFF7B6FF2046BDE8F8836FF089
:1044C0001504F6E76FF01504F6E72DE9F0410C4608
:1044D00046680546006990461F46FFF79CFF002C82
:1044E00015DBD6E90231E2195B1A9A420FD8D6E9F8
:1044F0000003E118737C19443B464246FFF768FF0E
:1045000004462869FFF78EFF2046BDE8F0816FF072
:104510001504F6E7F0B50024056985B010220021E6
:1045200047680646684601F063F82846FFF773FFC0
:104530002C702546BB68A34205D83069FFF772FF8F
:10454000284605B0F0BDD7E9000121441B1B102B04
:1045500028BF10236A46FFF73BFF051EEDDBBB6853
:104560001B1B102B94BFE4181034E3E7F7B51C466F
:104570000023164682682360A3600D46536969468E
:1045800001AA9847019B5A1E01921BB96FF01500B2
:1045900003B0F0BD0098A26847682168676085B9DC
:1045A000B31AD0F800C0634528BF634603FB071168
:1045B0001A442160A26002689A4206D8083000902E
:1045C000E0E76B1AB3FBF7F3EBE70020E0E71346F5
:1045D0000022FFF7CBBF43689B680B600123136089
:1045E0007047436800205B69C1E900307047436849
:1045F00058687047436800205B681B680B60704711
:1046000043685B68586842400A4042405A60002054
:104610007047436800205A6853680B4353607047E3
:10462000436800205A68536823EA010353607047C7
:10463000436800205A6853684B405360704730B558
:10464000B3F1C06F44681CD0B2F5800F19D00120BF
:10465000B2F5001F656800FA01F102D1696200201D
:1046600030BDB2F1A07F0CBFA962E9626268B3F10C
:10467000806F0CBF1163516363689963636819624B
:10468000EDE76FF08500EBE730B50369586800B3DC
:104690000024884219D108688CB99C685860A142EE
:1046A00000D19860002008602AB15A680A609A68B0
:1046B000596002B9996000200FE02846E9E72060C0
:1046C0009868814208BF9C60ECE705680446002DAD
:1046D000F3D1002AE9D16FF0150030BD08B5436869
:1046E0009B689847002008BD08B5062000220321DA
:1046F000FDF750FDBDE808400620FDF73DBD08B5BB
:10470000072000220321FDF745FDBDE808400720F2
:10471000FDF732BD08B5102000220321FDF73AFD58
:10472000BDE808401020FDF727BD08B51120002284
:104730000321FDF72FFDBDE808401120FDF71CBD4A
:1047400070B5436802695B6805469E6B9E6351685D
:1047500009B10C6801B970BD8A68324002D02846A0
:104760004B6898471CB1236821461C46F2E7234654
:10477000FAE738B512F4403F0C46456816D012F0FF
:10478000320F13D193030ED5130307D5FFF741FF63
:104790006B681C6100206B68DC6138BD5303F7D582
:1047A000FFF73EFFF4E76B685961F3E76FF08500B0
:1047B000F3E7012303FA01F1FFF7DBBF30B503692B
:1047C0005C68012303FA01F1236819422BD022F41B
:1047D000702323F001031BB9237A23B1930317D568
:1047E0006FF0850015E0D503FAD4900310D560680A
:1047F000EFF31185202383F31288BFF36F8F130328
:1048000008D503681943016085F31188BFF36F8FE2
:10481000002030BD5303F7D52368026823EA010363
:1048200013400360F0E76FF01500F2E70369002022
:104830005B685A681B68126813400B60704710B5BC
:104840000369586809C80140EFF31184202080F300
:104850001288BFF36F8F186842400A4042401A60C6
:1048600084F31188BFF36F8F002010BD03695B686C
:104870005A681B681940EFF31180202383F31288D4
:10488000BFF36F8F13680B43136080F31188BFF37E
:104890006F8F0020704703695B685A681B68194076
:1048A000EFF31180202383F31288BFF36F8F136817
:1048B00023EA0103136080F31188BFF36F8F002098
:1048C000704703695B685A681B681940EFF31180F1
:1048D000202383F31288BFF36F8F13684B4013605C
:1048E00080F31188BFF36F8F002070476FF0850051
:1048F00070470369426800205A60704730B503680A
:1049000013600579046804EBC504A34202D36FF079
:10491000010030BD5C7908338C42F1D10020F8E70A
:104920004368586870472DE9F0411F460E4615460A
:104930000446D0F804804046FEF75AF8D8F8001034
:104940003A463144284600F02CFE6068FEF75EF8D7
:104950000020BDE8F0812DE9F0411F460D461646C6
:104960000446D0F804804046FEF742F8D8F800002C
:104970003A463146284400F014FE6068FEF746F8D7
:104980000020BDE8F08138B5044645682846FEF7AA
:104990002FF800216A68286800F02AFE6068FEF798
:1049A00035F8002038BD43681B685A68920743BF3A
:1049B0001B6800200B704FF0FF30704743681B6886
:1049C0005A68D207FCD419607047034610465AB1A2
:1049D0005B681A685068C00705D40120D0601B6866
:1049E0000A781A60704700207047034610465AB193
:1049F0005B681A68506810F0020005D00220D06091
:104A000001201B681B680B7070474268EFF3118030
:104A1000202383F31288BFF36F8F11688B6823F014
:104A200004038B6013680122DA6080F31188BFF3FE
:104A30006F8F704743681B685A68D2075ABF9868DF
:104A4000C0F38000002070474268EFF311802023FC
:104A500083F31288BFF36F8F11688B6823F008030C
:104A60008B6013680222DA6080F31188BFF36F8FC6
:104A70007047FFF7DFBF43681B68586810F00200FB
:104A80001CBF9868C0F3C0007047704708B5024665
:104A9000FFF7F1FF20B9BDE808401046FFF7CABF95
:104AA00008BD012070470369C3E90112704702691C
:104AB00053680BB191681847704710B54268EFF31F
:104AC0001184202383F31288BFF36F8F11688B68E2
:104AD00043F008038B6013685B689B0701D5FFF701
:104AE000E6FF84F31188BFF36F8F10BD10B54268E5
:104AF000EFF31184202383F31288BFF36F8F1168C3
:104B00008B6843F004038B6013685B68DB0701D498
:104B1000FFF7CDFF84F31188BFF36F8F10BD08B589
:104B2000002203210120FDF735FB0120FDF724FBC6
:104B3000002203211046FDF72DFBBDE808400020B0
:104B4000FDF71ABB032108B508460022FDF722FB3A
:104B50000320FDF711FB022000220321FDF71AFBC1
:104B6000BDE808400220FDF707BB08B5002203217D
:104B70000520FDF70FFB0520FDF7FEFA04200022BB
:104B80000321FDF707FBBDE808400420FDF7F4BA58
:104B900037B5456804460021A86801AAFFF7AEFEB4
:104BA000002805DB019B002219791868FDF7FEFE3D
:104BB000831C10D123691A6832B161684B681BB13C
:104BC000B3FBF2F309680B6103222B6820469A605D
:104BD000EB689847002003B030BD70474FF0E022EB
:104BE000136923F00103136170478068183820F0BF
:104BF00007001038704738B515460C4661B15AB1F8
:104C0000FFF7E9F92146254411F8013B834203D11E
:104C1000A942F9D1012038BD0020FCE730B5026A75
:104C20000346D2E9014084424FF0000002D3012341
:104C3000D36030BD18745068242501305060186A64
:104C40004268541E0268184605FB04225C1950F89D
:104C5000045BA04242F8045BF9D101209960E8E7C7
:104C6000F0B5064604468BB001AD0F4694460FCE14
:104C70000FC50FCE0FC5216A33684A682B6022B971
:104C80000223CB6000200BB0F0BDFB072068A568B5
:104C900013D524260B68013A06FB02337E0703D4A2
:104CA0001A7C0AB10F23ECE7224603F1240153F8E2
:104CB000046B8B4242F8046BF9D1B90741BF226AF9
:104CC000536803F1FF335360AC4505D2236A002BD0
:104CD000D8D00422DA60D5E77A0748BF20603B07C6
:104CE00001D40120CFE7143406AB93E8070084E831
:104CF0000700F6E710B502601A44029B01298360A1
:104D00004FF00003C26003740375836101D803622E
:104D100010BD24224A43243A841804628350026A54
:104D20008C1E9460026A02295360026AD360026A90
:104D30001374026A53741EBF036A24301860E7E7D5
:104D4000182871F100030ED3B0F5807F71F10003D4
:104D50000BD3B0F5803F71F1000308D3002914BFD5
:104D6000092005207047012070470220704703206A
:104D7000704737B50024002508290A46CDE90045CB
:104D80000AD80146684600F00CFCDDE9000103B0DA
:104D9000BDE83040FFF7D4BF002003B030BD00B104
:104DA000C160704743680360836801338360006AB1
:104DB000FFF7F5BF08B50268C3689A4205D3006AD9
:104DC0000821FFF7ECFF002008BD0120FCE738B503
:104DD00004460D46FFF7EEFF40B123681B78B5EBA4
:104DE000531F04D00A21206AFFF7D9FF002038BDE5
:104DF00010B50446FFF7DEFF38B123681A78FF2AA2
:104E000005D00A21206AFFF7CAFF002010BD013338
:104E10002360FBE710B5027D044632B1FFF7E8FFDF
:104E200048B100234FF0FF3223752046BDE8104003
:104E30000721FFF715BF10BD2DE9F84F04460E46B8
:104E400091461D46FFF7B6FF804628B1A36843B9D7
:104E50000321206AFFF7A3FF4FF000084046BDE89A
:104E6000F88F2268177807F01F0BBBF11F0F12D1C4
:104E7000FDB1206A18B1037C0BB11521EAE70123CB
:104E80002B7000252368013563602B442360A368E1
:104E9000013BA360E2E7BBF1170F0CD9ABF118039C
:104EA000D9B2032905D801259D40A94504D2052181
:104EB000CFE70721CDE70025E36805F1010A524459
:104EC000934201D20821C4E74A460021304600F04F
:104ED0008FFB15B986F800B0D3E72268711E53190D
:104EE00013F80109934201F8010FF9D1236A002B4D
:104EF000C8D01B7C002BC5D00737FFB2022FC1D909
:104F000049463046FFF735FF8245BBD01521A0E763
:104F100038B50C4611460546FFF759FF08B9002081
:104F200038BD042200232846A118FFF785FF00287A
:104F3000F5D02B682360F3E7002337B504468DF8DE
:104F40000330FFF744FFA8B1042220460DF103030C
:104F50000DEB0201FFF770FF60B19DF8035065B9DA
:104F600001992046FFF75AFE50B963682360A36891
:104F70000133A360002003B030BD6FF00F01F0E7F4
:104F80002575F8E738B504460D46FFF7C1FF48B16F
:104F90002268E3689B1A6A689A4204D9082120466D
:104FA000FFF700FF002038BD70B50D460021044614
:104FB0001646FFF70CFF38B1324629462046BDE8B9
:104FC00070400023FFF738BF70BD0422FFF7ECBF2D
:104FD000FFF7FBBF38B5022204460D46FFF7D2FFAC
:104FE00018B123686A681344236038BD38B50322BA
:104FF00004460D46FFF7C6FF18B123686A681344DC
:10500000236038BD10B505210446FFF795FF50B168
:10501000237D4BB96FF00042A368934205D305216D
:105020002046FFF7BFFE002010BD5B00A360FBE73A
:10503000037D23B98068B0FA80F0400970470368A7
:10504000C268934205D21878A0F1FF035842584134
:10505000704700207047FFF7DDBE38B50D460621CA
:105060000446FFF7B4FE08B9002038BD002304222F
:1050700029462046FFF7E0FE0028F5D0A36801335B
:10508000A360F2E7F0B58FB00446FFF793FE002867
:105090005DD0236800221D780023CDE9022323463A
:1050A0006D0905AA04F120071646186859680833E7
:1050B00003C6BB423246F7D118683060062D1CD0BB
:1050C0002A1F0023012A4FF008028DF804300DEB4F
:1050D000020198BF01AB05A8FFF7AEFE0646002807
:1050E00035D0042D3BD019D8023D012D21D9059B87
:1050F0002360A368013BA3602AE001A905A8FFF78C
:10510000ACFF20B3059B089A934204D30821206A80
:10511000FFF745FE1BE01D786D09CFE7052DE6D1B1
:10512000DDE90232B3F1004F72F1000113D32946D9
:10513000EDE7E3682168029A5B1A9A4203D8059B5F
:1051400013440593D3E708212046FFF72BFE0026E2
:1051500030460FB0F0BDDB185241CDE902329DF868
:10516000045025B16FF00F020023CDE90223029B0A
:105170008DF82850079305A8FFF75AFF014638B16C
:10518000002DB4D005A8FFF733FE0028AFD1DEE72D
:1051900005A8FFF777FF0028EDD1D8E7FFF7AABDF4
:1051A00000B1C160704710B50368C468A34205D35D
:1051B000006A0821FFF7F4FF002010BD02F01F0273
:1051C00042EA411119700368013303600120F4E7DA
:1051D00070B505460E46104619461446FFF7C9FD40
:1051E00022463146431E2846BDE87040FDF712BDF9
:1051F000F8B51746C368026804469A420D4606D3BE
:105200000821206AFFF7CCFF00263046F8BD9B1A24
:105210004A689A42F4D80E4656F8043B53B104212A
:105220003046FFF7A6FD6A6823681344E26803442A
:105230009A42E5D33246042339462046FFF7C8FF99
:1052400006460028E0D020682968884202D06A68B3
:1052500000F0B5F923686A6813442360D5E7082A8B
:1052600073B513460C4606D9006A0521FFF798FF6F
:10527000002002B070BD8E1816F9012C002A0FDA3A
:105280000A466C466946B24204D101212246FFF724
:105290009FFFEEE712F8015BED4301F8015BF2E7D7
:1052A0000021F3E713460A460021FFF791BF07B537
:1052B000042201910DEB0201FFF7D1FF03B05DF86D
:1052C00004FB07B5042201910DEB0201FFF7EAFF91
:1052D00003B05DF804FB0222FFF78ABF0322FFF749
:1052E00087BF07B5CDE900126946FFF7F4FF03B0A9
:1052F0005DF804FB07B5CDE900126946FFF7EEFF44
:1053000003B05DF804FB1F220421FFF74CBF1F22EE
:105310000521FFF748BF1F220721FFF744BFFFF712
:10532000FABF1FB50024CDE90144069C0094FFF7A5
:10533000E1FC04B010BD10B5436904463BB9002040
:10534000E2684042537843F00103537010BD984720
:105350000028F4D00028B8BF4042FF28A8BFFF2093
:10536000E3681870ECE740B1C368587810F00100AA
:105370001EBF1878B0FA80F040097047EFF3118330
:10538000202383F31288BFF36F8FFEE7202408B534
:10539000EFF3118384F31288BFF36F8FFEF7DFFF03
:1053A000F6E703460020C3E90033C3E90200704773
:1053B00000207047D0E9003213605A600023C0E932
:1053C0000033704708B5FFF7F5FF037C23F00203B5
:1053D00003740023836008BD38B504460D46FDF70D
:1053E0009DFF237C43F002032374D5B1A5602B6895
:1053F0009D4209D16B68C4E900531C606C6010E0E9
:105400006A689A42F6D01B68002BF3D093F90E100D
:1054100094F90E209142F3DD5A68C4E90032146019
:105420005C6038BD10B5EFF31184202383F312883C
:10543000BFF36F8FFDF732FF84F31188BFF36F8FD7
:1054400010BD08B5037C014613F0280F0CD183680A
:105450000BB1FFF7B7FF0B7C084623F004030B7476
:10546000BDE80840FDF71ABF08BD10B5EFF3118481
:10547000202383F31288BFF36F8F1838FFF7E1FF03
:1054800084F31188BFF36F8F10BD0846FDF77EBF10
:1054900038B505460C46FEF7E9F8B4F1FF3F08BF02
:1054A000B5F1FF3F0AD00A23A0FB0303B0F1004F80
:1054B00073F1000301D36FF0004038BD4FF0FF30AF
:1054C000FBE738B50446EFF31185202383F31288F8
:1054D000BFF36F8F037C5B070ED5183000F028F800
:1054E000237C204623F004032374FDF7D7FE2846CF
:1054F000BDE83840FDF74ABF85F31188BFF36F8FD1
:1055000038BD08B50246FEF719FA70B1D0E904318A
:105510009B1A61EBE272B3F1004F72F1000104DA01
:10552000002AACBF1846002008BD6FF00040FBE722
:10553000024638B5EFF31185202383F31288BFF3B9
:105540006F8F0368D3B1FEF7F9F904461046FEF7F2
:1055500007FA00224FF000438442C0E9042305D03B
:10556000002085F31188BFF36F8F38BDFEF7EEF989
:10557000FFF7C7FF0021FDF7BFFAF1E7D0E90413F9
:10558000B3F1004F08BF012904D100204FF00041C2
:10559000C2E904016FF01500E3E708B5FEF7E8FA89
:1055A00008BD0A44914200F1FF3300D1704710B5A5
:1055B00011F8014B914203F8014FF9D110BD884217
:1055C00010B501EB020402D98442234607D8431EDA
:1055D000A14207D011F8012B03F8012FF8E702448C
:1055E000824200D110BD13F8011D02F8011DF7E73A
:1055F00003460244934200D1704703F8011BF9E7C8
:1056000010B501390244904201D1002005E0037831
:1056100011F8014FA34201D0181B10BD0130F2E771
:10562000F0B504460846C2F13705EDB202F01F029C
:10563000B4FBF2F6274602FB1641CBB2092984BF20
:105640005B19DBB23033BA42344600F8013BEFD984
:10565000F0BDD1E9043293421EBF5A1C0A61187092
:04566000704700008F
:1056640000000000545700000000000038570000FC
:10567400000000001C57000000000000005700005C
:1056840000000000E4560000000000008C570000F9
:1056940000000000A8570000000000007057000040
:1056A40000000000FC57000000000000E05700006C
:1056B40000000000C45700001D2700000000000087
:1056C400652A0000000000000000000018580000D7
:1056D4000000000050580000000000003458000092
:1056E4005A950000605C000084590000AE00002060
:1056F40050100020DD460000000000006895000006
:10570400845C000084590000B00000205C1000207C
:10571400DD4600000000000076950000A85C000053
:1057240084590000B200002068100020DD4600000B
:105734000000000084950000CC5C00008459000047
:10574400B400002074100020DD46000000000000BA
:10575400D1950000245D0000CC590000BC0000205D
:10576400000000000000000000000000929500000E
:10577400F05C0000A8590000B60000208010002052
:10578400F348000000000000A7950000FC5C000046
:10579400A8590000B800002088100020F348000039
:1057A40000000000BC950000085D0000A85900003E
:1057B400BA00002090100020F34800000000000010
:1057C400F5950000305D0000DC590000BE000020AB
:1057D4002C000020914B0000000000000396000004
:1057E400485D0000DC590000C0000020500000208B
:1057F400914B00000000000011960000605D000065
:10580400DC590000C200002074000020914B00000D
:1058140000000000626D0000385C00006C5900005C
:10582400AC00002024000020B1270000000000008C
:10583400196D0000085C000000000000A8000020B2
:10584400C00700207126000000000000276D000042
:10585400205C000000000000AA000020D8070020FF
:085864007126000000000000A5
:10586C00FC570000AF4A0000FC570000AF4A000094
:10587C00E0570000AF4A0000E0570000AF4A0000BC
:10588C00C4570000AF4A0000C4570000AF4A0000E4
:10589C0038570000414700001C57000041470000EA
:1058AC00000000002D430000000000002D4300000C
:1058BC00000000002D430000000000002D430000FC
:1058CC00000000002D430000000000002D430000EC
:1058DC00000000002D430000000000002D430000DC
:1058EC000057000041470000E4560000414700000B
:1058FC00000000002D430000000000002D430000BC
:10590C00000000002D430000000000002D430000AB
:10591C00000000002D430000000000002D4300009B
:10592C00000000002D430000000000002D4300008B
:10593C00000000002D430000000000002D4300007B
:10594C00000000002D430000000000002D4300006B
:10595C00000000002D430000000000002D4300005B
:10596C006D270000B52800000D280000EF45000051
:08597C00E3450000D7450000DF
:10598400B3470000F545000001460000134600003F
:1059940021460000314600003F46000089460000D1
:1059A40000000000BD4700002D4800003F480000F3
:1059B4006D48000097480000C3480000ED4800000F
:0859C4000000000000000000DB
:1059CC002149000027490000574900008749000081
:1059DC00A7490000BD4900000000000000000000C5
:1059EC0000000000CB490000EB490000ED4A00002C
:1059FC000B4A0000354A0000BB4A0000494A00002F
:105A0C00734A0000774A00008B4A0000DB4B000011
:0C5A1C008D4A0000A34A0000A74A0000C9
:105A280010600000040000006D5F0000040000002A
:105A3800B25F0000040000005D5F00000400000089
:105A4800996B0000040000000897000004000000A3
:105A5800655F000004000000DD9500000400000000
:105A6800336D0000040000004666000004000000DA
:085A7800A75F0000040000001C
:105A80000204000000000000ED120000554200007A
:105A900001000000020000000400000000000000FF
:105AA0000000000000000100185800000100000084
:105AB000000001000000080018580000020000006B
:105AC0000000090000000800185800000300000052
