:02000004600298
:100000003DB8F3960000000000040000782D0100C8
:1000100000000000000000000000000000000000E0
:1000200000000000000000000000000000000000D0
:1000300000000000000000000000000000000000C0
:1000400000000000000000000000000000000000B0
:1004000080BF0080A5550260B5C8026091550260AA
:100410009155026091550260915502600000000004
:1004200000000000000000000000000035580260DD
:1004300091550260000000000158026025840260AE
:100440009D5902609D5902609D5902609D5902604C
:100450009D5902609D5902609D5902609D5902603C
:100460009D5902609D5902609D5902609D5902602C
:100470009D5902609D5902609D5902609D5902601C
:1006C0002DE9F04F0D46164604690A4645EA06072D
:1006D00085B094F834102046C7F30B0701F08EFA6A
:1006E0008146002F40F08B80204601F013FB30B193
:1006F000EFF31187102383F31288BFF36F8F6DBB65
:10070000E369B6EB832F52D1204600F005FC00953B
:1007100094F83430694620468DF805508DF8043041
:100720004FF48473CDE90255ADF8063001F07DFB3E
:10073000204600F06DFB204601F0EFFA204601F064
:10074000E9FA18B187F31188BFF36F8F4846314635
:1007500001F006FC002005B0BDE8F08FABB233B36A
:1007600026F47F634FF0000A4FF4827B23F00F03DF
:1007700003EB0508A845E1D0204600F0CDFB00952D
:1007800094F83430694620468DF805A08DF8043081
:1007900005F58055ADF806B0CDE902AA01F045FB9C
:1007A000204600F035FB204601F0B7FAE2E71FFAD9
:1007B00086FABAF1000FD3D1330C40F2051B1B04AB
:1007C00003EB05084545B9D0204600F0A5FB009590
:1007D00094F83430694620468DF805A08DF8043031
:1007E00005F58035ADF806B0CDE902AA01F01DFB94
:1007F000204600F00DFB204601F08FFAE2E76FF093
:100800001500A8E700694030704737B543680546D2
:1008100004691B68224603F1140153F8040B8B4250
:1008200042F8040BF9D1204601F09EFBE8B12046C6
:1008300000F028F820B1204601F06CFA88B1FEE7FC
:10084000636904F1140194F83420204601F022FB7E
:1008500070B9204601F061FA01A9286900F0B8FAE0
:1008600008B16FF0040003B030BD6FF01200FAE77A
:100870006FF08500F7E7036938330B6001231360DD
:10088000704700002DE9F04FE7B00446C022002178
:1008900036A8DFF8DCB201F057FB1C22002110A8BB
:1008A00001F052FBB34B2046CDF83CB0119301232D
:1008B0008DF8543001F02EFA00287DD0EFF311832B
:1008C0000293102383F31288BFF36F8F204601F049
:1008D0002AFBA74B0FA994F83420204601F0DAFA3E
:1008E000061EC0F22281A022A34936A801F028FBEF
:1008F00094F8343036AA0FA900932046302301F033
:1009000017FA061EC0F211811FAD2046294600F0DD
:100910005FFA00281CDB2A8842F2C2539A4217D1A0
:10092000964B0222964E36A9964F2046CDE9366365
:1009300042F20423CDE93A73934B4693BB334A9377
:10094000012384F83530914B529300F0ABF910B38A
:1009500000234FF0020940F209170DF11C082B602B
:100960004FF0100A94F834302946204685F8059057
:100970002B71EF80C5F80880C5F80CA001F055FA7E
:10098000061EC0F2D280D8F80020814B9A4215D0C2
:10099000012384F8353094F8343036AA04F1140178
:1009A00020460093282301F0C3F9061E80F2BD8083
:1009B000304667B0BDE8F08F02908AE798F80B20C8
:1009C000172A00F2618198F80D30920098F80E1005
:1009D00020461B028DF86190ADF8627043EA014336
:1009E00098F80C1019950B4317A91A92179394F8BD
:1009F00034308DF8603001F018FA061EC0F2958090
:100A00002B68294605AA09A8C3F3414306AF022B68
:100A100014BF4FF018084FF0200801F03BF80146D2
:100A200000286FD15246386003900BA89DF81460DF
:100A300001F08AFA012394F834A01C22039918A823
:100A40008DF833308DF830A00D9701F07DFA494ACA
:100A500001237006CDF85CB019928DF874304BD438
:100A6000B1064FD416F0100B26D04A4B36AA17A960
:100A700020465E9303F17C43CDF800A0043B6293D3
:100A8000302301F055F900283CDB0A230BA920464E
:100A9000CDF838908DF832308DF8319001F0C5F9ED
:100AA00000282FDB3B6843F001033B600B238DF8EC
:100AB00032308DF831901AE016F0020944D0204609
:100AC00000F02AFA40F2B74336AA17A95E932046EF
:100AD00094F834300093302301F02AF9002811DB18
:100AE0000A23CDF838B08DF831B08DF832300BA92B
:100AF000204601F09AF928B9274B4FF02008469379
:100B0000B8334A9306AB0722294609A801F020F81A
:100B1000002840F384809DF81930022B3ED0012B31
:100B200079D0002B79D06FF08506204601F0F5F8DA
:100B3000204601F0EFF800283FF43AAF029B83F320
:100B40001188BFF36F8F33E7F207DBD540F2B7436D
:100B500036AA17A920465E933023CDF800A001F0F5
:100B6000E7F80028CEDB0A23CDF838909FE700BFD6
:100B700080F0FA02FFFF7F0050FC02600A32042678
:100B8000EC04200A3E04200A210420080504012464
:100B900053464450B50401242004200807233A7822
:100BA0009B02294609A842EA08424FEA084642F059
:100BB000206242F480623692BA7843EA02430BAA7A
:100BC00043F0485343F40073379342F2046338937D
:100BD00000F038FF70B99DF82C2036A92046C2F3EA
:100BE000420200F05FF828B9294B33433A9342F2AE
:100BF00004233B9317AA294609A800F0F9FE002810
:100C00003DDB9DF85E309B0739D5002384F83530F5
:100C1000204B5293BFE60623C1E70C23BFE706AB88
:100C20000622294609A800F093FF0028E2DD9DF87E
:100C30001930042B21D0022B3FF675AF164AD35C36
:100C40009DF818209B0242EA084242F0106242F4EA
:100C5000806236929DF81A2043EA024343F04453DF
:100C600043F48073379342F2025338930B4B43EAB9
:100C700008433A9342F20413BBE70723E0E701235A
:100C800084F83530064BC4E76FF068064DE700BFC7
:100C9000320400087004012404290360A20400083F
:100CA000050401242DE9F041002690B014461022DD
:100CB000054688460DEB02003146039601F044F9E3
:100CC00095F8343001271C2231468DF8143003ABDF
:100CD00009A88DF81770069301F036F92C4B8DF8A2
:100CE000387008932B4B0A93062C4ED8DFE804F09B
:100CF00034480438483E45000124274A274B402603
:100D00002746C8F8A02008A9C8F8B030424695F890
:100D1000343028460093302301F00AF800281CDB09
:100D20000A2304A9284607978DF8163002238DF868
:100D3000153001F07AF800280FDB039B04A9284640
:100D40000794334303930B238DF8163003238DF858
:100D5000153001F06AF800E0002010B0BDE8F08125
:100D60000F4A104B012480262746CAE70E4A022468
:100D70000A4B01274FF40076C3E70B4A0B4BF1E710
:100D80000224054A054B2746F4E76FF08500E4E7A7
:100D900080F0FA02FFFF7F00050401240104012016
:100DA0003F0401243E0401203504012431040120C4
:100DB00038B500691D4614460A4690F8341000F014
:100DC0001DFF2A460146204601F0BAF8002038BD32
:100DD00010B5002386B00C4602A9CDE9013390F886
:100DE00034308DF80C3002238DF80D304FF48373BE
:100DF000ADF80E3001AB04930323059301F015F811
:100E00000028A1BF019B23801B0CA37006B010BD5E
:100E1000F0B5002587B00446022640F20717019579
:100E200094F8343002A9204602958DF80C3001ABBD
:100E30008DF80D6004930123ADF80E70059300F05A
:100E4000F4FF28B994F83520019B1AB1DA07E7D4EA
:100E500007B0F0BD1B06E3D5FAE700002DE9F04F1F
:100E6000046987B00E46174620460A4694F83410A7
:100E7000984600F0C3FE0090204600F04BFF054668
:100E800030B1EFF31185102383F31288BFF36F8F16
:100E900043464FF0030A40F2011B29E0F2B2394603
:100EA0001C48C2F5807201939A4228BF1A469146A7
:100EB00001F046F8204600F02FF894F83410154B56
:100EC00020468DF80C1002A902964F448DF80DA013
:100ED0004E44ADF80EB0CDE9043900F0A6FF20462F
:100EE000FFF796FF204600F018FF019BA3EB0903D4
:100EF000002BD3D1204600F00DFF18B185F31188E7
:100F0000BFF36F8F0098414601F02AF8002007B028
:100F1000BDE8F08FCB9C00801FB590F834200023F3
:100F200069468DF8042040F2031200938DF80530D5
:100F3000ADF80620CDE9023300F077FF05B05DF88B
:100F400004FB0000B0F5706F10B50C464CD10220C8
:100F500000F0FEFF264B621EDB69C3F3C25303FBA6
:100F600000031344234AB3FBF4F3013BDBB2072B2A
:100F700028BF0723D2F8E0108807FBD5D2F8E0108D
:100F8000C907F7D5116841F002011160184A02F152
:100F9000800151E8001F21F4406102F1800444E81F
:100FA00000100028F3D1D16981EAC35303F06073C4
:100FB0004B40D36102F1800353E8003F43F44063A8
:100FC00002F1800040E800310029F3D1094B1A6892
:100FD00022F002021A601A6842F001021A601868D0
:100FE00010F00100FBD110BD6FF08500FBE700BFE2
:100FF00000C00F4000802A4008B5044A044B9168A5
:101000001B6804489847BFF34F8F08BDCC9B0080F6
:10101000C89B008000402A4040F60A020A4010B5F2
:10102000044612D00B050AD40B070BD411F0020FA3
:1010300041F65B330CBF00201846626110BD41F6DB
:101040005930FAE741F65A30F7E71046F6E700F074
:10105000FBB9000008B5044A044B11681B6804483A
:101060009847BFF34F8F08BDCC9B0080C89B008082
:1010700000802A400246D0F8E00010F0020003D0C1
:10108000D2F8E00000F00100704738B534220021AA
:10109000044600F059FF4FF6FF7340F6FF020125AA
:1010A0000021238104F116006281082223746382E7
:1010B0002023227318222375E57000F045FF0F23CB
:1010C000A576E37563774FF4807384F8205084F835
:1010D0002650A38484F82C50638538BD074B984272
:1010E00007D040B1A3F58043984214BF03200220EB
:1010F0007047002070470120704700BF00802A40E1
:10110000F8B50246FFF7EAFF554B032533F91030D7
:1011100054481C0A03F01F0300EB84009D4050E874
:10112000003F2B4340E80034002CF8D113681046F0
:101130004D4F23F00203136000F086F98B7AC878D4
:101140001B0443EA00330878000100F03000034339
:10115000087C43EA0063487843EA8033087943EA2D
:10116000C023887843EA4033887B43EAC013C87BB6
:1011700043EA801343F00203136008894B8A43EA71
:1011800000435360394B9568087D2B4043EA006368
:10119000487943EAC043887943EAC03391F82E0086
:1011A00043EAC0239360D36891F82F0023F07803BB
:1011B00043EA801391F8300043EA401391F831007C
:1011C00043EA001391F8320043EAC0030846D360B3
:1011D00002EB8406857E01340630336A042C03EA70
:1011E000070343EAC573057C4FEA056505F04075C2
:1011F00043EA0503457C4FEA054505F4702543EABB
:101200000503458AC5F3C70543EA05033362DFD109
:10121000D2F8B83023F03C03C2F8B8300B7BD2F8D8
:10122000B800DB08013B9B0003F03C030343C2F81A
:10123000B830D2F8BC3023F03C03C2F8BC30CB7AD3
:10124000D2F8BC00DB08013B9B0003F03C030343E6
:10125000C2F8BC300023136653669366D366F8BDAC
:101260008E14036068C00F4000FFF07CFF77F7002A
:101270002DE9F047D0F8B85004460E469246C5F323
:1012800083054FF020090135EF006D0014BFB8460B
:101290004FF00408BAF1000F35D0574510D9D4F8F3
:1012A000F030DBB2BAEBC30F0DD961692046FFF70E
:1012B000B3FE0028F3D00BE02046FFF7ADFE38B9AF
:1012C00061698B06F8D561692046FFF7A5FE08B174
:1012D000BDE8F087574518D94FEA9A03834223D1D6
:1012E000BAEB830A4FEA83020BD04033324454F8FE
:1012F00023000023D90020FA01F1D15401339A458B
:10130000F8D1202363610020E2E700F1400354F8A4
:10131000233046F8203001308542F6D84644AAEB07
:10132000070AC4F81490B5E700F1400254F82220EF
:1013300046F820200130D1E7F8B50D4604461146A5
:1013400056082046FFF796FE0028FAD0AB6804EB5B
:1013500081003B4F03666B7CEA8903F01F0343EA7D
:1013600002432A7D43EA82232A7BD20392B21343AB
:101370002A7C520102F478721343EA7CD20202F40E
:10138000F04213432F4A0367D0F88030B5F81AC0F3
:101390001A406B7E07EA0C471B0703F0E0433B4310
:1013A0001343AA7D42B16F7D013A3F02520307F415
:1013B000706792B23A4313432A7E3AB1013AEF7D05
:1013C000520107F00F07D2B23A431343C0F88030FE
:1013D0000A462046294600F0F1F9236843F002034B
:1013E00023602B7FEBB1D4F8943023F00103C4F8D1
:1013F0009430D4F89430CEB923F00403C4F8943078
:10140000D4F894302A7F43EA8203C4F894302368E6
:1014100023F0020323602046FFF72CFE0028FAD0B9
:10142000F8BDD4F8943043F00103E0E723F008035B
:10143000C4F89430D4F894302A7F43EAC203E4E736
:101440000000FF0F10100080036843F001030360E9
:101450000368DB07FCD47047036923F4066323F0B9
:101460000B03036100230B60704710B50B79044632
:1014700000EB8303D3F8802042F00042C3F88020C1
:101480001F2343610B68C0F8A030D0F8BC3043F094
:101490000103C0F8BC30D0F8B83043F00103C0F805
:1014A000B8304B798A79013B1204022BCB7902F4D4
:1014B000702203F1FF3394BF888900201B0603F0DC
:1014C000E06313430343C4F8A430D4F8B03043F0CE
:1014D0000103C4F8B0304B7903F0FD02012A0ED1AC
:1014E0002046D1E9021200F0E1F96369DB07FCD57F
:1014F00078B961692046BDE81040FFF78DBD022B29
:1015000005D12046D1E90212FFF7B2FEEDE7002037
:10151000EBE710BDF8B50C461E461746FFF7DEFD9B
:10152000182205460021204600F00EFD0B4B0C4A08
:1015300043F825400B4B1A600B4B33F91530002B49
:10154000C4E9047608DB0122590903F01F0302FAFB
:1015500003F3064A42F82130F8BD00BFCC9B00805F
:10156000C50E0000C89B00809414036000E100E0F9
:101570000B682BB10020D1E902135B1A136070478E
:10158000062070472DE9F0414669054603690C467F
:101590001E4273D03146FFF73FFD024698B12369E2
:1015A0008BB12B6923F4066323F00B032B6100231B
:1015B00026692360002E61D0636921462846B4461F
:1015C000BDE8F0416047B10621D52368022B1ED14A
:1015D000D5F8B830A268C3F383030133B2EBC30F6D
:1015E0004FEAC30060D35B00002202F1400761684C
:1015F000013255F8277093420F60616801F10401D0
:101600006160F2D1A3681B1AA36020236B61F2070B
:101610000FD5012300226B612B6923F4066323F0AD
:101620000B032B61276922601FB16369214628469D
:10163000B847730622D52368012B1FD1A268EAB1EF
:10164000D5F8BC30C3F383030133B2EBC30F4FEAC9
:10165000C3005FD35B00002261680E6802F1600185
:10166000013245F821606168934201F10401616033
:10167000F2D1A3681B1AA36040236B61BDE8F0811F
:1016800003F140016268013355F82110116062686E
:1016900004326260A268B3EB920FF1D3A2EB830233
:1016A000A2601AB90023AFE70023F3E7403355F8EF
:1016B00023000023A2689A42F4D961684A1C626040
:1016C000DA00013320FA02F20A70F3E76268116867
:1016D00003F16002013345F822106268043262604F
:1016E000A268B3EB920FF1D3A2EB8302A2607AB1AE
:1016F000002108466668771C6760CF0036780131A4
:10170000BE408A4240EA0600F4D1603345F8230027
:101710000023B0E70023E3E730B50C68002C49D183
:1017200093684B60D368C1E902335379022B14BF2D
:10173000012302230B60137900EB8303D3F880505D
:1017400045F00045C3F880501F2343611368C0F87B
:10175000A030D0F8BC3043F00103C0F8BC30D0F862
:10176000B83043F00103C0F8B8305379023B012B85
:10177000D37998BF9489013B92791B06120403F038
:10178000E06302F4702213432343C0F8A430D0F87E
:10179000B03043F00103C0F8B0300B68022B03698E
:1017A0000CBF43F4026343F4046343F00B0303618F
:1017B000002030BD41F65830FBE7000038B5044644
:1017C00055082046FFF756FC0028FAD02368C3F3DB
:1017D0000113032B30D10B7973BB0A68194B9A4262
:1017E0002DD84FF47A73897C4B225943B1FBF2F325
:1017F0005A43914288BF01335B0203F4FC4343F434
:10180000807305F13002002D44F82230226822F066
:101810000202226014BF4FF440320322DB070AD5D4
:10182000D4F8E83032EA0303FAD1642300BF013B65
:1018300013F0FF03FAD138BD4FF48073E1E7792349
:10184000DFE700BFFFE0F50570B50446154620460A
:10185000FFF710FC0028FAD00220094A8031A2616B
:1018600004EB8101E0610020984203D10123A261D1
:10187000E36170BD55F8206041F820600130F3E766
:10188000F05AF05A08B503461846FFF7F3FB002854
:10189000FAD01A680901184622F0300201F030012E
:1018A00011431960BDE80840FFF7CEBD2DE9F047B0
:1018B000D0F8BC3005460F461446C3F383034FF0FF
:1018C000400A01335E004FEAC3080CBF4FF0040921
:1018D000C1460CB369694B06FCD52846FFF79CFB53
:1018E000D8B9A0451BD9A308834227D1B4EB800403
:1018F0004FEA80060ED000233E441A46F15CDF001A
:101900000133B9409C4242EA0102F7D100F1600381
:1019100045F8232040236B610020BDE8F08757F88D
:10192000203000F16002013045F822308642F6D8BE
:101930004F44A4EB0804C5F814A0CAE757F82010D8
:1019400000F16002013045F82210CDE7002903467E
:1019500014BF0120002007D01A0A0A70C3F34212F4
:1019600003F01F034A708B707047C3780A2B3CD971
:101970008B6AC3F34170C3F30461022801F10101D2
:101980002CD003282ED0012814BF09010902118090
:10199000C3F3C341180201F1010148BFC900580354
:1019A0009180C3F3833101F1010148BFC90098045C
:1019B000C3F303105180C3F3042103F00F0301F1BB
:1019C000010103F101034CBF8901C9005B00D18013
:1019D0000121138181400020518170474FF47A60CA
:1019E0004143D4E74FF47A40FAE76FF0850070473F
:1019F000C3780D2B23D9496B002920DBCB0DC1F314
:101A000041301370CB0B02285370C1F3042303F150
:101A100001030ED003280FD0012806D0DB01C1F34B
:101A2000850100205360917070474FF47A704343F2
:101A3000F5E74FF4FA50FAE74FF47A40F7E76FF022
:101A400085007047C3780E2B21D9896BCB0CC1F36D
:101A5000C05003F00E030343080B00F0F0000343F3
:101A6000880800F47C500343C1F3402043EA8033EC
:101A7000C802090500F4782001F470010343002036
:101A80000B43116801F07F410B43136070476FF007
:101A900085007047C3780F2B14D9C96B0B480B0E08
:101AA00000EA911013708B02090603F47C0301F025
:101AB000FE41034310680B430549014000200B43DE
:101AC000136070476FF08500704700BF00FF030090
:101AD000FF0000804B1EC9074FEA530300EB830051
:101AE000C36958BF1B0CC3F3072113F0FF031DBFCD
:101AF0000020117053706FF015007047C0780928EE
:101B000023D9013A486AC2EBC202111D093220FAF8
:101B100002F220FA01F100F00F0002F0030201F0DE
:101B20001F010130022A01F101014FEA400006D0F5
:101B3000032A06D0012A00D1090119607047C901A2
:101B4000FBE74FF47A725143F7E76FF08500704777
:101B500010B50C4619460D2A08D8DFE802F00C171C
:101B60000A1C242A33383D454A3030306FF01500C6
:101B700010BD0020FCE7C3780E2B20D9A36B13F413
:101B8000007F0CBF6FF085000020F1E7C378122BB7
:101B900015D9A36CF3E72368D80310D5E06880B2A9
:101BA000FFF7D4FEE4E723685A0208D5A068000CCA
:101BB000F6E7C378102B02D9206C030EF7D16FF033
:101BC0008500D5E72368DB02F9D5E068EFE72368F5
:101BD0009802F4D5A068E2E7C378102BEFD9206C07
:101BE00010F47F4FDBD1EAE72369DA07E7D56069B4
:101BF000DDE72369DB06E2D5A069D8E7032930B524
:101C000000690CD800F1100400238B4202DB40680D
:101C1000104430BD54F8045F01332A44F5E7002036
:101C2000F7E770B5046992B00546267A002E38D1E0
:101C300005AA3146206900F08FF9002833DB059BA7
:101C400032461979186800F093F900282BDB05A8B3
:101C5000FFF71BFA637A05AA8DF84530A37A8DF851
:101C60004630E37A8DF84430237B8DF84330637B34
:101C70008DF81630A37B8DF81930E37B8DF8143086
:101C8000002394F83000D9B2063288420FD82B696D
:101C900020681B7A1BBB05A9FFF732FA2B691B7A58
:101CA00033BB002001E0831CD1D012B070BDE16ACB
:101CB00031F83310003918BF01211175E16A01EBC9
:101CC000C30149881174E16A01EBC3018988517429
:101CD000E16A01EBC3010133C9885182D3E7036E86
:101CE0000193436E0293836E0393C36E0493D2E712
:101CF00001AA002303F118000133216852F8045BA4
:101D0000042B41F82050F5D12268136823F0020318
:101D10001360C6E70369187A704703691B681A687D
:101D200042F001021A60186810F00100FBD1704700
:101D30002DE9F04FC9B00C4691461F469DF848A1C9
:101D40000669BAF1030F6DD806EB4A0898F82530FA
:101D5000BB4215D296F8273096F825501D4496F8C8
:101D6000293053FA85F596F82B3053FA85F55FFA4A
:101D700085FB57FA85F5402D04DD6FF068004EE0D5
:101D80004FF0000BA36806EB8A029B0253610369C4
:101D90001B7A33B149460DF12009BA0008A800F0BA
:101DA000CFF86A4604F120052068083454F8041C72
:101DB0001346AC4203C31A46F6D198F82530BB420D
:101DC00007F1030323F0030338BF88F824B098F821
:101DD000242088F825309DF8173003EB92038DF806
:101DE00017309DF8153003EB92038DF81530EFF3A3
:101DF0001184102383F31288BFF36F8F5246694614
:101E00003068FFF799FA3B464A4698F82410306844
:101E1000FFF71AFD84F31188BFF36F8F002049B0DC
:101E2000BDE8F08F6FF01500F9E7F0B5046985B0F3
:101E3000087904F1100604EB400393F824200023F2
:101E400092081D46984220DC02B9ADB10B466F46A0
:101E500001F1100C1868083353F8041C3E46634522
:101E600003C63746F6D19DF8063069461A44009BF2
:101E70002B448DF8062000932068FFF7F6FA00281F
:101E800018BF6FF0040005B0F0BD56F8047F0133B1
:101E90003D44D7E72DE9F74304460E4617469946D9
:101EA0000569EFF31188102383F31288BFF36F8F56
:101EB00000F039F8D5E90D0183685B6983B34A46C0
:101EC0009847002806DA88F31188BFF36F8F03B0B4
:101ED000BDE8F0833A463146C6F800902868FFF71F
:101EE0006DFC2046FFF719FF204600F01CF8D5E9ED
:101EF0000D018368DB689BB101AA98470028E2DBEB
:101F0000019B3A46314633602868FFF757FC20466C
:101F1000FFF703FF88F31188BFF36F8F0020D6E728
:101F20006FF05700CFE703691B68D3F8E0209107F3
:101F3000FBD5D3F8E020D207F7D5704700000000AA
:101F40005FF800F0AFF102605FF800F0FFF10260AF
:101F50005FF800F0B58B02605FF800F019D2026004
:101F60005FF800F0AD8F02605FF800F029E90260D1
:101F70005FF800F03FD2026053B94AB9002908BFA8
:101F800000281CBF4FF0FF314FF0FF3000F00CB8BD
:101F9000ADF1080C6DE904CE00F008F8DDF804E0BE
:101FA000DDE9022304B07047704700BF2DE9F04718
:101FB00086468C460846089E154674461946002BF0
:101FC00040F0C2808542B2FA82F245D94AB1C2F1EC
:101FD000200300FA02FC2EFA03F3954043EA0C0CAE
:101FE00094404FEA154EA8B2BCFBFEF8230C0EFB42
:101FF00018CC08FB00F943EA0C43994528D9EB18A3
:1020000008F1FF3704D2994502D9A8F102072B4401
:10201000A3EB0903A4B2B3FBFEFC0EFB1C330CFBC9
:1020200000F044EA0344A04214D92C190CF1FF3308
:1020300004D2A04202D9ACF102032C44241A43EA90
:1020400007401EB1D440002334607360BDE8F087C0
:102050004746DDE76346F1E792BB431B01214FEAA8
:10206000154EAFB2B3FBFEFC200C0EFB1C330CFB79
:1020700007F840EA0343984562D9EB180CF1FF30AA
:1020800004D2984502D9ACF102002B44A3EB08031B
:10209000A4B2B3FBFEFC0EFB1C330CFB07F744EAB7
:1020A0000344A7424ED92C190CF1FF3304D2A742A6
:1020B00002D9ACF102032C44E41B43EA0040C0E720
:1020C000C2F1200320FA03F1954090402EFA03F369
:1020D00003434FEA154EAFB2B1FBFEFC0EFB1C10E2
:1020E000190C0CFB07F841EA0041884504FA02F498
:1020F00022D969180CF1FF3004D2884502D9ACF11D
:1021000002002944A1EB08019BB2B1FBFEFC0EFBCF
:102110001C110CFB07F743EA01439F420ED9EB1851
:102120000CF1FF3104D29F4202D9ACF102012B44E1
:10213000DB1B41EA004192E76046E3E76146F7E7CF
:102140006046A3E76346B7E7834206D916B9002184
:1021500008467BE7C6E900E0F9E7B3FA83F78FB9F1
:10216000834201D3724508D8BEEB020460EB03033F
:1021700001209C461EB9002168E73846FAE7C6E907
:10218000004CF8E7C7F1200CBB4022FA0CF41C43CA
:102190002EFA0CF120FA0CF3B84001434FEA14492F
:1021A0000EFA07F5B3FBF9F81FFA84FE09FB1830A5
:1021B0000B0C08FB0EFA43EA00439A4502FA07F2B9
:1021C00040D9E31808F1FF3004D29A4502D9A8F1AA
:1021D00002002344A3EB0A0389B2B3FBF9F809FB1D
:1021E000183308FB0EFE41EA03418E452CD96118D5
:1021F00008F1FF3304D28E4502D9A8F1020321442D
:1022000043EA0040A0FB0298A1EB0E014145CE46F7
:10221000434602D306D14D4504D2B9EB020E68EB1A
:1022200004030138002EA6D0B5EB0E0261EB0301CA
:1022300001FA0CFC22FA07F34CEA0303F940C6E961
:10224000003198E74046C5E74346D9E710F8012B2F
:1022500011F8013B012A28BF9A42F7D0D01A7047E3
:10226000034613F8012B002AFBD1181A01387047D6
:1022700013B5174B01240421164801932246164B2F
:1022800000940AF09CF8031E04DA144A214614480C
:1022900009F075FF002002F03DF808B178300ED14A
:1022A0000C4C03210F4A0E4809F060FF42F21070F7
:1022B000002108F0C9FAA3690133A361F6E70A4ACD
:1022C0000121074809F052FF002002B010BD00BFF5
:1022D000AA140360C094008024150360B81403603E
:1022E000ACF90260F2140360DD1403602DE9F04FD5
:1022F00091B0840705460E46009302F00403DDF812
:1023000068900293C2F3C203039203F101030593A1
:1023100040F0BA81041D30B1072909D86FF01B00C5
:1023200011B0BDE8F08F01F00706341DC6F10806B4
:10233000009B4FF000084FF0040A591E4FF0FF3386
:102340004746C34601935346CDF810800DB1009A1D
:1023500022600598002800F3E8809848009A82429D
:1023600003D397488242C0F0E080039AA4EB050EA5
:1023700092074FEA9E0000F103810F2F00F2B18017
:10238000002D00F0058107F140020DEB020C019ACF
:102390000CF8200C0CF8102C049801300490E7E0A5
:1023A0007A285DD84B280ED8472859D829282DD807
:1023B000252852D054D820287AD02338D0F1000BC9
:1023C0004BEB000B74E04C382E2849D8DFE800F0C6
:1023D0007048484848484848484848484B48484852
:1023E000484848484859484B4B595959704B6D48D3
:1023F0007048184B184848827F4B48484B487F002C
:1024000000204FF0000B4FF0040A38E02A38012278
:10241000C0B202FA00F010EA0E0F49D110F0625C6F
:102420002FD110EA020B43D06046013C5444B4FB68
:10243000FAF40AFB04F4002D61D0A3EB050CA444CC
:10244000B4453FF66BAF002868D1042B47D159F84B
:10245000043B2360043404232AE0019A013A0192E8
:102460004FF0000B24E011F8010C6C2834D111F866
:10247000023C00206C2B8346C5D14FF0080A53461E
:10248000D3E709F10709073429F0070924F0070405
:10249000F9E802AB35B106982044B0423FF63EAFB2
:1024A000C4E900AB08344FF0000B4FF0080A534664
:1024B00011F8010F002878D0BBF1000F7FF470AF46
:1024C0002528F5D1019B4FF0010B013301934FF00B
:1024D000040AECE7584694E700208346A5E7082B5A
:1024E00002D06FF015001BE709F1070929F0070971
:1024F000F9E80223C4E9002308340823D8E768B9BF
:10250000042B02D109F10409A4E7082BE9D109F150
:10251000070929F0070909F10809EDE7059A013AC9
:10252000059259F8042B009210E7039A900720D5E2
:10253000A4EB050E4FF0010C4FEA9E00BEF5007FA4
:10254000CFD20F2FCDD8F5B107F14002C0B20DEBBD
:10255000020E019A0EF8200C0EF8102CBCF1000FA0
:102560003FF41AAF60F07F0008F101080EF8200C6C
:102570000137C5F1080204344FF6DA7E069297E778
:102580004FF0000CDAE7BCF1000F01D00136EFE7A5
:10259000029802360028EBD10098CDE90631FFF70A
:1025A0005FFE0644DDE90631E2E7631BB3F5806FA9
:1025B00097D23DB9A6F10804E018B1E634F2026002
:1025C000782B03609B08029A28602B709DF81030CE
:1025D000C2B1EB7085F80280B8F1000F05D008A8F1
:1025E0000022C5F1010C97420ED1C5F101030DF196
:1025F00020094FF0000A0DF1300B0193574512D11D
:10260000601B8DE66B70E5E710F8013B190608D5F5
:1026100004EB0C0E03F07F03B6453FF67FAE04F8E3
:10262000013B0132DFE7B8F1000F03D099F9002038
:10263000002A17DB029BD3B11AF80B2004F8012BF8
:102640000022019B98182044B0423FF667AE99F8EB
:102650000000009904F8010B204603920CF0A7FD3E
:10266000039A14440AF1010A09F10109C6E799F82D
:10267000002055F822300093029B009845F8223044
:10268000FFF7EEFD421CDCE76FF00D0048E600BFEF
:102690002DE9F04F97B00446894600AF90F802A0AC
:1026A000D7F880B03B62CBF3C003FA62BB6141B99B
:1026B000457800780AEB800020444D4517D8A0EB00
:1026C0000409E378FB61BAF1000F02D01BF0010F9F
:1026D00016D1FB6953BBFB6A1BB13A6A49462046D7
:1026E00098474D4628465C37BD46BDE8F08F461CEE
:1026F00009F101093046FFF7B3FD01303044DCE752
:102700002378626899007A62FA6A796104EB83013E
:10271000002A40F000814D460E4601EB0A094FF0B9
:1027200000084E454CD101EB0A0610E01BF0020FE9
:10273000D1D023789A0004EB83017A6162687A62CF
:10274000FA6A002A77D14D4601EB0A0690461BF043
:10275000050F0CBF02230123FB62FB6906EB430A52
:102760000BF00203BB625645BCD016F8021B16F8EC
:10277000013C54F82390AF4B994502D3AE4B994599
:1027800036D3BB69002B40D0786A09F020F90028C5
:102790003BD0E9468AB06A46A84B53617B6AC2E9DE
:1027A00006314FF400731384A54B42F8103F002309
:1027B0004FF41251A348023D00F0BAFDCD46D2E7D6
:1027C00016F8013BF96254F82300FFF749FDD7F8EA
:1027D00084300130F96A4BB1D7F8883098453EBF54
:1027E000D7F8843023F8180008F10108054498E769
:1027F000BB6923B1786A09F0EAF80028C9D11BF057
:10280000010F05D1FB6AED1AADE7BB6A002BAAD018
:102810004846FFF725FDD7F8843053B1D7F8883004
:1028200098453FBF431CD7F8842022F8183008F1A0
:102830000108054497E7BAF1000F72D01BF00406B7
:1028400072D0D046002607F1480052463B61B9627B
:102850000CF0ADFCB96A3B6901EB0A02F969BA6296
:10286000FA695200FA60BA6A02EB41023A610BF06F
:102870000202BA603A69B96A8A4257D11BF0020F64
:1028800062780CBF4FEA580100217A621BF0010FF9
:102890003244D2B240F09F801BF0040F14BF404678
:1028A0000020BB616270A0702046E1703A6A7969CD
:1028B000FB6A9847051EFFF615AFBB6941463A6AA9
:1028C00007F1480023707B6A84F802A06370FB69FB
:1028D000E370FB6A9847B0F10008C0F2B5807B69ED
:1028E000A9EB0A013A6AC91AFB68C91AD7E90A03AF
:1028F00098470028C0F2AA80A8444FF0000B07F1C7
:10290000380A08EB0005B34567D300213A6AFB6A31
:1029100008469847E6E656464FF0000807F13800AB
:1029200093E75646D04697E7B04695E7BA6A12F85D
:10293000021B12F8015CBA6254F825003D4A90422D
:1029400002D33D4A90421ED3BA6932B1786A7B60A5
:1029500009F03DF87B6800288CD1BA6802BB08F109
:10296000280207F1300C08F1010008F10208944434
:1029700007F158025FFA88F852FA80F00CF8101C40
:1029800000F8105C76E7BA693AB1786A7B6009F0C2
:102990001EF87B6800287FF46DAF1BF0010F09D093
:1029A00006F1280207F13000711C161806F8205CA9
:1029B000CEB25FE71BF0040F3FF45CAF08F12802D2
:1029C00007F1300008F1010102EB000808F8105C83
:1029D0005FFA81F84EE7002063E71BF80A3054F8ED
:1029E000239087F83730D7F88430FBB133F81B8059
:1029F0003A6A012107F13700FB6A9847002825DB76
:102A00000544B8F1000F06D14846FFF729FC00F154
:102A100001081FFA88F83A6A41464846FB6A984717
:102A2000002813DB05440BF1010B6CE7D7F8848019
:102A3000DEE700BF34F20260782B03602A150360E2
:102A4000040000013CF9026045464BE6054649E6B4
:102A5000014B1860704700BFE082008080B50546DA
:102A60000E461746984607F00BFFDFF82090034606
:102A70000CF0D6FB0446424649F800303946304651
:102A8000A84754F8090002F063FE00BF08000000E8
:102A9000044608B5EFF31183102383F31288BFF3C4
:102AA0006F8F02F0BBFF02F0FDFF0AF017FE204619
:102AB00002F0A2FD024808F0B1FF09F011FFFCE7A7
:102AC000DE1503602DE9F043079D15B91560002060
:102AD00012E00324B5FBF4F404EB4407BD4218BF35
:102AE0000134B4F1804F09D2A40001348C4200D8E3
:102AF00038B96FF00B001460BDE8F0834FF0FF347D
:102B0000F7E704460021DFF8B4E0B94203F1030C13
:102B100004F104062BD3A942274623D21F7801F1E2
:102B2000010C2649AC454FEAA70E4FEA071734BF00
:102B30005B78002311F80EE0AC4507F0300784F80D
:102B400000E001EB131E34BF9B003D231EF807700D
:102B500038BF03F03C036770374638BFCB5CA370C7
:102B60003D23E370381A002310603B70AFE71CF878
:102B7000034C03311CF8023C4FEAA4091CF8018CF9
:102B800024011EF8099004F0300406F8049C0EEBB2
:102B900013199B0019F8044003F03C0306F8034C9A
:102BA0000EEB981408F03F08E35C344606F8023C4C
:102BB0001EF8083006F8013C6346A6E78716036056
:102BC0002DE9F0430027DDF81CE0DFF82C813C46BE
:102BD0003D4675451ED3DCBB00201460BDE8F08384
:102BE0000136764532D013F806C0BCF1200FF7D07D
:102BF000AEEB0609751BB9F1010F0DD0BCF10D0F3D
:102C00000AD103EB060999F80190B9F10A0F6FD1C7
:102C1000751CDEE72E46E4E7BCF10A0FF8D02DB9AB
:102C2000BCF13D0F05D10137022F0DD96FF0150012
:102C3000D4E71CF0800FF9D118F80C507F2DF5D097
:102C40003F2D01D8002FF1D10134E1E73546C2E72D
:102C500004F007064FF0060CE4080CFB06F60CFB2C
:102C600004F40736E41B04EBD60470B18C420CD894
:102C700000271D44014603263C46DFF87CE0DFF8D0
:102C80007C809D4205D10C1AA6E76FF00B00146002
:102C9000A4E713F8019BA9F10A0C5FFA8CFCBCF1C4
:102CA000160F04D848FA0CFC1CF0010FE9D01EF8EE
:102CB00009C00134BCF1400F08BF013E0CF03F0CCD
:102CC000042C4CEA8717DCD186B13C0C012E0C7029
:102CD00002D101310024D4E7022E4FEA172418BF95
:102CE0008F704C700CBF02310331F3E73446C8E7F4
:102CF000002DA1D09AE700BF07160360F6FFBFFFC3
:102D000038B502F0B5FE02F05BFE304B304A1A6077
:102D10004FF400422F4B1A602F4B9A6922F4405215
:102D200042F480529A615A6942F000725A619A6C78
:102D30009006FCD4294AD36823F01F0343F0130301
:102D4000D3601368002BFCDA254805F07DFC224B8C
:102D50001A6922F0070242F001021A619A6CD1034B
:102D6000FCD45A6922F4E0525A611B4B9A6C9207C8
:102D7000FCD45A69184C42F440725A619A6942F480
:102D800040229A615A6922F000725A61A56C15F0CE
:102D90002005FBD1636A2846124923F04003636291
:102DA000636A23F03F03636205F092FC0D492846F5
:102DB00005F022FC0C4A064902200AF001FD636D71
:102DC000284623F00303636538BD00BFC49B008021
:102DD00000366E01C09B008000C00F40000008401C
:102DE00010FA026000389C1C2884008008B505F0A9
:102DF00027FF044B044A5A641A6C42F004021A6416
:102E000008BD00BF00C00A4055FAAF552DE9F04794
:102E1000044607464FF00109DFF8508014B93846E0
:102E2000BDE8F08794FAA4F5B5FA85F509FA05F33B
:102E30002E0108EB05156FEA030A24EA03042B7B35
:102E4000002BEBD058F806301B694BB946440322DF
:102E5000284607EA0A077368196800F055FADDE7A3
:102E6000284698470028D9D1F0E700BFE4F902606E
:102E700030B5002289B00F490F480CF001F900224B
:102E8000002300240D4D0E4928460094CDE9062369
:102E90000E234FF44072CDE90334CDE90144094BD0
:102EA00007F018FA084928460BF03BFF204609B006
:102EB00030BD00BFCD2E026098900080008C008055
:102EC000009E0080AD310260D6160360014806F016
:102ED000CBBF00BFF08400802DE9F04780461E483C
:102EE0000F4609F0B5F8064678B300252846BDE838
:102EF000F087237B6BB12368DB680BB120469847D2
:102F000023681B69CBB9636803222046196800F067
:102F1000FBF9013610344C45EBD3B8F1000FE5D086
:102F2000002DE2D02846FFF771FF0546002FF7D0AD
:102F30000021642007F088FCF2E72046984700282B
:102F4000E1D00AFA06F31D43E3E7044C0546DFF837
:102F500010904FF0010ADEE7EC940080E4F9026083
:102F6000F4F90260014B53F8200070474CFA0260FC
:102F700008B5034608462BB1044A136000F06EFC06
:102F8000002008BD6FF01500FBE700BFE482008061
:102F900010B5044C237813B9034806F065FF0123EC
:102FA000237010BDB29C0080F084008010B50446F0
:102FB000084809F04DF85CB1074BBFF35B8F53E84D
:102FC000001F013943E80012002AF8D1BFF35B8FDC
:102FD00010BD00BFE4940080E89400800020064B00
:102FE000BFF35B8F014653E8000F43E80012002A4D
:102FF000F9D1BFF35B8F7047E494008070B5FFF7A1
:10300000EDFF084C0546084EB44200D370BD63681E
:103010005B792BB123685B6813B12946204698473A
:103020001034F1E7E4F90260F4F9026010B5044CE1
:103030000449204608F0F9FD034B1C6010BD00BF99
:103040004884008038FA0260DC94008008B5084AA1
:1030500000234FF47A7107481370074A1360074A38
:103060001360FFF785FFBDE80840FFF7DFBF00BF33
:10307000B39C00806BC00260E4940080E894008000
:10308000014600220023014808F0F0BD488400807A
:10309000014808F086BE00BF48840080024B01460C
:1030A000186808F0D2BE00BFDC940080014808F028
:1030B00007BF00BF48840080254B70B518780028F2
:1030C00044D0FFF7E5FF054690B1224BBFF35B8F7D
:1030D00053E8001F013943E80012002AF8D11E4CC2
:1030E000BFF35B8F1D4EB44226D32846FFF7D6FFB1
:1030F0001B4B1C4C1B68002B12DD0BF07AFF0A22C5
:103100000023FEF739FFD4E90032C01A40F2E93358
:1031100061EB0201984271F1000101D3FFF76EFFEC
:10312000D4E9003213F57A7342F10002C4E90032A7
:10313000BDE87040FFF7BABF63685B7923B12368CD
:10314000294620461B6898471034CCE770BD00BF65
:10315000B29C0080E8940080E4F90260F4F9026017
:10316000E49400809090008070B50D4D297861B98D
:103170000C4C01200C4EFFF7AFFEB44206D3FFF714
:103180009BFF0028FBD101232B7070BD63685B7926
:103190001BB1236820469B6898471034EDE700BFB9
:1031A000B39C0080E4F90260F4F9026000212DE98B
:1031B000F0470846FFF790FE044658B34FF4FA78FC
:1031C0004FF000091C4B0CF02BF81C4A1B581360E5
:1031D00033B11B4B1B68092B02DD1A4806F044FE75
:1031E0000025194FDFF85CA044B12046FFF70EFE22
:1031F000044618B94FF0FF384FF0FF39FFF75CFF76
:10320000064628B9B5B942464B46504606F050FE30
:103210003546E9E74FF0FF384FF0FF39D2E72B682A
:103220009B691BB100222846114698471035BD42C4
:10323000F5D3E8E7054DFAE708000000E0940080C8
:10324000E8940080F0840080F4F90260E4F9026000
:1032500013B5184808F0FCFE174B1B7873B1EFF359
:103260001184102383F31288BFF36F8FFFF724FFBD
:1032700084F31188BFF36F8F02B010BD0F4B1B6832
:10328000002BF9D050B9002200230D48CDE90023CE
:1032900042F21072002307F0AFFDEDE70928EBD1F1
:1032A00007480BF0F9FE074802B0BDE8104006F0F1
:1032B000DBBD00BFE8940080B39C0080E0940080F8
:1032C00098900080F0840080064B10B504461B687F
:1032D00098472146A060044808F044FDBDE810402E
:1032E000FFF7B6BFE482008048840080044A054BA3
:1032F0009B1AB1EBD30F34BF52F831000020704756
:1033000034F90260E4F90260084BC31A1B1110B4CF
:1033100001334468237143689A710122436819603C
:1033200043685A7110BCFFF733BE00BFE4F9026076
:103330002DE9F04F8FB0C1F34A280D46914604AFF6
:103340000C0DB8607B60B8F1000F63D0002607F168
:1033500014034FF0040B4FF00A0AC7F80C803246F2
:103360007E624846C7E90766019307F11C03CDF862
:1033700008B0CDF800A0F968FFF78AF9B0F5006F42
:1033800003461CD36C468AB0D9F8041004AB264817
:103390001A46C3E9050140F2FF71D9614FF400718B
:1033A0001984224B42F8103F4FF412513346204803
:1033B000FFF7BEFFA5462C37BD46BDE8F08FC0F332
:1033C0000A0804F117003B60184468F3532520F005
:1033D00007008008FFF754FE044690B13B6800F1F7
:1033E0001001144A4846F961C7E9083607F1140389
:1033F000CDF808B0CDE900A307F11C03F968FFF789
:1034000047F968F353257B68B96820462A4608F0D7
:103410005DFED0E704F1170020F007008008FFF7F9
:103420002FFE0446EDE700BFEB1603600400000129
:103430004CF90260A1C002602DE9F04F87B004464C
:10344000934698460391DDE91279DDE9105ABFB140
:103450003B46524610210020CDF80090CDF8149044
:10346000FEF744FFB0F5006F06460AD340F2FF7343
:10347000174A0221174807B0BDE8F04F08F07FBE99
:103480003E4604F0070405F117000BF0070BE400BB
:10349000304444EA8B1420F0070044EA46248008B4
:1034A00044EA0554FFF7ECFD054640B13FB13B4609
:1034B000524631461030CDF80090FEF717FF4346D4
:1034C00022460399284607B0BDE8F04F08F0FEBD3C
:1034D0002A1703604CF90260406820B1034BC01A00
:1034E00040F3CF0070474FF0FF30704734F902606F
:1034F0000EB403B503AB0146054853F8042B019302
:1035000002F06CFC02B05DF804EB03B0704700BF42
:10351000E1C10260CA0605D48B064CBF02490349CB
:10352000FFF7E6BF704700BF6317036062170360D1
:103530002DE9F04F89B09B4604460D46149B9046FA
:103540009DF84CA00693159B179E0593169B04931C
:10355000BAF1000F00F09D8006F4807306F00209B6
:10356000079308F09BFD024600283ED09149204673
:10357000FFF7BEFF0746B9F1000F08D016F0440F61
:1035800035D12A468C492046FFF7B2FF074406F0A2
:10359000010353B1894B2046894953F82A20894BAE
:1035A000002A08BF1A46FFF7A3FF06F48073002B1A
:1035B00049D006F00803002B63D1B8F1000F66D0A4
:1035C000424681492046FFF793FF0546069B3D444E
:1035D000002B6DD1049B002B73D1F30700F1E48025
:1035E00031462046FFF796FFD8E00746C3E7774B02
:1035F00018680028CAD0764B4FF47A794FF461618D
:103600004FF03C0C1B68B5FBF3F5B5FBF0F300FB8A
:10361000135509FB05F5B3FBF1F2B5FBF0FE01FB19
:10362000123100FB1E55B1FBFCF309FB05F50CFB49
:103630001311B5FBF0F5009120466649CDE901E58F
:10364000FFF756FFA2E706F00803EBB1624B2046F6
:10365000624953F82A20FFF74BFF0546B8F1000FE7
:1036600005D0424658492046FFF742FF0544BBF1CA
:10367000000FABD05A465A492046FFF739FF0544A0
:10368000A4E74FF0000BE1E706F00805E6E7454642
:103690009CE7BBF1010F069B06D1002B64D1049B74
:1036A000002B7BD000250CE0002BF8D04D485CE0CF
:1036B0004D48069B22464D4908F058F9049B002BC3
:1036C00068D0DFF82C81DFF82C91049F4FF0000BBD
:1036D00031462046102F28BF1027FFF71BFF5D45FE
:1036E00045DC059B4FF0010B494620461A78FFF751
:1036F000FFFE1BF0070F03D141462046FFF7F8FEFF
:103700005F453BD9059B4946204613F80B20FFF740
:10371000EFFE0BF1010BBBF1100FEAD14FF0000BE4
:1037200035492046FFF7E4FE5A46059B20469A5C41
:10373000A2F120015F29314928BF2E22FFF7D8FED0
:103740000BF1010BBBF1100F1DD01BF0070F03D1C4
:1037500041462046FFF7CCFE5F455A46E5D8414634
:103760002046FFF7C5FEEBE71F485546A1E7414657
:1037700020460BF1010BFFF7BBFEB0E720492046C6
:10378000FFF7B6FEC5E7059B3B440593049BDB1B97
:1037900004939AD1BAF1000F7FF41FAF204609B00D
:1037A000BDE8F04F08F00FBD064A20460449FFF778
:1037B0009FFE15E76A1703606E1703605CFA0260EC
:1037C0003C2503606517036093170360F494008041
:1037D000F09400807717036070FA02609717036017
:1037E0009D17036017C20260E1C10260DD5D0260E7
:1037F000AA170360A2170360AC170360AE1703603B
:10380000A817036042F20F73114A8B4273B5044646
:1038100028BF0B4605680521684607F059FB636819
:1038200006460B2228465B680A4908F0BEFC63681E
:103830003246694628465B6808F0B7FC63681B227D
:1038400005495B68284608F0B0FC02B070BD00BFB7
:1038500056220360CD170360B117036000210123D6
:10386000064A904206D8064A01B901231360054B67
:1038700018607047400801215B00F2E740420F00EA
:10388000F0940080F4940080F8B50D460446461884
:10389000054FB44201D12846F8BD14F8011BBB689E
:1038A00001485B689847F4E758F30260014B0360F6
:1038B00000207047B8FA026010B9024B18687047D0
:1038C000406970471C95008038B5074B05461C6859
:1038D0000CB9204638BD29462068FEF7B7FC002801
:1038E000F7D06469F4E700BF1C950080F8B50C4F71
:1038F00006460C4600233D6825B95BB93C600020B4
:103900002660F8BD31462868FEF7A0FC20B12B46A2
:103910006D69F1E75C61F2E76FF07700F1E700BFF6
:103920001C950080114B70B51C680D46DCB1104B26
:10393000196800238B4202DB6FF0010070BD224644
:1039400012F8106B864202D001331446F2E7E068A9
:1039500010B96FF01200F1E70AF0E6FF0028F8D086
:1039600000202C60EAE76FF00C00E7E7F0820080AF
:10397000B8FA0260F7B58368044663B3026AB3FB22
:10398000F2F502FB1535D0E904763DB1551B006810
:1039900094F824102A4618440BF031FCA3683E44E6
:1039A000E0682B44226881684D683146A847054687
:1039B00048B11A4A034601211948009608F0E9FB6C
:1039C000284603B0F0BDE3695BB92369A2681344DC
:1039D00023610023A3600025F2E7535DDB435355C9
:1039E0000135A36822689D42F7D3E06881680D68BD
:1039F0003146A847054630B10A4A03460121084826
:103A000008F0BDFBDCE7E3693246A168206898470F
:103A100005460028D9D0044A0346EFE7131803608F
:103A200034F90260371803604D18036010B504467E
:103A3000034A0121034808F099FB0020606010BD93
:103A40006118036034F902602DE9F3470D46914691
:103A50001E460446DDE90A78A8B1A1B19AB10093E7
:103A6000002301938B680846DB689847026882460A
:103A70002262B6FBF2F302FB13634BB1194A012138
:103A8000194808F073FB6FF00D0002B0BDE8F08735
:103A90006A461649284609F0F3F9019A002AF2D03D
:103AA00007EB08039A4205D3216AB7FBF1F301FB48
:103AB00013730BB10E4AE2E7E5602361A36067610F
:103AC000C4E90096B8F1000F01D1A2EB07080C9BE6
:103AD0000020C4F81880E3619AF8053084F8243097
:103AE000D3E700BF8118036034F90260ADC40260FF
:103AF000B81803600C4BF0B40C4E5F6A0C4BB34229
:103B000003D36FF08500F0BC70475D68BD4209D3F8
:103B10001C693CB195F802C00579AC4502D1234639
:103B2000F0BC18472433EAE720950080FC8500802C
:103B3000D88500802DE9F04705460E461746124C01
:103B4000DFF84880DFF84890444503D36FF08500E4
:103B5000BDE8F0876268D9F824309A4212D3A3698D
:103B600083B190782979884205D13A463146284672
:103B7000BDE8F04718475279012A03D13A46314649
:103B8000284698472434DFE7D8850080FC850080EC
:103B9000209500802DE9F04105460E4617460A4C57
:103BA000DFF82880444502D36FF0850009E063699F
:103BB0000BB92434F6E73A463146284698470028A0
:103BC000F7D1BDE8F08100BFD8850080FC8500807A
:103BD000024B00221A605A60704700BFDB950080DC
:103BE00070B50B4B0B4CA34201D3002070BD196A7A
:103BF00000221E7F0439D5B2AE4201D82433F2E749
:103C0000013211F832508542F5D10120EEE700BFB4
:103C1000D8850080FC85008008B5044A0346012150
:103C2000034808F093FC002008BD00BFD9180360CA
:103C3000D4F9026038B5054604F072F810F1780F37
:103C4000044611D12B460D4A02210D4808F07EFC96
:103C50002846002408F07CFC0A4AD2F8C43023EA43
:103C60000003C2F8C43007E00028F1D02B46064A12
:103C70000121034808F06AFC204638BDF4180360AF
:103C8000D4F902602095008015190360094808B531
:103C90000378C3F341130A3350F823303BB100F1EA
:103CA000080200F110019847C043C00F08BD184634
:103CB000FCE700BF2095008004282DE9F74F04465B
:103CC0000F46DFF8989015D001282FD1DFF89080AB
:103CD00098F8B93053B3234D00F0C0FE4D4522D2C1
:103CE0002A6A4FF0000A2B7F5FFA8AF6B34204D8A3
:103CF0002435F3E7FFF76CFFE8E702EBC606019215
:103D00000AF1010A307904F00BF88346307908F0A3
:103D10001FFCD8F8C430BBF1000F019A23EA00035E
:103D2000C8F8C430DFDA002388F8B9300D4D4D45AE
:103D300008D30B4B1B6A6BB13946204603B0BDE874
:103D4000F04F1847EB681BB13A4621462846984782
:103D50002435ECE703B0BDE8F08F00BFFC850080A0
:103D600020950080D885008073B5C4B20D466306E7
:103D70008DF8074007D02046FFF732FFB0B1144B53
:103D800093F8BA0090B1124E23468DB1114A032127
:103D9000114808F0DBFB9DF8070003F0B5FEF3695E
:103DA0001BB10DF1070108209847012002B070BD3A
:103DB0000A4A0321084808F0C9FB9DF8070003F0F0
:103DC000D1FEF369002BF0D00DF107010920EBE7DC
:103DD0002095008037190360D4F902604A19036006
:103DE00073B5044680782B4D8DF8000023796279F5
:103DF00043EA0223ADF80230E37803F003038DF8C1
:103E0000043008F0A5FBD5F8C430064618420CD0A3
:103E1000A478204600F004FE2046FFF70BFF0AF0CE
:103E20007AFF10B996200BF076F8684603F0D4FDBF
:103E300010F1780F9DF800301BD1174A0221174866
:103E400008F084FB9DF8000003F016FF10F1780FD6
:103E500019D19DF800300221114A104808F076FB74
:103E6000D5F8C4300120334385F8B900C5F8C43013
:103E700007E00028E6D00B4A0848012108F066FB5D
:103E8000002002B070BD0028EAD09DF80030064A3C
:103E9000F2E700BF209500805F190360D4F902604B
:103EA000A619036082190360C61903602DE9F04763
:103EB000924D04460E461746AB69C3B9207800F010
:103EC0001F00012876D0022800F0DC8000BB94F9A6
:103ED00000103A68002963782EDA062B0CD0082BE4
:103EE00025D0ABB9537001231370022303E1984727
:103EF0000028E3D100200DE06388190A0A1F8C46D0
:103F0000012A05D9072903D8DAB26B6A1C781CB9D3
:103F10006FF01500BDE8F0875D78654503D18242FA
:103F200000F0E48001302344F0E71B78E3E095F8EB
:103F3000BA3013700123DEE0052B11D0092BE7D135
:103F400063886E6A002B32D1FFF742FE638885F8E2
:103F5000BA30EB69002BCDD0694903209847C9E7F7
:103F6000A07803F0FFFC0028C4D0D1E77378042BBD
:103F700010D0052B11D0022B04D177796388BB4276
:103F800008BF012033781E443378002BEED100287F
:103F9000BED0D9E796F80380F4E76388BB42F1D13D
:103FA000B8F1000FEED13046FFF71AFFEAE7FF271E
:103FB000B846E9E795F8BA30D7F800C0002BA7D08B
:103FC0006F6AA28894F804E03B46187800289FD0D6
:103FD0005978022904D193F80480F04500F29280C8
:103FE0000344F2E78CF800308CF80130316081E74F
:103FF0001F4493E00B2B8BD100264FF0FF08B246F5
:10400000C14606E07B78042B0FD0052B21D03B78EE
:104010001F443B78002BF5D1EB6913B151460720C3
:104020009847002E7FF466AF72E797F80280A38866
:1040300097F803909845EAD163889945E7D1B8F19C
:10404000070F1CD805EB0803BA46012683F8BB907E
:10405000DDE7A3884345DAD1A3784B450AD0BE7883
:10406000304600F0DDFC3046FFF7E4FDB0FA80F6A4
:104070007609CCE73846FFF7B3FE0646C7E7BA46EF
:104080000026C4E794F900206378002A18DA002B90
:104090007FF43EAF24793F6863060AD02046FFF7DD
:1040A0009FFD00283FF434AF95F8BA30002B3FF461
:1040B0002FAF3946204603F0A9FD00237B7014E79B
:1040C000012B08D0032B7FF423AF6388002B7FF4F0
:1040D0001FAF012103E0618800297FF419AFA08898
:1040E000FFF742FE00287FF405AF11E702293B608D
:1040F0007FF41BAF5B883360FCE600BF2095008037
:10410000DA95008094F9000063780028BFF672AF5A
:10411000002B3FF467AF0A2B7FF4FAAE3B78002BFD
:104120003FF4F6AE797804297FF462AFB9788A4219
:104130007FF45EAF072A96BF5219002392F8BB3076
:104140008CF80030F6E600BF2DE9F84F05460F4623
:10415000904699460426DFF834B0DFF834A04B4689
:1041600042463946284603F019FE10F10B0F04466B
:1041700009D12B465A460221504608F0E7F906F0CD
:10418000E1FA013EEBD12046BDE8F88FE719036064
:10419000D4F9026013B5164C237DF3B9E26801AB84
:1041A000A16880200192FFF7CFFF019AA368134412
:1041B000A360E3689B1AE3606BB962B12369E2888C
:1041C0009A4208DD94F8C82093FBF2F102FB113308
:1041D0000BB90123237502B010BD002380201A46BD
:1041E0001946237502B0BDE8104003F0D7BD00BFEB
:1041F000209500807FB500230D46064601930028D8
:1042000062D100293AD108220B460DEB020108F0D9
:10421000EDFD002804DA802003F076FC04B070BDC8
:104220002E4C029ABDF80E302260039A257562600A
:1042300004F13802A2609DF90820002AC4E9035560
:104240000FDB802B09D9264A0121264807F08EFF73
:10425000802003F059FC2846DEE713B1C4E903339C
:10426000DCE7FFF713FD0028D5D0E28823699A42E6
:10427000D4BFE260E360FFF78DFFCFE7174C01ABDF
:10428000D4E90212002A05DC024608F0AFFD00283E
:10429000C4DAC0E708F0AAFD002804DA802003F0A1
:1042A00033FC3046B8E7019AA3681344A360E3687F
:1042B0009B1AE360002BB1D104F13803A360FFF730
:1042C000E5FC0028D7D1A6E78028A7D1034BDA6800
:1042D000002AD0D11B7D002BCDD19FE720950080F7
:1042E0000E1A0360D4F90260054B064A586200209A
:1042F0009A62054ADA62054A1A63054A9A6170476A
:1043000020950080AD3E0260F53A0260953B026068
:10431000353B02602DE9F34104464C4D4FF0FF332D
:104320004FF0FF324A4805F0B9FC95F8B8306BB150
:104330006FF07704474A0221474807F017FF4448C7
:1043400005F024FD204602B0BDE8F0816B6A6BB930
:1043500000F0D6F8FFF7C8FF6B6A3BB93F4A01216E
:104360003D4807F003FF4FF0FF34E8E73C482C627C
:10437000E8616E6A03F05EFE03F0BCFA041EDEDB49
:1043800000F08EFB041EDADB7378012B01D1F37988
:104390003BB9344A012130486FF0150407F0E6FEBE
:1043A000CDE70026684685F8C830ADF802308DF8B4
:1043B00004608DF8006003F00FFB041EBFDB802754
:1043C00068468DF8007003F007FB041EB7DB264932
:1043D000304603F00BFE041EB1DB2349384603F0E0
:1043E00005FE041EABDB214CDFF8848044451AD364
:1043F000002003F041FC041EA1DBD5F8C43080206E
:1044000043F00103C5F8C43003F036FC041E96DB0C
:10441000D5F8C430002443F48033C5F8C4300123F8
:1044200085F8B8308BE7276A0026227FF3B29A42DC
:1044300001D82434DAE707EBC30257F8331001360A
:10444000107903F0D3FD0028EFD08CE72095008091
:10445000B4840080271A0360D4F902604A1A03600A
:10446000B93C02606F1A0360F5410260D885008094
:10447000FC85008030B5204B8BB003F1100505AAF8
:104480001868083353F8041C1446AB4203C4224690
:10449000F6D11B781022002101A823700AF0AFFE8C
:1044A0001222002115480AF0AAFE102101A803F0EB
:1044B00017FF00281DDD082801AB1049B8BF0820F0
:1044C00009381A18002012F8013F0AAC01300231F5
:1044D00004EB131403F00F03082803F1280314F866
:1044E000144C6B4401F8024C13F8143C01F8013CE5
:1044F000E9D102480BB030BDA91A0360B69C008018
:104500002DE9F04F894B87B093F800A000AFBAF1C6
:10451000000F04D086481C37BD46BDE8F08F844CA0
:1045200000264FF001193546B046FE6023783BB9AE
:104530000234804B9C42F3D101237C4A1370E9E79B
:104540006378052B1DD8DFE813F0AD000600EF00FF
:10455000AD001F005000402307F1100087F810A0A5
:104560007B8287F814A003F017FA40B1082307F103
:1045700010007B8203F010FA08B1A7F812A07B8A22
:10458000E37123781C44D1E7E378002BF9D1A378B9
:1045900013B3FB680133DBB2FB60F2E76B689C424C
:1045A0001CD02435644B9D42F8D36D4688B06A46D2
:1045B000624BC2E90534032342F8103F00234FF455
:1045C000C2515F48FEF7B4FEAD465D4801215D4A29
:1045D00007F0CCFD00209EE75B4DE3E7AB68002BC6
:1045E000D7D0F96820469847D3E7002D58D1574ACD
:1045F0000121534807F0BAFDE7E72B6AA07803EBE7
:10460000C2010B79984245D14FF0010BE0785FFA77
:104610008BF300F003003875207994F805C040EA68
:104620000C20788294F90200002826DA0BF11000A1
:104630004FF0010C0CFA00F010EA090F25D143F0FD
:104640008000387407F11000BA60C7E9003103F048
:10465000A3F93B68D7E90112B8B93A7C12F0800F90
:10466000A2700A714FF0010217BF103302FA0BF269
:10467000DBB29A4049EA020983E7012000FA0BF015
:1046800010EA090F01D11846DBE70BF1010BBBF172
:10469000100FBBD101322B7F9A42AED32C4AA7E731
:1046A0000022F8E7032E25D1FFF7E4FE8346A8B1E8
:1046B000FDF7D6FD034688B1102806D0B860254A1C
:1046C00002211F4807F052FDBB68102B594604F128
:1046D0000200A8BF10231A460AF069FD23786FF084
:1046E0000201E218091B04EB5303D14209D501363C
:1046F000F6B246E7002EF1D1B8F1000F08D1164A04
:1047000076E702F801AC13F8010902F8020DECE7B4
:10471000A4EB080388F80230C3F3072388F80330BA
:10472000FB6888F80430E2E7A0462AE7B59C0080E1
:1047300034850080D7850080FC850080BA1A03602C
:10474000CCF90260A01B0360D8850080DA1A0360F0
:104750001B1B0360381B0360831B0360084B002195
:104760001A4610B51C78844204D15C6814B102EB7F
:10477000811010BD013140330429F3D10020F8E746
:10478000EC9500802DE9FF4150F8283C044610F8D4
:104790002C6C10330AD1036950F8202C98073DD5B2
:1047A000D2B9590715D5002344F8283C54F8283CC1
:1047B00010330BD054F8148C54E907750AF0ABFA97
:1047C000002857D0214632480AF083FA04B0BDE8E9
:1047D000F08143F00403236103AB54F8241C3046FA
:1047E000FFF7B2FC034640B12A4A01212A4800964D
:1047F00007F0CFFC6FF01503D6E7039A54F8243C7A
:10480000134444F8243C54F8203C9B1A44F8203CC0
:1048100054F81C3C134444F81C3CC7E703AB54F861
:10482000241C304603F006FB03460028DCD1039D20
:1048300054F8243C2B4444F8243C54F8203C5B1BA3
:1048400044F8203C54F81C3C2B4444F81C3C002DFC
:10485000A9D0304603F0F4FBB5FBF0F303FB105591
:10486000002DA0D154F8203C002B9CD0304603F002
:1048700069FB9BE744F8180CA4F1100005F0F4FA6A
:10488000002DA3D0424639463046A8479EE700BFD8
:10489000D0900080CE1B0360DCF902604B1E012B20
:1048A00073B506460D4614D8FFF758FF044690B975
:1048B000012D0ED101AB01220DF10301304603F0B1
:1048C000B9FA019B002BF5D10C4A01210C4807F0E5
:1048D0004DFC02B070BD0AF01EFA04F12C0108B1C3
:1048E000012D05D1084602B0BDE87040FFF74ABF70
:1048F000044802B0BDE870400AF0EBB9EB1B03605E
:10490000DCF90260D09000802DE9F74F054616468D
:104910009846019107F059FE002871D1EFF31183F9
:104920001022009382F31288BFF36F8FDFF8D890C4
:10493000834600220023484605F0BAFAA0B9DFF802
:10494000CCA04FEA8B170AEB8B1BDBF8044014F169
:10495000100F20D12E4A2B4601212E4807F00FFCC4
:10496000484605F081FA0DE00BF1010B09F1400911
:10497000BBF1040FDDD16FF00B04274A012125485C
:1049800007F0F4FB009B83F31188BFF36F8F204681
:1049900003B0BDE8F08F0C99019BCBF814100D9972
:1049A000CBF810002846CBF818106FF00F010AF86A
:1049B0000750CBF83C80CBF80410CBE9023603F06B
:1049C0003FFB68B1284603F03BFBB6FBF0F101FB6F
:1049D00010662EB1DBF83C1041F00401CBF83C101E
:1049E00018F0020F07D007F12C010C4800245144A5
:1049F0000AF06FF9C6E7284603F0A4FA0446C1E7B7
:104A00006FF00F04C3E700BF08960080EC950080AC
:104A1000201C0360DCF90260051C0360D09000805C
:104A200010B5EFF31184102383F31288BFF36F8F57
:104A3000FFF794FE50B14368103307D16FF08B033A
:104A400000F12C01436004480AF043F984F3118813
:104A5000BFF36F8F10BD00BFD0900080F8B50E4C33
:104A600004251027EFF3118687F31288BFF36F8FA9
:104A70006368103307D16FF08B0304F12C010748F2
:104A800063600AF026F986F31188BFF36F8F013D4A
:104A900004F14004E6D1F8BDEC950080D090008090
:104AA00070B5094C0025094E314620460AF0F5F84C
:104AB00001220135A4F11000403411460AF0B1F88A
:104AC000042DF1D1002070BD18960080854702604A
:104AD00070B504460E4601791546184807F052FD98
:104AE00040B9A38816480221164A07F048FB6FF028
:104AF000120070BD94F900206378002A16DB202B89
:104B000004D0222B0ED06FF08500F2E72B681A68D4
:104B100040F8102C9A8820F80C2C9B7900F80A3C5D
:104B20000020E6E7638800F8093CF9E7212BEAD189
:104B30001038072328603360F2E700BFEC9600804E
:104B4000BCF90260561C03600169012381F84B30F7
:104B50000B6833B191F849301BB1083101480AF0B4
:104B6000B8B87047D09000800169012381F84A30BD
:104B70000B6833B191F848301BB1083101480AF095
:104B8000A8B87047D0900080012370B582F84830F3
:104B90000D46136814463BB192F84A3023B102F136
:104BA00008010D480AF095F8D4F850329A681B694C
:104BB0009A4205D17DB904F118014FF47A7204E0EC
:104BC00004F11801002DF8D0002200230248BDE8AE
:104BD000704005F0EBBA70BDD090008000210D4A06
:104BE0000346A0F84810106883F85C12C3F854021A
:104BF00090889279A3F8580203F14C0083F85A2266
:104C00004FF4007283F85B12A3F85E1283F860120F
:104C10000AF0F5BA08FA0260F0B5D0F84C3285B067
:104C200004465B681B6A1F7D384607F0CEFC0646CB
:104C300008BB94F84632F3B14FF4806203A9D4F86C
:104C4000380207F09EF90546A8B1C0F3080384F8BE
:104C5000306003B9451EA4F1180303992A4638466B
:104C60000193064B00930223FFF74EFE2946D4F82A
:104C7000380207F0A5F905B0F0BD00BF894B02600E
:104C800080B500AF88B06A46064BC2E90530032301
:104C900042F8103F00234FF4C4510348FEF748FB8D
:104CA000BD4680BD7D1C0360BCF9026010B50023C9
:104CB0000469C4F8683204F51A720B4BC4F8640234
:104CC000596869B9C3E9002204F10800074909F0ED
:104CD000E4FF04F1180006490AF011F8002010BDA5
:104CE0000A605A60F0E700BFEC960080F5C50260EC
:104CF000194C026030B54FF40033426885B0056945
:104D000042F2A1000B4CADF80C1001A9CDE9010352
:104D1000002385F85D32106A0A220079FFF714FA41
:104D200095F85D3223B9012009F0EEFD013CF7D181
:104D300005B030BDA186010073B5002304691025BC
:104D40008DF8071084F84830EFF3118685F3128848
:104D5000BFF36F8F01220DF10701D4F8500207F065
:104D6000F1F886F31188BFF36F8F01280FD009F097
:104D7000D2FF10B994F8613293B90C4D2B7833B946
:104D80000B4A02210B4807F0F1F901232B700A228C
:104D9000002304F11801084805F008FA02B070BDBC
:104DA00000210A2005F050FDCEE700BFC89C00801E
:104DB0009E1C0360BCF90260D0900080F8B50569C4
:104DC000164695F85E3213B195F85F323BB115483F
:104DD0003346154A022107F0D2F90020F8BD85F8C4
:104DE0004830EFF31187102383F31288BFF36F8FDE
:104DF000D5F8500207F0A6F8044687F31188BFF3F0
:104E00006F8FB04205D2094A331A0221054807F0D4
:104E1000B6F90022002305F11801054805F0C6F98E
:104E20002046DBE7BCF90260BD1C0360EF1C036099
:104E3000D090008073B50D1E064614462ADD2A4622
:104E400004F14C01D4F84C0207F07CF8854205D9F6
:104E5000184A2B1A0121184807F091F9012384F808
:104E6000493023683BB194F84B3023B104F1080179
:104E7000124809F02EFFD4F84C124B684A699A1A6E
:104E8000CB699B1AB3F5007F04D2012384F860320A
:104E900002B070BD94F85E32002BF9D0084B4FF48D
:104EA000007204F14C013046009301230194FFF796
:104EB0002BFDEDE7EF1C0360BCF90260D090008091
:104EC000354E02600346024A0221024807F057B9F4
:104ED000101D0360BCF9026010B501460446064887
:104EE00007F05DFB20B92046BDE81040FFF7EABFA0
:104EF000012300F8073C10BDEC96008073B5044612
:104F00000D4601462B4807F032FB28B9204602B077
:104F1000BDE87040FFF7B4BE0368691EA0F51974C0
:104F20005E68052920D8DFE801F0261F03212C3513
:104F30000321214A214807F019F994F85E1299B922
:104F40000123224684F85E32336A187BFFF772FF32
:104F500094F8482042B9336A1146187D184B0194E1
:104F600000930223FFF7D0FC02B070BD154A032165
:104F7000124807F0FBF8204602B0BDE87040FFF78A
:104F80002DBE114A03210D4807F0F0F8012384F8E3
:104F90005F32E9E70D4A0321084807F0E7F894F883
:104FA0005F32002BE0D00A4A0321044807F0DEF804
:104FB0000023ECE7EC960080361D0360BCF902602C
:104FC000894B0260481D03605C1D03606D1D03601A
:104FD0007C1D036037B5094D00244FF0FF334FF4BB
:104FE000806207492846009405F0A2F80549284642
:104FF00009F097FE204603B030BD00BFD09000807E
:1050000040A10080A31D03602DE9F047064600AFD4
:105010000C46002936D0E9468AB0A3686D46D1E92E
:10502000001221484FF0050AA846C5E90501C5E967
:10503000072348F810AF002342464FF421511B4884
:10504000FEF776F9CD466369AD46D4E903121848F8
:10505000C5F810A0C5E90501C5E9072300234246AC
:105060004FF421511148FEF763F9CD46E369114A27
:1050700001210E4807F083F8A3690F4A01210B486C
:1050800007F07DF8012E07D1EFF305830B4A103BA3
:105090003146064807F073F82146304604F05AFBC3
:1050A000BD46BDE8F08700BFAC1D0360A4F90260F7
:1050B000DB1D03600A1E0360191E0360471E0360A8
:1050C00030BFFFF7FDBF00BF2DE9F0410B4E054695
:1050D000DFF82C80324606EB0807CC1B0949204636
:1050E0000AF065F8A019083C424600210AF087F84A
:1050F00007F10800C5F88440BDE8F0810000000019
:105100000400000000FA0260074A936893F90E1049
:10511000002907DB5269934204D0044A536843F0E4
:1051200080535360704700BF749C008000ED00E026
:1051300070B5294C06460D462848294907F0C1FBA1
:10514000A36AD9043CD52548264907F0BAFB1720A5
:10515000A36A1A0504D52148234907F0B2FB182099
:105160001D4CA36A9B0512D51C48204907F0A9FBDA
:10517000A36BA26A100409D51D4A0121174806F045
:10518000FEFF1EB1A36A23F40043A3621920124C50
:10519000A36A590504D51148164907F092FB1A2055
:1051A000A36ADA050ED50D48134907F08AFB1B20C8
:1051B000094A936A43F47F43936200232B7070BDC6
:1051C0001620C5E7A36A9B04F2D504480B4907F0F3
:1051D00078FB1C20ECE700BF00ED00E0A4F90260C2
:1051E0005A1E0360701E0360811E0360941E0360DC
:1051F000AD1E0360C21E0360DD1E0360F51E03606A
:1052000010B5204C2049214807F05BFBA36A9901A7
:1052100036D51E481E4907F054FB1E20A36ADA014A
:1052200004D51A481B4907F04CFB1F20154CA36AF4
:105230001B0304D51548184907F043FB2120A36A36
:10524000590304D51148154907F03BFB22200D4CAA
:10525000A36A9A0304D50D48114907F032FB2320B5
:10526000A36ADB0304D509480E4907F02AFB242072
:10527000044A936A6FEA03436FEA1343936210BDD3
:105280001D20CBE700ED00E0241F0360A4F90260BD
:105290003C1F03604F1F0360691F0360871F03608B
:1052A000AC1F0360C61F03602DE9F843364D8046EE
:1052B000894636483649174607F003FBAB6ADE06D7
:1052C00027D511243349314807F0FBFAAB6A1D0793
:1052D00004D5122430492D4807F0F3FA2A4DAB6A61
:1052E000980718D52D49294807F0EBFA6E6BAB6A81
:1052F000190646D52A4A33460121244806F03FFFC5
:10530000B9F1000F03D0AB6A23F08003AB62132422
:1053100003E01024DAE76FF015061B4DAB6ADA07DD
:1053200004D514241F49194807F0CBFAAB6A9B0631
:1053300004D515241C49154807F0C3FA124B9A6A84
:10534000D50602D49A6A90070AD55B68190507D575
:105350004146304600F0D6FA10B180F309880224A5
:10536000094B9A6A920603D55A6A22F400525A628D
:105370009A6A204642F0FF029A6200233B70BDE821
:10538000F8836FF01506C2E700ED00E0A4F90260B3
:10539000F11F036007200360811E03603A20036051
:1053A0005220036068200360F51E03602DE9F04180
:1053B000664B8AB004460026D3F8048000AFC8F3D9
:1053C000080586F31188BFF36F8F02F07F43B3F1B6
:1053D0007F4F07D102F00C03082B12D15C495D48C6
:1053E00007F06FFA002634460023FB71EB1E092BF1
:1053F00000F28B80DFE803F00A81847E8989898945
:10540000898710074CBF0C460126EDE752495148E9
:1054100007F057FA4D4D0023FB71EB6A9A0705D54B
:105420004E494C4807F04DFA002333E0EB6A002B5D
:1054300001DA4B49F5E7EB6A5B00F5D54949454888
:1054400007F03FFA6B69A26943F480736B61BFF3A5
:105450004F8FBFF36F8F6B6932F8022C23F4807388
:105460006B61BFF34F8FBFF36F8F4DF602739A429C
:1054700009D0AB6ADBB283B3FA1D01212046FFF7E6
:1054800013FF034606E02368374A0121314806F03E
:1054900076FE2368FA79E2B907F1080504F1200CD9
:1054A0002068083454F8041C2A46644503C2154693
:1054B000F6D17A6A002E44D0C2F3080121B96FEA0E
:1054C00052226FEA42227A6207F108011846FFF77A
:1054D0009BFD2837BD46BDE8F081AB6A13F47F4FD2
:1054E00004D0F91D0120FFF723FECAE7AB6AB3F52C
:1054F000803F99D3FFF784FEC3E7FA1D0021BDE783
:10550000F91D0020EFE719498BE718F4F87F184AD6
:10551000E8468AB0174B18BF13466A461649103D35
:10552000C2E905134FF40073D5611384134B42F89D
:10553000103F00234FF411510648FDF7F9FEC54610
:1055400072E722F4FF7222F00102BCE700ED00E0F6
:10555000B5200360A4F90260E0200360F720036037
:105560001821036026210360452103606121036047
:105570009C200360872003608521036004000001F4
:10558000024A536943F010035361704700ED00E095
:10559000EFF30880EFF3098101B57246FFF706FFCC
:1055A00001BD00BF002080F31488BFF36F8FFDF7AB
:1055B0001DFC00200D490860BFF34F8F0C4880F39D
:1055C000088800F03DF8102080F3118809484FF456
:1055D0000461401880F30988EFF314800221084326
:1055E00080F31488BFF36F8F00F058F994ED00E05A
:1055F00080BF0080C0AD0080BFF34F8F0549064BD0
:10560000CA6802F4E0621343CB60BFF34F8F00BF60
:10561000FDE700BF00ED00E00400FA0507490023A4
:10562000D1F890201846C2F30722934200DB70475E
:10563000C1F898300133C1F8A000F6E700ED00E0B2
:1056400070B572B6002484F31388FFF7E7FF3E4B72
:105650004FF0FF32C3F88020C3F88420C3F88820BD
:10566000C3F88C20C3F89020C3F89420C3F8982086
:10567000C3F89C20C3F88021C3F88421C3F8882193
:10568000C3F88C21C3F89021C3F89421C3F8982162
:10569000C3F89C212D4A536913F4803339D0C2F8E2
:1056A0008440BFF34F8F536923F480335361BFF3BA
:1056B0004F8FD2F8803043F6E074C3F3C900C3F3D0
:1056C0004E335B0103EA0406014646EA817501395F
:1056D000C2F87452F9D2203B13F1200FF2D1BFF37C
:1056E0004F8FBFF36F8FBFF34F8FBFF36F8F174B8A
:1056F0005A6922F400325A610022C3F85022BFF3E3
:105700004F8FBFF36F8F62B6BFF34F8FBFF36F8FB3
:1057100070BDC2F88430BFF34F8FD2F8803043F6AB
:10572000E074C3F3C900C3F34E335B0103EA04061C
:10573000014646EA81750139C2F86052F9D2203B30
:1057400013F1200FF2D1CAE700E100E000ED00E024
:10575000084B9B6883420BD1EFF3058343B1064BA3
:105760005A6842F080525A605A6A22F400425A62E1
:1057700009F0E1BB749C008000ED00E00A4A6FF084
:105780000A019368C3F88C100849C3F888004B6875
:1057900043F080534B60002383F31188BFF36F8F76
:1057A0009368D3F88C007047749C008000ED00E093
:1057B00010B50446EFF31183102383F31288BFF36F
:1057C0006F8F0C4B4FF00062586998600A4B5A601B
:1057D0000A4BD0F884201A600022D0F88830C0F834
:1057E000882083F31188BFF36F8F00F07BF9204688
:1057F00010BD00BF749C008000ED00E0F4960080B6
:105800000B498A684FF030001044EFF3098C80E8B0
:10581000F01F74467046FFF7CBFFA64604498A681E
:1058200002F1300090E8F01F8CF309887047000007
:10583000749C00801EF0040F0CBFEFF30880EFF3A0
:105840000980816911F8021C0229FFD001B507F017
:105850002DF801BD00B2002807DB0123410900F04B
:105860001F00024A834042F82130704700E100E007
:1058700000B2013100284FEA0111C9B206DB00F184
:10588000604000F5614080F80013704700F00F00A1
:10589000014B1954704700BF14ED00E00B4A08B5E6
:1058A00022F07F020A4B9A60BFF34F8FBFF36F8FD6
:1058B000D3F8882022F47002C3F8882004F036F868
:1058C00005F0B4F800F05EF804F082F8000402601D
:1058D00000ED00E042F8203C203A009B084953606C
:1058E000019B21F001019360029B9161D3604FF015
:1058F0008073D36100230265C0F88830704700BF11
:105900005D2A0260094A0346906870B113F1160FD0
:10591000406F05D0A0F140029A4205D8834203D2DD
:10592000814228BF0020704700207047749C00808F
:1059300015460D4A0E4608B50C4B9060D0F88420F1
:105940001A6000F0CFF82C4686F309884FF000006B
:10595000074B984720464FF000014FF000024FF0F0
:105960000003044C204700BF749C0080F496008024
:10597000D3C802605D2A0260014B10221A61704791
:1059800000ED00E0002304481021C2180133A02BD1
:1059900082F80013F9D1704700E100E008B5EFF399
:1059A0000583064A103B02EBC30152F833004968F5
:1059B0008847BDE80840FFF7A7BB00BF34F402608A
:1059C000154A70B5536913F4803323D1C2F884307B
:1059D000BFF34F8FD2F8803043F6E074C3F3C900B1
:1059E000C3F34E335B0103EA0406014646EA8175C0
:1059F0000139C2F86052F9D2203B13F1200FF2D1E5
:105A0000BFF34F8F536943F480335361BFF34F8F1C
:105A1000BFF36F8F70BD00BF00ED00E0134A00239D
:105A200070B5C2F88430BFF34F8F536923F48033CD
:105A30005361BFF34F8FD2F8803043F6E074C3F365
:105A4000C900C3F34E335B0103EA0406014646EA8C
:105A500081750139C2F87452F9D2203B13F1200F3D
:105A6000F2D1BFF34F8FBFF36F8F70BD00ED00E039
:105A70000B4B5A6912F4003211D1BFF34F8FBFF3B1
:105A80006F8FC3F85022BFF34F8FBFF36F8F5A69E8
:105A900042F400325A61BFF34F8FBFF36F8F7047EC
:105AA00000ED00E0BFF34F8FBFF36F8F064B5A69D5
:105AB00022F400325A610022C3F85022BFF34F8F04
:105AC000BFF36F8F704700BF00ED00E0024B022173
:105AD000024A034800F08AB80000008200000080FB
:105AE00050FB0260426F4021044B403A18461A6056
:105AF000034AC3E90112012100F082B8F896008040
:105B000000000B1508B503461048D0F89020C2F3EA
:105B10000722013A934207D90D4801210D4A06F0A8
:105B20002EFB6FF0150008BDC0F898300A6822F00F
:105B30001F021A4342F01002C0F89C208A6842F00B
:105B40000102C0F8A0201846EDE700BF00ED00E01C
:105B50008CF902609C210360F0B50E4685B01F46AB
:105B600004460025B5420DDA606810B397B1431EB4
:105B700018420AD0104A2B460121104806F0FFFABD
:105B80006FF01502104605B0F0BD1F28F2D921684C
:105B90000B42EFD1236801A9019306F0AEFEA36882
:105BA0000343D0B20393FFF7ADFF10F1160FE7D018
:105BB000421C01350C34D5E7C22103608CF9026028
:105BC000044B0522C3F89420BFF34F8FBFF36F8FB0
:105BD000704700BF00ED00E0BFF35F8F024B002273
:105BE000C3F89420704700BF00ED00E010B5034CEF
:105BF00001232278FFF7B0FF207010BDC99C008000
:105C00000B4A08B500231278FFF7A6FF10F1160F14
:105C100007D0084A0021D2F89030C3F307239842F6
:105C200000DB08BDC2F898000130C2F8A010F2E70E
:105C3000C99C008000ED00E0584859492DE9F04327
:105C4000D0F8903085B00D68C3F307239D4200F271
:105C5000A180FFF7C1FF49680022954201F10C01C4
:105C60001AD1504C6846504F2570FDF71FFE002595
:105C70000646DFF83881DFF83891AE421FD123782D
:105C800000204649D1F89020C2F3072293427BDBE3
:105C90000020FFF795FF4CE0C0F8982051F80C3C2D
:105CA00023F01F031343013243F01003C0F89C306C
:105CB00051F8043C43F00103C0F8A030CDE7009850
:105CC0004FEA051C00EB0511CB683B40B3F5000F14
:105CD00044D00AD8B3F5001F2ED0B3F5800F34D0CE
:105CE000B3F5801F10D00135C7E7B3F1807F3ED0F8
:105CF000B3F1007FF7D150F80C30886806F0FDFD55
:105D00004A6840F4802009E050F80C30886806F0BA
:105D1000F4FD40F088504A6840F43020039001A917
:105D20002078CDE90123FFF7EDFE002828DA6FF097
:105D3000150005B0BDE8F08350F80C30886806F017
:105D4000DCFD4A6840EA0800E8E750F80C30886853
:105D500006F0D3FD4A6840EA0900DFE750F80C304E
:105D6000886806F0CAFD4A6840F08270D6E750F8AD
:105D70000C30886806F0C1FD4A6840F08870CDE7B5
:105D8000237801332370AEE7C1F898300133C1F8AE
:105D9000A00077E74FF0FF30CBE700BF00ED00E059
:105DA00018FA0260C99C00800000F0FF0000081192
:105DB0000000020208B5024B1B689847002008BD8E
:105DC00004970080034B044A1860937843F0020361
:105DD00093707047049700804C830080F0B587B0C3
:105DE00007460E4614460021102268461D4609F05B
:105DF00006FA02232A4621468DF802306846044BF3
:105E0000CDE90476019305F08FF807B0F0BD00BF2F
:105E10001BC902600549064821F0070108B5C1F118
:105E2000024205F04BFD002008BD00BFF771018064
:105E30000897008038B5064C064DAC4201D30020CF
:105E400038BD54F8043B002BF7D09847F5E700BF66
:105E5000F4F9026000FA0260084B0246186808B1C3
:105E6000036800B9704741899142FBD01BB11968A2
:105E700018460B46F5E71946FAE700BF149700806D
:105E80000A4B1B681BB11A681BB9184670471A46A3
:105E9000FAE75989814206D01AB1116813460A46B9
:105EA000F2E71146FAE7D868704700BF1497008000
:105EB00000230360044B5A6812B9C3E9000070471D
:105EC00010605860704700BF149700802DE9F04FB4
:105ED00000238BB004460D4601F10C0ACDE90633D0
:105EE0002B8A3BB999462168284606F0C1FE2168F5
:105EF000002080E0072B40F20381EA6806AB1068BF
:105F0000516803C3BDF81A30082150465BBA1FFA26
:105F100083FBADF81A30BDF81C305BBA9AB2ADF80D
:105F20001C30059206F046FF2B8A5B45C0F0EE80E0
:105F30009DF8188018F0050940F0ED80216828468A
:105F400006F082FE0646002800F0E8806068012224
:105F5000042140F8045B2B8A0092CDE90199EA689C
:105F600008F0F1FB3146A06806F011FD9DF81830ED
:105F7000A768C3F3C103C7F84C90012B00F2C3809C
:105F80000598FFF769FF002800F093809DF81F1027
:105F900006F0CEFC002800F08C809DF8183013F03D
:105FA00007032ED0022B47D04FF003093146A068DB
:105FB00006F0EDFCD4F80880022108F10407384609
:105FC00008F07EFC00287AD002225649384608F0B4
:105FD0005CFC002873D04946384608F03AFC0221A0
:105FE00000286ED1384608F073FC2168284606F078
:105FF0003FFE2168304606F03BFE48460BB0BDE848
:10600000F08FD0F80090A068B9F1000F51D00F21A7
:10601000043008F055FC00284ED02046C847814681
:10602000A0680F21043008F053FC40B9B9F1000F0B
:1060300008BF4FF00709B9E7D0F80490E3E7B9F1DA
:10604000000FB3D1B7F84E90B9F1000F12D018F08D
:10605000180F0FD1B7F84C00FFF712FF034610B925
:106060004FF00109A2E7484698478146B0B1002E9B
:106070004ED09BE7D7E9008708A906A8D8F80C30CE
:10608000FF1AA7F1080206F063FCA8F81070A368D5
:106090001B68DA680B4603CB1060516023683046FA
:1060A0001B6A9847814698BB5946504606F082FEC7
:1060B00016E74FF0080979E74FF0070976E7022164
:1060C00090E7384608F004FC00288ED008A906A8FE
