:0200000460009A
:10000000464346420004015600000000010303007D
:1000100000000000000000000000000000000000E0
:1000200000000000000000000000000000000000D0
:1000300000000000000000000000000000000000C0
:100040001000000001040700000000000000000094
:100050000000800000000000000000000000000020
:100060000000000000000000000000000000000090
:100070000000000000000000000000000000000080
:10008000EB04180A063204260000000000000000FD
:10009000050404240000000000000000000000002F
:1000A0000000000000000000000000000000000050
:1000B0000604000000000000000000000000000036
:1000C0000000000000000000000000000000000030
:1000D00020041808000000000000000000000000DC
:1000E0000000000000000000000000000000000010
:1000F0000000000000000000000000000000000000
:10010000D8041808000000000000000000000000F3
:100110000204180804200000000000000000000095
:1001200000000000000000000000000000000000CF
:10013000600400000000000000000000000000005B
:1001400000000000000000000000000000000000AF
:10015000000000000000000000000000000000009F
:10016000000000000000000000000000000000008F
:10017000000000000000000000000000000000007F
:10018000000000000000000000000000000000006F
:10019000000000000000000000000000000000005F
:1001A000000000000000000000000000000000004F
:1001B000000000000000000000000000000000003F
:1001C000000100000010000001000000000000001D
:1001D000000001000000000000000000000000001E
:1001E000000000000000000000000000000000000F
:1001F00000000000000000000000000000000000FF
:1002000000000000000000000000000000000000EE
:1002100000000000000000000000000000000000DE
:10100000D10020410020006000000000301000608E
:1010100020100060001000600000000000000000D0
:10102000000000604AD0000000000000FFFFFFFF4A
:10103000D2041041CC038C04400FC068FFFFFFFFB7
:10104000400FC06CFFFFFFFF400FC070FFFFFFFFAE
:10105000400FC074FFFFFFFF400FC078FFFFFFFF8E
:10106000400FC07CFFFFFFFF400FC080FFFFFFFF6E
:10107000400D803000002001400D8100101D101B2C
:10108000400FC01400010D40401F801400000000FC
:10109000401F801800000000401F801C000000005E
:1010A000401F802000000000401F8024000000003E
:1010B000401F802800000000401F802C000000001E
:1010C000401F803000000000401F803400000000FE
:1010D000401F803800000000401F803C00000000DE
:1010E000401F804000000000401F804400000000BE
:1010F000401F804800000000401F804C000000009E
:10110000401F805000000000401F8054000000007D
:10111000401F805800000000401F805C000000005D
:10112000401F806000000000401F8064000000003D
:10113000401F806800000000401F806C000000001D
:10114000401F807000000000401F807400000000FD
:10115000401F807800000000401F807C00000000DD
:10116000401F808000000000401F808400000000BD
:10117000401F808800000000401F808C000000009D
:10118000401F809000000000401F8094000000007D
:10119000401F809800000000401F809C000000005D
:1011A000401F80A000000000401F80A4000000003D
:1011B000401F80A800000000401F80AC000000001D
:1011C000401F80B000000010401F8204000110F991
:1011D000401F8208000110F9401F820C000110F925
:1011E000401F8210000110F9401F8214000110F905
:1011F000401F8218000110F9401F821C000110F9E5
:10120000401F8220000110F9401F8224000110F9C4
:10121000401F8228000110F9401F822C000110F9A4
:10122000401F8230000110F9401F8234000110F984
:10123000401F8238000110F9401F823C000110F964
:10124000401F8240000110F9401F8244000110F944
:10125000401F8248000110F9401F824C000110F924
:10126000401F8250000110F9401F8254000110F904
:10127000401F8258000110F9401F825C000110F9E4
:10128000401F8260000110F9401F8264000110F9C4
:10129000401F8268000110F9401F826C000110F9A4
:1012A000401F8270000110F9401F8274000110F984
:1012B000401F8278000110F9401F827C000110F964
:1012C000401F8280000110F9401F8284000110F944
:1012D000401F8288000110F9401F828C000110F924
:1012E000401F8290000110F9401F8294000110F904
:1012F000401F8298000110F9401F829C000110F9E4
:10130000401F82A0000110F9402F000010000004CF
:10131000402F000800000081402F000C00000081D9
:10132000402F00108000001B402F00148200001B83
:10133000402F00188400001B402F001C8600001B5B
:10134000402F002090000021402F0024A000001911
:10135000402F0028A8000017402F002CA900001BD8
:10136000402F003000000021402F0004000079A829
:10137000402F004000000F31402F0044006529221B
:10138000402F004800010920402F004C50210A083E
:10139000402F008000000021402F008400888888B2
:1013A000402F009400000002402F00980000000031
:1013B000402F009080000000402F009CA55A000F95
:1013C000CF000C1C402F003C00000001CC00140496
:1013D000402F009080000000402F009CA55A000C78
:1013E000CF000C1C402F003C00000001CC00140476
:1013F000402F009080000000402F009CA55A000C58
:10140000CF000C1C402F003C00000001CC001C044D
:10141000402F00A000000033402F0090800000000B
:10142000402F009CA55A000ACF000C1C402F003C06
:1014300000000001CC000C04402F004C50210A0990
:10144000000000000000000000000000000000009C
:10145000000000000000000000000000000000008C
:10146000000000000000000000000000000000007C
:10147000000000000000000000000000000000006C
:10200000009400808D570060E38A0060795700607B
:102010007957006079570060795700600000000030
:10202000000000000000000000000000B158006047
:1020300079570060000000007D580060E95F006093
:10204000195A0060195A0060195A0060195A006044
:10205000195A0060195A0060195A0060195A006034
:10206000195A0060195A0060195A0060195A006024
:10207000195A0060195A0060195A0060195A006014
:1022C0002DE9F04F0D46164604690A4645EA060711
:1022D00085B094F834102046C7F30B0701F09CFA40
:1022E0008146002F40F08B80204601F021FB30B169
:1022F000EFF31187102383F31288BFF36F8F6DBB49
:10230000E369B6EB832F52D1204600F001FC009523
:1023100094F83430694620468DF805508DF8043025
:102320004FF48473CDE90255ADF8063001F085FB1A
:10233000204600F069FB204601F0FDFA204601F03E
:10234000F7FA18B187F31188BFF36F8F484631460B
:1023500001F006FC002005B0BDE8F08FABB233B34E
:1023600026F47F634FF0000A4FF4827B23F00F03C3
:1023700003EB0508A845E1D0204600F0C9FB009515
:1023800094F83430694620468DF805A08DF8043065
:1023900005F58055ADF806B0CDE902AA01F04DFB78
:1023A000204600F031FB204601F0C5FAE2E71FFAB3
:1023B00086FABAF1000FD3D1330C40F2051B1B048F
:1023C00003EB05084545B9D0204600F0A1FB009578
:1023D00094F83430694620468DF805A08DF8043015
:1023E00005F58035ADF806B0CDE902AA01F025FB70
:1023F000204600F009FB204601F09DFAE2E76FF06D
:102400001500A8E700694030704737B543680546B6
:10241000046914221968204601F09EFB204601F051
:10242000A7FBE8B1204600F027F820B1204601F0D4
:102430007FFA88B1FEE7636904F1140194F834204F
:10244000204601F026FB70B9204601F074FA01A97C
:10245000286900F0B7FA08B16FF0040003B030BD8E
:102460006FF01200FAE76FF08500F7E70369383381
:102470000B600123136070472DE9F04FE7B004466D
:10248000C022002136A8DFF8DCB201F05DFB1C227F
:10249000002110A801F058FBB34B2046CDF83CB00A
:1024A000119301238DF8543001F042FA00287DD0B9
:1024B000EFF311830293102383F31288BFF36F8F1E
:1024C000204601F02FFBA74B0FA994F8342020469B
:1024D00001F0DFFA061EC0F22281A022A34936A82D
:1024E00001F03AFB94F8343036AA0FA90093204645
:1024F000302301F02BFA061EC0F211811FAD2046D9
:10250000294600F05FFA00281CDB2A8842F2C253F9
:102510009A4217D1964B0222964E36A9964F2046E4
:10252000CDE9366342F20423CDE93A73934B4693E7
:10253000BB334A93012384F83530914B529300F01A
:10254000ABF910B300234FF0020940F209170DF167
:102550001C082B604FF0100A94F8343029462046AE
:1025600085F805902B71EF80C5F80880C5F80CA0A0
:1025700001F063FA061EC0F2D280D8F80020814B29
:102580009A4215D0012384F8353094F8343036AAB5
:1025900004F1140120460093282301F0D7F9061E08
:1025A00080F2BD80304667B0BDE8F08F02908AE7C8
:1025B00098F80B20172A00F2618198F80D309200EC
:1025C00098F80E1020461B028DF86190ADF86270ED
:1025D00043EA014398F80C1019950B4317A91A9276
:1025E000179394F834308DF8603001F026FA061E07
:1025F000C0F295802B68294605AA09A8C3F3414378
:1026000006AF022B14BF4FF018084FF0200801F05E
:102610004FF8014600286FD15246386003900BA84E
:102620009DF8146001F090FA012394F834A01C2264
:10263000039918A88DF833308DF830A00D9701F06C
:1026400083FA494A01237006CDF85CB019928DF8DF
:1026500074304BD4B1064FD416F0100B26D04A4B31
:1026600036AA17A920465E9303F17C43CDF800A05B
:10267000043B6293302301F069F900283CDB0A2314
:102680000BA92046CDF838908DF832308DF8319076
:1026900001F0D3F900282FDB3B6843F001033B60D6
:1026A0000B238DF832308DF831901AE016F00209C4
:1026B00044D0204600F02CFA40F2B74336AA17A9BE
:1026C0005E93204694F834300093302301F03EF9B5
:1026D000002811DB0A23CDF838B08DF831B08DF821
:1026E00032300BA9204601F0A8F928B9274B4FF04A
:1026F00020084693B8334A9306AB0722294609A817
:1027000001F034F8002840F384809DF81930022B42
:102710003ED0012B79D0002B79D06FF08506204672
:1027200001F009F9204601F003F900283FF43AAF1F
:10273000029B83F31188BFF36F8F33E7F207DBD57A
:1027400040F2B74336AA17A920465E933023CDF84E
:1027500000A001F0FBF80028CEDB0A23CDF838906A
:102760009FE700BF80F0FA02FFFF7F0048AE0060E5
:102770000A320426EC04200A3E04200A2104200820
:102780000504012453464450B504012420042008C4
:1027900007233A789B02294609A842EA08424FEAF1
:1027A000084642F0206242F480623692BA7843EAE8
:1027B00002430BAA43F0485343F40073379342F2A9
:1027C0000463389300F04CFF70B99DF82C2036A9B3
:1027D0002046C2F3420200F05FF828B9294B334388
:1027E0003A9342F204233B9317AA294609A800F022
:1027F0000DFF00283DDB9DF85E309B0739D5002397
:1028000084F83530204B5293BFE60623C1E70C23F2
:10281000BFE706AB0622294609A800F0A7FF00285B
:10282000E2DD9DF81930042B21D0022B3FF675AF65
:10283000164AD35C9DF818209B0242EA084242F0F7
:10284000106242F4806236929DF81A2043EA0243F5
:1028500043F0445343F48073379342F20253389366
:102860000B4B43EA08433A9342F20413BBE70723B6
:10287000E0E7012384F83530064BC4E76FF06806C3
:102880004DE700BF320400087004012445CD00600C
:10289000A2040008050401242DE9F041002690B0AF
:1028A00014461022054688460DEB02003146039679
:1028B00001F04AF995F8343001271C2231468DF891
:1028C000143003AB09A88DF81770069301F03CF99A
:1028D0002C4B8DF8387008932B4B0A93062C4ED84E
:1028E000DFE804F034480438483E45000124274A14
:1028F000274B40262746C8F8A02008A9C8F8B030C2
:10290000424695F8343028460093302301F01EF8F3
:1029100000281CDB0A2304A9284607978DF81630E7
:1029200002238DF8153001F088F800280FDB039B97
:1029300004A928460794334303930B238DF81630DC
:1029400003238DF8153001F078F800E0002010B076
:10295000BDE8F0810F4A104B012480262746CAE7C4
:102960000E4A02240A4B01274FF40076C3E70B4AB4
:102970000B4BF1E70224054A054B2746F4E76FF0BD
:102980008500E4E780F0FA02FFFF7F0005040124E0
:10299000010401203F0401243E04012035040124E8
:1029A0003104012038B500691D4614460A4690F8E6
:1029B000341000F031FF2A460146204601F0CCF8E1
:1029C000002038BDF0B5002387B003270D4601AEC7
:1029D00002A905970496CDE9013390F834308DF8BB
:1029E0000C3002238DF80D304FF48373ADF80E30A8
:1029F00001F023F8041E04DB3A463146284601F074
:102A0000ABF8204607B0F0BDF0B5002587B004460E
:102A1000022640F20717019594F8343002A92046A7
:102A200002958DF80C3001AB8DF80D6004930123F5
:102A3000ADF80E70059301F000F828B994F8352030
:102A4000019B1AB1DA07E7D407B0F0BD1B06E3D546
:102A5000FAE700002DE9F04F046987B00E461746EB
:102A600020460A4694F83410984600F0D5FE0090AF
:102A7000204600F05DFF054630B1EFF311851023CD
:102A800083F31288BFF36F8F43464FF0030A40F27F
:102A9000011B29E0F2B239461C48C2F5807201934D
:102AA0009A4228BF1A46914601F056F8204600F097
:102AB0002FF894F83410154B20468DF80C1002A90D
:102AC00002964F448DF80DA04E44ADF80EB0CDE9FE
:102AD000043900F0B2FF2046FFF796FF204600F0D1
:102AE0002AFF019BA3EB0903002BD3D1204600F062
:102AF0001FFF18B185F31188BFF36F8F009841460F
:102B000001F02EF8002007B0BDE8F08F1B610080B7
:102B10001FB590F83420002369468DF8042040F258
:102B2000031200938DF80530ADF80620CDE902338D
:102B300000F083FF05B05DF804FB0000B0F5706F96
:102B400010B50C464CD1022001F002F8264B621E53
:102B5000DB69C3F3C25303FB00031344234AB3FBF3
:102B6000F4F3013BDBB2072B28BF0723D2F8E010B8
:102B70008807FBD5D2F8E010C907F7D5116841F0F6
:102B800002011160184A02F1800151E8001F21F48E
:102B9000406102F1800444E800100028F3D1D169BB
:102BA00081EAC35303F060734B40D36102F18003A9
:102BB00053E8003F43F4406302F1800040E80031F5
:102BC0000029F3D1094B1A6822F002021A601A6830
:102BD00042F001021A60186810F00100FBD110BD2C
:102BE0006FF08500FBE700BF00C00F4000802A4067
:102BF00008B5044A044B91681B6804489847BFF322
:102C00004F8F08BDC4470080C047008000402A4065
:102C100040F60A020A4010B5044612D00B050AD449
:102C20000B070BD411F0020F41F65B330CBF0020F1
:102C30001846626110BD41F65930FAE741F65A3044
:102C4000F7E71046F6E700F00DBA000008B5044AB1
:102C5000044B11681B6804489847BFF34F8F08BDA9
:102C6000C4470080C047008000802A400246D0F858
:102C7000E00010F0020003D0D2F8E00000F0010004
:102C8000704700F134010246002302F8013B8A42FA
:102C9000FBD14FF4807240F6FF01038042804FF673
:102CA000FF728380837141810821C38120230281C7
:102CB000017300F12E010274428200F116020375C5
:102CC000002302F8013B9142FBD10F210122038333
:102CD000C17541774FF48071827680F82020C383DC
:102CE00080F82620818480F82C204185C3850386C6
:102CF00080F8323070470000074B984207D040B14F
:102D0000A3F58043984214BF03200220704700209F
:102D100070470120704700BF00802A40F8B5024686
:102D2000FFF7EAFF554B032533F9103054481C0ACE
:102D300003F01F0300EB84009D4050E8003F2B434D
:102D400040E80034002CF8D1136810464D4F23F0B2
:102D50000203136000F086F98B7AC8781B0443EAFB
:102D600000330878000100F030000343087C43EA98
:102D70000063487843EA8033087943EAC0238878BF
:102D800043EA4033887B43EAC013C87B43EA80139D
:102D900043F00203136008894B8A43EA00435360FF
:102DA000394B9568087D2B4043EA0063487943EA34
:102DB000C043887943EAC03391F82E0043EAC02328
:102DC0009360D36891F82F0023F0780343EA8013CF
:102DD00091F8300043EA401391F8310043EA0013C0
:102DE00091F8320043EAC0030846D36002EB840640
:102DF000857E01340630336A042C03EA070343EA74
:102E0000C573057C4FEA056505F0407543EA050387
:102E1000457C4FEA054505F4702543EA0503458ADC
:102E2000C5F3C70543EA05033362DFD1D2F8B830F2
:102E300023F03C03C2F8B8300B7BD2F8B800DB08B3
:102E4000013B9B0003F03C030343C2F8B830D2F8C7
:102E5000BC3023F03C03C2F8BC30CB7AD2F8BC00C3
:102E6000DB08013B9B0003F03C030343C2F8BC308A
:102E70000023136653669366D366F8BD4AC70060A5
:102E800068C00F4000FFF07CFF77F7002DE9F047A6
:102E9000D0F8B85004460E469246C5F383054FF06D
:102EA00020090135EF006D0014BFB8464FF004084B
:102EB000BAF1000F35D0574510D9D4F8F030DBB255
:102EC000BAEBC30F0DD961692046FFF7A1FE0028B8
:102ED000F3D00BE02046FFF79BFE38B961698B0603
:102EE000F8D561692046FFF793FE08B1BDE8F08789
:102EF000574518D94FEA9A03834223D1BAEB830A84
:102F00004FEA83020BD04033324454F823000023AD
:102F1000D90020FA01F1D15401339A45F8D1202388
:102F200063610020E2E700F1400354F8233046F8E3
:102F3000203001308542F6D84644AAEB070AC4F88F
:102F40001490B5E700F1400254F8222046F8202002
:102F50000130D1E7F8B50D46044611465608204623
:102F6000FFF784FE0028FAD0AB6804EB81003B4FEA
:102F700003666B7CEA8903F01F0343EA02432A7D60
:102F800043EA82232A7BD20392B213432A7C520162
:102F900002F478721343EA7CD20202F4F042134343
:102FA0002F4A0367D0F88030B5F81AC01A406B7EFC
:102FB00007EA0C471B0703F0E0433B431343AA7D9A
:102FC00042B16F7D013A3F02520307F4706792B23B
:102FD0003A4313432A7E3AB1013AEF7D520107F09A
:102FE0000F07D2B23A431343C0F880300A46204656
:102FF000294600F0F1F9236843F0020323602B7F98
:10300000EBB1D4F8943023F00103C4F89430D4F831
:103010009430CEB923F00403C4F89430D4F894303B
:103020002A7F43EA8203C4F89430236823F0020322
:1030300023602046FFF71AFE0028FAD0F8BDD4F826
:10304000943043F00103E0E723F00803C4F8943020
:10305000D4F894302A7F43EAC203E4E70000FF0F6C
:1030600010100080036843F0010303600368DB076E
:10307000FCD47047036923F4066323F00B03036158
:1030800000230B60704710B50B79044600EB8303F7
:10309000D3F8802042F00042C3F880201F23436110
:1030A0000B68C0F8A030D0F8BC3043F00103C0F882
:1030B000BC30D0F8B83043F00103C0F8B8304B79D9
:1030C0008A79013B1204022BCB7902F4702203F1BE
:1030D000FF3394BF888900201B0603F0E06313438D
:1030E0000343C4F8A430D4F8B03043F00103C4F86B
:1030F000B0304B7903F0FD02012A0ED12046D1E910
:10310000021200F0E1F96369DB07FCD578B9616967
:103110002046BDE81040FFF77BBD022B05D12046BD
:10312000D1E90212FFF7B2FEEDE70020EBE710BD98
:10313000F8B50C461E461746FFF7DEFD1822054679
:103140000021204600F000FD0B4B0C4A43F82540BF
:103150000B4B1A600B4B33F91530002BC4E9047686
:1031600008DB0122590903F01F0302FA03F3064AA0
:1031700042F82130F8BD00BFC4470080E10E0000D6
:10318000C047008050C7006000E100E00B682BB131
:103190000020D1E902135B1A1360704706207047C4
:1031A0002DE9F0414669054603690C461E4273D07D
:1031B0003146FFF72DFD024698B123698BB12B698B
:1031C00023F4066323F00B032B610023266923609D
:1031D000002E61D0636921462846B446BDE8F0411F
:1031E0006047B10621D52368022B1ED1D5F8B8302F
:1031F000A268C3F383030133B2EBC30F4FEAC300EA
:1032000060D35B00002202F140076168013255F88B
:10321000277093420F60616801F104016160F2D18F
:10322000A3681B1AA36020236B61F2070FD501234B
:1032300000226B612B6923F4066323F00B032B61DF
:10324000276922601FB1636921462846B847730683
:1032500022D52368012B1FD1A268EAB1D5F8BC3072
:10326000C3F383030133B2EBC30F4FEAC3005FD351
:103270005B00002261680E6802F16001013245F8CE
:1032800021606168934201F104016160F2D1A36899
:103290001B1AA36040236B61BDE8F08103F140017C
:1032A0006268013355F8211011606268043262606F
:1032B000A268B3EB920FF1D3A2EB8302A2601AB91A
:1032C0000023AFE70023F3E7403355F82300002342
:1032D000A2689A42F4D961684A1C6260DA0001333C
:1032E00020FA02F20A70F3E76268116803F16002E3
:1032F000013345F82210626804326260A268B3EBC1
:10330000920FF1D3A2EB8302A2607AB100210846AA
:103310006668771C6760CF0036780131BE408A420C
:1033200040EA0600F4D1603345F823000023B0E7FB
:103330000023E3E730B50C68002C49D193684B605B
:10334000D368C1E902335379022B14BF012302234E
:103350000B60137900EB8303D3F8805045F00045F0
:10336000C3F880501F2343611368C0F8A030D0F821
:10337000BC3043F00103C0F8BC30D0F8B83043F0A3
:103380000103C0F8B8305379023B012BD37998BFC1
:103390009489013B92791B06120403F0E06302F466
:1033A000702213432343C0F8A430D0F8B03043F068
:1033B0000103C0F8B0300B68022B03690CBF43F463
:1033C000026343F4046343F00B030361002030BD48
:1033D00041F65830FBE7000038B504465508204652
:1033E000FFF744FC0028FAD02368C3F30113032B32
:1033F00030D10B7973BB0A68194B9A422DD84FF420
:103400007A73897C4B225943B1FBF2F35A439142C0
:1034100088BF01335B0203F4FC4343F4807305F17E
:103420003002002D44F82230226822F0020222608D
:1034300014BF4FF440320322DB070AD5D4F8E8303A
:1034400032EA0303FAD1642300BF013B13F0FF0308
:10345000FAD138BD4FF48073E1E77923DFE700BF8D
:10346000FFE0F50570B5044615462046FFF7FEFB64
:103470000028FAD00220094A8031A26104EB8101C0
:10348000E0610020984203D10123A261E36170BD95
:1034900055F8206041F820600130F3E7F05AF05A07
:1034A00008B503461846FFF7E1FB0028FAD01A6872
:1034B0000901184622F0300201F030011143196071
:1034C000BDE80840FFF7CEBD2DE9F047D0F8BC308D
:1034D00005460F461446C3F383034FF0400A0133F9
:1034E0005E004FEAC3080CBF4FF00409C1460CB39D
:1034F00069694B06FCD52846FFF78AFBD8B9A04579
:103500001BD9A308834227D1B4EB80044FEA80067D
:103510000ED000233E441A46F15CDF000133B9406F
:103520009C4242EA0102F7D100F1600345F82320F2
:1035300040236B610020BDE8F08757F8203000F190
:103540006002013045F822308642F6D84F44A4EBA1
:103550000804C5F814A0CAE757F8201000F160026B
:10356000013045F82210CDE70029034614BF0120A1
:10357000002007D01A0A0A70C3F3421203F01F0397
:103580004A708B707047C3780A2B3CD98B6AC3F39F
:103590004170C3F30461022801F101012CD003281A
:1035A0002ED0012814BF090109021180C3F3C341C1
:1035B000180201F1010148BFC90058039180C3F30B
:1035C000833101F1010148BFC9009804C3F303101E
:1035D0005180C3F3042103F00F0301F1010103F152
:1035E00001034CBF8901C9005B00D1800121138117
:1035F00081400020518170474FF47A604143D4E705
:103600004FF47A40FAE76FF085007047C3780D2BCE
:1036100023D9496B002920DBCB0DC1F34130137056
:10362000CB0B02285370C1F3042303F101030ED026
:1036300003280FD0012806D0DB01C1F3850100204B
:103640005360917070474FF47A704343F5E74FF43D
:10365000FA50FAE74FF47A40F7E76FF085007047C9
:10366000C3780E2B21D9896BCB0CC1F3C05003F06A
:103670000E030343080B00F0F0000343880800F436
:103680007C500343C1F3402043EA8033C80209055C
:1036900000F4782001F47001034300200B4311680B
:1036A00001F07F410B43136070476FF08500704756
:1036B000C3780F2B14D9C96B0B480B0E00EA91107D
:1036C00013708B02090603F47C0301F0FE410343EF
:1036D00010680B430549014000200B4313607047FD
:1036E0006FF08500704700BF00FF0300FF000080FF
:1036F0004B1EC9074FEA530300EB8300C36958BF51
:103700001B0CC3F3072113F0FF031DBF0020117032
:1037100053706FF015007047C078092823D9013A1B
:10372000486AC2EBC202111D093220FA02F220FAE5
:1037300001F100F00F0002F0030201F01F0101305F
:10374000022A01F101014FEA400006D0032A06D007
:10375000012A00D1090119607047C901FBE74FF444
:103760007A725143F7E76FF08500704710B50C4649
:1037700019460D2A08D8DFE802F00C170A1C242A83
:1037800033383D454A3030306FF0150010BD002011
:10379000FCE7C3780E2B20D9A36B13F4007F0CBF7A
:1037A0006FF085000020F1E7C378122B15D9A36CC8
:1037B000F3E72368D80310D5E06880B2FFF7D4FEA2
:1037C000E4E723685A0208D5A068000CF6E7C3783E
:1037D000102B02D9206C030EF7D16FF08500D5E7CE
:1037E0002368DB02F9D5E068EFE723689802F4D597
:1037F000A068E2E7C378102BEFD9206C10F47F4F5C
:10380000DBD1EAE72369DA07E7D56069DDE72369F9
:10381000DB06E2D5A069D8E7032930B500690CD8EA
:1038200000F1100400238B4202DB4068104430BDDD
:1038300054F8045F01332A44F5E70020F7E770B538
:10384000046992B00546267A002E38D105AA314681
:10385000206900F089F9002833DB059B324619798D
:10386000186800F06DF900282BDB05A8FFF709FAAE
:10387000637A05AA8DF84530A37A8DF84630E37A4D
:103880008DF84430237B8DF84330637B8DF8163000
:10389000A37B8DF81930E37B8DF81430002394F866
:1038A0003000D9B2063288420FD82B6920681B7AC3
:1038B0001BBB05A9FFF732FA2B691B7A33BB00202B
:1038C00001E0831CD1D012B070BDE16A31F8331031
:1038D000003918BF01211175E16A01EBC301498864
:1038E0001174E16A01EBC30189885174E16A01EB4B
:1038F000C3010133C9885182D3E7036E0193436E3C
:103900000293836E0393C36E0493D2E701AA00234C
:1039100003F118000133216852F8045B042B41F8CD
:103920002050F5D12268136823F002031360C6E724
:103930000369187A704703691B681A6842F001022C
:103940001A60186810F00100FBD170472DE9F04FA4
:10395000C9B0894690461E469DF848B10569BBF13D
:10396000030F67D805EB4B0797F82530B34215D204
:1039700095F8273095F825401C4495F8293053FADE
:1039800084F495F82B3053FA84F45FFA84FA56FAEB
:1039900084F4402C04DD6FF0680048E04FF0000A2A
:1039A000D9F8083005EB8B029B02536103691B7A3F
:1039B00033B141460DF12008B20008A800F0CCF860
:1039C00020224946684600F0C7F897F82530B342F0
:1039D00006F1030323F0030338BF87F824A097F808
:1039E000242087F825309DF8173003EB92038DF8DB
:1039F00017309DF8153003EB92038DF81530EFF377
:103A00001184102383F31288BFF36F8F5A466946DF
:103A10002868FFF79FFA3346424697F82410286833
:103A2000FFF720FD84F31188BFF36F8F002049B0AA
:103A3000BDE8F08F6FF01500F9E7F0B5056985B0C6
:103A40000A7905F1100005EB420393F824400023A6
:103A5000A4081E469A4217DC04B966B110226846D3
:103A600000F07AF89DF8063069461C44009B334408
:103A70008DF8064000932868FFF705FB002818BF63
:103A80006FF0040005B0F0BD50F8047F01333E44F0
:103A9000E0E72DE9F74304460E46174699460569C7
:103AA000EFF31188102383F31288BFF36F8F00F0B8
:103AB00039F8D5E90D0183685B6983B34A469847B5
:103AC000002806DA88F31188BFF36F8F03B0BDE8D2
:103AD000F0833A463146C6F800902868FFF77CFC30
:103AE0002046FFF728FF204600F01CF8D5E90D011D
:103AF0008368DB689BB101AA98470028E2DB019B41
:103B00003A46314633602868FFF766FC2046FFF7E7
:103B100012FF88F31188BFF36F8F0020D6E76FF094
:103B20005700CFE703691B68D3F8E0209107FBD566
:103B3000D3F8E020D207F7D570470000000000005E
:103B40005FF800F0C18F00605FF800F08B8B0060C1
:103B50005FF800F0756600605FF800F0758B00603C
:103B60005FF800F0416A00605FF800F09B8F006032
:083B70005FF800F00BA50060F6
:103B780053B94AB9002908BF00281CBF4FF0FF31CC
:103B88004FF0FF3000F00CB8ADF1080C6DE904CE31
:103B980000F008F8DDF804E0DDE9022304B070471E
:103BA800704700BF2DE9F04786468C460846089EB8
:103BB800154674461946002B40F0C2808542B2FA79
:103BC80082F245D94AB1C2F1200300FA02FC2EFA6A
:103BD80003F3954043EA0C0C94404FEA154EA8B203
:103BE800BCFBFEF8230C0EFB18CC08FB00F943EADB
:103BF8000C43994528D9EB1808F1FF3704D29945A9
:103C080002D9A8F102072B44A3EB0903A4B2B3FB22
:103C1800FEFC0EFB1C330CFB00F044EA0344A042FC
:103C280014D92C190CF1FF3304D2A04202D9ACF1FB
:103C380002032C44241A43EA07401EB1D44000234F
:103C480034607360BDE8F0874746DDE76346F1E717
:103C580092BB431B01214FEA154EAFB2B3FBFEFCEA
:103C6800200C0EFB1C330CFB07F840EA0343984575
:103C780062D9EB180CF1FF3004D2984502D9ACF1A7
:103C880002002B44A3EB0803A4B2B3FBFEFC0EFB1B
:103C98001C330CFB07F744EA0344A7424ED92C19FE
:103CA8000CF1FF3304D2A74202D9ACF102032C4431
:103CB800E41B43EA0040C0E7C2F1200320FA03F105
:103CC800954090402EFA03F303434FEA154EAFB2E6
:103CD800B1FBFEFC0EFB1C10190C0CFB07F841EAAB
:103CE8000041884504FA02F422D969180CF1FF3022
:103CF80004D2884502D9ACF102002944A1EB08019D
:103D08009BB2B1FBFEFC0EFB1C110CFB07F743EA50
:103D180001439F420ED9EB180CF1FF3104D29F42A8
:103D280002D9ACF102012B44DB1B41EA004192E7C6
:103D38006046E3E76146F7E76046A3E76346B7E70F
:103D4800834206D916B9002108467BE7C6E900E098
:103D5800F9E7B3FA83F78FB9834201D3724508D8DC
:103D6800BEEB020460EB030301209C461EB9002150
:103D780068E73846FAE7C6E9004CF8E7C7F1200CCF
:103D8800BB4022FA0CF41C432EFA0CF120FA0CF377
:103D9800B84001434FEA14490EFA07F5B3FBF9F8A6
:103DA8001FFA84FE09FB18300B0C08FB0EFA43EAD5
:103DB80000439A4502FA07F240D9E31808F1FF30A8
:103DC80004D29A4502D9A8F102002344A3EB0A03BE
:103DD80089B2B3FBF9F809FB183308FB0EFE41EA78
:103DE80003418E452CD9611808F1FF3304D28E4562
:103DF80002D9A8F10203214443EA0040A0FB02983B
:103E0800A1EB0E014145CE46434602D306D14D45AE
:103E180004D2B9EB020E68EB04030138002EA6D0D9
:103E2800B5EB0E0261EB030101FA0CFC22FA07F371
:103E38004CEA0303F940C6E9003198E74046C5E774
:103E48004346D9E730B5492185B0254804F0BBFD84
:103E580000F066F801A800F0EDFC224B1B688342D5
:103E680004D04521204804F0AEFDFEE7039A49211D
:103E78001E4804F0A8FD49211D4804F0A4FD694628
:103E88009DF8080001F0B0FA1A4D019908232A4656
:103E98000098098904F0A5FD044600B1FEE70098E2
:103EA80004F09EFD05F010FA00F0BEFF04F034FEA9
:103EB80001F018FE01F056FE01F0EAFD01F07AFC6F
:103EC8002B6883F3088884F31488BFF36F8FBFF3DC
:103ED8006F8F6B6898474521074804F074FDFEE72B
:103EE80066C70060C80200807FC70060A2C7006084
:103EF800D1C70060C0020080F6C7006021B1012967
:103F080006D06FF015007047044B53F83000704727
:103F1800024B03EBC0035868704700BF74AD0060E4
:103F28004FF4C051014803F0CBB900BF1A480080D4
:103F38002DE9F04FF9B0DFF8ECA116461C4638A879
:103F4800869FDAF80050DDE9848906F03BF9002104
:103F580038A803F0EDFAB8F1000F07D0B9F1000F57
:103F680004DD4A46414638A806F035F933894FF052
:103F780000087289D6F80CB013449B44C3453AD85C
:103F88000DA938A806F066F927B120220DA93846F0
:103F980004F0ECFD00232246314607A800934FF6B3
:103FA800FF7304F09FFA804610BB0C9E204600F079
:103FB800F1F986421CD84FF0FF37DFF86C910DF10C
:103FC800160305AA06A907A804F0DAFA00280FDBE9
:103FD80040F09F80069907A804F01EFB10BBBDF8AF
:103FE80016004FF6FF71514A32F8023B8B4217D147
:103FF800DAF8005091E0ABEB0809839B829A4146BE
:104008009945204628BF99464B4604F0EAFC00280B
:10401800EED14A46829938A8C84406F0DCF8ADE7E4
:104028009842E1D1BDF81660102E17D1BDF8146082
:10403800202EDDD1334638AA0699204604F0D1FC5B
:104048000028D5D1324638A90DA804F0F3FA384B28
:104058001B688342CCD14FF00108B0E7012E36D15E
:10406800BDF81430202BC3D838AA0699204604F08E
:10407800B8FC07460028BBD19DF814B0BBF1200F4F
:1040880002D94FF0FF379AE7D9F80030294E039349
:10409800039B9F42F5DA1DA806F094F800211DA89D
:1040A80003F046FA72681DA856F8081B126806F055
:1040B80092F815A91DA806F0CDF85A4638A915A8F2
:1040C80004F044FD00283FF47AAF0137E0E7202EE2
:1040D8007FF475AF7B1C3FF472AFD9F80030BB4258
:1040E800CFDDBDF81430B3F5807F81D138AA0699A9
:1040F800204604F076FC00287FF47AAFFFB2BDF8C2
:10410800143038AA31460DA8009700F015F8054676
:10411800B7E7B8F1000F3FF46BAF284679B0BDE8B8
:10412800F08F00BF440000807CAD00601CC70060B9
:10413800C802008080AD00602DE9F04FADF5417DEB
:10414800DFF8D0A107461E462AA89DF828B389465D
:104158009046DAF8005005F0EEFF092201212AA85E
:1041680003F062F96C4B80AA05A853F83B4003EBB7
:10417800CB035B6805941B681C443023214605F07B
:10418800F8F8002840F0BE80059B809A13449C42B2
:1041980040F0B8802CAA214605A805F0FEF80028B2
:1041A80040F0B0800DF1B80B214605A85A4605F03D
:1041B800F4F80390002840F0A5802CA805F079FCBD
:1041C800059A2B90944240F09D80039B2CA92AA825
:1041D800CDF804B01A46009305F06AFF002840F0B5
:1041E80091802AA803F036F9002840F08B802CA88B
:1041F80005F05FFC2B902AA805F0A7FF864240F047
:104208008180B6F5807FDAF800507BD1B9F1200FB4
:1042180078D180AA41462AA803F042F9044600282A
:1042280070D19DF8FF32BC2B6CD10DF59079DF264B
:1042380006900FA8B04605F0C5FF00210FA803F0AF
:1042480077F920220DF2DF210FA805F0C4FF042220
:1042580006A90FA805F0BFFF07A90FA805F0FAFFE8
:10426800202E9DF81B304846A8BF4FF0200807A90C
:104278000133A6EB080642468DF81B3004F076FCA5
:10428800002EC144D5DC48AB80AA002118469C46C4
:104298000678013112F801EBDF2986EA0E0600F8EC
:1042A800016BF5D11A7802F07F021A7013F8016BCE
:1042B80046BB0134BE2CF9D19CF8BE30012B21D16C
:1042C8000FA805F07FFF31460FA803F031F9082247
:1042D80012490FA805F07FFF394620220FA805F0E4
:1042E8007AFF20220DF2DF110FA805F074FF07A94D
:1042F8000FA805F0AFFF20220DF2DF2107A804F078
:1043080099F905462AA805F022FF28460DF5417DB2
:10431800BDE8F08F4400008080AD006019C80060DF
:104328004000094A0B7852F820108B4209D001301E
:1043380052F82000834214BF4FF0FF304FF4406022
:1043480070474FF44060704788AD00601FB50F4B51
:104358000C4613F8300001F047F850B920681023D4
:104368006A468168103904F03CFB28B1206804F0E3
:1043780037FB4FF0FF3006E010220549684604F08D
:10438800E5FB0028F2D104B010BD00BF88AD006085
:1043980056C7006013B5044604F053F96A4601464F
:1043A800204604F086F830B10448452104F00BFBA0
:1043B800002002B010BD0098FBE700BF21C80060D4
:1043C8002DE9F041364B88B0064600200D461C68A2
:1043D800FFF794FD06A9C0B201F006F8002858D1ED
:1043E80029462C24FFF78AFD07A9C0B204FB0564FF
:1043F80000F0FAFF002833D02C27069B6F4306EB0A
:104408000708D8F8101011F0100138D14FF4807255
:10441800084602910192234ACDE9031100922246EF
:10442800FFF786FD0446204BF25906989A420CD1B4
:10443800D8F80C20B8F808309B1806D28268934246
:1044480003D21A4B1B68A34220D035B382680021DF
:1044580004F0F1FA164A4521164804F0B4FA13E0BC
:10446800079804F007FB0746079804F0B9FA631E9B
:10447800E21C13F8011FB942BED19342F9D11DB114
:104488000699304604F0C8F90B4B1C68069804F0EE
:10449800A7FA204608B0BDE8F081084ADBE700BF6C
:1044A800440000801A6000803DB8F396C80200807E
:1044B80064C800606EC80060400000805CC800608E
:1044C8007FB50D46002104462846CDE9021104F0C7
:1044D80062F928B32368194EB34203D103AA2046D0
:1044E80004F0EDF8E36AB34204D102AA01212046A0
:1044F80004F0E5F8DDE90232934288BF0393039B99
:10450800AB60039A2946204600F096FB0C4B1A68CC
:10451800002A03DD57210B4804F055FA04B070BD9A
:1045280001A9FFF713FF05F10801019804F094F8B9
:10453800AB680198039304F053FAE2E73DB8F396A9
:104548002C47008096C800602DE9F04B099F0E4665
:10455800904699460024DFF844B0BC4201D30020BD
:104568000EE03D1B0D4A04EB09013046B5F5806F9E
:1045780028BF4FF480652B4604F033FA10B10120B0
:10458800BDE8F08B08992B465A464046611804F05E
:104598003DFA0028F3D12C44DFE700BFCC4200806D
:1045A8009A4BF0B543620E46994B0021044689B0F8
:1045B80003650846FFF7A2FC04F120010546C0B2D6
:1045C80000F012FF0346E8B90121FFF797FC04F158
:1045D8004C010546C0B200F007FF0346E0B920468B
:1045E80004F0AEF80546C8B900222046114604F08A
:1045F80050F8054668B300225721864804F0E3F9CD
:1046080001239DE0002245218348CDE900230023B2
:104618002A4604F0D8F9FEE70122F4E74FF4806255
:1046280057217E4804F0CFF901239D4284F8583081
:10463800DAD194F85830042B8DF8173000F28380C3
:10464800012B00F2878000F09A80FF2384F858300D
:1046580095E0204600F002FA0028D1D004A804F022
:1046680091F80146204604F02BF918B12A46572143
:104678006B48C3E704A804AA04F08DF880F0010190
:104688002046C9B204F005F802460028B3D104A8B0
:1046980004F081F8054660BB04A92046FFF710FF27
:1046A8009DF8173084F85830033B012B06D828466C
:1046B80000F0E6F810B1FF2384F858309DF8173061
:1046C800023B022B0BD8002000F0C4F838B1FF23BE
:1046D80084F858304521534804F075F9FEE794F8FA
:1046E8005830FF2BF6D004AA0021204603F0D1FF52
:1046F80086E79DF81770012F17D1104603F08EF842
:10470800831E0546022B0DD839462046FFF758FE72
:10471800454B1B68984205D0444B1D68A84214BFFE
:104728000525012584F8585083E701212046FFF725
:1047380047FE3D4B1B68984214BF05239DF8173070
:1047480084F8583075E7052B7FF47FAF002000F020
:1047580097F811E004A92046FFF7B2FE94F8583004
:10476800DA1E012A14D8002000F08AF800287FF405
:104778006CAF002000F06EF800287FF466AF94F864
:104788005830FF2B07D14521264804F01CF9FEE7D5
:10479800022BF4D1EDE70022012B254D039214D012
:1047A8001146204603F075FF78B12D6810220021CC
:1047B8000DEB020004F0E5F9E06C04F011F9206A51
:1047C80004F00EF9284609B0F0BD00212046FFF795
:1047D800F7FD154F3B689842E7D12B689842E4D023
:1047E800124B1B689842E0D0039B01330393039B51
:1047F800012B00D0FEE7206A03F059FE3071236ACE
:104808005B6834603D68B360D0E700BFCC220080AD
:10481800CC02008054C90060C5C8006012C900609D
:1048280080C90060AAC90060C802008040000080FA
:104838004400008038B5064D044660220021284611
:1048480004F09FF921462846FFF7AAFE38BD00BFAD
:10485800CC460080094B13B513F8300001A900F0CD
:10486800C3FD48B9019805F043FE0446019804F0D9
:10487800B7F8204602B010BD0124FAE790AD0060F9
:104888001FB50F4B01A913F8300000F0ADFDA8B912
:1048980002A9019802F06CFF044668B99DF80B3034
:1048A800032B03D1019805F0F1FD0446019804F0AB
:1048B80097F8204604B010BD0124F7E70124F8E773
:1048C80090AD00602DE9F34106460C4617461D469B
:1048D8000BB9002628E0184603F05DFF0028F8D140
:1048E8006946FFF733FD009838B90124009804F0B1
:1048F80077F8204602B0BDE8F08101A903F0ACFECC
:104908000028F2D1009804F06BF83046019904F0C1
:1049180025F8736A5E686B79012B21D1002CD8D1F8
:104928002B68834298BF002621460020FFF7E6FA4D
:104938006946C0B200F058FD0028D6D120233A4677
:104948003146009804F04DF804460028CDD1002DDA
:10495800CCD03C680D4BE41A18BF4FF0FF34C5E7C4
:10496800022BB6D12B68012B05D98342B1D8B4FAF2
:1049780084F46409ADE7ACD1002CD5D0012CA8D1C2
:104988002C79023C18BF0124A3E700BF3DB8F39679
:104998002DE9F04F074685B00C4601460020164623
:1049A800FFF7BEFC051E52DBE46D384603F049FEF6
:1049B8006B1E5FFA84F94FF0000A4FF0010B4FF0BD
:1049C800FF3409FB0308A5B9BAF1010F03DD45213E
:1049D800214803F0F8FF631C07D0B4F5806F2ADA8A
:1049E800013440F201133460B380284605B0BDE8B5
:1049F800F08F6B1E0DF10F024146384600930123DC
:104A080003F0EFFF031E019323DB01220DF10F01D9
:104A1800384605F0D6FC019B40B15B4501D00AF150
:104A2800010AA8EB0908009D9B46CCE7B4F1FF3FBB
:104A380008BF2C46F5E70223A4F580647371631060
:104A480004F001040133013433603471CDE70725E4
:104A5800CBE70125C9E700BFB6C9006070B5866A13
:104A68000446456D03F069FFAE420AD06B1CB342A1
:104A780007D0834205D05721134803F0A4FF002034
:104A880070BDB6F5806F1CD957211048F5E7626AEA
:104A9800216D02EBC30201EBC301526849689142E0
:104AA80002D057210A48E8E701339D42EFD1AE42D0
:104AB80005D9636A03EBC5035B689342F1D1012012
:104AC800DEE700231A46F0E7D9C9006011CA006082
:104AD80040CA006000B589B0012004A905F0E3FCD4
:104AE8009DF81020012A41D0254B2649032A08BFEA
:104AF8000B469DF813204921234802929DF8122065
:104B080001929DF811200092204A03F05CFF06A94B
:104B1800022005F0C8FC9DF81820012A28D0184B5F
:104B28001849032A08BF0B469DF81B20492116483F
:104B380002929DF81A2001929DF819200092144AB9
:104B480003F041FF9DF81030012B13D19DF812306E
:104B5800032B0FD19DF81830012B0BD00D4849219C
:104B680003F031FF022009B05DF804FB0A4BC0E7EF
:104B7800094BD9E70948492103F025FF0020F2E74E
:104B88006CCA006075CA006089CA00607BCA006090
:104B9800CACA0060DACA006070CA0060F9CA006058
:104BA80070B54B6814461E4A86B003F0FF230646CC
:104BB8000D4693422FD10B68012B2CD104A9204616
:104BC80002F0D6FD9DF81020012A26D0154B164973
:104BD800032A08BF0B469DF8132049211348029267
:104BE8009DF8122001929DF811200092104A03F0BE
:104BF800EAFE9DF81030032B0DD12146304603F014
:104C08000BFE204605F042FCA968204603F032FD61
:104C1800204602F08DFD06B070BD064BDBE700BFF5
:104C2800000100046CCA006075CA006089CA00608F
:104C3800CACA006070CA00602DE9F04F16460546E2
:104C480089B00C467448492103F0BDFE3146284618
:104C580003F084FE6B6A824620465E6803F09BFD83
:104C6800E8B1E86D03F0E8FCAF6A0023013F334484
:104C7800834201D2013FFAE7BA4510D3572167486A
:104C880003F0A1FE07FB06F30AFB066257216448FE
:104C980003F099FE0123E37109B0BDE8F08F06A97E
:104CA800012000F0A1FB07A9022000F09DFB079A54
:104CB80021462846FFF774FF6379012B4BD15746ED
:104CC800DFF860B141E02268C2F1010353449F421A
:104CD8003AD86B6A012A196853F8370003EBC703FF
:104CE80053F8083CA0EB0109A3EB0103049311D18D
:104CF800079B0393E368022B08D04146284603F03C
:104D08008BFD22464146284603F0BBFD0399284601
:104D180003F082FD32464946404603F07BFD049B82
:104D2800424641462846CDE90096FFF70DFC21464C
:104D3800284603F03DFD23680133236020B1DBF8EA
:104D480000300133CBF80030013FDDF81880002F28
:104D5800B9D101232360022301276371BA45DDF825
:104D6800189006D2484603F03BFE079803F038FE39
:104D780092E723689F424DD36A6AFB00DDF81CB0B6
:104D880052F83710083B049111680391D1582A6DE5
:104D9800D0581368A0EB03082379012B38D1039B63
:104DA80032464846C91A059103F034FD0599434631
:104DB8004A462846009159460196FFF7C5FB214609
:104DC800284603F0F5FC0223237118B1154A13682D
:104DD8000133136032464146584603F01BFD4946ED
:104DE8002846DDE90323CDE900869B1A5A46FFF7DA
:104DF800ABFB2146284603F0DBFC23680133236024
:104E08000123237130B1074A13680133136001E0AD
:104E1800022BDFD00137A1E710CB006039CB00604F
:104E280068CB00602C470080BFF36F8F72B6124BBF
:104E38004FF0FF32C3F88020C3F88420C3F88820DD
:104E4800C3F88C20C3F89020C3F89420C3F89820A6
:104E5800C3F89C20C3F88021C3F88421C3F88821B3
:104E6800C3F88C21C3F89021C3F89421C3F8982182
:104E7800C3F89C21704700BF00E100E0014B1B68AC
:104E8800184700BF48000080014B1860704700BFFA
:104E98004800008007B50B460021024603480091F0
:104EA80000F006F803B05DF804FB00BF854E006013
:104EB8002DE9F04F1D468DB0531E82464FF0000974
:104EC80001910393039B58785C1C252819D11E4631
:104ED80000204FF0FF3802360346444602903178EE
:104EE8000396392955D81F2914D8002900F0F081D4
:104EF80001992520D0470199307809F10209D04756
:104F0800E0E7002800F0E481019909F10109D047A0
:104F18000394D7E7A1F12002192AE9D801A757F885
:104F280022F000BF954F0060F94E0060F94E006016
:104F3800954F0060F94E006015500060F94E006012
:104F4800F94E0060F94E0060F94E00606150006053
:104F5800954F0060F94E0060755000602150006068
:104F6800F94E00602F5000604F5000604F500060B5
:104F78004F5000604F5000604F5000604F5000602D
:104F88004F5000604F5000604F5000600846013697
:104F9800A5E7582900F0EC80A1F16302D7B2172FDA
:104FA800A6D8172AA4D801A757F822F01F520060E4
:104FB8009B500060F94E0060F94E0060F94E0060A9
:104FC8007B5000609B500060F94E0060F94E006015
:104FD8007B500060F94E0060F94E0060F94E0060A9
:104FE80053510060F94E0060F94E0060F3510060C3
:104FF800F94E00609B500060F94E0060F94E006069
:1050080053510060F94E00607B50006001992520E3
:1050180009F10109D04755E7029A4FF0000802F05C
:10502800FE020292B3E7002C0DDAB8F1000F0DDA98
:10503800029A002A00F0448124EAE4740A2202FB5E
:105048000414303CA3E7B8F1000FF5DB0A2202FB99
:105058000812A2F130089AE7B8F1000F55F8042BAE
:1050680080F23081002A80F22F815442022202927B
:105078008DE7682903D1682B06D1482387E76C2977
:1050880002D16C2B00F02281002B7FF431AF0B464C
:105098007DE77A2B06D1752955F8046B14D14FF0AA
:1050A800000B0CE06C2BF6D04C2BF4D1073575298E
:1050B80025F0070303F10805D3E9006B06D1202882
:1050C8003CD1013C844F0AE04FEAE67BBBF1000F7C
:1050D800F5DA764204F1FF34804F6BEB4B0B0DF1A0
:1050E8002D03059300230493304659460A220023D2
:1050F800FEF73EFD059B3032B446064603F8012D07
:10510800BCF10A0F5A460593049B8B4672F10002C4
:1051180003F1FF310491E7D2C3F1010B30330DEBFA
:105128000306B8F1000FA6F104066DDA029BD90751
:105138007DD4A8EB0B03A4EB0B0413E02B2806BFCC
:1051480004F1FF34664F674FC9E770290FD155F84E
:10515800042B0023FAB9053C6FF00403614F4FF0AC
:10516800050B614E029A920770D4A04666E078213A
:105178006C2B03D155F8042B002308E04C2BF9D1F4
:10518800073525F007031D465B6855F8082B2328CB
:1051980025D1880621D5554F023C01F060010DF15B
:1051A8002D0E0026A1F1390B02F00F014FEA131C56
:1051B800701E092988BF5944102A01F130010EF8E0
:1051C800011D4FEA121141EA037173F1000308D27D
:1051D800C6F1010B06F13003A1E7454FDCE7414F6B
:1051E800DBE706460A466346DEE755F8046B3046B9
:1051F80003F0A5FCB8F1000F834602DB4045A8BFC9
:10520800C346384F4FF00008A8EB0B03002B92DD84
:10521800A4EB0804A6E755F8043B013C314F4FF0D6
:10522800010B8DF8183006AE4FF0FF339AE7A04611
:10523800EAE7029320200199D047029BB8F10108C0
:10524800F7D524EAE472013C9144A41AB84606E072
:10525800049302920199D047029A049B90464246D1
:1052680012F8010B0028F3D11A46013A15D5002B84
:10527800ACBFC7EB03077F425B46013B15D5BBF1CB
:10528800000FA8BF5F4426464F44013E14D5002CAA
:10529800A8BF3F1907EB080914E6049330200292CF
:1052A8000199D047049B029ADFE70293019916F807
:1052B800010BD047029BE0E701992020D047E4E7A3
:1052C8000122D4E6904662E6144660E64C235EE688
:1052D80048460DB0BDE8F08FA9CC0060A7CC0060AF
:1052E800ABCC0060B5C90060B3CC0060ADCC006049
:1052F800B0CC006008B500F01BFC00F09BFB294B0C
:10530800294A1A604FF40042284B1A60284B9A69C0
:1053180022F4405242F480529A615A6942F0007273
:105328005A619A6C9006FCD4224AD36823F01F0372
:1053380043F01303D3601368002BFCDA1E4800F017
:1053480025FF1B4B1A6922F0070242F001021A617D
:105358009A6CD103FCD45A6922F4E0525A61144B76
:105368009A6C9207FCD45A6942F440725A619A695D
:1053780042F440229A615A6922F000725A610C4B39
:10538800986C10F02000FBD15A6A22F040025A6251
:105398005A6A22F03F025A625A6D22F003025A6595
:1053A80008BD00BFBC47008000366E01B8470080CA
:1053B80000C00F40000008409CAD006008B501F037
:1053C8009BF9044B044A5A641A6C42F004021A64AA
:1053D80008BD00BF00C00A4055FAAF55014B036035
:1053E80000207047C4AD0060114B70B51C680D46B5
:1053F800DCB1104B196800238B4202DB6FF001000F
:1054080070BD224612F8106B864202D00133144652
:10541800F2E7E06810B96FF01200F1E705F071F8F3
:105428000028F8D000202C60EAE76FF00C00E7E7CE
:105438004C000080C4AD006070B588B005460C46CD
:10544800C0B269461646FFF7CFFF00281BDB00985D
:10545800C8B143682268029383680195CDE9033691
:1054680000230593CDE90623C56803F0B9FA6DB1A9
:10547800284601AA074903F0CBFB079808B9059B02
:10548800236008B070BD6FF01500FAE76FF01200E6
:10549800F7E700BF8B8A0060044808B503F07BFA81
:1054A8000348BDE8084003F076BA00BFC8CC0060E6
:1054B800FDCC006030BFFFF7FDBF00BF074A93680F
:1054C80093F90E10002907DB5269934204D0044A6D
:1054D800536843F080535360704700BFE84700802B
:1054E80000ED00E0264B70B515469A6A064612F0A4
:1054F800100F9A6A14BF1124102412F0080F9A6A28
:1055080018BF122492070AD5586B9A6A140634D524
:1055180019B19A6A22F080029A62132401E06FF0AE
:105528001500174B9A6A12F0010F9A6A18BF1424D3
:1055380012F0200F9A6A18BF1524D20602D49B6A6B
:105548009B070AD50E4B5B68190506D5314600F056
:1055580019FA10B180F309880224094B9A6A920655
:1055680003D55A6A22F400525A629A6A204642F0D7
:10557800FF029A6200232B7070BD6FF01500CCE714
:1055880000ED00E0134B9A6A12F0007F9A6A14BF8C
:105598001E201D2012F0807F9A6A18BF1F2012F467
:1055A800002F9A6A18BF212012F4802F9A6A18BF18
:1055B800222012F4003F9A6A18BF232012F4803F79
:1055C8009A6A6FEA024218BF24206FEA12429A626E
:1055D800704700BF00ED00E0194B024610B5986A0D
:1055E8009C6A10F4805F14BF1720162014F4006F13
:1055F8009C6A18BF1820A40509D5986B986A0004FE
:1056080004D51AB19A6A22F400429A6219200C4B06
:105618009A6A12F4806F9A6A18BF1A20D2050CD4BD
:105628009B6A13F4005F18BF1C20054A936A43F471
:105638007F43936200230B7010BD1B20F5E700BF6A
:1056480000ED00E0454B70B55B688AB00546002662
:10565800C3F3080386F31188BFF36F8F02F07F400E
:10566800B0F17F4F11D102F00C0008280DD01007BF
:105678004CBF0D4601260022033B8DF80720032B63
:1056880005D8DFE803F01E5D615A3546F3E70024CC
:105698009DF807309BB92022294602A803F066FA34
:1056A800099B002E54D0C3F3080222B96FEA532392
:1056B8006FEA4323099302A9204603F004FA0AB0CB
:1056C80070BD264BDA6A9107E1D4DA6A002ADEDB7C
:1056D800DA6A5200DBD55A69A96942F480725A61C4
:1056E800BFF34F8FBFF36F8F5A6931F8021C22F452
:1056F80080725A61BFF34F8FBFF36F8F4DF60272FE
:1057080091420AD09A6AD2B24AB10DF10702012138
:105718002846FFF7E7FE0446BAE72C68B8E79A6A16
:1057280012F47F4F05D00DF107010120FFF754FF58
:10573800F1E79B6AB3F5803FA9D3FFF723FFEAE7B8
:105748000DF107020021E3E70DF107010020EDE765
:1057580023F4FF7323F00103ACE700BF00ED00E082
:10576800024A536943F010035361704700ED00E0AB
:10577800EFF30880EFF3098101B57246FFF762FF86
:1057880001BD00BFFFF71AFE102080F311880848FA
:105798004FF40461401880F30988EFF31480022164
:1057A800084380F31488BFF36F8F00F0B1F800004E
:1057B8004062008007490023D1F890201846C2F3C0
:1057C8000722934200DB7047C1F898300133C1F8D3
:1057D800A000F6E700ED00E0084B9B6883420BD180
:1057E800EFF3058343B1064B5A6842F080525A6082
:1057F8005A6A22F400425A6204F022BFE847008045
:1058080000ED00E0094A6FF00A01936899670849BA
:1058180058674B6843F080534B60002383F311882B
:10582800BFF36F8F9368986F704700BFE847008099
:1058380000ED00E010B50446EFF31183102383F365
:105848001288BFF36F8F094B4FF000625869986058
:10585800074B5A600022436F426783F31188BFF3F6
:105868006F8F00F09FF9204610BD00BFE847008009
:1058780000ED00E00B498A684FF030001044EFF368
:10588800098C80E8F01F74467046FFF7D3FFA646E0
:1058980004498A6802F1300090E8F01F8CF3098807
:1058A80070470000E84700801EF0040F0CBFEFF3BC
:1058B8000880EFF30980816911F8021C0229FFD0E2
:1058C80001B503F006F901BD00B2002807DB01238A
:1058D800410900F01F00024A834042F82130704716
:1058E80000E100E000B2013100284FEA0111C9B21D
:1058F80006DB00F1604000F5614080F80013704756
:1059080000F00F00014B1954704700BF14ED00E080
:105918000F4A08B522F07F020E4B9A60BFF34F8FF3
:10592800BFF36F8FD3F8882022F47002C3F8882061
:10593800EFF3148323F0040383F31488BFF36F8F0A
:1059480002F07CF802F030FC00F056F802F0C8F8DB
:105958000020006000ED00E042F8203C203A009B67
:1059680007495360019B21F001019360029B9161FB
:10597800D3604FF08073D36100230265436770479B
:10598800B9890060094A0346906870B113F1160F8F
:10599800406E05D0A0F140029A4205D8834203D256
:1059A800814228BF0020704700207047E8470080E8
:1059B80008B50B4B0E461546986000F0F3F82C46D8
:1059C80086F309884FF00000064B984720464FF0B1
:1059D80000014FF000024FF00003034C204700BFC6
:1059E800E8470080F98A0060B9890060014B1022FD
:1059F8001A61704700ED00E0002304481021C21826
:105A08000133A02B82F80013F9D1704700E100E0C0
:105A180008B5EFF30583064A103B02EBC30152F8C1
:105A2800330049688847BDE80840FFF747BD00BF15
:105A380064A80060154A70B5536913F4803323D104
:105A4800C2F88430BFF34F8FD2F8803043F6E07449
:105A5800C3F3C900C3F34E335B0103EA04060146EE
:105A680046EA81750139C2F86052F9D2203B13F138
:105A7800200FF2D1BFF34F8F536943F48033536142
:105A8800BFF34F8FBFF36F8F70BD00BF00ED00E015
:105A9800134A002370B5C2F88430BFF34F8F53699F
:105AA80023F480335361BFF34F8FD2F8803043F62D
:105AB800E074C3F3C900C3F34E335B0103EA040681
:105AC800014646EA81750139C2F87452F9D2203B81
:105AD80013F1200FF2D1BFF34F8FBFF36F8F70BD5B
:105AE80000ED00E01149002370B5C1F88430BFF320
:105AF8004F8FD1F8803043F6E074C3F3C900C3F385
:105B08004E335B0103EA0406024646EA8275013A0F
:105B1800C1F86C52F9D2203B13F1200FF2D1BFF338
:105B28004F8FBFF36F8F002070BD00BF00ED00E006
:105B38000B4B5A6912F4003211D1BFF34F8FBFF3E8
:105B48006F8FC3F85022BFF34F8FBFF36F8F5A691F
:105B580042F400325A61BFF34F8FBFF36F8F704723
:105B680000ED00E0BFF34F8FBFF36F8F064B5A690C
:105B780022F400325A610022C3F85022BFF34F8F3B
:105B8800BFF36F8F704700BF00ED00E0024B0121AB
:105B9800024A034800F076B8000000820000008046
:105BA80008AE0060426E4021044B403A18461A6025
:105BB800034AC3E90112012100F06EB830470080A2
:105BC80000000B15084AC2F898000B6823F01F0361
:105BD800034343F01003C2F89C308B6843F0010381
:105BE800C2F8A030704700BF00ED00E02DE9F04397
:105BF8000E4685B01F4604464FF00009DFF8548072
:105C0800B14523DA6068D8B13FB1411E08421BD1C3
:105C18001F2819D92368194216D12368019302F065
:105C28007EFFA3680343D0B20393D8F89050C5F31E
:105C38000725013DA84207D801A9FFF7C3FF421C69
:105C480009F101090C34DBE76FF01502104605B0C5
:105C5800BDE8F08300ED00E0044B0522C3F8942072
:105C6800BFF34F8FBFF36F8F704700BF00ED00E0A9
:105C7800BFF35F8F024B0022C3F89420704700BF28
:105C880000ED00E010B5034C01232278FFF7AEFFCA
:105C9800207010BD1A6100800B4A08B500231278E5
:105CA800FFF7A4FF10F1160F07D0084A0021D2F819
:105CB8009030C3F30723984200DB08BDC2F8980070
:105CC8000130C2F8A010F2E71A61008000ED00E090
:105CD800544B2DE9F043544C85B0D3F890302568E7
:105CE800C3F307239D4200F29A8000200C26FFF799
:105CF800BFFF85421AD14D4C68464D4F2570FFF7BE
:105D08006DFB00250646DFF81C81DFF82891AE42BE
:105D180013D1237800204349D1F89020C2F30722F9
:105D2800934276DB0020FFF797FF42E0616806FBAD
:105D38000011FFF747FF0130DBE700984FEA051C29
:105D480000EB0511CB683B40B3F5000F48D00AD8EB
:105D5800B3F5001F30D0B3F5800F36D0B3F5801FF0
:105D680010D00135D3E7B3F1807F42D0B3F1007F83
:105D7800F7D150F80C30886802F0D1FE4A6840F438
:105D8800802009E050F80C30886802F0C8FE40F026
:105D980088504A6840F4302003902078CDE90123E8
:105DA800D8F89030C3F30723013B98422AD96FF003
:105DB800150005B0BDE8F08350F80C30886802F093
:105DC800AEFE4A6840EA0900E6E750F80C308868F9
:105DD80002F0A5FE40F000704A6840F40030DBE7AE
:105DE80050F80C30886802F09AFE4A6840F08270D9
:105DF800D2E750F80C30886802F091FE4A6840F00B
:105E08008870C9E701A9FFF7DDFE23780133237005
:105E1800A7E7C1F898300133C1F8A0007CE74FF03C
:105E2800FF30C6E700ED00E0A4AD00601A61008015
:105E38000000F0FF00000811014B1860704700BF18
:105E480050000080B1F5407F38B5144604D0B1F554
:105E5800706F24D0002038BD134D6B6A5A060DD4DC
:105E6800124800F0B5F96B6A062203F03F03B0FB55
:105E7800F2F00133B0FBF3F02060EBE70C4BD3F802
:105E88007032DB0609D40B4B1A686B6A03F03F03C8
:105E98000133B2FBF3F22260DCE7074AF5E70220A0
:105EA80000F0E4FBE8E700BF00C00F400D00100061
:105EB80000800D40BC47008000366E0108B50748D9
:105EC80004F01FFB38B10648FFF7B6FF0448FEF799
:105ED800DBFF002008BD6FF01200FBE788A7006019
:105EE800ED5E00600A2838B50446074D04D1AB685A
:105EF8000D2128465B689847AB68E1B202485B68A9
:105F08009847204638BD00BF88A70060124B03F1B0
:105F1800780252E8002F42F00C0203F1780040E8C2
:105F280000210029F3D103F1700252E8002F42F05A
:105F3800300203F1700040E800210029F3D103F199
:105F4800780252E8002F42F0300203F1780141E86C
:105F580000200028F3D1704700C00F404FF0E02325
:105F68000F4910B59C691A6908689B6902F4803268
:105F78000C4934B993B903464AB90A681044C01A9F
:105F880010BD002B08BF03460AB9A342F5D90A6819
:105F980002440A604FF0E0221269EEE70446F3E794
:105FA800B4470080B04700800A4B1022002083F8D5
:105FB80023204EF66022084B1A604EF65F22074BEC
:105FC80018604FF0E0235A6198611A6942F007029D
:105FD8001A61704700ED00E0B4470080B0470080C8
:105FE80010B5FFF7BBFF1049104B0868D3E9004212
:105FF800001942F10002C3E900020D4A00230B60B8
:106008004EF66023D2E90041001BB0FBF3F0434396
:106018001B1941F10001C2E9003102F0B9F9BDE8EC
:106028001040FFF74BBA00BFB0470080180100804E
:10603800100100802DE9F041DFF8E08099B1421CA1
:106048000BD14FF0E022136923F0010313614FF0E5
:106058007F43C8F80030BDE8F081D8F80060012817
:1060680007DC00270BE0431CD8F80060F7D14FF499
:106078008B7040F217139842A8BF1846471EEFF3DB
:106088001185102383F31288BFF36F8FFFF766FF24
:10609800234C4FF0E0239969D4E9002380184FF08E
:1060A800000243F10003C4E900031E4B1A601E4BB3
:1060B8001A68831A2ED44EF6602C0CFB073303F5AE
:1060C8006A435F33B3FBFCF7131A40F6A6620CFB76
:1060D8000733934238BF1346144A934228BF1346E6
:1060E800C8F800304FF0E022013B9069536100236B
:1060F80081429361A1EB0003D4E9001238BF9B19D8
:106108005B1842F10002C4E9003285F31188BFF33D
:106118006F8FA0E740F6A663E2E700BFB4470080B0
:1061280018010080B0470080100100804084FE0004
:1061380038B5EFF31185102383F31288BFF36F8FFF
:10614800084B1C68084B1B68E41AFFF707FF85F328
:106158001188BFF36F8F4EF660232044B0FBF3F035
:1061680038BD00BF1801008010010080044BD3F82F
:106178007032DB0602D4034B186870470248704738
:1061880000800D40BC47008000366E010F4A03793D
:1061980011689B0321F4E0319BB20B4343F4803335
:1061A80013601168036821F4415103F07F0321F063
:1061B8003F010B4343F4005313601368002BFCDAD0
:1061C800136823F480331360704700BF00800D40CC
:1061D800C0F30B41024600F01F0001F1804101F5B8
:1061E800582170B50B68C340D80719D50B6813F44C
:1061F800404F18D1FFF7BAFF04460B6813F48033F9
:106208000FD152498A424AD021D8A1F5A0018A4229
:1062180000F0988009D80D2A31D04D4B9A4235D0DC
:106228000024204670BD0024E7E74A498A42F7D196
:10623800494D286D2A6EA4FB0001FDF799FC2B6BD4
:10624800DB074CBF1623142363431C18E9E74349B3
:106258008A4271D00ED842498A4245D0414B9A426F
:10626800DED13D4BD3F8E03003F003033E4A52F849
:106278002340D6E73D4B9A42D2D13D4CD1E7364B2D
:106288001B6803F07F0363435C08CAE7324B1B6952
:1062980013F0020F0CBF142316235C43C1E72E4DE5
:1062A8002E6FD5F88000D5F8902006F07F06A4FB65
:1062B8000001FDF75DFC2B6F664313F4C01306EB7A
:1062C80000040DD0B3F5002F0CD0D5F87031294A51
:1062D8001340B3F5004F2DD09342A2D1A408A0E7F4
:1062E800A408F2E76408F0E71B4DD5F8A060D5F8DC
:1062F800B000D5F8C02006F07F06A4FB0001FDF72A
:1063080037FCD5F8A030664313F4C01306EB00043D
:106318000CD0B3F5002F0BD0D5F8703103F0404303
:10632800B3F1804F06D0B3F1404FD6E7A408F3E7A6
:106338006408F1E7640874E7074BD3F8E030C3F367
:10634800810393E7044B1B6AA2E700BF0D007000AE
:106358000D0010000D00300000800D401400E0001A
:106368000D00A0000D00E000FCC400601500E00076
:1063780040787D0100808000044BDB68DB0702D495
:106388000348FFF725BF0348704700BF00C00F4010
:106398000D00100000366E0110B504461348FFF7D3
:1063A80017FF032C1FD8DFE804F0020C1218104B5B
:1063B800D3F8003103F03F03B0FBF3F01223584346
:1063C80010BD0B4BD3F80031C3F30523F4E7084B9A
:1063D800D3F80031C3F30543EEE7054BD3F800319A
:1063E800C3F30563E8E70020E8E700BF0D003000CD
:1063F80000800D4010B5204C6069A36910F0007052
:106408001AD003F44053B3F5805F07D0B3F5005FAB
:106418000ED07BB91948FFF7DBFE01E0FFF7A6FEB7
:10642800154B5B69C3F3C2630133B0FBF3F00DE0B6
:106438001348F0E70020F3E703F44023B3F5002FF7
:1064480015D004D86BB1B3F5802F0FD010BDB3F5BC
:10645800402FFBD10D20FFF7BBFE236903F0070394
:10646800E2E70748BDE81040FFF7B2BE0220BDE8EA
:106478001040FFF791BF00BF00C00F400D00100093
:106488000D00300008B5FFF7B5FF044B5B69C3F397
:1064980082230133B0FBF3F008BD00BF00C00F40FA
:1064A80008B5FFF7EFFF044B5B69C3F30123013322
:1064B800B0FBF3F008BD00BF00C00F4010B5084C9A
:1064C800E3695B0608D5FFF751FEE36903F03F0374
:1064D8000133B0FBF3F010BDFFF7E2FFF5E700BFB3
:1064E80000C00F4010B504461348FFF771FE032C97
:1064F8001FD8DFE804F0020C1218104BD3F8F03064
:1065080003F03F03B0FBF3F01223584310BD0B4BCD
:10651800D3F8F030C3F30523F4E7084BD3F8F03091
:10652800C3F30543EEE7054BD3F8F030C3F3056337
:10653800E8E70020E8E700BF0D00100000800D40EC
:1065480010B50C4C63695A0610D563691B0609D54A
:106558000120FFF7C7FF6369C3F302430133B0FBB0
:10656800F3F010BD0220FFF717FFF4E7FFF742FF33
:10657800F1E700BF00C00F4008B51B2863D8DFE86B
:1065880000F0111115191D210E252A2C313335491A
:106598004B4D525456585A5C5E60373B3F434FF45C
:1065A800004008BDBDE80840FFF76CBFBDE80840E3
:1065B800FFF7C6BFBDE80840FFF772BFBDE8084057
:1065C800FFF77CBFBDE80840FFF7D0BD0D20BDE850
:1065D8000840FFF7FDBD1D48F9E70020BDE8084069
:1065E800FFF780BF0120F9E70220F7E70320F5E76E
:1065F800BDE80840FFF7C0BEFFF7BEFE8008D0E741
:10660800FFF7BAFEC008CCE7FFF7B6FE0623B0FBDB
:10661800F3F0C6E70E48DAE70E48D8E70020BDE8F1
:106628000840FFF7B9BE0120F9E70220F7E7032089
:10663800F5E70948CBE70948C9E70948C7E7094822
:10664800C5E70948C3E70020ABE700BF0D0010000D
:106658000D0020000D0030000D00E0001400E000E7
:106668001500E0000D0070000D00A00038B51F4AAD
:106678001F4B52F8304002EBC00253F820305568E7
:10668800DAB202F1804202F57C221168C3F30422D7
:10669800C3F34C3393400B400621D340154A01FB0A
:1066A8000022D05CFFF768FF7CB1E3B2C4F3042298
:1066B80003F1804303F57C231968C4F34C339340FA
:1066C8000B40D3400133B0FBF3F0EBB2C5F3042227
:1066D80003F1804303F57C231968C5F34C339340D9
:1066E8000B40D3400133B0FBF3F038BD0CC500605C
:1066F80094C50060FECD00602D492E4A08B50B896F
:1067080023F001031B041B0C0B81138923F00103E5
:106718001B041B0C13810B88580705D50B8823F025
:1067280004031B041B0C0B8013885B0705D5138817
:1067380023F004031B041B0C13801F4B1A689004DE
:1067480030D51E4A5A604FF6FF729A601A6822F0D6
:10675800A00242F020021A604FF0E0231A69D10724
:1067680003D51A6922F001021A61154B5A6992037E
:1067780015D45A6912F4003211D1BFF34F8FBFF309
:106788006F8FC3F85022BFF34F8FBFF36F8F5A69D3
:1067980042F400325A61BFF34F8FBFF36F8F02F09C
:1067A8009AFD08BD4CF220525A604DF62812C9E7EE
:1067B80000800B4000000D4000C00B4020C528D9C8
:1067C80000ED00E000F01F02084B000A914003EBC7
:1067D800800003239340DA4310B550E8003F13408C
:1067E8000B4340E80034002CF7D110BD68C00F40BF
:1067F8000346054A002052F8041B994202D0013092
:106808000928F8D1704700BFD8C500602DE9F84FB6
:106818004FF00A090B68002704460D4609FB02FAE7
:106828004FEA83089E464FF0040C3E4641F6FF7B34
:10683800BAFBF8F105319844B1FBF9F189B2594531
:1068480028BF5946012938BF01210CFB01F0B2FBD2
:10685800F0F0834234BFC01A181A704598BF5FFA27
:106868008CF70CF1010C9CBF86460E46BCF1210F3B
:10687800DED16422B3FBF2F303EB43037345C0F0AC
:106888008C802046FFF7B4FF454B032133F91000F5
:10689800FFF798FFA3683A1F013F43F00203032A5A
:1068A8004FEA0767A360A36807F0F85723F00203CD
:1068B800A360236998BF43F4003323F01F2323F018
:1068C800FF033B4333432361236923F000532361D0
:1068D800A369EA7B23F4E2632979120223F0070310
:1068E80002F4E0620B431A43AB7B9B0003F0040302
:1068F80013436A79012A4BD1002946D023F4006357
:10690800A361EB7922695B0322F4005203F400537C
:10691800134323616A7A2B7A43EA0243E362A36A48
:1069280043F08803A362A36A43F44043A3626B7BEA
:106938002A7B1B01616A520103F0100302F0200256
:1069480013430B436362AB7A1BB1636A43F00803DA
:106958006362EB7A1BB1636A43F001036362A9794E
:10696800104B114A002918BF1A4663691343636123
:106978002A7CA3690AB143F400236A7C0AB143F470
:1069880080230020A361BDE8F88F43F40063B7E7D4
:106998000029B5D043F01003B2E740F22150F2E7E6
:1069A80038C7006000C01FE000C01FC010B5C36A30
:1069B80013F4E06FFBD143695B02FCD54369002403
:1069C80043F0C02343F4F81343618461FFF710FFD9
:1069D800034B214633F91000BDE81040FFF7F2BE23
:1069E80038C700604269836A03481B0C03F0C3037D
:1069F80013431840704700BFC3C0FFC110B58B07D1
:106A08000C4C04EA010407D0826A230422F4703291
:106A180003F4403313438362436903F078532343F9
:106A28004361FFF7DFFF204240F21A5008BF002001
:106A380010BD00BF03C01FC0002910DD00F01F03F8
:106A48000B44BFF34F8F06490344C1F85C02203062
:106A58001A1A002AF9DCBFF34F8FBFF36F8F704704
:106A680000ED00E0044B1B685840430840425B427D
:106A78001843C017704700BFD04700808842F0B560
:106A880004D004380025084FAA4200D1F0BD3E6862
:106A980050F8044F5E4024EA060451F82560013599
:106AA8001E4034430460EFE7D04700802DE9F04FE3
:106AB8008BB01C4601258146DDF854804FEA840AD4
:106AC800179E10464FEA48130F460492502B34BFC6
:106AD8002B46032305FA03FB099304FA03F306EB99
:106AE8008303089303EB8403059302F040FE5246A8
:106AF80000210690304602F044F8059B356006EB0D
:106B08000A0503933146069B3046169ACDE90143A0
:106B1800049B0093234602F03BFE39465246284622
:106B280002F024F8022329460793079B9B4556D178
:106B38000027524631464846BB463D4602F016F805
:106B4800059B4A46494648460393069BCDE90143BF
:106B5800049B0093234602F01BFE002D58D108F138
:106B6800FF381F25149B0BF1010B53F82830EB401D
:106B780003F0010343EA4707099B5B4504D0002D56
:106B8800DED1B8F1000FDBD131464FF0000B214BBD
:106B9800224618681B685840784080EA0B000BF1C1
:106BA800010BFFF75FFFC3430898FFF767FF079BD9
:106BB80051445B45EBD1059B4946089A48460393E7
:106BC800069BCDE90143049B0093234602F0E0FDB8
:106BD800C5B9B8F1000F18D10BB0BDE8F08F059B0F
:106BE80001EB0A072A4603933846069BCDE9014381
:106BF800049B0093234602F0CBFD079B39460133E3
:106C0800079392E70027BB469AE72F46AB4697E7DC
:106C1800013DA7E7D0470080054B013101321B68D1
:106C28004340084022EA03020243501E00B2704764
:106C3800D04700802DE9F04F99B083460F4618469B
:106C480000211646039302F0F3FF002800F0898123
:106C5800784B002401250399149315AB3046139300
:106C6800CDE90B45CDE90D45CDE90F45CDE91145F8
:106C780002F067FFA04228DABBF1000F05D1E7B99F
:106C88000024204619B0BDE8F08F2146584602F08E
:106C9800E0FE04460028F2D00BA802F027FE0DA85B
:106CA80002F024FE0FA802F021FE11A802F01EFE39
:106CB8000C2115A800F03AFBE3E73146384602F00C
:106CC80093FE04460028E7D1DAE731460BA802F024
:106CD8008BFE04460028DFD103990DA802F084FE3C
:106CE80004460028D8D1F1880FA8ADF838500231F1
:106CF800ADF8305002F008FE04460028CCD1014619
:106D08000FA802F0A6FE04460028C5D1F18811A8F4
:106D1800023102F0F9FD04460028BDD10DA802F0A9
:106D2800C4FE00F01F001F2873D0C0F11F030BA87A
:106D38001946019302F0DFFE04460028ACD1019900
:106D48000DA802F0D8FE04460028A5D1BDF832509F
:106D58000DA8BDF83A80A5EB080A4FEA4A1949463A
:106D680002F0C9FE0446002896D14FEA8A0A0DA906
:106D78000BA802F015FF00284DDA49460DA802F0CD
:106D8800D7FE0446002887D108F1FF3305F1FF3A02
:106D980005F1804505939B00013D069308F180436A
:106DA800A5EB0805023B9B000893AB000293059BEB
:106DB8009A4541D8BBF1000F0DD00FA9584602F0F3
:106DC80013FE002840F0C980039AB388928813FB09
:106DD80002F3ABF80430002F3FF45EAF01990BA823
:106DE80002F0A6FE002840F0B880B3880BA9384608
:106DF800ADF8303002F0F8FD0146002840F0AF80D1
:106E0800384602F015FF00287FF446AF0123BB8007
:106E180042E701949AE70F9A0BA952F80A300846FC
:106E2800013342F80A300DAA02F0E7FF04460028B1
:106E38009DD031E7010003000D9B4FEA8A08069AAE
:106E480004931344DDF82C900F9D0793049B59F885
:106E58002A109A58A8F1040391420993029B1D44F1
:106E680076D2A8F10400002359F80000FCF780FE50
:106E7800002914BF4FF0FF330346BAF1010F2B600E
:106E880016BF09EB0803002353F8083C1593A8F133
:106E9800040359F80330169359F80830DDF81080C8
:106EA80017932B6801332B60089B98442B680021AB
:106EB80011A8013B2B6002F0CCFD00284DD1059BA9
:106EC800002B48D0D8F80020119B11A91A60084659
:106ED800079A12685A602A6802F093FF00283CD18A
:106EE80013A911A802F05CFE0028DFDC2A680DA9AE
:106EF80011A802F086FF80BB029B11A84FEAC308C5
:106F0800414602F0F8FD40BB0BA911AA084602F061
:106F180074FF014618BB0BA802F08AFE002812DA9B
:106F28000DA911A802F060FDB8B9414611A802F0F8
:106F3800E2FD90B90BA911AA084602F05BFF60B9FF
:106F48002B68013B2B60029B0AF1FF3A043B2DE7BB
:106F58004FF0FF3391E7059AB6E704469CE60C46E6
:106F68009AE66FF00B048CE62DE9F74F90461F4A1E
:106F780006460F461568002B14BF9A468A46002419
:106F88004540ED4304F104090C9B4B4505D20C9B8D
:106F98009C4220D303B0BDE8F08F042208EB040123
:106FA8000DEB020001F0E2FD019A0AEB040106EA8A
:106FB800020B04220DEB020001F0D8FD019A3819EA
:106FC8004C462A4042EA0B02019204220DEB0201D0
:106FD80001F0CCFDD6E718F804301AF80420334045
:106FE8002A4013433B550134D1E700BFD047008006
:106FF800082804D00928034818BF00207047024811
:10700800704700BF64CE006067CE00600168034629
:107018000D4A914215D1A2F11022C169A2F1EF12D5
:1070280091420ED18268012A0BD8C26812B1016957
:107038008A4206D0586928B19B691B1A58425841A0
:1070480070470120704700BF55AA00FF0D4B70B56F
:107058009E68A6B13046FFF7D9FF044678B9F368B1
:107068006BB935690DB9204670BD2846FFF7CEFFCC
:1070780028B9EB68B34202D12E462D69F2E7012404
:10708800F1E700BFD44700802DE9F8433F4F3C6843
:10709800D4B1BC68C4B100284AD0002948D001FB4B
:1070A80000F5B5FBF0F0884242D1281D40D8A90769
:1070B8000DD025F003060436FC6803E06368B3428C
:1070C80038D2A469002CF9D12046BDE8F8832E46B1
:1070D800F2E7FB6041E006F12001203A2C486318F2
:1070E8005A600022C3E9022422691A6160502949C2
:1070F800D96102B1D36062695A61A1699961AAB183
:1071080093619A6902B1536123614FF00109002329
:10711800C4E90169C4E905333B69DB072ED5FFF7EC
:1071280095FF58B31C4B48461B6826E0FB60E8E710
:107138000024C9E7A3681BB1174B01201B689847B7
:10714800626804F12008921B232AC4D80123A36093
:10715800D4E90523002ABCD09361A3690BB1626905
:107168005A610023C4E905333B69DA0706D5FFF7FE
:107178006DFF18B1084B01201B6898472A4600216B
:107188004046444601F0FDFC9EE700BFD44700801E
:1071980055AA00FF669911EEDC00008070B505461F
:1071A800002800F08880444E3368002B00F083806C
:1071B800B268002A7FD0834203D872681344984289
:1071C80003D33E4B01201B689847A5F120042046B5
:1071D800FFF71CFF18B1394B01201B68984755F879
:1071E800183C012B03D0354B01201B68984700231E
:1071F80045F8183C55F8143C3BB39A682ABB55F837
:107208001C2C02F120015A680A445A6055E90532DB
:107218001A6155F8145C2B6903B1DD602022002146
:10722800204601F0AEFC286910B18368002B2ED0EF
:1072380033699B073FD5FFF709FF00283BD01F4B59
:1072480001201B68BDE87040184755F8100C00284D
:107258002AD0836843BB4268636813442033636061
:1072680003692361D4E905239AB9CBB943696361FA
:107278008269A261B3B19C61A36903B15C612369AE
:1072880003B1DC602022002101F07BFCD0E72C4612
:10729800E1E79361A369002BE8D062695A61E5E7E9
:1072A800F360F7E7F460E7E7F36845F8083C03B1F3
:1072B8005C61F460BCE770BDD4470080DC000080EE
:1072C80038B514220C4605460021144801F059FC33
:1072D8001349144800F042F8232C1DD915F0030374
:1072E8004FF000011FBF043CE418C3F10403ED187C
:1072F8002246284601F045FC084B0B499D60C3E92E
:107308000054203C6C609A681160A1F110219A68C1
:10731800A1F1EF11DA60D16138BD00BFD447008018
:10732800A57100609170006055AA00FF10B50A466B
:10733800044619B1024B00211B68984710BD00BFD5
:10734800D8000080014B1B68184700BFE40000808C
:10735800014B1B68184700BFE0000080024B186013
:107368000020024B19607047E4000080E0000080B4
:10737800F8B500F10806476804460D46304602F0A5
:1073880098FB87424BD16368B3F5807F47D80021CB
:10739800304602F04DFC002841DD0021304602F065
:1073A80074FBE0B345B9294604F1100002F040FC33
:1073B800002834DD0020F8BD04F12005002128460E
:1073C80002F036FC00282ADD0021284602F05DFB89
:1073D80028B304F128050021284602F029FC0028DA
:1073E8001DDD0021284602F050FBC0B1002104F148
:1073F800100002F01DFC002811DD002104F130000E
:1074080002F016FC00280ADD002104F1380002F021
:107418000FFC002803DD002104F14000C6E7014805
:10742800C9E700BF80BFFFFF012938B505461446EC
:1074380001D0074838BD22B901230020C5E91C3412
:10744800F8E71046FFF7D4FD0028F5D1F1E700BFB3
:1074580000BFFFFF70B500210446FFF789FF05460E
:1074680010B10E4D284670BD04F10806304602F0F2
:107478001CFB7F28F5D910342946204602F005FB6D
:107488000028EED0204602F010FB0128E9D9314649
:10749800204602F085FB0028E4DBE2E700BEFFFFA0
:1074A800F0B50C4685B0002105461646FFF760FF8B
:1074B800002839D102A802F014FA21466A6802A805
:1074C80002F0FDFA044618B102A802F00FFA0CE027
:1074D80005F1080402A8214602F062FB002807DB38
:1074E8006FF0030402A802F001FAA4F5854418E03D
:1074F80005F1480302A96F6805F1100200930846D8
:10750800234602F0E1FC04460028DDD13A46314624
:1075180002A802F0EAFA044602A802F0E7F9002CF1
:10752800E3D1204605B0F0BD004CFAE780BFFFFF6D
:10753800012903462DE9F04143D80029224A234F67
:1075480018BF9046224A234E18BF964602F1794248
:10755800214802F57402214D08BF8046204802F5F3
:107568000162204C08BF86461F4818BF94461F4A30
:1075780008BF84461E4818BF17461E4A996618BF9A
:10758800164602F1D14202F5C01202F51E6218BF7A
:107598001546194A18BF1446A2F11162A2F50C2229
:1075A800A2F28E2218BF02460020C3E9128EC3E958
:1075B8001000C3E914C7C3E91665C3E91842BDE85A
:1075C800F0816FF07300FAE7D89E05C13AF54FA530
:1075D80007D57C367F520E5167E6096A8C68059B91
:1075E80085AE67BBABD9831F72F36E3C39590EF772
:1075F800A44FFABE310BC0FFA78FF9642DE9F04FF5
:10760800CFB000F1640300F144070DF58A790093C7
:107618003B4601914A4653F8041F42F8041F00995B
:107628009942F8D104ADDFF804A14FF000082C46C8
:10763800B8F10F0F63D8019B042203A803EB88015C
:1076480001F094FA039802F0BBFDA86008F1010864
:10765800D4F818C104355AF8041BB8F1400F4FEAA2
:10766800FC22D4E9476382EABC1283EA0603D4F811
