:020000040000FA
:10000000805C0020691E000075570000551E00002E
:10001000551E0000551E0000551E00000000000087
:10002000000000000000000000000000691F000048
:10003000551E000000000000551E0000551E000067
:10004000E9200000E9200000E9200000E92000008C
:10005000E9200000E9200000E9200000E92000007C
:10006000E9200000E9200000E9200000E92000006C
:10007000E9200000E9200000E9200000E92000005C
:10008000E9200000E9200000E9200000E92000004C
:10009000E9200000E9200000E9200000E92000003C
:1000A000E9200000E9200000E9200000E92000002C
:1000B000E9200000E9200000E9200000E92000001C
:1000C000E9200000E9200000E9200000E92000000C
:1000D000E9200000E9200000E920000053B94AB9F6
:1000E000002908BF00281CBF4FF0FF314FF0FF3040
:1000F00000F00CB8ADF1080C6DE904CE00F008F882
:10010000DDF804E0DDE9022304B07047704700BF6A
:100110002DE9F04786468C460846089E15467446EB
:100120001946002B40F0C2808542B2FA82F245D9CE
:100130004AB1C2F1200300FA02FC2EFA03F3954003
:1001400043EA0C0C94404FEA154EA8B2BCFBFEF8F3
:10015000230C0EFB18CC08FB00F943EA0C4399452D
:1001600028D9EB1808F1FF3704D2994502D9A8F134
:1001700002072B44A3EB0903A4B2B3FBFEFC0EFB66
:100180001C330CFB00F044EA0344A04214D92C19A0
:100190000CF1FF3304D2A04202D9ACF102032C448B
:1001A000241A43EA07401EB1D44000233460736030
:1001B000BDE8F0874746DDE76346F1E792BB431BA6
:1001C00001214FEA154EAFB2B3FBFEFC200C0EFB33
:1001D0001C330CFB07F840EA0343984562D9EB183F
:1001E0000CF1FF3004D2984502D9ACF102002B4447
:1001F000A3EB0803A4B2B3FBFEFC0EFB1C330CFB09
:1002000007F744EA0344A7424ED92C190CF1FF33F7
:1002100004D2A74202D9ACF102032C44E41B43EA06
:100220000040C0E7C2F1200320FA03F1954090405E
:100230002EFA03F303434FEA154EAFB2B1FBFEFCB7
:100240000EFB1C10190C0CFB07F841EA0041884515
:1002500004FA02F422D969180CF1FF3004D288455F
:1002600002D9ACF102002944A1EB08019BB2B1FB19
:10027000FEFC0EFB1C110CFB07F743EA01439F42F7
:100280000ED9EB180CF1FF3104D29F4202D9ACF128
:1002900002012B44DB1B41EA004192E76046E3E7A1
:1002A0006146F7E76046A3E76346B7E7834206D9AE
:1002B00016B9002108467BE7C6E900E0F9E7B3FA82
:1002C00083F78FB9834201D3724508D8BEEB02048D
:1002D00060EB030301209C461EB9002168E7384605
:1002E000FAE7C6E9004CF8E7C7F1200CBB4022FA58
:1002F0000CF41C432EFA0CF120FA0CF3B840014325
:100300004FEA14490EFA07F5B3FBF9F81FFA84FE19
:1003100009FB18300B0C08FB0EFA43EA00439A4520
:1003200002FA07F240D9E31808F1FF3004D29A45E7
:1003300002D9A8F102002344A3EB0A0389B2B3FB5C
:10034000F9F809FB183308FB0EFE41EA03418E451C
:100350002CD9611808F1FF3304D28E4502D9A8F1D7
:100360000203214443EA0040A0FB0298A1EB0E01E6
:100370004145CE46434602D306D14D4504D2B9EBA2
:10038000020E68EB04030138002EA6D0B5EB0E0276
:1003900061EB030101FA0CFC22FA07F34CEA0303B8
:1003A000F940C6E9003198E74046C5E74346D9E73A
:1003B000F0B52E4B2E4AC3F800262E48C3F804266B
:1003C00085B0C3F808264921C3F80C26C3F81026C7
:1003D000C3F81426C3F81826C3F81C2605F048F9FC
:1003E00000F078F801A800F0FBFC234B1B68834267
:1003F00004D02248452105F03BF9FEE7039A204846
:10040000492105F035F91F48492105F031F94FF42C
:100410004041002005F035FC044620B11A48452132
:1004200005F026F9FEE769469DF8080000F030F86F
:10043000009B039D1D44019B1E8902F0F9FEAF192C
:1004400000F0EAFF00F0BEFF01F04AFDAB5983F374
:10045000088884F31488BFF36F8FBFF36F8F7B68B6
:1004600098470A48452105F003F9FEE700000140DE
:100470003546526EB476000060010020CD76000053
:10048000F07600001F7700004477000077770000C7
:1004900008B5024638B105480023452105F0E8F8C3
:1004A0006FF0150008BD0860FCE700BF9A770000F8
:1004B00021B1012906D06FF015007047044B53F8A5
:1004C00030007047024B03EBC0035868704700BF11
:1004D000D873000002484FF4C05103F075BB00BF51
:1004E0001C0F00202DE9F04FF9B0DDE98489DFF819
:1004F000BCB1869FDBF8005038A816461C4606F0B3
:10050000D9FC002138A803F095FCB8F1000F07D002
:10051000B9F1000F04DD4A46414638A806F0D3FC85
:1005200033897289D6F80CA013449A444FF000081E
:10053000C24544D80DA938A806F004FD27B12022F1
:100540000DA9384605F076F90023009322464FF6B0
:10055000FF73314607A804F069FD804660BB204662
:100560000C9E00F0D9F9864226D8DFF844914FF06E
:10057000FF370DF1160305AA06A907A804F0A4FD8C
:10058000002819DB40F08A80BDF81660102E2ED1AD
:10059000BDF81460202E0FD10699334638AA2046A4
:1005A00005F074F840B9324638A90DA804F0D8FD1A
:1005B000404B1B68834217D0DBF8005071E0839BEF
:1005C000829AAAEB0809994528BF99464B464146AD
:1005D000204605F05BF80028EED182994A4638A8FB
:1005E00006F071FCC844A3E74FF00108C1E7012EF3
:1005F00035D1BDF81430202BDED8069938AA204614
:1006000005F044F807460028D6D19DF814A0BAF1A9
:10061000200F02D94FF0FF37ABE7D9F80030264E54
:100620000393039B9F42F5DA1DA806F043FC0021CB
:100630001DA803F0FFFB726856F8081B12681DA87E
:1006400006F041FC15A91DA806F07CFC524638A90D
:1006500015A805F0DFF800288BD00137E1E7202E40
:1006600087D17B1C85D0D9F80030BB42D2DDBDF8E4
:100670001430B3F5807F9FD1069938AA204605F043
:1006800005F8002898D1FFB2BDF81430009738AAB9
:1006900031460DA800F012F80546BBE7B8F1000F8F
:1006A0008AD0284679B0BDE8F08F00BF0400002052
:1006B000E073000060010020E47300002DE9F04FBA
:1006C000DFF8D4A1ADF5417D07462AA89DF828B3EF
:1006D000DAF800501E468946904606F0A4FB09222F
:1006E00001212AA803F022FB6C4B53F83B400594F0
:1006F00003EBCB0380AA5B681B681C4421463023B4
:1007000005A805F0ECFB002840F0BE80059B809A10
:1007100013449C4240F0B8802CAA214605A805F05D
:10072000F2FB002840F0B0800DF1B80B5A4621468C
:1007300005A805F0E8FB0390002840F0A5802CA850
:1007400005F0FFFE059A2B90944240F09D80039B9C
:10075000CDF804B000931A462CA92AA806F020FB75
:10076000002840F091802AA803F0F6FA002840F013
:100770008B802CA805F0E5FE2B902AA806F05DFBE7
:10078000864240F08180B6F5807FDAF800507BD158
:10079000B9F1200F78D180AA41462AA803F002FBC4
:1007A0000446002870D19DF8FF32BC2B6CD1069016
:1007B0000DF59079DF260FA806F07CFB00210FA82D
:1007C00003F038FB20220DF2DF210FA806F07BFB9F
:1007D000042206A90FA806F076FB07A90FA806F0C9
:1007E000B1FB202E9DF81B30B046A8BF4FF020086B
:1007F00001334846424607A9A6EB08068DF81B3090
:1008000005F018F8002EC144D5DC48AB80AA184684
:1008100000219C46067812F801EB013186EA0E06AB
:10082000DF2900F8016BF5D11A7802F07F021A7007
:1008300013F8016B46BB0134BE2CF9D19CF8BE30D5
:10084000012B21D10FA806F035FB31460FA803F08C
:10085000F1FA134908220FA806F035FB3946202289
:100860000FA806F030FB20220DF2DF110FA806F0D2
:100870002AFB07A90FA806F065FB20220DF2DF2155
:1008800007A804F06DFC05462AA806F0D8FA284609
:100890000DF5417DBDE8F08F04000020E4730000F9
:1008A000C0770000094A0B78400052F820108B42B4
:1008B00009D0013052F82000834214BF4FF0FF30BE
:1008C0004FF4C07070474FF4C0707047EC73000075
:1008D0001FB50F4B13F830000C4601F017F950B953
:1008E0002068816810236A46103904F0CFFE28B1D1
:1008F000206804F0CAFE4FF0FF3006E005491022E0
:10090000684604F087FF0028F2D104B010BD00BF94
:10091000EC730000A476000013B5044604F027FC35
:100920006A460146204604F068FB30B10448452180
:1009300004F09EFE002002B010BD0098FBE700BF4F
:10094000C87700002DE9F041364B88B006460020FC
:100950000D461C68FFF7ACFD06A9C0B201F0D6F841
:10096000002858D12946FFF7A3FD2C2407A9C0B2BF
:1009700004FB056401F0CAF8002833D02C276F432C
:1009800006EB0708069BD8F8101011F0100138D1BB
:100990004FF480720192244A0092CDE9031122465D
:1009A00002910846FFF79EFD0446204BF259069837
:1009B0009A420CD1D8F80C20B8F808309B1806D20F
:1009C0008268934203D21A4B1B68A34220D035B3EE
:1009D0008268002104F084FE164A1748452104F07D
:1009E00047FE13E0079804F096FE0746079804F0C8
:1009F0004CFE631EE21C13F8011FB942BED19342A4
:100A0000F9D11DB10699304604F09BFC0B4B1C68D4
:100A1000069804F03AFE204608B0BDE8F081084A86
:100A2000DBE700BF040000201C2700203DB8F39640
:100A3000600100200B780000157800000000002005
:100A4000037800007FB50D46044600212846CDE915
:100A5000021104F035FC28B32368194EB34203D1C8
:100A600003AA204604F0C1FBE36AB34204D102AA00
:100A70000121204604F0B9FBDDE90232934288BF30
:100A80000393039BAB60039A2946204600F0A2FB28
:100A90000C4B1A68002A03DD0B48572104F0E8FDCF
:100AA00004B070BD01A9FFF713FF019805F108011B
:100AB00004F068FBAB680198039304F0E6FDE2E7FD
:100AC0003DB8F396C40D00203D7800002DE9F84FA5
:100AD000DFF870B01C4C1D4D884691469A460026A2
:100AE0000B9B9E4201D300200FE00B9B154A9F1BDE
:100AF000B7F5806F28BF4FF480673B4606EB0A01CD
:100B0000404604F0C3FD10B10120BDE8F88F0A99FA
:100B10003B465A467118484604F0CDFD0028F3D1F3
:100B2000C4F800563E44C4F80456C4F80856C4F845
:100B30000C56C4F81056C4F81456C4F81856C4F825
:100B40001C56CDE764090020000001403546526E76
:100B5000F0B5994B43620E46984B0365002189B06E
:100B600004460846FFF7A4FC04F120010546C0B284
:100B700000F0CCFF0346E8B90121FFF799FC04F12E
:100B80004C010546C0B200F0C1FF0346E0B9204663
:100B900004F06CFB0546C8B900221146204604F05B
:100BA0000EFB054660B386480022572104F060FD25
:100BB00001239CE00022CDE90023824800232A463D
:100BC000452104F055FDFEE70122F4E77E4880222E
:100BD000572104F04DFD01239D4284F85830DBD1AC
:100BE00094F858308DF81730042B00F28380012BD5
:100BF00000F2878000F09A80FF2384F8583095E057
:100C0000204600F0FFF90028D2D004A804F04FFBE2
:100C10000146204604F0EAFB18B16C482A465721E9
:100C2000C4E704A804F04CFB80F0010104AAC9B297
:100C3000204604F0C4FA02460028B4D104A804F007
:100C40003FFB054660BB04A92046FFF7FBFE9DF86D
:100C5000173084F85830033B012B06D8284600F0A3
:100C6000E5F810B1FF2384F858309DF81730023BA7
:100C7000022B0BD8002000F0C3F838B1FF2384F812
:100C800058305348452104F0F3FCFEE794F85830FF
:100C9000FF2BF6D004AA0021204604F090FA87E743
:100CA0009DF81770012F17D1104602F04FFB831EDD
:100CB000022B05460DD839462046FFF743FE454B2B
:100CC0001B68984205D0444B1D68A84214BF0525F7
:100CD000012584F8585083E701212046FFF732FEB2
:100CE0003C4B1B6898420CBF9DF81730052384F8D5
:100CF000583075E7052B7FF47FAF002000F096F8A1
:100D000011E004A92046FFF79DFE94F85830DA1E42
:100D1000012A14D8002000F089F800287FF46CAF75
:100D2000002000F06DF800287FF466AF94F858308A
:100D3000FF2B07D12648452104F09AFCFEE7022B41
:100D4000F4D1EDE70022012B244D039214D011467B
:100D5000204604F034FA78B12D68102200210DEB02
:100D6000020004F072FDE06C04F08FFC206A04F0D5
:100D70008CFC284609B0F0BD00212046FFF7E2FDBB
:100D8000144F3B689842E7D12B689842E4D0124B4D
:100D90001B689842E0D0039B01330393039B012B14
:100DA00000D0FEE7206A04F026F93071236A5B6800
:100DB00034603D68B360D0E7640500206401002022
:100DC000FB7800006C780000B978000027790000FB
:100DD0005179000060010020000000200400002084
:100DE00038B5064D044660220021284604F02DFD4A
:100DF00021462846FFF7ACFE38BD00BF640D002039
:100E000013B5094B01A913F8300000F07FFE48B973
:100E1000019805F028F80446019804F036FC2046B5
:100E200002B010BD0124FAE7F47300001FB50F4BA8
:100E300001A913F8300000F069FEA8B9019802A9D1
:100E400002F02EFA044668B99DF80B30032B03D14B
:100E5000019804F0D6FF0446019804F016FC2046E1
:100E600004B010BD0124F7E70124F8E7F473000093
:100E70002DE9F34106460C4617461D460BB90026E0
:100E800028E0184604F01CFA0028F8D16946FFF75C
:100E90001FFD009838B90124009804F0F6FB2046A5
:100EA00002B0BDE8F08101A904F06CF90028F2D18C
:100EB000009804F0EAFB3046019904F0D3FA736A13
:100EC0005E686B79012B21D1002CD8D12B6883422D
:100ED00098BF002621460020FFF7EAFA6946C0B213
:100EE00000F014FE0028D6D1009820233A4631465F
:100EF00004F0CCFB04460028CDD1002DCCD03C68BA
:100F00000D4BE41A18BF4FF0FF34C5E7022BB6D1E2
:100F10002B68012B05D98342B1D8B4FA84F4640953
:100F2000ADE7ACD1002CD5D0012CA8D12C79023C56
:100F300018BF0124A3E700BF3DB8F3962DE9F04F99
:100F4000074685B00C46014600201646FFF7AAFC6E
:100F5000051E50DB3846E46D04F009F95FFA84F9A8
:100F60006B1E09FB03084FF0000A4FF0010B4FF016
:100F7000FF349DB9BAF1010F03DD2148452104F08A
:100F800077FB631C06D07F2C2ADC013440F201136E
:100F90003460B380284605B0BDE8F08F6B1E009327
:100FA0000DF10F0201234146384604F06FFB031E8A
:100FB000019322DB01220DF10F01384604F0BCFE43
:100FC000019B40B15B4501D00AF1010A009DA8EBED
:100FD00009089B46CDE7B4F1FF3F08BF2C46F5E773
:100FE0000223803C7371631004F001040133013467
:100FF00033603471CEE70725CCE70125CAE700BF8F
:101000005D79000038B5816A426D914208D0531C69
:101010008B4205D01348572104F02AFB002038BD2D
:1010200080291CD910485721F6E7446A056D04EB66
:10103000C30405EBC30564686D68AC4202D00B487D
:101040005721E9E701339A42EFD1914205D9436A2A
:1010500003EBC2035B68A342F1D10120DFE7002369
:101060001C46F0E780790000B8790000E7790000BD
:1010700000B589B004A9022004F0D0FE9DF810202C
:10108000012A41D0254B2649032A08BF0B469DF86B
:10109000132002929DF8122001929DF81120214800
:1010A00000924921204A04F0E3FA06A9052004F041
:1010B000B5FE9DF81820012A28D0184B1849032A9C
:1010C00008BF0B469DF81B2002929DF81A20019242
:1010D0009DF8192000921348144A492104F0C8FAD7
:1010E0009DF81030012B13D19DF81230032B0FD136
:1010F0009DF81830012B0BD00D48492104F0B8FAA7
:10110000022009B05DF804FB0A4BC0E7094BD9E7A0
:101110000948492104F0ACFA0020F2E7137A0000F4
:101120001C7A0000307A0000227A0000717A0000F8
:10113000817A0000177A0000A07A000070B54B6831
:1011400014461E4A03F0FF23934286B006460D461E
:101150002FD10B68012B2CD104A9204602F0A0F856
:101160009DF81020012A26D0154B1649032A08BFE6
:101170000B469DF8132002929DF8122001929DF8D3
:10118000112000921048114A492104F071FA9DF88B
:101190001030032B0DD12146304604F0D2F8204602
:1011A00004F02FFEA968204603F0FAFF204602F063
:1011B00057F806B070BD064BDBE700BF0001000426
:1011C000137A00001C7A0000307A0000717A000067
:1011D000177A00002DE9F04F164689B005460C46F7
:1011E0007448492104F044FA3146284604F03AF99B
:1011F0006B6A824620465E6804F062F8E8B1E86DEA
:1012000003F0B0FFAF6A0023013F3344834201D2B1
:10121000013FFAE7BA4510D36748572104F028FA8E
:1012200007FB06F365480AFB0662572104F020FA23
:101230000123E37109B0BDE8F08F06A9022000F098
:1012400065FC07A9052000F061FC079A21462846A5
:10125000FFF774FF6379012B4BD1DFF864B1574678
:1012600041E02268C2F1010353449F423AD86B6ABD
:10127000196853F8370003EBC703012A53F8083CF9
:10128000A3EB0103A0EB0109049311D1079B039386
:10129000E368022B08D04146284604F052F8224663
:1012A0004146284604F083F80399284604F049F89B
:1012B00032464946404604F042F8049B42464146C5
:1012C000CDE900962846FFF701FC2146284604F0A8
:1012D00004F823680133236020B1DBF800300133C8
:1012E000CBF80030013FDDF81880002FB9D1012381
:1012F0002360022363710127BA45DDF8189006D2F6
:10130000484604F0C2F9079804F0BFF992E7236851
:101310009F424DD36A6ADDF81CB052F83710049131
:10132000FB00083B11680391D1582A6DD05813680F
:10133000A0EB03082379012B38D1039B3246C91A4D
:101340004846059103F0FBFF0599009143464A4644
:10135000594601962846FFF7B9FB2146284603F077
:10136000BCFF0223237118B1154A136801331360BF
:1013700032464146584603F0E2FFDDE90323494681
:101380009B1ACDE900865A462846FFF79FFB214667
:10139000284603F0A2FF2368013323600123237151
:1013A00030B1074A13680133136001E0022BDFD02C
:1013B0000137A1E7B77A0000E07A00000F7B000058
:1013C000C40D0020BFF36F8F72B6124B4FF0FF3287
:1013D000C3F88020C3F88420C3F88820C3F88C2089
:1013E000C3F89020C3F89420C3F89820C3F89C2039
:1013F000C3F88021C3F88421C3F88821C3F88C2165
:10140000C3F89021C3F89421C3F89821C3F89C2114
:10141000704700BF00E100E0134A4FF0FF330121A5
:101420005160C2F84833C2F8083302F5C042516037
:10143000C2F84833C2F8083302F598325160C2F856
:101440004833C2F80833A2F508320021C2F800156B
:10145000C2F8083302F5E832C2F808354FF080428E
:10146000C2F80833704700BF00B00040014B1B6852
:10147000184700BF08000020014B1860704700BFEC
:101480000800002007B50B460021024600910348E2
:1014900000F014F903B05DF804FB00BF6D14000008
:1014A0002DE9F047058B04462807904611D4022900
:1014B00005F0070540F0CD80204603F0FFFF78B12E
:1014C0000138218B042811D8DFE800F0C3106D85A6
:1014D000950001290CBF45F0100545F02005258336
:1014E00088F31188BFF36F8FBDE8F08701F0070A1A
:1014F000AA4500F0A6800027B9463E46A368002B07
:1015000000F0BD8041F00801218388F31188BFF30A
:101510006F8FA168002900F0BB800D68002900F0E2
:10152000B780D1F80480334652462046C047002D8C
:1015300076D02B6829461D46F0E701F007035A1FB5
:10154000012A1BD8002221F00701062B276889B247
:10155000C4E9002209D13B4603E0628B0132628379
:101560001B68002BF9D141F002012183204603F0D2
:10157000A5FF00287BD041F0200177E0042B0AD1A1
:1015800021F0070189B22183204603F097FF10B1B3
:1015900041F020012183218B01F0070AAA4550D098
:1015A0000027B946AAE7236921F0070141F00601A7
:1015B000062DD3F8009021832DD1B9F1000F40D032
:1015C00041F00801218388F31188BFF36F8F3A49F6
:1015D0002046C84729E021F00701236941F00401B2
:1015E00089B2042DD3F804902183E6D000273E462B
:1015F0004FF0040A82E721F00701236941F0050159
:1016000089B2052DD3F808902183D6D000273E4615
:101610004FF0050A72E700273E464FF0060A6DE7D5
:101620002B4687E7B9F1000FD1D14FF02003EFF33C
:10163000118883F31288BFF36F8F238B23F0080385
:101640002383258BEA062ED525F01003238305F08E
:1016500007056669218B002EBFF66FAF0023276850
:10166000C4E9003321F0070141F001012183218BFE
:1016700001F0070AAA454FF000097FF43FAF002FA1
:101680009BD041F00801218388F31188BFF36F8F4D
:10169000002FC7D03D68394633465246204603F0F6
:1016A00039FF2F46F4E7AB067FF51AAF25F020038C
:1016B000238305F00705FFE6415500002DE9F04FB3
:1016C0008DB01D46531E8246019103934FF00009D1
:1016D000039B5878252803F1010419D11E460020E8
:1016E0004FF0FF38023603460290444631780396A5
:1016F000392954D81F2914D8002900F0EE81019906
:101700002520D04701993078D04709F10209DFE759
:10171000002800F0E2810199D04709F10109039402
:10172000D6E7A1F12002192AE9D801A757F822F03B
:1017300099170000FF160000FF160000991700001F
:10174000FF16000019180000FF160000FF16000029
:10175000FF160000FF160000651800009917000032
:10176000FF1600007918000025180000FF16000081
:1017700033180000531800005318000053180000DD
:1017800053180000531800005318000053180000AD
:10179000531800005318000008460136A6E75829E0
:1017A00000F0EB80A1F16302D7B2172FA7D8172A58
:1017B000A5D801A757F822F0211A00009F180000B1
:1017C000FF160000FF160000FF1600007F18000043
:1017D0009F180000FF160000FF1600007F18000091
:1017E000FF160000FF160000FF160000551900004C
:1017F000FF160000FF160000F5190000FF1600009C
:101800009F180000FF160000FF1600005519000089
:10181000FF1600007F18000001992520D04709F12C
:10182000010955E7029A02F0FE0202924FF0000809
:10183000B3E7002C0DDAB8F1000F0DDA029A002A96
:1018400000F0438124EAE4740A2202FB0414303CD1
:10185000A3E7B8F1000FF5DB0A2202FB0812A2F1A0
:1018600030089AE7B8F1000F55F8042B80F22F8169
:10187000002A80F22E815442022202928DE76829CA
:1018800003D1682B06D1482387E76C2902D16C2B42
:1018900000F02181002B7FF432AF0B467DE77A2BDD
:1018A00006D1752955F8046B14D14FF0000B0CE0EC
:1018B0006C2BF6D04C2BF4D1073525F00703752996
:1018C000D3E9006B03F1080506D120283BD1854FF1
:1018D000013C09E04FEAE67BBBF1000FF5DA764206
:1018E000814F6BEB4B0B013C0DF12D030593002356
:1018F0000493304659460A220023FEF7EFFB059B6E
:10190000303203F8012DB4460593049B5A46BCF1CE
:101910000A0F8B4672F1000203F1FF310646049173
:10192000E7D2C3F1010B30330DEB0306B8F1000F22
:10193000A6F104066DDA029BD9077DD4A8EB0B0350
:10194000A4EB0B0413E02B280ABF684F684F04F187
:10195000FF34C9E770290FD155F8042B0023FAB9D9
:10196000634F644E053C6FF004034FF0050B029A81
:10197000920770D4A04666E078216C2B03D155F80D
:10198000042B002308E04C2BF9D1073525F0070381
:101990001D465B6855F8082B232825D1880621D5DC
:1019A000554F023C01F06001A1F1390B0DF12D0EF4
:1019B000002602F00F01092988BF594430310EF882
:1019C000011D102A4FEA121141EA03714FEA131C5C
:1019D00073F1000306F1FF3008D2C6F1010B06F1E6
:1019E0003003A1E7454FDCE7414FDBE706460A46F7
:1019F0006346DEE755F8046B304603F004FFB8F1A8
:101A0000000F834602DB4045A8BFC346384F4FF066
:101A10000008A8EB0B03002B92DDA4EB0804A6E75B
:101A200055F8043B8DF81830314F013C4FF0FF332F
:101A30004FF0010B06AE9AE7A046EAE70293019940
:101A40002020D047029BB8F10108F7D524EAE472C0
:101A5000013C9144A41AB84606E00493029201990D
:101A6000D047029A049B9046424612F8010B002888
:101A7000F3D11A46013A15D5002BACBFC7EB0307CB
:101A80007F425B46013B15D5BBF1000FA8BF5F4409
:101A90004F442646013E14D5002CA8BF3F1907EB42
:101AA000080915E60493029201993020D047049B5F
:101AB000029ADFE70293019916F8010BD047029BC7
:101AC000E0E701992020D047E4E70122D5E69046DF
:101AD00063E6144661E64C235FE648460DB0BDE878
:101AE000F08F00BF507C00004E7C0000527C000054
:101AF0005C7900005A7C0000547C0000577C000098
:101B0000014B0360002070470074000070B5114B5A
:101B10001C680D46DCB1104B196800238B4202DBB8
:101B20006FF0010070BD224612F8106B864202D0A1
:101B300001331446F2E7E06810B96FF01200F1E7E4
:101B400005F02FFB0028F8D02C600020EAE76FF0AA
:101B50000C00E7E70C0000200074000070B588B0AE
:101B600005460C46C0B269461646FFF7CFFF00286F
:101B70001BDB0098C8B14368029383682268019513
:101B8000CDE903360023CDE906230593C56803F0AC
:101B90007CFD6DB12846084901AA03F06EFF079845
:101BA00008B9059B236008B070BD6FF01500FAE717
:101BB0006FF01200F7E700BF2557000030BFFFF7B6
:101BC000FDBF00BF704700BF70B5264B15469A6A2F
:101BD00012F0100F9A6A14BF1124102412F0080F8B
:101BE0009A6A18BF1224920706460AD5586B9A6A59
:101BF000140634D519B19A6A22F080029A6213242D
:101C000001E06FF01500174B9A6A12F0010F9A6A03
:101C100018BF142412F0200F9A6A18BF1524D20698
:101C200002D49B6A9B070AD50E4B5B68190506D543
:101C3000314600F00DFA10B180F309880224094BF7
:101C40009A6A920642BF5A6A22F400525A629A6A0B
:101C500042F0FF029A6200232B70204670BD6FF0A5
:101C60001500CCE700ED00E0134B9A6A12F0007FFC
:101C70009A6A14BF1E201D2012F0807F9A6A18BF36
:101C80001F2012F4002F9A6A18BF212012F4802F0F
:101C90009A6A18BF222012F4003F9A6A18BF2320C4
:101CA00012F4803F9A6A6FEA02426FEA12429A6225
:101CB00018BF2420704700BF00ED00E010B5194B9D
:101CC0000246986A9C6A10F4805F14BF17201620A1
:101CD00014F4006F9C6A18BF1820A40509D5986BEE
:101CE000986A000404D51AB19A6A22F400429A62F2
:101CF00019200C4B9A6A12F4806F9A6A18BF1A2046
:101D0000D2050CD49B6A13F4005F18BF1C20054A4F
:101D1000936A43F47F43936200230B7010BD1B2032
:101D2000F5E700BF00ED00E070B5454B5B688AB099
:101D30000546C3F30803002686F31188BFF36F8FAF
:101D400002F07F40B0F17F4F11D102F00C00082863
:101D50000DD010074CBF0D4601260022033B8DF825
:101D60000720032B05D8DFE803F01E5D615A3546D6
:101D7000F3E700249DF807309BB92022294602A8EA
:101D800003F058FD099B002E54D0C3F3080222B97A
:101D90006FEA53236FEA4323099302A9204603F015
:101DA000E3FC0AB070BD264BDA6A9107E1D4DA6A27
:101DB000002ADEDBDA6A5200DBD55A69A96942F4EF
:101DC00080725A61BFF34F8FBFF36F8F5A6931F83A
:101DD000021C22F480725A61BFF34F8FBFF36F8FE2
:101DE0004DF6027291420AD09A6AD2B24AB10DF10E
:101DF000070201212846FFF7E7FE0446BAE72C68F0
:101E0000B8E79A6A12F47F4F05D00DF1070101205F
:101E1000FFF754FFF1E79B6AB3F5803FA9D3FFF7C3
:101E200023FFEAE70DF107020021E3E70DF10701C7
:101E30000020EDE723F4FF7323F00103ACE700BFBC
:101E400000ED00E0024A536943F01003536170470C
:101E500000ED00E0EFF30880EFF3098101B5724671
:101E6000FFF762FF01BD00BF002080F31488BFF3BD
:101E70006F8F00F03BFA00200D490860BFF34F8FD1
:101E80000C4880F3088800F03DF8202080F311888A
:101E900009484FF40461401880F30988EFF3148077
:101EA0000221084380F31488BFF36F8F00F0B4F869
:101EB00094ED00E0805C0020402C0020BFF34F8FA9
:101EC0000549064BCA6802F4E0621343CB60BFF3D6
:101ED0004F8F00BFFDE700BF00ED00E00400FA05F2
:101EE0000749D1F890200023C2F3072218469342F5
:101EF00000DB7047C1F89830C1F8A0000133F6E765
:101F000000ED00E008B572B6002383F31388FFF7F5
:101F1000E7FF144B4FF0FF32C3F88020C3F8842052
:101F2000C3F88820C3F88C20C3F89020C3F894200D
:101F3000C3F89820C3F89C20C3F88021C3F88421FB
:101F4000C3F88821C3F88C21C3F89021C3F89421E9
:101F5000C3F89821C3F89C2162B6BFF34F8FBFF33B
:101F60006F8F08BD00E100E01EF0040F0CBFEFF31F
:101F70000880EFF30980816911F8021C0229FFD063
:101F800001B503F0F3FB01BD40B2002807DB044AB2
:101F90004109012300F01F00834042F821307047BF
:101FA00000E100E040B200280CDB4309064900F0E4
:101FB0001F0020330122824041F82320BFF34F8FBE
:101FC000BFF36F8F704700BF00E100E0054B42098F
:101FD00000F01F0053F82220012303FA00F0104004
:101FE000704700BF00E100E040B20028A8BF00F148
:101FF000604001F10101B8BF064B4FEA4111ACBF8F
:1020000000F5614000F00F00C9B2B4BF195480F868
:102010000013704714ED00E00B4A08B50B4B22F09B
:102020007F029A60BFF34F8FBFF36F8FD3F8882082
:1020300022F47002C3F8882002F0C6FE02F00CFF02
:1020400000F046F802F0CCFE0000000000ED00E0D9
:1020500010F1160F074B08D0984208D34033834243
:1020600005D98B4203D9044870474033F9E7002073
:10207000704700BF80340020C03400200446202573
:10208000084611461A46084B83F3098863B64FF099
:10209000000383F31188BFF36F8FA04785F3118886
:1020A000BFF36F8FFEE700BFC05C00200149102224
:1020B0000A60704710ED00E072B6494081F3118864
:1020C000BFF34F8F20BF80F3118862B6704700BF07
:1020D000044800232021C2180133272B82F8001363
:1020E000F9D1704700E100E001B5EFF30580A0F100
:1020F00010004FEAC0000449014409C99847BDE8EF
:1021000001400249084700008C720000C51B000016
:10211000024B034A0348022100F030B800000120BE
:102120000000002074740000084AC2F898000B6890
:1021300023F01F03034343F01003C2F89C308B6865
:1021400043F00103C2F8A030704700BF00ED00E08B
:10215000044B0522C3F89420BFF34F8FBFF36F8F5A
:10216000704700BF00ED00E0BFF35F8F024B00221D
:10217000C3F89420704700BF00ED00E010B5034C99
:102180000123227803F011FB207010BD1C280020D1
:10219000F0B5454D2C68082C85B000F28280FFF721
:1021A000E3FF00200C2684420DD1404D404F2C709F
:1021B0006846FFF7A5FC00240646A6420AD1FFF7B1
:1021C000C7FF00201CE0696806FB0011FFF7ACFFA9
:1021D0000130E8E7009800EB04114FEA041CCB68DB
:1021E0003B40B3F5000F4AD00CD8B3F5001F30D0F8
:1021F000B3F5800F38D0B3F5801F12D06FF0150003
:1022000005B0F0BDB3F1807F42D0B3F1007FF5D1CE
:1022100050F80C3088684A6803F0B7FA40F4802020
:1022200009E050F80C3088684A6803F0AEFA40F0D4
:10223000885040F43020039028780728CDE9012306
:10224000DCD801A9FFF770FF2B7801332B70013424
:10225000B3E750F80C3088684A6803F096FA40F00B
:10226000885040F40020E6E750F80C3088684A684F
:1022700003F08BFA40F0007040F40030DBE750F8D8
:102280000C3088684A6803F080FA40F08270D2E728
:1022900050F80C3088684A6803F077FA40F088708C
:1022A000C9E74FF0FF30ABE78C7400001C2800201A
:1022B0000000F0FF014B1860704700BF10000020C5
:1022C000044A0123C2F840354FF080420020C2F892
:1022D0007835704700E0014020B1034B800143F0A6
:1022E00001031847704700BFD073000001F0BABE69
:1022F000084B70B5C31A0D4607499B100446594355
:102300000648402203F0C9FA2B4601462046BDE8A4
:1023100070401847DC0D0020B76DDBB63C72000042
:1023200073B50C4C0C4A4023041B00930D460B461E
:102330000A49A41061430646094803F0DAFA011E6F
:1023400005DA30462B4602B0BDE87040184702B0AF
:1023500070BD00BFDC0D002063590000B76DDBB617
:102360003C72000010B54FF02003EFF3118483F3AB
:102370001288BFF36F8F074A136823F00201DB074F
:10238000116002D4012004F07CFE84F31188BFF3B5
:102390006F8F10BD2C0E0020002270B50121044665
:1023A0001046FFF721FE0F4802F044F80E4B98420A
:1023B00015D102F04FF826690C49304603F0CEF8EB
:1023C00000280BDB012535642469084904F11C0051
:1023D00003F0C4F8002801DBE564002070BD6FF055
:1023E0000400FBE7252400000000AD0BAC740000E6
:1023F00070B501460C2309484B43C418D4E90E5666
:10240000403300221844A26303F034FA2DB132465F
:102410002B460348BDE87040184770BDDC0D002016
:102420003C72000010B1012804D07047034B1B6CB4
:102430005B0701D1FFF7DCBF704700BFDC0D002058
:1024400008B54FF02003EFF3118183F31288BFF337
:102450006F8F124A136843F002001060DA0708D445
:1024600081F31188BFF36F8F0120BDE8084002F0AF
:1024700003B84FF08043D3F80C24D3F80C34DB07B7
:10248000EED5074803F0F6F981F31188BFF36F8F9B
:102490000020BDE80840FFF7ABBF00BF2C0E0020B6
:1024A0001C0E002010B5074C23782BB94FF4A570F3
:1024B00004F072FE01232370BDE81040002001F0FB
:1024C000DBBF00BF1D2800202DE9F8433649BFF3CC
:1024D0005B8F0746012251E8003F41E800200028B9
:1024E000F9D1BFF35B8F33B9304931484B60CB60D2
:1024F0008A6003F046F87B1E012B2DD8012F07D1EF
:102500004FF08043D3F81C3403F00303012B23D096
:1025100004F066FE054608BB264B1B78F3B14FF06E
:1025200080430222C3F808230646DFF88C904FF060
:1025300080444FF00108D4F81824D4F81834D2039A
:1025400016D503F00303012B01D0012F10D12DB3B9
:1025500086F31188BFF36F8FBDE8F8834FF0200337
:10256000EFF3118683F31288BFF36F8F0125DCE749
:102570003046FFF7A1FDD4F81835002BDBD1D4F895
:102580000421002AD7D0C4F80431D4F80431C4F8A7
:102590001885C9F88081C4F80880CCE74FF08043E3
:1025A0000222C3F80423D7E7D80D0020C80D00206D
:1025B000F80D0020302C002000E100E008B50748AD
:1025C00004F0EFFD38B10648FFF774FE0448FEF74B
:1025D00053FF002008BD6FF01200FBE7647200009B
:1025E000E52500000A2838B5074D044604D1AB683C
:1025F0000D215B6828469847AB6803485B68E1B2E9
:102600009847204638BD00BF64720000024B0B6043
:1026100001231360704700BF300E00200048704750
:102620000075000010B504F0ACFD034C206004F010
:10263000A4FD6060002010BD300E0020F8B50E46ED
:102640003046194617461D4603F097F9B8B146EAD9
:10265000050414F0030412D14DB12B19032BA6EB82
:10266000040006D8074AD2F80034DB07FBD5002067
:10267000F8BD3B1B043C196802F022FBEDE76FF04C
:102680001500F5E700E0014038B545682B69B3B1A6
:102690001035284602F0E0F9044680B90146284684
:1026A00002F0A2F9084B98420BD10849224628466D
:1026B00002F082F9224605210620FFF795FC002052
:1026C00038BD6FF00400FBE70000AD0BD126000021
:1026D000430970B507D10B4B596821B101250C682E
:1026E000094E854001B970BD8A682A4002D04B6806
:1026F000304698471CB1236821461C46F2E7234622
:10270000FAE700BF380E0020507200002DE9F043B8
:10271000476840F20636D0063B7B87B002EA0606E1
:1027200054BFC2F34010032001F01F05B6F5837FAC
:10273000144645EA43158DF8030042D00FD8062E03
:1027400018D007D8B6B1022E3DD06FF0150007B0F3
:10275000BDE8F083B6F5807FF7D101260AE040F2AC
:102760000222964231D0B6F5407F30D0B6F5007FD8
:10277000EBD1022622032CD57A6801238B40C2F8C4
:1027800008353B696BBB05F01F026D0976D19200DD
:1027900002F1A04284F48031D2F80037C1F3004145
:1027A000C4F3404423F4E16344EA410423F0070303
:1027B0001C4344EA800444EA0624C2F8004700208F
:1027C000C5E70726D6E70426D4E70526D2E7032681
:1027D000D0E7630341BF01237A688B40C2F80C3510
:1027E000CFE710370DF102022946384602F0EAF829
:1027F00014F4403F80460CD12946384604F0B3FC1F
:10280000214B9845DBD19DF80210384602F02EF995
:10281000D5E701AB4FF0000903AA29463846CDE9B8
:102820000439CDE90199CDF80C9001F09FFF164BCA
:1028300098428AD114F4003315D09DF803308DF8F6
:102840000E3084F48034C4F300444B4603AA294676
:1028500038468DF80C608DF80D4002F037F80A4BC1
:102860009842CDD071E7CDE9043303AA0DF10303FB
:1028700029463846039301F079FFF0E702F5E0724C
:1028800053F82230FFDE00BF0000AD0BF0B540680A
:10289000057B01F01F0444EA4514056987B0002D4B
:1028A00060D0B2F5001F00F1100506D12146284680
:1028B00004F05BFC002007B0F0BD01AE0027B2F5CC
:1028C000800F0197776038D1B3F1007F14BF0523E3
:1028D00004238DF804300023CDE904630393836857
:1028E00023FA01F111F0010119D1B2F1A07F16D143
:1028F00004F01F03620903F5E07339D14FF0A042E1
:1029000052F82330DB070AD40DF103063246214684
:10291000284602F057F8184B984219D0029603AA9D
:102920002146284601F022FF144B98421DD1012276
:102930002146284602F0A6F8BCE7B3F1C06F05D0E7
:10294000B3F1007F14BF01230223C2E70323C0E7D2
:102950003146284602F090F8084B9842DED06FF0DE
:102960000B00A8E76FF08500A5E76FF01500A2E760
:1029700051F82330FFDE00BF0400AD0B0000AD0BAB
:102980002DE9F041594D5A4E00EB8101814202D1AF
:102990000020BDE8F081046814F4805FC4F343278D
:1029A00004F07F0340F08E807F2B4FEA1444EF5DEC
:1029B00008BF4FF0FF33192C00F28780DFE804F0E6
:1029C0000D13191C1F251C85858585366185858518
:1029D00085858585858564797C7FC2F80C355C1C8E
:1029E0005CD10430D2E7C2F814355C1CF9D0002465
:1029F0005DE0C2F80835F2E7C2F81035F5E75C1C77
:102A0000C2F80835EDD0002404E05C1CC2F80C3597
:102A1000E7D001245FEA531C5AD14FF0010E4FF06A
:102A2000A04C0EFA03F8CCF80C8508E0C2F8083583
:102A3000002FDAD15C1CD4D00024A6460627D0F89B
:102A4000008008F4005CBCF1000F1CBF4FF0000ECA
:102A5000012403F01F0C5B0942D14FEA8C0C0CF1EE
:102A6000A04CC8F3C118DCF80037334043EA8803B0
:102A700043EA072343EA0E0343EA4403CCF8003752
:102A8000AFE7C2F80C35D3E7C2F86035B3F1FF3FCA
:102A90000468A6D0C4F38034002CBAD05C091BD1E2
:102AA00001244FF0A04C04FA03FECCF808E5A6463A
:102AB000C5E7C2F86435E9E7C2F86835E6E7C2F869
:102AC0006C35E3E76FF0150063E76FF0850060E7B2
:102AD0000023C3F80C35FFDE0023C3F80835FAE7FE
:102AE0000CF5E07C002353F82C30F4E7B27C0000B6
:102AF000F0F8FCFFF8B5044607690D4604F070FBDA
:102B000090B92C4B1B787BB16426606803F064F8A5
:102B1000E0B9012004F0A9FA013EF6D1F4E786F30A
:102B20001188BFF36F8FEFE74FF02003EFF31186AB
:102B300083F31288BFF36F8F6068314603F04CF85F
:102B400090B986F31188BFF36F8FEDE74FF0200344
:102B5000EFF3118683F31288BFF36F8F60683146FD
:102B600003F03AF80028DAD03B691D7062683869D2
:102B70001368C3F844050120C3F848050020C3F8D2
:102B80002001D3F82051C3F858015268D3F85801F6
:102B9000D20608D5626812680820C2F800054FF412
:102BA0008002C3F8042301229A6081F31188BFF3E5
:102BB0006F8FF8BD302C00202DE9F341002206462E
:102BC00001210220FFF710FA0220FFF7DDF97768F4
:102BD00035693C680021C4F800152E60D7F80C80D8
:102BE00001AA404602F0CAFF0028C0F2CC80019B37
:102BF000D8F8002019791868FFF7C2FE0028C0F243
:102C0000C2806B7A012B26D1AB7A032B23D1E87AD1
:102C100008B101281FD12A7A12B1022A1BD10E2233
:102C20006B687168B3F5164FD1F800C000F0AE8044
:102C300032D8B3F5165F00F0AC8018D8B3F5966FB4
:102C400000F0A9800AD8B3F5967F00F0A780B3F50D
:102C5000167F00F0A6806FF0850094E0B3F5166F44
:102C600000F0A280B3F5965FF5D15B4B41E0B3F580
:102C7000E14F00F09C8008D8B3F5615F00F09980C7
:102C8000B3F5964FE7D1554B33E047F612218B420F
:102C9000E1D14FF400032CE0B3F5613F00F08B80ED
:102CA00015D8B3F5963F00F089800AD84DF6C021BB
:102CB0008B4200F08580B3F5614FCCD14FF46B03AC
:102CC00017E0B3F5E13FC6D14FF0EB7311E0B3F578
:102CD000612F78D008D842498B4277D0B3F5E12FE5
:102CE000B9D14FF0E86304E03E498B42B3D14FF0D5
:102CF00080533169CCF8243573681B680243C3F8EC
:102D00006C250B1DD5E9010183E803007B68990759
:102D100012D505F1180001F0E1FF334B984258D16C
:102D2000287E04F10C0204F5907104F0A0F92B7ECA
:102D30000120984001F016FB0823C4F800353B7AC7
:102D400053B9C4F81031D4F810316B69C4F8343574
:102D50000123C4F8383523607B689A075CBF4FF4C1
:102D60008073C4F804337B68DB0644BF4FF48003F0
:102D7000C4F804332B69C4F8443500200123C4F897
:102D80004805A360E36002B0BDE8F0814FF41D0385
:102D9000AFE7164BADE74FF49E23AAE74FF4A033FD
:102DA000A7E74FF41C33A4E74FF41D23A1E7104B12
:102DB0009FE7104B9DE74FF06C739AE70E4B98E737
:102DC0004FF4650395E74FF0706392E74FF080632F
:102DD0008FE76FF00400D6E700B0130000A04E00AC
:102DE00090D0030040420F000000AD0B00502700C0
:102DF00000C0750000F03A0000903A0170B5012360
:102E000083400E4ABFF35B8FDC4352E8001F01EAA8
:102E1000040542E80056002EF7D1BFF35B8F4FF454
:102E2000803282400648C0F80823BFF35F8FBFF3AB
:102E30006F8F0B4214BF0120002070BD480E002090
:102E40000010014070B40E49D1E90034D01AC31803
:102E500044F1000422F07F46C1E90034A6F50013D6
:102E6000B3F5400F09D2074B1B681A0A1B069C19C1
:102E7000054B42F10005C3E9004570BC02F04CB8B7
:102E8000C80000204C0E0020D000002011B3BFF37A
:102E90005B8F0123104A834052E800CF4CEA030CB9
:102EA00042E800C10029F7D1BFF35B8F0B4A4FF412
:102EB00080338340C2F80433094BBFF35B8F1B6838
:102EC000BFF35B8FC340DB0742BF064B4FF40032BA
:102ED000C3F80021704700BF480E002000100140D9
:102EE000440E002000E100E00D4B1868010A0006C6
:102EF000BFF35F8F0B4BD3F80435181841F1000175
:102F0000B3F5801F0AD2084BD3E90023904271EB3E
:102F1000030303D210F1807041F10001704700BF3C
:102F20004C0E002000100140D00000202DE9F04F91
:102F300085B016461F469DF840A00446FFF75EFF89
:102F40000190FFF7D1FFB04271EB070354D23E4B23
:102F5000301A67EB0101984271F100014FD23B4BEF
:102F600003EB0413D3E902239F4208BF96425ED0CD
:102F700037494FF4803804F1500508FA04F8AD00E1
:102F8000C1F848832046ADB202F06FFE26F07F4BB9
:102F900005F1804504F5A87305F58835DC464FF04A
:102FA00003090293029A2CF07F4341F82230C1F8C2
:102FB0004483D1F80435274A6FF00200C01A6044F8
:102FC00020F07F40904232D9286868B1D1F80435AA
:102FD0000393A3EB0B0020F07F40B0F5000F26D940
:102FE000204602F042FE039BBAF1000F07D109EB25
:102FF000030C09F10109D5E7BAF1000F09D06FF010
:10300000150520460199FFF741FF284605B0BDE8A8
:10301000F08F0123104ABFF35B8FA34052E8000FEB
:10302000184342E800010029F8D1BFF35B8F07493C
:103030000E98230101EB0412C8500F9B5360C2E9A4
:1030400002670025DDE700BF01008000B800002016
:1030500000100140FDFF7F00440E00207FB51C4C96
:103060001C4BC4F80833C4F848331B4B00254FF001
:10307000FF304FF0FF31C4F80855C3E902014FF4A7
:103080008033C4F80433154B02264FF4003201217B
:10309000C4F804631120C3F880212A46FEF7A4FF78
:1030A0001120FEF771FF0E4A0123A3602360136015
:1030B0000C4B0D4A0093CDE9015500232846FFF73C
:1030C00035FF3046FFF700FA284604B070BD00BF58
:1030D0000010014003000F00B800002000E100E0F4
:1030E000480E0020452E0000FFFF7F002DE9F7432A
:1030F0002F4CD4F8043399070BD5D4F8043143B1DD
:103100002C4A0023C4F80431D4F804311368013385
:103110001360D4F80433DA032AD5BFF35B8F264B50
:1031200053E8002F22F0010143E800100028F7D1F6
:10313000BFF35B8FD30702D4D4F84031C3B100256D
:10314000C4F84051D4F84031FFF7CEFE4FF02003D1
:10315000EFF3118283F31288BFF36F8F174BD3E91C
:103160000267B042B94106D282F31188BFF36F8F74
:1031700003B0BDE8F0834FF0FF384FF0FF39C3E9EB
:103180000289D3E900101D604FF48033C4F848333E
:10319000C4F84051D4F8403182F31188BFF36F8FE7
:1031A0000029E5D0009032463B4628468847DFE7B5
:1031B000001001404C0E0020440E0020B8000020FA
:1031C00030B5431C124C85B005D08442A8BF0446DC
:1031D000012CB8BF0124FFF787FE0E4B0C4DD3E93D
:1031E0000013401AB0F5000F10D22218AA4228BFCF
:1031F0002A4652184FF0000007490091CDE901001E
:1032000043F10003FFF792FE05B030BD2A46F0E718
:10321000FFFF7F00C8000020452E000008B5FFF723
:1032200063FE024B1B68C01A08BD00BFC800002027
:1032300010B5084C012363601120FEF7B3FE064B66
:10324000C4F80833C4F84833044B4FF40032C3F8D1
:10325000802110BD0010014003000F0000E100E0DC
:1032600030B5816885B0103921F00704054602F0B9
:1032700052FA10220146684602F0E7FA0749102286
:10328000684602F0D7FA10236A462146284602F023
:1032900012FA003818BF012005B030BDA476000036
:1032A00030B50D46816887B0102302AA1039044654
:1032B00002F0ECF9002802DA012007B030BD10223C
:1032C00002A9204602F038FD00283AD11E491022FA
:1032D00002A802F09FFA00280CBF012302232B70E2
:1032E000204602F015FD012301460DF1070220469C
:1032F00002F0CCF90028DFDB9DF8073003F00F0265
:103300001B096A702B7101220DF10701204602F0A2
:1033100013FD10B96B78042B03D901236B700023C4
:103320002B71A268183A22F00702083AA91C20461D
:1033300002F015FD0028BFD1E91C204602F068FD0F
:10334000BBE70323CBE700BFA4760000F0B5354F01
:10335000460085B00546694657F8260002F05EFD36
:10336000044610B1FF2005B0F0BD013602A957F8A0
:10337000260002F053FD012837D12B482A46492167
:1033800002F076F9294B02938DF80C409DF800600D
:103390009DF80870264C00222078314602F0BEFCD1
:1033A00050B36078394602F0B9FC28B3A378042BF7
:1033B00003D09DF8031099421ED1E378042B03D06B
:1033C0009DF80B10994217D12379042B10D1627903
:1033D000022A1DD1174B18482A46492102F048F904
:1033E0006079831E022BBED9BCE70028CED0B9E796
:1033F0009DF802109942EAD00132032A04F1060432
:10340000CAD10E482A46492102F032F90120AAE722
:10341000032A05D00A4B0B49042A08BF0B46DAE7FA
:10342000094BD8E784750000EB7C0000030103031F
:10343000807D0000CD7C0000367D00005A7D0000BC
:10344000D27C0000E47C0000C87C0000044B1B68B8
:10345000584043085B4240421843C017704700BFC2
:10346000500E00208842F0B504D0094F04380025E2
:10347000AA4200D1F0BD3E6850F8044F5E4024EAF5
:10348000060451F825601E40344304600135EFE71F
:10349000500E0020044B1B68584043085B424042DA
:1034A0001843C017704700BF500E0020F8B50E46F5
:1034B000C9880546144602F0A0FF0746D0B9204649
:1034C000FFF7E8FF104B1A68B5F90430424023EAD1
:1034D0000203B6F9042002401343AB8004460346BE
:1034E000F28831682868FFF7BDFFF388E443EA8873
:1034F000934201D33846F8BD296851F82320224071
:1035000041F823200133F2E7500E00202DE9F04767
:10351000DFF83CA007468846164699460024DAF8AC
:103520000050DAF800305D4085EA090585EA0400BC
:10353000FFF7B0FFC243D2B208EBC4013846FFF731
:10354000B5FF10B90134A642E9D1BDE8F08700BF4C
:10355000500E00202DE9F04F99B083460F461846D3
:1035600000211646039303F0ABF8002800F0898190
:10357000784B14930024012515AB0399139330461F
:10358000CDE90B45CDE90D45CDE90F45CDE9114517
:1035900003F01FF8A04228DABBF1000F05D1E7B90C
:1035A0000024204619B0BDE8F08F2146584602F0AD
:1035B00098FF04460028F2D00BA802F010FF0DA8D7
:1035C00002F00DFF0FA802F00AFF11A802F007FF9A
:1035D0000C2115A800F02CFBE3E73146384602F039
:1035E0004BFF04460028E7D1DAE731460BA802F08A
:1035F00043FF04460028DFD103990DA802F03CFFE9
:1036000004460028D8D1F188ADF8385002310FA80F
:10361000ADF8305002F0F1FE04460028CCD101464E
:103620000FA802F05EFF04460028C5D1F18811A85A
:10363000023102F0E2FE04460028BDD10DA802F0DE
:103640007CFF00F01F001F2873D0C0F11F03194634
:103650000BA8019302F097FF04460028ACD1019912
:103660000DA802F090FF04460028A5D1BDF8325005
:10367000BDF83A80A5EB080A4FEA4A1949460DA859
:1036800002F081FF0446002896D14FEA8A0A0DA96C
:103690000BA802F0CDFF00284DDA49460DA802F034
:1036A0008FFF0446002887D108F1FF3305939B0064
:1036B00005F1FF3A069305F1804508F18043023B8E
:1036C000013D9B00A5EB08050893AB000293059B09
:1036D0009A4541D8BBF1000F0DD00FA9584602F012
:1036E000CBFE002840F0C980039AB388928813FB70
:1036F00002F3ABF80430002F3FF45EAF01990BA842
:1037000002F05EFF002840F0B880B388ADF830309A
:103710000BA9384602F0B0FE0146002840F0AF8009
:10372000384602F0CDFF00287FF446AF0123BB806E
:1037300042E701949AE70F9A52F80A300BA9013335
:1037400042F80A3008460DAA03F0A0F80446002803
:103750009DD031E7010003000D9B069A04931344AA
:10376000DDF82C900793049B59F82A109A580F9D66
:103770004FEA8A08A8F104030993029B91421D4471
:1037800076D2A8F10400002359F80000FCF7A6FC4B
:10379000002914BF4FF0FF330346BAF1010F2B602D
:1037A00016BF09EB0803002353F8083C1593A8F152
:1037B000040359F80330169359F8083017932B680F
:1037C000DDF8108001332B60089B98442B68013B87
:1037D0002B60002111A802F084FE00284DD1059B2A
:1037E000002B48D0D8F80020119B1A60079A126865
:1037F0005A6011A92A68084603F04CF800283CD109
:1038000013A911A802F014FF0028DFDC2A680DA913
:1038100011A803F03FF880BB029B4FEAC308414662
:1038200011A802F0B0FE40BB0BA9084611AA03F094
:103830002DF8014618BB0BA802F042FF002812DA4F
:103840000DA911A802F018FEB8B9414611A802F05E
:103850009AFE90B90BA911AA084603F014F860B9B2
:103860002B68013B2B60029B0AF1FF3A043B2DE7DA
:103870004FF0FF3391E7059AB6E704469CE60C4605
:103880009AE66FF00B048CE62DE9F84F9246194A40
:103890001568454006460F46ED43002B14BF994678
:1038A000894600240A9B04F10408434504D20A9B7C
:1038B0009C4214D3BDE8F88F0AEB040003F04DFAE4
:1038C00000EA060B09EB040003F047FA00EA0501E1
:1038D00041EA0B01381903F04BFA4446E2E71AF8C3
:1038E000043019F8042033402A4013433B55013477
:1038F000DDE700BF500E0020082804D00928034847
:1039000018BF002070470248704700BF927D00003A
:10391000957D000001680E4A9142034615D1C169A8
:10392000A2F11022A2F1EF1291420ED18268012A77
:103930000BD8C26812B101698A4206D0586928B111
:103940009B691B1A5842584170470120704700BFBD
:1039500055AA00FF70B50D4B9E68A6B13046FFF723
:10396000D9FF044678B9F3686BB935690DB92046BB
:1039700070BD2846FFF7CEFF28B9EB68B34202D1ED
:103980002E462D69F2E70124F1E700BF540E002016
:103990002DE9F8433F4F3C68D4B1BC68C4B100285E
:1039A0004AD0002948D001FB00F5B5FBF0F0884271
:1039B00042D1281D40D8A9070DD025F003060436B2
:1039C000FC6803E06368B34238D2A469002CF9D1E3
:1039D0002046BDE8F8832E46F2E7FB6041E006F1A1
:1039E00020016318203A5A600022C3E902242A48C1
:1039F00022691A6160502949D96102B1D3606269B4
:103A00005A61A1699961AAB193619A6902B153613E
:103A10004FF00109C4E9016923610023C4E90533BA
:103A20003B69DB072ED5FFF795FF58B31C4B484683
:103A30001B6826E0FB60E8E70024C9E7A3681BB128
:103A4000174B01201B6898476268921B232A04F1D8
:103A50002008C4D80123A360D4E90523002ABCD0E0
:103A60009361A3690BB162695A610023C4E905330C
:103A70003B69DA0706D5FFF76DFF18B1084B1B68E5
:103A8000012098472A4600214046444601F0DDFEC9
:103A90009EE700BF540E002055AA00FF669911EE64
:103AA0003400002070B50546002800F08880444EA0
:103AB0003368002B00F08380B268002A7FD08342F5
:103AC00003D872681344984203D33E4B01201B680D
:103AD0009847A5F120042046FFF71CFF18B1394B89
:103AE00001201B68984755F8183C012B03D0354B33
:103AF00001201B689847002345F8183C55F8143CF2
:103B00003BB39A682ABB55F81C2C02F120015A6875
:103B10000A445A6055E905321A6155F8145C2B695C
:103B200003B1DD6020220021204601F08EFE2869CD
:103B300010B18368002B2ED033699B073FD5FFF768
:103B400009FF00283BD01F4BBDE870401B680120D7
:103B5000184755F8100C00282AD0836843BB4268E8
:103B6000636813442033636003692361D4E9052348
:103B70009AB9CBB9436963618269A261B3B19C61AF
:103B8000A36903B15C61236903B1DC6020220021D9
:103B900001F05BFED0E72C46E1E79361A369002BBF
:103BA000E8D062695A61E5E7F360F7E7F460E7E7B8
:103BB000F36845F8083C03B15C61F460BCE770BD94
:103BC000540E00203400002038B514220C4605465F
:103BD0000021134801F039FE1249134800F040F863
:103BE000232C1CD915F003031FBF043CE418C3F1B8
:103BF0000403ED1822460021284601F026FE084B5A
:103C00000A499D60C3E90054203C6C609A681160C9
:103C10009A68DA60A1F11021A1F1EF11D16138BDEC
:103C2000540E0020A53A00009139000055AA00FF6B
:103C300010B50A46044619B1024B00211B6898478B
:103C400010BD00BF30000020014B1B68184700BFAB
:103C50003C000020014B1B68184700BF38000020C3
:103C6000024B1860024B0020196070473C00002096
:103C700038000020F8B500F10806476804463046D1
:103C80000D4602F05EFC87424BD16368B3F5807F3E
:103C900047D80021304602F013FD002841DD002105
:103CA000304602F03AFCE0B345B9294604F1100071
:103CB00002F006FD002834DD0020F8BD04F12005E7
:103CC0000021284602F0FCFC00282ADD00212846BD
:103CD00002F023FC28B304F128050021284602F055
:103CE000EFFC00281DDD0021284602F016FCC0B1C3
:103CF000002104F1100002F0E3FC002811DD002196
:103D000004F1300002F0DCFC00280ADD002104F19F
:103D1000380002F0D5FC002803DD002104F140004A
:103D2000C6E70148C9E700BF80BFFFFF012938B5DA
:103D30000546144601D0074838BD22B90123C5E91C
:103D40001C340020F8E71046FFF7D6FD0028F5D117
:103D5000F1E700BF00BFFFFF70B500210446FFF789
:103D600089FF054610B10E4D284670BD04F10806C6
:103D7000304602F0E2FB7F28F5D910342946204670
:103D800002F0CBFB0028EED0204602F0D6FB012843
:103D9000E9D93146204602F04BFC0028E4DBE2E79B
:103DA00000BEFFFFF0B50C4685B000210546164663
:103DB000FFF760FF002839D102A802F00BFB214673
:103DC0006A6802A802F0C3FB044618B102A802F018
:103DD00006FB0CE005F10804214602A802F028FCCD
:103DE000002807DB02A802F0FAFA6FF00304A4F53A
:103DF000854418E005F1480302A96F68009305F1B6
:103E000010022346084602F0A8FD04460028DDD132
:103E10003A46314602A802F0B0FB044602A802F07E
:103E2000DEFA002CE3D1204605B0F0BD004CFAE7E5
:103E300080BFFFFF01292DE9F041034641D8224A06
:103E4000224F2348234E244D244C9966002918BF45
:103E50009046234A18BF964602F1794202F5740251
:103E600002F5016218BF94461E4A18BF17461E4A43
:103E700018BF164602F1D14208BF804602F5C012B3
:103E80001A4802F51E620CBF864615461848194AA4
:103E90000CBF844614461848A2F11162A2F50C2208
:103EA000A2F28E2218BF02460020C3E91000C3E927
:103EB000128EC3E914C7C3E91665C3E91842BDE809
:103EC000F0816FF07300FAE7D89E05C13AF54FA56F
:103ED00067E6096A7F520E518C68059BABD9831F38
:103EE00007D57C3639590EF7310BC0FF85AE67BB5D
:103EF00072F36E3CA78FF964A44FFABE2DE9F04F20
:103F0000CDB000F1640300F144070DF5867900930C
:103F100001914A463B4653F8041F42F8041F00999A
:103F20009942F8D102ADDFF800A14FF000082C460D
:103F3000B8F10F0F61D8019B03EB880002F00DFF71
:103F400002F0B6FF0146A960D4E94763D4F818012E
:103F50005AF804CB73404FEAF022D4F8206182EA89
:103F6000B012034082EA706273401344D4F82421F3
:103F7000D4F81061134463440B44D4E9421E4FEA61
:103F8000713C41EA0E0232408CEAB10C01EA0E0BA0
:103F900042EA0B028CEAB15C9444D4F81421D4F8C0
:103FA0002061C4F824611A44D4F81C61C4F81821B3
:103FB00008F10108D4F81021C4F804C06344B8F132
:103FC000400FC4E94706C4E944E2C4E94231236032
:103FD00005F10405ACD157F8043F59F8042F1344F8
:103FE0003B60009BBB42F6D102A84FF49471FFF7EF
:103FF0001FFE00204DB0BDE8F08F2B6855F8382C1F
:1040000055F8340C4FEAF34181EA734181EA932178
:1040100055F8143C134419444FEAB04383EAF013B3
:1040200083EAD00319448EE78C7500004FF070438B
:1040300093F8E02F062A09D1D3F8E83FC3F303131E
:10404000033B042B02D8024AD05C70470020704723
:10405000A77D0000024AD2F80034002BFBD0704745
:1040600000E0014010B502F0F1FF40B14FF0805385
:104070008E4AD3F82433C3F30423C2F84035FFF744
:10408000D5FF10B18A4B8B4A5A6702F0DFFF48B167
:104090004FF080534FF08042D3F84432C3F34233A1
:1040A000C2F83C35FFF7C2FF30B1834AD2F8FC308A
:1040B00023F08073C2F8FC3002F0C8FF40B14FF02B
:1040C00080430022C3F80C21C3F81021C3F838251F
:1040D000FFF7ACFF20B14FF080430322C3F8A025C7
:1040E000FFF7A4FF60B1754B0522C3F8102601222B
:1040F000C3F888260022C3F818263F22C3F81426E6
:104100004FF08053D3F83021511C09BF4FF070435A
:10411000D3F8343193F8E02FD3F8E83F08BFC3F366
:104120000313062A4DD1033B042B03D8644AD35C06
:10413000002B46D04FF08052624BD2F80414C3F8E3
:104140002015D2F80814C3F82415D2F80C14C3F8BB
:104150002815D2F81014C3F82C15D2F81414C3F88B
:104160003015D2F81814C3F83415D2F81C14C3F85B
:104170004015D2F82014C3F84415D2F82414C3F81B
:104180004815D2F82814C3F84C15D2F82C14C3F8EB
:104190005015D2F83014C3F85415D2F83414C3F8BB
:1041A0006015D2F83814C3F86415D2F83C14C3F87B
:1041B0006815D2F84014C3F86C15D2F84424C3F83B
:1041C000702502F043FF48B14FF080534FF080421A
:1041D000D3F8583203F04F03C2F8E43E02F036FF42
:1041E00048B14FF08043D3F80024D20744BF6FF0AA
:1041F0000102C3F800244FF08053D3F83021062A7F
:1042000026D1D3F83431033B042B02D82E4AD35C99
:1042100063B12E4AD2F83C3743F48063C2F83C378E
:104220004FF08053D3F83031062B11D14FF080532B
:10423000D3F83431033B042B02D8254AD35C3BB17D
:104240004FF01023D3F808224FF08043C3F85825CD
:104250004FF01023D3F80022002A03DBD3F80432F6
:10426000002B22DA1B4901234FF01020C1F804353E
:104270001524FFF7EFFEC0F80042FFF7EBFEC0F891
:104280000442FFF7E7FE0023C1F80435FFF7E2FE22
:10429000BFF34F8F0849104BCA6802F4E062134322
:1042A000CB60BFF34F8F00BFFDE710BD0030014072
:1042B00000C007400DF0ADBA00ED00E00050004036
:1042C000A27D000000C000409D7D00000010004065
:1042D000987D000000E001400400FA0530B5046854
:1042E000CCB1BFF35B8FB4FA84F3C3F11F03DBB22D
:1042F00001229A4024EA020250E8005FA54204D15C
:1043000040E8002CBCF1000FF6D1BFF35B8FE6D183
:1043100002480B7030BD0248FCE700BF0000AD0B47
:104320000200AD0B10B50368CB40DB0714D40123AA
:104330008B400268BFF35B8F43EA020150E8004FF5
:10434000944204D140E8001CBCF1000FF6D1BFF349
:104350005B8FEED1014810BD0148FCE70000AD0BBA
:104360000400AD0B014BC3F80405704700F0014099
:10437000F7B5044618B1012823D003B0F0BD4FF0C3
:1043800080430222C3F808230122DA60C3F8040143
:10439000D3F80431064601238DF8073042F2107538
:1043A0004FF08047D4B1012CE7D1D7F80C3403F497
:1043B0008033AEBB83B3012002F057FE013DF4D140
:1043C0002AE04FF080430022C3F808035860C3F886
:1043D0000021D3F800310DF10706DCE7D7F81834D7
:1043E00003F480333EB9002BC7D0012002F03DFE1C
:1043F000013DF3D1C1E7D7F8182402F0030232607F
:10440000002BBAD09DF80700012803D102F02DFE41
:10441000013DC7D1012CB0D1054B00225A71ACE748
:10442000D7F80C2402F001023270002BEAD1F3E736
:10443000680E0020044B1A7922B9012218609A8074
:104440000248704702487047680E00200000AD0B1C
:104450000C00AD0B08B5074B1B682BB10020FDF716
:10446000B5FD08B9FDF790FD4FF080430022C3F879
:10447000182508BD680E002038B5B0B1012855D107
:104480004FF080420023C2F80031D2F80021304AB8
:1044900003F18043012119602E4B1B68002B50D083
:1044A0004FF08043C3F8040340E04FF08043D3F85B
:1044B0001814D3F81824C8032AD502F00303012BDB
:1044C00004D013B10020FFF753FF00234FF08042C8
:1044D000C2F818350023C2F80431D2F804311E4A5C
:1044E000D2F8FC0040F08073C2F8FC301B4B1C6813
:1044F00044F0010119605D685968491BB1F50A5F14
:10450000FAD31C60C2F8FC000823154A0220BFE75A
:10451000D3F81424D107D8D5D3F81C249207D1D4CA
:104520000C4A12681AB10222C3F8042338BDD3F82A
:104530000421002AFBD00022C3F80421D3F804315F
:10454000F4E71368002BFCD0002313601368EDE739
:1045500000010040680E002000ED00E0001000E0C7
:104560000401004010B54FF08043D3F800216AB138
:104570000022C3F80021D3F800210122C3F8082348
:10458000114B587910B95A711B6898474FF0804306
:10459000D3F8042172B10022C3F80421D3F8042116
:1045A000D3F81824D3F81824920704D10122C3F8B1
:1045B00018259A6010BD0222C3F80823024BBDE8FB
:1045C00010401B6801201847680E002070B500F1EC
:1045D00008030C4C34F81330DA0505460E4607D5AF
:1045E000C3F3432304EBC30254F8333052689847B3
:1045F000A3682BB1E26831462846BDE870401847F1
:1046000070BD00BF4000002010B4C0B2114A083095
:1046100032F81030D9051BD5C3F3432123F4F853E6
:1046200022F8103002F10E04002034F8023F13F497
:10463000807F03D0C3F34323994209D0013020285F
:10464000F3D1002342F83130034810BCFFF76ABEB3
:1046500010BC70474000002098000020F0B50546CF
:1046600000200446012607468C420BD1114BD3F89B
:104670007C2132B10022C3F87C21D3F87C3140F098
:104680000040F0BDE3B29B0003F580729B0806FA80
:1046900003F31D420BD002F1804202F5C042D2F872
:1046A00000C0BCF1000F02D017601268184301343B
:1046B000DAE700BF00600040CBB20246083308468C
:1046C0000C4931F81330990611D599070FD41068A9
:1046D0005B0B01219940C0F80813126802EB8303B9
:1046E000D3F8102522F00302C3F8102570470021EB
:1046F00002F01CBD40000020F7B5CDB2174E0835C2
:10470000074636F81530DB070C4624D5FFF7D4FFF3
:1047100036F815309A0606D55B0B3A6803F5A27396
:10472000002142F823102046FFF76EFF002301A866
:1047300026F81530019402F0A6FC019B00EB8300E3
:10474000074BD0F80027134043F00203C0F80037AE
:10475000044803B0F0BD0448FBE700BF4000002060
:10476000F0F8FCFF0000AD0B0400AD0B2DE9FF419C
:10477000136807460C461546FBB1CEB2DFF83C8104
:10478000083638F8162002F02202222A22D000220F
:10479000CDE900228DF80E208DF80F200DF10E01CD
:1047A0000DF10F02204602F078FC38F8163023F0A5
:1047B000020343F0010328F816306B684BB393F8FB
:1047C00000C05A683D4EE3B2083336F8131088072C
:1047D00002D5B2B13A481FE021F02001C904C90C4A
:1047E00026F813106AB1BCF1030FF3D86A68386871
:1047F00052681278BCF1000F11D102F5A27240F894
:1048000022C036F8132022F01C0242EA8C0226F85D
:104810001320AB6843BB2B4804B0BDE8F08100EB2C
:10482000820041EA4231D0F810E52EF0030EC0F8C4
:1048300010E53F6807EB820741F02001D7F810052B
:1048400026F8131020F4473020F44070C7F8100504
:104850002002D7F810E500F4F85040EA0C4040EA96
:104860000E00C7F81005CCE7D3E900672046FFF734
:10487000CBFE002ECFD0114DD5E90023964203D1B7
:104880009F4201D1002209E00F480DF10F01FFF70F
:1048900025FD0C4B9842BFD19DF80F2045F83260A2
:1048A000E4B205EBC20308345F6035F8143043EA24
:1048B000422343F4807325F81430ACE74000002015
:1048C0000400AD0B0000AD0B980000202DE9FF4166
:1048D00007460C461E4612B3CDB2DFF8D08008352D
:1048E00038F81530980701D4990621D413F01C0F1D
:1048F00002D05378012B1BD001238DF80F300023F9
:10490000CDE900230DF10F01931C2046013202F086
:10491000C4FB38F8153043F0030328F81530002E97
:1049200042D0E1B2214D083135F81120930703D46C
:104930001F4804B0BDE8F08196F800E0D7F800C049
:1049400022F020020EF5A270D2040023D20C4CF803
:10495000203025F8112096F801C0BCF1000F23D0BB
:104960003868B67800EB8E004FEA0C4CD0F8103562
:1049700023F4981323F4F853C0F81035230203F4FA
:10498000F8530CF4403C3605D0F8107543EA0C039C
:1049900006F4801642EA4E32334342F020023B4393
:1049A00025F81120C0F810350248C2E74000002069
:1049B0000400AD0B0000AD0B014BC3E902127047C0
:1049C00040000020C9B20831044B33F81130990679
:1049D00043BF5B0B02481370024870474000002041
:1049E0000000AD0B0400AD0B70B5184E96F860409A
:1049F00005464CBB2146402206F1100000F025FF81
:104A00002D68306D2146884212D10023C5F87C31D3
:104A100045F30730D5F87C31FDF7B6FA4FF0004387
:104A2000C5F804330A48012386F86030B36570BDC9
:104A3000CBB29B0003F580727C2B08BFAC5001F118
:104A4000010108BFAB58DEE70248F0E74000002054
:104A50000000AD0B0C00AD0B034B93F86000003869
:104A600018BF0120704700BF400000200148FFF739
:104A700059BC00BF940000200148FFF72FBC00BFC5
:104A80009400002073B5CBB20C4608331D4931F8B1
:104A9000133099061AD513F0020617D15B0B9C0050
:104AA000056804F580716E50695801682144D1F899
:104AB000104544F00104C1F810452AB101680122F3
:104AC00002FA03F3C1F8043302B070BDC3F38203EA
:104AD000042B12D0052B12D001A8019402F0D3FAB6
:104AE000019AD0F81035D34003F00103991C2046F9
:104AF00002B0BDE8704002F019BB0321F7E70221C4
:104B0000F5E700BF400000202DE9F347544B554F17
:104B1000D3F80403396DC0B240F00040FFF79EFDAA
:104B2000051E18DA0023F96D0093684602F00DFBAC
:104B30004FF0010897F85C30DA075AD4396D4FF01E
:104B40000040FFF78BFDF96D684602F0FEFA002881
:104B5000F0D125F000450124002D69D102B0BDE857
:104B6000F08794FAA4F4B4FA84F4E00804F108039A
:104B700004F0070237F813901DF80030019408FA8A
:104B800002F223EA02030DF8003001A802F07BFADA
:104B9000019B03F5E0734FEA990150F82360C9F3D4
:104BA000820A4B07D146C6F3014626D52046514618
:104BB000FFF70CFD01A8019402F065FA019B03F5D3
:104BC000E073F6B250F82330C3F301439E4207D19D
:104BD0000021204602F0AAFA3146204602F0A6FA49
:104BE00001A8019402F04FFA019B08FA03F3C0F800
:104BF0002035009C002CB4D1A0E7022E0CD103215B
:104C0000204602F093FA0AF00503012BE8D1494649
:104C10002046FFF7DBFCE3E70221204602F086FA9C
:104C2000BAF1030FF3D0032EDAD1BAF1020FEDE798
:104C300095FAA5F3B3FA83F304FA03F29B0003F1A8
:104C4000804303F5C04325EA0205D3F81005D3F8E5
:104C50001015C0F30420C1F30141FFF7B7FC7BE757
:104C60000060004040000020044AD2F80034DB0716
:104C7000FBD50160BFF35F8F704700BF00E00140CC
:104C80004FF080531A69B0FBF2F302FB130373B9C0
:104C9000084B0222C3F80425C3F80805D3F8002402
:104CA000D207FBD500220448C3F804257047034807
:104CB000704700BF00E001400000AD0B0A00AD0BE3
:104CC00010B5054C0123C4F80435FFF7CDFF0023D0
:104CD000C4F8043510BD00BF00E0014001460148A2
:104CE000FFF7FCBAA400002010B5144CA822002144
:104CF000204600F0AAFD03232361114A6361114B92
:104D0000A261E3614FF4806323620023A3626362C4
:104D1000E36222660C4A62661022A2662367E3669B
:104D20006367BFF35F8F094A12F8011DE154013335
:104D3000102BF9D1BFF35F8F10BD00BF700E0020A4
:104D4000AC7D00003028002020280020C57D000018
:104D5000104B70B553F82040013053F82060A64244
:104D600000D870BDD4E9003595B153B128469847B5
:104D700038B10028B8BF4042EB68FF28A8BFFF2029
:104D80001870EA68537843F0010353700834E6E77B
:104D90009847FBE78C76000008B5094B01220320F9
:104DA0001A70FFF7D5FF00F01FF90420FFF7D0FFBE
:104DB000FBF7FEFA034A137B23F00103137308BDCC
:104DC000302C0020D800002008B50348034A0021F9
:104DD000121A02F001FA08BDB8000020342C00209D
:104DE00008B50020FFF7B4FF184B83F30888184C70
:104DF000636943F4007363610025E02384F8223083
:104E0000E57725766576A57684F82050636A43F4C5
:104E1000E023636284F82350FDF714F8FDF746F9A8
:104E20004FF0FF33A362E362FDF7B2F9FDF770F9CB
:104E300002F0B6F90120FFF78BFF0220FFF788FF91
:104E400004482B462A462946FDF718F980340020ED
:104E500000ED00E0994D000008B50648064A0749F4
:104E6000121A02F0BBF9BDE80840054A0549064898
:104E700002F0B4B900000020B8000020F47D00006A
:104E800000000000F47D000000000020034B1B68C0
:104E90000BB9FEF7C3B90020704700BF180F002000
:104EA00010B50E4B1C689C4204D1FFF7EFFF6FF06A
:104EB000004010BDFFF7EAFF002CF8D0D4E904321F
:104EC0001B1A62EBE072B3F1004F72F10001EEDAEF
:104ED000002AACBF18460020EBE700BFA800002066
:104EE00030B570B10B4B5B6898420AD0036843B190
:104EF000D3E90421D0E90445121941EB0501C3E9C6
:104F00000421D0E9003213605A600023C0E9003365
:104F100030BD00BFA80000202DE9F84F4FF020035E
:104F2000EFF3118C83F31288BFF36F8FDFF8ACA01F
:104F3000DFF8AC902B4FC9F80000DAF8000000242D
:104F4000504508BF00200025D7E90021D9F80030DE
:104F5000E04680B3D0E9046C4FEAE37EB3427EEBD7
:104F60000C0B05DAF61A6CEB0E04C0E9046422E0BF
:104F7000B21841EBE671C0E90445C7E90021FFF72B
:104F8000AFFF88F31188BFF36F8F836898474FF0A6
:104F90002003EFF3118883F31288BFF36F8FD9F8E2
:104FA0000030DAF800009B1B5045C446C9F80030B9
:104FB000CAD1D7E900219A1841EBE3730024C7E96D
:104FC0000023C9F80040FFF76BFF2146FEF7F8F811
:104FD00088F31188BFF36F8FBDE8F88FA800002019
:104FE000180F002058010020014800F05ABA00BFF5
:104FF000C67D000070470020704730B583688B4243
:1050000085B0044615460ED96368C068194401AAE4
:1050100000F02FFD28B96268019B9B1A2B60029B50
:105020006B6005B030BD6FF02100FAE72DE9F74362
:105030000E4617469946044628B94FF0FF384046B9
:1050400003B0BDE8F0830029F7D0002AF5D0CB6883
:105050000D891D4404230DEB03022946384600F058
:1050600015FB80460028E8D1BDF80410738946F688
:105070000812914225D1BDF806109942DDD10423D2
:105080000DEB03022944384600F000FB0028D4D180
:10509000BDF8042046F607139A42CED1C4E9006752
:1050A0009DF82830A4F80890A3727389BDF80620F3
:1050B0002B44E360738913442B44043563612561F9
:1050C000BDE7002BE4D0B8E72DE9F3410E461746C3
:1050D0001D46044620B94FF0FF3002B0BDE8F08114
:1050E0000368002BF7D04368002BF4D04FF6FF780D
:1050F000D4E904239A4216D223685B8923B1E3687A
:10510000934204BF043323610423216960680DEBDB
:10511000030200F0BBFA0028DDD1A37A2BB1D4E959
:1051200003329A4201D30120D7E72389BDF8061044
:10513000434501F1040203D0BDF804C09C450BD1E6
:1051400015B1BDF804302B802369043333603980F6
:10515000236913442361C0E7236913442361C7E72C
:1051600000F058BB4FF4C07358433030704710B54F
:10517000044600F0C9FAA3684FF4C072303B02FB4A
:10518000103010BD70B50D46044600F0C1FD2A4632
:10519000A0F1080104232046BDE8704000F076BA73
:1051A00013B50446019100F0B3FD0423A0F10801FA
:1051B0000DEB0302204600F0EEFD02B010BD70B50D
:1051C00013460E461546002102460446FBF750FEE4
:1051D00050B92B4604F12C0201212046FBF748FE72
:1051E00010B1002E08BF002070BD73B5044600202A
:1051F0000D461646FBF75CF96946C0B2FCF786FC23
:1052000030BB2C2303FB05440098E36825891D442B
:1052100004230DEB0302294600F038FAC0B9BDF8AB
:1052200004206489009846F608139A4215D1BDF807
:1052300006309C420CD104230DEB0302611900F0EF
:1052400025FA28B9BDF8042046F607139A4207D07C
:10525000009800F01AFA02B070BD002CF2D0F7E707
:10526000BDF80610214429443160F1E737B5044602
:10527000426A802501A902200195FCF76FFC58B90C
:10528000019B226DA36201A905200195FCF766FC34
:10529000054628B1092500E00125284603B030BDA8
:1052A000019B206A636500F02FFAE065F5E70123B2
:1052B000036003F1012343600023C0E90233704718
:1052C0004379012B07D10368012B04D10079431ED8
:1052D000584258417047002070477FB506460D463A
:1052E000022001A9FCF712FC38BB0198FFF73FFF31
:1052F000F16D0446284600F0BFF80444019800F020
:1053000003FA0646019800F006FA082201460DEB62
:10531000020000F09AFA2B798DF8083021460198A6
:10532000334602AA00F0C7F9041E019818BF0124F1
:1053300000F0ABF9204604B070BD0124FAE700F09C
:10534000CFB92DE9F8430E46002107460846FBF782
:10535000AFF8012104460020FBF7AAF833789C42FD
:1053600021D0984221D101252C2303FB0575F86D2E
:10537000AC6AFFF7F7FE013C07464FF000086B6A86
:1053800003EBC40253F83410D2F804901B684A4669
:10539000C91A3046C844FFF7D2FFB84504F1FF34BC
:1053A000EDD3BDE8F8830025DEE70120F9E737B546
:1053B00015460C460520694600F030FDE9790129C3
:1053C00003D00022204600F03DFD9DF80330012B64
:1053D00002D1204600F015FDA9682046FFF7E0FE47
:1053E0002046FDF73DFF002003B030BD73B50D46EC
:1053F0000646FBF73DFE0446E86050B302282DD177
:1054000001A9FCF783FB58BB01982A463146FBF7FC
:1054100095FD0446D0B9019800F07AFC01230146BD
:105420000DF10302019800F031F90446A0B901988A
:1054300001220DF1030100F07FFC10B101238DF872
:1054400003309DF8033003F00F03EB71019800F077
:105450001CF9204602B070BD0124F7E70724F8E7E5
:105460000124F6E7436A00205A68034613448B423E
:1054700000F10100FAD3704710B543790279012B8E
:1054800014BFCB01002302F1FF3201FB023302689B
:1054900014BF4C000C46013A04FB023010BD002042
:1054A00070470FB407B504A951F8040B0191FBF73D
:1054B000E9FF03B05DF804EB04B07047038B13F011
:1054C000070305D10368002B0CBF002003207047A1
:1054D000022B05D1408BB0FA80F040098000704764
:1054E000012B05D10368002B0CBF0020052070475D
:1054F0000020704710B50C4600B111B96FF01500CF
:1055000010BD081D00F095F80028F9D1A368032B01
:10551000F6D9F3E72DE9F0410D4607461946281D57
:1055200090461E4600F096F8044638B1334642468F
:1055300029463846A446BDE8F0416047BDE8F08101
:1055400010B44FF02004EFF3118284F31288BFF3FC
:105550006F8F416110BC0121FBF7A2BF38B50C462B
:10556000054658B151B10B6843B14B6833B11C22A9
:10557000002100F06AF92C61002038BD6FF01500A1
:10558000FBE770B505460E46FFF7B4FF041E15DBBA
:105590004FF02003EFF3118283F31288BFF36F8F74
:1055A0006B8B2C8B4FF6FF718B4204F0070407D1F5
:1055B00082F31188BFF36F8F6FF00A04204670BD2D
:1055C000022C0CD101336B8382F31188BFF36F8FF0
:1055D0000023224631462846FFF79CFFEEE7062CC3
:1055E00014D8DFE804F004131313041A0400002392
:1055F00033606B683BB9C5E90066ACB90221284647
:10560000FBF74EFFDAE71E606E60F6E782F3118863
:10561000BFF36F8F6FF00404D0E782F31188BFF3FC
:105620006F8F6FF08504C9E782F31188BFF36F8F26
:10563000C4E7034658B1426802F00302012A03D0CE
:10564000032A04D1026812B10020986070476FF0FD
:10565000150070474268816002F00302032A4FF090
:10566000000203460CBF006810465A60704770473E
:105670000FB407B504A951F8040B0191FBF702FF21
:1056800003B05DF804EB04B070477047002930B4F4
:10569000044618460BDBA5680844A84207D8E06812
:1056A0006468214484682468A44630BC60476FF075
:1056B000150030BC7047002930B4044618460BDB97
:1056C000A5680844A84207D8E06864682144846853
:1056D0006468A44630BC60476FF0150030BC70476A
:1056E0000029034610B410460ADB9C680844A04217
:1056F00006D8D8685B681944836810BC9B68184753
:105700006FF0150010BC704708B5C0688368DB688F
:105710009847006808BD08B5C0688368DB6898478B
:10572000007908BD70B54C680368A34201D201201E
:1057300070BD8A682244934201D30020F8E7D1E982
:1057400003254E69B54203D36FF00B038B61F4E779
:105750001B1B42F835304368086902EBC0025360F6
:105760000B6901330B61E2E701F026BD01460068D9
:1057700001F022BD08B5FCF721FABDE80840FCF7AE
:1057800021BA00210120FFF7EFBF202809D9B0F18D
:10579000004F08D80138B0FA80F0C0F11F00400077
:1057A0007047082070473E2070472DE9FF410E46A4
:1057B0009846144605460027B74220DA6868C8B103
:1057C000B8F1000F07D0431E184216D11F2814D974
:1057D0002A68134211D12B680193FFF7D6FFAB68FB
:1057E00003430393E3B2072B07D8204601A9FCF734
:1057F0009BFC013401370C35DEE76FF015042046C1
:1058000004B0BDE8F081034600201A5C02B970477D
:105810000130FAE710B55AB10139841810F8012B9C
:1058200011F8013FA04201D09A42F7D0D01A10BD22
:105830001046FCE710B5431E0A44914200D110BD4A
:1058400011F8014B03F8014FF7E7C9B202440346D0
:10585000934200D1704703F8011BF9E74FF0FF3086
:1058600070470369C9B20C2201FB0233186C00F0C7
:10587000070070474FF02003EFF3118283F3128883
:10588000BFF36F8F036803F0C00343F002030360AC
:1058900082F31188BFF36F8F704770B5C9B2036987
:1058A0004FF02004EFF3118584F31288BFF36F8F5C
:1058B0000C2606FB0134246C14F0C00408D0A2426C
:1058C00006D085F31188BFF36F8F4FF0FF3070BDA6
:1058D00071430B4401221A6485F31188BFF36F8F63
:1058E00043680B445B6898470020F0E78022FFF78D
:1058F000D4BFF8B5069F0469C9B24FF02005EFF395
:10590000118685F31288BFF36F8F0C2569430C4411
:10591000256C05F0070CBCF1010F0BD1276486F351
:105920001188BFF36F8FC4E90E2343685B58984713
:105930000020F8BD05F0C005AF4286F31188BFF323
:105940006F8F0CBF6FF077004FF0FF30F1E713B5AA
:1059500080240094FFF7CDFF02B010BD6FF08500EA
:10596000704710B40069CBB21C2403FB0400002173
:1059700010BC1047002001F084BB38B505460C462A
:1059800001F0F5FB002D07DBA84205D9401B84423E
:105990008CBF0020012038BD0020FCE770B50C460C
:1059A000154601F0EAFB294606462046FFF7E5FFCB
:1059B000B8B1B4FBF6F306FB134393B9B5FBF6F3AA
:1059C00006FB13536BB9AE4201D9002070BD01F044
:1059D000D4FB06462046FFF753F9AD1B3444F9D1FA
:1059E000F3E76FF01500F1E770B50D46284619464C
:1059F00016461C46FFF7C1FF38B124B1224629469E
:105A00003046FFF717FF002070BD6FF01500FBE771
:105A1000F7B51C461646002382682360A36013690D
:105A20000D4601AA69469847019B5A1E01921BB96F
:105A30006FF0150003B0F0BD0098A26847682168B8
:105A4000676085B9B31AD0F800C0634528BF6346C4
:105A50001A4403FB07112160A26002689A4206D82B
:105A600008300090E0E76B1AB3FBF7F3EBE7002098
:105A7000E0E713460022FFF7CBBF2DE9F04783682C
:105A800086B01B698846914601A902AA984700245E
:105A9000A2462546029BAB4202D806B0BDE8F0877D
:105AA000019F07EBC50700267B6804933A68B24262
:105AB0000AEB060302D801359A46EBE703940593F7
:105AC000494603A8C0470028E7D0049B01361C4480
:105AD000ECE743685B68D3F810350B600020704733
