:020000040000FA
:1000000000A80020593C00002DD10000453C000014
:10001000453C0000453C0000453C0000000000005D
:10002000000000000000000000000000553E00003D
:10003000453C000000000000B53D0000453C0000CC
:100040005D4100005D4100005D4100005D41000038
:100050005D4100005D4100005D4100005D41000028
:100060005D4100005D4100005D4100005D41000018
:100070005D4100005D4100005D4100005D41000008
:100080005D4100005D4100005D4100005D410000F8
:100090005D4100005D4100005D4100005D410000E8
:1000A0005D4100005D4100005D4100005D410000D8
:1000B0005D4100005D4100005D4100005D410000C8
:1000C0005D4100005D4100005D4100005D410000B8
:1000D0005D4100005D4100005D4100005D410000A8
:1000E0005D4100005D4100005D4100005D41000098
:1000F0005D4100005D4100005D4100005D41000088
:1001000053B94AB9002908BF00281CBF4FF0FF317E
:100110004FF0FF3000F00CB8ADF1080C6DE904CEE3
:1001200000F008F8DDF804E0DDE9022304B07047D0
:10013000704700BF2DE9F04786468C460846089E6A
:10014000154674461946002B40F0C2808542B2FA2B
:1001500082F245D94AB1C2F1200300FA02FC2EFA1C
:1001600003F3954043EA0C0C94404FEA154EA8B2B5
:10017000BCFBFEF8230C0EFB18CC08FB00F943EA8D
:100180000C43994528D9EB1808F1FF3704D299455B
:1001900002D9A8F102072B44A3EB0903A4B2B3FBD5
:1001A000FEFC0EFB1C330CFB00F044EA0344A042AF
:1001B00014D92C190CF1FF3304D2A04202D9ACF1AE
:1001C00002032C44241A43EA07401EB1D440002302
:1001D00034607360BDE8F0874746DDE76346F1E7CA
:1001E00092BB431B01214FEA154EAFB2B3FBFEFC9D
:1001F000200C0EFB1C330CFB07F840EA0343984528
:1002000062D9EB180CF1FF3004D2984502D9ACF159
:1002100002002B44A3EB0803A4B2B3FBFEFC0EFBCD
:100220001C330CFB07F744EA0344A7424ED92C19B0
:100230000CF1FF3304D2A74202D9ACF102032C44E3
:10024000E41B43EA0040C0E7C2F1200320FA03F1B7
:10025000954090402EFA03F303434FEA154EAFB298
:10026000B1FBFEFC0EFB1C10190C0CFB07F841EA5D
:100270000041884504FA02F422D969180CF1FF30D4
:1002800004D2884502D9ACF102002944A1EB08014F
:100290009BB2B1FBFEFC0EFB1C110CFB07F743EA03
:1002A00001439F420ED9EB180CF1FF3104D29F425B
:1002B00002D9ACF102012B44DB1B41EA004192E779
:1002C0006046E3E76146F7E76046A3E76346B7E7C2
:1002D000834206D916B9002108467BE7C6E900E04B
:1002E000F9E7B3FA83F78FB9834201D3724508D88F
:1002F000BEEB020460EB030301209C461EB9002103
:1003000068E73846FAE7C6E9004CF8E7C7F1200C81
:10031000BB4022FA0CF41C432EFA0CF120FA0CF329
:10032000B84001434FEA14490EFA07F5B3FBF9F858
:100330001FFA84FE09FB18300B0C08FB0EFA43EA87
:1003400000439A4502FA07F240D9E31808F1FF305A
:1003500004D29A4502D9A8F102002344A3EB0A0370
:1003600089B2B3FBF9F809FB183308FB0EFE41EA2A
:1003700003418E452CD9611808F1FF3304D28E4514
:1003800002D9A8F10203214443EA0040A0FB0298ED
:10039000A1EB0E014145CE46434602D306D14D4561
:1003A00004D2B9EB020E68EB04030138002EA6D08C
:1003B000B5EB0E0261EB030101FA0CFC22FA07F324
:1003C0004CEA0303F940C6E9003198E74046C5E727
:1003D0004346D9E7034613F8012B002AFBD1181A2C
:1003E00001387047000000002DE9F0472DED028B29
:1003F0009FED498B4A4E84B004464FF02003EFF343
:10040000118783F31288BFF36F8FD4F8C0508DB972
:10041000022104F1D8000EF002F9002843D1002394
:100420008DED008B029304F1C80239463D4808F077
:1004300039FCE2E7D4F8C4202B68C4F8C0309542F8
:1004400008BFC4F8C430D4F8D83043F00203C4F86D
:10045000D830EB6823F0040343F00103EB606B68D2
:1004600087F31188BFF36F8F284698474FF020031A
:10047000EFF3118983F31288BFF36F8FEB6899074D
:1004800023F0010219D4EA60D4F8D83023F0020333
:10049000C4F8D83089F31188BFF36F8FDB05ACD473
:1004A00008F044FBA9E704F1D00500220121284609
:1004B0000EF026FA0028F8D1B1E7306823F00303E4
:1004C000EB600028E0D00027D0F80080BA46002872
:1004D000DAD04268954201460BD1016897B972683B
:1004E0003160824200D1716040F808AB07F0B2FF82
:1004F0003946B8F1000F0BD0D8F8002040460F461F
:100500009046E4E739607268824208BF7760EBE7A3
:100510004246F3E7AFF30080FFFFFFFFFFFFFFFF5F
:100520008034002098440020F0B5474B474AC3F878
:10053000002685B0C3F80426C3F80826C3F80C26A5
:10054000C3F81026C3F81426C3F81826C3F81C26CF
:100550000BF0C6FA3E4C20460DF05DFF00B3256956
:10056000A6682B683B4A43F400632B6033680B2179
:1005700020469847736801A92046984720B92A6801
:10058000019B53401A050BD54FF08043D3F800343C
:100590000BB1DB0704D502F037FC2F4803F0BEF99E
:1005A00002F032FC0EF0E9F904460F4601A800F013
:1005B00047FC05460EF0E1F94FF47A76A4FB0632CB
:1005C00006FB0722DB0B43EA4243A0FB062006FBA7
:1005D0000100D20B03F5FA6342EA4042991A01295D
:1005E000B8BF01211C4803F0A1F91C4B1B68AB42AA
:1005F00005D002F009FC184803F090F9FEE79DF8D9
:10060000080069460BF03DFA044608B10CF0D7FD2E
:10061000009B039D1D44019B1E8906F095FBAF19AD
:1006200001F01CFC00F050FE00F024FE03F050FB33
:10063000AB5983F3088884F31488BFF36F8FBFF33B
:100640006F8F7B689847FEE7000001403546526E89
:1006500084F000001100010018F5000030080020AF
:1006600021B1012906D06FF015007047044B53F8F3
:1006700030007047024B03EBC0035868704700BF5F
:1006800020F500002DE9F04F1D46DBB07F4B649F45
:100690001E68689CDDE9669A904600F0B5FD7C4BCB
:1006A0000122C3F800253AA80AF02AF9B9F1000F8F
:1006B00007D0BAF1000F04DD524649463AA80BF0C4
:1006C000F7FDB8F80830B8F80A20D8F80CB0134491
:1006D0009B444FF00009CB4553D80DA93AA80AF026
:1006E00081F96B4B0022C3F80025C3F8002554B1F3
:1006F0000DAA15AF134603CBBB42206061601A46BA
:1007000004F10804F6D1002300932A464FF6FF7344
:10071000414607A80BF0E5F90746002842D12846D4
:100720000C9C0BF0DEFA84423CD8DFF86CB1DFF8A9
:1007300060914FF0FF340DF1160305AA06A907A832
:100740000BF01DFA00282DDB40F09A80BDF816A0B2
:10075000BAF1100F30D1BDF81470202F22D10699B4
:100760003B463AAA28460CF071FAD8B93A463AA95B
:100770000DA80BF083FA474B1B68834212D1012767
:10078000D9E7659BABEB090A9A4528BF9A465346C1
:100790003A46494628460CF059FA30B13C4B002203
:1007A000C3F80025394B1E686CE0524639463AA81A
:1007B0000BF07EFDD1448EE7BAF1010F3FD1BDF8B9
:1007C0001430202BEED806993AAA28460CF03EFAAF
:1007D00004460028E6D19DF814300293202B0AD855
:1007E000DBF80030DFF8B4800393039B9C4205DB09
:1007F0000023C9F800354FF0FF349CE700F004FDFA
:10080000C9F800A51DA80AF07BF8D8F8042058F80C
:10081000081B12681DA80BF04BFD15A91DA80AF0B6
:10082000E1F80022C9F80025029A3AA915A80EF0AD
:100830006FF910B9C9F800057DE70134D5E7BAF1C1
:10084000220F7FF478AF631C3FF475AFDBF8003004
:10085000A342D0DDBDF81430802BA3D806993AAA64
:1008600028460CF0F3F900289CD1E4B2BDF814300E
:1008700000943AAA20210DA800F012F80646BAE723
:10088000002F8FD030465BB0BDE8F08FB400002061
:1008900000A002503008002028F500002CF50000D0
:1008A0002DE9F04796B016461D469DF87820374B47
:1008B000DFF8E88053F83210019103EBC2030746DA
:1008C0005B68D8F80090186802AA0144302301A898
:1008D0000BF07CFC002851D1DDE901431C4403AA44
:1008E00006AB214601A80BF099FC002846D1049ADA
:1008F000072A43D1264905980EF00AF900283DD170
:10090000079A082A3AD1234908980EF001F9A8BBA2
:1009100002AA214601A80BF06DFC78BBDDE901A31A
:100920000AEB0302944229D1412B27D135443023CD
:1009300003AA294602A802960BF048FCE0B9DDE9BB
:10094000023213449D4217D32A4602A906A80BF08F
:1009500062F988B92A4602A90EA80BF05CF958B9C9
:100960009AF80030042B07D1202306AA0AF10101CE
:10097000384600F061FC28B1D8F80090484616B01F
:10098000BDE8F087044BD3F80090F7E72CF50000A2
:10099000F1F90000E8F9000030080020B400002060
:1009A000094A0B78400052F820108B4209D00130E0
:1009B00052F82000834214BF4FF0FF304FF44070D4
:1009C00070474FF44070704734F500001FB50F4B6F
:1009D00013F830000C4600F0F5FE50B9206881682D
:1009E00010236A4610390CF031F928B120680CF058
:1009F0002CF94FF0FF3006E00549102268460EF052
:100A000087F80028F2D104B010BD00BF34F5000013
:100A1000D8F900002DE9F041324B88B0064600209D
:100A20000D461C68FFF71CFE06A9C0B200F0CAFE06
:100A3000002853D12946FFF713FE2C2407A9C0B282
:100A400004FB056400F0BEFE00282ED02C276F4367
:100A500006EB0708069BD8F8101011F0100133D1EF
:100A60004FF480720192204A0092CDE90311224690
:100A700002910846FFF706FE04461C4BF259069801
:100A80009A420CD1D8F80C20B8F808309B1806D23E
:100A90008268934203D2164B1B68A3421BD0C5B198
:100AA000826800210CF0FCF813E007980CF015F9AF
:100AB000074607980CF0C9F8631EE21C13F8011FE3
:100AC000B942C3D19342F9D11DB1069930460BF01A
:100AD000E1F9084B1C6806980CF0B7F8204608B0FE
:100AE000BDE8F081B4000020723600203DB8F396D6
:100AF00030080020B00000207FB50D4604460021DC
:100B00002846CDE902110BF084F918B323681A4E78
:100B1000B34206D103AA20460BF008F908B10CF045
:100B20004EFBE36AB34206D102AA012120460BF034
:100B3000FDF80028F3D1DDE90232934288BF039328
:100B4000039BAB602046039A294600F057FA002029
:100B500004B070BD01A9FFF739FF01980028DED06D
:100B600005F108010BF0A0F80028D8D1AB68019876
:100B700003930CF06AF8E5E73DB8F3962DE9F84FDA
:100B8000DFF878B01B4C1C4D884691469A460026EB
:100B90000B9B9E4201D300200FE00B9B174A9F1B2B
:100BA000B7F5806F28BF4FF480673B4606EB0A011C
:100BB00040460CF04BF810B10120BDE8F88F0A99BF
:100BC0003B465A46711848460CF055F80028F3D1B8
:100BD000C4F800563E44C4F80456C4F80856C4F895
:100BE0000C56C4F81056C4F81456C4F81856C4F875
:100BF0001C56CDE7000001403546526E34180020E7
:100C0000F0B58A4B43620E46894B0365002187B0DD
:100C100004460846FFF724FD04F12001C0B200F0AD
:100C2000D1FD002872D10121FFF71AFD04F14C011A
:100C3000C0B200F0C7FD002868D120460BF0BEF816
:100C400000283DD10022114620460BF059F800281B
:100C500065D120460BF026FA002860D002A80BF0E0
:100C6000CFF8014620460BF076F9002857D102A8AC
:100C70000BF0CFF880F0010102AAC9B220460BF0B8
:100C80003FF8024600284AD102A80BF0C2F800281B
:100C900049D102A92046FFF72FFFB8BB9DF80F30BE
:100CA00084F85830DA1E012A2BD800F0EDF89DF8B0
:100CB0000F30B8B9023B022B1AD994F8583023E010
:100CC0000123984284F85830BCD194F858308DF8FC
:100CD0000F30042B4FD8012B54D867D0FF2384F852
:100CE000583063E0023BFF22022B84F858200DD8D5
:100CF000002000F0B3F80028DFD0FF2384F858303C
:100D000004E09A1E022AF3D9FF2B01D10CF057FA06
:100D100002AA002120460AF0F3FF0028F6D10123A1
:100D200084F85830D1E79DF80F70012F17D1104685
:100D300006F09AF8831E022B05460DD83946204648
:100D4000FFF768FE3B4B1B68984205D03A4B1D6885
:100D5000A84214BF0525012584F85850B5E70121A4
:100D60002046FFF757FE334B1B6898420CBF9DF897
:100D70000F300523D4E7052BB0D1002000F084F814
:100D8000A0B1ABE702A92046FFF7B6FE0028BDD10F
:100D900094F85830DA1E012A25D800F075F800289A
:100DA000ABD1002000F05AF80028A6D194F85830B2
:100DB000FF2BABD00022012B204D019216D0114603
:100DC00020460AF09DFF88B12D681022002102A85C
:100DD0000DF0F5FFE06C0BF038FF206A0BF035FFEB
:100DE000284607B0F0BD022BE0D1DAE7002120460B
:100DF000FFF710FE0F4F3B688342E5D12A689A4205
:100E0000E2D00D4A12689A42DED0019B0133019371
:100E1000019B012B00D0FEE7206A0AF046FE3071EC
:100E2000236A5B6834603D68B360CEE7341000200D
:100E30003408002030080020B0000020B40000205A
:100E4000054B10B560220446002118460DF0B7FF8F
:100E50002146FFF7D5FE10BD341C002013B5094B09
:100E600001A913F8300000F0ADFC48B901980CF06E
:100E7000FCFD044601980BF0E8FE204602B010BDD0
:100E80000124FAE73CF500001FB50F4B01A913F848
:100E9000300000F097FCA8B9019802A905F08EFF78
:100EA000044668B99DF80B30032B03D101980CF070
:100EB000A4FD044601980BF0C8FE204604B010BD06
:100EC0000124F7E70124F8E73CF500002DE9F341A0
:100ED00006460C4617461D460BB9002628E0184664
:100EE0000AF097FF0028F8D16946FFF76FFD0098D8
:100EF00038B9012400980BF0A8FE204602B0BDE8E6
:100F0000F08101A90AF0D0FE0028F2D100980BF080
:100F10009CFE304601990BF05AF8736A5E686B7953
:100F2000012B21D1002CD8D12B68834298BF0026F9
:100F300021460020FFF794FB6946C0B200F042FC56
:100F40000028D6D1009820233A4631460BF07EFE89
:100F500004460028CDD1002DCCD03C680D4BE41ABE
:100F600018BF4FF0FF34C5E7022BB6D12B68012B19
:100F700005D98342B1D8B4FA84F46409ADE7ACD1A1
:100F8000002CD5D0012CA8D12C79023C18BF01240B
:100F9000A3E700BF3DB8F39673B54B681446164AF5
:100FA00003F0FF23934206460D4623D10B68012B25
:100FB00020D16946204605F001FF08B10CF0FFF88A
:100FC0009DF80030032B15D1214630460AF062FF10
:100FD0000028F3D120460CF010FD0028EED1A968BE
:100FE00020460AF06FFE0028E8D1204605F0C4FE36
:100FF0000028E3D102B070BD000100042DE9F04FDC
:101000000C4689B0114605460AF0E1FF6B6A83463B
:1010100020465E680AF0FDFE88B1E86D0AF030FEF9
:10102000AB6A0022013B3244904201D9013BFAE70E
:101030005B4504D80123E37109B0BDE8F08F06A930
:10104000022000F0BFFB08B10CF0B9F807A9052099
:1010500000F0B8FB0028F7D1079A21462846FFF791
:101060009BFF6379012B55D1DFF884A15F464BE0EC
:101070002268C2F101035B44BB4244D3079B039344
:101080006B6A196853F8370003EBC703012A53F85A
:10109000083CA3EB0103A0EB0109049315D1E3681D
:1010A000022B0CD0414628460AF0F4FE0028CBD192
:1010B0002246414628460AF025FF0028C4D103995C
:1010C00028460AF0E7FE0028BED13246494640468F
:1010D0000AF0DEFE0028B7D1CDE90096049B424617
:1010E00041462846FFF74AFD0028ADD12146284653
:1010F0000AF09CFE23680133236020B1DAF8003047
:101100000133CAF80030013FDDF81880002FAFD15D
:10111000012323600223637101275F45DDF81890E6
:1011200006D948460BF091FD07980BF08EFD83E73A
:101130002368BB4259D86A6ADDF81CA052F8371000
:101140000491FB00083B11680391D1582A6DD058D7
:101150001368A0EB03082379012B44D1039B32468B
:10116000C91A484605910AF093FE00287FF46CAF37
:1011700005990091019643464A4651462846FFF795
:10118000FDFC00287FF460AF214628460AF04EFEA1
:101190000223237118B1164A1368013313603246D3
:1011A000414650460AF074FE00287FF44DAFDDE959
:1011B0000323CDE900869B1A494652462846FFF78D
:1011C000DDFC00287FF440AF214628460AF02EFEC1
:1011D0002368013323600123237130B1044A13686B
:1011E0000133136001E0022BD9D0013795E700BF2E
:1011F000941C00200A4619B1024B00211B681847B5
:10120000704700BFB800002070B5094D2B780BB1B6
:10121000002070BD074C0126C4F8006509F012FCDF
:1012200018B92E70C4F80005F2E74FF0FF30F0E770
:101230007237002000A002502DE9F041DFF8308025
:10124000ACB01F4606460C461546FFF7DDFF0123EE
:10125000C8F800352A4633460097214603A80DF00A
:101260007EFE0023C8F800352CB0BDE8F08100BF39
:1012700000A00250BFF36F8F72B6124B4FF0FF32D7
:10128000C3F88020C3F88420C3F88820C3F88C20DA
:10129000C3F89020C3F89420C3F89820C3F89C208A
:1012A000C3F88021C3F88421C3F88821C3F88C21B6
:1012B000C3F89021C3F89421C3F89821C3F89C2166
:1012C000704700BF00E100E0164A4FF0FF330121F4
:1012D0005160C2F84833C2F8083302F5C042516089
:1012E000C2F84833C2F8083302F598325160C2F8A8
:1012F0004833C2F80833A2F508320021C2F80015BD
:10130000C2F8083302F51832C2F80015C2F80833E3
:10131000A2F51042C2F808354FF08042C2F80833F7
:10132000704700BF00B000402DE9F043079D15B99C
:101330001560002012E00324B5FBF4F404EB44072D
:10134000BD4218BF0134B4F1804F09D2A40001346A
:101350008C4200D838B914606FF00B00BDE8F08300
:101360004FF0FF34F7E7DFF8BCE004460021B94254
:1013700003F1030C04F104062CD3A942274624D21E
:101380001F7801F1010CAC45264938BF5B784FEA64
:10139000A70E28BF002311F80EE084F800E0AC454A
:1013A00001EB131E3CBF9B0003F03C034FEA071701
:1013B00007F0300738BFCB5C1EF80770677028BF96
:1013C0003D23A3703D23E3703746381A0023106095
:1013D0003B70AEE71CF8034C1CF8023C1CF8018C77
:1013E0004FEAA40924011EF8099006F8049C04F0B1
:1013F00030040EEB13199B0019F8044006F8034C57
:1014000003F03C030EEB981408F03F08E35C06F889
:10141000023C1EF8083006F8013C033134466346AE
:10142000A5E700BFD4FA00002DE9F043DDF81CE089
:10143000DFF82C8100273C463D4675451FD3E4BBB1
:1014400014600020BDE8F0830136764533D013F8F0
:1014500006C0BCF1200FF7D0AEEB0609B9F1010FC1
:10146000A6EB05050DD0BCF10D0F0AD103EB060963
:1014700099F80190B9F10A0F6ED1751CDDE72E467F
:10148000E3E7BCF10A0FF8D02DB9BCF13D0F05D14F
:101490000137022F0DD96FF01500D3E71CF0800F34
:1014A000F9D118F80C507F2DF5D03F2D01D8002F21
:1014B000F1D10134E1E73546C1E704F007064FF00A
:1014C000060CE4080CFB06F60CFB04F40736E41BE0
:1014D00004EBD60470B18C420CD80027DFF880E012
:1014E000DFF880801D44014603263C469D4205D11D
:1014F0000C1AA5E714606FF00B00A3E713F8019B2B
:10150000A9F10A0C5FFA8CFCBCF1160F04D848FA5A
:101510000CFC1CF0010FE9D01EF809C00134BCF12D
:10152000400F08BF013E0CF03F0C042C4CEA87171B
:10153000DCD17EB13C0C012E0C7002D101310024B3
:10154000D4E7022E4FEA17244C7016BF8F70023179
:101550000331F4E73446C9E7002DA2D09BE700BF72
:1015600054FA0000F6FFBFFF80B505460E46174649
:10157000984607F091FB03460DF01EFDDFF818902A
:10158000044649F80030424630463946A84754F8E8
:10159000090002F0E1FB00BF080000002DE9F04760
:1015A000058B04462807904611D4022905F007054B
:1015B00040F0CD8020460BF072F978B10138218BD4
:1015C000042811D8DFE800F0C3106D8595000129CB
:1015D0000CBF45F0100545F02005258388F31188E0
:1015E000BFF36F8FBDE8F08701F0070AAA4500F04E
:1015F000A6800027B9463E46A368002B00F0BD80B8
:1016000041F00801218388F31188BFF36F8FA1682F
:10161000002900F0BB800D68002900F0B780D1F8E8
:101620000480334652462046C047002D76D02B68B2
:1016300029461D46F0E701F007035A1F012A1BD86F
:10164000002221F00701062B276889B2C4E9002295
:1016500009D13B4603E0628B013262831B68002B99
:10166000F9D141F00201218320460BF018F900283E
:101670007BD041F0200177E0042B0AD121F0070153
:1016800089B2218320460BF00AF910B141F0200104
:101690002183218B01F0070AAA4550D00027B946C3
:1016A000AAE7236921F0070141F00601062DD3F8CE
:1016B000009021832DD1B9F1000F40D041F00801F5
:1016C000218388F31188BFF36F8F3A492046C847BA
:1016D00029E021F00701236941F0040189B2042DBA
:1016E000D3F804902183E6D000273E464FF0040A49
:1016F00082E721F00701236941F0050189B2052D38
:10170000D3F808902183D6D000273E464FF0050A33
:1017100072E700273E464FF0060A6DE72B4687E743
:10172000B9F1000FD1D14FF02003EFF3118883F30B
:101730001288BFF36F8F238B23F008032383258B3D
:10174000EA062ED525F01003238305F00705666908
:10175000218B002EBFF66FAF00232768C4E900334A
:1017600021F0070141F001012183218B01F0070ADB
:10177000AA454FF000097FF43FAF002F9BD041F006
:101780000801218388F31188BFF36F8F002FC7D022
:101790003D6839463346524620460BF0ACF82F469A
:1017A000F4E7AB067FF51AAF25F02003238305F09D
:1017B0000705FFE623C90000014B036000207047C6
:1017C00048F5000070B5114B1C680D46DCB1104B9C
:1017D000196800238B4202DB6FF0010070BD2246C6
:1017E00012F8106B864202D001331446F2E7E0682B
:1017F00010B96FF01200F1E70CF00DFE0028F8D0E0
:101800002C600020EAE76FF00C00E7E714010020ED
:1018100094F5000070B588B005460C46C0B2694624
:101820001646FFF7CFFF00281BDB0098C8B14368BE
:101830000293836822680195CDE903360023CDE940
:1018400006230593C5680BF000FA6DB128460849D8
:1018500001AA0BF020FE079808B9059B236008B089
:1018600070BD6FF01500FAE76FF01200F7E700BFE8
:10187000E9CC0000F0B40C4B0C4E5F6A0C4BB34249
:1018800003D36FF08500F0BC70475D68BD4209D39B
:101890001C693CB195F802C00579AC4502D12346DC
:1018A000F0BC18472433EAE7981C0020D00300203E
:1018B000AC0300202DE9F047134CDFF85080DFF82F
:1018C000509005460E461746444503D36FF08500F9
:1018D000BDE8F0876268D9F824309A4212D3A36930
:1018E00083B190782979884205D13A463146284615
:1018F000BDE8F04718475279012A03D13A463146EC
:10190000284698472434DFE7AC030020D0030020AA
:10191000981C00202DE9F0410B4CDFF83080054683
:101920000E461746444502D36FF0850009E063690F
:101930000BB92434F6E73A46314628469847002842
:10194000F7D1BDE8F08100BFAC030020D003002038
:1019500010B504460BF065FC10F1780F00D050B9BB
:10196000054A20460BF0E2F9D2F8C43023EA00031E
:10197000C2F8C430002010BD981C0020024B002289
:101980001A605A60704700BF531D002070B50B4BA2
:101990000B4CA34201D3002070BD196A1E7F0022A8
:1019A0000439D5B2AE4201D82433F2E7013211F83E
:1019B00032508542F5D10120EEE700BFAC03002094
:1019C000D003002008B509480378C3F341130A3354
:1019D00050F823303BB100F1080200F110019847A4
:1019E000C043C00F08BD1846FCE700BF981C00208C
:1019F00004282DE9F14FDFF8A09004460F4616D0D9
:101A000001282DD1DFF88C8098F8B93043B300F06D
:101A100033FE1F4D4D4520D2D5F820B04FF0000ABF
:101A20002B7F5FFA8AF6B34204D82435F2E7FFF73A
:101A3000A5FFE7E70BEBC6060AF1010A30790BF0C8
:101A4000F0FB024630790BF071F9D8F8C430002A67
:101A500023EA0003C8F8C430E2DA002388F8B9307A
:101A60000B4D4D4508D30B4B1B6A6BB139462046D5
:101A700001B0BDE8F04F1847EB681BB13A4621466C
:101A8000284698472435ECE701B0BDE8F08F00BF49
:101A9000AC030020981C0020D003002073B5C4B212
:101AA00063060D468DF8074007D02046FFF76EFF0E
:101AB00078B10D4B93F8BA0058B10B4E204655B192
:101AC00003F096F8F3691BB10DF107010820984760
:101AD000012002B070BD03F0B3F8F369002BF7D01A
:101AE0000DF107010920F2E7981C002073B58678F4
:101AF0008DF80060037942791C4C43EA0223ADF86B
:101B00000230C378304603F003038DF804300BF045
:101B10000DF9D4F8C430184205460BD0304600F019
:101B20008DFD3046FFF714FF0CF0CEFC10B9962067
:101B300007F098F8684603F037F810F1780F03D0F3
:101B400010B1002002B070BD9DF8000003F0B4F8A1
:101B500010F1780F01D00028F3D1D4F8C43001205F
:101B60002B4384F8B900C4F8C430EBE7981C00207C
:101B70002DE9F047A34EB36904460F461546FBB95D
:101B8000237803F01F03012B00F09D80022B00F04F
:101B9000048133BB94F900002A686178002834DAA4
:101BA000062912D008292BD0D9B9012313705170FE
:101BB00096F8C3305B0043F00103137002232AE15F
:101BC00098470028DCD100200DE06288100A011F30
:101BD0000129844605D9072803D8716AD2B20C7846
:101BE0001CB96FF01500BDE8F0874E78664503D14B
:101BF0009A4200F00B8101332144F0E70B780AE1AF
:101C000096F8BA301370012305E101390829E8D8A4
:101C100001A353F821F000BFB11C0000E31B00003A
:101C2000BF1C0000E31B00003D1C0000E31B000084
:101C3000E31B0000E31B0000491C0000A07802F039
:101C4000A1FF0028BFD0CCE76388756A63BBFFF7AC
:101C500095FE638886F8BA30F369002BB3D06A49E1
:101C600003209847AFE76B78042B10D0052B11D0D9
:101C7000022B04D16F796388BB4208BF01202B7807
:101C80001D442B78002BEED10028AAD0DFE795F871
:101C90000380F4E76388BB42F1D1B8F1000FEED1C5
:101CA0002846FFF723FFEAE7FF270020B846E8E7CA
:101CB0006388012B95D1002386F8C33083E76388BE
:101CC000012B8ED1F8E796F8BA30D5F800C0002B7A
:101CD00087D0756AA38894F804E02A461078002813
:101CE0003FF47FAF5178022904D192F80480F04587
:101CF00000F293800244F1E78CF800208CF8012078
:101D0000396060E7154494E00B2A7FF46AAF00273E
:101D10004FF0FF08C146BA4606E06B78042B0FD09F
:101D2000052B21D02B781D442B78002BF5D1F3699E
:101D300013B1514607209847002F7FF444AF50E776
:101D400095F80280A38895F803909845EAD16388B6
:101D50009945E7D1B8F1070F1CD806EB0803AA464E
:101D600083F8BB900127DDE7A3884345DAD1A37848
:101D70004B450AD0AF78384600F060FC3846FFF794
:101D8000E7FDB0FA80F77F09CCE72846FFF7AEFE03
:101D90000746C7E7AA460027C4E794F900206378FE
:101DA000002A18DA002B7FF41CAF24792D68630613
:101DB0000AD02046FFF7EAFD00283FF412AF96F85C
:101DC000BA30002B3FF40DAF2946204602F058FFF1
:101DD00000236B70F2E6012B08D0032B7FF401AFD8
:101DE0006388002B7FF4FDAE012103E061880029A8
:101DF0007FF4F7AEA088FFF751FE00287FF4E3AE32
:101E0000EFE600BF981C0020521D00200228296028
:101E10007FF4F4AE4B883B60D5E694F9000062781D
:101E20000028BFF671AF002A3FF466AF0A2A7FF49C
:101E3000D8AE2A78002A3FF4D4AE697804297FF41A
:101E400061AFA9788B427FF45DAF072B96BF9B19DA
:101E5000002393F8BB308CF80030D4E670B5164DF3
:101E600095F8B830FBB102F06DFE002822DB00F0DF
:101E700003FC0024D5F8C430E340DA07E6B214D4FA
:101E8000D5F8C43004F11002D340DB0705D546F085
:101E90008000FFF75DFD00280CDB0134102CE9D138
:101EA000002385F8B830002004E03046FFF750FDED
:101EB0000028E5DA70BD00BF981C002013B5164C51
:101EC000237DF3B9E268A168019201AB80200AF09A
:101ED0003BFF019AA3681344A360E3689B1AE36085
:101EE0006BB962B12369E2889A4208DD94F8C82090
:101EF00093FBF2F102FB11330BB90123237502B0FE
:101F000010BD00231A4619468020237502B0BDE893
:101F1000104002F0FBBE00BF981C002030B585B019
:101F2000002302460D460193002858D1002935D1DF
:101F300008220B460DEB02010BF08CF9002804DAA5
:101F4000802002F055FE05B030BD2A4C029A226076
:101F5000039A626004F13802A2609DF90820BDF87E
:101F60000E302575002AC4E903550ADB802B04D9FD
:101F7000802002F03DFE0020E3E713B1C4E9033303
:101F8000E1E7FFF71FFD0028DAD0E28823699A42D3
:101F9000D4BFE260E360FFF791FFD4E7154CD4E9CA
:101FA0000215002D01AB04DC0BF054F90028CADA4D
:101FB000C6E72A460BF04EF90028D9DB019AA36840
:101FC0001344A360E3689B1AE360002BBBD104F1C8
:101FD0003803A360FFF7F6FC0028DCD1B0E78028C7
:101FE000B1D1044BDA68002AD5D11B7D002BD2D1A8
:101FF000A9E700BF981C0020054B064A9A62064AD2
:10200000DA62064A1A63064A58629A6100207047EB
:10201000981C0020711B00007518000015190000A5
:10202000B518000010B5084B93F8B84034B900F06B
:10203000E3F830B1FFF7E0FF204610BD6FF0770006
:10204000FBE74FF0FF30F8E7981C00202DE9F34143
:10205000414D04466F6A41484FF0FF324FF0FF3365
:1020600006F04AF995F8B860002E6ED13C482C6213
:10207000E86102F065FF02F033FD041E49DB00F069
:102080001FFB041E45DB7B78012B61D1FB79002B04
:102090005ED0684685F8C830ADF802308DF804602F
:1020A0008DF8006002F080FD041E32DB8027684658
:1020B0008DF8007002F078FD041E2ADB29493046B5
:1020C00002F02AFF041E24DB2649384602F024FFD2
:1020D000041E1EDB244CDFF89480444520D30020EE
:1020E00002F0EAFD041E14DBD5F8C430802043F072
:1020F0000103C5F8C43002F0DFFD041E09DBD5F88A
:10210000C43043F48033C5F8C430012385F8B830B7
:102110000024124806F0B4F8204602B0BDE8F08171
:10212000276A0026227FF3B29A4201D82434D4E7EA
:1021300007EBC30257F83310107902F0EDFE0136B9
:102140000028EFD04FF0FF34E3E76FF07704E0E7CB
:102150006FF01504DDE700BF981C0020D4020020BA
:10216000F11900001D1F0000AC030020D003002067
:1021700030B51F4B8BB005AA03F1100518685968DC
:10218000144603C40833AB422246F7D11B782370B0
:102190001022002101A80CF012FE12220021154885
:1021A0000CF00DFE102101A80BF0F6F900281BDD44
:1021B0000828B8BF0820093801AB0E491A180020BA
:1021C00012F8013F0AAC04EB131403F00F03283399
:1021D0006B44013014F8144C13F8143C0C700828AC
:1021E0004B7001F10201EBD102480BB030BD00BFD2
:1021F00014FB0000733700202DE9F04F704C87B0BE
:102200004FF0000B00264FF0011AB0463546B1469C
:1022100023782BB96B4B02349C42F3D1684833E0EE
:102220006378052B1BD8DFE803F09003C8901D3BB3
:10223000402304A88DF810B0ADF812308DF814B01A
:102240000AF0DAFF40B1082304A8ADF812300AF012
:10225000D3FF08B1ADF812B0BDF81230E3712378A6
:102260001C44D5E7E378002BF9D1A3787BB108F1C2
:1022700001085FFA88F8F2E76B689C4209D02435C0
:10228000514B9D42F8D3002007B0BDE8F08F4F4D71
:10229000F6E7AB68002BEAD0414620469847E6E7D0
:1022A000002DF0D000222B7F9A42ECD2296AA07830
:1022B00001EBC2010B79984201D00132F3E701270B
:1022C000E07800F003008DF81400207994F805C040
:1022D00040EA0C20ADF8120094F902000028FBB28D
:1022E00028DA07F110004FF0010C0CFA00F010EAA8
:1022F0000A0F26D143F080008DF8100004A8CDE924
:10230000021301920AF078FFDDE90121039BC0B9B5
:102310009DF81020A27012F0800F18BF10330A71C0
:1023200018BFDBB24FF0010214BF9A40BA404AEA2C
:10233000020A94E70120B84010EA0A0F01D11846BA
:10234000DAE70137102FBBD1B7E7032E1DD1FFF716
:102350000FFF074668B1FEF73DF8102809D138464F
:10236000A31C07F1100250F8041B43F8041B904211
:10237000F9D123786FF00201E218091B04EB530333
:10238000D14213D50136F6B269E7002EF1D1B9F189
:10239000000F3FF478AFA4EB090389F80230C3F3D0
:1023A000072389F8033089F80480EBE702F801BCC1
:1023B00013F8010902F8020DE2E7A1464FE700BF5A
:1023C00008030020AB030020D0030020AC03002052
:1023D00010B5094B00211A461C78844204D15C6870
:1023E00014B102EB811010BD0131042903F1400347
:1023F000F2D10020F7E700BF641D00202DE9F34172
:1024000050F8283C10F82C6C103304460AD10369AC
:1024100050F8202C980736D5D2B9590715D5002386
:1024200044F8283C54F8283C10330BD054E9077585
:1024300054F8148C0CF048F800284FD02E48214650
:102440000CF03BF902B0BDE8F08143F004032361D6
:1024500054F8241C01AB30460AF076FC10B16FF042
:102460001503DDE7019A54F8243C134444F8243C56
:1024700054F8203C9B1A44F8203C54F81C3C13446C
:1024800044F81C3CCEE754F8241C01AB304602F063
:10249000B9FC0028E3D1019D54F8243C2B4444F8B6
:1024A000243C54F8203C5B1B44F8203C54F81C3C72
:1024B0002B4444F81C3C002DB1D0304602F046FDC0
:1024C000B5FBF0F303FB1055002DA8D154F8203CC8
:1024D000002BA4D0304602F0DDFCA3E744F8180C32
:1024E000A4F1100005F0B6FF002DABD042463946EE
:1024F0003046A847A6E700BFD00300204B1E012BA3
:1025000073B506460D460FD8FFF762FF044668B95B
:10251000012D09D101AB01220DF10301304602F07A
:1025200071FC019B002BF5D102B070BD0BF0CCFF0C
:1025300004F12C0108B1012D05D1084602B0BDE817
:102540007040FFF75BBF034802B0BDE870400CF07D
:10255000B4B800BFD00300202DE9F74F0646019123
:10256000154698460AF038FC044600285CD14FF026
:102570002003EFF3118A83F31288BFF36F8FDFF824
:10258000B4B000220023584605F088FF70B9DFF888
:10259000A890A70109EB8414636813F1100F14D1FC
:1025A0000193584605F056FF019B06E00134042CC8
:1025B0000BF1400BE5D16FF00B038AF31188BFF3E9
:1025C0006F8F184603B0BDE8F08F019B2061C4E90E
:1025D00002350C9B63610D9BA36130466FF00F03C6
:1025E00009F80760C4F83C80636002F0AFFC58B1A2
:1025F000304602F0ABFCB5FBF0F303FB10551DB108
:10260000E36B43F00403E36318F0020F07D007F114
:102610002C01074849440CF050F80023CDE7304620
:1026200002F038FC0346C8E76FF00F03C9E700BFAC
:10263000D0030020801D0020641D002010B54FF045
:102640002003EFF3118483F31288BFF36F8FFFF73A
:10265000BFFE50B14368103307D16FF08B03436066
:1026600000F12C0103480CF028F884F31188BFF323
:102670006F8F10BDD003002070B50F4C04254FF0B4
:102680002003EFF3118683F31288BFF36F8F636823
:10269000103307D16FF08B030848636004F12C01FD
:1026A0000CF00BF886F31188BFF36F8F013D04F136
:1026B0004004E4D170BD00BF641D0020D0030020A1
:1026C00070B50A4C0A4E0025314620460BF0D8FF63
:1026D0000122A4F11000114601350BF094FF042DE6
:1026E00004F14004F0D1002070BD00BF901D002017
:1026F000FD23000008B5014603480AF057FB10B15E
:10270000012300F8073C08BD641E00200169012375
:1027100081F84B300B6833B191F849301BB1024856
:1027200008310BF0CABF7047D003002001690123B4
:1027300081F84A300B6833B191F848301BB1024838
:1027400008310BF0BABF7047D003002070B50123E9
:1027500082F8483013680D4614463BB192F84A306F
:1027600023B10E4802F108010BF0A7FFD4F8903016
:102770009A681B699A4205D17DB904F1180140F6A7
:10278000CD4204E004F11801002DF8D00022BDE88C
:1027900070400248002305F03BBF70BDD00300200D
:1027A00038B5056995F89E0088B195F89F307BB9DA
:1027B00085F84830D5F890000AF0C0F900220446A8
:1027C0000023044805F1180105F022FF204638BD1A
:1027D0000020FCE7D0030020F0B5D0F88C305B6817
:1027E0001B6A1F7D85B0044638460AF0F5FA064696
:1027F000F8B994F88630E3B1A06F4FF4806203A972
:102800000AF0BBF90546A0B18306A4F1180308BF7E
:1028100000F1FF3584F830600193074B0399009372
:102820002A4602233846FFF797FEA06F29460AF092
:10283000C4F905B0F0BD00BF4D27000070B50446D7
:102840000E460179154815460AF0A2FA10B394F91C
:1028500000206378002A16DB202B04D0222B0ED018
:102860006FF085000AE02B681A6840F8102C9A88EF
:1028700020F80C2C9B7900F80A3C002070BD63887E
:1028800000F8093CF9E7212BEAD11038072328602A
:102890003360F2E76FF01200F0E700BF641E002023
:1028A0000D4A03460021A0F848101068C3F89400B0
:1028B00090889279A3F8980083F89A2083F89C1066
:1028C00083F89B10A3F89E1083F8A010402203F118
:1028D0004C000CF074BA00BF70F2000010B504692F
:1028E0000023C4F8A8300C4BC4F8A400596804F1C4
:1028F000A80269B9C3E9002204F1080007490BF0F6
:10290000BFFE04F1180006490BF0E8FE002010BDE0
:102910000A605A60F0E700BF641E002003CE00008A
:10292000D927000030B54FF40033426805690D4CDB
:1029300085B042F2A100CDE90103002385F89D3066
:10294000106AADF80C1000790A2201A90AF0FCF90E
:1029500095F89D3023B901200BF058FD013CF7D1CB
:1029600005B030BDA186010013B504698DF80710CC
:10297000002384F84830D4F8900001220DF10701BB
:102980000AF0DCF810B90BF09FFD40B121220023C2
:1029900004F11801064805F03BFE02B010BD94F8A2
:1029A000A130002BF2D00021212006F041F9E2E70E
:1029B000D003002037B514460A1E054620DDD4F8A2
:1029C0008C0004F14C010AF0B9F8012384F8493075
:1029D00023683BB194F84B3023B1114804F108014E
:1029E0000BF06BFED4F88C104B684A699A1ACB69CD
:1029F0009B1A3F2B04D8012384F8A03003B030BDCC
:102A000094F89E30002BF9D0064B009301940123DB
:102A1000402204F14C012846FFF79EFDEEE700BF7F
:102A2000D0030020B5290000F7B50D4601461D482A
:102A30000AF0A2F9044610B30646691E56F8A439F6
:102A40005F6805291BD8DFE801F01C1A031C222649
:102A500010F8061C99B9012300F8063C3B6A32467F
:102A6000187BFFF7A7FF14F85C2C42B93B6A187D6E
:102A70000D4B0093019602231146FFF76DFD03B045
:102A8000F0BD304603B0BDE8F040FFF709BF0123B9
:102A900004F8053CF3E710F8053C002BEFD00023C9
:102AA000F6E700BF641E00204D27000037B5094D32
:102AB0000949002400944FF0FF334FF48062284608
:102AC00005F06EFD054928460BF004FD204603B0D5
:102AD00030BD00BFD00300200045002033FB0000C4
:102AE000014806F0E1BA00BF18F6000038B5044608
:102AF00018B90F4B0F485B6898476168B1F5683F9C
:102B000010D0B1F5680F0DD00B4DA9420AD011F4C9
:102B10006861206807D0014608480BF0AFFC00232D
:102B20002360656038BD14220CF049F9F9E700BF55
:102B3000FC0100203CFB00002C5F5CA96C23002002
:102B400008B520B34368B3F5683F10D1012203688C
:102B5000BFF35B8F53E8001F002903D143E8002037
:102B60000028F7D1BFF35B8F0DD1002008BD094AC3
:102B700093420AD000684FF0FF324FF0FF3305F068
:102B8000BBFB0028F1D00448F0E70448EEE76FF4FF
:102B9000E040EBE72C5F5CA9E98FFFFFEA8FFFFFC6
:102BA00008B5D8B14368B3F5683F10D10022036877
:102BB000BFF35B8F53E8001F012903D143E80020D6
:102BC0000028F7D1BFF35B8F0BD1002008BD074A67
:102BD000934208D0006805F053FBF6E76FF4E0403D
:102BE000F4E70348F2E70348F0E700BF2C5F5CA975
:102BF000E98FFFFFEA8FFFFF10B5044618B91D4BA0
:102C00001D485B6898476368B3F5683F2FD0B3F5FC
:102C1000680F2CD0194A934219D1236803BB184876
:102C20004FF0FF324FF0FF33214605F043FA08B969
:102C300023681BB90F4B13485B6898472068142220
:102C400000210CF0BCF84FF46863636008E0B3F552
:102C5000683F0DD83A2B03D040F6BA629342DED1DA
:102C600020680BF050FC636843F03A03636010BDCA
:102C7000054AF3E7FC0100203CFB00002C5F5CA947
:102C80006C23002062FB00003A00003A08B50649B8
:102C90000648402314220BF0E3FBBDE8084004493A
:102CA000044806F073BA00BF6C1E00206C2300209D
:102CB00020F6000034F60000F7B5224E3068836835
:102CC000DB6B03B1984730688368DB6A002B31D136
:102CD0001D4C1E4D306883681B69002B2DD00122CE
:102CE0000DF107019847012827D1236843B92B68C4
:102CF0001BB369681A682A608B4208BF6A60236048
:102D0000134A9DF8070011887F2904D823680B44D3
:102D10004F1C178018720A28DCD12368118859606B
:102D200000200C4918604D684DB9C1E9003310808E
:102D30002060CEE798470028CAD103B0F0BD2B60D1
:102D40004B60F4E7E0270020882300209823002030
:102D5000703600209023002010B5044B04461868FC
:102D60008368E1B25B689847204610BDE0270020E9
:102D70002DE9F0410546904608464FF02003EFF359
:102D8000118783F31288BFF36F8F1C490B684BB117
:102D90001B4C62689A4205D000221A60626872B9C0
:102DA000C4E90033174A136863B987F31188BFF386
:102DB0006F8F0B601846C8F80030BDE8F0811360D3
:102DC0006360EFE756681C681460B34208BF546044
:102DD00087F31188BFF36F8F5C680B60A042D8BF88
:102DE00000F1FF3403F10801224628460BF0BFFF33
:102DF00000232B55601C0123DDE700BF8C2300203E
:102E0000982300209023002037B52449244A00232A
:102E1000C1E90033C2E90033224A1C464868146005
:102E200088B9C1E900220133082B02F18802F5D1EB
:102E30001D4D1E4828600BF0EEFA38B94FF0FF34F4
:102E4000204603B030BD02604A60ECE70020FFF787
:102E5000FDF804460028F1D12868836823B11B6C73
:102E600013B113492246984728688368DB6A0BB17F
:102E7000984748B1286883681B69002BFAD0012263
:102E80000DF107019847F4E70A4B286800221A80E1
:102E900083681B6A002BD3D09847D1E79823002082
:102EA00090230020A0230020E027002098F00000BD
:102EB000B92C0000703600202DE9F04FADF50B7DE8
:102EC000DFF8F0A0DFF8F090DAF8001041F20443E8
:102ED000ADF80C3040F60613ADF81030334B1D68DA
:102EE0000B785A1CA5EB090562F302030B706BBA51
:102EF0004B808B8800265BBA8B804E700822304650
:102F000009F0F1F9ACB22A46494609F0ECF904F1AE
:102F10000A03DAF800201FFA83FB5BBAADF8183019
:102F20001368CDF81A305368CDF81E3007460DF1FE
:102F300018080C34D6232A4649467FBA0DF12200E0
:102F4000A4B20BF0D2FD28F80B704346009405AAFA
:102F500040F22D113EA8FEF7E7F9BDF8147007B353
:102F6000134DDFF858802B6802215B6804A898474E
:102F700034463E1B7C2E2B68A8BF7C263EAA101927
:102F80005B68314698472B6834445B6801214046B2
:102F90009847A74205DD2B6802215B6803A8984784
:102FA000E7E70DF50B7DBDE8F08F00BFFC270020A3
:102FB0004828002044280020853700208FFB00008F
:102FC00038B50B4C05460A2120460BF0FBF90222CE
:102FD000084920460BF0E9F9294620460BF0C2F9D2
:102FE00020460A210BF0F6F9BDE83840FFF764BF30
:102FF000FC27002091FB00002DE9F047D4B005AE7E
:103000000DF1180807AD4FF0FF340B463460C8F8D7
:1030100000402C60012100240246CDE901440091CA
:1030200030A80421CDE908440AF095FE214640224B
:1030300020A80BF0C4FE8A4B1C9305231D93894BDB
:103040008948CDE91E38894B2193894B2393894BBD
:103050002693894B0321CDE92B01CDE92835CDE914
:103060002D3604220AAC279109AB1CA930A8229264
:10307000249409F0FEFF20B303240A217F480BF0BB
:10308000A1F97F497D4802220BF08FF97B48214648
:103090000BF068F94CB97449784803220BF085F9B4
:1030A000784B764819680BF067F90A2173480BF0E2
:1030B00091F9FFF701FF089809F0C7FD54B0BDE88A
:1030C000F08733685A1CD4E90074D5D0002FD3D0D0
:1030D0006D4A33B9D8F80010B1F1FF3F18BF0B4665
:1030E0001360106808F0D3FC08A9C0B2FEF76AFBB1
:1030F0000028C1D13368634E002B4AD1DDF820800F
:1031000033604046D8F8089008F0BFFD5F4A01469A
:10311000404608F0CCFC002840F0A0802B684B45CE
:10312000AAD85B4A10605B4A13603268584D089811
:1031300029682244013A09F07DFF002828609BDBC2
:103140000898DFF8509109F0C1FDB4FBF0F303FBE0
:1031500010403368C5B2651B1C44D9F800309C424E
:1031600038BF00205FFA80FA089809F0AFFD012807
:1031700005D9089809F0AAFD013807424DD13168F8
:1031800008982B463A4609F076FD00287FF474AF84
:1031900030E03268934201D000246EE73D4A126865
:1031A00023449342C1D967E7A845089888BF5FFACE
:1031B00085F809F092FD402201460CA80BF0FFFDB6
:1031C000424639460CA80BF0D2FD316808984346B8
:1031D0000CAA09F050FD044600287FF44EAF336876
:1031E000434433604744A5EB0805089809F06EFD99
:1031F000A842D9D9BAF1000F12D13368D9F800200A
:1032000053442B4493423360C6D1204B08981A682C
:10321000114609F00FFFC40F2FE74FF04008E4E715
:10322000089809F05AFD082201460CA80BF0C7FDCA
:103230000823524679190CA80BF057FC089F3168F7
:1032400038466C1809F042FD0CAA03462146384660
:1032500009F011FD00287FF40FAFCEE701240CE741
:1032600094FB000019E00000A3FB00009AFB0000A3
:1032700023E000009FFB00001FE00000FC2700206F
:1032800091FB0000F4270020F8270020EC27002005
:10329000E8270020E4270020F0B50C68164F174BF4
:1032A00085B002380D46C4F58061009003AA381934
:1032B0000131FEF7B9F80446D0B92B68039A1344DC
:1032C000022B2B6011D93E8876BAB6B2023B9E42E1
:1032D0000BD13246B91C09F006F830B9022E04D9D8
:1032E0002B689A1E2A60FC540124204605B0F0BDCC
:1032F0004FF0FF34F9E700BF5A3800205D3C002052
:103300002DE9F04F0121ABB09348DFF880A2DFF840
:1033100080B20BF057F8062290498F480BF045F821
:1033200005218D480BF04AF8002003F09DFD002692
:1033300080468B4B314600201D68FDF791F909A9A5
:10334000C0B2FEF73FFA0446F0B9202301460AAAAC
:10335000099809F07BFC0A9B53450DD1402301934A
:103360001AAB0093CDE90344099B02940AAA2146B3
:103370002046FDF787F90546DBF800300999AB4296
:1033800012D0084609F061FC66B1052172480BF0C5
:103390001DF8012170480BF01DF8FFF78DFD2BB0D3
:1033A000BDE8F08F0126C4E712AA0AA809F015FEAD
:1033B0008146099809F049FC674814210BF002F88E
:1033C000B8F1010F0E9C09D104F01005002E53D066
:1033D000002D72D12F462C462B4653E0B8F1020F38
:1033E00004F0100411D1002E3AD1002C00F0A3807B
:1033F00000252F462C465B49574809220AF0D5FF85
:10340000012155480AF0F4FF49E0B8F1030F10D14B
:10341000002EEAD0002C00F0948053494E48072239
:103420000AF0C3FF4C4801210AF0E2FF4F4909228C
:103430001AE0B8F1040F0FD1002ED6D13546374629
:10344000002C7BD04A49444806220AF0AEFF0121F5
:1034500041480AF0CDFF24E0002C2ED12546B9E7E3
:10346000002C72D0404907223B480AF09EFF012100
:1034700039480AF0BDFF20E0002D69D135463746B6
:10348000444601233B493448079308220AF08DFF44
:10349000314801210AF0ACFF079B002BABD1002C77
:1034A000D0D147B130492C4807220AF07EFF2A4884
:1034B00001210AF09DFF002DB8D12F492648042292
:1034C0000AF073FF244831460AF056FFB9F1000FA5
:1034D00009D12A49204804220AF067FF1E48202209
:1034E00012A90AF059FF26491B4807220AF05DFF7E
:1034F000BDF83E3001939DF83D300093214A9DF880
:103500003C3040211AA805F073FF109B33B11AAC70
:10351000C0F140011C4A204405F06AFF1AA8FCF7DC
:1035200059FF1AA902460C480AF03FFF14210A4825
:103530000AF050FF28E725462746A2E70124334634
:10354000A0E701252F4623469CE72546012742E7B1
:103550003546374644464EE7FC270020A7FB0000CF
:10356000B4000020BFFB0000AEFB0000D0FB000059
:10357000C9FB0000B6FB0000DAFB0000DFFB000027
:10358000E4FB0000ECFB0000F8FB00003DB8F39604
:10359000300800202DE9F041DAB000244FF0010896
:1035A0000B460246042136A8CDE90144CDF800803F
:1035B00008940AF0D0FB1822214620A80BF0FFFB4C
:1035C000394B1C9307231D93384B1E93384B219383
:1035D00004232293374B23930DF11F070AAE08AB48
:1035E00002221CA936A81F97249609F042FD18B99B
:1035F0007568202D25D0CDB1032441E040230193EF
:1036000026AB0093CDE90344099B029414AA2146FA
:103610002046FDF737F8284B1B68834224D02EE064
:10362000316820220CA80BF073FA40BB39780020D7
:1036300003F06CFC044618BBFFF762FE5AB0BDE80D
:10364000F0814146FDF70CF809A9C0B2FEF7BAF8BF
:103650000446A0B92B4614AA0998214609F0F6FAA7
:10366000149A164B9A42C9D009990CAA14A809F0C9
:10367000B4FC0446099809F0E8FA002CD0D00524DF
:103680000A210F480AF09EFE02220E490C480AF059
:103690008CFE21460A480AF065FE0A2108480AF015
:1036A00099FEFFF709FCC9E7FCFB0000B9E0000048
:1036B000DFFB000023E00000300800203DB8F39657
:1036C000FC27002091FB000007B500230093044A6B
:1036D0000448D42302210AF08FFE03B05DF804FBF6
:1036E00085370020FC27002070B50729ACB00446C0
:1036F00024D9037813F0050F20D143885BBAA1F1D8
:1037000008059BB2AB4219D3424B186083885BBA61
:10371000838000F10806FFF7D7FFA088012819D1A0
:10372000E3791BB1012B10D0082055E023785B070B
:1037300006D1FFF7E5FD384B01221A702CB070BDA1
:1037400029463046FFF726FFF5E729463046FFF7C2
:1037500053FCF0E70028E7D1E379012B3CD0052B9F
:103760004DD0002BE0D1CDE90433CDE90133012365
:10377000009308A82B46324604210AF0ECFA08A868
:103780000AF055FC002838D006A908A80AF04CFC1D
:10379000002832D0079C012C21D1069B1B78642B7A
:1037A0001DD104A908A80AF03FFC30B308A80AF00C
:1037B00067FC10B30A2119480AF004FE184917489B
:1037C00022460AF0F2FD154804A90AF0E2FD58B9B4
:1037D0000224FFF779FF2046FFF7F2FBABE7002159
:1037E00008A80AF098FCCDE70C480A210AF0F2FD7F
:1037F0000028EDD0FFF760FB9DE70324E9E7FFF722
:10380000DFFB4FF40050002105F012FA012009F00F
:1038100009FA00BF4428002059380020FC27002066
:1038200060FB00002DE9F743364A374DDFF8E880AA
:103830001060002307460E4600939946002E05DCD3
:10384000324B1B7813B903B0BDE8F083304BC3F89B
:103850000056C3F80456C3F80856C3F80C56C3F80C
:103860001056C3F81456C3F81856C3F81C560BF07C
:1038700084F84FF47A72A0FB020302FB0133C00B01
:10388000C9F5806140EA434401AA3B68013108EB75
:10389000090098470028019B00DC3BB181449BB99B
:1038A00040F20143994501D14FF000090BF065F852
:1038B0004FF47A72A0FB020302FB0131C30B43EA0F
:1038C00041431B1BF61AB9E798F80030062B0BD1C1
:1038D00098F80130092B0DD1002300936946A9F116
:1038E0000200FFF7D9FC05E0042B03D198F8013062
:1038F000142BF3D00128D7D1009906480239FFF7DD
:10390000F3FED1E7482800203546526E5938002092
:10391000000001405C3800205B3C0020024B01228B
:1039200000211A70FFF77EBF59380020024B002299
:103930001A70FFF777BF00BF5938002030BFFFF77C
:10394000FDBF00BF114B124A2DE9F041D518DFF839
:103950004C80013DB5FBF3F55D430E4B08EB0304D2
:10396000013CB4FBF3F403FB04540E1B07460A4965
:1039700030460BF0FCF9701942460021083E0BF06E
:103980001EFA3E6704F10800BDE8F0810100000066
:10399000000000000400000054F2000004000000D9
:1039A000044B99689869884203D003494FF08052CC
:1039B0000A6070475834002004ED00E070B5264BD3
:1039C00015469A6A12F0100F9A6A14BF1124102437
:1039D00012F0080F9A6A18BF1224920706460AD5F9
:1039E000586B9A6A140634D519B19A6A22F080028B
:1039F0009A62132401E06FF01500174B9A6A12F0D7
:103A0000010F9A6A18BF142412F0200F9A6A18BF87
:103A10001524D20602D49B6A9B070AD50E4B5B681D
:103A2000190506D5314600F003FB10B180F3098873
:103A30000224094B9A6A920642BF5A6A22F4005243
:103A40005A629A6A42F0FF029A6200232B70204663
:103A500070BD6FF01500CCE700ED00E0134B9A6AE3
:103A600012F0007F9A6A14BF1E201D2012F0807F82
:103A70009A6A18BF1F2012F4002F9A6A18BF2120DB
:103A800012F4802F9A6A18BF222012F4003F9A6A1B
:103A900018BF232012F4803F9A6A6FEA02426FEA4D
:103AA00012429A6218BF2420704700BF00ED00E068
:103AB00010B5184B0246986A9C6A10F4805F14BFD8
:103AC0001720162014F4006F9C6A18BF1820A40554
:103AD00008D5986A000404D51AB19A6A22F4004203
:103AE0009A6219200B4B9A6A12F4806F9A6A18BF77
:103AF0001A20D2050CD49B6A13F4005F18BF1C2057
:103B0000044A936A43F47F43936200230B7010BD11
:103B10001B20F5E700ED00E070B5454B5B689CB0FD
:103B20000546C3F30803002686F31188BFF36F8FA1
:103B300002F07F40B0F17F4F11D102F00C00082855
:103B40000DD010074CBF0D4601260022033B8DF817
:103B50000720032B05D8DFE803F01E5D615A3546C8
:103B6000F3E700249DF807309BB96822294602A894
:103B70000BF0FDF8099B002E54D0C3F3080222B9C4
:103B80006FEA53236FEA4323099302A9204609F001
:103B9000C7FA1CB070BD264BDA6A9107E1D4DA6A25
:103BA000002ADEDBDA6A5200DBD55A69A96942F4E1
:103BB00080725A61BFF34F8FBFF36F8F5A6931F82C
:103BC000021C22F480725A61BFF34F8FBFF36F8FD4
:103BD0004DF6027291420AD09A6AD2B24AB10DF100
:103BE000070201212846FFF7E9FE0446BAE72C68E0
:103BF000B8E79A6A12F47F4F05D00DF10701012052
:103C0000FFF756FFF1E79B6AB3F5803FA9D3FFF7B3
:103C100025FFEAE70DF107020021E3E70DF10701B7
:103C20000020EDE723F4FF7323F00103ACE700BFAE
:103C300000ED00E0024A536943F0100353617047FE
:103C400000ED00E0EFF30880EFF3098101B5724663
:103C5000FFF762FF01BD00BF002080F31488BFF3AF
:103C60006F8F00F0CDFB00200D490860BFF34F8F30
:103C70000C4880F3088800F03DF8202080F311887C
:103C800009484FF40461401880F30988EFF3148069
:103C90000221084380F31488BFF36F8F00F032F9DC
:103CA00094ED00E000A80020004E0020BFF34F8FED
:103CB0000549064BCA6802F4E0621343CB60BFF3C8
:103CC0004F8F00BFFDE700BF00ED00E00400FA05E4
:103CD0000749D1F890200023C2F3072218469342E7
:103CE00000DB7047C1F89830C1F8A0000133F6E757
:103CF00000ED00E008B572B6002383F31388FFF7E8
:103D0000E7FF144B4FF0FF32C3F88020C3F8842044
:103D1000C3F88820C3F88C20C3F89020C3F89420FF
:103D2000C3F89820C3F89C20C3F88021C3F88421ED
:103D3000C3F88821C3F88C21C3F89021C3F89421DB
:103D4000C3F89821C3F89C2162B6BFF34F8FBFF32D
:103D50006F8F08BD00E100E0084B9B6883420BD1E8
:103D6000EFF3058343B1064B5A6842F080525A6024
:103D70005A6A22F400425A620AF0A1BD5834002067
:103D800000ED00E0094A93686FF00A01996708495D
:103D900058674B6843F080534B60002383F31188CE
:103DA000BFF36F8F9368986F704700BF583400203F
:103DB00000ED00E024498A6882F8BDE04FF0300051
:103DC0001044EFF3098C80E8F01F1EF0100F03D1B0
:103DD00002F17C0080EC108A202080F31288BFF36F
:103DE0006F8F1A4F4FF000668A698A603E604FF00D
:103DF000700414192068164C206092F9BDE0506FD1
:103E00000023536780F311881EF0100F03D00023A6
:103E1000E1EE103A03E002F17C0090EC108AEFF33F
:103E2000148323F0040383F31488BFF36F8F04B566
:103E3000104600F0B3F9BDE8044002F1300090E80C
:103E4000F01F8CF3098870475834002004ED00E01F
:103E50004C2800201EF0040F0CBFEFF30880EFF396
:103E60000980816911F8021C0229FFD001B509F00F
:103E700059F901BD40B2002807DB044A410901237A
:103E800000F01F00834042F82130704700E100E05D
:103E900040B200280CDB4309064900F01F00203324
:103EA0000122824041F82320BFF34F8FBFF36F8F71
:103EB000704700BF00E100E0054B420900F01F0021
:103EC00053F82220012303FA00F01040704700BF8E
:103ED00000E100E040B20028A8BF00F1604001F11D
:103EE0000101B8BF064B4FEA4111ACBF00F561407C
:103EF00000F00F00C9B2B4BF195480F80013704726
:103F000014ED00E0144A08B5144B22F07F029A60C9
:103F1000BFF34F8FBFF36F8FD3F8882022F4700266
:103F2000C3F88820D3F8882042F4A002C3F8882080
:103F30004FF04042C3F83422BFF34F8FBFF36F8F6F
:103F40000023E1EE103A03F0E3FF04F0BDFE00F0C1
:103F5000F9F804F02FF800BF0000000000ED00E0C9
:103F6000017B890705D5016E40310166416E4039FC
:103F7000416642F8203C009B42F81C3C0F49019BE3
:103F800042F8183C029B42F8143C21F001014FF02A
:103F9000807342F8043C42F8081C00234367037B0B
:103FA00013F0020FA2F120024FF6085308BF4FF49E
:103FB0007D430265C0F8BC30704700BF6915000042
:103FC000037B13F0020F194B03D190F8BD20D206EA
:103FD00017D45A6B42F080425A63D0F8BC301907AC
:103FE00009D443F00803C0F8BC30036E40330366C5
:103FF000436E403B4366037B43F002030373802020
:1040000070475A6B22F080425A63D0F8BC301A07CE
:1040100001D44020704723F00803C0F8BC30036E81
:10402000403B0366436E40334366F2E700EF00E037
:104030000C4A03469068A0B1D0F8BC20006E12F084
:10404000080F0CBF4022802213F1160F04D0821AF1
:104050009A4205D8834203D2814228BF002070478C
:104060000020704758340020114B9B6883421BD1BD
:10407000EFF30580C0B94FF02002EFF3118182F316
:104080001288BFF36F8F1A7B22F002021A73EFF3CC
:10409000148323F0040383F31488BFF36F8F81F339
:1040A0001188BFF36F8F70476FF01500704700BF26
:1040B0005834002008B514460D460022E1EE102ABF
:1040C000EFF3148222F0040282F31488BFF36F8F9F
:1040D000BFF36F8F094A0A4B9060026F1A6000F0BD
:1040E0005DF8204685F30988002163B681F31188C5
:1040F000BFF36F8F00220023FDF736FA58340020FB
:104100004C280020014910220A60704710ED00E0A1
:1041100072B6404080F31188BFF36F8FBFF34F8FAB
:1041200030BF62B6BFF36F8F704700BF72B64940B1
:1041300081F31188BFF34F8F20BF80F3118862B6DF
:10414000704700BF044800232021C2180133302BE0
:1041500082F80013F9D1704700E100E001B5EFF3F8
:104160000580A0F110004FEAC0000449014409C9CC
:104170009847BDE80140024908470000D4F000001C
:10418000A1390000024B034A0348012100F046B860
:10419000000004200000002044F6000010B5044692
:1041A000FFF70EFF226E03460548D21AC0E900232E
:1041B000044B8360BDE81040012100F039B800BF16
:1041C0005028002000000B15084AC2F898000B6820
:1041D00023F01F03034343F01003C2F89C308B68A5
:1041E00043F00103C2F8A030704700BF00ED00E0CB
:1041F000044B0522C3F89420BFF34F8FBFF36F8F9A
:10420000704700BF00ED00E0BFF35F8F024B00225C
:10421000C3F89420704700BF00ED00E010B5034CD8
:104220000123227808F09DFF207010BD5C40002023
:1042300008B5094A0023127808F093FF10F1160F11
:1042400003D0064B0022072800DD08BDC3F8980004
:10425000C3F8A0200130F6E75C40002000ED00E04C
:10426000F0B5454D2C68082C85B000F28280FFF730
:10427000CBFF00200C2684420DD1404D404F2C70C6
:104280006846FDF799FA00240646A6420AD1FFF7D0
:10429000AFFF00201CE0696806FB0011FFF794FFE8
:1042A0000130E8E7009800EB04114FEA041CCB68EA
:1042B0003B40B3F5000F4AD00CD8B3F5001F30D007
:1042C000B3F5800F38D0B3F5801F12D06FF0150012
:1042D00005B0F0BDB3F1807F42D0B3F1007FF5D1DE
:1042E00050F80C3088684A6808F02BFF40F48020B2
:1042F00009E050F80C3088684A6808F022FF40F066
:10430000885040F43020039028780728CDE9012315
:10431000DCD801A9FFF758FF2B7801332B7001344B
:10432000B3E750F80C3088684A6808F00AFF40F09C
:10433000885040F40020E6E750F80C3088684A685E
:1043400008F0FFFE40F0007040F40030DBE750F86A
:104350000C3088684A6808F0F4FE40F08270D2E7BA
:1043600050F80C3088684A6808F0EBFE40F088701E
:10437000C9E74FF0FF30ABE750F600005C4000208B
:104380000000F0FF08B50649064821F00701C1F119
:10439000005202F5802208F00FFA002008BD00BF8D
:1043A000470301205C2800200E4A0123C2F8403553
:1043B0004FF080424FF08051C2F87835D1F830018B
:1043C000082808D1D1F83411052904D80648415CE1
:1043D00009B1C2F838364FF080430122C3F8802576
:1043E0000020704700E0014013FC000020B1034BA7
:1043F000800143F001031847704700BF80F20000BE
:1044000002F0BABD020600F07F0312D5082B05D1D9
:10441000010700F00F0306D50E48704710F0780F23
:1044200012D100F00F034C2000EB43100A4B18444C
:104430007047082B05D1020700F00F0306D5074887
:10444000704710F0780FF6D000207047044800EB5A
:1044500043107047B429002068280020D42A002087
:10446000D4290020014902480AF027B990280020E9
:10447000B0040020014601480AF0BAB8F802002052
:1044800002480022002303F0B1BF00BFF802002061
:1044900013B5124800F0DEFE114B98421AD11148B4
:1044A00003F0D6FB0024104803F018FC0F49104815
:1044B00000944FF0FF334FF4806204F071F80D491F
:1044C0000B480AF007F80C480C490AF0D9F82046C6
:1044D00002B010BD6FF00400FAE700BFE54600002F
:1044E0000000AD0B27FC000070F6000080490020A2
:1044F000B004002019FC00009028002001480000B2
:1045000010B50E49BFF35B8F002351E8002F012A3D
:1045100003D141E800300028F7D1BFF35B8F0CD105
:1045200051F8044C1439204608F09AFA783004D136
:104530002046BDE8104008F06EBA10BD8828002063
:1045400038B5002464F07F00C0B2FFF75BFF013490
:1045500008F03BFE082CF5D10E4D0024E0B2FFF729
:1045600051FF036903B90561013408F02EFE082CE0
:1045700005F14005F2D1084808F027FE074BD3F8B3
:104580007C2212B9064AC3F87C22064808F01DFEB8
:10459000002038BDF82E0020B42900206828002013
:1045A000F82A0020D42A002010B5054CFFF768FF38
:1045B00020B14168204609F061FFF7E710BD00BF58
:1045C0006802002007B500230E48002201A903F06D
:1045D00071FD90B1FFF7E8FF0A480022002301A90E
:1045E00003F068FD38B90198042340600374FFF7B5
:1045F00041FFFFF737FF002001E00198406003B062
:104600005DF804FB68020020022810B511D8094BA0
:104610001C5CFFF7D7FF60B1002202740472FFF741
:1046200029FF054B93F824301BB1BDE81040FFF77C
:1046300019BF10BD24FC000068280020F8B5877859
:1046400006463846FFF7DEFE3B06F578044612D5EF
:10465000002D43D1FFF7B6FF034600283ED00122CC
:10466000A5770274032202739C60FFF703FFBDE885
:10467000F840FFF7F7BE4DB1012D2FD1FFF7A2FF94
:10468000034658B3657705740573EDE7FFF79AFFA6
:1046900020B3B278124B12F0800F02F0080111D053
:1046A00041B1D3F8A836E3600123037402230373F6
:1046B0008460DAE702F00F02142101FB0233D3F821
:1046C0000836F0E711B1D3F8A837ECE702F00F0293
:1046D000142101FB0233D3F80837E4E7F8BD00BF2B
:1046E00000700240F0B5064689B01422002103A8EC
:1046F0000AF065FB3378013B052B21D8DFE803F096
:104700007A0314146A1603238DF814300024FFF77B
:1047100059FF0346A0B1047400F10802DDE9050168
:1047200082E8030018461DE00423EDE7B778384619
:10473000FFF768FE837A044623B1013B022B43D97D
:1047400009B0F0BD3B06F57813D5002DF8D1FFF781
:1047500039FF03460028F3D00122A5770274032213
:1047600002739C60FFF786FE09B0BDE8F040FFF7DA
:1047700079BE55B1012DE3D1FFF724FF0346002890
:10478000DED0657705740573EBE7FFF71BFF07467F
:104790000028D5D00123037402230373846004F13D
:1047A0000C01B07808F072FD134AE168B2F88C325F
:1047B0008B4206D95B1AA2F88C3201F0A1F8384678
:1047C000D0E7A2F88C52FAE7304609B0BDE8F040D5
:1047D000FFF734BF01A801F071F89DF80530052BF3
:1047E00004D19DF8043013F0600FA9D0034B05935A
:1047F00001248CE702248AE768280020D4290020BD
:104800002DE9F043A64CDFF89C9285B08046FFF777
:1048100037FE074610B905B0BDE8F08394F825309F
:104820003A7C3BB9002A00F0868079689D4809F0FF
:1048300025FEECE7042A42D8DFE812F07D000500EF
:104840000001160140013B7BBD68032B37D8DFE830
:1048500003F0023D5A5F6E69934B00223260726032
:10486000D3F880143170D3F884147170D3F888149D
:10487000D3F88C0441EA00217180D3F89014D3F866
:10488000940441EA0021B180D3F89814D3F89C3401
:1048900041EA0323F3800823EB6030687168834B9F
:1048A00003C311462B68687A984796F90030002BAD
:1048B00008DBF38833B1A4F88C3201F021F8796871
:1048C0004846B4E70023A4F88C32F8E76B7F002B4E
:1048D000F5D02B7F002BF2D000266E774FF0FF3201
:1048E00073482E774FF0FF3308F082FC6B69019319
:1048F0006B68CDE9023601A9687A00F001FD6C48C9
:1049000008F078FCDBE72B680121687A9847D6E746
:10491000AB7A6BB9EB7F5BB965484FF0FF324FF074
:10492000FF3308F065FC00F0F1FF614808F062FC1D
:104930002B680221E9E73A7A042AC0D8DFE802F0BE
:1049400059032367730000F051FC05460028B6D1D7
:1049500000F08AFBBFF35B8F5649012351E8002F1B
:10496000002A03D141E800300028F7D1BFF35B8F64
:10497000A5D141F8085C41F8105CE0696361143925
:1049800007F0F1FF9BE7002565F07F00C0B2FFF75D
:1049900039FD037A13B1407A01F020F90135082D71
:1049A000F2D194F854311BB194F8550101F016F985
:1049B0000025E8B2FFF726FD037A13B1407A01F033
:1049C0000DF90135082DF4D194F874321BB194F827
:1049D000750201F003F9002000F0ECFB012384F8DC
:1049E00025302368002B3FF46AAF0021022098474E
:1049F00065E7002584F8255001F056F8FFF780FDA3
:104A00002368002B3FF45BAF29460420EFE7002B1F
:104A10003FF455AF00F0F4FB2368002B3FF44FAF99
:104A200000210520E3E72268002A3FF448AF002B6D
:104A30003FF445AF00210620904740E708F11005FC
:104A40004FF0FF334FF0FF32284608F0D1FBFFF75D
:104A500077FD284608F0CEFB58F8283C002B3FF4A1
:104A60002EAF00210120C2E794F874327BB10125FA
:104A700084F8895284F88852FFF7A4FD38B10E4AB1
:104A8000057405738260FFF7F5FCFFF7EBFC58F83F
:104A9000283C002B3FF413AF00210A20A7E700BFFA
:104AA0006828002068020020007002406C28002066
:104AB000A028002088280020D42A002009F0CAF865
:104AC00000F0F2FF00F0C6FAFFF76EFDFFF738FDC9
:104AD00009F0B9F8014800F0BDFBF0E6E54600003A
:104AE00038B5164D95F824402CBB05F1380009F077
:104AF0000AFD204601F0B0F922460121E861272095
:104B0000FFF7E8F909F09FF8FFF71AFD044610B91E
:104B1000012385F824300A4B1B680BB1FFF7A2FC78
:104B20004FF08043D3F83834DB0702D50020FFF77D
:104B30006BFD204638BD0024FBE700BF682800203D
:104B4000F802002010B50D484FF0FF324FF0FF3350
:104B500008F04EFBFFF728FD00F048FB08B100F01D
:104B6000A3FFFFF7CDFC09F075F80548002480F895
:104B70002440383008F03EFB204610BDA02800201D
:104B800068280020074B93F824203AB193F8253089
:104B9000002B14BF00206FF0120070476FF012005E
:104BA000704700BF6828002038B5104B93F82430B8
:104BB0000446C3B105782846FFF724FC10B96FF00E
:104BC000150038BD4572237983726388436020786D
:104BD000618810F0080F02D14B1E0B42EFD108F094
:104BE00050FB0020EDE76FF01200EAE76828002094
:104BF00038B5124B93F824200546CAB193F82530F6
:104C0000B3B1FFF7FFFB0446A8B1837A012B12D0A2
:104C100007D9023B012B07D96369A3610020E0603B
:104C200038BD00F079FEF7E7284600F01BFEF3E7F9
:104C30006FF01200F4E76FF01500F1E7682800202C
:104C400038B50E4B93F82420054682B193F82530F1
:104C50006BB1FFF7D7FB68B115F008040AD12846FD
:104C600000F022FE284600F0F3FF204638BD6FF02A
:104C70001200FBE76FF01500F8E700BF682800207E
:104C800038B50C4B93F8242005460C4662B193F8D6
:104C900025304BB1FFF7B6FB48B144B1284600F0D0
:104CA000E9FD2070002038BD6FF01200FBE76FF0C7
:104CB0001500F8E76828002070B5134E96F82430E8
:104CC0000446C3B1FFF79EFB0546B8B1230705D4E0
:104CD000204600F0E9FD204600F0BAFF2B7A83B9A8
:104CE00001232B7296F825300BB9002070BD2046A9
:104CF00000F074FFF9E76FF01200F7E76FF01500AE
:104D0000F4E76FF07700F1E7682800202DE9F04321
:104D1000DFF8EC801E4698F8243085B007468946B7
:104D20001546002B61D098F82530002B5DD0030686
:104D30005ED5FFF767FB0446002859D0037A002BA5
:104D400056D04FF0FF334FF0FF3208F1380008F033
:104D50004FFAA37F4BB108F1380008F04BFA6FF01F
:104D60000A04204605B0BDE8F083A37AC5B13BB381
:104D70000123A3774FF0000801A93846CDE901953A
:104D8000CDF80C8000F0BCFA1B4B984229D084F877
:104D90001E801EBB6FF00404184808F02BFAE0E7F1
:104DA000E27F02B1E577002BE2D100F0BBFDB84213
:104DB000DED000F0ABFD114808F01CFA0024D0E76B
:104DC000B8F80A30AB42F0D96268B5FBF2F302FBE7
:104DD0001353002BE9D10123E377E6E7C6F80080FF
:104DE000D8E706B135600024D6E76FF01204B8E7C3
:104DF0006FF01504B5E700BF0000AD0BA028002040
:104E0000682800202DE9F0411D46204B174693F8F5
:104E100024200E46002A33D093F8253083B30306AE
:104E200031D401B97FBBFFF7EDFA044658B3037ADA
:104E30004BB34FF0FF3316484FF0FF3208F0D8F96C
:104E4000E3689F42B84628BF984646B93FB905B1C6
:104E50002B600F4808F0CEF90020BDE8F081A16971
:104E60004246304609F083FFA3694344A361E368E7
:104E7000A3EB0803E360002DEBD0C5F80080E8E762
:104E80006FF01200E9E76FF01500E6E768280020F0
:104E9000A028002070B51E4D95F82420034682B34B
:104EA00095F825206AB31B062ED4FFF7ABFA04460B
:104EB00050B3037A43B34FF0FF334FF0FF3205F1A5
:104EC000380008F095F9E368B3B9012663692677DD
:104ED000A361637F83B1FFF775FB30B905F138003B
:104EE00008F088F96FF00B0070BD067484600673DB
:104EF000FFF7C0FAFFF7B6FA064808F07BF9002082
:104F0000F2E76FF01200EFE76FF01500ECE700BF7B
:104F100068280020A028002010B5084B93F8243002
:104F20000C462BB1FFF76EFA28B10460002010BDCB
:104F30006FF01200FBE76FF01500F8E7682800201B
:104F4000014B1860704700BF6828002008B5074B68
:104F500093F8243023B1FFF755FA20B1406808BD1B
:104F60006FF01200FBE76FF01500F8E768280020EB
:104F70004FF08053D3F83021082A06D1D3F83431CA
:104F8000052B04D8034AD05C7047002070470120ED
:104F9000704700BF28FC0000064B10F0800FA3F103
:104FA000D80208BF134600F00F00182202FB0030A1
:104FB000704700BF103200204FF02003EFF3118044
:104FC00083F31288BFF36F8F0A4BD3F8001C0322C0
:104FD00061B949F27531C3F8001CC3F8142DC3F848
:104FE000001C80F31188BFF36F8F7047C3F8142D36
:104FF000F7E700BF00E006404FF02003EFF3118019
:1050000083F31288BFF36F8F0A4BD3F8001C61B98A
:1050100049F27532C3F8002CC3F8141DC3F8002CF4
:1050200080F31188BFF36F8F70470022C3F8142DEF
:10503000F6E700BF00E006404FF08053D3F8303170
:10504000082B02BF024B0022C3F81C2C704700BF84
:1050500000700240024A00231360024A1370704736
:10506000F03200206140002008B54B4B4FF4006245
:10507000C3F80024FFF77CFF08B1FFF79DFF4FF056
:105080008053D3F83031082B19D14FF02003EFF3C0
:10509000118083F31288BFF36F8F404BD3F8001C4D
:1050A000C02200296FD149F27531C3F8001CC3F842
:1050B000142CC3F8001C80F31188BFF36F8F364B9C
:1050C0000122C3F80025D3F800241205FBD54FF4C4
:1050D0000062C3F800244FF08053D3F83031082B1E
:1050E00018D14FF02003EFF3118083F31288BFF340
:1050F0006F8F2A4BD3F8001C002947D149F2753233
:10510000C3F8002CC3F8141CC3F8002C80F31188DA
:10511000BFF36F8FFFF72CFF30B1FFF76DFFFFF785
:1051200027FF08B1FFF748FF4FF08053D3F8303125
:10513000082B194B0AD140F2E372C3F80028402231
:10514000C3F80428BFF36F8FBFF34F8F8022C3F8DB
:105150001C250122C3F83025114B40F2FF121A60C2
:10516000104B00211960104B1970FFF765FF0F4BB2
:1051700019700F4B02221A70FFF7FAFE50B1BDE80A
:105180000840FFF739BFC3F8142C94E70022C3F896
:10519000142CBBE708BD00BF0070024000E00640D1
:1051A000EC320020E83200205D4000205F4000200B
:1051B00061400020094B002210B51A70084A094BC3
:1051C000094C002808BF1346C4F800332720FEF717
:1051D00051FE0123C4F8043510BD00BF604000201B
:1051E000FDFFDF01FDFFFF0100700240034B187857
:1051F000012894BF00200120704700BF61400020BB
:1052000010B54FF02003EFF3118183F31288BFF341
:105210006F8F0E4B1B7803F0FF0083B10C4BD3F85C
:10522000002412F400720AD10124C3F82C45D3F8EB
:105230002C45D3F80044A40502D5C3F82C25002042
:1052400081F31188BFF36F8F10BD00BF6040002055
:1052500000700240F8B51C4B1C7894BB1B4A1060D0
:1052600001221A7040F2FF17264664F07F0514F001
:10527000080FEDB214BF39464021284608F001F866
:105280002846FFF789FE0134092C867506730661EE
:10529000EBD1002440F2FF17254614F0080FE6B2C8
:1052A00014BF39464021304607F0EBFF3046FFF788
:1052B00073FE0134092C857505730561EDD1044831
:1052C000F8BD0448FCE700BF61400020F032002038
:1052D0000000AD0B0500AD0B084B10F0800F00F087
:1052E0000F0114BFD3F81025D3F8142501238B40E8
:1052F000134214BF01200020704700BF007002401D
:105300002DE9F84302464FF02003EFF3118783F3B2
:105310001288BFF36F8F030703D1194B1B788342A9
:1053200029D1184B184E1C683568104607F0A1FFAC
:10533000E443A4B24FF001092C4309FA00F814EA3F
:1053400008041AD11046FFF727FE80F80C90034698
:1053500007C91C6183E807009C750C4B0C4845EAA3
:10536000080580223560C3F8042187F31188BFF354
:105370006F8FBDE8F8830748F7E70748F5E700BFF8
:105380005F400020EC320020E832002000E100E025
:105390000000AD0B0A00AD0B0B00AD0B10F0080FB9
:1053A000074B06D0D3F8C00410F4803F18BF00208C
:1053B000704700F00F0000F5947053F8200070471C
:1053C000007002402DE9F74FA84BD3F8604134B18B
:1053D0000022C3F86021D3F86C44C3F86C44D3F8BE
:1053E00028214AB10022C3F82821A14B187807F0E0
:1053F00040FF012383401C439E4F9F4E3D7897F909
:10540000008015F0080143D1B8F1000F05F00F033B
:105410002EDA9A4A52F8230020B342F823101422BD
:10542000534303F1804303F51C33D3F80836944A01
:10543000117803F001034B401370FFF7FDFD914815
:1054400003F008F82846FFF7A7FD837D032B37D12B
:10545000284607F00EFF012303FA00F0336823EA21
:1054600000033360DFF82C92DFF8208201255FE033
:10547000854A52F823000028F4D042F82310142261
:10548000534303F1804303F51C33D3F80837CEE7C9
:10549000B8F1000F754B09DBD3F85021002AE1D099
:1054A0000022C3F85021D3F8A837C0E7D3F82C2145
:1054B000002AD7D00022C3F82C21D3F8A836B6E7AB
:1054C000037BDBB9284607F0D4FE012303FA00F082
:1054D0003368B8F1000F23EA0003336001DA882D46
:1054E000C0D106238DF8043000238DF80730674BB8
:1054F0008DF806501B6801A89847B3E7002DB1D17D
:105500005A4B0122DA64ADE794FAA4F0D9F80020EE
:10551000B0FA80F005FA00F31A430F28C9F800200A
:1055200024EA0304326840F3B780134200F0C580D8
:10553000002CE9D14D4BD3F800215AB1C3F80041FA
:10554000534B1C704A4B1C70012301934F4B01A815
:105550001B689847454BD3F85421EAB10022C3F8A1
:105560005421D3F80413890216D58DF80420D3F8FA
:105570002025ADF80620D3F8C034002BD9F8003030
:1055800014BF4FF001224FF480721343C9F800306A
:105590003E4B01A81B689847344BD3F85821002A8A
:1055A0002ED00022C3F85821D3F80044C3F8004499
:1055B000E50508D5364B01221A7002230193334BBF
:1055C00001A81B689847A00508D5314B00221A7026
:1055D000032301932D4B01A81B68984761050FD544
:1055E0002B4B1A7862B100221A70204B0122C3F8AB
:1055F00008259A6504230193244B01A81B6898474A
:105600001A4BD3F85C310BB31E4B9B6813B93B7834
:105610005A061BD0154B0022C3F85C21D3F8803406
:10562000134A23F07F031370336823F001133360B0
:10563000D9F8003023F4803343F00103C9F8003077
:1056400005230193114B01A81B6898473268D9F8CC
:1056500000301A4207D00B480022002302F01EFF40
:10566000002800F0D58003B0BDE8F08F0070024044
:105670005F4000205E400020E832002008710240B8
:105680005D400020E802002030710240F03200202E
:1056900060400020EC32002013407FF449AF062226
:1056A00060F07F018DF804208DF806108DF807302A
:1056B000D8F8003001A898473AE70623A0F1100176
:1056C0008DF804308DF806108DF80750F0E718F0CB
:1056D000012314BF93FAA3F898FAA8F8B8FA88F847
:1056E000B8F10F0F18D9A8F11005EDB22846FFF751
:1056F00053FC04462846FFF751FE6368B4F814C013
:105700002268984266D81B1A00EB020E11466360AD
:10571000C4F800E0824660E048F080052846FFF7C4
:105720003BFC4368B0F814A001689A4528BF9A462C
:1057300001F06043B3F1005F044605D045484023C3
:10574000524609F0D2F94349236862685344236002
:10575000A368A2EB0A02DB0768B2626005D5BAF162
:10576000000F04D10023237301E0002AFAD04FF088
:105770008053D3F83031082B02BF374B8222C3F855
:105780001C2CD9F800303D70012202FA08F823EAF7
:105790000803C9F80030236915F0080F534423614A
:1057A0002D4B49D1002805F00F054FF0140000FBE8
:1057B0000530B5BF03EB85030A35C0F80016C0F805
:1057C0000017B5BFC0F804A6C0F804A75A6043F894
:1057D000252048E711464FF0000A604526D1003BDE
:1057E00018BF012322B3504522D9012303FA08F33D
:1057F0002BEA0303336006238DF80430174B8DF832
:10580000065002221B68A2758DF8072001A8984750
:10581000D6F800B0D9F800301BEA03087FF457AF80
:105820000F4803B0BDE8F04F02F014BE0023D9E7E3
:1058300068B2002B9BD195E70028B5BFC3F8A0162E
:10584000C3F8A017C3F8A4A6C3F8A4A7B4BF5A62AC
:105850009A6408E7F830002000700240F03200201F
:10586000E8020020024B40F48070C3F8180570472E
:1058700000700240030713D400F00F0310F0800FF4
:10588000084A0BBF03F5887303F5847302EB8302A8
:1058900052F8230008BF5068003818BF0120704735
:1058A0000020704700700240034BC3F80C0540F421
:1058B0008070C3F80C05704700700240002303603D
:1058C00043600E4BD3F880240270D3F884244270D6
:1058D000D3F88824D3F88C1442EA01224280D3F80A
:1058E0009024D3F8941442EA01228280D3F89824B9
:1058F000D3F89C3442EA0323C3807047007002400F
:10590000014B0122DA64704700700240014B012212
:105910001A65704700700240014B01225A657047BA
:1059200000700240014B1878704700BF5F400020B4
:1059300010B502464FF02003EFF3118483F3128871
:10594000BFF36F8F07F095FC0B49012303FA00F0BA
:105950000B6823EA00030B6012F0080101BF02F09C
:105960000F02064B02F5947243F8221084F311885B
:10597000BFF36F8F10BD00BFEC32002000700240FB
:10598000F7B501464FF02003EFF3118583F312883A
:10599000BFF36F8FFFF700FB0646084607F069FC70
:1059A000012211F0800F02FA00F22E4818D103688C
:1059B00032EA03040AD00846FFF7BAFF0323B3759F
:1059C00085F31188BFF36F8F03B0F0BD26493473A0
:1059D00023EA020303600B6823EA02030B60EDE78E
:1059E0000B0715D48029214B2FD001F00F0404F2AE
:1059F000DA346400C3F80048D3F80448D3F80478D4
:105A0000E4B244F002043C43C3F80448D3F8043839
:105A1000154F04683B6864EA030C1CEA020FCFD000
:105A200013433B60002333730323B3758DF80730B2
:105A30000F4B8DF8061024EA0204062204601B684E
:105A40008DF8042001A89847BAE740F2B474C3F86F
:105A50000048D3F80448D3F80478E4B244F00404CE
:105A6000D1E700BFE8320020EC3200200070024095
:105A7000F032002038B50446094D4FF0FF324FF0A8
:105A8000FF33284602F00AFD2046FFF779FF28463B
:105A900002F0E0FC034B8022C3F8042138BD00BFB4
:105AA000E802002000E100E0F8B54FF0FF324FF0CF
:105AB000FF332B4802F0F2FC2A4B8022C3F88421EA
:105AC0002720FEF7F9F998B1274E284B34681B6858
:105AD000240C24041C43012764BB254D40F2FF1312
