:020000040000FA
:1000000000450020991E0000D5670000851E0000F5
:10001000851E0000851E0000851E000000000000F7
:10002000000000000000000000000000991F000018
:10003000851E000000000000851E0000851E0000D7
:100040005D2100005D2100005D2100005D210000B8
:100050005D2100005D2100005D2100005D210000A8
:100060005D2100005D2100005D2100005D21000098
:100070005D2100005D2100005D2100005D21000088
:100080005D2100005D2100005D2100005D21000078
:100090005D2100005D2100005D2100005D21000068
:1000A0005D2100005D2100005D2100005D21000058
:1000B0005D2100005D2100005D2100005D21000048
:1000C0005D2100005D2100005D2100005D21000038
:1000D0005D2100005D2100005D2100005D21000028
:1000E0005D2100005D2100005D2100005D21000018
:1000F0005D2100005D2100005D2100005D21000008
:1001000053B94AB9002908BF00281CBF4FF0FF317E
:100110004FF0FF3000F00CB8ADF1080C6DE904CEE3
:1001200000F008F8DDF804E0DDE9022304B07047D0
:10013000704700BF2DE9F04786468C460846089E6A
:10014000154674461946002B40F0C2808542B2FA2B
:1001500082F245D94AB1C2F1200300FA02FC2EFA1C
:1001600003F3954043EA0C0C94404FEA154EA8B2B5
:10017000BCFBFEF8230C0EFB18CC08FB00F943EA8D
:100180000C43994528D9EB1808F1FF3704D299455B
:1001900002D9A8F102072B44A3EB0903A4B2B3FBD5
:1001A000FEFC0EFB1C330CFB00F044EA0344A042AF
:1001B00014D92C190CF1FF3304D2A04202D9ACF1AE
:1001C00002032C44241A43EA07401EB1D440002302
:1001D00034607360BDE8F0874746DDE76346F1E7CA
:1001E00092BB431B01214FEA154EAFB2B3FBFEFC9D
:1001F000200C0EFB1C330CFB07F840EA0343984528
:1002000062D9EB180CF1FF3004D2984502D9ACF159
:1002100002002B44A3EB0803A4B2B3FBFEFC0EFBCD
:100220001C330CFB07F744EA0344A7424ED92C19B0
:100230000CF1FF3304D2A74202D9ACF102032C44E3
:10024000E41B43EA0040C0E7C2F1200320FA03F1B7
:10025000954090402EFA03F303434FEA154EAFB298
:10026000B1FBFEFC0EFB1C10190C0CFB07F841EA5D
:100270000041884504FA02F422D969180CF1FF30D4
:1002800004D2884502D9ACF102002944A1EB08014F
:100290009BB2B1FBFEFC0EFB1C110CFB07F743EA03
:1002A00001439F420ED9EB180CF1FF3104D29F425B
:1002B00002D9ACF102012B44DB1B41EA004192E779
:1002C0006046E3E76146F7E76046A3E76346B7E7C2
:1002D000834206D916B9002108467BE7C6E900E04B
:1002E000F9E7B3FA83F78FB9834201D3724508D88F
:1002F000BEEB020460EB030301209C461EB9002103
:1003000068E73846FAE7C6E9004CF8E7C7F1200C81
:10031000BB4022FA0CF41C432EFA0CF120FA0CF329
:10032000B84001434FEA14490EFA07F5B3FBF9F858
:100330001FFA84FE09FB18300B0C08FB0EFA43EA87
:1003400000439A4502FA07F240D9E31808F1FF305A
:1003500004D29A4502D9A8F102002344A3EB0A0370
:1003600089B2B3FBF9F809FB183308FB0EFE41EA2A
:1003700003418E452CD9611808F1FF3304D28E4514
:1003800002D9A8F10203214443EA0040A0FB0298ED
:10039000A1EB0E014145CE46434602D306D14D4561
:1003A00004D2B9EB020E68EB04030138002EA6D08C
:1003B000B5EB0E0261EB030101FA0CFC22FA07F324
:1003C0004CEA0303F940C6E9003198E74046C5E727
:1003D0004346D9E7F0B52E4B2E4AC3F800262E48E7
:1003E000C3F8042685B0C3F808264921C3F80C26B3
:1003F000C3F81026C3F81426C3F81826C3F81C2621
:1004000006F05FF905F034FD01A800F09DFC234BD8
:100410001B68834204D02248452106F052F9FEE7CA
:10042000039A2048492106F04CF91F48492106F05B
:1004300048F94FF44041002006F072FC044620B118
:100440001A48452106F03DF9FEE769469DF8080087
:1004500000F030F8009B039D1D44019B1E8902F0B3
:10046000FBFFAF1900F0CCFF00F0A0FF01F050FD42
:10047000AB5983F3088884F31488BFF36F8FBFF3FD
:100480006F8F7B6898470A48452106F01AF9FEE706
:10049000000001403546526E78760000D8010020F9
:1004A00091760000B4760000E37600000877000043
:1004B0003B77000008B5024638B1054800234521C6
:1004C00006F0FFF86FF0150008BD0860FCE700BFFC
:1004D0005E77000021B1012906D06FF0150070474A
:1004E000044B53F830007047024B03EBC0035868CD
:1004F000704700BF087300002DE9F04F7E4FDDB05C
:10050000DDE9688914461D46DDF8A8B13E6800F0B3
:1005100017FF7A4B0122C3F800253CA804F0CCFB5E
:10052000B8F1000F07D0B9F1000F04DD4A4641468B
:100530003CA805F0C1FF23896289D4F80CA01344BC
:100540009A444FF00008C24551D80FA93CA804F0C6
:1005500025FC6A4B0022C3F80025C3F80025BBF137
:10056000000F04D020220FA9584606F093F900236B
:1005700000932A464FF6FF73214609A805F079FC3F
:100580000390002844D128460E9C00F079F984425B
:100590003ED8DFF870B1DFF864914FF0FF340DF111
:1005A0001E0307AA08A909A805F0B1FC00282FDB43
:1005B00040F09B80BDF81EA0BAF1100F31D1BDF8FC
:1005C0001C80B8F1200F23D1089943463CAA284645
:1005D00006F085F8E0B942463CA90FA805F00FFDEA
:1005E000474B1B68834213D101230393D7E7679BD3
:1005F000669AAAEB0809994528BF99464B46414699
:10060000284606F06CF828B13C4B0022C3F80025C0
:100610003E686DE066994A463CA805F04DFFC84427
:1006200091E7BAF1010F3FD1BDF81C30202BEFD874
:1006300008993CAA284606F052F804460028E7D15B
:100640009DF81C300493202B0AD8DBF80030DFF82B
:10065000B8800593059B9C4205DB0023C9F8003553
:100660004FF0FF349BE700F06BFEC9F800A51FA810
:1006700004F022FBD8F8042058F8081B12681FA8C1
:1006800005F01AFF17A91FA804F088FB0022C9F87B
:100690000025049A3CA917A806F0ECF810B9C9F88F
:1006A00000057CE70134D5E7BAF1220F7FF477AF7C
:1006B000631C3FF474AFDBF80030A342D0DDBDF81B
:1006C0001C30802BA4D808993CAA284606F007F8CD
:1006D00000289DD1E4B2BDF81C3000943CAA202132
:1006E0000FA800F013F80646BAE7039B002B8FD043
:1006F00030465DB0BDE8F08F0400002000A002503D
:10070000D801002010730000147300002DE9F04799
:1007100096B016461D469DF87820374BDFF8E880E6
:1007200053F83210019103EBC20307465B68D8F817
:100730000090186802AA0144302301A805F04AFE7F
:10074000002851D1DDE901431C4403AA06AB214630
:1007500001A805F067FE002846D1049A072A43D174
:100760002649059806F086F800283DD1079A082A00
:100770003AD12349089806F07DF8A8BB02AA214681
:1007800001A805F03BFE78BBDDE901A30AEB0302FB
:10079000944229D1412B27D13544302303AA29463D
:1007A00002A8029605F016FEE0B9DDE90232134414
:1007B0009D4217D32A4602A906A805F0F4FB88B982
:1007C0002A4602A90EA805F0EEFB58B99AF80030A7
:1007D000042B07D1202306AA0AF10101384600F0B4
:1007E000C7FD28B1D8F80090484616B0BDE8F0879C
:1007F000044BD3F80090F7E7147300008D770000E6
:1008000084770000D801002004000020094A0B78FA
:10081000400052F820108B4209D0013052F82000DD
:10082000834214BF4FF0FF304FF4C07070474FF455
:10083000C07070471C7300001FB50F4B13F83000D9
:100840000C4601F075F950B92068816810236A469A
:10085000103905F044FF28B1206805F03FFF4FF044
:10086000FF3006E005491022684606F003F800282C
:10087000F2D104B010BD00BF1C7300006876000008
:1008800013B5044605F0C2FB6A460146204605F052
:10089000D6FA30B10448452105F013FF002002B01C
:1008A00010BD0098FBE700BF957700002DE9F041EF
:1008B000364B88B0064600200D461C68FFF70AFE3E
:1008C00006A9C0B201F034F9002858D12946FFF733
:1008D00001FE2C2407A9C0B204FB056401F028F92D
:1008E000002833D02C276F4306EB0708069BD8F867
:1008F000101011F0100138D14FF480720192244A87
:100900000092CDE90311224602910846FFF7F4FD5B
:100910000446204BF25906989A420CD1D8F80C2084
:10092000B8F808309B1806D28268934203D21A4B5B
:100930001B68A34220D035B38268002105F0F9FE80
:10094000164A1748452105F0BCFE13E0079805F04C
:100950000DFF0746079805F0C1FE631EE21C13F861
:10096000011FB942BED19342F9D11DB1069930465B
:1009700005F036FC0B4B1C68069805F0AFFE2046D0
:1009800008B0BDE8F081084ADBE700BF04000020A2
:10099000A40F00203DB8F396D8010020D8770000BE
:1009A000E277000000000020D07700007FB50D4600
:1009B000044600212846CDE9021105F0D0FB28B3FA
:1009C0002368194EB34203D103AA204605F05CFB0D
:1009D000E36AB34204D102AA0121204605F054FB88
:1009E000DDE90232934288BF0393039BAB60039A15
:1009F0002946204600F0A2FB0C4B1A68002A03DDB2
:100A00000B48572105F05DFE04B070BD01A9FFF74A
:100A100013FF019805F1080105F003FBAB6801988D
:100A2000039305F05BFEE2E73DB8F3963C0E002031
:100A30000A7800002DE9F84FDFF878B01B4C1C4D08
:100A4000884691469A4600260B9B9E4201D3002081
:100A50000FE00B9B174A9F1BB7F5806F28BF4FF421
:100A600080673B4606EB0A01404605F038FE10B1B0
:100A70000120BDE8F88F0A993B465A46711848464E
:100A800005F042FE0028F3D1C4F800563E44C4F8F5
:100A90000456C4F80856C4F80C56C4F81056C4F8E6
:100AA0001456C4F81856C4F81C56CDE7000001408F
:100AB0003546526EDC090020F0B5994B43620E4674
:100AC000984B0365002189B004460846FFF702FDF4
:100AD00004F120010546C0B201F02AF80346E8B946
:100AE0000121FFF7F7FC04F14C010546C0B201F00B
:100AF0001FF80346E0B9204605F007FB0546C8B9D4
:100B000000221146204605F0A9FA054660B3864842
:100B10000022572105F0D5FD01239CE00022CDE9FC
:100B20000023824800232A46452105F0CAFDFEE73E
:100B30000122F4E77E488022572105F0C2FD0123FF
:100B40009D4284F85830DBD194F858308DF8173036
:100B5000042B00F28380012B00F2878000F09A8042
:100B6000FF2384F8583095E0204600F0FFF9002874
:100B7000D2D004A805F0EAFA0146204605F085FB2C
:100B800018B16C482A465721C4E704A805F0E7FAD3
:100B900080F0010104AAC9B2204605F05FFA0246BE
:100BA0000028B4D104A805F0DAFA054660BB04A910
:100BB0002046FFF7FBFE9DF8173084F85830033BC2
:100BC000012B06D8284600F0E5F810B1FF2384F881
:100BD00058309DF81730023B022B0BD8002000F054
:100BE000C3F838B1FF2384F858305348452105F045
:100BF00068FDFEE794F85830FF2BF6D004AA0021D8
:100C0000204605F02BFA87E79DF81770012F17D1C2
:100C1000104602F0CDFC831E022B05460DD8394646
:100C20002046FFF743FE454B1B68984205D0444BD6
:100C30001D68A84214BF0525012584F8585083E794
:100C400001212046FFF732FE3C4B1B6898420CBF47
:100C50009DF81730052384F8583075E7052B7FF48D
:100C60007FAF002000F096F811E004A92046FFF7BE
:100C70009DFE94F85830DA1E012A14D8002000F0A6
:100C800089F800287FF46CAF002000F06DF8002890
:100C90007FF466AF94F85830FF2B07D126484521E2
:100CA00005F00FFDFEE7022BF4D1EDE70022012B4A
:100CB000244D039214D01146204605F0CFF978B1A7
:100CC0002D68102200210DEB020005F0EEFDE06C16
:100CD00005F004FD206A05F001FD284609B0F0BDCD
:100CE00000212046FFF7E2FD144F3B689842E7D110
:100CF0002B689842E4D0124B1B689842E0D0039BCB
:100D000001330393039B012B00D0FEE7206A05F01B
:100D100094F83071236A5B6834603D68B360D0E753
:100D2000DC050020DC010020C878000039780000D4
:100D300086780000F47800001E790000D8010020B9
:100D4000000000200400002038B5064D0446602253
:100D50000021284605F0A9FD21462846FFF7ACFEF4
:100D600038BD00BFDC0D002013B5094B01A913F8F5
:100D7000300000F0DDFE48B9019806F08EF8044618
:100D8000019805F0ABFC204602B010BD0124FAE743
:100D9000247300001FB50F4B01A913F8300000F0B9
:100DA000C7FEA8B9019802A902F0ACFB044668B9D5
:100DB0009DF80B30032B03D1019806F03CF8044654
:100DC000019805F08BFC204604B010BD0124F7E724
:100DD0000124F8E7247300002DE9F34106460C4690
:100DE00017461D460BB9002628E0184605F0B7F94E
:100DF0000028F8D16946FFF71FFD009838B9012493
:100E0000009805F06BFC204602B0BDE8F08101A916
:100E100005F007F90028F2D1009805F05FFC304694
:100E2000019905F06EFA736A5E686B79012B21D126
:100E3000002CD8D12B68834298BF00262146002081
:100E4000FFF748FB6946C0B200F072FE0028D6D119
:100E5000009820233A46314605F041FC044600281C
:100E6000CDD1002DCCD03C680D4BE41A18BF4FF00B
:100E7000FF34C5E7022BB6D12B68012B05D983427D
:100E8000B1D8B4FA84F46409ADE7ACD1002CD5D064
:100E9000012CA8D12C79023C18BF0124A3E700BF84
:100EA0003DB8F3962DE9F04F074685B00C46014654
:100EB00000201646FFF7AAFC051E50DB3846E46DFD
:100EC00005F0A4F85FFA84F96B1E09FB03084FF0E4
:100ED000000A4FF0010B4FF0FF349DB9BAF1010F3A
:100EE00003DD2148452105F0ECFB631C06D07F2C77
:100EF0002ADC013440F201133460B380284605B087
:100F0000BDE8F08F6B1E00930DF10F0201234146E7
:100F1000384605F0E4FB031E019322DB01220DF1AC
:100F20000F01384605F022FF019B40B15B4501D01F
:100F30000AF1010A009DA8EB09089B46CDE7B4F130
:100F4000FF3F08BF2C46F5E70223803C7371631016
:100F500004F001040133013433603471CEE7072516
:100F6000CCE70125CAE700BF2A79000038B5816ABD
:100F7000426D914208D0531C8B4205D01348572133
:100F800005F09FFB002038BD80291CD9104857214F
:100F9000F6E7446A056D04EBC30405EBC30564681A
:100FA0006D68AC4202D00B485721E9E701339A4201
:100FB000EFD1914205D9436A03EBC2035B68A342B8
:100FC000F1D10120DFE700231C46F0E74D79000056
:100FD00085790000B479000000B589B004A9022029
:100FE00005F036FF9DF81020012A41D0254B2649F7
:100FF000032A08BF0B469DF8132002929DF8122089
:1010000001929DF81120214800924921204A05F0C3
:1010100058FB06A9052005F01BFF9DF81820012AA2
:1010200028D0184B1849032A08BF0B469DF81B20EF
:1010300002929DF81A2001929DF8192000921348FF
:10104000144A492105F03DFB9DF81030012B13D1C6
:101050009DF81230032B0FD19DF81830012B0BD0C7
:101060000D48492105F02DFB022009B05DF804FB75
:101070000A4BC0E7094BD9E70948492105F021FB94
:101080000020F2E7E0790000E9790000FD79000036
:10109000EF7900003E7A00004E7A0000E47900000B
:1010A0006D7A000070B54B6814461E4A03F0FF23AA
:1010B000934286B006460D462FD10B68012B2CD1EA
:1010C00004A9204602F01EFA9DF81020012A26D01D
:1010D000154B1649032A08BF0B469DF813200292B0
:1010E0009DF8122001929DF8112000921048114A9B
:1010F000492105F0E6FA9DF81030032B0DD1214669
:10110000304605F06DF8204605F095FEA9682046AA
:1011100004F095FF204602F0D5F906B070BD064BED
:10112000DBE700BF00010004E0790000E97900007E
:10113000FD7900003E7A0000E47900002DE9F04FCF
:10114000164689B005460C467448492105F0B9FA9F
:101150003146284605F0D5F86B6A824620465E681F
:1011600004F0FDFFE8B1E86D04F04BFFAF6A002327
:10117000013F3344834201D2013FFAE7BA4510D31D
:101180006748572105F09DFA07FB06F365480AFBFF
:101190000662572105F095FA0123E37109B0BDE815
:1011A000F08F06A9022000F0C3FC07A9052000F07B
:1011B000BFFC079A21462846FFF774FF6379012B8D
:1011C0004BD1DFF864B1574641E02268C2F1010318
:1011D00053449F423AD86B6A196853F8370003EBBF
:1011E000C703012A53F8083CA3EB0103A0EB010954
:1011F000049311D1079B0393E368022B08D0414667
:10120000284604F0EDFF22464146284605F01EF828
:101210000399284604F0E4FF32464946404604F06C
:10122000DDFF049B42464146CDE900962846FFF784
:1012300001FC2146284604F09FFF23680133236008
:1012400020B1DBF800300133CBF80030013FDDF88E
:101250001880002FB9D10123236002236371012775
:10126000BA45DDF8189006D2484605F037FA0798D7
:1012700005F034FA92E723689F424DD36A6ADDF89D
:101280001CB052F837100491FB00083B1168039121
:10129000D1582A6DD0581368A0EB03082379012B8D
:1012A00038D1039B3246C91A4846059104F096FF8F
:1012B0000599009143464A46594601962846FFF74C
:1012C000B9FB2146284604F057FF0223237118B1C9
:1012D000154A13680133136032464146584604F0FC
:1012E0007DFFDDE9032349469B1ACDE900865A4676
:1012F0002846FFF79FFB2146284604F03DFF236860
:10130000013323600123237130B1074A136801338D
:10131000136001E0022BDFD00137A1E7847A0000DF
:10132000AD7A0000DC7A00003C0E00200A4619B1BC
:10133000024B00211B681847704700BF08000020BF
:1013400070B5094D2B780BB1002070BD074C0126FC
:10135000C4F8006503F052FD18B92E70C4F80005FA
:10136000F2E74FF0FF30F0E7A410002000A0025099
:101370002DE9F041DFF83080ACB01F4606460C4640
:101380001546FFF7DDFF0123C8F800352A4633462E
:101390000097214603A805F056FE0023C8F8003543
:1013A0002CB0BDE8F08100BF00A00250BFF36F8FEA
:1013B00072B6124B4FF0FF32C3F88020C3F884207E
:1013C000C3F88820C3F88C20C3F89020C3F8942079
:1013D000C3F89820C3F89C20C3F88021C3F8842167
:1013E000C3F88821C3F88C21C3F89021C3F8942155
:1013F000C3F89821C3F89C21704700BF00E100E0CA
:10140000164A4FF0FF3301215160C2F84833C2F849
:10141000083302F5C0425160C2F84833C2F80833BD
:1014200002F598325160C2F84833C2F80833A2F589
:1014300008320021C2F80015C2F8083302F518324C
:10144000C2F80015C2F80833A2F51042C2F80835F8
:101450004FF08042C2F80833704700BF00B0004030
:10146000014B1B68184700BF0C000020014B18609F
:10147000704700BF0C00002007B50B460021024654
:101480000091034800F014F903B05DF804FB00BFBD
:10149000611400002DE9F047058B044628079046AB
:1014A00011D4022905F0070540F0CD80204605F053
:1014B0002DF878B10138218B042811D8DFE800F02D
:1014C000C3106D85950001290CBF45F0100545F04E
:1014D0002005258388F31188BFF36F8FBDE8F0875F
:1014E00001F0070AAA4500F0A6800027B9463E464B
:1014F000A368002B00F0BD8041F00801218388F330
:101500001188BFF36F8FA168002900F0BB800D68C0
:10151000002900F0B780D1F80480334652462046B7
:10152000C047002D76D02B6829461D46F0E701F014
:1015300007035A1F012A1BD8002221F00701062B9E
:10154000276889B2C4E9002209D13B4603E0628BD7
:10155000013262831B68002BF9D141F00201218323
:10156000204604F0D3FF00287BD041F0200177E033
:10157000042B0AD121F0070189B22183204604F00F
:10158000C5FF10B141F020012183218B01F0070A32
:10159000AA4550D00027B946AAE7236921F00701E0
:1015A00041F00601062DD3F8009021832DD1B9F129
:1015B000000F40D041F00801218388F31188BFF368
:1015C0006F8F3A492046C84729E021F00701236977
:1015D00041F0040189B2042DD3F804902183E6D0B0
:1015E00000273E464FF0040A82E721F007012369F5
:1015F00041F0050189B2052DD3F808902183D6D09A
:1016000000273E464FF0050A72E700273E464FF09E
:10161000060A6DE72B4687E7B9F1000FD1D14FF0ED
:101620002003EFF3118883F31288BFF36F8F238BAE
:1016300023F008032383258BEA062ED525F010031B
:10164000238305F007056669218B002EBFF66FAF77
:1016500000232768C4E9003321F0070141F00101AC
:101660002183218B01F0070AAA454FF000097FF47E
:101670003FAF002F9BD041F00801218388F31188F0
:10168000BFF36F8F002FC7D03D68394633465246AF
:10169000204604F067FF2F46F4E7AB067FF51AAF4C
:1016A00025F02003238305F00705FFE69165000080
:1016B0002DE9F04F8DB01D46531E824601910393D4
:1016C0004FF00009039B5878252803F1010419D134
:1016D0001E4600204FF0FF38023603460290444673
:1016E00031780396392954D81F2914D8002900F0DD
:1016F000EE8101992520D04701993078D04709F132
:101700000209DFE7002800F0E2810199D04709F1E2
:1017100001090394D6E7A1F12002192AE9D801A70B
:1017200057F822F08D170000F3160000F3160000A2
:101730008D170000F31600000D180000F3160000CE
:10174000F3160000F3160000F3160000591800000D
:101750008D170000F31600006D1800001918000026
:10176000F316000027180000471800004718000073
:1017700047180000471800004718000047180000ED
:1017800047180000471800004718000008460136B7
:10179000A6E7582900F0EB80A1F16302D7B2172F1A
:1017A000A7D8172AA5D801A757F822F0151A0000C4
:1017B00093180000F3160000F3160000F316000063
:1017C0007318000093180000F3160000F3160000D1
:1017D00073180000F3160000F3160000F316000063
:1017E00049190000F3160000F3160000E919000083
:1017F000F316000093180000F3160000F316000023
:1018000049190000F3160000731800000199252003
:10181000D04709F1010955E7029A02F0FE0202924F
:101820004FF00008B3E7002C0DDAB8F1000F0DDA25
:10183000029A002A00F0438124EAE4740A2202FB9F
:101840000414303CA3E7B8F1000FF5DB0A2202FBD9
:101850000812A2F130089AE7B8F1000F55F8042BEE
:1018600080F22F81002A80F22E81544202220292BD
:101870008DE7682903D1682B06D1482387E76C29B7
:1018800002D16C2B00F02181002B7FF432AF0B468C
:101890007DE77A2B06D1752955F8046B14D14FF0EA
:1018A000000B0CE06C2BF6D04C2BF4D1073525F057
:1018B00007037529D3E9006B03F1080506D1202839
:1018C0003BD1854F013C09E04FEAE67BBBF1000FBD
:1018D000F5DA7642814F6BEB4B0B013C0DF12D039A
:1018E000059300230493304659460A220023FEF74D
:1018F00007FC059B303203F8012DB4460593049B89
:101900005A46BCF10A0F8B4672F1000203F1FF3117
:1019100006460491E7D2C3F1010B30330DEB030609
:10192000B8F1000FA6F104066DDA029BD9077DD449
:10193000A8EB0B03A4EB0B0413E02B280ABF684FA2
:10194000684F04F1FF34C9E770290FD155F8042B13
:101950000023FAB9634F644E053C6FF004034FF067
:10196000050B029A920770D4A04666E078216C2B92
:1019700003D155F8042B002308E04C2BF9D107358F
:1019800025F007031D465B6855F8082B232825D151
:10199000880621D5554F023C01F06001A1F1390BB9
:1019A0000DF12D0E002602F00F01092988BF5944C0
:1019B00030310EF8011D102A4FEA121141EA03716D
:1019C0004FEA131C73F1000306F1FF3008D2C6F191
:1019D000010B06F13003A1E7454FDCE7414FDBE7A0
:1019E00006460A466346DEE755F8046B304604F0C7
:1019F0003AFFB8F1000F834602DB4045A8BFC3465B
:101A0000384F4FF00008A8EB0B03002B92DDA4EB3E
:101A10000804A6E755F8043B8DF81830314F013C17
:101A20004FF0FF334FF0010B06AE9AE7A046EAE70E
:101A3000029301992020D047029BB8F10108F7D505
:101A400024EAE472013C9144A41AB84606E00493E7
:101A500002920199D047029A049B9046424612F89E
:101A6000010B0028F3D11A46013A15D5002BACBF63
:101A7000C7EB03077F425B46013B15D5BBF1000F67
:101A8000A8BF5F444F442646013E14D5002CA8BF92
:101A90003F1907EB080915E60493029201993020DB
:101AA000D047049B029ADFE70293019916F8010BD5
:101AB000D047029BE0E701992020D047E4E70122CC
:101AC000D5E6904663E6144661E64C235FE6484659
:101AD0000DB0BDE8F08F00BF6A7B0000687B00009E
:101AE0006C7B000029790000747B00006E7B000095
:101AF000717B000008B504464FF02002EFF311831C
:101B000082F31288BFF36F8F01F0A6FC204600F02D
:101B1000EDF9034804F0EDFC00F0FAFAFCE700BF31
:101B20007A7B0000014B0360002070473073000097
:101B300070B5114B1C680D46DCB1104B19680023C1
:101B40008B4202DB6FF0010070BD224612F8106B71
:101B5000864202D001331446F2E7E06810B96FF014
:101B60001200F1E705F04AFA0028F8D02C600020B6
:101B7000EAE76FF00C00E7E7100000203073000088
:101B800070B588B005460C46C0B269461646FFF7E8
:101B9000CFFF00281BDB0098C8B14368029383681D
:101BA00022680195CDE903360023CDE9062305938C
:101BB000C56804F093FD6DB12846084901AA04F0F8
:101BC0006CFF079808B9059B236008B070BD6FF0E3
:101BD0001500FAE76FF01200F7E700BF7B6700001F
:101BE000014802F0BBBD00BFA473000030BFFFF787
:101BF000FDBF00BF704700BF70B5264B15469A6AFF
:101C000012F0100F9A6A14BF1124102412F0080F5A
:101C10009A6A18BF1224920706460AD5586B9A6A28
:101C2000140634D519B19A6A22F080029A621324FC
:101C300001E06FF01500174B9A6A12F0010F9A6AD3
:101C400018BF142412F0200F9A6A18BF1524D20668
:101C500002D49B6A9B070AD50E4B5B68190506D513
:101C6000314600F01FFA10B180F309880224094BB5
:101C70009A6A920642BF5A6A22F400525A629A6ADB
:101C800042F0FF029A6200232B70204670BD6FF075
:101C90001500CCE700ED00E0134B9A6A12F0007FCC
:101CA0009A6A14BF1E201D2012F0807F9A6A18BF06
:101CB0001F2012F4002F9A6A18BF212012F4802FDF
:101CC0009A6A18BF222012F4003F9A6A18BF232094
:101CD00012F4803F9A6A6FEA02426FEA12429A62F5
:101CE00018BF2420704700BF00ED00E010B5194B6D
:101CF0000246986A9C6A10F4805F14BF1720162071
:101D000014F4006F9C6A18BF1820A40509D5986BBD
:101D1000986A000404D51AB19A6A22F400429A62C1
:101D200019200C4B9A6A12F4806F9A6A18BF1A2015
:101D3000D2050CD49B6A13F4005F18BF1C20054A1F
:101D4000936A43F47F43936200230B7010BD1B2002
:101D5000F5E700BF00ED00E070B5454B5B688AB069
:101D60000546C3F30803002686F31188BFF36F8F7F
:101D700002F07F40B0F17F4F11D102F00C00082833
:101D80000DD010074CBF0D4601260022033B8DF8F5
:101D90000720032B05D8DFE803F01E5D615A3546A6
:101DA000F3E700249DF807309BB92022294602A8BA
:101DB00004F070FD099B002E54D0C3F3080222B931
:101DC0006FEA53236FEA4323099302A9204604F0E4
:101DD000FBFC0AB070BD264BDA6A9107E1D4DA6ADF
:101DE000002ADEDBDA6A5200DBD55A69A96942F4BF
:101DF00080725A61BFF34F8FBFF36F8F5A6931F80A
:101E0000021C22F480725A61BFF34F8FBFF36F8FB1
:101E10004DF6027291420AD09A6AD2B24AB10DF1DD
:101E2000070201212846FFF7E7FE0446BAE72C68BF
:101E3000B8E79A6A12F47F4F05D00DF1070101202F
:101E4000FFF754FFF1E79B6AB3F5803FA9D3FFF793
:101E500023FFEAE70DF107020021E3E70DF1070197
:101E60000020EDE723F4FF7323F00103ACE700BF8C
:101E700000ED00E0024A536943F0100353617047DC
:101E800000ED00E0EFF30880EFF3098101B5724641
:101E9000FFF762FF01BD00BF002080F31488BFF38D
:101EA0006F8F00F073FA00200D490860BFF34F8F69
:101EB0000C4880F3088800F03DF8202080F311885A
:101EC00009484FF40461401880F30988EFF3148047
:101ED0000221084380F31488BFF36F8F00F0B4F839
:101EE00094ED00E000450020C0140020BFF34F8FA8
:101EF0000549064BCA6802F4E0621343CB60BFF3A6
:101F00004F8F00BFFDE700BF00ED00E00400FA05C1
:101F10000749D1F890200023C2F3072218469342C4
:101F200000DB7047C1F89830C1F8A0000133F6E734
:101F300000ED00E008B572B6002383F31388FFF7C5
:101F4000E7FF144B4FF0FF32C3F88020C3F8842022
:101F5000C3F88820C3F88C20C3F89020C3F89420DD
:101F6000C3F89820C3F89C20C3F88021C3F88421CB
:101F7000C3F88821C3F88C21C3F89021C3F89421B9
:101F8000C3F89821C3F89C2162B6BFF34F8FBFF30B
:101F90006F8F08BD00E100E01EF0040F0CBFEFF3EF
:101FA0000880EFF30980816911F8021C0229FFD033
:101FB00001B504F00BFC01BD40B2002807DB044A68
:101FC0004109012300F01F00834042F8213070478F
:101FD00000E100E040B200280CDB4309064900F0B4
:101FE0001F0020330122824041F82320BFF34F8F8E
:101FF000BFF36F8F704700BF00E100E0054B42095F
:1020000000F01F0053F82220012303FA00F01040D3
:10201000704700BF00E100E040B20028A8BF00F117
:10202000604001F10101B8BF064B4FEA4111ACBF5E
:1020300000F5614000F00F00C9B2B4BF195480F838
:102040000013704714ED00E0144A08B5144B22F059
:102050007F029A60BFF34F8FBFF36F8FD3F8882052
:1020600022F47002C3F88820D3F8882042F4A0023A
:10207000C3F888204FF04042C3F83422BFF34F8F9B
:10208000BFF36F8F0023E1EE103A02F007FA02F07F
:102090004DFA00F057F802F00DFA00BF0000000002
:1020A00000ED00E010F1160F074B08D0984208D35E
:1020B0004033834205D98B4203D9044870474033EB
:1020C000F9E70020704700BF001D0020401D0020E0
:1020D0000446084611461A460023E1EE103A084B22
:1020E000202583F3098863B64FF0000383F311883A
:1020F000BFF36F8FA04785F31188BFF36F8FFEE7A3
:1021000040450020014910220A60704710ED00E0B0
:1021100072B6404080F31188BFF36F8FBFF34F8FCB
:1021200030BF62B6BFF36F8F704700BF72B64940D1
:1021300081F31188BFF34F8F20BF80F3118862B6FF
:10214000704700BF044800232021C2180133302B00
:1021500082F80013F9D1704700E100E001B5EFF318
:102160000580A0F110004FEAC0000449014409C9EC
:102170009847BDE80140024908470000647100002B
:10218000F51B0000024B034A0348022100F030B85F
:102190000000042000000020AC730000084AC2F8D0
:1021A00098000B6823F01F03034343F01003C2F8A9
:1021B0009C308B6843F00103C2F8A030704700BF29
:1021C00000ED00E0044B0522C3F89420BFF34F8FCD
:1021D000BFF36F8F704700BF00ED00E0BFF35F8F6C
:1021E000024B0022C3F89420704700BF00ED00E0CE
:1021F00010B5034C0123227804F007FB207010BDBA
:10220000A5100020F0B5454D2C68082C85B000F2D3
:102210008280FFF7E3FF00200C2684420DD1404D61
:10222000404F2C706846FFF77DFC00240646A6420E
:102230000AD1FFF7C7FF00201CE0696806FB001108
:10224000FFF7ACFF0130E8E7009800EB04114FEA1C
:10225000041CCB683B40B3F5000F4AD00CD8B3F553
:10226000001F30D0B3F5800F38D0B3F5801F12D0E7
:102270006FF0150005B0F0BDB3F1807F42D0B3F12F
:10228000007FF5D150F80C3088684A6804F0ADFA48
:1022900040F4802009E050F80C3088684A6804F067
:1022A000A4FA40F0885040F43020039028780728A2
:1022B000CDE90123DCD801A9FFF770FF2B780133AA
:1022C0002B700134B3E750F80C3088684A6804F08A
:1022D0008CFA40F0885040F40020E6E750F80C30CB
:1022E00088684A6804F081FA40F0007040F40030D9
:1022F000DBE750F80C3088684A6804F076FA40F062
:102300008270D2E750F80C3088684A6804F06DFAA1
:1023100040F08870C9E74FF0FF30ABE7C4730000AE
:10232000A51000200000F0FF014B1860704700BFAF
:10233000140000200E4A0123C2F840354FF08042BD
:102340004FF08051C2F87835D1F83001082808D113
:10235000D1F83411052904D80648415C09B1C2F806
:1023600038364FF080430122C3F8802500207047A3
:1023700000E00140B27B000020B1034B800143F03C
:1023800001031847704700BF0073000001F0AAB9AD
:10239000084B70B5C31A0D4607499B1004465943B4
:1023A0000648402204F0A9FA2B4601462046BDE823
:1023B00070401847540E0020B76DDBB60071000066
:1023C00073B50C4C0C4A4023041B00930D460B467E
:1023D0000A49A41061430646094804F0BAFA011EEE
:1023E00005DA30462B4602B0BDE87040184702B00F
:1023F00070BD00BF540E0020C3690000B76DDBB68E
:102400000071000010B54FF02003EFF3118483F347
:102410001288BFF36F8F074A136823F00201DB07AE
:10242000116002D4012004F04DFD84F31188BFF344
:102430006F8F10BDA40E0020002270B5012104464C
:102440001046FFF7E9FD0F4801F0E4FA0E4B984201
:1024500015D101F0EFFA26690C49304604F0A7F8CF
:1024600000280BDB012535642469084904F11C00B0
:1024700004F09DF8002801DBE564002070BD6FF0DA
:102480000400FBE7C52400000000AD0BE47300006E
:1024900070B501460C2309484B43C418D4E90E56C5
:1024A000403300221844A26304F014FA2DB13246DE
:1024B0002B460348BDE87040184770BD540E0020FD
:1024C0000071000010B1012804D07047034B1B6C51
:1024D0005B0701D1FFF7DCBF704700BF540E00203F
:1024E00008B54FF02003EFF3118183F31288BFF397
:1024F0006F8F124A136843F002001060DA0708D4A5
:1025000081F31188BFF36F8F0120BDE8084001F00F
:10251000A3BA4FF08043D3F80C24D3F80C34DB0774
:10252000EED5074804F0D6F981F31188BFF36F8F19
:102530000020BDE80840FFF7ABBF00BFA40E00209D
:10254000940E00202DE9F8433649BFF35B8F074610
:10255000012251E8003F41E800200028F9D1BFF3F3
:102560005B8F33B9304931484B60CB608A6004F0EF
:1025700031F87B1E012B2DD8012F07D14FF080435E
:10258000D3F81C3403F00303012B23D004F055FDD2
:10259000054608BB264B1B78F3B14FF0804302225F
:1025A000C3F808230646DFF88C904FF080444FF0C4
:1025B0000108D4F81824D4F81834D20316D503F03F
:1025C0000303012B01D0012F10D12DB386F3118805
:1025D000BFF36F8FBDE8F8834FF02003EFF3118650
:1025E00083F31288BFF36F8F0125DCE73046FFF7D6
:1025F0009DFDD4F81835002BDBD1D4F80421002A36
:10260000D7D0C4F80431D4F80431C4F81885C9F817
:102610008081C4F80880CCE74FF080430222C3F8E1
:102620000423D7E7500E0020400E0020700E00203B
:10263000B914002000E100E008B5074804F0DEFC12
:1026400038B10648FFF770FE0448FEF70FFF002080
:1026500008BD6FF01200FBE73C710000612600002E
:102660000A2838B5074D044604D1AB680D215B68D4
:1026700028469847AB6803485B68E1B29847204614
:1026800038BD00BF3C710000024B0B60012313609A
:10269000704700BFA80E0020004870473874000043
:1026A00010B504F09BFC034C206004F093FC6060C8
:1026B000002010BDA80E00204FF08042D2F8101567
:1026C000D2F8103501F01E0123F01F030B4343F035
:1026D0000103C2F81035024B00221A70704700BF88
:1026E000A61000204FF08053D3F83031082B20D1B2
:1026F0004FF08042D2F81015CB071AD5D2F810351A
:1027000001F01E0123F01F030B43C2F81035D2F86D
:1027100008315BB1D2F8103523F01F030B4343F0AF
:102720000103C2F810356FF08B007047024B012295
:102730001A700020704700BFA61000202DE9F0415C
:102740000D46164604F046FC31460746284604F07E
:1027500048F928B3B5FBF7F307FB135303BBB6FBEC
:10276000F7F407FB1464DCB9B74213D804F032FC69
:10277000DFF834800746FFF7B5FF044668B92846FE
:1027800001F0E8FD98F800300BB1FFF795FFF61B5C
:102790003D44F0D12046BDE8F0816FF08B04F9E7AD
:1027A0006FF01504F6E700BFA61000202DE9F843EE
:1027B0000E463046194617461C4604F012F930B34F
:1027C00046EA040515F0030521D11CB3DFF84C904F
:1027D0006319032BA6EB050807D80F4AD2F800347B
:1027E000DB07FBD50020BDE8F883FFF77BFF58B976
:1027F0007B1B4046196801F0CDFD99F800300BB104
:10280000FFF75AFF043DE3E76FF08B00EBE76FF053
:102810001500E8E72046E6E700E00140A6100020AA
:10282000F0B54068057B01F01F0444EA45140569D2
:1028300087B0002D64D0B2F5001F00F1100506D15D
:102840002146284604F0BEFB002007B0F0BD01AED3
:102850000027B2F5800F0197776039D1B3F1007F7F
:1028600014BF052304238DF804300023CDE904634D
:102870000393836823FA01F111F001011AD1B2F137
:10288000A07F17D104F01F03620903F5E0732AD07B
:10289000012A3BD11F4A52F82330DB070AD40DF13D
:1028A000030632462146284601F0B4FB1A4B9842F3
:1028B0001CD0029603AA2146284601F06DFA174B58
:1028C000984220D101222146284601F00BFCBBE7AB
:1028D000B3F1C06F05D0B3F1007F14BF0123022311
:1028E000C1E70323BFE74FF0A042D4E731462846B3
:1028F00001F0F2FB094B9842DBD06FF00B00A4E72C
:102900006FF08500A1E76FF015009EE751F82330C6
:10291000FFDE00BF000300500400AD0B0000AD0B54
:1029200038B545682B69B3B11035284601F0C4FBB2
:10293000044680B90146284601F086FB084B9842C0
:102940000BD108492246284601F05EFB22460521AC
:102950000620FFF761FB002038BD6FF00400FBE7A5
:102960000000AD0B69290000420970B5034602D092
:10297000012A17D070BD0D4E326951680029F9D077
:1029800003F01F0301250C689D400029F2D08A68DE
:102990002A4002D04B68304698472CB12368214624
:1029A0001C46F2E7024EE7E72346F8E728710000ED
:1029B000147100002DE9F043466840F20635D00658
:1029C000337B87B002EA050554BFC2F340100320F1
:1029D00001F01F07B5F5837F144647EA43178DF8CA
:1029E000030044D00FD8062D18D007D8B5B1022D5A
:1029F0003FD06FF0150007B0BDE8F083B5F5807FDC
:102A0000F7D101250AE040F20222954233D0B5F514
:102A1000407F32D0B5F5007FEBD1022522032ED5C1
:102A2000726801238B40C2F80835326992BB07F007
:102A30001F037F092BD0012F79D13F4A02EB83027C
:102A400084F48033D2F80017C3F30043C4F3404446
:102A500044EA430421F4E16144EA800421F00701DF
:102A600044EA05230B43C2F800370020C3E70725DB
:102A7000D4E70425D2E70525D0E70325CEE7630395
:102A800041BF012372688B40C2F80C35CDE74FF08F
:102A9000A042D3E710360DF102023946304601F06C
:102AA000B9FA14F4403F80460CD13946304604F060
:102AB00087FA224B9845D8D19DF80210304601F094
:102AC00005FBD2E701AB4FF0000903AA39463046B7
:102AD000CDE90439CDE90199CDF80C9001F05CF90C
:102AE000164B984285D114F4003315D09DF803306D
:102AF0008DF80E3084F48034C4F300444B4603AAAE
:102B0000394630468DF80C508DF80D4001F0FEF935
:102B10000A4B9842CDD06CE7CDE9043303AA0DF1FE
:102B2000030339463046039301F036F9F0E703F525
:102B3000E07352F82330FFDE000300500000AD0BBD
:102B4000036803F01F025B09026004D0012B0348F5
:102B500018BF002070474FF0A0407047000300509E
:102B60002DE9F04FDFF89881DFF8989185B0154690
:102B7000824600EB8101514503D1002005B0BDE83C
:102B8000F08FDAF80030D804C3F3432203F07F0457
:102B900000F1AF807F2C4FEA134318F8027008BF92
:102BA0004FF0FF34222B00F2A780DFE803F012225F
:102BB00028432B3243A5A5A5A54672A5A5A5A5A585
:102BC000A5A5A5A575808386A5A5A5899194979AA5
:102BD0009D00C5F80C45601C18D003A80394FFF7AE
:102BE000AFFF039B012606FA03F3C0F80835B3468E
:102BF0002CE0C5F81445631C08D00026F7E7C5F89B
:102C00000845E8E7621CC5F8084570D10AF1040AD6
:102C1000B1E7631CC5F80C45F8D0012603A803945E
:102C2000FFF78EFF039B4FF0010B0BFA03F3C0F885
:102C30000C350BE0C5F81045DDE7C5F80845002F59
:102C4000D9D1671CE2D00026B3460627DAF8003057
:102C5000019303F40052002A03A81CBF4FF0000B9D
:102C600001260394FFF76CFF039A019B00EB82009F
:102C7000C3F3C114D0F800273B0243EA840343EABC
:102C80000B0302EA0902134343EA4603C0F8003784
:102C9000BCE7C5F80C45D2E7C5F86045661CDAF814
:102CA0000030B3D0C3F38033002BB6D095E7C5F81E
:102CB0006445F3E7C5F86845F0E7C5F86C45EDE70E
:102CC000C5F82445621CA1D04FF0000B0126BDE7DA
:102CD000C5F828457FE7C5F83045F3E7C5F8344522
:102CE000F0E7C5F83845EDE7C5F83C45EAE70026CA
:102CF00094E76FF0150041E76FF085003EE700BFF5
:102D0000097C0000F0F8FCFFF8B5044607690D46A1
:102D100004F093F990B92C4B1B787BB16426606862
:102D200003F06AFFE0B9012004F0C0F8013EF6D1DB
:102D3000F4E786F31188BFF36F8FEFE74FF02003BE
:102D4000EFF3118683F31288BFF36F8F606831460B
:102D500003F052FF90B986F31188BFF36F8FEDE750
:102D60004FF02003EFF3118683F31288BFF36F8FC8
:102D70006068314603F040FF0028DAD03B691D70DF
:102D8000626838691368C3F844050120C3F8480530
:102D90000020C3F82001D3F82051C3F8580152682D
:102DA000D3F85801D20608D5626812680820C2F824
:102DB00000054FF48002C3F8042301229A6081F3D6
:102DC0001188BFF36F8FF8BDB91400202DE9F743C8
:102DD0000646002201210220FFF71EF90220FFF71C
:102DE000EBF8776835693C684FF00008C4F8008557
:102DF0002E60D7F80C9001AA4146484603F0CEFE5B
:102E0000002839DB019BD9F8002019791868FFF7F1
:102E1000A7FE002830DB6B7AD6F810C0012B03D058
:102E2000032B27D14FF01008AB7A032B22D1E97A7C
:102E300009B101291ED12A7A12B1022A1AD10E2211
:102E40006B687068B3F5164F006800F0B28034D834
:102E5000B3F5165F00F0B0801AD8B3F5966F00F0A6
:102E6000AD800CD8B3F5967F00F0AB80B3F5167F3C
:102E700000F0AA806FF0850003B0BDE8F083B3F5E1
:102E8000166F00F0A480B3F5965FF3D15C4B43E07E
:102E9000B3F5E14F00F09E8008D8B3F5615F00F014
:102EA0009B80B3F5964FE5D1564B35E047F6122E91
:102EB0007345DFD14FF400032EE0B3F5613F00F01E
:102EC0008D8015D8B3F5963F00F08B800AD84DF66B
:102ED000C02E734500F08780B3F5614FCAD14FF41F
:102EE0006B0319E0B3F5E13FC4D14FF0EB7313E08E
:102EF000B3F5612F7AD009D8DFF820E1734578D097
:102F0000B3F5E12FB6D14FF0E86305E0DFF810E14B
:102F10007345AFD14FF08053C0F82435736841EA50
:102F200008011B680A43C3F86C25D5E901010CF1BF
:102F3000040383E803007B68990712D505F11800A4
:102F400001F036FA304B984256D1287E04F10C023B
:102F500004F5907103F0ACFF2B7E0120984000F047
:102F6000F1FC0823C4F800353B7A53B9C4F810319A
:102F7000D4F810316B69C4F834350123C4F83835FE
:102F800023607B689A075CBF4FF48073C4F80433F6
:102F90007B68DB0644BF4FF48003C4F804332B691D
:102FA000C4F8443500200123C4F84805A360E36059
:102FB00062E74FF41D03AFE7144BADE74FF49E23D8
:102FC000AAE74FF4A033A7E74FF41C33A4E74FF46C
:102FD0001D23A1E70E4B9FE70E4B9DE74FF06C734F
:102FE0009AE70D4B98E74FF4650395E74FF0706350
:102FF00092E74FF080638FE76FF004003CE700BF7B
:1030000000B0130000A04E000000AD0B00502700E0
:1030100000C0750000F03A0000903A0190D0030023
:1030200040420F0070B5012383400E4ABFF35B8F0F
:10303000DC4352E8001F01EA040542E80056002E76
:10304000F7D1BFF35B8F4FF4803282400648C0F85F
:103050000823BFF35F8FBFF36F8F0B4214BF0120B4
:10306000002070BDCC0E00200010014070B40E494D
:10307000D1E90034D01AC31844F1000422F07F468D
:10308000C1E90034A6F50013B3F5400F09D2074B90
:103090001B681A0A1B069C19054B42F10005C3E97F
:1030A000004570BC01F0A2BA40010020D00E002003
:1030B0004801002011B3BFF35B8F0123104A834006
:1030C00052E800CF4CEA030C42E800C10029F7D1D6
:1030D000BFF35B8F0B4A4FF480338340C2F8043355
:1030E000094BBFF35B8F1B68BFF35B8FC340DB07EC
:1030F00042BF064B4FF40032C3F80021704700BFB7
:10310000CC0E002000100140C80E002000E100E0BD
:103110000D4B1868010A0006BFF35F8F0B4BD3F805
:103120000435181841F10001B3F5801F0AD2084B8D
:10313000D3E90023904271EB030303D210F18070B6
:1031400041F10001704700BFD00E00200010014087
:10315000480100202DE9F04F85B016461F469DF826
:1031600040A00446FFF75EFF0190FFF7D1FFB04299
:1031700071EB070354D23E4B301A67EB01019842C2
:1031800071F100014FD23B4B03EB0413D3E902234F
:103190009F4208BF96425ED037494FF4803804F111
:1031A000500508FA04F8AD00C1F848832046ADB2D6
:1031B00003F06BFD26F07F4B05F1804504F5A87305
:1031C00005F58835DC464FF003090293029A2CF08E
:1031D0007F4341F82230C1F84483D1F80435274AAF
:1031E0006FF00200C01A604420F07F40904232D954
:1031F000286868B1D1F804350393A3EB0B0020F0E5
:103200007F40B0F5000F26D9204603F03EFD039B1A
:10321000BAF1000F07D109EB030C09F10109D5E759
:10322000BAF1000F09D06FF0150520460199FFF79C
:1032300041FF284605B0BDE8F08F0123104ABFF3D7
:103240005B8FA34052E8000F184342E800010029B9
:10325000F8D1BFF35B8F07490E98230101EB0412ED
:10326000C8500F9B5360C2E902670025DDE700BF2D
:10327000010080003001002000100140FDFF7F00B0
:10328000C80E00207FB51C4C1C4BC4F80833C4F892
:1032900048331B4B00254FF0FF304FF0FF31C4F88F
:1032A0000855C3E902014FF48033C4F80433154BC9
:1032B00002264FF400320121C4F804631120C3F840
:1032C00080212A46FEF7A8FE1120FEF775FE0E4A61
:1032D0000123A360236013600C4B0D4A0093CDE9DA
:1032E000015500232846FFF735FF3046FFF72AF93E
:1032F000284604B070BD00BF0010014003000F005D
:103300003001002000E100E0CC0E00206D30000014
:10331000FFFF7F002DE9F7432F4CD4F804339907C2
:103320000BD5D4F8043143B12C4A0023C4F804313E
:10333000D4F80431136801331360D4F80433DA038A
:103340002AD5BFF35B8F264B53E8002F22F00101F3
:1033500043E800100028F7D1BFF35B8FD30702D4F6
:10336000D4F84031C3B10025C4F84051D4F84031FD
:10337000FFF7CEFE4FF02003EFF3118283F31288A4
:10338000BFF36F8F174BD3E90267B042B94106D242
:1033900082F31188BFF36F8F03B0BDE8F0834FF065
:1033A000FF384FF0FF39C3E90289D3E900101D60EF
:1033B0004FF48033C4F84833C4F84051D4F8403156
:1033C00082F31188BFF36F8F0029E5D00090324659
:1033D0003B4628468847DFE700100140D00E00201A
:1033E000C80E00203001002030B5431C124C85B0BF
:1033F00005D08442A8BF0446012CB8BF0124FFF7C2
:1034000087FE0E4B0C4DD3E90013401AB0F5000FA8
:1034100010D22218AA4228BF2A4652184FF00000A4
:1034200007490091CDE9010043F10003FFF792FE47
:1034300005B030BD2A46F0E7FFFF7F0040010020C5
:103440006D30000008B5FFF763FE024B1B68C01A21
:1034500008BD00BF4001002010B5084C0123636087
:103460001120FEF7B7FD064BC4F80833C4F8483303
:10347000044B4FF40032C3F8802110BD001001400E
:1034800003000F0000E100E030B50C490C4D0B6863
:103490000246002405EB0310D0F80808C0B218B9A2
:1034A00004B10B60002007E00133072B4FF001044B
:1034B000F0D90B606FF01B00136030BDD40E0020FC
:1034C00000E0014030B5816885B0103921F0070473
:1034D000054603F04BF910220146684603F0E5F972
:1034E00007491022684603F0D5F910236A462146A1
:1034F000284603F009F9003818BF012005B030BD97
:103500006876000030B50D46816887B0102302AAA6
:103510001039044603F0E3F8002802DA012007B06E
:1035200030BD102202A9204603F020FC00283AD129
:103530001E49102202A803F09DF900280CBF0123A8
:1035400002232B70204603F0FDFB012301460DF101
:103550000702204603F0C3F80028DFDB9DF80730A0
:1035600003F00F021B096A702B7101220DF1070194
:10357000204603F0FBFB10B96B78042B03D9012321
:103580006B7000232B71A268183A22F00702083AE8
:10359000A91C204603F0FDFB0028BFD1E91C2046F2
:1035A00003F050FCBBE70323CBE700BF68760000C5
:1035B000F0B5354F460085B00546694657F82600F8
:1035C00003F046FC044610B1FF2005B0F0BD013603
:1035D00002A957F8260003F03BFC012837D12B48FD
:1035E0002A46492103F06DF8294B02938DF80C40CF
:1035F0009DF800609DF80870264C00222078314626
:1036000003F0A6FB50B36078394603F0A1FB28B362
:10361000A378042B03D09DF8031099421ED1E378C0
:10362000042B03D09DF80B10994217D12379042B5A
:1036300010D16279022A1DD1174B18482A46492118
:1036400003F03FF86079831E022BBED9BCE7002847
:10365000CED0B9E79DF802109942EAD00132032A90
:1036600004F10604CAD10E482A46492103F029F87C
:103670000120AAE7032A05D00A4B0B49042A08BFF8
:103680000B46DAE7094BD8E7D4740000427C00000F
:1036900003010303D77C0000247C00008D7C000024
:1036A000B17C0000297C00003B7C00001F7C0000F6
:1036B0004FF08053D3F83021082A06D1D3F83431A3
:1036C000052B02D8024AD05C70470020704700BF2B
:1036D000EF7C0000024AD2F80034002BFBD0704788
:1036E00000E0014010B54FF08053D3F83021082A94
:1036F0004ED14FF080420021C2F80C11C2F81011D7
:10370000C2F8381502F54042D3F80414C2F8201567
:10371000D3F80814C2F82415D3F80C14C2F82815ED
:10372000D3F81014C2F82C15D3F81414C2F83015BD
:10373000D3F81814C2F83415D3F81C14C2F8401585
:10374000D3F82014C2F84415D3F82414C2F848154D
:10375000D3F82814C2F84C15D3F82C14C2F850151D
:10376000D3F83014C2F85415D3F83414C2F86015E5
:10377000D3F83814C2F86415D3F83C14C2F86815AD
:10378000D3F84014C2F86C15D3F84434C2F870353D
:10379000FFF78EFF18B1414B414AC3F88C26FFF763
:1037A00087FF18B13F4BFB22C3F81825FFF780FFB6
:1037B00070B14FF080414FF08053D1F8E42ED3F830
:1037C000583222F00F0203F00F031343C1F8E43E16
:1037D000FFF76EFF20B1344B4FF40072C3F8402660
:1037E0004FF08053D3F83031082B09D14FF080438C
:1037F000D3F80024D20744BF6FF00102C3F80024BD
:103800002A4AD2F8883043F47003C2F88830BFF3F4
:103810004F8FBFF36F8F4FF08053D3F83021082ABA
:103820000ED1D3F83431052B02D8214AD35C3BB1F9
:103830004FF01023D3F808224FF08043C3F85825E7
:103840004FF01023D3F80022002A03DBD3F8043210
:10385000002B22DA174901234FF01020C1F804355C
:103860001224FFF737FFC0F80042FFF733FFC0F81C
:103870000442FFF72FFF0023C1F80435FFF72AFFAA
:10388000BFF34F8F09490C4BCA6802F4E06213433F
:10389000CB60BFF34F8F00BFFDE710BD005000406D
:1038A0004881030000F000400090024000ED00E07D
:1038B000E97C000000E001400400FA0530B504682E
:1038C000CCB1BFF35B8FB4FA84F3C3F11F03DBB257
:1038D00001229A4024EA020250E8005FA54204D186
:1038E00040E8002CBCF1000FF6D1BFF35B8FE6D1AE
:1038F00002480B7030BD0248FCE700BF0000AD0B72
:103900000200AD0B10B50368CB40DB0714D40123D4
:103910008B400268BFF35B8F43EA020150E8004F1F
:10392000944204D140E8001CBCF1000FF6D1BFF373
:103930005B8FEED1014810BD0148FCE70000AD0BE4
:103940000400AD0B014BC3F80405704700F00140C3
:10395000F7B5044618B1012823D003B0F0BD4FF0ED
:1039600080430222C3F808230122DA60C3F804016D
:10397000D3F80431064601238DF8073042F2107562
:103980004FF08047D4B1012CE7D1D7F80C3403F4C1
:103990008033AEBB83B3012003F088FA013DF4D13C
:1039A0002AE04FF080430022C3F808035860C3F8B0
:1039B0000021D3F800310DF10706DCE7D7F8183401
:1039C00003F480333EB9002BC7D0012003F06EFA18
:1039D000013DF3D1C1E7D7F8182402F003023260A9
:1039E000002BBAD09DF80700012803D103F05EFA3E
:1039F000013DC7D1012CB0D1054B00225A71ACE773
:103A0000D7F80C2402F001023270002BEAD1F3E760
:103A1000D80E0020044B1A7922B9012218609A802E
:103A20000248704702487047D80E00200000AD0BD6
:103A30000C00AD0B08B5074B1B682BB10020FEF73F
:103A4000DDFA08B9FEF7B8FA4FF080430022C3F858
:103A5000182508BDD80E002010B510B1012843D09C
:103A600010BD4FF08043D3F81814D3F81824C803BE
:103A700021D502F00303012B04D013B10020FFF77E
:103A800067FF00234FF080420220C2F81835082259
:103A90004FF4827303F180430021196002F18042E8
:103AA0001C6801241460154A12680AB34FF0804361
:103AB000C3F80403D4E7D3F81424D107E1D5D3F82D
:103AC0001C249207DAD40D4A12681AB10222C3F8F4
:103AD0000423C5E7D3F80421002AFBD00022C3F851
:103AE0000421D3F80431BBE700224FF48073D1E7FF
:103AF0001A68002AFCD019601B68B1E7D80E0020B4
:103B000010B54FF08043D3F800216AB10022C3F80A
:103B10000021D3F800210122C3F80823114B587962
:103B200010B95A711B6898474FF08043D3F80421AD
:103B300072B10022C3F80421D3F80421D3F8182469
:103B4000D3F81824920704D10122C3F818259A60EB
:103B500010BD0222C3F80823024BBDE810401B68C9
:103B600001201847D80E0020036803F01F025B09EC
:103B7000026004D0012B034818BF002070474FF0AB
:103B8000A040704700030050034A430900F01F00A3
:103B9000D35C1844C0B27047F57C000070B5054690
:103BA000FFF7F2FF0C4C08300E4634F81030DA05FF
:103BB00008D5C3F3432304EBC302284654F833303B
:103BC00052689847A3682BB1E26831462846BDE8A1
:103BD0007040184770BD00BF3400002008B5FFF7E3
:103BE000D3FF034B083033F81000400B08BD00BF73
:103BF0003400002008B5FFF7C7FF034B083033F847
:103C00001000C0F3400008BD3400002008B5FFF7E5
:103C1000BBFF034B083033F81000C0F3401008BD61
:103C200034000020034611F0010010B5CCB20DD1D4
:103C3000A207C4F3400012D5094AD2F82005586003
:103C4000C2F82005003818BF012008E04FF0A0415D
:103C5000D1F820251A60C1F82025002AE8D010BD2F
:103C60000003005010B5FFF78FFF124A083032F8FA
:103C70001030D9051CD5C3F3432123F4F85322F89F
:103C8000103002F10E04002034F8023F13F4807F5C
:103C900003D0C3F3432399420AD001303028F3D133
:103CA000002342F831300448BDE81040FFF72ABE37
:103CB00010BD00BF34000020AC000020F0B5054668
:103CC00000200446012607468C420BD1114BD3F845
:103CD0007C2132B10022C3F87C21D3F87C3140F042
:103CE0000040F0BDE3B29B0003F580729B0806FA2A
:103CF00003F31D420BD002F1804202F5C042D2F81C
:103D000000C0BCF1000F02D01760126818430134E4
:103D1000DAE700BF00600040F7B506460846FFF747
:103D200033FF194F00F108050C4637F81530DB0753
:103D300027D5304603F020F92046FFF767FF40B152
:103D40002046FFF74BFF316800F5A270002341F8D1
:103D500020302046FFF786FF002301A827F8153002
:103D60000194FFF701FF019B00EB8300074BD0F8A4
:103D70000027134043F00203C0F80037044803B0A3
:103D8000F0BD0448FBE700BF34000020F0F8FCFF62
:103D90000000AD0B0400AD0B2DE9FF411646804637
:103DA0000846FFF7F1FE0D463168044609B3284680
:103DB000FFF720FF18B12846FFF728FF10BB0023AC
:103DC000CDE900338DF80E308DF80F300DF10F0274
:103DD0000B4628460DF10E0103F076F8474A04F130
:103DE000080132F8113023F0020343F0010322F8F6
:103DF0001130736863B328461F785968FFF7FAFEDD
:103E000010B1D1B13E4826E03C4A04F1080032F836
:103E1000103023F02003DB04DB0C22F8103061B1FA
:103E2000032FEFD87168496891F800C0D8F80010E6
:103E3000A7B90CF5A27C41F82C70304A04F10801B6
:103E400032F8113023F01C0343EA870322F81130C3
:103E5000B3684BBB2B4804B0BDE8F08101EB8C018B
:103E600043EA4C33D1F810E52EF0030EC1F810E50B
:103E7000D8F8001001EB8C0E43F02003DEF810158B
:103E800022F8103021F44F3121F44071CEF8101592
:103E90002902DEF8108501F47C5141EA074141EA2C
:103EA0000801CEF81015C8E7D3E900672846FFF7E8
:103EB000D9FE002ECED0114DD5E90023964203D174
:103EC0009F4201D1002209E00F480DF10F01FFF7D9
:103ED000F5FC0C4B9842BED19DF80F2045F832609E
:103EE00005EBC20308345F6035F8143043EA42231F
:103EF00043F4807325F81430ACE700BF3400002091
:103F00000400AD0B0000AD0BAC0000202DE9F04328
:103F10000C4685B08046204611461E46FFF734FE0B
:103F2000054629B32046FFF765FE18B92046FFF77E
:103F30006DFE18BB314F05F1080937F8193013F041
:103F40001C0F02D04B78012B18D001238DF80F30B5
:103F50000023CDE900134A1C8B1C20460DF10F01F4
:103F600002F0B2FF37F8193043F0030327F8193095
:103F7000002E41D02046FFF73DFE18B9204805B07D
:103F8000BDE8F08396F800C0D8F800301B4F0CF560
:103F9000A272002143F8221005F1080237F812102E
:103FA00021F02001C904C90C27F8121075781DB33F
:103FB000D8F80000B67800EB8C002D04D0F810354E
:103FC00023F4991323F4F853C0F81035230203F4B3
:103FD0007C5305F440353605D0F810E52B4306F444
:103FE000801641EA4C31334341F0200143EA0E038D
:103FF00027F81210C0F810350248C0E7340000203E
:104000000400AD0B0000AD0B014BC3E90212704779
:104010003400002010B508461446FFF7F7FD50B1F4
:104020000846FFF7B1FD054B083033F8103004485F
:104030005B0B237010BD0348FCE700BF3400002079
:104040000000AD0B0400AD0B70B5184E96F8804023
:1040500005464CBB2146602206F1100002F025FC0B
:104060002D68306F2146884212D10023C5F87C317B
:1040700045F30730D5F87C31FDF79EFF4FF0004344
:10408000C5F804330A48012386F88030B36770BD51
:10409000CBB29B0003F580727C2B08BFAC5001F1C2
:1040A000010108BFAB58DEE70248F0E7340000200A
:1040B0000000AD0B0C00AD0B034B93F880000038F3
:1040C00018BF0120704700BF340000200148FFF7EF
:1040D00019BC00BFA80000200148FFF7EFBB00BFDC
:1040E000A800002073B5054608460C461646FFF7A3
:1040F0008DFD00B30846FFF77DFD0146D8B9204687
:10410000FFF76CFD04B2A40004F580720346286832
:104110008150296882582144D1F8102542F00102CB
:10412000C1F810252EB12968012202FA03F3C1F863
:10413000043302B070BD2046FFF726FD0F4B083058
:1041400033F81030C3F38203042B12D0052B12D0A6
:1041500001A80194FFF708FD019AD0F81035D3406B
:1041600003F00103991C204602B0BDE8704002F044
:10417000F4BE0321F7E70221F5E700BF3400002079
:104180002DE9F04F694BDFF8B081D3F80403D8F87C
:104190007010C0B289B040F00040FFF78FFD051EDF
:1041A0002FDAC24600235AF87C1F06A8CDE9063351
:1041B000FFF738FD5E4B01930DF118094FF0000B2E
:1041C000019A12F8013B0192DA0803F007031AF88A
:1041D000022022FA03F3DA071CD409F10409BBF127
:1041E000000F14D0D8F870104FF00040FFF766FDB4
:1041F000D8F87C1006A8FFF715FD0028DAD125F0C5
:1042000000450124002D79D109B0BDE8F08F4FF0B1
:10421000010BD5E7474B5B440293D9F80010002906
:10422000DBD0029B91FAA1F11C78B1FA81F141EA4D
:1042300044142046FFF7A8FC0830059438F81070A5
:10424000C808BB0819F80020039301F007010123F7
:1042500003FA01F122EA010209F8002005A8FFF79C
:1042600083FC059A039B02F5E072C7F3820650F8BF
:1042700022205B073746C2F3014224D52046394647
:10428000D6B2FFF78BFC05A80594FFF76DFC059BE4
:1042900003F5E07350F82330C3F301439E4207D186
:1042A0000021204602F059FE3146204602F055FE1C
:1042B00005A80594FFF758FC059B012202FA03F3B9
:1042C000C0F82035A9E7022A0CD10321204602F0CC
:1042D00044FE06F00503012BEAD139462046FFF7DC
:1042E0005DFCE5E702212046039202F036FE032E34
:1042F000F3D0039A032ADBD1022EEDE795FAA5F35A
:10430000B3FA83F304FA03F29B0003F1804303F54D
:10431000C04325EA0205D3F81005D3F81015C0F301
:104320000520C1F30141FFF739FC6BE70060004055
:10433000057D0000057D000034000020044AD2F80D
:104340000034DB07FBD50160BFF35F8F704700BF10
:1043500000E001404FF080531A69B0FBF2F302FB1A
:10436000130373B9084B0222C3F80425C3F80805E8
:10437000D3F80024D207FBD500220448C3F8042553
:1043800070470348704700BF00E001400000AD0BDC
:104390000A00AD0B10B5054C0123C4F80435FFF736
:1043A000CDFF0023C4F8043510BD00BF00E001407C
:1043B00001460148FFF782BAB800002010B5144C3E
:1043C000A8220021204602F070FA03232361114A3B
:1043D0006361114BA261E3614FF4806323620023A8
:1043E000A3626362E36222660C4A62661022A266DE
:1043F0002367E3666367BFF35F8F094A12F8011D05
:10440000E1540133102BF9D1BFF35F8F10BD00BF12
:10441000E00E0020077D0000B9100020A910002048
:10442000207D0000104B70B553F82040013053F848
:104430002060A64200D870BDD4E9003595B153B1D3
:104440002846984738B10028B8BF4042EB68FF289B
:10445000A8BFFF201870EA68537843F00103537037
:104460000834E6E79847FBE7DC74000008B5094B21
:10447000012203201A70FFF7D5FF00F01FF9042076
:10448000FFF7D0FFFBF7A6FF034A137B23F00103DE
:10449000137308BDB91400205001002008B503486B
:1044A000034A0021121A02F0C4FD08BD30010020A9
:1044B000BC14002008B50020FFF7B4FF184B83F3AD
:1044C0000888184C636943F4007363610025E02396
:1044D00084F82230E57725766576A57684F8205035
:1044E000636A43F4E023636284F82350FDF7C2FC5F
:1044F000FDF708FE4FF0FF33A362E362FDF782FE93
:10450000FDF740FE02F079FD0120FFF78BFF02204E
:10451000FFF788FF04482B462A462946FDF7D8FDB9
:10452000001D002000ED00E06D44000008B50648C5
:10453000064A0749121A02F07EFDBDE80840054A06
:104540000549064802F077BD000000202E0100203A
:10455000507D000000000000507D000000000020A1
:10456000034B1B680BB9FEF76DBF0020704700BFFF
:10457000880F002010B50E4B1C689C4204D1FFF739
:10458000EFFF6FF0004010BDFFF7EAFF002CF8D0FE
:10459000D4E904321B1A62EBE072B3F1004F72F1FE
:1045A0000001EEDA002AACBF18460020EBE700BF9E
:1045B000BC00002030B570B10B4B5B6898420AD04C
:1045C000036843B1D3E90421D0E90445121941EB52
:1045D0000501C3E90421D0E9003213605A600023C9
:1045E000C0E9003330BD00BFBC0000202DE9F84F0A
:1045F0004FF02003EFF3118783F31288BFF36F8F1F
:10460000DFF8B4902A4E2B4C3060D9F800004FF000
:10461000000A484508BF00204FF0000BD4E9001EF7
:1046200033683D4688B3D0E904874FEAE37C4345CD
:104630007CEB070206DAB8EB030267EB0C07C0E974
:10464000042722E018EB01014EEBE873C0E904AB4C
:10465000C4E90013FFF7AEFF85F31188BFF36F8F36
:10466000836898474FF02003EFF3118583F3128896
:10467000BFF36F8F3368D9F80000A3EB08034845F8
:104680002F463360CAD1D4E9001E59184EEBE373AC
:10469000C4E9001300243460FFF76CFF2146FEF7E5
:1046A000A3FE85F31188BFF36F8FBDE8F88F00BFBD
:1046B000880F0020D0010020BC000020014801F03C
:1046C00018BF00BF217D000010B50A4C23681BB144
:1046D00001232360002010BD00F048F80028F7D027
:1046E0000138062803D8044B53F8200010BD0348B6
:1046F00010BD00BF8C0F0020F4740000FE8FFFFF80
:10470000BFF34F8F0549064BCA6802F4E0621343BA
:10471000CB60BFF34F8F00BFFDE700BF00ED00E0AF
:104720000400FA0510B40A4B0A490B4C4FF0FE3254
:10473000C3F800244968C3F80424C3F80824C3F864
:104740000C240023C4F800355DF8044B084700BF73
:1047500000B00250C400002000A00250D0E90012B6
:10476000014BC3E900127047C400002038B500F0C7
:104770002FF820B1032400F063F8204638BD00F084
:1047800031F898B900F0ACF898B90F4DD5F8283940
:104790001B0EF02B08D1D5F8242A0C4B9A420AD0D4
:1047A000072400F017F8E6E70624FAE70424204679
:1047B00038BD0024F5E7012000F092F804460028F7
:1047C000F7D1C5F80C0AD8E700B002500000E0208D
:1047D0000020704700207047014BC3F8040A70475F
:1047E00000B0025010B5114800F048F800B110BDFB
:1047F0000F4800F043F80028F9D10E4C204600F095
:104800003DF80028F3D10C4B0C481C6000F036F842
:1048100001460028EBD100F02DF8044608B12046EF
:1048200010BD00F03FF82046FAE700BFDC00002092
:10483000D8000020D4000020CC000020D0000020B0
:1048400008B5084800F024F8074800F021F80748A8
:1048500000F01EF8064800F01BF8BDE8084000F024
:104860000BB800BFDC000020D8000020D4000020DE
:10487000D000002000207047704700BF08B5034BF0
:1048800002681B6810689847002008BDF4000020EB
:1048900008B5034B02685B6810689847002008BDA4
:1048A000F400002070B5094C094D2069AB689847A9
:1048B00018B1084B08485B689847084AEB682069BC
:1048C00000211160BDE87040184700BFE0000020E3
:1048D000F4000020C400002010750000900F00209C
:1048E000F8B51A4D1A4E0446B26828699047E8B9DF
:1048F000184F3B684CB1A3B1012B19D0013B3B6071
:104900002869F36898470020F8BD43B9124A01218D
:10491000C2F800151149D1F81029002AFBD1013342
:104920003B60F368286998470020F8BD0C48F8BD43
:104930000A4AD2F81039002BFBD1074A6FF07E40AB
:10494000C2F80035FFF748FF3B68D7E7E0000020DA
:10495000F4000020900F002000A0025000B0025090
:10496000E98FFFFF10B5044650B1636813F0685F2C
:1049700005D0064A934202D000232360626010BD36
:10498000034B04485B689847EFE700BF2C5F5CA9C6
:10499000C400002030750000C8B143680D4A93423E
:1049A00013D013F0685F0ED0012350E8002F194692
:1049B00040E8001C9CF0000FF7D1012AF5D0BFF3AE
:1049C0005F8F0020704704487047044870476FF4B9
:1049D000E04070472C5F5CA9E98FFFFFEA8FFFFF83
:1049E00080B14368094A93420AD013F0685F05D04A
:1049F000BFF35F8F00230360184670470448704779
:104A0000044870476FF4E040704700BF2C5F5CA91A
:104A1000E98FFFFFEA8FFFFF10B5044620B1044B7A
:104A200063600022226010BD0248FFF77BFEF6E7BC
:104A30003A00003A5875000030B10268034B044850
:104A40009A4208BF0020704702487047DD55AABB54
:104A50008208F0007108F00038B50D460446B0B188
:104A6000A0220021043002F007FB95B1082229465C
:104A700004F1640002F006FB082205F1200104F1B4
:104A8000840002F0FFFA044B2360002038BD034885
:104A9000FCE70348FAE700BFDD55AABB7108F00048
:104AA0008308F0002DE9F74305460E469946114666
:104AB000FFF7C2FF0446002840F08480002E00F07B
:104AC0008580002900F08480B9F1200F40F08280B9
:104AD00005F14404082205F10408204602F0D2FA48
:104AE00005F1240708223146404602F0CBFA06F1D0
:104AF00020010822384602F0C5FA02A94FF480705E
:104B000041F8049D02F0B2FA002865D1334A4FF40F
:104B100080731360012193600823314A00F02EFB5B
:104B20000121084605232F4A00F028FB08234246AE
:104B300001211C2000F022FB08233A46012103201A
:104B400000F01CFB224608230121022000F016FB86
:104B50000823254A01211A2000F010FB0523234ACF
:104B600001211B2000F00AFB0823214A0121142007
:104B700000F004FB08231F4A0121152000F0FEFA73
:104B8000082305F164020121162000F0F7FA08233A
:104B900005F184020121172000F0F0FA0823164ADB
:104BA00001210B2000F0EAFA00F044FB04460198D2
:104BB00000F0D2FA114B002C18BF1C46A421284645
:104BC00002F05CFA204603B0BDE8F0830C4CF9E734
:104BD0000C4CF7E70C4CF5E7084CEFE790B00250AF
:104BE000BC750000347600007C7500002076000063
:104BF000E0750000007600009C7500008408F0005D
:104C00007608F0008008F0008108F0000C4BC269C3
:104C10001A60826943F8042C426943F8082C02693F
:104C200043F80C2CC26843F8102C826843F8142C0B
:104C3000426843F8182C026843F81C2C704700BFE8
:104C40005CB602500C4B1B68C3610C4B1B68836144
:104C50000B4B1B6843610B4B1B6803610A4B1B68C2
:104C6000C3600A4B1B688360094B1B684360094B98
:104C70001B680360704700BF5CB6025058B6025014
:104C800054B6025050B602504CB6025048B60250CC
:104C900044B6025040B6025030B10268034B04489B
:104CA0009A4208BF0020704702487047DD55AABBF2
:104CB0000202F0000002F00038B5044668B1051D9C
:104CC0007021284602F0DAF928462022044902F031
:104CD000D1F9044B2360002038BD0348FCE700BF36
:104CE00048760000DD55AABB0002F0002DE9F04334
:104CF000284B04460E4615460FCB85B06F4687E815
:104D00000F002DB94FF00009484605B0BDE8F0830B
:104D10002046FFF7C1FF81460028F5D1231D0193EE
:104D2000636AA3BB236F8BB1C3F14008A84528BFBA
:104D3000A84604F1300031461844424602F09AF980
:104D4000236F434446442367A5EB0805226F402A9E
:104D500006D104F13001384600F0AEFB0023236792
:104D600005F03F0835F03F0505D031462A46384664
:104D700000F0A2FB2E44B8F1000FC3D042463146EA
:104D800004F1300002F076F9C4F87080BCE7DFF877
:104D90000890B9E7F07200000C02F0002DE9FF4125
:104DA000144B04460E460FCB6F4687E80F00204693
:104DB000FFF772FF8046B0B9CEB1636A251D019539
:104DC0003BB901236362226F04F13001384600F0E1
:104DD00073FB2B46043E243453F8042B12BAA3422F
:104DE00046F8042FF8D1404604B0BDE8F081DFF862
:104DF0000880F8E7F07200000502F000084B1B681D
:104E00001B0EF02B08D1074B1A68074B9A4205D1AD
:104E1000064B002018607047052070470620704739
:104E200028B9025024BA02500000E0200CBA025007
:104E3000002230B549001346023840F6FC7502F1F5
:104E4000A05404F52C44A400904202F10102CABF10
:104E5000236025605B181E2AF1D1044A13600B44BD
:104E60005360034B034A1A6030BD00BF78B0025054
:104E700084B0025020F80F0030B51E4B85B01A46A2
:104E8000196800910099CC07FAD500F1A05000F5FF
:104E90002C408000016813680193019BD807FAD564
:104EA000154B164C1868164D1F30202390FBF3F05D
:104EB0000138002810DA00230130400153B1A0F17D
:104EC00020014FF00042134204D1013888424FEADA
:104ED0005202F8D105B030BD13680393039BDB0782
:104EE000FAD5431823602B680293029B002BE3D171
:104EF0000138DEE7B4B00250ACB00250E4B002506A
:104F0000DCB00250F0B51D6885B001F01F040DB98A
:104F10001F2C25D1154D2E462F680197019FFF07A5
:104F2000FAD500F1A05000F52C40800000683568EB
:104F30000395039DED07FAD50D4D00EB6110286038
:104F40000C48006802901F2C18BFC94302980FBF7D
:104F5000106001F01F0100FA01F1116000211960D9
:104F600010684300C00F136005B0F0BDB4B002502C
:104F7000E4B00250DCB002500C4B18603F3020F01F
:104F80003F008901403058609960D96019615961CA
:104F900099611C330648196082B002680192019A37
:104FA000D207FAD5196002B0704700BF90B0025026
:104FB000B4B0025038B5A0F12003B3F5426F0546F6
:104FC0002CD88F2826D800F1470300F16604DB06B1
:104FD0004FEA541400D0013464013F34A409013471
:104FE00011B1A1421AD30C46E3004FF48050B0FB3C
:104FF000F3F0202828BF202002B11060084B0122C6
:105000001A602146FFF714FF28462146FFF7B4FF38
:10501000002038BD00F11F046409DDE70148F8E70E
:105020001CB802502221F000F0B5454B89B01D4656
:105030001C680194019CE407FAD5424BDFF80CE1AF
:10504000DFF80CC113449B0000241A680B181E2BB8
:1050500088BFC0F11E011F320B1852095343B3F52C
:10506000806F82BF4FF48061B1FBF2F1091A00F149
:10507000A05000F52C402746A14233DC2B68049356
:10508000049BDB07FAD5304B1B682968059105990D
:10509000CF07FAD52D4C2E49236000231E4693429C
:1050A00003F1010040D120F00102294819460026F1
:1050B0008A423CD8296806910699CE07FAD5254937
:1050C0000968286807900798C007FAD5216020482A
:1050D00000210C468B422DD11D4900209A422CD82C
:1050E00009B0F0BD2B680293029BDB07FAD50319C8
:1050F0009B001B682E680396039EF607FAD5CEF830
:1051000000300023934203F1010306D1164623F039
:105110000103B34204D80134AEE7CCF80070F1E7E4
:10512000CCF800700136F4E70E600346B7E706607E
:105130000131BDE704600131CCE708600133CDE700
:10514000B4B0025024AC00147CB00250D4B0025071
:10515000D8B0025078B0025008B540B120280146BE
:105160004FF0070228BF20210020FFF75DFF024B10
:1051700000221A6008BD00BF1CB80250F0B5294DCE
:1051800085B02C462E680096009EF607FAD500F1F1
:10519000A05000F52C40800005682068019001981F
:1051A000C707FAD52048214F056002EB8306B242BB
:1051B00029D15A1C1D4E22F0010200279A4227D8FD
:1051C00023680293029BDE07FAD5194B0B449B0020
:1051D0001B681F335B099A4213D22168039103991C
:1051E000C907FAD5154400219B1A104A05600846E4
:1051F0008B4210D85A1C0D4922F0010200209A421D
:105200000CD805B0F0BD52F804CBC7F800C0CEE70B
:1052100037600133D2E710600131E9E708600133FC
:10522000EDE700BFB4B00250D4B00250D8B0025085
:1052300024AC00142DE9F041814B1D68986820339F
:10524000A0B01E461A680192019AD707FAD57D4B85
:105250007D4A1A6032680292029AD407FAD57B4AD4
:105260001A607B4A1446116803910399C907FAD55D
:10527000784A1168C1F3402137680497049FFF07FB
:10528000FAD5754F1F6027680597059FFF07FAD568
:105290001768002900F0CF80B90540F1CC80316853
:1052A00006910699CF07FAD56C49196021680791D4
:1052B0000799C907FAD51168C1F3402137680897E3
:1052C000089FFF07FAD5664F1F6027680997099F57
:1052D000FF07FAD51268002900F0AF80910540F170
:1052E000AC8032680A920A9AD207FAD5564A1A60F6
:1052F00032680B920B9AD707FAD55A4A1A6031686E
:105300000C910C99CC07FAD55749196031680D9169
:105310000D99C907FAD55549196031680E910E9952
:10532000CF07FAD55249196031680F910F99CC0710
:10533000FAD550491960504B1E46196810911099C2
:10534000C907FAD53F4C4D4B236033681193119B2D
:10535000DB07FAD54A4B236033681293129BDF07B1
:10536000FAD5484B23603A4B984619681391139924
:10537000C907FAD5324F386033681493149BDB07A2
:10538000FAD5226033681593159BD807FAD53E4BA2
:10539000236033681693169BD907FAD53B4B2360DD
:1053A00033681793179BDA07FAD5394B23603368B4
:1053B0001893189BDB07FAD5364B23603368199393
:1053C000199BD807FAD5344B236033681A931A9B7C
:1053D000D907FAD5314B236033681B931B9BDA073F
:1053E000FAD52F4B236000F01DFC08BBD8F8003025
:1053F0001C931C9BDB07F9D53D6033681D931D9BF7
:10540000D907FAD5274B236033681E931E9BDA0712
:10541000FAD5254B2360D8F800301F931F9BDB077C
:10542000F9D50C4B1B6813F4805F204B08BF18465E
:1054300020B0BDE8F0811E48FAE71E48F8E700BF3B
:1054400090B0025080B0025000100251C01F72296B
:10545000B4B0025088B00250C0CF0129C01F0E293D
:10546000C03F002940010249003184A800001649CC
:10547000400108A180440888B0B00250C044708840
:1054800080077A41C0077E4100006A4980061649BC
:1054900040006E490002002100822021408220212C
:1054A0008082242140A161A100C861510308F1005C
:1054B0000108F1000208F1002DE9F74F314B446873
:1054C0008046924699461A68002AFCD12E4B9B468C
:1054D0001A68002AFCD14FF0FF30019100F094FCD3
:1054E000802000F097FC294D294A2A4F2A4E01239B
:1054F00007202B60A2F59E72C2F83C011360636A1C
:105500003B60A36A3360D8F8003042F8043CD8F816
:105510000830204698470199D9F80030002BFBD17C
:10552000BAF1000F20D11D4B04221A60D9F80030C7
:10553000002BFBD1DBF800A0BAF1000FFAD1D8F8AC
:105540000C30204698473B6863623368A362144B73
:10555000C3F800A0C3F844A1D9F80030002BFBD158
:105560002B6003B0BDE8F08F236A012B04BF0C4A07
:1055700013600C4B40201960C3F804A000F050FCED
:10558000D4E700BF10B9025020BC025018B8025036
:1055900000B90250CCB70250D0B70250C8B7025081
:1055A00084B6025028BC025010B5544B98B019462E
:1055B0001A680192019AD207FAD5514B514A1A60E2
:1055C0000A680292029AD407FAD54F4A1A600A680A
:1055D0000392039AD007FAD54C4818600A680492DF
:1055E000049AD207FAD54A4A1A600A680592059ABF
:1055F000D407FAD5474A1A600A680692069AD20773
:10560000FAD5454A1A600A680792079AD407FAD56C
:10561000424A1A600A680892089AD207FAD5404AA4
:105620001A600A680992099AD407FAD53D4A1A60A5
:105630000A680A920A9AD207FAD53B4A1A600A689F
:105640000B920B9AD407FAD5384A1A600A680C9262
:105650000C9AD207FAD5364A1A600A680D920D9A4A
:10566000D407FAD5334A1A600A680E920E9AD20706
:10567000FAD5314A1A600A680F920F9AD407FAD500
:105680002E4A1A600A681092109AD207FAD52C4A4C
:105690001A601A4B19461C681194119CE407FAD53C
:1056A000174B1860086812901298C407FAD51A6050
:1056B0000A681392139AD007FAD5124A1A600A6838
:1056C0001492149AD207FAD51E4A1A600A681592E3
:1056D000159AD407FAD51C4A1A600A681692169AC7
:1056E000D007FAD5194A1A600A681792179AD20792
:1056F000FAD5174A1A6018B010BD00BFB0B00250FA
:1057000080B002500093652100043190409665906E
:105710000083612100C3302100C364900081619047
:1057200000461021008111210041442100C320299D
:105730000C4610C80086312100C3602140C12829D1
:10574000409665210013319040962529594614C88A
:105750004004324910B5494B94B019461A6800927A
:10576000009AD207FAD5464B464A1A600A68019257
:10577000019AD407FAD5444A1A600A680292029A3A
:10578000D007FAD5414818600A680392039AD207F5
:10579000FAD53F4A1A600A680492049AD407FAD5E7
:1057A0003C4A1A600A680592059AD207FAD53A4A25
:1057B0001A600A680692069AD407FAD5374A1A6020
:1057C0000A680792079AD207FAD5354A1A600A681A
:1057D0000892089AD407FAD5324A1A600A680992E0
:1057E000099AD207FAD5304A1A600A680A920A9AC8
:1057F000D407FAD52D4A1A600A680B920B9AD20781
:10580000FAD52B4A1A600A680C920C9AD407FAD57A
:10581000284A1A600A680D920D9AD207FAD5264ACC
:105820001A600A680E920E9AD407FAD5234A1A60B3
:105830000A680F920F9AD207FAD5214A1A600F4BC5
:1058400019461C681094109CE407FAD50C4B18609C
:10585000086811901198C407FAD51A600A68129264
:10586000129AD007FAD5174A1A600A681392139A47
:10587000D207FAD5144A1A6014B010BDB0B0025065
:1058800080B0025080906521000409904096659098
:1058900080806121802008218020649000816190B7
:1058A000004610210081112100414421802020293F
:1058B000024610C800860921802060214021282945
:1058C0004096652140962529594614C810B5504B7D
:1058D00096B01C461A680192019AD207FAD54D4B30
:1058E0004D4A1A6022680292029AD207FAD54B4AB0
:1058F0001A604B4A42EA804022680392039AD20718
:10590000FAD5186022680492049AD007FAD5454A5D
:105910001A60A2F5800242EA814122680592059A46
:10592000D207FAD5196022680692069AD007FAD5EE
:105930003D4A1A6022680792079AD107FAD53B4A76
:105940001A6022680892089AD207FAD5384A1A6073
:1059500022680992099AD007FAD5364A1A60226855
:105960000A920A9AD107FAD5334A1A6022680B9232
:105970000B9AD207FAD5314A1A6022680C920C9A17
:10598000D007FAD52E4A1A6022680D920D9AD107D7
:10599000FAD52C4A1A6022680E920E9AD207FAD5CE
:1059A000294A1A6022680F920F9AD007FAD5274A1F
:1059B0001A60216810911099C907FAD51A60144B22
:1059C0001A46196811911199C807FAD5114B204947
:1059D0001960116812911299C907FAD51D49196009
:1059E000116813911399CC07FAD50B491960116806
:1059F00014911499C807FAD51749196011681591BF
:105A00001599C907FAD5154A1A6016B010BD00BF1E
:105A1000B0B0025080B00250400441900086292965
:105A2000D81001C840144190401421294014652128
:105A30000034409000310C90C0400C90C0302029C0
:105A400040960D9000416090031645C800861121D4
:105A500000416021594644C84014459040142D909F
:105A600070B5264888B0054604680094009CE60797
:105A7000FAD52348234C0460234C44EA83432C6822
:105A80000194019CE407FAD50360930143EA824242
:105A900042F0104444F4C0442B680293029BDE079A
:105AA000FAD504602B680393039BDB07FAD5174BE9
:105AB00003608B0143EA814141F0104343F4C0434A
:105AC0002E680496049EF607FAD503602B680593AA
:105AD000059BDE07FAD5046041F058412B68069318
