:020000040000FA
:10000000304000206D1E000049720000591E0000A3
:10001000591E0000591E0000591E0000000000007B
:100020000000000000000000000000006D1F000044
:10003000591E000000000000591E0000591E00005B
:100040000521000005210000052100000521000018
:100050000521000005210000052100000521000008
:1000600005210000052100000521000005210000F8
:1000700005210000052100000521000005210000E8
:1000800005210000052100000521000005210000D8
:1000900005210000052100000521000005210000C8
:1000A00005210000052100000521000005210000B8
:1000B00005210000052100000521000005210000A8
:1000C0000521000005210000052100000521000098
:1000D0000521000005210000052100000521000088
:1000E0000521000005210000052100000521000078
:1000F0000521000005210000052100000521000068
:1001000053B94AB9002908BF00281CBF4FF0FF317E
:100110004FF0FF3000F00CB8ADF1080C6DE904CEE3
:1001200000F008F8DDF804E0DDE9022304B07047D0
:10013000704700BF2DE9F04786468C460846089E6A
:10014000154674461946002B40F0C2808542B2FA2B
:1001500082F245D94AB1C2F1200300FA02FC2EFA1C
:1001600003F3954043EA0C0C94404FEA154EA8B2B5
:10017000BCFBFEF8230C0EFB18CC08FB00F943EA8D
:100180000C43994528D9EB1808F1FF3704D299455B
:1001900002D9A8F102072B44A3EB0903A4B2B3FBD5
:1001A000FEFC0EFB1C330CFB00F044EA0344A042AF
:1001B00014D92C190CF1FF3304D2A04202D9ACF1AE
:1001C00002032C44241A43EA07401EB1D440002302
:1001D00034607360BDE8F0874746DDE76346F1E7CA
:1001E00092BB431B01214FEA154EAFB2B3FBFEFC9D
:1001F000200C0EFB1C330CFB07F840EA0343984528
:1002000062D9EB180CF1FF3004D2984502D9ACF159
:1002100002002B44A3EB0803A4B2B3FBFEFC0EFBCD
:100220001C330CFB07F744EA0344A7424ED92C19B0
:100230000CF1FF3304D2A74202D9ACF102032C44E3
:10024000E41B43EA0040C0E7C2F1200320FA03F1B7
:10025000954090402EFA03F303434FEA154EAFB298
:10026000B1FBFEFC0EFB1C10190C0CFB07F841EA5D
:100270000041884504FA02F422D969180CF1FF30D4
:1002800004D2884502D9ACF102002944A1EB08014F
:100290009BB2B1FBFEFC0EFB1C110CFB07F743EA03
:1002A00001439F420ED9EB180CF1FF3104D29F425B
:1002B00002D9ACF102012B44DB1B41EA004192E779
:1002C0006046E3E76146F7E76046A3E76346B7E7C2
:1002D000834206D916B9002108467BE7C6E900E04B
:1002E000F9E7B3FA83F78FB9834201D3724508D88F
:1002F000BEEB020460EB030301209C461EB9002103
:1003000068E73846FAE7C6E9004CF8E7C7F1200C81
:10031000BB4022FA0CF41C432EFA0CF120FA0CF329
:10032000B84001434FEA14490EFA07F5B3FBF9F858
:100330001FFA84FE09FB18300B0C08FB0EFA43EA87
:1003400000439A4502FA07F240D9E31808F1FF305A
:1003500004D29A4502D9A8F102002344A3EB0A0370
:1003600089B2B3FBF9F809FB183308FB0EFE41EA2A
:1003700003418E452CD9611808F1FF3304D28E4514
:1003800002D9A8F10203214443EA0040A0FB0298ED
:10039000A1EB0E014145CE46434602D306D14D4561
:1003A00004D2B9EB020E68EB04030138002EA6D08C
:1003B000B5EB0E0261EB030101FA0CFC22FA07F324
:1003C0004CEA0303F940C6E9003198E74046C5E727
:1003D0004346D9E7F0B52E4B2E4AC3F800262E48E7
:1003E000C3F8042685B0C3F808264921C3F80C26B3
:1003F000C3F81026C3F81426C3F81826C3F81C2621
:1004000006F099FE06F06EFA01A800F09DFC234B61
:100410001B68834204D02248452106F08CFEFEE78B
:10042000039A2048492106F086FE1F48492106F01C
:1004300082FE4FF44041002007F0CCF9044620B181
:100440001A48452106F077FEFEE769469DF8080048
:1004500000F030F8009B039D1D44019B1E8903F0B2
:1004600009FAAF1900F0CCFF00F0A0FF01F03AFD4F
:10047000AB5983F3088884F31488BFF36F8FBFF3FD
:100480006F8F7B6898470A48452106F054FEFEE7C7
:10049000000001403546526EE6810000C001002098
:1004A000FF8100002282000051820000768200005D
:1004B000A982000008B5024638B10548002345214D
:1004C00006F039FE6FF0150008BD0860FCE700BFBC
:1004D000CC82000021B1012906D06FF015007047D1
:1004E000044B53F830007047024B03EBC0035868CD
:1004F000704700BFF87D00002DE9F04F7E4FDDB062
:10050000DDE9688914461D46DDF8A8B13E6800F0B3
:1005100017FF7A4B0122C3F800253CA805F006F925
:10052000B8F1000F07D0B9F1000F04DD4A4641468B
:100530003CA806F0FBFC23896289D4F80CA0134484
:100540009A444FF00008C24551D80FA93CA805F0C5
:100550005FF96A4B0022C3F80025C3F80025BBF100
:10056000000F04D020220FA9584606F0E4FE002315
:1005700000932A464FF6FF73214609A806F0B3F907
:100580000390002844D128460E9C00F079F984425B
:100590003ED8DFF870B1DFF864914FF0FF340DF111
:1005A0001E0307AA08A909A806F0EBF900282FDB0B
:1005B00040F09B80BDF81EA0BAF1100F31D1BDF8FC
:1005C0001C80B8F1200F23D1089943463CAA284645
:1005D00006F0BFFDE0B942463CA90FA806F049FA73
:1005E000474B1B68834213D101230393D7E7679BD3
:1005F000669AAAEB0809994528BF99464B46414699
:10060000284606F0A6FD28B13C4B0022C3F8002581
:100610003E686DE066994A463CA806F087FCC844EF
:1006200091E7BAF1010F3FD1BDF81C30202BEFD874
:1006300008993CAA284606F08CFD04460028E7D11C
:100640009DF81C300493202B0AD8DBF80030DFF82B
:10065000B8800593059B9C4205DB0023C9F8003553
:100660004FF0FF349BE700F06BFEC9F800A51FA810
:1006700005F05CF8D8F8042058F8081B12681FA889
:1006800006F054FC17A91FA805F0C2F80022C9F80B
:100690000025049A3CA917A806F026FE10B9C9F84F
:1006A00000057CE70134D5E7BAF1220F7FF477AF7C
:1006B000631C3FF474AFDBF80030A342D0DDBDF81B
:1006C0001C30802BA4D808993CAA284606F041FD8E
:1006D00000289DD1E4B2BDF81C3000943CAA202132
:1006E0000FA800F013F80646BAE7039B002B8FD043
:1006F00030465DB0BDE8F08F0400002000A002503D
:10070000C0010020007E0000047E00002DE9F047BB
:1007100096B016461D469DF87820374BDFF8E880E6
:1007200053F83210019103EBC20307465B68D8F817
:100730000090186802AA0144302301A806F084FB47
:10074000002851D1DDE901431C4403AA06AB214630
:1007500001A806F0A1FB002846D1049A072A43D13C
:100760002649059806F0C0FD00283DD1079A082AC1
:100770003AD12349089806F0B7FDA8BB02AA214642
:1007800001A806F075FB78BBDDE901A30AEB0302C3
:10079000944229D1412B27D13544302303AA29463D
:1007A00002A8029606F050FBE0B9DDE902321344DC
:1007B0009D4217D32A4602A906A806F02EF988B949
:1007C0002A4602A90EA806F028F958B99AF800306E
:1007D000042B07D1202306AA0AF10101384600F0B4
:1007E000C7FD28B1D8F80090484616B0BDE8F0879C
:1007F000044BD3F80090F7E7047E0000FB82000072
:10080000F2820000C001002004000020094A0B7899
:10081000400052F820108B4209D0013052F82000DD
:10082000834214BF4FF0FF304FF4C07070474FF455
:10083000C07070470C7E00001FB50F4B13F83000DE
:100840000C4601F075F950B92068816810236A469A
:10085000103906F07EFC28B1206806F079FC4FF0D4
:10086000FF3006E005491022684606F03DFD0028ED
:10087000F2D104B010BD00BF0C7E0000D681000094
:1008800013B5044606F0FCF86A460146204606F019
:1008900010F830B10448452106F04DFC002002B0AC
:1008A00010BD0098FBE700BF038300002DE9F04175
:1008B000364B88B0064600200D461C68FFF70AFE3E
:1008C00006A9C0B201F034F9002858D12946FFF733
:1008D00001FE2C2407A9C0B204FB056401F028F92D
:1008E000002833D02C276F4306EB0708069BD8F867
:1008F000101011F0100138D14FF480720192244A87
:100900000092CDE90311224602910846FFF7F4FD5B
:100910000446204BF25906989A420CD1D8F80C2084
:10092000B8F808309B1806D28268934203D21A4B5B
:100930001B68A34220D035B38268002106F033FC47
:10094000164A1748452106F0F6FB13E0079806F013
:1009500047FC0746079806F0FBFB631EE21C13F8F2
:10096000011FB942BED19342F9D11DB1069930465B
:1009700006F070F90B4B1C68069806F0E9FB204660
:1009800008B0BDE8F081084ADBE700BF04000020A2
:10099000240F00203DB8F396C001002046830000DC
:1009A00050830000000000203E8300007FB50D460C
:1009B000044600212846CDE9021106F00AF928B3C1
:1009C0002368194EB34203D103AA204606F096F8D5
:1009D000E36AB34204D102AA0121204606F08EF850
:1009E000DDE90232934288BF0393039BAB60039A15
:1009F0002946204600F0A2FB0C4B1A68002A03DDB2
:100A00000B48572106F097FB04B070BD01A9FFF712
:100A100013FF019805F1080106F03DF8AB68019855
:100A2000039306F095FBE2E73DB8F396240E002011
:100A3000788300002DE9F84FDFF878B01B4C1C4D8F
:100A4000884691469A4600260B9B9E4201D3002081
:100A50000FE00B9B174A9F1BB7F5806F28BF4FF421
:100A600080673B4606EB0A01404606F072FB10B178
:100A70000120BDE8F88F0A993B465A46711848464E
:100A800006F07CFB0028F3D1C4F800563E44C4F8BD
:100A90000456C4F80856C4F80C56C4F81056C4F8E6
:100AA0001456C4F81856C4F81C56CDE7000001408F
:100AB0003546526EC4090020F0B5994B43620E468C
:100AC000984B0365002189B004460846FFF702FDF4
:100AD00004F120010546C0B201F02AF80346E8B946
:100AE0000121FFF7F7FC04F14C010546C0B201F00B
:100AF0001FF80346E0B9204606F041F80546C8B99C
:100B000000221146204605F0E3FF054660B3864803
:100B10000022572106F00FFB01239CE00022CDE9C3
:100B20000023824800232A46452106F004FBFEE705
:100B30000122F4E77E488022572106F0FCFA0123C7
:100B40009D4284F85830DBD194F858308DF8173036
:100B5000042B00F28380012B00F2878000F09A8042
:100B6000FF2384F8583095E0204600F0FFF9002874
:100B7000D2D004A806F024F80146204606F0BFF8BB
:100B800018B16C482A465721C4E704A806F021F89A
:100B900080F0010104AAC9B2204605F099FF02467F
:100BA0000028B4D104A806F014F8054660BB04A9D7
:100BB0002046FFF7FBFE9DF8173084F85830033BC2
:100BC000012B06D8284600F0E5F810B1FF2384F881
:100BD00058309DF81730023B022B0BD8002000F054
:100BE000C3F838B1FF2384F858305348452106F044
:100BF000A2FAFEE794F85830FF2BF6D004AA0021A1
:100C0000204605F065FF87E79DF81770012F17D183
:100C1000104602F0DBFE831E022B05460DD8394636
:100C20002046FFF743FE454B1B68984205D0444BD6
:100C30001D68A84214BF0525012584F8585083E794
:100C400001212046FFF732FE3C4B1B6898420CBF47
:100C50009DF81730052384F8583075E7052B7FF48D
:100C60007FAF002000F096F811E004A92046FFF7BE
:100C70009DFE94F85830DA1E012A14D8002000F0A6
:100C800089F800287FF46CAF002000F06DF8002890
:100C90007FF466AF94F85830FF2B07D126484521E2
:100CA00006F049FAFEE7022BF4D1EDE70022012B12
:100CB000244D039214D01146204605F009FF78B167
:100CC0002D68102200210DEB020006F03FFBE06CC6
:100CD00006F03EFA206A06F03BFA284609B0F0BD5D
:100CE00000212046FFF7E2FD144F3B689842E7D110
:100CF0002B689842E4D0124B1B689842E0D0039BCB
:100D000001330393039B012B00D0FEE7206A05F01B
:100D1000CEFD3071236A5B6834603D68B360D0E714
:100D2000C4050020C401002036840000A783000011
:100D3000F4830000628400008C840000C001002065
:100D4000000000200400002038B5064D0446602253
:100D50000021284606F0FAFA21462846FFF7ACFEA5
:100D600038BD00BFC40D002013B5094B01A913F80D
:100D7000300000F0DDFE48B9019806F0E8FD0446B9
:100D8000019806F0E5F9204602B010BD0124FAE70B
:100D9000147E00001FB50F4B01A913F8300000F0BE
:100DA000C7FEA8B9019802A902F0BAFD044668B9C5
:100DB0009DF80B30032B03D1019806F096FD0446F5
:100DC000019806F0C5F9204604B010BD0124F7E7EC
:100DD0000124F8E7147E00002DE9F34106460C4695
:100DE00017461D460BB9002628E0184605F0F1FE0F
:100DF0000028F8D16946FFF71FFD009838B9012493
:100E0000009806F0A5F9204602B0BDE8F08101A9DE
:100E100005F041FE0028F2D1009806F099F930461D
:100E2000019905F0A8FF736A5E686B79012B21D1E7
:100E3000002CD8D12B68834298BF00262146002081
:100E4000FFF748FB6946C0B200F072FE0028D6D119
:100E5000009820233A46314606F07BF904460028E4
:100E6000CDD1002DCCD03C680D4BE41A18BF4FF00B
:100E7000FF34C5E7022BB6D12B68012B05D983427D
:100E8000B1D8B4FA84F46409ADE7ACD1002CD5D064
:100E9000012CA8D12C79023C18BF0124A3E700BF84
:100EA0003DB8F3962DE9F04F074685B00C46014654
:100EB00000201646FFF7AAFC051E50DB3846E46DFD
:100EC00005F0DEFD5FFA84F96B1E09FB03084FF0A5
:100ED000000A4FF0010B4FF0FF349DB9BAF1010F3A
:100EE00003DD2148452106F026F9631C06D07F2C3E
:100EF0002ADC013440F201133460B380284605B087
:100F0000BDE8F08F6B1E00930DF10F0201234146E7
:100F1000384606F01EF9031E019322DB01220DF173
:100F20000F01384606F07CFC019B40B15B4501D0C7
:100F30000AF1010A009DA8EB09089B46CDE7B4F130
:100F4000FF3F08BF2C46F5E70223803C7371631016
:100F500004F001040133013433603471CEE7072516
:100F6000CCE70125CAE700BF9884000038B5816A44
:100F7000426D914208D0531C8B4205D01348572133
:100F800006F0D9F8002038BD80291CD91048572117
:100F9000F6E7446A056D04EBC30405EBC30564681A
:100FA0006D68AC4202D00B485721E9E701339A4201
:100FB000EFD1914205D9436A03EBC2035B68A342B8
:100FC000F1D10120DFE700231C46F0E7BB840000DD
:100FD000F38400002285000000B589B004A9022036
:100FE00006F090FC9DF81020012A41D0254B26499F
:100FF000032A08BF0B469DF8132002929DF8122089
:1010000001929DF81120214800924921204A06F0C2
:1010100092F806A9052006F075FC9DF81820012A13
:1010200028D0184B1849032A08BF0B469DF81B20EF
:1010300002929DF81A2001929DF8192000921348FF
:10104000144A492106F077F89DF81030012B13D18E
:101050009DF81230032B0FD19DF81830012B0BD0C7
:101060000D48492106F067F8022009B05DF804FB3D
:101070000A4BC0E7094BD9E70948492106F05BF85C
:101080000020F2E74E850000578500006B850000C8
:101090005D850000AC850000BC8500005285000025
:1010A000DB85000070B54B6814461E4A03F0FF2331
:1010B000934286B006460D462FD10B68012B2CD1EA
:1010C00004A9204602F02CFC9DF81020012A26D00D
:1010D000154B1649032A08BF0B469DF813200292B0
:1010E0009DF8122001929DF8112000921048114A9B
:1010F000492106F020F89DF81030032B0DD1214630
:10110000304605F0A7FD204606F0EFFBA968204613
:1011100005F0CFFC204602F0E3FB06B070BD064BA5
:10112000DBE700BF000100044E850000578500008A
:101130006B850000AC850000528500002DE9F04F62
:10114000164689B005460C467448492105F0F3FF60
:101150003146284605F00FFE6B6A824620465E68DF
:1011600005F037FDE8B1E86D05F085FCAF6A0023B6
:10117000013F3344834201D2013FFAE7BA4510D31D
:101180006748572105F0D7FF07FB06F365480AFBC0
:101190000662572105F0CFFF0123E37109B0BDE8D6
:1011A000F08F06A9022000F0C3FC07A9052000F07B
:1011B000BFFC079A21462846FFF774FF6379012B8D
:1011C0004BD1DFF864B1574641E02268C2F1010318
:1011D00053449F423AD86B6A196853F8370003EBBF
:1011E000C703012A53F8083CA3EB0103A0EB010954
:1011F000049311D1079B0393E368022B08D0414667
:10120000284605F027FD22464146284605F058FDB0
:101210000399284605F01EFD32464946404605F032
:1012200017FD049B42464146CDE900962846FFF74C
:1012300001FC2146284605F0D9FC236801332360D0
:1012400020B1DBF800300133CBF80030013FDDF88E
:101250001880002FB9D10123236002236371012775
:10126000BA45DDF8189006D2484605F071FF079898
:1012700005F06EFF92E723689F424DD36A6ADDF85E
:101280001CB052F837100491FB00083B1168039121
:10129000D1582A6DD0581368A0EB03082379012B8D
:1012A00038D1039B3246C91A4846059105F0D0FC57
:1012B0000599009143464A46594601962846FFF74C
:1012C000B9FB2146284605F091FC0223237118B191
:1012D000154A13680133136032464146584605F0FB
:1012E000B7FCDDE9032349469B1ACDE900865A463F
:1012F0002846FFF79FFB2146284605F077FC236828
:10130000013323600123237130B1074A136801338D
:10131000136001E0022BDFD00137A1E7F285000066
:101320001B8600004A860000240E00200A4619B1E0
:10133000024B00211B681847704700BF08000020BF
:1013400070B5094D2B780BB1002070BD074C0126FC
:10135000C4F8006504F08CFA18B92E70C4F80005C2
:10136000F2E74FF0FF30F0E72410002000A0025019
:101370002DE9F041DFF83080ACB01F4606460C4640
:101380001546FFF7DDFF0123C8F800352A4633462E
:101390000097214603A806F0A9FB0023C8F80035F2
:1013A0002CB0BDE8F08100BF00A00250BFF36F8FEA
:1013B00072B6124B4FF0FF32C3F88020C3F884207E
:1013C000C3F88820C3F88C20C3F89020C3F8942079
:1013D000C3F89820C3F89C20C3F88021C3F8842167
:1013E000C3F88821C3F88C21C3F89021C3F8942155
:1013F000C3F89821C3F89C21704700BF00E100E0CA
:10140000164A4FF0FF3301215160C2F84833C2F849
:10141000083302F5C0425160C2F84833C2F80833BD
:1014200002F598325160C2F84833C2F80833A2F589
:1014300008320021C2F80015C2F8083302F518324C
:10144000C2F80015C2F80833A2F51042C2F80835F8
:101450004FF08042C2F80833704700BF00B0004030
:10146000014B1B68184700BF0C000020014B18609F
:10147000704700BF0C00002007B50B460021024654
:101480000091034800F014F903B05DF804FB00BFBD
:10149000611400002DE9F047058B044628079046AB
:1014A00011D4022905F0070540F0CD80204605F053
:1014B00067FD78B10138218B042811D8DFE800F0EE
:1014C000C3106D85950001290CBF45F0100545F04E
:1014D0002005258388F31188BFF36F8FBDE8F0875F
:1014E00001F0070AAA4500F0A6800027B9463E464B
:1014F000A368002B00F0BD8041F00801218388F330
:101500001188BFF36F8FA168002900F0BB800D68C0
:10151000002900F0B780D1F80480334652462046B7
:10152000C047002D76D02B6829461D46F0E701F014
:1015300007035A1F012A1BD8002221F00701062B9E
:10154000276889B2C4E9002209D13B4603E0628BD7
:10155000013262831B68002BF9D141F00201218323
:10156000204605F00DFD00287BD041F0200177E0FA
:10157000042B0AD121F0070189B22183204605F00E
:10158000FFFC10B141F020012183218B01F0070AFB
:10159000AA4550D00027B946AAE7236921F00701E0
:1015A00041F00601062DD3F8009021832DD1B9F129
:1015B000000F40D041F00801218388F31188BFF368
:1015C0006F8F3A492046C84729E021F00701236977
:1015D00041F0040189B2042DD3F804902183E6D0B0
:1015E00000273E464FF0040A82E721F007012369F5
:1015F00041F0050189B2052DD3F808902183D6D09A
:1016000000273E464FF0050A72E700273E464FF09E
:10161000060A6DE72B4687E7B9F1000FD1D14FF0ED
:101620002003EFF3118883F31288BFF36F8F238BAE
:1016300023F008032383258BEA062ED525F010031B
:10164000238305F007056669218B002EBFF66FAF77
:1016500000232768C4E9003321F0070141F00101AC
:101660002183218B01F0070AAA454FF000097FF47E
:101670003FAF002F9BD041F00801218388F31188F0
:10168000BFF36F8F002FC7D03D68394633465246AF
:10169000204605F0A1FC2F46F4E7AB067FF51AAF14
:1016A00025F02003238305F00705FFE60570000001
:1016B0002DE9F04F8DB01D46531E824601910393D4
:1016C0004FF00009039B5878252803F1010419D134
:1016D0001E4600204FF0FF38023603460290444673
:1016E00031780396392954D81F2914D8002900F0DD
:1016F000EE8101992520D04701993078D04709F132
:101700000209DFE7002800F0E2810199D04709F1E2
:1017100001090394D6E7A1F12002192AE9D801A70B
:1017200057F822F08D170000F3160000F3160000A2
:101730008D170000F31600000D180000F3160000CE
:10174000F3160000F3160000F3160000591800000D
:101750008D170000F31600006D1800001918000026
:10176000F316000027180000471800004718000073
:1017700047180000471800004718000047180000ED
:1017800047180000471800004718000008460136B7
:10179000A6E7582900F0EB80A1F16302D7B2172F1A
:1017A000A7D8172AA5D801A757F822F0151A0000C4
:1017B00093180000F3160000F3160000F316000063
:1017C0007318000093180000F3160000F3160000D1
:1017D00073180000F3160000F3160000F316000063
:1017E00049190000F3160000F3160000E919000083
:1017F000F316000093180000F3160000F316000023
:1018000049190000F3160000731800000199252003
:10181000D04709F1010955E7029A02F0FE0202924F
:101820004FF00008B3E7002C0DDAB8F1000F0DDA25
:10183000029A002A00F0438124EAE4740A2202FB9F
:101840000414303CA3E7B8F1000FF5DB0A2202FBD9
:101850000812A2F130089AE7B8F1000F55F8042BEE
:1018600080F22F81002A80F22E81544202220292BD
:101870008DE7682903D1682B06D1482387E76C29B7
:1018800002D16C2B00F02181002B7FF432AF0B468C
:101890007DE77A2B06D1752955F8046B14D14FF0EA
:1018A000000B0CE06C2BF6D04C2BF4D1073525F057
:1018B00007037529D3E9006B03F1080506D1202839
:1018C0003BD1854F013C09E04FEAE67BBBF1000FBD
:1018D000F5DA7642814F6BEB4B0B013C0DF12D039A
:1018E000059300230493304659460A220023FEF74D
:1018F00007FC059B303203F8012DB4460593049B89
:101900005A46BCF10A0F8B4672F1000203F1FF3117
:1019100006460491E7D2C3F1010B30330DEB030609
:10192000B8F1000FA6F104066DDA029BD9077DD449
:10193000A8EB0B03A4EB0B0413E02B280ABF684FA2
:10194000684F04F1FF34C9E770290FD155F8042B13
:101950000023FAB9634F644E053C6FF004034FF067
:10196000050B029A920770D4A04666E078216C2B92
:1019700003D155F8042B002308E04C2BF9D107358F
:1019800025F007031D465B6855F8082B232825D151
:10199000880621D5554F023C01F06001A1F1390BB9
:1019A0000DF12D0E002602F00F01092988BF5944C0
:1019B00030310EF8011D102A4FEA121141EA03716D
:1019C0004FEA131C73F1000306F1FF3008D2C6F191
:1019D000010B06F13003A1E7454FDCE7414FDBE7A0
:1019E00006460A466346DEE755F8046B304605F0C6
:1019F00074FCB8F1000F834602DB4045A8BFC34624
:101A0000384F4FF00008A8EB0B03002B92DDA4EB3E
:101A10000804A6E755F8043B8DF81830314F013C17
:101A20004FF0FF334FF0010B06AE9AE7A046EAE70E
:101A3000029301992020D047029BB8F10108F7D505
:101A400024EAE472013C9144A41AB84606E00493E7
:101A500002920199D047029A049B9046424612F89E
:101A6000010B0028F3D11A46013A15D5002BACBF63
:101A7000C7EB03077F425B46013B15D5BBF1000F67
:101A8000A8BF5F444F442646013E14D5002CA8BF92
:101A90003F1907EB080915E60493029201993020DB
:101AA000D047049B029ADFE70293019916F8010BD5
:101AB000D047029BE0E701992020D047E4E70122CC
:101AC000D5E6904663E6144661E64C235FE6484659
:101AD0000DB0BDE8F08F00BFD8860000D6860000AC
:101AE000DA86000097840000E2860000DC860000B1
:101AF000DF86000008B504464FF02002EFF31183A3
:101B000082F31288BFF36F8F01F0B4FE204600F01D
:101B1000D7F9034805F027FA00F0CEFAFCE700BF3A
:101B2000E8860000014B036000207047207E000023
:101B300070B5114B1C680D46DCB1104B19680023C1
:101B40008B4202DB6FF0010070BD224612F8106B71
:101B5000864202D001331446F2E7E06810B96FF014
:101B60001200F1E705F09DFF0028F8D02C6000205E
:101B7000EAE76FF00C00E7E710000020207E00008D
:101B800070B588B005460C46C0B269461646FFF7E8
:101B9000CFFF00281BDB0098C8B14368029383681D
:101BA00022680195CDE903360023CDE9062305938C
:101BB000C56805F0CDFA6DB12846084901AA05F0BF
:101BC0002AFD079808B9059B236008B070BD6FF027
:101BD0001500FAE76FF01200F7E700BFEF710000A1
:101BE000014803F0F5BA00BF947E000030BFFFF754
:101BF000FDBF00BF704700BF134B9A6A12F0007F11
:101C00009A6A14BF1E201D2012F0807F9A6A18BFA6
:101C10001F2012F4002F9A6A18BF212012F4802F7F
:101C20009A6A18BF222012F4003F9A6A18BF232034
:101C300012F4803F9A6A6FEA02426FEA12429A6295
:101C400018BF2420704700BF00ED00E010B5194B0D
:101C50000246986A9C6A10F4805F14BF1720162011
:101C600014F4006F9C6A18BF1820A40509D5986B5E
:101C7000986A000404D51AB19A6A22F400429A6262
:101C800019200C4B9A6A12F4806F9A6A18BF1A20B6
:101C9000D2050CD49B6A13F4005F18BF1C20054AC0
:101CA000936A43F47F43936200230B7010BD1B20A3
:101CB000F5E700BF00ED00E010B51C4B0246986A46
:101CC0009C6A10F0100F14BF1120102014F0080FA0
:101CD0009C6A18BF1220A40709D5586B986A0006A1
:101CE00004D51AB19A6A22F080029A6213200F4B2F
:101CF0009A6A12F0010F9A6A18BF142012F0200F8E
:101D00009A6A18BF1520D40658BF9B6A074B9A6A77
:101D1000920642BF5A6A22F400525A629A6A42F00C
:101D2000FF029A6200230B7010BD00BF00ED00E0BF
:101D300070B5444B5B688AB00646C3F308030025C0
:101D400085F31188BFF36F8F02F07F40B0F17F4FB2
:101D500011D102F00C0008280DD010074CBF0E4620
:101D600001250022033B8DF80720032B05D8DFE86F
:101D700003F01E5C60592E46F3E700249DF80730FF
:101D80009BB92022314602A805F0D5FA099B002D07
:101D900053D0C3F3080222B96FEA53236FEA4323F7
:101DA000099302A9204605F049FA0AB070BD254BF7
:101DB000DA6A9107E1D4DA6A002ADEDBDA6A5200D5
:101DC000DBD55A69B16942F480725A61BFF34F8F13
:101DD000BFF36F8F5A6931F8021C22F480725A6186
:101DE000BFF34F8FBFF36F8F4DF60272914209D050
:101DF0009A6AD2B242B10DF107010120FFF75CFFF0
:101E00000446BBE73468B9E79A6A12F47F4F05D0FD
:101E10000DF107010120FFF719FFF1E79B6AB3F508
:101E2000803FAAD3FFF7E8FEEAE70DF107010020A3
:101E3000E4E70DF107010020EDE723F4FF7323F041
:101E40000103ADE700ED00E0024A536943F01003DF
:101E50005361704700ED00E0EFF30880EFF3098174
:101E600001B57246FFF764FF01BD00BF002080F39B
:101E70001488BFF36F8F00F047FA00200D49086007
:101E8000BFF34F8F0C4880F3088800F03DF8202006
:101E900080F3118809484FF40061401880F30988E5
:101EA000EFF314800221084380F31488BFF36F8F8F
:101EB00000F0B4F894ED00E0304000203010002035
:101EC000BFF34F8F0549064BCA6802F4E062134323
:101ED000CB60BFF34F8F00BFFDE700BF00ED00E018
:101EE0000400FA050749D1F890200023C2F3072225
:101EF0001846934200DB7047C1F89830C1F8A00043
:101F00000133F6E700ED00E008B572B6002383F375
:101F10001388FFF7E7FF144B4FF0FF32C3F8802020
:101F2000C3F88420C3F88820C3F88C20C3F890201D
:101F3000C3F89420C3F89820C3F89C20C3F88021EC
:101F4000C3F88421C3F88821C3F88C21C3F89021F9
:101F5000C3F89421C3F89821C3F89C2162B6BFF35B
:101F60004F8FBFF36F8F08BD00E100E01EF0040F3C
:101F70000CBFEFF30880EFF30980816911F8021CB0
:101F80000229FFD001B505F05BF901BD40B2002880
:101F900007DB044A4109012300F01F00834042F897
:101FA0002130704700E100E040B200280CDB43091B
:101FB000064900F01F0020330122824041F823200F
:101FC000BFF34F8FBFF36F8F704700BF00E100E09A
:101FD000054B420900F01F0053F82220012303FAA9
:101FE00000F01040704700BF00E100E040B2002860
:101FF000A8BF00F1604001F10101B8BF064B4FEAF4
:102000004111ACBF00F5614000F00F00C9B2B4BF90
:10201000195480F80013704714ED00E0144A08B515
:10202000144B22F07F029A60BFF34F8FBFF36F8F84
:10203000D3F8882022F47002C3F88820D3F88820CF
:1020400042F4A002C3F888204FF04042C3F8342283
:10205000BFF34F8FBFF36F8F0023E1EE103A02F012
:1020600057FF02F09DFF00F041F802F05DFF00BF56
:102070000000000000ED00E00446084611461A4644
:102080000023E1EE103A084B202583F3098863B65C
:102090004FF0000383F31188BFF36F8FA04785F3E0
:1020A0001188BFF36F8FFEE73040002001491022F6
:1020B0000A60704710ED00E072B6404080F311886E
:1020C000BFF36F8FBFF34F8F30BF62B6BFF36F8F19
:1020D000704700BF72B6494081F31188BFF34F8F3C
:1020E00020BF80F3118862B6704700BF0448002308
:1020F0002021C2180133302B82F80013F9D1704728
:1021000000E100E001B5EFF30580A0F110004FEA17
:10211000C0000449014409C99847BDE8014002498B
:10212000084700001C7C0000F51B0000024B034A1E
:102130000348012100F030B8000004200000002016
:102140009C7E0000084AC2F898000B6823F01F0329
:10215000034343F01003C2F89C308B6843F0010343
:10216000C2F8A030704700BF00ED00E0044B05222C
:10217000C3F89420BFF34F8FBFF36F8F704700BF3A
:1021800000ED00E0BFF35F8F024B0022C3F8942004
:10219000704700BF00ED00E010B5034C012322782A
:1021A00005F06DF8207010BD25100020F0B5454DEC
:1021B0002C68082C85B000F28280FFF7E3FF002036
:1021C0000C2684420DD1404D404F2C706846FFF7DD
:1021D000A9FC00240646A6420AD1FFF7C7FF00204B
:1021E0001CE0696806FB0011FFF7ACFF0130E8E76F
:1021F000009800EB04114FEA041CCB683B40B3F598
:10220000000F4AD00CD8B3F5001F30D0B3F5800FC3
:1022100038D0B3F5801F12D06FF0150005B0F0BDB7
:10222000B3F1807F42D0B3F1007FF5D150F80C308C
:1022300088684A6805F013F840F4802009E050F8F7
:102240000C3088684A6805F00AF840F0885040F47D
:102250003020039028780728CDE90123DCD801A994
:10226000FFF770FF2B7801332B700134B3E750F880
:102270000C3088684A6804F0F2FF40F0885040F45F
:102280000020E6E750F80C3088684A6804F0E7FF61
:1022900040F0007040F40030DBE750F80C30886804
:1022A0004A6804F0DCFF40F08270D2E750F80C304E
:1022B00088684A6804F0D3FF40F08870C9E74FF09F
:1022C000FF30ABE7A87E0000251000200000F0FFE3
:1022D000014B1860704700BF14000020044A01231E
:1022E000C2F840354FF080420020C2F87835704780
:1022F00000E0014020B1034B800143F00103184787
:10230000704700BFF07D000001F0FABB084B70B5CC
:10231000C31A0D4607499B100446594306484022FC
:1023200005F03CF82B4601462046BDE870401847B2
:102330003C0E0020B76DDBB6A47B000073B50C4CDF
:102340000C4A4023041B00930D460B460A49A41077
:1023500061430646094805F04DF8011E05DA30468E
:102360002B4602B0BDE87040184702B070BD00BFF8
:102370003C0E002065740000B76DDBB6A47B000046
:1023800010B54FF02003EFF3118483F31288BFF3ED
:102390006F8F074A136823F00201DB07116002D434
:1023A000012005F0DFFA84F31188BFF36F8F10BDB1
:1023B0008C0E0020002270B5012104461046FFF764
:1023C00015FE0F4801F02EFD0E4B984215D101F07D
:1023D00039FD26690C49304604F023FE00280BDB4A
:1023E000012535642469084904F11C0004F019FE34
:1023F000002801DBE564002070BD6FF00400FBE7FE
:10240000412400000000AD0BC87E000070B50146FD
:102410000C2309484B43C418D4E90E56403300221C
:102420001844A26304F0A7FF2DB132462B4603489F
:10243000BDE87040184770BD3C0E0020A47B000032
:1024400010B1012804D07047034B1B6C5B0701D10E
:10245000FFF7DCBF704700BF3C0E002008B54FF00F
:102460002003EFF3118183F31288BFF36F8F124AB9
:10247000136843F002001060DA0708D481F3118872
:10248000BFF36F8F0120BDE8084001F0EDBC4FF0B5
:102490008043D3F80C24D3F80C34DB07EED507487F
:1024A00004F069FF81F31188BFF36F8F0020BDE84E
:1024B0000840FFF7ABBF00BF8C0E00207C0E002051
:1024C0002DE9F8433649BFF35B8F0746012251E8F7
:1024D000003F41E800200028F9D1BFF35B8F33B9FA
:1024E000304931484B60CB608A6004F0ADFD7B1E03
:1024F000012B2DD8012F07D14FF08043D3F81C3486
:1025000003F00303012B23D005F0EAFA054608BBCC
:10251000264B1B78F3B14FF080430222C3F8082307
:102520000646DFF88C904FF080444FF00108D4F855
:102530001824D4F81834D20316D503F00303012B62
:1025400001D0012F10D12DB386F31188BFF36F8F07
:10255000BDE8F8834FF02003EFF3118683F3128870
:10256000BFF36F8F0125DCE73046FFF7B3FDD4F8EA
:102570001835002BDBD1D4F80421002AD7D0C4F8B9
:102580000431D4F80431C4F81885C9F88081C4F83E
:102590000880CCE74FF080430222C3F80423D7E73A
:1025A000380E0020280E0020580E00202910002090
:1025B00000E100E008B5074805F073FA38B10648B5
:1025C000FFF786FE0448FEF751FF002008BD6FF0BC
:1025D0001200FBE7E07B0000DD2500000A2838B58B
:1025E000074D044604D1AB680D215B682846984727
:1025F000AB6803485B68E1B29847204638BD00BF2E
:10260000E07B000000F1744000F5A6000A289ABFA4
:10261000024B33F910006FF00F007047C0810000CB
:10262000024B0B6001231360704700BF887F0000DE
:1026300000487047087F00000268154BFF2A08BF5A
:102640004FF0FF32C3F824254268FF2A08BF4FF03D
:10265000FF32C3F828258268FF2A08BF4FF0FF32F7
:10266000C3F83025C268FF2A08BF4FF0FF32C3F815
:1026700034250269FF2A08BF4FF0FF32C3F838251E
:102680004269FF2A08BF4FF0FF32C3F83C2570476C
:10269000009002400C4B994210B504460FD14FF008
:1026A0002003EFF3118083F31288BFF36F8F237839
:1026B00033B10023237080F31188BFF36F8F10BDF7
:1026C000FFF708FDEBE700BF0000AD0B2DE9F04F71
:1026D000824685B088461746002A00F08E80002B7F
:1026E00000F087800029C0F28880CA184168C96A52
:1026F0008A4200F28280C8F1000505F003059D4280
:1027000028BF1D467A4202F0030207F0030658BFB5
:102710005642764206F003069E4228BF1E465A1BCA
:102720009B1B23F0030322F003099945C8BF994678
:1027300002F0030BC8BFA2EB030BB9F1000F18D0D6
:10274000BB1908EB050249461846019305F09DF9AF
:1027500004460146DAF81000FFF79CFF284A94422D
:102760003DD1B54205D0019B4A461946781904F07F
:10277000CBFDC5B1C5F10406A8EB0602042102A8F1
:1027800005F083F904460146DAF81000FFF782FFEE
:102790001B4B9C4223D106F108032A460DEB030193
:1027A000384604F0C8FDBBF1000F17D0082108EB34
:1027B00005024A440DEB010005F067F904460146A5
:1027C000DAF81000FFF766FF0D4B9C4207D109EBCA
:1027D00005005A4602A9384404F0ADFD084CDAF869
:1027E000100004F0B7FE204605B0BDE8F04FFFF73B
:1027F00009BF184605B0BDE8F08F6FF01500F9E786
:102800000000AD0B2DE9F3470F46054641681E4613
:102810009046002A75D0002B73D0042B01D9B30742
:102820006FD117F003006CD1002F6ADBCA6ABB19A5
:10283000934266D804F05BFE044648B1012004F0E0
:1028400056FE286904F086FE204602B0BDE8F087F7
:10285000032E1ED804213A460DEB010005F015F9B0
:10286000044601462869FFF715FF274B9C4235D1E6
:102870003246414601A804F05EFD04213A460DEBC4
:10288000010005F0FFF8044601462869FFF702FF42
:1028900024E008F06043B3F1005F02D118F0030FA9
:1028A0002BD0DFF864A0042EB14628BF4FF00409F6
:1028B0004A46414601A804F03EFD3A46494601A871
:1028C00005F0E0F8044601462869FFF7E3FE5445A9
:1028D00004D1B6EB0906C8444F44E4D12046FFF7C3
:1028E00091FE0446012004F002FE0646286904F029
:1028F00031FE002C08BF3446A6E73A463146404632
:10290000BFE76FF015049FE70000AD0B2DE9F84F0E
:102910000746D0F804800E46C1F30B039246002A06
:1029200053D0C2F30B0018434FD100294DDB8B1855
:10293000D8F82C20934248D804F0D9FD0446C8B9F1
:10294000DFF89090D8F82C30534519D105F0A0F855
:10295000D346054638692946FFF79CFE4D4524D1EC
:10296000BAEB0B0A5E44EDD1012004F0C0FD002C4F
:1029700008BF0446386904F0EDFD2046BDE8F88F35
:10298000BAF5803F09D3B3B2A3B93146012002F0B2
:10299000EBF94FF4803B0546DCE7BAF5805F09D2DE
:1029A0000B4938690A4DFFF775FE2846FFF72AFEE6
:1029B0000446D9E7C6F30B000028F1D1314602F0F6
:1029C000D3F94FF4805B0546C4E76FF01504D4E7F4
:1029D0000400AD0B0000AD0B2DE9F04743685D6BC3
:1029E00090B007460AAA0021284604F095FE041E6E
:1029F0006FDB0A9B2A681979186800F033FB041E04
:102A000067DB002201212920FFF7F0FAD7F80480C4
:102A10003A695A49404602F009F9FFF7F3FD041EEE
:102A200052DB574D0FCD0AAC0FC495E803000026CA
:102A30000DF1040984E803000196AB23C9E901669E
:102A40008DF804304F4BD3F82425D2B20492D3F83A
:102A50002825D2B20592D3F83025D2B20692D3F807
:102A60003425D2B20792D3F83825D2B20892D3F8DF
:102A70003C350AA8DBB20993FFF7DEFD012002F026
:102A80004BF904AD01462846FFF7D6FD3E4B99426F
:102A900023D13146484604F0F9FC041E14DB14200F
:102AA00004F0FAFF4FF0030A9F2331460AA8CDE94C
:102AB0000A66CDF81090CDF814A08DF828300C954A
:102AC00004F0E4FC041E0BDA02F044F908B102F051
:102AD0002FF9204610B0BDE8F0876FF00404F3E74B
:102AE0005246494608F1300004F0FEFB0446002837
:102AF0003ED17A68537F023B012B37D9167F033EC4
:102B0000012E8CBF00260126022004F005FD0028BE
:102B100031DBC3B2C0F340008642D5D083F002035C
:102B200000260120ADF800608DF8013004F0F4FCBF
:102B3000041EC9DB022301210AA88DF800400A9671
:102B4000CDF810D005930C968DF828100B9504F055
:102B50009DFC04460028B7D1012004F0DDFC041ED2
:102B600001DBE307F8D404EAE474ADE70126CBE720
:102B70006FF01204A8E70446A6E700BF85740000C2
:102B8000B07D0000009002400000AD0B024B0B60D6
:102B900001231360704700BF900E0020004870476B
:102BA000A47F000010B504F069FF034C206004F01E
:102BB00061FF6060002010BD900E00204FF0804249
:102BC000D2F81015D2F8103501F01E0123F01F03C2
:102BD0000B4343F00103C2F81035024B00221A7078
:102BE000704700BF281000204FF08053D3F83031D9
:102BF000082B20D14FF08042D2F81015CB071AD500
:102C0000D2F8103501F01E0123F01F030B43C2F868
:102C10001035D2F808315BB1D2F8103523F01F031C
:102C20000B4343F00103C2F810356FF08B0070477F
:102C3000024B01221A700020704700BF28100020AC
:102C40002DE9F0410D46164604F014FF31460746C3
:102C5000284604F084FC28B3B5FBF7F307FB1353B5
:102C600003BBB6FBF7F407FB1464DCB9B74213D817
:102C700004F000FFDFF834800746FFF7B5FF044695
:102C800068B9284601F06EFD98F800300BB1FFF7E7
:102C900095FFF61B3D44F0D12046BDE8F0816FF072
:102CA0008B04F9E76FF01504F6E700BF2810002049
:102CB0002DE9F8430E463046194617461C4604F0E7
:102CC0004EFC30B346EA040515F0030521D11CB3D0
:102CD000DFF84C906319032BA6EB050807D80F4AC1
:102CE000D2F80034DB07FBD50020BDE8F883FFF7FE
:102CF0007BFF58B97B1B4046196801F053FD99F8DA
:102D000000300BB1FFF75AFF043DE3E76FF08B0093
:102D1000EBE76FF01500E8E72046E6E700E001404A
:102D200028100020F0B54068057B01F01F0444EA3C
:102D30004514056987B0002D64D0B2F5001F00F17D
:102D4000100506D12146284604F08CFE002007B06D
:102D5000F0BD01AE0027B2F5800F0197776039D141
:102D6000B3F1007F14BF052304238DF80430002342
:102D7000CDE904630393836823FA01F111F00101A3
:102D80001AD1B2F1A07F17D104F01F03620903F535
:102D9000E0732AD0012A3BD11F4A52F82330DB07C7
:102DA0000AD40DF1030632462146284601F03AFBCB
:102DB0001A4B98421CD0029603AA2146284601F0DD
:102DC000F3F9174B984220D101222146284601F001
:102DD00091FBBBE7B3F1C06F05D0B3F1007F14BF27
:102DE00001230223C1E70323BFE74FF0A042D4E74A
:102DF0003146284601F078FB094B9842DBD06FF052
:102E00000B00A4E76FF08500A1E76FF015009EE7C7
:102E100051F82330FFDE00BF000300500400AD0B6B
:102E20000000AD0B38B545682B69B3B110352846A5
:102E300001F04AFB044680B90146284601F00CFB2C
:102E4000084B98420BD108492246284601F0E4FA83
:102E5000224605210620FFF7C9F8002038BD6FF093
:102E60000400FBE70000AD0B6D2E0000420970B5B9
:102E7000034602D0012A17D070BD0D4E3269516849
:102E80000029F9D003F01F0301250C689D4000299B
:102E9000F2D08A682A4002D04B68304698472CB15D
:102EA000236821461C46F2E7024EE7E72346F8E78F
:102EB000CC7B0000B87B00002DE9F043466840F26F
:102EC0000635D006337B87B002EA050554BFC2F34E
:102ED0004010032001F01F07B5F5837F144647EA31
:102EE00043178DF8030044D00FD8062D18D007D80B
:102EF000B5B1022D3FD06FF0150007B0BDE8F083EB
:102F0000B5F5807FF7D101250AE040F20222954213
:102F100033D0B5F5407F32D0B5F5007FEBD1022537
:102F200022032ED5726801238B40C2F8083532691E
:102F300092BB07F01F037F092BD0012F79D13F4AA5
:102F400002EB830284F48033D2F80017C3F300430A
:102F5000C4F3404444EA430421F4E16144EA8004B8
:102F600021F0070144EA05230B43C2F80037002093
:102F7000C3E70725D4E70425D2E70525D0E70325D5
:102F8000CEE7630341BF012372688B40C2F80C3562
:102F9000CDE74FF0A042D3E710360DF102023946DB
:102FA000304601F03FFA14F4403F80460CD13946D8
:102FB000304604F055FD224B9845D8D19DF80210BB
:102FC000304601F08BFAD2E701AB4FF0000903AABB
:102FD00039463046CDE90439CDE90199CDF80C9058
:102FE00001F0E2F8164B984285D114F4003315D065
:102FF0009DF803308DF80E3084F48034C4F300441F
:103000004B4603AA394630468DF80C508DF80D40DA
:1030100001F084F90A4B9842CDD06CE7CDE9043336
:1030200003AA0DF1030339463046039301F0BCF8BF
:10303000F0E703F5E07352F82330FFDE00030050A1
:103040000000AD0B036803F01F025B09026004D0AF
:10305000012B034818BF002070474FF0A040704775
:10306000000300502DE9F04FDFF87081DFF8709118
:1030700085B01646824600EB8101514503D1002000
:1030800005B0BDE8F08FDAF80030D804C3F343226E
:1030900003F07F0400F19B807F2C4FEA134318F864
:1030A000027008BF4FF0FF34222B00F29380DFE85C
:1030B00003F012191F39223339919191913C689193
:1030C0009191919191919191919191919191916B16
:1030D0007376797C7F00C6F80C45621C6BD10AF1CF
:1030E000040ACAE7C6F81445631CF8D000256CE052
:1030F000C6F80845F1E7631CC6F80845EFD000257F
:1031000003A80394FFF79EFF039B4FF0010B0BFAFC
:1031100003F3C0F80C3511E0651CC6F80C45DED091
:103120000125EDE7C6F81045DEE7C6F80845002F93
:10313000DAD1601CD3D00025AB460627DAF8003080
:10314000019303F40052002A03A81CBF4FF0000BA8
:1031500001250394FFF776FF039A019B00EB8200A1
:10316000C3F3C114D0F800273B0243EA840343EAC7
:103170000B0302EA0902134343EA4503C0F8003790
:10318000ADE7C6F80C45D2E7C6F82445621CA6D0C8
:103190004FF0000B0125D1E7C6F828459DE7C6F89A
:1031A0003045F3E7C6F83445F0E7C6F83845EDE7B3
:1031B000C6F83C45EAE703A80394FFF743FF039BE7
:1031C000012505FA03F3C0F80835AB46B6E76FF002
:1031D000150055E76FF0850052E700BF7B870000C0
:1031E000F0F8FCFF074BD3F8082142B10020C3F8E8
:1031F0000801D3F80821D3F818350B7070474FF049
:10320000FF30704700200040024BD3F88004C3F821
:103210008004704700200040F8B50E4604F060FCC2
:103220001A4D78BB64240127BFF35B8F55E8003F3C
:10323000002B03D145E80072002AF7D1BFF35B8F62
:1032400007D04FF47A70013C04F026FC14F0FF0420
:10325000EAD10F4C0023C4F81C31D4F81C310123EF
:10326000A360C4F81C654FF47A76D4F81C3123B9F6
:10327000012004F075FB013EF7D10123E360002338
:103280002B60F8BD01232B60E3E700BFB00E0020E8
:1032900000200040F7B55C4A436805690024C2F885
:1032A00000451F68064601AA2146384604F034FA54
:1032B00000280FDB019B3A6819791868FFF7D2FEE6
:1032C000002807DB6B793669012B06D0032B03D06E
:1032D0006FF0850003B0F0BD1024AB79032BF7D15C
:1032E000EB79002BF4D1297911B10229F0D10E210B
:1032F0002B68B3F5164F68D02BD8B3F5165F66D0A0
:1033000014D8B3F5966F64D008D8B3F5967F63D020
:10331000B3F5167FDCD14FF41C3341E0B3F5166FE3
:103320005DD0B3F5965FD3D1384B39E0B3F5E14FBB
:1033300058D007D8B3F5615F56D0B3F5964FC7D1D3
:10334000334B2DE047F612229342C1D14FF40003D4
:1033500026E0B3F5613F4AD011D8B3F5963F48D087
:1033600008D84DF6C022934245D0B3F5614FAFD196
:10337000284B15E0B3F5E13FAAD1274B10E0B3F598
:10338000612F3BD007D8254A934239D0B3F5E12FBE
:103390009ED1234B04E0234A934299D14FF08053AE
:1033A000194A0C43C2F82435C2F86C4595E803006D
:1033B00086E8030004230020C2F80035C2F80801A3
:1033C000D2F808310123136084E7174BE8E7174B65
:1033D000E6E74FF49E23E3E74FF4A033E0E74FF432
:1033E0001D23DDE7124BDBE74FF46C13D8E7114BDD
:1033F000D6E7114BD4E74FF46503D1E70F4BCFE786
:103400004FF08063CCE700BF0020004000B0130005
:1034100000A04E0000F0EB0000E0D70190D00300C8
:1034200000705F0740420F0000509D0000502700D1
:1034300000F0750000B0AF0300903A0100D0BE0E5E
:1034400070B5012383400E4ABFF35B8FDC4352E823
:10345000001F01EA040542E80056002EF7D1BFF331
:103460005B8F4FF4803282400648C0F80823BFF3D8
:103470005F8FBFF36F8F0B4214BF0120002070BD20
:10348000B80E00200010014070B40E49D1E900349C
:10349000D01AC31844F1000422F07F46C1E9003479
:1034A000A6F50013B3F5400F09D2074B1B681A0AA3
:1034B0001B069C19054B42F10005C3E9004570BC91
:1034C00001F0CEBD28010020BC0E002030010020FC
:1034D00011B3BFF35B8F0123104A834052E800CF42
:1034E0004CEA030C42E800C10029F7D1BFF35B8F1F
:1034F0000B4A4FF480338340C2F80433094BBFF3C7
:103500005B8F1B68BFF35B8FC340DB0742BF064B7B
:103510004FF40032C3F80021704700BFB80E0020FE
:1035200000100140B40E002000E100E00D4B1868CF
:10353000010A0006BFF35F8F0B4BD3F80435181850
:1035400041F10001B3F5801F0AD2084BD3E90023F3
:10355000904271EB030303D210F1807041F100013E
:10356000704700BFBC0E0020001001403001002059
:103570002DE9F04F85B016461F469DF840A0044641
:10358000FFF75EFF0190FFF7D1FFB04271EB070339
:1035900054D23E4B301A67EB0101984271F10001A1
:1035A0004FD23B4B03EB0413D3E902239F4208BFE6
:1035B00096425ED037494FF4803804F1500508FA3E
:1035C00004F8AD00C1F848832046ADB204F0B7F866
:1035D00026F07F4B05F1804504F5A87305F5883585
:1035E000DC464FF003090293029A2CF07F4341F826
:1035F0002230C1F84483D1F80435274A6FF0020025
:10360000C01A604420F07F40904232D9286868B1E7
:10361000D1F804350393A3EB0B0020F07F40B0F505
:10362000000F26D9204604F08AF8039BBAF1000F58
:1036300007D109EB030C09F10109D5E7BAF1000F35
:1036400009D06FF0150520460199FFF741FF284684
:1036500005B0BDE8F08F0123104ABFF35B8FA34094
:1036600052E8000F184342E800010029F8D1BFF3E7
:103670005B8F07490E98230101EB0412C8500F9B82
:103680005360C2E902670025DDE700BF010080004A
:103690001801002000100140FDFF7F00B40E002043
:1036A0007FB51C4C1C4BC4F80833C4F848331B4B83
:1036B00000254FF0FF304FF0FF31C4F80855C3E943
:1036C00002014FF48033C4F80433154B02264FF443
:1036D00000320121C4F804631120C3F880212A4676
:1036E000FEF784FC1120FEF751FC0E4A0123A36073
:1036F000236013600C4B0D4A0093CDE90155002364
:103700002846FFF735FF3046FEF7DAFE284604B0BC
:1037100070BD00BF0010014003000F001801002021
:1037200000E100E0B80E002089340000FFFF7F00B8
:103730002DE9F7432F4CD4F8043399070BD5D4F86F
:10374000043143B12C4A0023C4F80431D4F80431C5
:10375000136801331360D4F80433DA032AD5BFF3B6
:103760005B8F264B53E8002F22F0010143E8001045
:103770000028F7D1BFF35B8FD30702D4D4F84031D0
:10378000C3B10025C4F84051D4F84031FFF7CEFE54
:103790004FF02003EFF3118283F31288BFF36F8F92
:1037A000174BD3E90267B042B94106D282F31188C0
:1037B000BFF36F8F03B0BDE8F0834FF0FF384FF0D9
:1037C000FF39C3E90289D3E900101D604FF480334B
:1037D000C4F84833C4F84051D4F8403182F311881A
:1037E000BFF36F8F0029E5D0009032463B46284654
:1037F0008847DFE700100140BC0E0020B40E002017
:103800001801002030B5431C124C85B005D084420D
:10381000A8BF0446012CB8BF0124FFF787FE0E4B5A
:103820000C4DD3E90013401AB0F5000F10D2221846
:10383000AA4228BF2A4652184FF0000007490091BB
:10384000CDE9010043F10003FFF792FE05B030BD62
:103850002A46F0E7FFFF7F0028010020893400009E
:1038600008B5FFF763FE024B1B68C01A08BD00BF16
:103870002801002010B5084C012363601120FEF7D9
:1038800093FB064BC4F80833C4F84833044B4FF499
:103890000032C3F8802110BD0010014003000F006A
:1038A00000E100E030B50C490C4D0B6802460024E5
:1038B00005EB0310D0F80808C0B218B904B10B60CA
:1038C000002007E00133072B4FF00104F0D90B6013
:1038D0006FF01B00136030BDC00E002000E00140FF
:1038E00030B5816885B0103921F00704054603F032
:1038F00077FC10220146684603F028FD0749102294
:10390000684603F018FD10236A462146284603F056
:1039100035FC003818BF012005B030BDD68100004D
:1039200030B50D46816887B0102302AA10390446CD
:1039300003F00FFC002802DA012007B030BD10228E
:1039400002A9204603F06CFF00283AD11E4910223C
:1039500002A803F0C9FC00280CBF012302232B702E
:10396000204603F049FF012301460DF107022046DE
:1039700003F0EFFB0028DFDB9DF8073003F00F02B8
:103980001B096A702B7101220DF10701204603F01B
:1039900047FF10B96B78042B03D901236B70002308
:1039A0002B71A268183A22F00702083AA91C204697
:1039B00003F049FF0028BFD1E91C204603F09CFF1B
:1039C000BBE70323CBE700BFD6810000F0B5354F3E
:1039D000460085B00546694657F8260003F092FF79
:1039E000044610B1FF2005B0F0BD013602A957F81A
:1039F000260003F087FF012837D12B482A464921AA
:103A000003F099FB294B02938DF80C409DF8006060
:103A10009DF80870264C00222078314603F0F2FE13
:103A200050B36078394603F0EDFE28B3A378042B39
:103A300003D09DF8031099421ED1E378042B03D0E4
:103A40009DF80B10994217D12379042B10D162797C
:103A5000022A1DD1174B18482A46492103F06BFB57
:103A60006079831E022BBED9BCE70028CED0B9E70F
:103A70009DF802109942EAD00132032A04F10604AB
:103A8000CAD10E482A46492103F055FB0120AAE776
:103A9000032A05D00A4B0B49042A08BF0B46DAE774
:103AA000094BD8E72C800000B48700000301030312
:103AB0004988000096870000FF87000023880000E7
:103AC0009B870000AD870000918700004FF0805376
:103AD000D3F83021082A06D1D3F83431052B02D887
:103AE000024AD05C70470020704700BF6188000028
:103AF000024AD2F80034002BFBD0704700E00140AE
:103B000010B54FF08053D3F83021082A4ED14FF032
:103B100080420021C2F80C11C2F81011C2F8381509
:103B200002F54042D3F80414C2F82015D3F8081463
:103B3000C2F82415D3F80C14C2F82815D3F81014C1
:103B4000C2F82C15D3F81414C2F83015D3F8181491
:103B5000C2F83415D3F81C14C2F84015D3F8201459
:103B6000C2F84415D3F82414C2F84815D3F8281421
:103B7000C2F84C15D3F82C14C2F85015D3F83014F1
:103B8000C2F85415D3F83414C2F86015D3F83814B9
:103B9000C2F86415D3F83C14C2F86815D3F8401481
:103BA000C2F86C15D3F84434C2F87035FFF78EFFB5
:103BB00018B1414B414AC3F88C26FFF787FF18B173
:103BC0003F4BFB22C3F81825FFF780FF70B14FF081
:103BD00080414FF08053D1F8E42ED3F8583222F0D0
:103BE0000F0203F00F031343C1F8E43EFFF76EFF2B
:103BF00020B1344B4FF40072C3F840264FF080538D
:103C0000D3F83031082B09D14FF08043D3F800248A
:103C1000D20744BF6FF00102C3F800242A4AD2F849
:103C2000883043F47003C2F88830BFF34F8FBFF37E
:103C30006F8F4FF08053D3F83021082A0ED1D3F87C
:103C40003431052B02D8214AD35C3BB14FF010230D
:103C5000D3F808224FF08043C3F858254FF01023C3
:103C6000D3F80022002A03DBD3F80432002B22DA37
:103C7000174901234FF01020C1F804351224FFF733
:103C800037FFC0F80042FFF733FFC0F80442FFF7E8
:103C90002FFF0023C1F80435FFF72AFFBFF34F8F32
:103CA00009490C4BCA6802F4E0621343CB60BFF3CE
:103CB0004F8F00BFFDE710BD00500040488103005A
:103CC00000F000400090024000ED00E05B88000042
:103CD00000E001400400FA0530B50468CCB1BFF340
:103CE0005B8FB4FA84F3C3F11F03DBB201229A4065
:103CF00024EA020250E8005FA54204D140E8002C0B
:103D0000BCF1000FF6D1BFF35B8FE6D102480B7018
:103D100030BD0248FCE700BF0000AD0B0200AD0B58
:103D200010B50368CB40DB0714D401238B40026835
:103D3000BFF35B8F43EA020150E8004F944204D185
:103D400040E8001CBCF1000FF6D1BFF35B8FEED151
:103D5000014810BD0148FCE70000AD0B0400AD0BAD
:103D6000F7B5044618B1012823D003B0F0BD4FF0D9
:103D700080430222C3F808230122DA60C3F8040159
:103D8000D3F80431064601238DF8073042F210754E
:103D90004FF08047D4B1012CE7D1D7F80C3403F4AD
:103DA0008033AEBB83B3012003F0DAFD013DF4D1D3
:103DB0002AE04FF080430022C3F808035860C3F89C
:103DC0000021D3F800310DF10706DCE7D7F81834ED
:103DD00003F480333EB9002BC7D0012003F0C0FDAF
:103DE000013DF3D1C1E7D7F8182402F00302326095
:103DF000002BBAD09DF80700012803D103F0B0FDD5
:103E0000013DC7D1012CB0D1054B00225A71ACE75E
:103E1000D7F80C2402F001023270002BEAD1F3E74C
:103E2000C40E0020044B1A7922B9012218609A802E
:103E30000248704702487047C40E00200000AD0BD6
:103E40000C00AD0B08B5074B1B682BB10020FEF72B
:103E5000BFF808B9FEF79AF84FF080430022C3F884
:103E6000182508BDC40E002010B510B1012843D09C
:103E700010BD4FF08043D3F81814D3F81824C803AA
:103E800021D502F00303012B04D013B10020FFF76A
:103E900067FF00234FF080420220C2F81835082245
:103EA0004FF4827303F180430021196002F18042D4
:103EB0001C6801241460154A12680AB34FF080434D
:103EC000C3F80403D4E7D3F81424D107E1D5D3F819
:103ED0001C249207DAD40D4A12681AB10222C3F8E0
:103EE0000423C5E7D3F80421002AFBD00022C3F83D
:103EF0000421D3F80431BBE700224FF48073D1E7EB
:103F00001A68002AFCD019601B68B1E7C40E0020B3
:103F100010B54FF08043D3F800216AB10022C3F8F6
:103F20000021D3F800210122C3F80823114B58794E
:103F300010B95A711B6898474FF08043D3F8042199
:103F400072B10022C3F80421D3F80421D3F8182455
:103F5000D3F81824920704D10122C3F818259A60D7
:103F600010BD0222C3F80823024BBDE810401B68B5
:103F700001201847C40E0020036803F01F025B09EC
:103F8000026004D0012B034818BF002070474FF097
:103F9000A040704700030050034A430900F01F008F
:103FA000D35C1844C0B270476788000070B50546FE
:103FB000FFF7F2FF0C4C08300E4634F81030DA05EB
:103FC00008D5C3F3432304EBC302284654F8333027
:103FD00052689847A3682BB1E26831462846BDE88D
:103FE0007040184770BD00BF2000002008B5FFF7E3
:103FF000D3FF034B083033F81000400B08BD00BF5F
:104000002000002008B5FFF7C7FF034B083033F846
:104010001000C0F3400008BD2000002008B5FFF7E5
:10402000BBFF034B083033F81000C0F3401008BD4D
:1040300020000020034611F0010010B5CCB20DD1D4
:10404000A207C4F3400012D5094AD2F820055860EF
:10405000C2F82005003818BF012008E04FF0A04149
:10406000D1F820251A60C1F82025002AE8D010BD1B
:104070000003005010B5FFF78FFF124A083032F8E6
:104080001030D9051CD5C3F3432123F4F85322F88B
:10409000103002F10E04002034F8023F13F4807F48
:1040A00003D0C3F3432399420AD001303028F3D11F
:1040B000002342F831300448BDE81040FFF730BE1D
:1040C00010BD00BF2000002098000020F0B505467C
:1040D00000200446012607468C420BD1114BD3F831
:1040E0007C2132B10022C3F87C21D3F87C3140F02E
:1040F0000040F0BDE3B29B0003F580729B0806FA16
:1041000003F31D420BD002F1804202F5C042D2F807
:1041100000C0BCF1000F02D01760126818430134D0
:10412000DAE700BF00600040F7B506460846FFF733
:1041300033FF194F00F108050C4637F81530DB073F
:1041400027D5304603F068FC2046FFF767FF40B1F3
:104150002046FFF74BFF316800F5A270002341F8BD
:1041600020302046FFF786FF002301A827F81530EE
:104170000194FFF701FF019B00EB8300074BD0F890
:104180000027134043F00203C0F80037044803B08F
:10419000F0BD0448FBE700BF20000020F0F8FCFF62
:1041A0000000AD0B0400AD0B2DE9FF411646804623
:1041B0000846FFF7F1FE0D463168044609B328466C
:1041C000FFF720FF18B12846FFF728FF10BB002398
:1041D000CDE900338DF80E308DF80F300DF10F0260
:1041E0000B4628460DF10E0103F0BEFB474A04F1D1
:1041F000080132F8113023F0020343F0010322F8E2
:104200001130736863B328461F785968FFF7FAFEC8
:1042100010B1D1B13E4826E03C4A04F1080032F822
:10422000103023F02003DB04DB0C22F8103061B1E6
:10423000032FEFD87168496891F800C0D8F80010D2
:10424000A7B90CF5A27C41F82C70304A04F10801A2
:1042500032F8113023F01C0343EA870322F81130AF
:10426000B3684BBB2B4804B0BDE8F08101EB8C0177
:1042700043EA4C33D1F810E52EF0030EC1F810E5F7
:10428000D8F8001001EB8C0E43F02003DEF8101577
:1042900022F8103021F44F3121F44071CEF810157E
:1042A0002902DEF8108501F47C5141EA074141EA18
:1042B0000801CEF81015C8E7D3E900672846FFF7D4
:1042C000D9FE002ECED0114DD5E90023964203D160
:1042D0009F4201D1002209E00F480DF10F01FFF7C5
:1042E000FBFC0C4B9842BED19DF80F2045F8326084
:1042F00005EBC20308345F6035F8143043EA42230B
:1043000043F4807325F81430ACE700BF2000002090
:104310000400AD0B0000AD0B980000202DE9F04328
:104320000C4685B08046204611461E46FFF734FEF7
:10433000054629B32046FFF765FE18B92046FFF76A
:104340006DFE18BB314F05F1080937F8193013F02D
:104350001C0F02D04B78012B18D001238DF80F30A1
:104360000023CDE900134A1C8B1C20460DF10F01E0
:1043700003F0FAFA37F8193043F0030327F819303D
:10438000002E41D02046FFF73DFE18B9204805B069
:10439000BDE8F08396F800C0D8F800301B4F0CF54C
:1043A000A272002143F8221005F1080237F812101A
:1043B00021F02001C904C90C27F8121075781DB32B
:1043C000D8F80000B67800EB8C002D04D0F810353A
:1043D00023F4991323F4F853C0F81035230203F49F
:1043E0007C5305F440353605D0F810E52B4306F430
:1043F000801641EA4C31334341F0200143EA0E0379
:1044000027F81210C0F810350248C0E7200000203D
:104410000400AD0B0000AD0B014BC3E90212704765
:104420002000002010B508461446FFF7F7FD50B1F4
:104430000846FFF7B1FD054B083033F8103004484B
:104440005B0B237010BD0348FCE700BF2000002079
:104450000000AD0B0400AD0B70B5184E96F880400F
:1044600005464CBB2146602206F1100002F06EFFAB
:104470002D68306F2146884212D10023C5F87C3167
:1044800045F30730D5F87C31FDF780FD4FF0004350
:10449000C5F804330A48012386F88030B36770BD3D
:1044A000CBB29B0003F580727C2B08BFAC5001F1AE
:1044B000010108BFAB58DEE70248F0E7200000200A
:1044C0000000AD0B0C00AD0B034B93F880000038DF
:1044D00018BF0120704700BF200000200148FFF7EF
:1044E0001FBC00BF940000200148FFF7F5BB00BFD0
:1044F0009400002073B5054608460C461646FFF7A3
:104500008DFD00B30846FFF77DFD0146D8B9204672
:10451000FFF76CFD04B2A40004F58072034628681E
:104520008150296882582144D1F8102542F00102B7
:10453000C1F810252EB12968012202FA03F3C1F84F
:10454000043302B070BD2046FFF726FD0F4B083044
:1045500033F81030C3F38203042B12D0052B12D092
:1045600001A80194FFF708FD019AD0F81035D34057
:1045700003F00103991C204602B0BDE8704003F02F
:104580003CBA0321F7E70221F5E700BF2000002035
:104590002DE9F04F694BDFF8B081D3F80403D8F868
:1045A0007010C0B289B040F00040FFF78FFD051ECB
:1045B0002FDAC24600235AF87C1F06A8CDE906333D
:1045C000FFF738FD5E4B01930DF118094FF0000B1A
:1045D000019A12F8013B0192DA0803F007031AF876
:1045E000022022FA03F3DA071CD409F10409BBF113
:1045F000000F14D0D8F870104FF00040FFF766FDA0
:10460000D8F87C1006A8FFF715FD0028DAD125F0B0
:1046100000450124002D79D109B0BDE8F08F4FF09D
:10462000010BD5E7474B5B440293D9F800100029F2
:10463000DBD0029B91FAA1F11C78B1FA81F141EA39
:1046400044142046FFF7A8FC0830059438F8107091
:10465000C808BB0819F80020039301F007010123E3
:1046600003FA01F122EA010209F8002005A8FFF788
:1046700083FC059A039B02F5E072C7F3820650F8AB
:1046800022205B073746C2F3014224D52046394633
:10469000D6B2FFF78BFC05A80594FFF76DFC059BD0
:1046A00003F5E07350F82330C3F301439E4207D172
:1046B0000021204603F0A1F93146204603F09DF980
:1046C00005A80594FFF758FC059B012202FA03F3A5
:1046D000C0F82035A9E7022A0CD10321204603F0B7
:1046E0008CF906F00503012BEAD139462046FFF785
:1046F0005DFCE5E702212046039203F07EF9032EDC
:10470000F3D0039A032ADBD1022EEDE795FAA5F345
:10471000B3FA83F304FA03F29B0003F1804303F539
:10472000C04325EA0205D3F81005D3F81015C0F3ED
:104730000520C1F30141FFF739FC6BE70060004041
:10474000778800007788000020000020044AD2F813
:104750000034DB07FBD50160BFF35F8F704700BFFC
:1047600000E001404FF080531A69B0FBF2F302FB06
:10477000130373B9084B0222C3F80425C3F80805D4
:10478000D3F80024D207FBD500220448C3F804253F
:1047900070470348704700BF00E001400000AD0BC8
:1047A0000A00AD0B10B5054C0123C4F80435FFF722
:1047B000CDFF0023C4F8043510BD00BF00E0014068
:1047C00070B5104D6C6B9CB14FF47A735C430A2347
:1047D000B4FBF3F40C4ED6F8003163B995F83930D8
:1047E0004BB90A2003F0BCF8013CF4D1074870BD76
:1047F0004CF25034EEE795F83930002BF6D10448EE
:10480000F5E700BFCC0E0020009002400700AD0B82
:104810000000AD0B094B10B500220124C3F8004580
:10482000C3F800211C6038B1FFF7CAFF044B98425F
:1048300003D1044B83F83840014810BD009002407A
:104840000000AD0BCC0E002070B500F06044B4F158
:10485000005F5DD184075BD12F4C94F83050012D5F
:1048600005D09D4256D194F83850002D52D02B4D92
:10487000022B0BBFC5F81025C5F80425C5F8140593
:10488000C5F808050CBFC5F81815C5F80C154FF08C
:10489000000684F8396026680CBF08250425BEB9D7
:1048A00094F838306BB11D4B05F1804505F5243582
:1048B0000022C3F8002101232B60BDE87040FFF700
:1048C0007FBF0120FFF7A6FF154B9842EBD170BDCB
:1048D000A66826B1E0606161E2611248F7E7A26173
:1048E0000E4A84F830300123A0602161C2F80061D3
:1048F000C2F8043394F8382002F0FF0012B9FFF731
:1049000089FFEAE705F1804505F524352B60E4E7EA
:104910000548DCE70548DAE7CC0E002000900240AD
:104920000700AD0B0000AD0B0A00AD0B0B00AD0B8B
:10493000084B9A685A621A699A629A69DA62DA6866
:104940009A6032B15A691A61DA699A610022DA60B2
:1049500070477047CC0E002000F01F0340090FD0B5
:10496000012810D10B4A02EB83020B4BD2F800074F
:10497000034043EA012343F00203C2F800377047C3
:104980004FF0A042EFE7002203F5E07352F8233026
:10499000FFDE00BF00030050F0F8FCFF10B50E4B27
:1049A0000238D3F83C26D3F83836072813D8DFE886
:1049B00000F0110F0D0B0A080604100EC871100C40
:1049C0008871100A48710A711A0ECA701A0C8A701E
:1049D0001A0A4A700B7010BD009002400238072876
:1049E0001FD8DFE800F02927251123211F04CB79E8
:1049F0001B068A7943EA02434A7943EA02230A7989
:104A000013430E4AC2F83C36CB781B068A7843EA39
:104A100002434A7843EA02230A781343074AC2F85A
:104A2000383670470023E4E70023E5E70023E6E794
:104A30000023EBE70023ECE70023EDE700900240C2
:104A40000268154BFF2A08BF4FF0FF32C3F8242538
:104A50004268FF2A08BF4FF0FF32C3F8282582685A
:104A6000FF2A08BF4FF0FF32C3F83025C268FF2A83
:104A700008BF4FF0FF32C3F834250269FF2A08BF90
:104A80004FF0FF32C3F838254269FF2A08BF4FF0C4
:104A9000FF32C3F83C257047009002400A4B0022C9
:104AA00083F83820094B01214FF08050C3F80813D8
:104AB0001961D0F83001082808BF5965C3F80025EE
:104AC000C3F80021704700BFCC0E002000900240C8
:104AD00030B5194D0FCD8DB006AC0FC495E803006D
:104AE00084E803001549D1F82435DBB20093D1F8EE
:104AF0002835DBB20193D1F83035DBB20293D1F81F
:104B00003435DBB20393D1F83835DBB20493D1F8F6
:104B10003C3506A8DBB20593FFF792FF0023C1F8EE
:104B2000003101230B60D1F80031002BFBD0684627
:104B3000FFF786FF0DB030BDC87D00000090024039
:104B400070B590F82930044613B190F82A204ABB7A
:104B50006068FF2860D0A268FF2A5DD0E268FF2A63
:104B60005AD02269FF2A57D0B3B90321FFF7F4FEC8
:104B7000A068FFF7F1FEE068FFF7EEFE2069FFF79F
:104B8000EBFE6069FF2801D0FFF7E6FEA069FF2871
:104B900002D00321FFF7E0FE94F82A3013B9201D5C
:104BA000FFF74EFF1D4E636A73631D4D94F8293065
:104BB00086F83A300123C5F80833FFF789FF2368E8
:104BC000C5F84035A37F617F227F9B0143EAC10383
:104BD0001343E27F43EAC213C5F84435D5F80026F3
:104BE00094F8203022F07F4222F0FF02134394F821
:104BF000212043EA026394F8222043EA426394F8B6
:104C0000232043EA0273C5F80036336813B1292024
:104C1000FDF7BCF9034870BD0348FCE7CC0E00204B
:104C2000009002400000AD0B0400AD0B38B50C4CF9
:104C300094F8305095B9C4E9001248B90023C4E98A
:104C400002330122074884F8302084F8383038BD18
:104C5000FFF776FF034B9842F9D1EFE70248F6E7FA
:104C6000CC0E00200000AD0B0C00AD0B2DE9F8437D
:104C7000DFF8A090074699F83000012888461446CE
:104C80003DD199F838301F4E6BB31F4D0123C5F845
:104C90000833FFF71DFFB8F1000F2BD14FF00008CC
:104CA00089F83980C5F80081BB787A781B0343EA1C
:104CB00002233A781343FA7843EA42333A7943EAD3
:104CC00082337A7943EAC233C5F83436FFF778FD88
:104CD000B0420CD0C5F800811CB178782146FFF7AE
:104CE0005DFE0A4804E0FFF795FDB042CDD10548CE
:104CF000BDE8F88378784146FFF770FECEE70448B8
:104D0000F6E700BF0700AD0B009002400000AD0BBE
:104D10000B00AD0BCC0E0020034B93F838300BB9D1
:104D2000FFF778BD01487047CC0E00200C00AD0B9A
:104D300008B5054B93F83030012B03D1FFF7AEFED9
:104D4000024808BD0248FCE7CC0E00200000AD0B75
:104D50000B00AD0B034B93F83000003818BF012057
:104D6000704700BFCC0E002038B511F0030539D1D3
:104D70001E4B1A68D2B193F83040012C34D11C4A32
:104D8000C2F81C150421C2F8200583F8395083F8B5
:104D90003010C2F80051C2F8044393F8383003F0E1
:104DA000FF00EBB9FFF736FD124818E0104CC4F8CD
:104DB0001C15C4F8200583F8392093F8383043B126
:104DC0000023C4F800310123E360BDE83840FFF759
:104DD000F7BC0120FFF71EFD074B9842F0D138BD0C
:104DE000D460E1E70548FAE70548F8E7CC0E002073
:104DF000009002400000AD0B0700AD0B0A00AD0BA8
:104E00000B00AD0B10B5224BD3F8002192B1214C11
:104E10000022C3F8002194F8381094F8302071B9BA
:104E20000121032A84F8381005D0042A05D0022A6B
:104E300000D1996010BD5960FCE7D960FAE7032AF8
:104E400019D0042A19D0022A04D1012384F8203071
:104E5000FFF76EFDA36813B9012384F8303094F88E
:104E6000393003F0FF0013B9D4E90031984700232B
:104E700084F82030DEE70223E8E7032284F82020CC
:104E8000D3F81C256262D3F8203584F82830E1E796
:104E900000900240CC0E0020104B70B553F820401B
:104EA000013053F82060A64200D870BDD4E9003527
:104EB00095B153B12846984738B10028B8BF404251
:104EC000EB68FF28A8BFFF201870EA68537843F00A
:104ED000010353700834E6E79847FBE7348000008D
:104EE00008B5094B012203201A70FFF7D5FF00F027
:104EF0001FF90420FFF7D0FFFBF76CFA034A137B7E
:104F000023F00103137308BD29100020380100208D
:104F100008B50348034A0021121A02F0DDFD08BD5E
:104F2000180100202C10002008B50020FFF7B4FF66
:104F3000184B83F30888184C636943F4007363616A
:104F40000025E02384F82230E57725766576A5767E
:104F500084F82050636A43F4E023636284F82350AA
:104F6000FCF772FFFDF7A2F84FF0FF33A362E36294
:104F7000FDF71CF9FDF7DAF802F092FD0120FFF7CA
:104F80008BFF0220FFF788FF04482B462A4629465C
:104F9000FDF772F83018002000ED00E0E14E00004F
:104FA00008B50648064A0749121A02F097FDBDE8FF
:104FB0000840054A0549064802F090BD000000205F
:104FC00018010020A888000000000000A888000048
:104FD00000000020034B1B680BB9FEF741BC00200A
:104FE000704700BF080F002010B50E4B1C689C4294
:104FF00004D1FFF7EFFF6FF0004010BDFFF7EAFFAD
:10500000002CF8D0D4E904321B1A62EBE072B3F141
:10501000004F72F10001EEDA002AACBF1846002002
:10502000EBE700BFA400002030B570B10B4B5B680C
:1050300098420AD0036843B1D3E90421D0E904457A
:10504000121941EB0501C3E90421D0E900321360D4
:105050005A600023C0E9003330BD00BFA400002027
:105060002DE9F84F4FF02003EFF3118783F31288F7
:10507000BFF36F8FDFF8B4902A4E2B4C3060D9F815
:1050800000004FF0000A484508BF00204FF0000B19
:10509000D4E9001E33683D4688B3D0E904874FEA5F
:1050A000E37C43457CEB070206DAB8EB030267EBCF
:1050B0000C07C0E9042722E018EB01014EEBE8736E
:1050C000C0E904ABC4E90013FFF7AEFF85F3118814
:1050D000BFF36F8F836898474FF02003EFF311857C
:1050E00083F31288BFF36F8F3368D9F80000A3EB06
:1050F000080348452F463360CAD1D4E9001E591829
:105100004EEBE373C4E9001300243460FFF76CFF37
:105110002146FEF777FB85F31188BFF36F8FBDE85B
:10512000F88F00BF080F0020B8010020A400002065
:10513000014801F018BF00BF7988000010B50A4C83
:1051400023681BB101232360002010BD00F048F844
:105150000028F7D00138062803D8044B53F8200064
:1051600010BD034810BD00BF0C0F00204C80000094
:10517000FE8FFFFFBFF34F8F0549064BCA6802F44D
:10518000E0621343CB60BFF34F8F00BFFDE700BF6A
:1051900000ED00E00400FA0510B40A4B0A490B4C7C
:1051A0004FF0FE32C3F800244968C3F80424C3F862
:1051B0000824C3F80C240023C4F800355DF8044B20
:1051C000084700BF00B00250AC00002000A0025011
:1051D000D0E90012014BC3E900127047AC00002077
:1051E00038B500F02FF820B1032400F063F8204612
:1051F00038BD00F031F898B900F0ACF898B90F4D0F
:10520000D5F828391B0EF02B08D1D5F8242A0C4BE1
:105210009A420AD0072400F017F8E6E70624FAE7D6
:105220000424204638BD0024F5E7012000F092F860
:1052300004460028F7D1C5F80C0AD8E700B00250A0
:105240000000E0200020704700207047014BC3F8A9
:10525000040A704700B0025010B5114800F048F839
:1052600000B110BD0F4800F043F80028F9D10E4CF2
:10527000204600F03DF80028F3D10C4B0C481C6090
:1052800000F036F801460028EBD100F02DF8044676
:1052900008B1204610BD00F03FF82046FAE700BFF5
:1052A000C4000020C0000020BC000020B40000208A
:1052B000B800002008B5084800F024F8074800F0BE
:1052C00021F8074800F01EF8064800F01BF8BDE87A
:1052D000084000F00BB800BFC4000020C000002050
:1052E000BC000020B800002000207047704700BFBD
:1052F00008B5034B02681B6810689847002008BD7A
:10530000DC00002008B5034B02685B681068984712
:10531000002008BDDC00002070B5094C094D206953
:10532000AB68984718B1084B08485B689847084A2B
:10533000EB68206900211160BDE87040184700BF8C
:10534000C8000020DC000020AC00002068800000C5
:10535000100F0020F8B51A4D1A4E0446B26828699D
:105360009047E8B9184F3B684CB1A3B1012B19D055
:10537000013B3B602869F36898470020F8BD43B9BA
:10538000124A0121C2F800151149D1F81029002A4A
:10539000FBD101333B60F368286998470020F8BDD2
:1053A0000C48F8BD0A4AD2F81039002BFBD1074A45
:1053B0006FF07E40C2F80035FFF748FF3B68D7E743
:1053C000C8000020DC000020100F002000A00250C8
:1053D00000B00250E98FFFFF10B5044650B163687A
:1053E00013F0685F05D0064A934202D00023236081
:1053F000626010BD034B04485B689847EFE700BF4D
:105400002C5F5CA9AC00002088800000C8B1436814
:105410000D4A934213D013F0685F0ED0012350E879
:10542000002F194640E8001C9CF0000FF7D1012A1C
:10543000F5D0BFF35F8F00207047044870470448E1
:1054400070476FF4E04070472C5F5CA9E98FFFFF65
:10545000EA8FFFFF80B14368094A93420AD013F0F4
:10546000685F05D0BFF35F8F002303601846704765
:1054700004487047044870476FF4E040704700BF2D
:105480002C5F5CA9E98FFFFFEA8FFFFF10B5044690
:1054900020B1044B63600022226010BD0248FFF778
:1054A0007BFEF6E73A00003AB080000030B10268B7
:1054B000034B04489A4208BF0020704702487047D7
:1054C000DD55AABB8208F0007108F00038B50D4622
:1054D0000446B0B1A0220021043002F020FB95B1B7
:1054E0000822294604F1640002F01FFB082205F19E
:1054F000200104F1840002F018FB044B236000201B
:1055000038BD0348FCE70348FAE700BFDD55AABBF6
:105510007108F0008308F0002DE9F74305460E46B8
:1055200099461146FFF7C2FF0446002840F08480E8
:10553000002E00F08580002900F08480B9F1200F52
:1055400040F0828005F14404082205F10408204659
:1055500002F0EBFA05F1240708223146404602F03A
:10556000E4FA06F120010822384602F0DEFA02A928
:105570004FF4807041F8049D02F0CBFA002865D109
:10558000334A4FF480731360012193600823314A3A
:1055900000F02EFB0121084605232F4A00F028FBCE
:1055A0000823424601211C2000F022FB08233A4632
:1055B0000121032000F01CFB2246082301210220C8
:1055C00000F016FB0823254A01211A2000F010FBE9
:1055D0000523234A01211B2000F00AFB0823214A4E
:1055E0000121142000F004FB08231F4A012115208B
:1055F00000F0FEFA082305F164020121162000F0F4
:10560000F7FA082305F184020121172000F0F0FACF
:105610000823164A01210B2000F0EAFA00F044FBAF
:105620000446019800F0D2FA114B002C18BF1C461A
:10563000A421284602F075FA204603B0BDE8F083A5
:105640000C4CF9E70C4CF7E70C4CF5E7084CEFE78E
:1056500090B00250148100008C810000D4800000C2
:10566000788100003881000058810000F48000003B
:105670008408F0007608F0008008F0008108F0004F
:105680000C4BC2691A60826943F8042C426943F8E2
:10569000082C026943F80C2CC26843F8102C82686D
:1056A00043F8142C426843F8182C026843F81C2C69
:1056B000704700BF5CB602500C4B1B68C3610C4BBB
:1056C0001B6883610B4B1B6843610B4B1B680361B9
:1056D0000A4B1B68C3600A4B1B688360094B1B683D
:1056E0004360094B1B680360704700BF5CB6025003
:1056F00058B6025054B6025050B602504CB6025042
:1057000048B6025044B6025040B6025030B102686A
:10571000034B04489A4208BF002070470248704774
:10572000DD55AABB0202F0000002F00038B50446C5
:1057300068B1051D7021284602F0F3F928462022A1
:10574000044902F0EAF9044B2360002038BD034805
:10575000FCE700BFA0810000DD55AABB0002F000FD
:105760002DE9F043284B04460E4615460FCB85B075
:105770006F4687E80F002DB94FF00009484605B085
:10578000BDE8F0832046FFF7C1FF81460028F5D130
:10579000231D0193636AA3BB236F8BB1C3F1400840
:1057A000A84528BFA84604F13000314618444246B7
:1057B00002F0B3F9236F434446442367A5EB080581
:1057C000226F402A06D104F13001384600F0AEFBCA
:1057D0000023236705F03F0835F03F0505D031462B
:1057E0002A46384600F0A2FB2E44B8F1000FC3D081
:1057F0004246314604F1300002F08FF9C4F870805F
:10580000BCE7DFF80890B9E7E07D00000C02F0008B
:105810002DE9FF41144B04460E460FCB6F4687E837
:105820000F002046FFF772FF8046B0B9CEB1636A21
:10583000251D01953BB901236362226F04F13001FC
:10584000384600F073FB2B46043E243453F8042BF7
:1058500012BAA34246F8042FF8D1404604B0BDE87E
:10586000F081DFF80880F8E7E07D00000502F00035
:10587000084B1B681B0EF02B08D1074B1A68074B0F
:105880009A4205D1064B00201860704705207047EA
:105890000620704728B9025024BA02500000E020C8
:1058A0000CBA0250002230B549001346023840F6C7
:1058B000FC7502F1A05404F52C44A400904202F1BE
:1058C0000102CABF236025605B181E2AF1D1044A79
:1058D00013600B445360034B034A1A6030BD00BF92
:1058E00078B0025084B0025020F80F0030B51E4B43
:1058F00085B01A46196800910099CC07FAD500F1D5
:10590000A05000F52C408000016813680193019BB2
:10591000D807FAD5154B164C1868164D1F302023A2
:1059200090FBF3F00138002810DA00230130400129
:1059300053B1A0F120014FF00042134204D10138CD
:1059400088424FEA5202F8D105B030BD1368039384
:10595000039BDB07FAD5431823602B680293029B55
:10596000002BE3D10138DEE7B4B00250ACB00250F6
:10597000E4B00250DCB00250F0B51D6885B001F013
:105980001F040DB91F2C25D1154D2E462F680197E8
:10599000019FFF07FAD500F1A05000F52C408000D0
:1059A000006835680395039DED07FAD50D4D00EBB2
:1059B000611028600C48006802901F2C18BFC94372
:1059C00002980FBF106001F01F0100FA01F1116091
:1059D0000021196010684300C00F136005B0F0BDCE
:1059E000B4B00250E4B00250DCB002500C4B18606E
:1059F0003F3020F03F008901403058609960D96005
:105A00001961596199611C330648196082B00268B6
:105A10000192019AD207FAD5196002B0704700BF0F
:105A200090B00250B4B0025038B5A0F12003B3F5E5
:105A3000426F05462CD88F2826D800F1470300F185
:105A40006604DB064FEA541400D0013464013F348D
:105A5000A409013411B1A1421AD30C46E3004FF45A
:105A60008050B0FBF3F0202828BF202002B1106046
:105A7000084B01221A602146FFF714FF28462146F1
:105A8000FFF7B4FF002038BD00F11F046409DDE713
:105A90000148F8E71CB802502221F000F0B5454B50
:105AA00089B01D461C680194019CE407FAD5424B5D
:105AB000DFF80CE1DFF80CC113449B0000241A68E6
:105AC0000B181E2B88BFC0F11E011F320B18520984
:105AD0005343B3F5806F82BF4FF48061B1FBF2F1A5
