:10C000000000000000000000000000000000000030
:10C010000000000000000000000000000000000020
:10C020000000000000000000000000000000000010
:10C030000000000000000000000000000000000000
:10C0400000000000000000000000000000000000F0
:10C0500000000000000000000000000000000000E0
:10C0600000000000000000000000000000000000D0
:10C0700000000000000000000000000000000000C0
:10C0800000000000000000000000000000000000B0
:10C0900000000000000000000000000000000000A0
:10C0A0000000000000000000000000000000000090
:10C0B0000000000000000000000000000000000080
:10C0C0000000000000000000000000000000000070
:10C0D0000000000000000000000000000000000060
:10C0E0000000000000000000000000000000000050
:10C0F0000000000000000000000000000000000040
:10C10000000000000000000000000000000000002F
:10C11000000000000000000000000000000000001F
:10C12000000000000000000000000000000000000F
:10C1300000000000000000000000000000000000FF
:10C1400000000000000000000000000000000000EF
:10C1500000000000000000000000000000000000DF
:10C1600000000000000000000000000000000000CF
:10C1700000000000000000000000000000000000BF
:10C1800000000000000000000000000000000000AF
:10C19000000000000000000000000000000000009F
:10C1A000000000000000000000000000000000008F
:10C1B000000000000000000000000000000000007F
:10C1C000000000000000000000000000000000006F
:10C1D000000000000000000000000000000000005F
:10C1E000000000000000000000000000000000004F
:10C1F000000000000000000000000000000000003F
:10C2000080150020C1CB00003F110100ADCB000024
:10C21000ADCB0000ADCB0000ADCB000000000000B6
:10C220000000000000000000000000005DCD0000E4
:10C23000ADCB000000000000F9CC0000ADCB000049
:10C2400011CF000011CF000011CF000011CF00006E
:10C2500011CF000011CF000011CF000011CF00005E
:10C2600011CF000011CF000011CF000011CF00004E
:10C2700011CF000011CF000011CF000011CF00003E
:10C2800011CF000011CF000011CF000011CF00002E
:10C2900011CF000011CF000011CF000011CF00001E
:10C2A00011CF000011CF000011CF000011CF00000E
:10C2B00011CF000011CF000011CF000011CF0000FE
:10C2C00011CF000011CF000011CF000011CF0000EE
:10C2D00011CF000011CF000011CF000011CF0000DE
:10C2E00011CF000011CF000011CF000011CF0000CE
:10C2F00011CF000011CF000011CF000011CF0000BE
:10C3000053B94AB9002908BF00281CBF4FF0FF31BC
:10C310004FF0FF3000F00CB8ADF1080C6DE904CE21
:10C3200000F008F8DDF804E0DDE9022304B070470E
:10C33000704700BF2DE9F04786468C460846089EA8
:10C34000154674461946002B40F0C2808542B2FA69
:10C3500082F245D94AB1C2F1200300FA02FC2EFA5A
:10C3600003F3954043EA0C0C94404FEA154EA8B2F3
:10C37000BCFBFEF8230C0EFB18CC08FB00F943EACB
:10C380000C43994528D9EB1808F1FF3704D2994599
:10C3900002D9A8F102072B44A3EB0903A4B2B3FB13
:10C3A000FEFC0EFB1C330CFB00F044EA0344A042ED
:10C3B00014D92C190CF1FF3304D2A04202D9ACF1EC
:10C3C00002032C44241A43EA07401EB1D440002340
:10C3D00034607360BDE8F0874746DDE76346F1E708
:10C3E00092BB431B01214FEA154EAFB2B3FBFEFCDB
:10C3F000200C0EFB1C330CFB07F840EA0343984566
:10C4000062D9EB180CF1FF3004D2984502D9ACF197
:10C4100002002B44A3EB0803A4B2B3FBFEFC0EFB0B
:10C420001C330CFB07F744EA0344A7424ED92C19EE
:10C430000CF1FF3304D2A74202D9ACF102032C4421
:10C44000E41B43EA0040C0E7C2F1200320FA03F1F5
:10C45000954090402EFA03F303434FEA154EAFB2D6
:10C46000B1FBFEFC0EFB1C10190C0CFB07F841EA9B
:10C470000041884504FA02F422D969180CF1FF3012
:10C4800004D2884502D9ACF102002944A1EB08018D
:10C490009BB2B1FBFEFC0EFB1C110CFB07F743EA41
:10C4A00001439F420ED9EB180CF1FF3104D29F4299
:10C4B00002D9ACF102012B44DB1B41EA004192E7B7
:10C4C0006046E3E76146F7E76046A3E76346B7E700
:10C4D000834206D916B9002108467BE7C6E900E089
:10C4E000F9E7B3FA83F78FB9834201D3724508D8CD
:10C4F000BEEB020460EB030301209C461EB9002141
:10C5000068E73846FAE7C6E9004CF8E7C7F1200CBF
:10C51000BB4022FA0CF41C432EFA0CF120FA0CF367
:10C52000B84001434FEA14490EFA07F5B3FBF9F896
:10C530001FFA84FE09FB18300B0C08FB0EFA43EAC5
:10C5400000439A4502FA07F240D9E31808F1FF3098
:10C5500004D29A4502D9A8F102002344A3EB0A03AE
:10C5600089B2B3FBF9F809FB183308FB0EFE41EA68
:10C5700003418E452CD9611808F1FF3304D28E4552
:10C5800002D9A8F10203214443EA0040A0FB02982B
:10C59000A1EB0E014145CE46434602D306D14D459F
:10C5A00004D2B9EB020E68EB04030138002EA6D0CA
:10C5B000B5EB0E0261EB030101FA0CFC22FA07F362
:10C5C0004CEA0303F940C6E9003198E74046C5E765
:10C5D0004346D9E708B50349034803F051FA002060
:10C5E00008BD00BF9C200100B0200100014B1B686A
:10C5F000184700BF00000020014B1860704700BFC3
:10C600000000002030B585B004460D461022002100
:10C61000684605F0FCF902238DF802302A46044BE7
:10C6200001932146684603F0D9FA05B030BD00BF3A
:10C63000EDC5000080B505460E461746984603F046
:10C64000B9F8034605F0ECF9DFF81890044649F80C
:10C650000030424630463946A84754F8090000F0F9
:10C660001DFB00BF080000002DE9F047058B0446C4
:10C670002807904611D4022905F0070540F0CD8027
:10C68000204604F07CFC78B10138218B042811D8B5
:10C69000DFE800F0C3106D85950001290CBF45F05F
:10C6A000100545F02005258388F31188BFF36F8FAF
:10C6B000BDE8F08701F0070AAA4500F0A680002730
:10C6C000B9463E46A368002B00F0BD8041F008014A
:10C6D000218388F31188BFF36F8FA168002900F0D0
:10C6E000BB800D68002900F0B780D1F80480334684
:10C6F00052462046C047002D76D02B6829461D465D
:10C70000F0E701F007035A1F012A1BD8002221F08D
:10C710000701062B276889B2C4E9002209D13B46EC
:10C7200003E0628B013262831B68002BF9D141F078
:10C7300002012183204604F022FC00287BD041F036
:10C74000200177E0042B0AD121F0070189B221836F
:10C75000204604F014FC10B141F020012183218B0C
:10C7600001F0070AAA4550D00027B946AAE7236975
:10C7700021F0070141F00601062DD3F80090218336
:10C780002DD1B9F1000F40D041F00801218388F389
:10C790001188BFF36F8F3A492046C84729E021F03E
:10C7A0000701236941F0040189B2042DD3F80490F4
:10C7B0002183E6D000273E464FF0040A82E721F0AD
:10C7C0000701236941F0050189B2052DD3F80890CE
:10C7D0002183D6D000273E464FF0050A72E7002796
:10C7E0003E464FF0060A6DE72B4687E7B9F1000F8A
:10C7F000D1D14FF02003EFF3118883F31288BFF3F8
:10C800006F8F238B23F008032383258BEA062ED515
:10C8100025F01003238305F007056669218B002EA0
:10C82000BFF66FAF00232768C4E9003321F007018A
:10C8300041F001012183218B01F0070AAA454FF045
:10C8400000097FF43FAF002F9BD041F00801218306
:10C8500088F31188BFF36F8F002FC7D03D6839462A
:10C8600033465246204604F0B6FB2F46F4E7AB06AB
:10C870007FF51AAF25F02003238305F00705FFE6B7
:10C880000310010001F076BC014B036000207047EB
:10C89000E81E010030BFFFF7FDBF00BF114B124A79
:10C8A0002DE9F041D518DFF84480013DB5FBF3F5E3
:10C8B0005D430F4B08EB0304013CB4FBF3F403FBB3
:10C8C00004540E1B07460B49304605F092F87019C8
:10C8D00042460021083E05F09AF83E6704F1080040
:10C8E000BDE8F0810100000000000000040000002D
:10C8F000040000004C1C0100044B996858698842F0
:10C9000003D003494FF080520A607047680300204B
:10C9100004ED00E070B5264B15469A6A12F0100F30
:10C920009A6A14BF1124102412F0080F9A6A18BFD3
:10C930001224920706460AD5586B9A6A140634D513
:10C9400019B19A6A22F080029A62132401E06FF012
:10C950001500174B9A6A12F0010F9A6A18BF142437
:10C9600012F0200F9A6A18BF1524D20602D49B6ACF
:10C970009B070AD50E4B5B68190506D5314600F0BA
:10C9800069FA10B180F309880224094B9A6A920669
:10C9900042BF5A6A22F400525A629A6A42F0FF0277
:10C9A0009A6200232B70204670BD6FF01500CCE713
:10C9B00000ED00E0134B9A6A12F0007F9A6A14BFF0
:10C9C0001E201D2012F0807F9A6A18BF1F2012F4CB
:10C9D000002F9A6A18BF212012F4802F9A6A18BF7C
:10C9E000222012F4003F9A6A18BF232012F4803FDD
:10C9F0009A6A6FEA02426FEA12429A6218BF2420D2
:10CA0000704700BF00ED00E010B5194B0246986A70
:10CA10009C6A10F4805F14BF1720162014F4006F76
:10CA20009C6A18BF1820A40509D5986B986A000461
:10CA300004D51AB19A6A22F400429A6219200C4B6A
:10CA40009A6A12F4806F9A6A18BF1A20D2050CD421
:10CA50009B6A13F4005F18BF1C20054A936A43F4D5
:10CA60007F43936200230B7010BD1B20F5E700BFCE
:10CA700000ED00E0F0B5484B5B688BB00446C3F3B3
:10CA80000803002585F31188BFF36F8F02F07F4004
:10CA9000B0F17F4F11D102F00C0008280DD0100723
:10CAA0004CBF0C4601250022033B8DF80720032BC9
:10CAB00005D8DFE803F0246367602C46F3E7002322
:10CAC0009DF80720CAB902AE04F12007206861680A
:10CAD000324603C20834BC421646F7D1099A002DEB
:10CAE00054D0C2F3080121B96FEA52226FEA422200
:10CAF000099202A9184604F01CFB0BB0F0BD264BAE
:10CB0000DA6A9107DBD4DA6A002AD8DBDA6A5200E3
:10CB1000D5D55A69A16942F480725A61BFF34F8F2B
:10CB2000BFF36F8F5A6931F8021C22F480725A6188
:10CB3000BFF34F8FBFF36F8F4DF6027291420AD051
:10CB40009A6AD2B24AB10DF1070201212046FFF7DD
:10CB5000E1FE0346B4E72368B2E79A6A12F47F4F16
:10CB600005D00DF107010120FFF74EFFF1E79B6AA9
:10CB7000B3F5803FA3D3FFF71DFFEAE70DF10702EE
:10CB80000021E3E70DF107010020EDE722F4FF7239
:10CB900022F00102ACE700BF00ED00E0024A536959
:10CBA00043F010035361704700ED00E0EFF308809D
:10CBB000EFF3098101B57246FFF75CFF01BD00BFCD
:10CBC000002080F31488BFF36F8FFFF75BFE002017
:10CBD0000D490860BFF34F8F0C4880F3088800F0C0
:10CBE0002BF8202080F3118809484FF40461401885
:10CBF00080F30988EFF314800221084380F314883E
:10CC0000BFF36F8F00F0EEF894ED00E08015002088
:10CC1000C00700200749D1F890200023C2F3072263
:10CC20001846934200DB7047C1F89830C1F8A00065
:10CC30000133F6E700ED00E008B572B6002383F398
:10CC40001388FFF7E7FF144B4FF0FF32C3F8802043
:10CC5000C3F88420C3F88820C3F88C20C3F8902040
:10CC6000C3F89420C3F89820C3F89C20C3F880210F
:10CC7000C3F88421C3F88821C3F88C21C3F890211C
:10CC8000C3F89421C3F89821C3F89C2162B6BFF37E
:10CC90004F8FBFF36F8F08BD00E100E0084B9B682A
:10CCA00083420BD1EFF3058343B1064B5A6842F040
:10CCB00080525A605A6A22F400425A6204F031BD2E
:10CCC0006803002000ED00E0094A93686FF00A0154
:10CCD0009967084958674B6843F080534B600023BD
:10CCE00083F31188BFF36F8F9368986F704700BF0D
:10CCF0006803002000ED00E015498A684FF030001D
:10CD00001044EFF3098C80E8F01F202080F3128894
:10CD1000BFF36F8F0F4F4FF000664A698A603E6025
:10CD20004FF07004141920680B4C2060506F0023E2
:10CD3000536780F3118804B5104600F009F9BDE887
:10CD4000044002F1300090E8F01F8CF3098870472E
:10CD50006803002004ED00E0080200201EF0040F2C
:10CD60000CBFEFF30880EFF30980816911F8021C12
:10CD70000229FFD001B504F0DEF901BD40B2002860
:10CD800007DB044A4109012300F01F00834042F8F9
:10CD90002130704700E100E0054B420900F01F0020
:10CDA00053F82220012303FA00F01040704700BF1F
:10CDB00000E100E040B20028A8BF00F1604001F1AE
:10CDC0000101B8BF064B4FEA4111ACBF00F561400D
:10CDD00000F00F00C9B2B4BF195480F800137047B7
:10CDE00014ED00E00B4A08B50B4B22F07F029A606D
:10CDF000BFF34F8FBFF36F8FD3F8882022F47002F8
:10CE0000C3F8882002F086F802F0DAFC00F074F82B
:10CE100002F0D2F800C2000000ED00E042F8203C31
:10CE2000009B42F81C3C0A49019B42F8183C029BBB
:10CE300042F8143C21F001014FF0807342F8043CA9
:10CE400042F8081C0023203A02654367704700BF80
:10CE500035C60000094A0346906870B113F1160FF9
:10CE6000006E05D0A0F140029A4205D8834203D259
:10CE7000814228BF002070470020704768030020CF
:10CE800008B514460A4A0B4B9060026F1A600D46B3
:10CE900000F05EF8204685F30988002163B681F32F
:10CEA0001188BFF36F8F00220023FFF7C3FB00BF81
:10CEB0006803002008020020014910220A60704720
:10CEC00010ED00E072B6404080F31188BFF36F8F21
:10CED000BFF34F8F30BF62B6BFF36F8F704700BF95
:10CEE00072B6494081F31188BFF34F8F20BF80F3A2
:10CEF000118862B6704700BF044800232021C21881
:10CF00000133302B82F80013F9D1704700E100E0C3
:10CF100001B5EFF30580A0F110004FEAC00004490D
:10CF2000014409C99847BDE801400249084700008B
:10CF3000CC1A0100F9C80000024B034A0348012142
:10CF400000F076B80000042000000020E81E010078
:10CF5000026E054B403A1A60044A4021C3E90112AF
:10CF60001846012100F06EB80C02002000000B15DD
:10CF7000084AC2F898000B6823F01F03034343F0EC
:10CF80001003C2F89C308B6843F00103C2F8A03054
:10CF9000704700BF00ED00E02DE9F043DFF860804E
:10CFA00085B00E461F4604464FF00009B14523DA0E
:10CFB0006068D8B13FB1411E08421BD11F2819D962
:10CFC0002368194216D12368019304F0C3F8A368BB
:10CFD00003430393D8F89050C5F30725D0B2013D21
:10CFE000A84207D801A9FFF7C3FF421C09F10109B4
:10CFF0000C34DBE76FF01502104605B0BDE8F08396
:10D0000000ED00E0044B0522C3F89420BFF34F8FDE
:10D01000BFF36F8F704700BF00ED00E0BFF35F8F7D
:10D02000024B0022C3F89420704700BF00ED00E0DF
:10D0300010B5034C01232278FFF7AEFF207010BD1E
:10D040009803002008B50B4A00231278FFF7A4FFCD
:10D0500010F1160F07D0084A0021D2F89030C3F320
:10D060000723984200DB08BDC2F89800C2F8A01060
:10D070000130F2E79803002000ED00E02DE9FF41C8
:10D080004B4B4C4DD3F890302C68C3F307239C4294
:10D0900000F28A80FFF7C2FF00200C2684420FD1E5
:10D0A000454D464F2C706846FFF7EEFBDFF80081D8
:10D0B00006460024A6420AD1FFF7A4FF00201CE088
:10D0C000696806FB0011FFF753FF0130E6E700989F
:10D0D00000EB04114FEA041CCB683B40B3F5000F92
:10D0E00050D00DD8B3F5001F36D0B3F5800F3ED029
:10D0F000B3F5801F13D06FF0150004B0BDE8F081C8
:10D10000B3F1807F47D0B3F1007FF4D150F80C30F9
:10D1100088684A6804F01EF840F4802009E050F85E
:10D120000C3088684A6804F015F840F0885040F4E4
:10D130003020CDE901230390D8F890302878C3F34C
:10D140000723013B9842D6D801A9FFF711FF2B789E
:10D1500001332B700134ADE750F80C3088684A6811
:10D1600003F0F8FF40F0885040F40020E1E750F869
:10D170000C3088684A6803F0EDFF40F0E06040F44E
:10D180000030D6E750F80C3088684A6803F0E2FFB8
:10D1900040F08270CDE750F80C3088684A6803F0A0
:10D1A000D9FF40F08870C4E74FF0FF30A5E700BF1B
:10D1B00000ED00E0F41E0100980300200000F0FFE5
:10D1C00008B5024B1B689847002008BD18020020D4
:10D1D000034B044A1860937843F00203937070473E
:10D1E000180200200400002008B50649064821F076
:10D1F0000701C1F1005202F5802203F083FE0020F6
:10D2000008BD00BFC71500201C0200200E4A0123E4
:10D21000C2F840354FF080424FF08051C2F8783567
:10D22000D1F83001082808D1D1F83411052904D8E3
:10D230000648415C09B1C2F838364FF080430122FC
:10D24000C3F880250020704700E00140D020010095
:10D2500020B1034B800143F001031847704700BF22
:10D26000501C0100084B70B5C31A0D4607499B10AE
:10D27000044659430648402203F09DFF2B460146D1
:10D280002046BDE8704018473C020020B76DDBB671
:10D290007C1A010073B50C4C0C4A4023041B00930C
:10D2A0000D460B460A49A41061430646094803F09F
:10D2B000AFFF011E05DA30462B4602B0BDE87040D4
:10D2C000184702B070BD00BF3C0200207D12010073
:10D2D000B76DDBB67C1A0100002270B5012104464F
:10D2E0001046FFF767FD0F4801F0CEF80E4B98424D
:10D2F00015D101F0D9F826690C49304603F08FFEAC
:10D3000000280BDB012535642469084904F11C0061
:10D3100003F085FE002801DBE564002070BD6FF09E
:10D320000400FBE765D300000000AD0B181F0100EF
:10D3300070B501460C2309484B43C418D4E90E5676
:10D34000403300221844A26303F022FF2DB132467D
:10D350002B460348BDE87040184770BD3C020020D2
:10D360007C1A010010B1012804D07047034B1B6CDC
:10D370005B0701D1FFF7DCBF704700BF3C02002014
:10D3800008B54FF02003EFF3118183F31288BFF348
:10D390006F8F124A136843F002001060DA0708D456
:10D3A00081F31188BFF36F8F0120BDE8084001F0C1
:10D3B0008DB84FF08043D3F80C24D3F80C34DB073E
:10D3C000EED5074803F0E4FE81F31188BFF36F8FB9
:10D3D0000020BDE80840FFF7ABBF00BF8C02002073
:10D3E0007C0200201FB500220123CDE90223094A57
:10D3F000CDF800D06B46CDF804D003F038FF0028FC
:10D4000005DB4FF480420023684601F0F3FE05B0CF
:10D410005DF804FB9B12010010B54FF02003EFF301
:10D42000118483F31288BFF36F8F074A136823F0C8
:10D430000201DB07116002D4012004F01EF884F31E
:10D440001188BFF36F8F10BD8C0200202DE9F041D1
:10D450003849BFF35B8F0746012251E8003F41E89E
:10D4600000200028F9D1BFF35B8F33B9324933482C
:10D470004B60CB608A6003F0E5FD7B1E012B2BD84F
:10D48000012F07D14FF08043D3F81C3403F003037E
:10D49000012B21D004F076F80546F8B9284B1B780B
:10D4A000E3B14FF080430222C3F808230646DFF8B9
:10D4B00094804FF08044D4F81824D4F81834D20360
:10D4C00016D503F00303012B01D0012F10D15DB35A
:10D4D00086F31188BFF36F8FBDE8F0814FF0200312
:10D4E000EFF3118683F31288BFF36F8F0125DEE718
:10D4F000ADB13046FFF7F4FCD4F81835002BDAD183
:10D50000D4F80421002AD6D0C4F80431D4F8043168
:10D510000123C4F81835C8F88031A360CBE7002197
:10D52000212002F029F9E7E74FF080430222C3F8F7
:10D530000423D1E7380200202802002058020020EE
:10D54000AB07002000E100E008B5074803F0FFFF4B
:10D5500038B10648FFF73CFE0448FFF74DF80020BD
:10D5600008BD6FF01200FBE7B81A010071D500008A
:10D570000A2838B5074D044604D1AB680D215B6815
:10D5800028469847AB6803485B68E1B29847204655
:10D5900038BD00BFB81A010030B54068057B01F006
:10D5A0001F04B2F5001F85B044EA451405D120469A
:10D5B00003F0BFFF002005B030BD0025B2F5800F9D
:10D5C000CDE9025514D1B3F1007F0CBF042305232C
:10D5D0008DF808300023194602AA204601F03EF9D2
:10D5E000234B98423DD10121204601F0D7FAE1E7D3
:10D5F000B3F1C06F27D0B3F1007F14BF0123022322
:10D600008DF80830836823FA01F111F00101E1D1AE
:10D61000B2F1A07FDED104F01F03620903F5E073CD
:10D6200013D0012A20D1134A52F82330DB07D1D47A
:10D630000DF107052946204601F046FA0E4B9842A7
:10D6400006D00395C6E70323DAE74FF0A042EBE7E5
:10D65000284601F09DFA064B9842F2D06FF00B007D
:10D66000A9E76FF01500A6E751F82330FFDE00BFF1
:10D670000000AD0B000300500400AD0B10B501F02D
:10D6800077FA044668B901F037FA084B98420AD194
:10D690000748214601F012FA224605210620FFF72D
:10D6A00089FB002010BD6FF00400FBE70000AD0B0C
:10D6B000B5D60000420970B5034602D0012A17D042
:10D6C00070BD0D4E326951680029F9D003F01F0377
:10D6D00001250C689D400029F2D08A682A4002D0BA
:10D6E0004B68304698472CB1236821461C46F2E728
:10D6F000024EE7E72346F8E7A41A0100901A01005A
:10D700002DE9FF4147683B7B01F01F0545EA4315C2
:10D710000E4628460DF10701144601F0D5F914F420
:10D72000403F80460DD1284603F001FF3D4B984510
:10D7300003D19DF8070001F025FA002004B0BDE8F0
:10D74000F0810023194602AA2846CDE9023301F0F0
:10D7500085F8344B984214D1804503D19DF80700D9
:10D7600001F010FAA3034ED540F206332340B3F57F
:10D77000837F1AD00DD8062B18D005D8B3B1022B51
:10D7800033D06FF01500D9E7B3F5807FF9D10123CD
:10D790000CE040F20222934229D0B3F5407F28D01A
:10D7A000B3F5007FEDD1022300E007238DF80830A8
:10D7B00084F48033C3F30043E0068DF8093054BF8E
:10D7C000C4F34013032321038DF80A3013D57A687C
:10D7D0000123B340C2F80835002202A9284601F00F
:10D7E000F5F8104B9842A8D0CBE70423DEE70523D9
:10D7F000DCE70323DAE7620341BF01237A68B34021
:10D80000C2F80C35E8E7E3064FF0000354BFC4F359
:10D81000401403241A4602A928468DF8084001F056
:10D820001DF8DEE70000AD0B036803F01F025B0983
:10D83000026004D0012B034818BF002070474FF04E
:10D84000A0407047000300502DE9F04FDFF89881A9
:10D85000DFF8989185B01546824600EB810151456D
:10D8600003D1002005B0BDE8F08FDAF80030D8040D
:10D87000C3F3432203F07F0400F1AF807F2C4FEA13
:10D88000134318F8027008BF4FF0FF34222B00F248
:10D89000A780DFE803F0122228432B3243A5A5A579
:10D8A000A54672A5A5A5A5A5A5A5A5A57580838650
:10D8B000A5A5A5899194979A9D00C5F80C45601C73
:10D8C00018D003A80394FFF7AFFF039B012606FAC5
:10D8D00003F3C0F80835B3462CE0C5F81445631CC3
:10D8E00008D00026F7E7C5F80845E8E7621CC5F848
:10D8F000084570D10AF1040AB1E7631CC5F80C456C
:10D90000F8D0012603A80394FFF78EFF039B4FF086
:10D91000010B0BFA03F3C0F80C350BE0C5F810450A
:10D92000DDE7C5F80845002FD9D1671CE2D00026F5
:10D93000B3460627DAF80030019303F40052002AB8
:10D9400003A81CBF4FF0000B01260394FFF76CFFE8
:10D95000039A019B00EB8200C3F3C114D0F80027A7
:10D960003B0243EA840343EA0B0302EA090213433E
:10D9700043EA4603C0F80037BCE7C5F80C45D2E7D8
:10D98000C5F86045661CDAF80030B3D0C3F38033C5
:10D99000002BB6D095E7C5F86445F3E7C5F86845B0
:10D9A000F0E7C5F86C45EDE7C5F82445621CA1D049
:10D9B0004FF0000B0126BDE7C5F828457FE7C5F805
:10D9C0003045F3E7C5F83445F0E7C5F83845EDE7ED
:10D9D000C5F83C45EAE7002694E76FF0150041E7FB
:10D9E0006FF085003EE700BF01210100F0F8FCFF69
:10D9F000F0B54B79012B26D0032B21D110258B7943
:10DA0000032B1DD1CE790EB1012E19D10A7912B195
:10DA1000022A15D10E220B684468B3F5164F276809
:10DA200067D02DD8B3F5165F66D016D8B3F5966FCC
:10DA300064D00AD8B3F5967F63D0B3F5167F63D070
:10DA40006FF0850054E00025D9E7B3F5166F5ED07E
:10DA5000B3F5965FF4D1384B3CE0B3F5E14F59D0C4
:10DA600007D8B3F5615F57D0B3F5964FE8D1334B84
:10DA700030E047F61224A342E2D14FF4000329E03C
:10DA8000B3F5613F4AD013D8B3F5963F49D009D8D2
:10DA90004DF6C024A34246D0B3F5614FD0D14FF428
:10DAA0006B0317E0B3F5E13FCAD14FF0EB7311E020
:10DAB000B3F5612F3AD008D8214CA34239D0B3F541
:10DAC000E12FBDD14FF0E86304E01E4CA342B7D173
:10DAD0004FF080530469C7F82435436835431B6809
:10DAE0002A43C3F86C2503C9231D83E803000020E3
:10DAF000F0BD4FF41D03EDE7134BEBE74FF49E230E
:10DB0000E8E74FF4A033E5E74FF41C33E2E74FF4C6
:10DB10001D23DFE70D4BDDE70D4BDBE74FF06C73AB
:10DB2000D8E70C4BD6E74FF46503D3E74FF07063AB
:10DB3000D0E74FF08063CDE700B0130000A04E00A7
:10DB400090D0030040420F000050270000C0750035
:10DB500000F03A0000903A012DE9F7438046002298
:10DB600001210220FFF726F90220FFF707F9D8F874
:10DB70000470D8F810603C680021C4F80015C6F89D
:10DB80000080D7F80C9001AA484603F0DEFB051E82
:10DB90004CDB019BD9F8002019791868FFF754FE77
:10DBA000051E43DB311D4046FFF722FF05460028D6
:10DBB0003CD17B68990712D506F1180001F01AF9DB
:10DBC0001E4B984236D1307E04F10C0204F5907160
:10DBD00003F049FC337E0120984000F0EDFB082360
:10DBE000C4F800353B7A53B9C4F81031D4F8103179
:10DBF0007369C4F834350123C4F8383523607B6871
:10DC00009A075CBF4FF48073C4F804337B68DB066B
:10DC100044BF4FF48003C4F804333369C4F8443577
:10DC20000023C4F848350123A360E360284603B00D
:10DC3000BDE8F0836FF00405F8E700BF0000AD0B0E
:10DC4000F8B5044607690D4603F09CFCB0B92E4BAD
:10DC50001B789BB16426606803F0ADFB00BB01201C
:10DC600003F0FFFB013EF6D10021212001F084FDED
:10DC7000F0E786F31188BFF36F8FF5E74FF02003CD
:10DC8000EFF3118683F31288BFF36F8F606831461C
:10DC900003F091FB90B986F31188BFF36F8FEDE726
:10DCA0004FF02003EFF3118683F31288BFF36F8FD9
:10DCB0006068314603F07FFB0028DAD03B691D70B5
:10DCC000626838691368C3F844050120C3F8480541
:10DCD0000020C3F82001D3F82051C3F8580152683E
:10DCE000D3F85801D20608D5626812680820C2F835
:10DCF00000054FF48002C3F8042301229A6081F3E7
:10DD00001188BFF36F8FF8BDAB07002070B50123FA
:10DD100083400E4ABFF35B8FDC4352E8001F01EAE9
:10DD2000040542E80056002EF7D1BFF35B8F4FF495
:10DD3000803282400648C0F80823BFF35F8FBFF3EC
:10DD40006F8F0B4214BF0120002070BDAC02002079
:10DD50000010014070B40E49D1E90034D01AC31844
:10DD600044F1000422F07F46C1E90034A6F5001317
:10DD7000B3F5400F09D2074B1B681A0A1B069C1902
:10DD8000054B42F10005C3E9004570BC01F0EEBD52
:10DD9000D8000020B0020020E000002011B3BFF343
:10DDA0005B8F0123104A834052E800CF4CEA030CFA
:10DDB00042E800C10029F7D1BFF35B8F0B4A4FF453
:10DDC00080338340C2F80433094BBFF35B8F1B6879
:10DDD000BFF35B8FC340DB0742BF064B4FF40032FB
:10DDE000C3F80021704700BFAC02002000100140C2
:10DDF000A802002000E100E00D4B1868010A0006AF
:10DE0000BFF35F8F0B4BD3F80435181841F10001B5
:10DE1000B3F5801F0AD2084BD3E90023904271EB7F
:10DE2000030303D210F1807041F10001704700BF7D
:10DE3000B002002000100140E00000202DE9F04F6A
:10DE400085B016461F469DF840A00446FFF75EFFCA
:10DE50000190FFF7D1FFB04271EB070354D23E4B64
:10DE6000301A67EB0101984271F100014FD23B4B30
:10DE700003EB0413D3E902239F4208BF96425ED00E
:10DE800037494FF4803804F1500508FA04F8AD0022
:10DE9000C1F848832046ADB203F0D6FA26F07F4B96
:10DEA00005F1804504F5A87305F58835DC464FF08B
:10DEB00003090293029A2CF07F4341F82230C1F803
:10DEC0004483D1F80435274A6FF00200C01A604439
:10DED00020F07F40904232D9286868B1D1F80435EB
:10DEE0000393A3EB0B0020F07F40B0F5000F26D981
:10DEF000204603F0A9FA039BBAF1000F07D109EB02
:10DF0000030C09F10109D5E7BAF1000F09D06FF050
:10DF1000150520460199FFF741FF284605B0BDE8E9
:10DF2000F08F0123104ABFF35B8FA34052E8000F2C
:10DF3000184342E800010029F8D1BFF35B8F07497D
:10DF40000E98230101EB0412C8500F9B5360C2E9E5
:10DF500002670025DDE700BF01008000C800002047
:10DF600000100140FDFF7F00A80200207FB51C4C7F
:10DF70001C4BC4F80833C4F848331B4B00254FF042
:10DF8000FF304FF0FF31C4F80855C3E902014FF4E8
:10DF90008033C4F80433154B02264FF400320121BC
:10DFA000C4F804631120C3F880212A46FEF702FF5B
:10DFB0001120FEF7E3FE0E4A0123A36023601360E5
:10DFC0000C4B0D4A0093CDE9015500232846FFF77D
:10DFD00035FF3046FFF73AFA284604B070BD00BF5F
:10DFE0000010014003000F00C800002000E100E025
:10DFF000AC02002055DD0000FFFF7F002DE9F74354
:10E000002F4CD4F8043399070BD5D4F8043143B11D
:10E010002C4A0023C4F80431D4F8043113680133C6
:10E020001360D4F80433DA032AD5BFF35B8F264B91
:10E0300053E8002F22F0010143E800100028F7D137
:10E04000BFF35B8FD30702D4D4F84031C3B10025AE
:10E05000C4F84051D4F84031FFF7CEFE4FF0200312
:10E06000EFF3118283F31288BFF36F8F174BD3E95D
:10E070000267B042B94106D282F31188BFF36F8FB5
:10E0800003B0BDE8F0834FF0FF384FF0FF39C3E92C
:10E090000289D3E900101D604FF48033C4F848337F
:10E0A000C4F84051D4F8403182F31188BFF36F8F28
:10E0B0000029E5D0009032463B4628468847DFE7F6
:10E0C00000100140B0020020A8020020C80000207B
:10E0D00030B5431C124C85B005D08442A8BF04461D
:10E0E000012CB8BF0124FFF787FE0E4B0C4DD3E97E
:10E0F0000013401AB0F5000F10D22218AA4228BF10
:10E100002A4652184FF0000007490091CDE901005E
:10E1100043F10003FFF792FE05B030BD2A46F0E759
:10E12000FFFF7F00D800002055DD000008B5FFF795
:10E1300063FE024B1B68C01A08BD00BFD800002058
:10E140004FF08053D3F83021082A06D1D3F8343168
:10E15000052B02D8024AD05C70470020704700BFF0
:10E160001D210100024AD2F80034002BFBD0704779
:10E1700000E0014010B54FF08053D3F83021082A59
:10E180004ED14FF080420021C2F80C11C2F810119C
:10E19000C2F8381502F54042D3F80414C2F820152D
:10E1A000D3F80814C2F82415D3F80C14C2F82815B3
:10E1B000D3F81014C2F82C15D3F81414C2F8301583
:10E1C000D3F81814C2F83415D3F81C14C2F840154B
:10E1D000D3F82014C2F84415D3F82414C2F8481513
:10E1E000D3F82814C2F84C15D3F82C14C2F85015E3
:10E1F000D3F83014C2F85415D3F83414C2F86015AB
:10E20000D3F83814C2F86415D3F83C14C2F8681572
:10E21000D3F84014C2F86C15D3F84434C2F8703502
:10E22000FFF78EFF18B13A4B3A4AC3F88C26FFF736
:10E2300087FF18B1384BFB22C3F81825FFF780FF82
:10E2400070B14FF080414FF08053D1F8E42ED3F8F5
:10E25000583222F00F0203F00F031343C1F8E43EDB
:10E26000FFF76EFF20B12D4B4FF40072C3F840262C
:10E270004FF08053D3F83031082B1AD14FF0804340
:10E28000D3F80024D20744BF6FF00102C3F8002482
:10E290004FF08053D3F83431052B02D8204AD35C99
:10E2A0003BB14FF01023D3F808224FF08043C3F85E
:10E2B00058254FF01023D3F80022002A03DBD3F8AF
:10E2C0000432002B22DA174901234FF01020C1F845
:10E2D00004351224FFF746FFC0F80042FFF742FF63
:10E2E000C0F80442FFF73EFF0023C1F80435FFF7F2
:10E2F00039FFBFF34F8F0C490C4BCA6802F4E06240
:10E300001343CB60BFF34F8F00BFFDE710BD00BFCD
:10E31000005000404881030000F00040009002409F
:10E320001721010000E0014000ED00E00400FA05C3
:10E3300030B50468CCB1BFF35B8FB4FA84F3C3F19A
:10E340001F03DBB201229A4024EA020250E8005F78
:10E35000A54204D140E8002CBCF1000FF6D1BFF378
:10E360005B8FE6D102480B7030BD0248FCE700BF6E
:10E370000000AD0B0200AD0B10B50368CB40DB070E
:10E3800014D401238B400268BFF35B8F43EA020180
:10E3900050E8004F944204D140E8001CBCF1000F4B
:10E3A000F6D1BFF35B8FEED1014810BD0148FCE709
:10E3B0000000AD0B0400AD0B014BC3F80405704722
:10E3C00000F00140F7B5044618B1012823D003B08E
:10E3D000F0BD4FF080430222C3F808230122DA6027
:10E3E000C3F80401D3F80431064601238DF8073041
:10E3F00042F210754FF08047D4B1012CE7D1D7F825
:10E400000C3403F48033AEBB83B3012003F029F84E
:10E41000013DF4D12AE04FF080430022C3F8080305
:10E420005860C3F80021D3F800310DF10706DCE78E
:10E43000D7F8183403F480333EB9002BC7D001203D
:10E4400003F00FF8013DF3D1C1E7D7F8182402F02B
:10E4500003023260002BBAD09DF80700012803D1D7
:10E4600002F0FFFF013DC7D1012CB0D1054B0022C6
:10E470005A71ACE7D7F80C2402F001023270002B7D
:10E48000EAD1F3E7B4020020044B1A7922B9012241
:10E4900018609A800248704702487047B402002012
:10E4A0000000AD0B0C00AD0B08B5074B1B682BB182
:10E4B0000020FEF771FC08B9FEF760FC4FF08043C6
:10E4C0000022C3F8182508BDB402002010B510B111
:10E4D000012843D010BD4FF08043D3F81814D3F86F
:10E4E0001824C80321D502F00303012B04D013B173
:10E4F0000020FFF767FF00234FF080420220C2F8A0
:10E50000183508224FF4827303F18043002119600B
:10E5100002F180421C6801241460154A12680AB393
:10E520004FF08043C3F80403D4E7D3F81424D10791
:10E53000E1D5D3F81C249207DAD40D4A12681AB137
:10E540000222C3F80423C5E7D3F80421002AFBD034
:10E550000022C3F80421D3F80431BBE700224FF4B2
:10E560008073D1E71A68002AFCD019601B68B1E7F4
:10E57000B402002010B54FF08043D3F800216AB1F7
:10E580000022C3F80021D3F800210122C3F8082398
:10E59000114B587910B95A711B6898474FF0804356
:10E5A000D3F8042172B10022C3F80421D3F8042166
:10E5B000D3F81824D3F81824920704D10122C3F801
:10E5C00018259A6010BD0222C3F80823024BBDE84B
:10E5D00010401B6801201847B4020020036803F0B4
:10E5E0001F025B09026004D0012B034818BF002002
:10E5F00070474FF0A040704700030050034A4309A2
:10E6000000F01F00D35C1844C0B270472321010002
:10E6100070B50546FFF7F2FF0C4C08300E4634F893
:10E620001030DA0508D5C3F3432304EBC3022846B0
:10E6300054F8333052689847A3682BB1E2683146EA
:10E640002846BDE87040184770BD00BF300000206C
:10E6500010B5FFF7D3FF124A083032F81030D90551
:10E660001CD5C3F3432123F4F85322F8103002F1F0
:10E670000E04002034F8023F13F4807F03D0C3F36C
:10E68000432399420AD001303028F3D1002342F8C5
:10E6900031300448BDE81040FFF76EBE10BD00BF2A
:10E6A00030000020A800002008B5FFF7A7FF034BAB
:10E6B000083033F81000400B08BD00BF30000020C8
:10E6C00008B5FFF79BFF034B083033F81000C0F389
:10E6D000401008BD30000020034611F0010010B5C5
:10E6E000CCB20DD1A207C4F3400012D5094AD2F82A
:10E6F00020055860C2F82005003818BF012008E046
:10E700004FF0A041D1F820251A60C1F82025002A39
:10E71000E8D010BD00030050F0B5054600200446C7
:10E72000012607468C420BD1114BD3F87C2132B124
:10E730000022C3F87C21D3F87C3140F00040F0BDCA
:10E74000E3B29B0003F580729B0806FA03F31D42B7
:10E750000BD002F1804202F5C042D2F800C0BCF1F9
:10E76000000F02D01760126818430134DAE700BFC7
:10E770000060004008B5FFF741FF044B083033F854
:10E78000100080F00200C0F3400008BD30000020FF
:10E7900010B50446FFF794FFC0B12046FFF7EAFF2B
:10E7A000A0B12046FFF780FF0B4A01238340C2F847
:10E7B000083303B29B0003F1804303F5C043D3F851
:10E7C000102522F00302C3F8102510BD20460021B9
:10E7D000BDE8104002F09CBE0060004073B50446E6
:10E7E000FFF70CFF184E00F1080536F81530DB076F
:10E7F00027D52046FFF7CCFF2046FFF761FF40B149
:10E800002046FFF751FF114B00F5A270002243F89C
:10E8100020202046FFF71CFF002301A826F8153012
:10E820000194FFF7DBFE019B00EB8300084BD0F85F
:10E830000027134043F00203C0F80037054802B038
:10E8400070BD0548FBE700BF3000002000600040BD
:10E85000F0F8FCFF0000AD0B0400AD0B2DE9F04318
:10E8600085B0064615461F46FFF7C8FE044611B39D
:10E87000DFF8448100F1080938F819309B0703D507
:10E880003046FFF71DFF18BB0023CDE900338DF89C
:10E890000E308DF80F300DF10F020B4630460DF1A2
:10E8A0000E0102F0ECFD38F8193023F0020343F0BA
:10E8B000010328F8193055B33F4B95F800C06A683A
:10E8C00004F1080033F8101011F0020F02D0B2B1B9
:10E8D0003A481EE021F02001C904C90C23F81010A9
:10E8E0006AB1BCF1030FF3D86A6892F800E0BCF19A
:10E8F000000F11D1324A0EF5A27E42F82EC033F835
:10E90000102022F01C0242EA8C0223F810204FBB98
:10E910002C4805B0BDE8F0834FEA8E0202F1804238
:10E9200002F5C04241EA4E31D2F8105525F00305F8
:10E93000C2F81055D2F8105525F44F3525F440751E
:10E94000C2F810553502D2F8108505F47C5545EA19
:10E950000C4545EA080541F0200123F81010C2F8E3
:10E960001055CCE7D7E900873046FFF771FEB8F1C4
:10E97000000FCDD0104DD5E90023904503D19F4223
:10E9800001D1002209E010480DF10F01FFF7D0FC82
:10E990000C4B9842BDD19DF80F2045F8328005EB15
:10E9A000C20308345F6035F8143043EA422343F46D
:10E9B000807325F81430ABE7300000200400AD0B65
:10E9C000006000400000AD0BA80000202DE9FF41D1
:10E9D00004461646FFF712FE054629B32046FFF708
:10E9E000C9FE18B12046FFF76BFE18BB304F05F18A
:10E9F000080837F8183013F01C0F02D04B78012BA1
:10EA000018D001238DF80F300023CDE900134A1CE4
:10EA10008B1C20460DF10F0102F031FD37F8183044
:10EA200043F0030327F81830002E3ED02046FFF7AE
:10EA3000A1FE18B11F4804B0BDE8F08196F800C0EF
:10EA40001B4F6146890001F1804101F5C041C1F8C9
:10EA5000100505F1080037F8105025F02005ED04E9
:10EA6000ED0C27F810507278FAB1D1F81035B6785D
:10EA700023F4991323F4F853C1F810351204230238
:10EA8000D1F810E502F4403203F47C53134345EA15
:10EA90004C35320543EA0E0302F4801245F020059E
:10EAA000134327F81050C1F810350348C3E700BFDF
:10EAB000300000200400AD0B0000AD0B014BC3E99A
:10EAC000020170473000002010B50446FFF7F8FD42
:10EAD00050B12046FFF792FD044B083033F8103058
:10EAE00003485B0B0B7010BD0248FCE730000020B0
:10EAF0000000AD0B0400AD0B38B5194D95F8804002
:10EB000064BB2146602205F1100002F080FF286FEF
:10EB10002146884212D1134C0023C4F87C310620D0
:10EB2000D4F87C31FEF72AF94FF00043C4F80433DF
:10EB30000D48012385F88030AB6738BDCAB292001A
:10EB400002F580737C2A04BF03F1804303F5C043C0
:10EB500001F1010104BF1C601B68DAE70348ECE720
:10EB600030000020006000400000AD0B0500AD0B40
:10EB7000034B93F88000003818BF0120704700BF96
:10EB80003000002001460148FFF7F6BBA40000203A
:10EB900001460148FFF7CCBBA400002013B5044692
:10EBA000FFF78EFD08B32046FFF7E4FDE8B12046ED
:10EBB000FFF77AFD03B29B0003F1804202F5C242E7
:10EBC00003F1804303F5C043002414601268D3F8B6
:10EBD000102542F00102C3F8102521B1144A012387
:10EBE0008340C2F8043302B010BD2046FFF706FD93
:10EBF000104B083033F81030C3F38203042B12D0CB
:10EC0000052B12D001A80194FFF7E8FC019BD0F876
:10EC10001015D94001F001010231204602B0BDE8D3
:10EC2000104002F075BC0321F7E70221F5E700BFB1
:10EC300000600040300000202DE9F04F694BDFF804
:10EC4000A881D3F80403D8F87010C0B289B040F09E
:10EC50000040FFF761FD051E2FDAC24600235AF877
:10EC60007C1F06A8CDE90633FFF736FD5F4B019305
:10EC70000DF118094FF0000B019A12F8013B0192B7
:10EC8000DA0803F007031AF8022022FA03F3DA077E
:10EC90001CD409F10409BBF1000F14D0D8F870108E
:10ECA0004FF00040FFF738FDD8F87C1006A8FFF7BA
:10ECB00013FD0028DAD125F000450124002D79D17B
:10ECC00009B0BDE8F08F4FF0010BD5E7484B5B442E
:10ECD0000293D9F800100029DBD0029B91FAA1F130
:10ECE0001C78B1FA81F141EA44142046FFF786FC12
:10ECF0000830059438F81070C808BB0819F80020CF
:10ED0000039301F00701012303FA01F122EA010252
:10ED100009F8002005A8FFF761FC059A039B02F59E
:10ED2000E072C7F3820650F822205B073746C2F331
:10ED3000014224D520463946D6B2FFF769FC05A822
:10ED40000594FFF74BFC059B03F5E07350F8233067
:10ED5000C3F301439E4207D10021204602F0D8FBB5
:10ED60003146204602F0D4FB05A80594FFF736FC97
:10ED7000059B012202FA03F3C0F82035A9E7022A15
:10ED80000CD10321204602F0C3FB06F00503012B42
:10ED9000EAD139462046FFF73BFCE5E70221204651
:10EDA000039202F0B5FB032EF3D0039A032ADBD1C2
:10EDB000022EEDE795FAA5F3B3FA83F304FA03F212
:10EDC0009B0003F1804303F5C04325EA0205D3F815
:10EDD0001005D3F81015C0F30520C1F30141FFF76A
:10EDE00017FC6BE700600040300000203321010079
:10EDF0003321010001460148FFF79ABAB400002010
:10EE000008B5144BA8220021184602F000FE032288
:10EE1000026111494261114A8161C2614FF480620D
:10EE20000262002282624262C26201660C4941664D
:10EE30001021816603460267C2664267BFF35F8F97
:10EE4000084911F8010D98540132102AF9D1BFF385
:10EE50005F8F08BDBC02002035210100AB030020FC
:10EE60009B0300204E21010038B54FF02003EFF343
:10EE7000118583F31288BFF36F8F064B9C6802F0F5
:10EE80007AFB85F31188BFF36F8F2046BDE83840C9
:10EE9000FDF704BF68030020104B70B553F8204005
:10EEA000013053F82060A64200D870BDD4E9003587
:10EEB00095B153B12846984738B10028B8BF4042B1
:10EEC000EB68FF28A8BFFF201870EA68537843F06A
:10EED000010353700834E6E79847FBE7DC1F0100A5
:10EEE00008B50A4B012203201A70FFF7D5FF00F086
:10EEF000C1FD0420FFF7D0FF00F00CF9FDF76AFB1D
:10EF0000034A137B23F00103137308BDAB070020F2
:10EF10006801002008B50348034A0021121A02F0D4
:10EF20002DFB08BDC8000020B007002070B50023ED
:10EF300086B00122CDE90423194E1A4D01930F2208
:10EF4000CDE902321849142303FB005506EBC01625
:10EF500004464FF4C070154B00954FF4A07200FBAF
:10EF60000411304600F096F8737B114AEE6023F0EE
:10EF7000040373734FF4046304FB033313446B60A3
:10EF80000C4B2C74BFF35B8F53E8001F013143E837
:10EF90000012002AF8D1BFF35B8F06B070BD00BF2E
:10EFA000E8000020680300200010002091150100F7
:10EFB000C00700206403002080B50020A6B0FFF742
:10EFC0006BFF2D4B83F308882C4D2D4E6B692D4F15
:10EFD00043F400736B610024E02385F82230EC7762
:10EFE0002C766C76AC7685F820406B6A43F4E0238F
:10EFF0006B6285F82340FDF7D1FDFDF75DFF4FF013
:10F00000FF33AB62EB62FEF739F8FDF795FF40F294
:10F010000113ADF8243006ABB360CDE91E44219452
:10F0200002F094FA0120FFF737FF0220164DFFF798
:10F0300033FF00F017FB154B75610593012314494D
:10F040000094CDE903434FF480623B46CDE901448F
:10F05000284600F01FF86A7B064622F00402284684
:10F060006A7302F0DBFA2046FFF760FF3A4631464A
:10F070002846FDF705FF00BF0010002000ED00E06E
:10F0800068030020E1EE0000680100204F2101002C
:10F09000801100202DE9F04385B00732994600F138
:10F0A000580322F00706C0E91633109B037306F1DC
:10F0B00040050423002743730D440F9B8373884648
:10F0C000C0E9067729468760C7730446FDF7E6FB6B
:10F0D00008F140030730C4E9183620F007000E9B02
:10F0E000A06602930D9B01932D1A0C9B00932A4658
:10F0F0004B4641462046FDF791FE054B67659B68F0
:10F1000003B1DB6EE366284605B0BDE8F08300BFBF
:10F110006803002070B5224C224D86B02646AE42D0
:10F1200004F130040AD300F06DFA1D4C1E4EAC42BF
:10F1300020D306B0BDE8704000F078BA54F80C3C1B
:10F14000059354F8103C049354F8143C039354F87A
:10F15000183C029354F81C3C019354F8203C009353
:10F1600054E90A2354E90C01FFF794FF54F8303CAA
:10F170005E65D3E7D4E90A23B3F1FF3F08BFB2F1DC
:10F18000FF3F05D052EA0301206803D100F01CFACA
:10F190003034CCE73146183000F072FBF8E700BF9E
:10F1A0004C1C01004C1C0100B716010038B5044688
:10F1B0004FF02003EFF3118583F31288BFF36F8FB5
:10F1C00002F07DFA48B10022826702F027FA294650
:10F1D0000748BDE8384000F0E5B9D4E902329A4268
:10F1E00018BF0133A36085F31188BFF36F8F38BD5B
:10F1F000AC07002013B54FF02004EFF3118184F326
:10F200001288BFF36F8F846844B1013C846081F33E
:10F210001188BFF36F8F002002B010BD52EA0304C3
:10F2200006D181F31188BFF36F8F6FF00F00F3E702
:10F23000CDE900230246024800F096F9ECE700BF52
:10F24000AC070020C3897F2B12D80A4B1B6863B11F
:10F25000094B90F90E201B689A4209DB437BDB06C1
:10F2600006D1064BC31A18BF012303F001007047F3
:10F270000023FAE7900300208C030020E800002020
:10F28000044BC01A044BC0105843044B01221A54BB
:10F29000704700BFE8010020ABAAAAAAAC07002073
:10F2A00070B50E4B0E4C1E7C06EB460304EBC304FC
:10F2B0000546204602F056FA0A4B002228469A5587
:10F2C000FFF7C0FF48B1084B08491A68013A2046C9
:10F2D000D317BDE8704000F0D3BA70BD68030020BA
:10F2E000E8010020AC0700209003002081F200001C
:10F2F00038B50D4D2B4653F8184F9C4200D004B939
:10F30000EC68AB6838B95A7BD20604D1A26912B94D
:10F31000DA897F2A05D89C4202D02046FFF7C0FF39
:10F3200023466B6138BD00BF6803002070B590F9BB
:10F330000D20437B002A014604DA03F07F03437368
:10F3400002F032F94B7B154A63F07F0310464B7392
:10F3500050F8183FD469834208BF002323B9C1E99C
:10F3600000042160D1610CE091F90E5093F90E6018
:10F37000B5420ED0AE420CDD5868C1E900300160E4
:10F3800059609068431A5842BDE870405841FFF7F1
:10F39000AFBF9C42E3D01B68E0E700BF68030020DA
:10F3A00070B490F90D30427B002B29DBD30627D1B6
:10F3B00083692BBB134962F07F0242730A4652F8FD
:10F3C000184F944218BF2346CC6923B9C0E90024E2
:10F3D0002060C8610CE090F90E5093F90E60B542C0
:10F3E0000AD0AE4208DD5A68C0E9003210605860A9
:10F3F00070BC0020FFF77CBFA342E7D01B68E4E7A6
:10F4000070BC70476803002008B590F90D20437B5D
:10F41000002A014604DA03F07F03437302F0C4F8C4
:10F42000044B9868431A58425841BDE80840FFF71A
:10F430005FBF00BF6803002070B515461C46064636
:10F4400002F0C4F8B4F1FF3F08BFB5F1FF3F08D0A8
:10F450002A46234606F118000249BDE8704000F034
:10F460000FBA70BDB71601002DE9F041002A437BA9
:10F470000E460CBF10210821194204460AD10B4345
:10F48000DD0903F09F0211D14273082914D0012035
:10F49000FFF72EFF1B4B9B68A3422CD1EFF3058394
:10F4A0004BBB3046BDE8F041FDF70EBC03F01F0337
:10F4B000437302F079F8E8E7A36813B1204602F03D
:10F4C0007BF804F1180002F04DF904F158074FF0F1
:10F4D0000008A56DBD42DAD0002DD8D0284602F034
:10F4E0006BF805F1180002F03DF9C5F87880284660
:10F4F000FFF756FFEDE786F31188BFF36F8FBDE886
:10F50000F08100BF6803002038B54FF02003EFF30F
:10F51000118583F31288BFF36F8F104B104A9C68DC
:10F520001068A04206D1FFF7BBFE85F31188BFF338
:10F530006F8F38BD00211B7C11600A4AD35C002B01
:10F54000F3D02046FFF77EFE0028EED0637BDB067B
:10F5500002D12046FFF7EAFE2046E4E768030020D8
:10F5600088030020AC07002070B50C480C4D86685D
:10F570002E600C461146DDE904234FF02006EFF320
:10F58000118586F31288BFF36F8F8068FFF754FFF1
:10F590002046BDE87040FDF797BB00BF6803002020
:10F5A0008803002049B9EFF3058030B9054B5A694B
:10F5B0009B689A4201D0FDF787BB81F31188BFF3A6
:10F5C0006F8F70476803002010B54FF02002EFF3F3
:10F5D000118482F31288BFF36F8F427B510704D4EA
:10F5E00084F31188BFF36F8F10BD22F004024273C1
:10F5F000FFF7D6FE21460248BDE81040FFF7D2BF14
:10F60000AD0700204FF02003EFF3118183F3128840
:10F61000BFF36F8F044B9A68D37B013BD37381F3A5
:10F620001188BFF36F8F70476803002010B54FF04B
:10F630002003EFF3118483F31288BFF36F8F084B1D
:10F640009A68D37B0133D3730020FFF751FE84F314
:10F650001188BFF36F8FBDE8104002F058B800BFAB
:10F6600068030020024B03F11802C3E90622704729
:10F6700068030020F8B54FF02003EFF3118583F302
:10F680001288BFF36F8F19498868437B03F07F03AB
:10F69000437301F089FF8B685A7B084662F07F0252
:10F6A0005A7350F8182FCC69824208BF002222B941
:10F6B000C3E900042360CB610CE093F90E6092F97A
:10F6C0000E70BE420ED0B7420CDD5168C3E9002176
:10F6D0000B6053600120FFF70BFE2846BDE8F840A1
:10F6E000FDF7F2BAA242E3D01268E0E76803002017
:10F6F00050EA01032DE9F04105460E4603D1FFF71C
:10F70000B9FF00202CE0831C71F1FF332ADB02F0EB
:10F710003FF82C184FF02003EFF3118883F3128881
:10F72000BFF36F8F114F124BB8681860FFF76CFE74
:10F73000B86810492A463346183000F0A1F8BA6874
:10F74000537B43F0100353734046FDF7BDFA02F0BC
:10F750001FF8201A63EB0303012873F10003D0DBC9
:10F76000BDE8F0816FF00104241AD3E7680300209C
:10F7700088030020B7160100B1F1FF3F08BFB0F1C8
:10F78000FF3F08B506D10A4B986801F057FF4FF0CC
:10F79000FF3008BDFFF7ACFF4FF47A7147F6FF73F7
:10F7A0000022C0FB0132D80B40EA4240F1E700BF23
:10F7B00068030020014B9868704700BF6803002071
:10F7C00008B50648064A0749121A01F0D9FEBDE8F5
:10F7D0000840054A0549064801F0D2BE0000002055
:10F7E000C8000020A821010000000000A82101009D
:10F7F00000000020034B1B680BB9FEF797BC0020EC
:10F80000704700BF9403002010B50E4B1C689C424B
:10F8100004D1FFF7EFFF6FF0004010BDFFF7EAFFE4
:10F82000002CF8D0D4E904321B1A62EBE072B3F179
:10F83000004F72F10001EEDA002AACBF184600203A
:10F84000EBE700BFB800002030B570B10B4B5B6830
:10F8500098420AD0036843B1D3E90421D0E90445B2
:10F86000121941EB0501C3E90421D0E9003213600C
:10F870005A600023C0E9003330BD00BFB80000204B
:10F88000B3F1FF3F08BFB2F1FF3FF8B504461D4694
:10F8900016465CD081604FF02003EFF3118783F3AD
:10F8A0001288BFF36F8F013275F1FF3324DA2D49CF
:10F8B000D1E900206FF001039B1A4FF0FF3262EB99
:10F8C00000009E1B60EB0500012E70F1000301DAC1
:10F8D00001260020C4E90460234ED6F800C07568F4
:10F8E000B44508BF4FF0000CBCF1000F0DD1C4E9C6
:10F8F00000652C6074601CE0FFF77CFF013645F169
:10F900000005361845EBE070E4E7DCE90420D4E9B3
:10F910000431934271EB000E1ADAD21ADCF804308B
:10F9200060EB0100CCE90420C4E900C31C60CCF802
:10F9300004403368B34206D09C4204D1FFF764FF11
:10F940000021FEF7C5FB87F31188BFF36F8FF8BD69
:10F950009B1A61EB0001AC45C4E90431C7D0DCF867
:10F9600000C0C1E700020020B80000202DE9F84FD8
:10F970004FF02003EFF3118C83F31288BFF36F8FE6
:10F98000DFF8B0A0DFF8B0902C4FC9F80000DAF82B
:10F9900000000024504508BF00200025D7E90021C1
:10F9A000D9F80030E04680B3D0E9046C4FEAE37E3A
:10F9B000B3427EEB0C0B05DAF61A6CEB0E04C0E9D1
:10F9C000046422E0B21841EBE671C0E90445C7E9DE
:10F9D0000021FFF739FF88F31188BFF36F8F836829
:10F9E00098474FF02003EFF3118883F31288BFF399
:10F9F0006F8FD9F80030DAF800009B1B5045C446E1
:10FA0000C9F80030CAD1D7E900219A1841EBE37355
:10FA10000024C7E90023C9F80040FFF7F5FE21469E
:10FA2000FEF756FB88F31188BFF36F8FBDE8F84FE0
:10FA3000FFF76ABDB80000209403002000020020F8
:10FA400010B54FF02003EFF3118483F31288BFF356
:10FA50006F8FFFF7CFFE064A0346D2E90001181860
:10FA600041EBE37184F31188BFF36F8F10BD00BFCA
:10FA700000020020014801F00CBA00BF542101002F
:10FA80000FB407B5064B04AA186852F8041B01927C
:10FA900000F0A4F803B05DF804EB04B0704700BFB9
:10FAA000141F01002DE9F04101260746B24201DC96
:10FAB000BDE8F0813B461F4613F8014B002CF7D000
:10FAC000252CF8D11C78252C07F10207F2D0002351
:10FAD000DFF804819C461D461F2D18D8A4F1200E86
:10FAE000BEF1100F09D9A4F1300EBEF1090F1ED8D6
:10FAF0000A2404FB03E3202504E028FA0EFE1EF08E
:10FB0000010F06D017F8014B002CE5D128E07F2D1E
:10FB10001CD8A4F1300EBEF1090FE9D9242C10D164
:10FB2000BCF1000F46D0B34246D00023EAE724F0F0
:10FB3000040EBEF12A0FF8D06C2C09D145F08005D7
:10FB4000E0E724F0040EBEF12A0FEED06C2C22D098
:10FB50006C2C1BD8682C23D06A2C28D04C2C26D097
:10FB6000BCF1000FA4D0B445A0D144F02007A7F108
:10FB7000650CBCF1020F0B6801D9612F1ED1073350
:10FB800023F0070308330B6001368EE7742CB9D0DD
:10FB90007A2CB7D0E4E72C0648BF45F40075CDE7D2
:10FBA000EC0548BF45F4007545F48075AAE745F4B7
:10FBB0002075A7E79C46B8E76324D6E7692C02D0F6
:10FBC00007D8632C03D02F0601D5AC05D7D4043356
:10FBD000D9E7732CF6E700BF892801002DE9F04F23
:10FBE00095B04368039383789B07CDE90A1280465A
:10FBF00011D50D920B4600261F7877B1252F10D016
:10FC000001330993039B414638469847002806F183
:10FC1000010680F22E854FF0FF36304615B0BDE864
:10FC2000F08F5F789A1C252F0992EBD0002425468F
:10FC3000A246A346BBF11F0F32D8A7F12003102B19
:10FC40000AD8DFE803F02409092A0909091B090970
:10FC50000922092709091900A7F13003092B2DD919
:10FC60002A2F39D154B90D9B1BF0400F53F8042BA8
:10FC70000D9329D0154601E04BF0010B099B13F8B9
:10FC8000017B0993002FD5D156E04BF0020B4BF0CE
:10FC9000040BF3E74BF0080BF0E74BF0100BEDE72C
:10FCA000BBF17F0F3FD8A7F13003092BD8D81BF049
:10FCB000400F03D00A2202FB0535DFE70A2202FBD0
:10FCC0000A3A4BF0200BD9E7B2F1000AF9DACAF18F
:10FCD000000A4BF0280BD1E72E2F05D11BF0400F67
:10FCE0009BD14BF0400BC9E7242F1CD1002C00F016
:10FCF0008A800B9B0D931BF0400F0AD152460A9845
:10FD00000DA9FFF7CFFE0D9B1A1DD3F800A00D9291
:10FD1000B4E72A460A980DA9FFF7C4FE0D9B1A1DE9
:10FD20001D680D92AAE76C2F5AD052D8682F5FD069
:10FD30006A2F65D04C2F63D034B10B9B0A980D937A
:10FD400022460DA9FFF7AEFE002D47F02003B8BFF5
:10FD50002BF0400B0793A3F16503BCBF1FFA8BFB8D
:10FD60000025022B54D947F02003612B40F0638318
:10FD7000FF4307F0200308930D9B073323F007038D
:10FD800003F108020D924BF4C05204921A680592D6
:10FD90005A68DDF814C0C2F30A57C2F3130047EAE9
:10FDA0000C0353EA000401460BF040044FEAD27200
:10FDB00059D13027D2B28DF83D708DF83C20A7B2D2
:10FDC000002C00F0BF810C2D4FF000075DDD0D25EC
:10FDD000B2E0742F3FF452AF7A2F3FF44FAFABE74E
:10FDE0001BF0800F18BF4BF4007B4BF0800B45E7F6
:10FDF0001BF4807F18BF4BF4007B4BF4807B3DE706
:10FE00004BF4207B3AE72546AB465446AA4635E7F5
:10FE1000FF4307F0200308930D9B073323F00703EC
:10FE200003F10802D3E90001079B0D921BF0400F7C
:10FE300008BF0625652B40F099816B1C0022DBB2C0
:10FE40004BF4805B1446112BCDE9002428BF11230D
:10FE50000EAA00F0ADFCC3B2059302230E9FCDF8AD
:10FE600010B0069380E0002F00F03B813123D2B226
:10FE70008DF83D30A7F2FF378DF83C20A3B2002C5F
:10FE800000F057810C2D00F35681C5F10D0189005A
:10FE9000012301F1FF39A1F12104C1F1210E23FA5F
:10FEA0000EFE03FA04F403FA09F344EA0E0413EB1A
:10FEB000030E44EB0409DEF1000BCDF818B069EB3A
:10FEC000490BCDF81CB0DDF814B01EF1FF3E49F12E
:10FED000FF390EEA0B0E09EA0009734574EB0909B4
:10FEE00012DBC1F12009B1F1200E00FA09F92BFA59
:10FEF00001F141EA09015CBF40FA0EFE41EA0E0140
:10FF000011F0010F00F0F0800599CB1840EB0400D0
:10FF1000B0F5801F9C46C0F2E7809DF83D10B7F514
:10FF2000806F01F101018DF83D1000F0E980069A23
:10FF300007991A4013460140089A0D20C2F1570450
:10FF400003F00F021B0943EA01730911002A40F074
:10FF5000FE80854280F2FD800138F1D10E23012020
:10FF6000CDE905307023079307F10902122A3B46B9
:10FF700000F2D1809DF83CB00BF00C091BF0010B96
:10FF800040F02D81049B9A0700F1238113F00404B3
:10FF900000F00281B9F1000F40F027814FF02009F5
:10FFA000049B13F4405F23D1059B5033002D6B4419
:10FFB00008BF0125133B059A22B113F8012D302A01
:10FFC00000F04781049B13F0100F059B18BF2B46D0
:10FFD000381DC0F24381BD4240F34081049A42F48F
:10FFE000005292B2BB42049240F33A817D1C5D1BE9
:10FFF000049B13F4005B00F0358127EAE7740134B9
:020000021000EC
:10000000B9F1000F00D00134002D00F034816B1CD9
:100010001C44049BA245CCBFAAEB0404002413F0AB
:10002000090F04D13444A64240F02A810024B9F1DA
:10003000000F08D0039B414648469847002806F128
:100040000106FFF6E8AD049B1A0513D5039B414654
:10005000302098470028FFF6DEAD089BC3F17800FA
:100060004146039B00F0F8009847002806F102067D
:10007000FFF6D1AD049B1B0705D43444B44240F0D5
:10008000098126460024BBF1000F00F0348127EAE5
:10009000E77AA7EB0A0B6D42059B5B4584BF0EAB6D
:1000A0005B440AF1FF3A8CBF58793020554506F180
:1000B000010900F3F980039B4146984700280BF1A2
:1000C000010BFFF6A8ADBAF1FF3F08D1039B4146F3
:1000D0002E2098470028FFF69EAD06F102094E46F5
:1000E000DAE730230127C2E6069B03EA0C0C079BE4
:1000F00003401846B7F5806F26D15CEA00001CD09B
:1001000042F008028DF83C204FF480670E230593DF
:10011000702307933B4603F16302C62A3AD903F2E0
:10012000E73340F2CE7293428CBF0423032306933D
:1001300020E71D46DEE70D25DCE742F004028DF8DE
:100140003C20E3E73D46F7E663460146F4E6092A2C
:1001500009D830320DF1380C844485428CF80520E2
:10016000B8BF0546F8E62244D2B2F3E7079B662BF8
:1001700005D14BF4005B2C460122112363E6EBB260
:10018000012B4FF000024FF0650738BF01231446E2
:10019000079758E60223CAE7B9F1000F3FF400AF12
:1001A000BAF1030F34DD049B1F07AAF103042FD417
:1001B0003444039B414620209847002806F101065D
:1001C000FFF629ADA642F4D1BBF1000F36D00024D2
:1001D00015E0B9F1000F2BD14FF02B09E0E6B9F192
:1001E000000F28D14FF02D09DAE64FF0200BBAF1BD
:1001F000040FECDD049B1D07AAF10404D8D5039B72
:10020000414658469847002806F10106FFF603AD1F
:100210009DF83C309F4D13F0080F9F4B08BF1D46C3
:100220002F46B94617F8010B50B9751BA9445DE07C
:100230004FF02B0BDBE74FF02D0BD8E75C46E7E7E1
:10024000089BC01A4146039BC0B298470028E8DAD1
:10025000E1E4059A013AD2B20592ACE65D1EC7E62A
:100260000025C5E6049B13F4006F069B0CBF032416
:1002700005241C44C4E6049BD90648BF0134C8E6E3
:10028000039B414620209847002806F10106BFF64F
:10029000CAAEC0E4039B414630209847002806F1CF
:1002A0000106BFF6EBAEB6E4BA450AD19DF83D3083
:1002B000352B1ED805D19DF83C3013F0100F08BF28
:1002C0003120039B414698470028FFF6A4AC049BCD
:1002D000D8060BD5BAF1FF3F08D106F10209414615
:1002E0002E20039B98470028FFF695AC4E464C44C1
:1002F00046E23120E5E79DF83D0031281EBF9DF81C
:100300003C3023F010038DF83C304146039B984766
:100310000028FFF680AC002D6DDD039B41462E20AA
:100320009847002806F10209FFF675AC012633460E
:10033000059A96423BBF50336B44302013F8130CA0
:10034000039B41469847002809F10109FFF663AC79
:100350000136F6B2AE423346EADDDDE90732981ADD
:100360004146039BC0B298470028FFF654AC002FCB
:1003700004DB4FD19DF83C30DB064BD57F422D206E
:10038000039B414698470028FFF645AC069B042B8B
:1003900042D14FF47A7697FBF6F505F13000039BD6
:1003A0004146C0B29847002809F10309FFF633AC73
:1003B00006FB1577642697FBF6F505F13000039BE5
:1003C0004146C0B29847002809F10109FFF623AC65
:1003D00006FB15770A2697FBF6F505F13000039B1F
:1003E0004146C0B29847002809F10109FFF613AC55
:1003F00006FB157718E0049BDA0602D406F1010922
:10040000ABE7039B41462E209847002806F10209DE
:10041000A3DA00E42B20B3E7069B032B09F10209C2
:10042000C8D0069B012BD5D107F1300009F1010995
:100430004146C0B255E7A7F16303122B00F20081D9
:10044000DFE813F013005800FE00FE00FE00FE007F
:100450005800FE00FE00FE00FE00FE001A01F9003A
:10046000FE00FE002C00FE00BA000D9B1A1D1B684A
:100470000D928DF8383001240EAF1BF0080F2ED0EE
:1004800007EB04093D46A9452BD1F71BB944AAEB5C
:1004900004042BE79A210100962101000D9B1A1DEF
:1004A0000D921F68AC4B002F08BF1F461BF0400F7A
:1004B00014BF29464FF0FF31384601F06DF904466C
:1004C000DBE7039B4146202098470028FFF6A3ABBB
:1004D000013DA542F5D85644761BAA46D0E75546BD
:1004E000F7E715F8010B039B414698470028CADA45
:1004F000FFF791BB1BF0800F0D9B3CD01BF4007FDE
:1005000034D0073323F00703D3E9000103F10802D5
:100510000D922BF0100900291FFA89F93DDA4042AB
:1005200061EB410149F480690DF1380B0A235A4609
:1005300001F03EF919F0400FA0EB0B0B65D029F04C
:1005400001025D4592B240F3B380002F00F0AB8012
:1005500019F010032C46914640F0AD8040F206435E
:1005600019EA03031CBF0134002355E01A1D186863
:100570000D92C117CDE71A1D1BF4807F19680D92EB
:1005800001D10846F5E71BF4007F15BF48B208B259
:1005900041F3C01141F3C031BBE750EA0103C3D1BD
:1005A0001BF0400FC0D0002DBED12BF0110B1FFA55
:1005B0008BF9AB462C46D1E72BF0100B1FFA8BFBC7
:1005C0000A231BF080040D9A59D01BF400711DBF43
:1005D000073222F0070202F10801101D19BF0D9128
:1005E000D2E900010D90106850EA010254D12BF0BD
:1005F00016091BF0400F1FFA89F951D0002D4FD179
:100600002BF0170B1FFA8BF9AB4619F0100354D0DF
:10061000002F4FD10BF1010419F0080F60D119F030
:10062000010F06D0A2456FDDAAEB040404EB0B0515
:10063000544622464FE04BF0100B10237827C0E7BA
:1006400047F02003782B05D1582F14BF10234FF407
:100650000473B6E7039B4146252098470028FFF620
:10066000DAAA039B4146384698470028FFF6D3AAEA
:100670000236099BFFF7C0BA08230027A1E7111D26
:100680000D911BF480711068AED01BF400711ABF7D
:10069000C0B2214680B2A7E72BF0060B1FFA8BF9F8
:1006A0000DF1380B43E729F011091FFA89F981E7A9
:1006B0009146AAE75C460234AEE75C464EE7CDE9D8
:1006C00004234146039B202098470028FFF6A3AA55
:1006D000049A059B01329245F1DC341BA61814469E
:1006E000A3B1039B4146302098470028FFF693AA08
:1006F00087B3023641463846039B98470028FFF6E9
:100700008AAAB14635441CE05D4692E740F20643B2
:1007100019EA030FF5D019F0020F14BF2B20202087
:1007200019F4806F06F10106414618BF2D20E3E75A
:10073000039B414630209847002809F10109FFF644
:100740006AAAA5EB09035B45F2DC5D460EAE2DB946
:10075000D9449CE60136D4E79E210100013D039B6C
:10076000705D414698470028F1DAFFF754BA039BC1
:10077000414620209847002806F10106FFF64BAAC3
:10078000A31B002BF3DC74E71FB502AB0093074AF1
:100790004FF0CC3301F0F3F8DDE90201C00840EA84
:1007A0004170C90805B05DF804FB00BFCDCCCCCCCE
:1007B0002DE9F04F9BB0044605920A460A93C2F316
:1007C0000A559DF890300B93D20FC1F31303099291
:1007D000090D85B950EA03021CD1059A30235371E3
:1007E000099B957143F00203137115600127384688
:1007F0001BB0BDE8F08F40F2FF7295424AD103432F
:10080000099B059A14BF43F0080343F004031371D6
:100810000027ECE700F0010208924FEA830801226A
:10082000AB4D48EA907887009A461646C5F1000B12
:100830005846069200F01CFBB5F1FF3FACBF814665
:10084000A0F10109ABEB090B09EB05035846049332
:1008500000F014FB16A9A0F17D05584600F012FA2D
:1008600012AB069A0193A9EB050510AB0292009317
:1008700020462B4616AA514600F0C6FFB9F1010FDB
:1008800004460D4600F2D280089B002B40F0C58044
:1008900001276BE043F4801A00F001024FEA8A0856
:1008A0000343A5F23545089248EA90784FEA80075D
:1008B00049D140F2FE7319420CBF01260026002DDB
:1008C0003246B3DB284600F0CDFA032DC8BF01380D
:1008D000049000F0D3FA049B7C305D1B054416A9FC
:1008E000184600F043FA12AB019310AB0093204678
:1008F0002B46029616AA514600F086FF049B152B44
:1009000004460D4600F2868014AB724A00933846C6
:100910004FF0CC33414601F032F8149B159A9B08F6
:1009200043EA827303EB8303BB42DDE9109A0CD1E7
:100930003846414600F08EF9049B83428CBF002765
:100940000127002612E00126B9E7089B002B51D1B0
:10095000013F48F1FF31B81B61F1000100F07AF965
:10096000049B089F83428CBF002601260B9B002B13
:1009700040F09080DDF828B04FF00008CDE90688FF
:100980004FF00A0ADDE91001FFF7FEFE129B0E93FD
:10099000CDE90C0118461399FFF7F6FE0C9B0D9A52
:1009A0000F9198420B469341814680F08D802046FE
:1009B0002946FFF7E9FE0E9A0AFB09F3934214BF9A
:1009C000002606F001060C9B10930D9BCDE9113912
:1009D0000F9B1393079BB8F1000F14BF002707F07C
:1009E000010701330AFB10485FFA88F807930446B1
:1009F0000D46C7E7B81C48F1000100F02BF9049B35
:100A000083428CBF00200120B9EB00006AF1000294
:100A1000CDE9100200273E46A8E7109B119A013B42
:100A200042F1FF32CDE9103201278AE7B9F13E0FDA
:100A3000F0D84FF0FF33A9F1200003FA09F203FACE
:100A400000F0C9F1200123FA01F102430A4303FA3D
:100A500009F327EA030728EA020857EA08070CBF48
:100A6000012700276DE700FB02FCA1FB0012013308
:100A700062448C4275EB020CF5D2049ADDF828B082
:100A80001344259A1344012BB8BF01239B45A8BFEB
:100A90009B4671E70A21002201230846E9E70AFB89
:100AA00003F0A2FB0A2301310344944275EB0300D7
:100AB000F5D2594510DDBBF1000F02D154EA050310
:100AC0000AD00123069372E70A2200230121ECE7F2
:100AD000CCFBFFFFCDCCCCCC002E2FD04FF00A0AA0
:100AE000129B13990D931846FFF74EFE0D9B0C9128
:100AF0000AFB00F29A42814620D1DDE91001FFF79E
:100B000043FE0E900D9120462946FFF73DFE0D9BBA
:100B10000E9A1092CDE911390C9B1393079BB8F1F3
:100B2000000F14BF002707F0010701330AFB10482C
:100B30005FFA88F8079304460D46D1E7DDF8109078
:100B4000079B9944002F5DD0B8F1050F5AD114F0DE
:100B500001034DD1069A32B9DDE912239D4208BF47
:100B6000944262D0069B18194FF00A0445F1000127
:100B7000002201262546A04271EB020758D2E3B1BC
:100B8000B3451ADA0B9B63B1259ADDF828B006EB62
:100B90000903134423EAE3739B45A8BF9B465E45C4
:100BA0000BDD05304FF00A024FF0000341F1000168
:100BB000FBF7A6FB09F10109013E5E45A8BF5E46B1
:100BC00037B20FFA89F9059B09FA86F607F105088D
:100BD000013E98444FF00009B94530DB059B3B448A
:100BE00000225A71059B1A461E60099B1371FEE58F
:100BF000069B2BB9DDE912239D4208BF944209D020
:100C00000123B0E7069B53B9DDE912239D4208BFDB
:100C1000944204D1089B002BF2D1002EF0D0B8F101
:100C2000040F94BF002301239DE74FF00408F1E770
:100C300005FB02F7A4FB054201363A449BE70A2272
:100C40000023FBF75DFB303208F8012D09F10109A3
:100C5000C2E700BF0A4A70B503464FF0CC36002009
:100C60004FF0333506FB03F402FB0144A3FB0231D2
:100C700021449D4275EB010401D30130F2E770BDC0
:100C8000CDCCCCCC2DE9F04F1A23354EB0FBF3FA86
:100C900003FB1A0389B004460D4606EB0A1653B946
:100CA000D6E90023C1E90023D6E90201C5E9020122
:100CB00009B0BDE8F08F2B4A02EBC303D3E90089EA
:100CC00004AB0093D6E902234046494600F057FEA4
:100CD00006AB0093D6E9002383460F4640464946BB
:100CE00000F04DFEDDE9066216EB0B0652EB07083D
:100CF0004FF0000328BF0123814633B1049B059ABE
:100D0000013342F10002CDE904322046039100F0A4
:100D1000B5F807461A2000FB0AF000F0AFF83F1ABA
:100D20003246434603990097484600F043FE4FEA97
:100D3000141C0D4A640004F01E0352F82C40DC40E1
:100D400004F00304241841F10001C5E90041DDE984
:100D5000042300973046414600F02CFEA6E700BF72
:100D6000281D0100581C0100F41F01002DE9F04F5F
:100D70001A27DFF8E4A000F11905B5FBF7F56F437A
:100D80003A1A4FEA051B89B004460E460AEB0515D0
:100D90000AD1D5E90023C1E90023D5E90201C6E95A
:100DA000020109B0BDE8F08F2C4B03EBC203D3E97D
:100DB000008904AB0093D5E902234046494600F080
:100DC000DEFD5AF80B206B68013ACDE9020106A955
:100DD00063F1000300914046494600F0D0FDDDE993
:100DE00006528A4602996D18039952EB01084FF09A
:100DF000000328BF0123814633B1049B059A0133C8
:100E000042F10002CDE90432384600F037F80746D7
:100E1000204600F033F83F1A2A46434600974846DA
:100E2000514600F0C7FD4FEA141C0D4A640004F05F
:100E30001E0352F82C40DC4004F003040134241853
:100E400041F10001C6E90041DDE90423009728468D
:100E5000414600F0AFFDA2E7F81D0100581C01005B
:100E600048200100014B5843800C70474134010079
:100E7000014B5843000D7047FB2E0B00024B5843AB
:100E8000C00C0130704700BF4F9312007047002024
:100E900070470FB407B504A951F8040B0191FBF793
:100EA000B1FB03B05DF804EB04B0704700EBC10088
:100EB000408840087047F8B50346FFF7F7FFB0FADF
:100EC00080F0C0F11F0003EB800CCA00DCF810605A
:100ED000171D0C4606328DB256B9012101FA00F0F9
:100EE000D9680143D960CCF81040DD539D52F8BD5C
:100EF000F1000431585AD85303EBC0009E52C5800C
:100F00005D52F4E7043A2DE9F041CC1D114424F080
:100F1000070421F007010E1BF708B7FA87F2C2F1A8
:100F20002405AD004FF000080735C2F12002ED089E
:100F300004604146A760C4F80C80920004F11000E0
:100F400000F065FD6B0043F00103638004EBC50214
:100F50007B1B5900A4F800805180A21924F8355059
:100F6000A2F80280A35304EBC70329465A8842F033
:100F700001025A802046BDE8F041FFF79CBF038B79
:100F800013F0070305D10368002B0CBF00200320DA
:100F90007047022B05D1408BB0FA80F040098000E9
:100FA0007047012B05D10368002B0CBF00200520E2
:100FB00070470020704710B50C4600B111B96FF0B2
:100FC000150010BD081D00F095F80028F9D1A368A0
:100FD000032BF6D9F3E72DE9F0410D4607461946F4
:100FE000281D90461E4600F096F8044638B1334658
:100FF000424629463846A446BDE8F0416047BDE870
:10100000F08110B44FF02004EFF3118284F31288C2
:10101000BFF36F8F416110BC0121FBF725BB38B5D1
:101020000C46054658B151B10B6843B14B6833B11A
:101030001C22002100F0EBFC2C61002038BD6FF079
:101040001500FBE770B505460E46FFF7B4FF041E1A
:1010500015DB4FF02003EFF3118283F31288BFF307
:101060006F8F6B8B2C8B4FF6FF718B4204F0070454
:1010700007D182F31188BFF36F8F6FF00A04204607
:1010800070BD022C0CD101336B8382F31188BFF346
:101090006F8F0023224631462846FFF79CFFEEE77C
:1010A000062C14D8DFE804F004131313041A040008
:1010B000002333606B683BB9C5E90066ACB9022117
:1010C0002846FBF7D1FADAE71E606E60F6E782F396
:1010D0001188BFF36F8F6FF00404D0E782F311889B
:1010E000BFF36F8F6FF08504C9E782F31188BFF3F8
:1010F0006F8FC4E7034658B1426802F00302012A29
:1011000003D0032A04D1026812B10020986070470E
:101110006FF0150070474268816002F00302032AF5
:101120004FF0000203460CBF006810465A6070473B
:101130007047FDF799BE01460068FDF795BE08B5FA
:10114000FBF7A8FBBDE80840FBF7D6BB0021012058
:10115000FFF7EFBF202809D9B0F1004F08D80138B8
:10116000B0FA80F0C0F11F004000704708207047BF
:101170003E20704708B5FCF723F8002008BD03693E
:10118000C9B20C2201FB0233186C00F00700704753
:101190004FF02003EFF3118283F31288BFF36F8FB8
:1011A000036803F0C00343F00203036082F3118875
:1011B000BFF36F8F704770B5C9B203694FF0200459
:1011C000EFF3118584F31288BFF36F8F0C2606FBB3
:1011D0000134246C14F0C00408D0A24206D085F378
:1011E0001188BFF36F8F4FF0FF3070BD06FB0133E6
:1011F00001221A6485F31188BFF36F8F436803EBF4
:10120000C1035B6898470020EFE78022FFF7D3BF58
:10121000F8B5069F0469C9B24FF02005EFF31186B7
:1012200085F31288BFF36F8F0C2505FB0144256CF5
:1012300005F0070CBCF1010F0CD1276486F311886F
:10124000BFF36F8FC4E90E23436853F831309847DA
:101250000020F8BD05F0C005AF4286F31188BFF34A
:101260006F8F0CBF6FF077004FF0FF30F1E713B5D1
:1012700080240094FFF7CCFF02B010BD10B40069C9
:10128000CBB21C2403FB0400002110BC104700203B
:10129000FDF71CB9002000F0F0B81046FDF786BF3E
:1012A00043685B68D3F810350B60002070474368D3
:1012B0005B6802EA010021EA0201C3F80805C3F8ED
:1012C0000C150020704743685B680020C3F80815C0
:1012D000704743685B680020C3F80C15704743688B
:1012E0005A68D2F8043521EA03000B40C2F8080519
:1012F000C2F80C350020704710B503695868F8B182
:10130000884219D19C6808685860A14200D1986051
:10131000002008602AB15A680A609A68596002B9C8
:101320009960002010E0814206D10868206098682A
:101330008142EDD19C60EBE7044600680028F2D1C1
:10134000002AE8D16FF0150010BD30B54368136076
:10135000057A446804EBC504A34202D36FF0010090
:1013600030BD5C798C4201D00833F0E70020F7E70C
:1013700002690B46D2E9010183E8030000207047AF
:1013800043681B68D3F88004C3F88004704743683F
:1013900002691B68D3F8100150B15269002012781D
:1013A0000A70C3F81001D3F8102101221A607047A7
:1013B0004FF0FF30704702680346D2F8580140B939
:1013C0005B689B0706D4D2F82001003818BF0120C3
:1013D00070470120704742681368D3F80413C905A9
:1013E00018D5D3F82011A9B14FF02000EFF31181E7
:1013F00080F31288BFF36F8FD3F8200130B1002043
:10140000C3F82001D3F820010120D86081F31188AE
:10141000BFF36F8F5268D20615D54FF02001EFF35E
:10142000118281F31288BFF36F8FD3F8581111B175
:101430000021C3F800154FF48001C3F8081382F3AC
:101440001188BFF36F8F704700F150039B009BB270
:1014500003F1804303F5883300221A601B6870474C
:10146000004700F06FB8C00000F1804000F5F83090
:10147000C0F81015C0F814257047FCF7A3BFF7B5E6
:10148000019001A8DDE9084716461D46FDF7A6F8BC
:10149000019BB6F1000C18BF4FF0010C00EB83006C
:1014A0000B1E18BF0123002D43EA4C0314BF4FF05D
:1014B0000C0C4FF0000C002C43EA0C0314BF4FF44B
:1014C000E06C4FF0000C002F43EA0C03D0F800272B
:1014D00014BF4FF4403C4FF0000C43EA0C0322EAE7
:1014E000030301B109780EB13678760019430DB1C6
:1014F0002D78AD0031430CB12478240229430FB17B
:101500003F783F040C433C43C0F8004703B0F0BDB4
:101510001FB50DF10F03019300238DF80F100093F9
:101520001A461946FFF7ABFF05B05DF804FBFDF75F
:1015300055B9FDF72DB9FDF763BC08B5FFF7FBFF03
:10154000002008BD08B1FBF783BE7047704740B16B
:10155000C368587810F001001EBF1878B0FA80F008
:10156000400970474FF02002EFF3118382F3128895
:10157000BFF36F8FFEE708B5FFF7F4FF00F047BA3F
:1015800000F037BAEFF30580003818BF012070472C
:1015900008B54FF02002EFF3118382F31288BFF3F6
:1015A0006F8FFBF78FFCF4E7D0E9003213605A60CD
:1015B0000023C0E90033704708B5FFF7F5FF437B10
:1015C00023F0020343730023836008BD38B504464B
:1015D0000D46FDF719FF637B43F002036373E5B12A
:1015E000A5602B689D4209D16B68C4E900531C605B
:1015F0006C6012E06A689342F6D01B68002BF3D04F
:1016000094F90E2093F90E108A42F3D09142F1DD45
:101610005A68C4E9003214605C6038BD10B54FF000
:101620002003EFF3118483F31288BFF36F8FFDF76C
:10163000B7FE84F31188BFF36F8F10BD10B5044659
:10164000183000F08FF84FF02003EFF3118183F38F
:101650001288BFF36F8F627B12F0100204D081F307
:101660001188BFF36F8F10BD2046BDE81040FDF715
:10167000FBBE38B504464FF02003EFF3118583F32A
:101680001288BFF36F8F437B13F0280F0BD1836851
:101690000BB1FFF791FF637B51B903F0FB03637359
:1016A0002046FDF77DFE85F31188BFF36F8F38BDAF
:1016B00003F0EB03F3E701211838FFF7DABF38B581
:1016C0004FF02003EFF3118583F31288BFF36F8F80
:1016D0000468A0420DD034B12046FFF76DFF04F13D
:1016E000180000F03FF885F31188BFF36F8F204694
:1016F00038BD0024F7E7034620B9EFF305820AB9A5
:10170000FBF7E2BA83F31188BFF36F8F70474FF096
:101710002003EFF3118083F31288BFF36F8FFFF77D
:10172000EABF4FF02002EFF3118182F31288BFF37A
:101730006F8F027BD2070AD581F31188BFF36F8FB9
:10174000404080F311884FF0040002DF7047437B74
:101750001B0704D581F31188BFF36F8F70470122F7
:10176000FDF782BE10B54FF02002EFF3118482F333
:101770001288BFF36F8F03683BB1FEF765F8002056
:1017800084F31188BFF36F8F10BD6FF01500F7E77A
:1017900008B5FEF755F908BD10B5024601448A4266
:1017A000134603D01C780132002CF8D1181A10BD52
:1017B0002DE9F0471D46AB0548BF25F400750746E7
:1017C000884616464CBF4FF0070A4FF0270A4FEAEB
:1017D000E579384641462A464B46FAF791FDD4B2A0
:1017E000092C88BF54443A46434688BFE4B2AA4213
:1017F00004F1300473EB090306F8014B07468846F1
:10180000E7D23046BDE8F0872DE9F04F87B00618E3
:10181000994602AB41EB0104009315463046D2E9EC
:1018200000232146DDF844B000F0A9F804AB009392
:10183000D5E90223074688463046214600F09FF846
:10184000DDE90263841951EB0306049BD5E900012D
:101850004FF0000228BF0122D218059B43F100037C
:10186000381848EB0101B84271EB0801D5E902C113
:1018700034BF0120002014EB0C0C46EB010110EBEF
:101880000C0041F10001A04271EB060C34BF4FF097
:10189000010C4FF0000CCDE90423A9F1410A1CEB27
:1018A000020243F10003CDF800A000F083F8109B82
:1018B000C3E90001129B012BDDE9042329D1D5E9FD
:1018C0000201D5E900C5201A66EB0101674578EBF6
:1018D000050534BF01250025401B61F1000184424C
:1018E00076EB010534BF01250025521BCDF800A081
:1018F00063F1000300F05EF8DDE90423CBE90001A9
:10190000CDF800A02046314600F054F807B0BDE8FD
:10191000F08F17EB070E48EB080C201946EB060179
:10192000BE457CEB080834BF01270027C71941F1E9
:101930000008D5E9000186457CEB010CD5E90215CC
:1019400034BF01200020381A68F1000C401A6CEBFB
:10195000050192185B41A74278EB060534BF0125CB
:101960000025521943F10003874278EB010834BF88
:1019700001250025521BA9F140050095B8E7F0B5F7
:101980000F460446A0FB0201A7FB02524919A3FB24
:10199000044542F10002A7FB0373611845F10004FE
:1019A000D219059E43F10003121943F10003C6E961
:1019B0000023F0BDF0B5059CC4F14007C4F120063A
:1019C00002FA06F6A4F12005BB4022FA05F53343DE
:1019D000C4F120062B4301FA06F6A4F12005E040ED
:1019E00021FA05F53043BA402843E140104319433A
:1019F000F0BD0A44914200F1FF3300D1704710B5A9
:101A000011F8014B03F8014F9142F9D110BD024486
:101A10000346934200D1704703F8011BF9E7000029
:0C1A200001480068704700000802002028
:081A2C0008A9FF7F0100000082
:101A34000DD2000000000000D9D200007C1A010081
:101A44003B150100000000007DD60000A41A01002F
:101A54007DD60000901A010059DB0000B81A01007D
:101A640049D50000000000006DDF00000000000008
:081A7400E9D1000000000000B0
:101A7C00D6200100241F0100341F0100C0000020EB
:101A8C003C020020E5200100501F0100701F0100E6
:101A9C00C200002090020020F3200100601F010012
:101AAC00701F0100C40000209C02002009210100CD
:101ABC00941F0100C81F0100C60000201400002064
:101ACC0075E5000061140100000000004D110100DB
